:100000000C9483010C94AB010C94AB010C94AB01E8
:100010000C94AB010C94AB010C94AB010C94AB01B0
:100020000C94AB010C94AB010C94AB010C94AB01A0
:100030000C94AB010C94AB010C94AB010C94AB0190
:100040000C94A9370C94AB010C9477370C9451376E
:100050000C94AB010C94AB010C94AB010C94AB0170
:100060000C9432360C94AB013E20424C494E4B204E
:10007000494E54455256414C2053455420544F3A12
:1000800020004F4646003E2052474220003E20526C
:10009000474220003E2052474220424C494E4B49A5
:1000A0004E472028002041743A20004F6E3A20002D
:1000B00020524825200048756D69646974793A209A
:1000C00000202A43200054656D703A2000202A4306
:1000D00020004C4F574553542054454D503A200072
:1000E000202A432000484947484553542054454D51
:1000F000503A2000202A4320004C4F5745535420AB
:1001000054454D503A2000202A4320004849474892
:100110004553542054454D503A20002A494E5641EB
:100120004C494420434F4D4D414E44002A494E56C0
:10013000414C494420434F4D4D414E4400205248CC
:10014000252000202A4320002052482500202A464E
:100150002C2000202A432C200020524825004875DE
:100160006D69643A2000202A43200054656D703A7E
:100170002000203C204572617365203E2054656D4F
:1001800070205468726573686F6C647300205E2021
:1001900049502F5375626E65742F4761746577619E
:1001A00079003E3D003C3D00596573282D3E2920D5
:1001B0004E6F28486F6D65290041726520596F7533
:1001C00020537572653F00436865636B73756D20DE
:1001D0004578703A00436865636B73756D205265AE
:1001E000633A00202A5041434B4554205245434531
:1001F00049564544004D616A6F72204F7665720022
:100200004D696E6F72204F76657200436F6D666F39
:10021000727461626C65004D696E6F7220556E6418
:100220006572004D616A6F7220556E64657200459B
:100230005155414C533A2000455155414C533A20B9
:10024000002A4E4F204441544120594554005665E0
:100250007273696F6E3A200000000008000201000E
:100260000003040700000000000000003E57656C1A
:10027000636F6D6520746F2041726475696E6F20C5
:10028000436F6D6D616E64204C696E6520496E74BC
:1002900065727072657465722C20656E746572206B
:1002A0002748454C502720666F72206C6973742074
:1002B0006F6620636F6D6D616E6473210A000000CC
:1002C000000023002600290000000000250028006F
:1002D0002B0000000000240027002A00010204086F
:1002E00010204080010204081020010204081020A0
:1002F00004040404040404040202020202020303CC
:1003000003030303493911241FBECFEFD8E0DEBF3A
:10031000CDBF12E0A0E0B1E0E8EAFBE702C0059043
:100320000D92A63AB107D9F726E0A6EAB2E001C0DD
:100330001D92A33FB207E1F711E0C3E8D1E004C08A
:100340002197FE010E94B13DC238D107C9F70E9432
:1003500061390C94AA3A0C94000080E480937C00EC
:1003600080917A00806480937A0080917A0086FD83
:10037000FCCF809178009091790008958CBD9DBD4F
:100380000895E091C105F091C2050190F081E02D42
:10039000682F81EC95E009949C0190E0F901E90F48
:1003A000F11D8081811105C0DB018C918083118258
:1003B00008959F5FF3CF8091AA05811145C01092E7
:1003C0009C0510929B058FEF80939F058093A0055D
:1003D0008093A1058093A2058093A3058093A40533
:1003E00081E08093A5051092A7051092A6051092B2
:1003F0009E0510929D058091E0069091E106892B63
:1004000031F489E995E09093E1068093E006E0916C
:100410008B05F0918C05309721F089E995E0958363
:10042000848389E995E090938C0580938B051092E5
:10043000A9051092A80584E492E090939A05809310
:10044000990581E08093AA05E0919905F0919A05BC
:100450000480F581E02D89E995E009958DE895E026
:1004600090939C0580939B0584E090E09093A70572
:100470008093A605E0919905F0919A050284F38591
:10048000E02D89E995E00995009701F19C0150E084
:1004900040E060E472E48FE090E00E94DD3B8091F8
:1004A000E9069091EA06A091EB06B091EC0682175E
:1004B0009307A407B50710F4DA01C9018093E90690
:1004C0009093EA06A093EB06B093EC0689E995E0D9
:1004D000089580E792E090938A05809389050895B6
:1004E000089588E792E090938805809387050895A2
:1004F000089520914005260F3327331F21323105FF
:10050000ECF420913706FC0190E080E0243069F0A3
:1005100082E00895A09140052191AC01405E5A4FC0
:10052000A40FB52FB11D2C930196861798F38091D7
:100530004005680F6093400580E0089581E00895CC
:100540000895E091C0058091BF05E81730F4F0E010
:10055000E95EF94F808190E008958FEF9FEF089555
:100560009091C0058091BF052FEF3FEF981748F499
:10057000E92FF0E0E95EF94F208130E09F5F909332
:10058000C005C90108958091BF059091C005891BE0
:10059000990B0895CF92DF92EF92FF920F931F93E2
:1005A000CF93DF937C01CB018A012091CD052223DB
:1005B00089F0EB016B01C40ED51ECC15DD0569F089
:1005C0006991D701ED91FC910190F081E02DC70177
:1005D0000995F3CF642F0E947902C801DF91CF9172
:1005E0001F910F91FF90EF90DF90CF900895CF93E0
:1005F000DF931F92CDB7DEB769832091CD0522230B
:10060000F9F02091D005203258F021E030E0FC01D3
:100610003383228390E080E00F90DF91CF910895A3
:100620008091CE05E82FF0E0EF52FA4F9981908348
:100630008F5F8093CE058093D00581E090E0ECCF72
:1006400061E0CE0101960E947902F7CFFC01208182
:100650002EBD9B012150310941F051810DB407FE9F
:10066000FDCF4EB55EBD4193F5CF61507109860F48
:10067000971F0DB407FEFDCF2EB5FC012083089512
:10068000E0911005F0911105808190910F05892B63
:1006900080830895E0911005F0911105908180917B
:1006A0000F0580958923808308958EBD00000DB4C9
:1006B00007FEFDCF8EB50895AF92BF92CF92DF9225
:1006C000EF92FF920F931F93CF93DF93CDB7DEB7D7
:1006D00028970FB6F894DEBF0FBECDBF8C017B010B
:1006E0006A0180917F058333E1F45801A40EB51EA1
:1006F000A016B10609F46FC00E944A0380EF0E9461
:100700005503812F0E945503802F0E9455030F5FD0
:100710001F4FF70181917F010E9455030E94400302
:10072000E7CF5B01A40EB51E8433C1F40E944A03D7
:1007300019830A838D2D80688B83CC8264E070E0FE
:10074000CE0101960E942603AE14BF0409F441C0F5
:10075000F70181917F010E945503F6CF0E944A0361
:100760000F3F110509F028F419820A8384E08B8376
:100770000CC017FD17C019820A8333E01695079540
:100780003A95E1F7007E0C600B8386E0C816D10431
:10079000A0F5F701DE011496EA15FB0599F08191A9
:1007A0008D93FACFC80126E0969587952A95E1F7B3
:1007B000807E19830A830115104C10F48461D7CF11
:1007C0008C61D5CFB6016D5F7F4FCE0101960E943F
:1007D00026030E944003C60128960FB6F894DEBF98
:1007E0000FBECDBFDF91CF911F910F91FF90EF9082
:1007F000DF90CF90BF90AF90089563E070E0CE019E
:1008000001960E942603F70181917F010E94550302
:10081000AE14BF04C1F7DDCFCF93DF931F92CDB7E6
:10082000DEB7898341E050E0BE016F5F7F4F90E00B
:1008300080E00E945C030F90DF91CF910895CF92EA
:10084000DF92EF92FF920F931F93CF93DF93EC0110
:100850007A016901E881F9810190F081E02D099523
:10086000E881F9810084F185E02D9801A601B701A6
:10087000CE01DF91CF911F910F91FF90EF90DF900C
:10088000CF9009946F927F928F929F92AF92BF9276
:10089000CF92DF92EF92FF920F931F93CF93DF934C
:1008A000CDB7DEB7AC970FB6F894DEBF0FBECDBFA5
:1008B000DC011696ED91FC91319609F48BC059013B
:1008C0003A016B018C01FE0131964F0188E2DF0194
:1008D0001D928A95E9F7D801ED91FC910488F5897C
:1008E000E02DB401C80109957C01892B09F05CC099
:1008F0001AA619A61CA61BA6D801ED91FC91068884
:10090000F789E02D9E01255D3F4FAE01475D5F4FAA
:10091000B401C80109957C01892B09F045C0A114D7
:10092000B10439F088E2F401D50101900D928A9565
:10093000E1F7C114D10409F189A59AA521E030E0BD
:1009400097FF02C02FEF3FEF9F77829FB001839FF9
:10095000700D929F700D1124072E000C880B990BBF
:100960000E94BD3A20E030E040E251E40E94CF3CDA
:10097000F601608371838283938361147104A1F013
:100980006BA57CA5072E000C880B990B0E94BD3A25
:1009900020E030E040E251E40E94CF3CD3016D936F
:1009A0007D938D939C931397C701AC960FB6F894E3
:1009B000DEBF0FBECDBFDF91CF911F910F91FF9092
:1009C000EF90DF90CF90BF90AF909F908F907F90EF
:1009D0006F90089587E1E82EF12CE6CF8F929F92D9
:1009E000AF92BF92CF92DF92EF92FF920F931F933D
:1009F000CF93DF93EC018B016A017901E881F981E2
:100A00000288F389E02D0995B82EB801685F7F4F01
:100A1000E881F9810288F389E02DCE010995982EAD
:100A2000B801605F7F4FE881F9810288F389E02D8A
:100A3000CE010995A82EB801685E7F4FE881F98143
:100A40000288F389E02DCE010995882EB801605EF9
:100A50007F4FE881F9810288F389E02DCE01099565
:100A60009B2D990D9A0D980D891319C09A2D882DDB
:100A7000F601918380839B2D892DF70191838083DB
:100A800090E080E0DF91CF911F910F91FF90EF9068
:100A9000DF90CF90BF90AF909F908F90089585E1A9
:100AA00090E0F0CF47E050E080E0FB012191BF01F2
:100AB000042E01C0220F0A94EAF7820F4150510917
:100AC000A0F70895FC01828590E00895FC018185DE
:100AD00090E00895CF92DF92EF92FF920F931F93D1
:100AE000CF93DF93EC017A016901E881F9810190EC
:100AF000F081E02D0995E881F9810480F581E02DF0
:100B00009801A601B701CE01DF91CF911F910F91FE
:100B1000FF90EF90DF90CF900994CF92DF92EF9209
:100B2000FF920F931F93CF93DF93CDB7DEB7289734
:100B30000FB6F894DEBF0FBECDBFDC011696ED9167
:100B4000FC91319609F440C08A017B0119821A8216
:100B50001B821C821D821E821F821886DC01ED9181
:100B6000FC910084F185E02DAE014B5F5F4FBE012B
:100B70006F5F7F4F09956C01892BB1F4E114F1048B
:100B800041F069817A818B819C810E94413DF7010E
:100B900060830115110541F06D817E818F819885FB
:100BA0000E94413DD8016C93C60128960FB6F89477
:100BB000DEBF0FBECDBFDF91CF911F910F91FF9090
:100BC000EF90DF90CF90089587E1C82ED12CECCF25
:100BD000262F2D7F29F4FC01608790E080E00895A6
:100BE00088E190E00895DC0117967C936E93169748
:100BF000FB01E452FD4FE4911996EC931997605173
:100C00007D4FFB0164911A966C9308956AE00E94EF
:100C1000913D292F30E1839FC0011124822B08953B
:100C2000982F92959F708F702AE0929F800D1124CB
:100C3000089590E020917F05233339F40C96982F86
:100C4000990F990F990F80E008954896F8CFDA012F
:100C5000E091BE05F0E0FE2FEE27E60FF71F90E0D3
:100C6000982F8827A901BD018E0F9F1F0C945C034C
:100C7000CF93DF9300D0CDB7DEB779836A8322E0CC
:100C800030E0AE014F5F5F4F64E070E00E942706E6
:100C90000F900F90DF91CF910895CF93DF931F9224
:100CA000CDB7DEB72091BE0530E0322F2227260FC8
:100CB000371F90E0982F8827498341E050E0BE011C
:100CC0006F5F7F4F820F931F0E945C030F90DF9135
:100CD000CF9108950895CF93DF931F92CDB7DEB7DC
:100CE0006983DC01ED91FC910280F381E02D41E00C
:100CF00050E0BE016F5F7F4F09950F90DF91CF915C
:100D00000895DF92EF92FF920F931F93CF93DF939B
:100D100000D0CDB7DEB7FB01DC0157961C921E92C6
:100D200056972281211109C02381211106C02481F7
:100D3000211103C02581222369F14115510551F18B
:100D40007A018F01FC01D08C80E591E00E94BE0108
:100D5000A8014E5F5F4F24E030E06CE070E08D2D25
:100D60000E942706F982EA8222E030E0AE014F5F5E
:100D70005F4F60E170E08D2D0E94270681E090E0DA
:100D80000F900F90DF91CF911F910F91FF90EF90F7
:100D9000DF90089580E0F3CFFC01818D928D08955E
:100DA000FC018485958508952EE232E0FC013183B3
:100DB0002083FB014089518962897389FC01428348
:100DC0005383648375830895FC01538D448D252FCF
:100DD00030E0842F90E0821B930B541710F0CF96D5
:100DE000089501970895FC01918D828D981761F007
:100DF000A28DAE0FBF2FB11D5D968C91928D9F5F1E
:100E00009F73928F90E008958FEF9FEF0895FC01FC
:100E1000918D828D981731F0828DE80FF11D858DAF
:100E200090E008958FEF9FEF0895FC01918D228D42
:100E3000892F90E0805C9F4F821B91098F739927C7
:100E40000895FC01A48DA80FB92FB11DA35ABF4F5F
:100E50002C91848D90E001968F739927848FA689B9
:100E6000B7892C93A089B1898C91837080648C930D
:100E7000938D848D981306C00288F389E02D8081BC
:100E80008F7D80830895EF92FF920F931F93CF93EE
:100E9000DF93EC0181E0888F9B8D8C8D98131AC0B5
:100EA000E889F989808185FF15C09FB7F894EE899C
:100EB000FF896083E889F9898081837080648083F9
:100EC0009FBF81E090E0DF91CF911F910F91FF9044
:100ED000EF900895F62E0B8D10E00F5F1F4F0F73EC
:100EE0001127E02E8C8D8E110CC00FB607FCFACFA7
:100EF000E889F989808185FFF5CFCE010E9421071D
:100F0000F1CFEB8DEC0FFD2FF11DE35AFF4FF08277
:100F10009FB7F8940B8FEA89FB8980818062CFCFDD
:100F2000CF93DF93EC01888D8823B9F0AA89BB8920
:100F3000E889F9898C9185FD03C0808186FD0DC00B
:100F40000FB607FCF7CF8C9185FFF2CF808185FF2C
:100F5000EDCFCE010E942107E9CFDF91CF91089517
:100F60008DE396E00E94150721E0892B09F420E02B
:100F7000822F089580E090E0892B29F00E94B0072D
:100F800081110C9400000895DC01ED91FC91019019
:100F9000F081E02D0994EF92FF920F931F93CF936E
:100FA000DF938C017B01D0E0C0E0F701EC0FFD1F67
:100FB0006491662361F0D801ED91FC910190F0817C
:100FC000E02DC8010995892B11F02196EECFCE01B5
:100FD000DF91CF911F910F91FF90EF900895AF9205
:100FE000BF92CF92DF92EF92FF920F931F93CF9316
:100FF000DF936C017B018B01040F151FEB015E0178
:10100000AE18BF08C017D10759F06991D601ED910C
:10101000FC910190F081E02DC6010995892B79F7AB
:10102000C501DF91CF911F910F91FF90EF90DF905D
:10103000CF90BF90AF9008950895089590E0FC017F
:10104000E85AFD4F2491FC01E452FD4F3491FC011C
:10105000E051FD4FE491EE23C9F0222339F0233013
:1010600001F1A8F4213019F1223029F1F0E0EE0F5E
:10107000FF1FE853FD4FA591B4918FB7F894EC9101
:10108000611126C030953E233C938FBF08952730D1
:10109000A9F02830C9F0243049F7809180008F7D75
:1010A00003C0809180008F7780938000DFCF84B56C
:1010B0008F7784BDDBCF84B58F7DFBCF8091B0006F
:1010C0008F778093B000D2CF8091B0008F7DF9CF21
:1010D0003E2BDACF1092370681E0809316061092ED
:1010E000110661E082E10E941E0861E083E10E9436
:1010F0001E08E9EBF0E080818E7F808380818D7F08
:10110000808388E48093B80085E48093BC000895D0
:101110001092C0051092BF051092CE051092D00516
:101120000E946A080E9471020C946902CF93DF93B7
:1011300091E090931F058823B9F0C091B800D09139
:10114000BA008091BC008A7B8093BC0060E082E1A1
:101150000E941E0860E083E10E941E080E946A0847
:10116000D093BA00C093B800DF91CF910895CF9388
:10117000DF9390E0FC01E452FD4F249180519D4F9C
:10118000FC0184918823C9F090E0880F991FFC012D
:10119000EE52FD4FA591B491FC01E853FD4FC5916E
:1011A000D49161110DC09FB7F8948C912095822342
:1011B0008C938881282328839FBFDF91CF91089546
:1011C000623051F49FB7F8943C91822F809583232D
:1011D0008C93E8812E2BEFCF8FB7F894EC912E2BC8
:1011E0002C938FBFEACF789484B5826084BD84B598
:1011F000816084BD85B5826085BD85B5816085BD12
:10120000EEE6F0E0808181608083E1E8F0E010822A
:10121000808182608083808181608083E0E8F0E06B
:10122000808181608083E1EBF0E080818460808355
:10123000E0EBF0E0808181608083EAE7F0E080818C
:1012400084608083808182608083808181608083EC
:101250008081806880831092C1000895813091055B
:1012600039F0880F991F880F991F05970197F1F79B
:1012700008953FB7F8948091C4049091C504A0915B
:10128000C604B091C70426B5A89B05C02F3F19F02E
:101290000196A11DB11D3FBFBA2FA92F982F8827F6
:1012A000BC01CD01620F711D811D911D42E0660FD1
:1012B000771F881F991F4A95D1F70895CF92DF9223
:1012C000EF92FF920F931F93CF93C82F813208F0B4
:1012D00096C00E9439096B017C018091370681110B
:1012E00069C081E080933706809316069FEF909344
:1012F0001506109214069C0F909313068093120605
:1013000080911206806D80931206809111068130C3
:1013100009F077C0109211060E9439096B017C0117
:10132000809112068093BB008091390690913A0615
:10133000A0913B06B0913C06892B8A2B8B2BA1F008
:101340000E9439090091390610913A0620913B0616
:1013500030913C066C197D098E099F090617170705
:101360002807390708F447C08091BC0083FDD8CF17
:1013700085EC8093BC000E9439096B017C0180914F
:101380003706813009F43FC0809114068C1710F4A1
:10139000C0911406A1EFB5E0E7E1F6E080E08C1320
:1013A00054C08C2FCF911F910F91FF90EF90DF9041
:1013B000CF9008958091390690913A06A0913B060E
:1013C000B0913C06892B8A2B8B2B09F486CF0E9487
:1013D00039090091390610913A0620913B06309167
:1013E0003C066C197D098E099F0906171707280707
:1013F000390708F072CF809138060E949608C0E045
:10140000D0CF85EEB6CF8091390690913A06A09163
:101410003B06B0913C06892B8A2B8B2B09F4AFCF6E
:101420000E9439090091390610913A0620913B0635
:1014300030913C066C197D098E099F090617170724
:101440002807390708F09BCFD6CF9D9191938F5FE6
:10145000A6CF8F929F92AF92BF92CF92DF92EF92E0
:10146000FF920F931F93CF93DF93613208F0D1C0A7
:10147000142FD62FC82F0E9439096B017C0180914F
:10148000370681116BC082E08093370610931606F1
:101490008FEF8093150610921406D0931306A1EDDA
:1014A000B5E0E1EFF5E080E0D8138BC010921206B2
:1014B00080911206CC0FC82BC093120680911106A2
:1014C000813009F082C0109211060E9439096B0127
:1014D0007C01809112068093BB0080913906909127
:1014E0003A06A0913B06B0913C06892B8A2B8B2BA8
:1014F000A1F00E9439090091390610913A06209115
:101500003B0630913C066C197D098E099F09061730
:1015100017072807390708F442C08091BC0083FDF3
:10152000D8CF85EC8093BC000E9439096B017C0107
:1015300080913706823009F44AC0809115068F3FAA
:1015400009F469C080911506803209F466C0809163
:101550001506803309F463C084E026C08091390603
:1015600090913A06A0913B06B0913C06892B8A2BBC
:101570008B2B09F484CF0E94390980903906909012
:101580003A06A0903B06B0903C066C197D098E0986
:101590009F0986169706A806B90608F070CF8091B5
:1015A00038060E94960885E0DF91CF911F910F9138
:1015B000FF90EF90DF90CF90BF90AF909F908F9073
:1015C00008959D9191938F5F6FCF85EEABCF809102
:1015D000390690913A06A0913B06B0913C06892BC2
:1015E0008A2B8B2B09F4A4CF0E943909009139066C
:1015F00010913A0620913B0630913C066C197D090A
:101600008E099F09061717072807390708F090CF9A
:10161000C6CF81E0C9CF80E0C7CF82E0C5CF83E0ED
:10162000C3CF482F6091D0058091CF050E94290A31
:101630001092CE051092D0051092CD050895FC01B0
:10164000248131E03093CD052093CF051092CE0553
:101650001092D0058385862B90E00E94C10181E025
:101660000C94110B0F931F93CF938C01C62F0E94E4
:101670001F0B6C2F6460C8010E941F0B81E090E07B
:101680000E942E096C2F6B7FC8010E941F0B82E302
:1016900090E0CF911F910F910C942E09CF93C82FFA
:1016A000682F607F82EB95E00E94320B80E1C89F3B
:1016B000B001112482EB95E0CF910C94320B81E0C4
:1016C0000E944E0B80ED97E00C942E09CF93DF9390
:1016D000CDB7DEB728970FB6F894DEBF0FBECDBFEB
:1016E00098E0E1E2F1E0DE01119601900D929A9509
:1016F000E1F79091BB05961708F46FEF70E0660F65
:10170000771F21E030E02C0F3D1F620F731FFB019C
:101710009081890F806828960FB6F894DEBF0FBEBF
:10172000CDBFDF91CF910C944E0BE2EBF5E08681BB
:10173000982F926096838A600C944E0BE2EBF5E052
:1017400086818D7F868388600C944E0B0F931F9348
:10175000CF938C01C62F607F61600E94320B80E1C5
:10176000C89FB00111246160C8010E94320B81E062
:1017700090E0CF911F910F910895CF93C62F91E0E4
:101780009093CD0598E69093CF051092CE051092D8
:10179000D005682F81EC95E00E94F7026C2F81EC58
:1017A00095E00E94F70281E0CF910C94110B91E03B
:1017B0009093CD0598E69093CF051092CE051092A8
:1017C000D005682F81EC95E00E94F70281E00C942F
:1017D000110B7F928F929F92AF92BF92CF92DF9226
:1017E000EF92FF920F931F93CF93DF93EC01162F8D
:1017F0007A0169010E9439094B015C01712C1111B8
:10180000798410E000E060E070E0CB012A813B8148
:101810004C815D812617370748075907F4F00115F9
:10182000110561F5C7011E141F0464F10E943909F6
:10183000681979098A099B09EA85F0E0EE0FFF1F14
:10184000E254FD4FA591B4912C910F5F1F4F398544
:101850002323271105C097FFD9CF6FEF7FEFCB016F
:10186000DF91CF911F910F91FF90EF90DF90CF907C
:10187000BF90AF909F908F907F9008951C141D048F
:10188000ACF6C6010E942E09D1CF8F929F92AF92E3
:10189000BF92CF92DF92EF92FF924B015C010E94C8
:1018A00039096B017C010E9439096C197D098E0987
:1018B0009F09683E734081059105A8F321E0821AD3
:1018C0009108A108B10888EEC80E83E0D81EE11C7B
:1018D000F11C81149104A104B10429F7FF90EF9049
:1018E000DF90CF90BF90AF909F908F9008952FB7CB
:1018F000F8946091C0047091C1048091C2049091E9
:10190000C3042FBF08954F925F926F927F929F9270
:10191000AF92BF92CF92DF92EF92FF920F931F93FD
:10192000CF93DF9300D01F92CDB7DEB7D090E606FD
:101930008091E9069091EA06A091EB06B091EC0641
:10194000892B8A2B8B2BD9F00E9439090091E20652
:101950001091E3062091E4063091E506601B710BBF
:10196000820B930B0091E9061091EA062091EB0699
:101970003091EC066017710782079307C8F20E9446
:1019800039096093E2067093E3068093E40690932E
:10199000E506E091F106F091F206309759F040919A
:1019A000ED065091EE066091EF067091F0068D2DD8
:1019B0000995D82EE090E006F090E1064D2C512CD0
:1019C000712C612CE114F10409F459C0D7011C9663
:1019D000CC901C978091E7069091E806843691059B
:1019E00010F41C961C92D701ED91FC91A280B3805B
:1019F00019821A821B82DD2079F1F701369610E0F8
:101A000000E02191222319F19280992001F130E028
:101A100050E040E02F5F3F4F4F4F5F4FC301B20197
:101A20000E94813D9B01AC01892D90E0B0E0A0E0D7
:101A3000BC01CD016F5F7F4F8F4F9F4F0E94813D53
:101A4000A1E0B0E0AC0FBD1FA00FB11F8C930F5FE2
:101A50001F4F03301105A9F609811A812B81F70167
:101A60004585568562817381C701F5010995D701C6
:101A70001C96CC921C971496ED90FC90A3CF80916D
:101A8000DE069091DF068C010F5F1F4F1093DF067B
:101A90000093DE064997B4F10E94770CC090DA06F5
:101AA000D090DB06E090DC06F090DD069B01AC01F7
:101AB0002C193D094E095F0921F421E030E040E096
:101AC00050E088EE93E0089FB001099F700D189FC9
:101AD000700D1124072E000C880B990B0E94073CF7
:101AE0003093E8062093E7061092DF061092DE0698
:101AF0000E94770C6093DA067093DB068093DC0615
:101B00009093DD060F900F900F90DF91CF911F9172
:101B10000F91FF90EF90DF90CF90BF90AF909F908C
:101B20007F906F905F904F900895FC0190E040E0AF
:101B300088EB242F30E026173707A4F42E0F3F1F21
:101B4000D9012C91922758E0292F30E0359527951F
:101B500090FF06C0922F98275150B1F74F5FE9CF01
:101B6000922FFACF8FE7892708950F931F93CF9372
:101B7000DF93209199042F5F322F377030939904AF
:101B800020FF2BC020E831FD2064347009F0206272
:101B9000205FFC01EC01239600E011E064856623E0
:101BA00029F070E0C8010E949D3D6F5F6187322F70
:101BB000369F030E30E0311D1124311110C0168202
:101BC000662311F0615061873196EC17FD0731F7FC
:101BD000DF91CF911F910F91089520E0D4CF315024
:101BE0003683EECF4F925F927F928F929F92AF9209
:101BF000BF92CF92DF92EF92FF920F931F93CF93FA
:101C0000DF932C01EB010E943909F201278530890D
:101C1000621B730B6A307105B0F3F8948A819B8163
:101C2000181619060CF0CDC1E881F9816BB1862E2A
:101C3000689487F83BB13F773BB9D9848E812D2DCD
:101C4000281B822F2E834F85042E000C550BAA8152
:101C5000BB817C85FD84EE847F5FF394E3949F8158
:101C60009884BA84AB841081C12C6C2D0C2D2C2D42
:101C70002081112788942111280F08F42FEF8195D6
:101C8000889470FD120F1795889471FD120F1795A7
:101C9000889472FD120F1795889473FD120F179593
:101CA000889474FD120F1795889475FD120F17957F
:101CB000889476FD120F1795889477FD120F17956B
:101CC0008894622F7111612F8D0D162F002C8BB807
:101CD00000C017FF3BB921816627889400C000C06F
:101CE000002C3BB92111290F00C0002C8BB800C07B
:101CF00016FF3BB908F42FEF9195889400C000C0FF
:101D0000002C3BB9F0FC620F00C0002C8BB800C067
:101D100015FF3BB967958894F1FC620F00C000C0C5
:101D2000002C3BB96795889400C0002C8BB800C08C
:101D300014FF3BB9F2FC620F6795889400C000C0A5
:101D4000002C3BB9F3FC620F00C0002C8BB800C024
:101D500013FF3BB967958894F4FC620F00C000C084
:101D6000002C3BB96795889400C0002C8BB800C04C
:101D700012FF3BB9F5FC620F6795889400C000C064
:101D8000002C3BB9F6FC620F00C0002C8BB800C0E1
:101D900011FF3BB967958894F7FC620F00C000C043
:101DA000002C3BB96795889400C0002C8BB800C00C
:101DB00010FF3BB9122FF110162F9B0D00C000C071
:101DC000002C3BB900C000C0002C8BB800C017FF2E
:101DD0003BB922816627889400C000C0002C3BB923
:101DE0002111290D00C0002C8BB800C016FF3BB993
:101DF00008F42FEFE40FF51F00C000C0002C3BB922
:101E0000E0FC620F00C0002C8BB800C015FF3BB98E
:101E100067958894E1FC620F00C000C0002C3BB9BC
:101E20006795889400C0002C8BB800C014FF3BB9A4
:101E3000E2FC620F6795889400C000C0002C3BB99B
:101E4000E3FC620F00C0002C8BB800C013FF3BB94D
:101E500067958894E4FC620F00C000C0002C3BB979
:101E60006795889400C0002C8BB800C012FF3BB966
:101E7000E5FC620F6795889400C000C0002C3BB958
:101E8000E6FC620F00C0002C8BB800C011FF3BB90C
:101E900067958894E7FC620F00C000C0002C3BB936
:101EA0006795889400C0002C8BB800C010FF3BB928
:101EB000122FE110162F919400C000C0002C3BB9E6
:101EC0009A0C00C000C08BB800C017FF3BB920813E
:101ED0006627889400C000C0002C3BB92111280F50
:101EE00000C0002C8BB800C016FF3BB908F42FEFE0
:101EF0008195889400C000C0002C3BB970FD620F32
:101F000000C0002C8BB800C015FF3BB967958894C2
:101F100071FD620F00C000C0002C3BB9679588942A
:101F200000C0002C8BB800C014FF3BB972FD620FDB
:101F30006795889400C000C0002C3BB973FD620F08
:101F400000C0002C8BB800C013FF3BB96795889484
:101F500074FD620F00C000C0002C3BB967958894E7
:101F600000C0002C8BB800C012FF3BB975FD620F9A
:101F70006795889400C000C0002C3BB976FD620FC5
:101F800000C0002C8BB800C011FF3BB96795889446
:101F900077FD620F00C000C0002C3BB967958894A4
:101FA00000C0002C8BB800C010FF3BB9122F71117C
:101FB000162F8D0D00C000C0002C3BB9119709F001
:101FC00086CE4A815B8120EE31E0DA010E94B73D86
:101FD000DC01CB01F4E0B695A79597958795FA9526
:101FE000D1F730E020E0B901EAE94E9F040E611D0F
:101FF0005E9F600D711D1124650F711D860F971F67
:10200000A11DB11D893E43E09407A105B10508F467
:1020100034C0885E9340A109B10942E0B695A79506
:10202000979587954A95D1F747E0849F080E211D23
:10203000949F200D311D1124290F311D60919804AA
:1020400070E0860F971F820F931F4091C00450913C
:10205000C1046091C2047091C304292F3327420F39
:10206000531F611D711D4093C0045093C1046093C0
:10207000C2047093C3048093980478940E94390931
:10208000F201708B6787DF91CF911F910F91FF90C5
:10209000EF90DF90CF90BF90AF909F908F907F9008
:1020A0005F904F90089580E991E00895579A0895C0
:1020B0006F927F928F92CF92DF92EF92FF920F9367
:1020C0001F93CF93DF93CDB7DEB762970FB6F89427
:1020D000DEBF0FBECDBF6C017A013801822EDC015C
:1020E0001C962C91CA0157FF04C088279927841B8E
:1020F000950B7A8369839C838B839E838D836D8606
:102100007E868F86213049F5CE0101960E94B50D5D
:1021100083E0888B1A8A198AF7FE02C08DEF888BBC
:10212000D601ED91FC910484F585E02DBE016F5F31
:102130007F4FC601099562960FB6F894DEBF0FBEB9
:10214000CDBFDF91CF911F910F91FF90EF90DF9066
:10215000CF908F907F906F9008951C861B861A8673
:10216000198618861F82D4CFEF92FF920F931F9388
:10217000CF93DF93CDB7DEB762970FB6F894DEBF8B
:102180000FBECDBF7C01DC011C968C917A836983E4
:102190005C834B835E834D830D871E872F87813041
:1021A000F9F4CE0101960E94B50D188A1A8A198A8F
:1021B000D701ED91FC910484F585E02DBE016F5FA0
:1021C0007F4FC701099562960FB6F894DEBF0FBE28
:1021D000CDBFDF91CF911F910F91FF90EF900895A8
:1021E0001C861B861A86198618861F82DECFCF931F
:1021F000DF93FC01EB0164E670E00E949D3D9F01CE
:10220000281B390BCF016AE070E00E949D3D280F2A
:10221000391F4AE04C9FC0014D9F900D1124820F41
:10222000931FDF91CF910895FB0164E670E00E9457
:102230009D3D44E64E9F90014F9F300D1124820F2B
:10224000931F089526E636E646EE5FE36091BE02F0
:102250007091BF028091C0029091C1020E941C3B0C
:1022600020E030E040E052E40E94633C0E94413DA7
:10227000809100018617170644F5809101018617A9
:10228000170609F02CF48091020186171706FCF45A
:10229000809103018617170609F02CF48091040140
:1022A00086171706B4F4809105018617170609F002
:1022B0002CF480910601861717066CF480910701B3
:1022C0008617170651F04CF0089585E0089581E0D7
:1022D000089580E0089582E008958AE00895EDE889
:1022E000F5E01082118212821092CD020C94830CC0
:1022F000EDE8F5E0809111018083809113018183E5
:1023000080910F01828381E08093CD020C94830C35
:102310000F931F930E94770C0091A6021091A702C1
:102320002091A8023091A90206171707280739073C
:1023300020F48091ED02811104C08091EC02882389
:1023400059F11092EC020E94770C00910B01109150
:102350000C0120910D0130910E01DC01CB01800FA9
:10236000911FA21FB31F8093A6029093A702A09370
:10237000A802B093A9028091CD02882331F0109277
:10238000CD021F910F910C946F1181E08093CD02CB
:102390001F910F910C9478111F910F9108958091C6
:1023A000F0028093CB028091F1028093CA02809167
:1023B000F2028093CC028091F3028093C802809154
:1023C000F4028093C7028091F5028093C60281E0F7
:1023D0008093CD0588E68093CF051092CE051092AC
:1023E000D00590E080E00E94C1018091C6020E9469
:1023F0000606682F81EC95E00E94F7028091C702E3
:102400000E940606682F81EC95E00E94F7028091F9
:10241000C8020E940606682F81EC95E00E94F70230
:102420008091C902811101C081E00E940606682FD7
:1024300081EC95E00E94F7028091CA020E94060694
:10244000682F81EC95E00E94F7028091CB020E94F8
:102450000606682F81EC95E00E94F7028091CC027D
:102460000E940606682F81EC95E00E94F70281E049
:102470000C94110B0F931F93CF93DF93EC01E0E0CB
:10248000F0E060E070E0CB01DE01AE0FB11D2C91F9
:10249000222309F12D3211F4EF5FF1E0DE01AE0FDE
:1024A000B11D0C9120ED200F2A3018F5AAE0B0E004
:1024B0009B01AC010E94FC3B002E000C110B220B77
:1024C000330B600F711F821F931F605371098109C5
:1024D0009109EF5FD9CFFF2339F0909580957095E2
:1024E00061957F4F8F4F9F4FDF91CF911F910F913C
:1024F00008956FEF7FEFCB01F7CFFC0190E030E064
:1025000020E07AE0DF01A90FB11D6C916623A1F0F4
:1025100080ED860F8A3070F4729FA001739F500D7A
:1025200011249A01260F311D67FD3A952053310978
:102530009F5FE8CF2FEF3FEFC9010895FC01848929
:1025400095890895DC01ED91FC91048CF58DE02DC9
:10255000099490E080E00895FC01858596850895B2
:102560000F931F93CF93DF9300D01F92CDB7DEB7A9
:10257000AB0119821A821B82DC01ED91FC91019062
:10258000F081E02D00E010E020E0BE016F5F7F4FA2
:1025900009950F900F900F90DF91CF911F910F91A0
:1025A000089590E080E008950E94AD018233910586
:1025B0008CF0833C91058CF08C3721E0920784F0FD
:1025C0008B3222E092077CF0863193407CF090E0E1
:1025D00080E0089581E090E0089582E090E0089521
:1025E00083E090E0089584E090E0089585E090E035
:1025F00008950F931F93CF93DF930E94D412EC01A1
:102600000E94770C0091AA021091AB022091AC02BB
:102610003091AD020617170728073907B0F4CD2B04
:10262000C9F00E94D41290939504809394040E9460
:10263000770C6C507E4F8F4F9F4F6093AA02709320
:10264000AB028093AC029093AD02DF91CF911F91CA
:102650000F9108950E94770C6C597F4F8F4F9F4FB9
:10266000ECCFBF92CF92DF92EF92FF920F931F9326
:10267000CF93DF9300D000D000D01F92CDB7DEB74C
:1026800080E00E94D70B87E00E945E091092C0058F
:102690008093BF058730E1F581EC95E00E94B002A0
:1026A0000E941006B82E81EC95E00E94B0020E94B4
:1026B0001006C82E81EC95E00E94B002182F86FF0C
:1026C0003EC08F710E9410060CE015FD00E0080F5F
:1026D00081EC95E00E94B0020E941006D82E81EC99
:1026E00095E00E94B0020E941006E82E81EC95E071
:1026F0000E94B00210E087FD14E68F770E9410065A
:10270000F82E81EC95E00E94B0020E941006180F8E
:102710002B2D3C2D402F5D2DB701812F90E027966A
:102720000FB6F894DEBF0FBECDBFDF91CF911F91E2
:102730000F91FF90EF90DF90CF90BF9008958F732F
:102740000E941006082FC4CFCF93DF93EB010E94A5
:10275000D70B81E00E945E091092C0058093BF05EF
:1027600081EC95E00E94B002888381E0DF91CF91F7
:102770000895EF92FF921F93CF93DF931F92CDB7EF
:10278000DEB77C01162FBE016F5F7F4F8EE00E9487
:10279000A413811108C080E00F90DF91CF911F91A9
:1027A000FF90EF90089581E08093CD0588E68093B7
:1027B000CF051092CE051092D005113089F587E033
:1027C00090E00E94C101F70180810E94060690E01E
:1027D0000E94C101898185608983F70181810E94FE
:1027E000060690E00E94C101F70182810E94060660
:1027F00090E00E94C101F70184810E94060690E0EA
:102800000E94C10181E00E94110B8111C4CF698136
:102810008EE00E94BD0B8111BECF812F8770BCCF8F
:102820008BE090E00E94C10189818660D5CF85ED63
:102830008093BC008091390690913A06A0913B06A6
:10284000B0913C060796A11DB11D23E0B695A79552
:10285000979587952A95D1F72091BC0024FD03C058
:102860001092370608954091390650913A066091CA
:102870003B0670913C06452B462B472B69F300978E
:10288000A105B10541F025E32A95F1F70000019774
:10289000A109B109E1CF809138060C949608AF9256
:1028A000BF92CF92DF92EF92FF920F931F93CF933D
:1028B000DF9300D000D0CDB7DEB78C016B017A0179
:1028C00080917F058333E9F45B016801C40ED51E56
:1028D000C016D106A9F10E944A038FE00E94550359
:1028E000812F0E945503802F0E9455030F5F1F4FB9
:1028F00080E00E945503F50181935F010E9440032F
:10290000E7CF843369F50E944A0319830A838F2D28
:102910008F778B83EC8264E070E0CE0101960E9499
:102920002603A70170E060E0C6010E945B3CE11451
:10293000F10421F0B701C6010E9426030E94400362
:10294000C7010F900F900F900F90DF91CF911F91C3
:102950000F91FF90EF90DF90CF90BF90AF900895D0
:102960000E944A030F3F110509F030F419820A83CF
:102970001B8263E070E0D1CF17FD0BC019820A8380
:1029800033E0169507953A95E1F7007E08600B83D2
:10299000F0CFC80126E0969587952A95E1F7807ECD
:1029A00019830A830115104C18F480618B83E1CFE1
:1029B0008861FCCFFA012091BE0530E0322F22273A
:1029C000260F371F90E0982F882742E050E0BF0184
:1029D000820F931F0C944F14FF920F931F93CF936A
:1029E000DF9300D0CDB7DEB7F82EAE014F5F5F4F5B
:1029F00066E270E00E94DA1409811A81102701272B
:102A00001027AE014F5F5F4F66E270E08F2D0E948E
:102A1000DA1489819A819827892798270817190736
:102A200049F4C8010F900F90DF91CF911F910F9142
:102A3000FF9008958C01E5CF3F924F925F926F9285
:102A40007F928F929F92AF92BF92CF92DF92EF923E
:102A5000FF920F931F93CF93DF9300D0CDB7DEB7D4
:102A60005C014B01342E452EFC0166887788508C22
:102A700080E591E00E94BE01AE014F5F5F4F60E2D2
:102A800070E0852D0E94DA14C980DA80DC24CD2420
:102A9000DC24AE014F5F5F4F60E270E0852D0E9445
:102AA000DA1489819A81982789279827C816D90628
:102AB00009F077C0E52CF12C67E0569EF001112457
:102AC000ED59FA4FD582C482032D142DC016D106BC
:102AD00008F48601AE014F5F5F4F64E270E0852D20
:102AE0000E94DA1489819A81982789279827680E8D
:102AF000791E9301377040917F05433309F053C02D
:102B000088E0E80EF11CFE2CEE24FF0CFF0CFF0CFD
:102B1000C9018E0D9F1D473309F449C0A901400F1B
:102B2000511F4130584008F442C060E078E06B012A
:102B3000C21AD30AA601B4010E945C03A8014C1971
:102B40005D09B4016C0D7D1DC7010E945C03600E20
:102B5000711E79826A8222E030E0AE014F5F5F4FE2
:102B600064E270E0852D0E942706F5018689978929
:102B7000800F911F978B868BC8010F900F90DF916C
:102B8000CF911F910F91FF90EF90DF90CF90BF906A
:102B9000AF909F908F907F906F905F904F903F90FD
:102BA00008956C0176CFE0E1EE0EF11CACCFA801E8
:102BB000B401CBCFCF93DF931F92CDB7DEB741E007
:102BC00050E0BE016F5F7F4F0E944F1489810F90CC
:102BD000DF91CF91089590E080E00C94DA15CF93C7
:102BE000DF93C4E1D0E00E94EB15882361F061E03F
:102BF00070E080E090E00E94450C2197A1F780E012
:102C0000DF91CF91089581E0FBCFDF92EF92FF92A9
:102C10000F931F93CF93DF9300D0CDB7DEB760E360
:102C200072E080E090E00E94450CDFB6F8940AEF75
:102C300012E036EEE32E32E0F32E80911205811180
:102C400025C0F8018491F7019491E82FF0E0EE0F90
:102C5000FF1FEE52FD4FA591B4918C91982321F462
:102C600061E08AE00E941E0861E08AE00E94B708E5
:102C70008CB580618CBD8CB580648CBD61E08DE0CD
:102C80000E94B70861E08BE00E94B70880911205AE
:102C90008F5F80931205DFBEF8010491E02FF0E012
:102CA000EE0FFF1FE853FD4F85919491909311050E
:102CB00080931005F701E490E0920F0561E08AE04F
:102CC0000E94B7080E94400380E591E00E94BE0187
:102CD00084E380937F0580E80E940C040E94EF1536
:102CE000882309F441C088E00E940C040E94EB157F
:102CF0008830D1F580E10E940C040E94EB158031F0
:102D000099F580E00E940C040E94EB15182F8111A8
:102D10002BC08FE190E00E94DA15833029F580E422
:102D20008093BE0542E06EE170E0812F0E944D0667
:102D300042E06FE170E0812F0E944D061F5F14306A
:102D400089F740E06EE170E0812F0E944D0640E07F
:102D50006FE170E0812F0E944D061F5F183089F7E8
:102D600081E08093860564C087E380937F0580E8D7
:102D70000E940C040E94EF158823F9F088E00E945D
:102D80000C040E94EB158830C1F480E10E940C0411
:102D90000E94EB15182F803181F480E00E940C0412
:102DA0000E94EB15811109C089E390E00E94DA15B9
:102DB000843019F41093BE05D3CF83E380937F054D
:102DC00080E80E940C040E94EF15882371F180E1D5
:102DD0000E940C040E94EB15803139F582E10E94BB
:102DE0000C040E94EB15823101F580E00E940C0476
:102DF0000E94EB15811119C084E08093BE0515E592
:102E00001A8341E050E0BE016E5F7F4F8BE190E09E
:102E10000E945C03198341E050E0BE016F5F7F4F69
:102E20008AE190E00E945C039BCF10927F0580E0D6
:102E30000F900F90DF91CF911F910F91FF90EF9026
:102E4000DF900895CF92DF92EF92FF92CF93DF93BE
:102E5000CDB7DEB7C254D1090FB6F894DEBF0FBEAE
:102E6000CDBFFC01428153816481758123964CAFB3
:102E70005DAF6EAF7FAF239781E023968FAF23972F
:102E80002396CCACDDACEEACFFAC2397CBAADCAA8E
:102E9000EDAAFEAA4DA75EA76FA778AB88ABCDA41D
:102EA000DEA4EFA4F8A8CFA2D8A6E9A6FAA68EAB16
:102EB000CBA8DCA8EDA8FEA8C9A2DAA2EBA2FCA2CE
:102EC0002EE232E03C8B2B8B9FEF9D8B9E8B9F8B5A
:102ED000188E3E872D878AA7CFA0D8A4E9A4FAA48C
:102EE000CF86D88AE98AFA8A8CA389A19AA1ABA154
:102EF000BCA189879A87AB87BC873A8329834B8398
:102F00005C836D837E8380918605882309F443C0AA
:102F100080E591E00E94BE0146E050E06BE171E087
:102F200089E090E00E945C0344E050E0BE016D5FE8
:102F30007F4F8FE090E00E945C0344E050E0BE01D0
:102F4000615F7F4F81E090E00E945C0344E050E0CD
:102F5000BE016B5E7F4F85E090E00E945C0381E0E4
:102F60008C8789859A85AB85BC85809382059093F3
:102F70008305A0938405B0938505CE5BDF4F0FB624
:102F8000F894DEBF0FBECDBFDF91CF91FF90EF90E1
:102F9000DF90CF9008950E940516882371F3B8CF73
:102FA0002091BE0530E0322F2227620F731F90E080
:102FB000982F8827860F971F0C94DA15CF93C82F68
:102FC000462F61E070E00E944D0661E070E08C2FBA
:102FD0000E94D0178111F9CFCF9108958F929F92BF
:102FE000AF92BF92CF92DF92EF92FF921F93CF9357
:102FF000DF93CDB7DEB72C970FB6F894DEBF0FBEC8
:10300000CDBF20917F0514E0222339F16B017C01B3
:1030100080E591E00E94BE015E0127E0A20EB11C96
:10302000450110E063E070E0812F0E94D017F401A9
:1030300081934F01882349F11F5F143099F710E005
:10304000F50181915F018D31D9F08831C9F08A5144
:103050008230B0F01F5F143099F7812F2C960FB695
:10306000F894DEBF0FBECDBFDF91CF911F91FF90CF
:10307000EF90DF90CF90BF90AF909F908F9008958A
:1030800060E170E0812F0E94DE17A12EB12C8AEF43
:1030900090E00E942E0942E870E060E0812F0E94DB
:1030A0004D064FEF62E070E0812F0E944D06B601A1
:1030B000C114D10491F48091190190911A010196E3
:1030C0008115F0EC9F0708F462C090931A01809379
:1030D00019016091190170911A01812F0E9438061F
:1030E00086E0E9E2F1E0DE01119601900D928A9509
:1030F000E1F7F70183818F778C8384818D838581CC
:103100008E83A7014E5F5F4F24E030E06CE070E0FB
:10311000812F0E942706DB86CC8622E030E0AE01BC
:10312000455F5F4F60E170E0812F0E94270626E037
:1031300030E0AE014F5F5F4F66E070E0812F0E948C
:10314000270661E070E0812F0E94DE1727E02A9DAC
:10315000C0012B9D900D11249C012D593A4F7901EE
:10316000F90111821082AE01455F5F4F68E270E0A5
:10317000812F0E94DA148B859C85982789279827B0
:10318000F7019383828316821582148266CF80E0D2
:1031900090EC9BCF4F925F927F928F929F92AF92D3
:1031A000BF92CF92DF92EF92FF920F931F93CF9334
:1031B000DF9300D0CDB7DEB7782E6B014A01A82E81
:1031C000B12C27E0829FC0011124FC01ED59FA4F78
:1031D0007F010081118180E591E00E94BE01081508
:1031E000190554F4872D0E94EC14F70126818C01F7
:1031F000021B1109118300830115110529F563E0F4
:1032000070E0872D0E94D017843159F0882349F04F
:1032100001E010E08C3111F410E000E0119501950F
:103220001109C8010F900F90DF91CF911F910F915D
:10323000FF90EF90DF90CF90BF90AF909F908F90D6
:103240007F905F904F900895801691060CF4840152
:1032500087E08A9DF0018B9DF00D1124ED59FA4F06
:10326000E280F380C114D10451F12701F7E05F221D
:10327000872D0E941906840D951D20917F05273307
:1032800009F453C09801240D351D2130384008F44D
:103290004CC020E038E0490184189508A401B6012B
:1032A0000E944F142601480C591C6801C818D908FF
:1032B000872D0E941906A601B2010E944F14E00E4C
:1032C000F11E87E08A9DF0018B9DF00D1124ED59D0
:1032D000FA4FF382E28220813181201B310B31834E
:1032E00020838681800F912F911D8A3F910510F4D4
:1032F000232BF1F487E08A9DF0018B9DF00D1124C2
:10330000ED59FA4F1682F982EA8222E030E0AE01EE
:103310004F5F5F4F68E270E0872D0E94270660E4F0
:1033200070E0872D0E94DE177CCFA801B601C5CFC3
:10333000868377CFCF93DF93FC01218D328D2115CA
:10334000310529F48FEF9FEFDF91CF910895EC01C4
:10335000808D4217530708F0A9010E94CA18181659
:10336000190684F7298D3A8D281B390B3A8F298F3E
:10337000EBCF0F931F93CF93DF931F92CDB7DEB7A1
:10338000FC01218D328D232B41F48FEF9FEF0F90A5
:10339000DF91CF911F910F9108958C0141E050E092
:1033A000BE016F5F7F4FFC01808D0E94CA18181606
:1033B00019065CF7F801818D928D0197928F818FAC
:1033C000898190E0E4CFCF93C82F80E591E00E94FF
:1033D000BE0160E170E08C2FCF910C94DE17CF928C
:1033E000DF92EF92FF920F931F93CF93DF9300D062
:1033F00000D000D0CDB7DEB78C016B017A01FC01A3
:10340000808D843010F40E94E3198EE292E09A835A
:103410008983F60182819381A481B5818B839C830A
:10342000AD83BE83B701CE0101960E94EE17F8016D
:10343000808F8430A0F4F586E486128E118E81E0B0
:1034400026960FB6F894DEBF0FBECDBFDF91CF91A9
:103450001F910F91FF90EF90DF90CF90089580E043
:10346000EFCFCF93DF93EC01888D843020F40E945E
:10347000E31984E0888FDF91CF910895CF93FC0109
:10348000C08D80E591E00E94BE0160E270E08C2F6B
:103490000E94DE1762E070E08C2F0E94D01784FD3E
:1034A00016C062E070E08C2F0E94D01783FF0AC024
:1034B00048E162E070E08C2F0E944D0680E090E0D1
:1034C000CF91089580E591E00E94BE01E3CF40E1F5
:1034D00062E070E08C2F0E944D0681E0F0CF8F9269
:1034E0009F92AF92BF92CF92DF92EF92FF921F9383
:1034F000CF93DF9300D000D000D0CDB7DEB76C0102
:103500005B01FC01808D843010F40E94E3198091EE
:103510007F05811115C094E0F601908F26960FB6B5
:10352000F894DEBF0FBECDBFDF91CF911F91FF900A
:10353000EF90DF90CF90BF90AF909F908F900895C5
:1035400080E591E00E94BE019E012F5F3F4F79010F
:10355000490110E063E070E0812F0E94D017F40170
:1035600081934F01882309F11F5F143099F710E010
:10357000F70181917F018D3199F0883189F08A516D
:10358000823070F01F5F143099F7F601108F80E0E1
:10359000143021F2B586A486128E118E81E0BECF42
:1035A00060E170E0812F0E94DE17812E912C8AEF5E
:1035B00090E00E942E0942E070E060E0812F0E94BE
:1035C0004D064FEF62E070E0812F0E944D06B5017D
:1035D000A114B10489F48091190190911A01019606
:1035E0008115F0EC9F0788F190931A0180931901DF
:1035F0006091190170911A01812F0E94380661E0D3
:1036000070E0812F0E94DE1727E0289DC001299DD0
:10361000900D11249C012D593A4F7901F901118225
:103620001082AE014B5F5F4F68E270E0812F0E9415
:10363000DA148D819E81982789279827F701938333
:103640008283168215821482A0CF80E090ECCCCFCA
:103650001F93CF93DF931F92CDB7DEB7FC01108D80
:10366000143020F5818D928D892B01F180E591E058
:103670000E94BE01812F0E94190627E0129FF001CF
:103680001124ED59FA4F22813381377041E050E027
:10369000BE016F5F7F4F820F931F0E944F1489817D
:1036A00090E00F90DF91CF911F9108958FEF9FEFE2
:1036B000F8CFEF92FF920F931F93CF93DF93EC011C
:1036C0008B0188E2FB0111928A95E9F761E08E8116
:1036D0000E94B70860E08E810E941E0888EE93E089
:1036E0000E942E0961E08E810E941E0868858E81ED
:1036F0000E94B70888E290E00E942E09E881F981D3
:103700000088F189E02D26E030E04AE050E060E0FA
:10371000CE0109956E317105810591056CF4982FE4
:10372000872F762F66276061CB01DF91CF911F91A4
:103730000F91FF90EF900895E881F9810088F18959
:10374000E02D26E030E04AE050E061E0CE0109954E
:103750007801F8E2EF0EF11C6233710581059105E5
:1037600034F4982F872F762F66276161DDCFE881AB
:10377000F9810088F189E02D26E030E04AE050E050
:1037800060E0CE010995683171058105910534F439
:10379000982F872F762F66276261C6CFE881F9813F
:1037A0000088F189E02D26E030E04AE050E061E059
:1037B000CE0109956B3071058105910534F4982F80
:1037C000872F762F66276361AFCF21E069327105BD
:1037D000810591050CF420E0F80121938F01EE168C
:1037E000FF0629F6E881F9810088F189E02D26E0BD
:1037F00030E04AE050E060E0CE01099568317105A3
:103800008105910534F4982F872F762F6627646100
:103810008BCF70E060E088CFDF92EF92FF920F9342
:103820001F93CF93DF93CDB7DEB728970FB6F894E9
:10383000DEBF0FBECDBF8C01D80159964D915C9172
:103840005A974115510551F0ED91FC91048CF58D7D
:10385000E02D70E060E0C8010995EECFF801D08C52
:10386000F7E0DF9EC00111249C012D593A4F7901E8
:10387000D9018D919C91892B59F148E050E0BE010E
:103880006F5F7F4FF801808D0E94CA1818161906C5
:1038900094F5D801509684E0FE01319601900D9286
:1038A0008A95E1F78D8190E0982F88272E81820FED
:1038B000911DF801958B848B8F81282F30E0322F5A
:1038C00022278885820F932F911D928F818F13C09D
:1038D00080E591E00E94BE018D2D0E94EC14D7017D
:1038E00016962C911697821B91098D939C93892B88
:1038F00021F690E080E028960FB6F894DEBF0FBE68
:10390000CDBFDF91CF911F910F91FF90EF90DF908E
:1039100008956F927F928F929F92AF92BF92CF92B3
:10392000DF92EF92FF920F931F93CF93DF93CDB768
:10393000DEB7EC970FB6F894DEBF0FBECDBF4C01DB
:103940008B013A018EE292E09A8389831C861B8662
:1039500048EE53E060E070E04D875E876F87788BBC
:1039600022EF31E03A872987988F8F8B198E1A8E34
:103970001B8E1C8E24E029A399AB88AB1AAA1BAA24
:103980001CAA1DAA8091820590918305A0918405AF
:10399000B09185058EA39FA3A8A7B9A78B839C830D
:1039A000AD83BE8318861F82F80120E090E080E09E
:1039B0006AE03191332309F47AC040ED430F4A3075
:1039C00008F064C0689FA001699F500D1124CA01CE
:1039D000C097830F911D37FD9A958F3F910549F34D
:1039E00040F34B815C816D817E818091FF049091D9
:1039F0000005A0910105B0910205481759076A0713
:103A00007B0709F428C20E94770C6F7077277C5FD0
:103A1000CE0109960E946F1A813009F01FC28EE212
:103A200092E09DA38CA38B819C81AD81BE818EA3EE
:103A30009FA3A8A7B9A745E350E0BE016C5D7F4FE7
:103A4000CE0109960E948106892B09F04EC010E034
:103A500000E0CE0109960E94311A0130110559F19A
:103A6000C801EC960FB6F894DEBF0FBECDBFDF9154
:103A7000CF911F910F91FF90EF90DF90CF90BF906B
:103A8000AF909F908F907F906F9008953E3209F095
:103A9000A8CF233009F4A5CFA2E3B0E0AC0FBD1F3F
:103AA000A20FB11D8C932F5F90E080E082CF233076
:103AB00009F097CF8DABD401ED91FC910488F58985
:103AC000E02D8EE292E09DA38CA38AA99BA9ACA9CC
:103AD000BDA98EA39FA3A8A7B9A7A301BE016C5D32
:103AE0007F4FC40109958C01BBCF0E94770C78876A
:103AF0006F8342E050E0BE01695F7F4FCE010996BF
:103B00000E941C1581E090E09DA38CA342E050E050
:103B1000BE016C5D7F4FCE0109960E941C1580E0AE
:103B200091E09DA38CA342E050E0BE016C5D7F4F0D
:103B3000CE0109960E941C151DA21CA242E050E075
:103B4000BE016C5D7F4FCE0109960E941C1542E0BC
:103B500050E0BE016C5D7F4FCE0109960E941C159E
:103B600042E050E0BE016C5D7F4FCE0109960E949D
:103B70001C157801D8018C91882311F18701F80177
:103B800081916F01882311F08E32C1F45801AE1873
:103B9000BF081A141B0484F4AEAA41E050E0BE0131
:103BA0006A5C7F4FCE0109960E941C15A501B701E2
:103BB000CE0109960E941C157601DCCF8601DFCF6D
:103BC0001EAA41E050E0BE016A5C7F4FCE0109961B
:103BD0000E941C1500E011E01DA30CA342E050E080
:103BE000BE016C5D7F4FCE0109960E941C151DA37E
:103BF0000CA342E050E0BE016C5D7F4FCE01099600
:103C00000E941C15CE0109960E943E1A892B09F4C8
:103C10001ECF83E0E82EF12CD7C04B815C816D81F3
:103C20007E81898D9A8DAB8DBC8D481759076A07A7
:103C30007B0709F00AC18D8D9E8DC59709F005C1DE
:103C40008AA19BA10DEF1FEF0C970CF4B4C04CE0C0
:103C500050E0BE016C5D7F4FCE0109960E949A191B
:103C60008EA19FA19827892798279BAF8AAF4F8164
:103C700058852CA13DA14217530709F0E9C097FFD1
:103C8000E7C08F7092700BEF1FEF892B09F093C084
:103C9000AAA4BBA4BA24AB24BA240AEF1FEFA11430
:103CA000B10409F488C010E000E088A599A5982720
:103CB000892798270817190708F541E050E0BE0149
:103CC0006A5C7F4FCE0109960E949A194EA944233F
:103CD00039F050E070E060E0CE0109960E949A1938
:103CE0008EA98111EACF44E050E070E060E0CE019F
:103CF00009960E949A190F5F1F4FD7CFD12CC12C64
:103D000041E050E0BE01645C7F4FCE0109960E9405
:103D10009A194CAD842F807C09F074C0442339F08B
:103D200050E070E060E0CE0109960E949A198CADD7
:103D30008111E6CF42E050E0BE01685C7F4FCE01CA
:103D400009960E949A1942E050E0BE016A5C7F4FDA
:103D5000CE0109960E949A1944E050E070E060E0BC
:103D6000CE0109960E949A1942E050E0BE01665CBD
:103D70007F4FCE0109960E949A1988AD99AD4AAD40
:103D80005BAD8115914009F047C00EA91FA910270E
:103D9000012710270130110509F03EC0411554409C
:103DA00009F04DC044E050E0BE016E5C7F4FCE0193
:103DB00009960E949A19F1E0EF1AF10809F449CE28
:103DC0000F3F100709F045CE0E94770C5B016C0194
:103DD000CE0109960E940C1C181619060CF41DCF72
:103DE0000E94770C6A197B098C099D096938734117
:103DF0008105910538F562E370E080E090E00E9473
:103E0000450CE6CF41E050E070E060E0CE0109965D
:103E10000E949A191CAE8BCF54274527542770E077
:103E200060E0CE0109960E949A19EFEFCE1ADE0AE1
:103E3000AC14BD0409F064CF06EF1FEFBCCF07EF51
:103E40001FEFB9CF0FEF1FEFB6CF0EEF1FEFB3CFBE
:103E50000CEF1FEFB0CF0EEF1FEF02CE10E000E02F
:103E6000FFCD0E944E3CFB0101900020E9F7319705
:103E7000AF01461B570BDC01ED91FC910280F381F1
:103E8000E02D0994CF93DF93BC018DE396E00E946F
:103E9000CB07EC0162E572E08DE396E00E94331FF0
:103EA0008C0F9D1FDF91CF910895CF93DF9300D0AA
:103EB00000D000D0CDB7DEB78CE291E00E94421F67
:103EC0008EE292E09A83898380919C0490919D0474
:103ED000A0919E04B0919F048B839C83AD83BE838D
:103EE0004EE75DECBE016F5F7F4F8AEC94E00E946D
:103EF00081066BE171E08AEC94E00E94CB078AECCA
:103F000094E00E943E1A26960FB6F894DEBF0FBECC
:103F1000CDBFDF91CF9108958F929F92AF92BF92C4
:103F2000EF92FF920F931F93CF93DF93CDB7DEB73E
:103F3000A1970FB6F894DEBF0FBECDBF7C01FA018A
:103F4000CB0119A2223008F42AE08E010F5D1F4F29
:103F5000822E912CB12CA12CBF01A50194010E94AD
:103F6000073CF901CA016A300CF5605DD8016E9317
:103F70008D01232B242B252B79F790E080E01097DF
:103F800021F0BD01C7010E94331FA1960FB6F8941E
:103F9000DEBF0FBECDBFDF91CF911F910F91FF907C
:103FA000EF90BF90AF909F908F900895695CDECFA7
:103FB000CF92DF92EF92FF920F931F93CF93DF93F5
:103FC00077FF1DC06A017B01EC016DE20E94C4070E
:103FD0008C0144275527BA014C195D096E097F09E8
:103FE0002AE0CE010E948C1F800F911FDF91CF919C
:103FF0001F910F91FF90EF90DF90CF9008952AE0EE
:10400000DF91CF911F910F91FF90EF90DF90CF90B4
:104010000C948C1FAB01770F660B770B0C94D81F99
:10402000AB0170E060E02AE00C948C1F462F50E05A
:1040300070E060E02AE00C948C1F8F929F92AF9208
:10404000BF92CF92DF92EF92FF920F931F93CF9385
:10405000DF937C018B014C0182E0880E911C57019B
:10406000E5E0AE0EB11CD0E0C0E0F40161914F017B
:10407000C8010E9416206C016EE2C8010E94C407AC
:104080008C0D9D1DC80FD91F8A149B0471F7F70171
:104090006581C8010E9416208C0F9D1FDF91CF9172
:1040A0001F910F91FF90EF90DF90CF90BF90AF9056
:1040B0009F908F900895CF93DF93C82FD62F60E005
:1040C0000E94660B6D2F82EB95E00E94162061E046
:1040D0008C2FDF91CF910C94660B2F923F924F92D1
:1040E0005F926F927F928F929F92AF92BF92CF9288
:1040F000DF92EF92FF921F93CF93DF93EC016A015F
:104100007B01722EAB019601CB01B6010E947C3D72
:1041100065E572E0811126C046015701E894B7F8C1
:104120002FEF3FEF4FE75FE7C501B4010E947C3DF1
:1041300081110CC02FEF3FEF4FE75FE7C501B401DE
:104140000E94B63A69E572E0181664F02FEF3FEF6F
:104150004FE75FE4C701B6010E94773D1816B4F43B
:104160006DE572E0CE01DF91CF911F91FF90EF904E
:10417000DF90CF90BF90AF909F908F907F906F9087
:104180005F904F903F902F900C94331F2FEF3FEF95
:104190004FE75FECC701B6010E94B63A87FDE0CF5A
:1041A00020E030E0A901C701B6010E94B63A312CE7
:1041B000212C87FF09C06DE2CE010E94C4071C01BB
:1041C000F7FAF094F7F8F09410E060E070E080E027
:1041D0009FE3711641F020E030E040E251E40E949C
:1041E000CF3C1F5FF6CFA70196010E94633C2B01D5
:1041F0003C010E94483D4B015C012AE0BC01A40146
:10420000CE010E948C1F7C01E20CF31C1123A1F152
:10421000C501B4010E94BB3A9B01AC01C301B201CC
:104220000E94623C4B015C016EE2CE010E94C40719
:10423000E80EF91E115000F120E030E040E251E4B8
:10424000C501B4010E941C3B2B013C010E94483D6A
:104250004B01CE010E941020E80EF91EB40190E03F
:1042600080E00E94BB3A9B01AC01C301B2010E94F5
:10427000623C4B015C01DECFC701DF91CF911F9102
:10428000FF90EF90DF90CF90BF90AF909F908F9076
:104290007F906F905F904F903F902F9008950C9477
:1042A000331FCF93DF9300D000D000D0CDB7DEB75F
:1042B0008EE292E09A83898380919C0490919D0480
:1042C000A0919E04B0919F048B839C83AD83BE8399
:1042D0004EE75DECBE016F5F7F4F8AEC94E00E9479
:1042E00081068091ED02882309F467C064E970E0DB
:1042F0008AEC94E00E94CB07609113017091140145
:104300008AEC94E00E94102060E28AEC94E00E9423
:10431000C40760911101709112018AEC94E00E942F
:10432000102060E28AEC94E00E94C40760910F01C3
:10433000709110018AEC94E00E94102060E279E212
:104340008AEC94E00E940A2068E670E08DE396E033
:104350000E94CB0740910B0150910C0160910D011F
:1043600070910E012AE08DE396E00E948C1F62E5B9
:1043700072E08DE396E00E94331F6EE672E08AECF5
:1043800094E00E944F2140910B0150910C016091EB
:104390000D0170910E012AE08AEC94E00E948C1FBE
:1043A0008AEC94E00E943E1A26960FB6F894DEBF7F
:1043B0000FBECDBFDF91CF9108956DE870E08DE322
:1043C00096E00E94CB0766E870E08AEC94E00E94D9
:1043D000CB078091CD02882319F161E672E08AEC67
:1043E00094E00E944F2160911301709114018AECB6
:1043F00094E00E94102066E672E08AEC94E00E944D
:104400004F2160911101709112018AEC94E00E9499
:10441000102066E672E08AEC94E00E944F2186CF7D
:1044200082E890E00E94421F69E672E08AEC94E024
:104430000E944F2189CFFC01808191810C94383CEE
:10444000EF92FF920F931F93CF93DF9300D000D092
:10445000CDB7DEB7082F0E945F0B10E01C830B83E3
:10446000CE0103960E941B22E82EC80101969A8372
:104470008983CE0101960E941B22F82E60E080E025
:104480000E94660BB70182EB95E00E940A2063E46C
:1044900071E082EB95E00E94CB07C80102969A83F7
:1044A0008983CE0101960E941B22682F70E082EB67
:1044B00095E00E940A206DE371E082EB95E00E9496
:1044C000CB0761E080E00E94660BC80106969A83E4
:1044D0008983CE0101960E941B22682F82EB95E012
:1044E0000E9416206FE282EB95E00E94C407C8018B
:1044F00007969A838983CE0101960E941B22682F1A
:1045000082EB95E00E9416206FE282EB95E00E941C
:10451000C407C80105969A838983CE0101960E943B
:104520001B22682F82EB95E00E94162060E282EB4E
:1045300095E00E94C407C80103969A838983CE013F
:1045400001960E941B22682F82EB95E00E941620A4
:104550006AE382EB95E00E94C4070C5F1F4F1A8349
:104560000983CE0101960E941B22682F82EB95E001
:104570000E9416201092C9041092C8040F900F9048
:104580000F900F90DF91CF911F910F91FF90EF90BF
:104590000895AF92BF92CF92DF92EF92FF920F9366
:1045A0001F93CF93DF9300D000D000D0CDB7DEB7FC
:1045B000DD24D3945DE0C52E08EE13E0F12CE12C50
:1045C0002D2D30E08091AB049091AC0497FD0796BF
:1045D00043E0959587954A95E1F7281739072CF51B
:1045E000AC2CB12CBA82A982CE0101960E941B226A
:1045F0008E151F0439F034F0CE0101960E941B2263
:10460000E82EF12CBA82A982CE0101960E941B22CB
:104610008017110634F4CE0101960E941B22082F48
:1046200010E088E0C80ED394CBCF6CE071E08DE34E
:1046300096E00E94CB07B7018DE396E00E940A2026
:1046400087E091E00E94421F69EF70E08DE396E001
:104650000E94CB07B8018DE396E00E940A2084EF08
:1046600090E00E94421F8EE292E09A8389838091BB
:104670009C0490919D04A0919E04B0919F048B8313
:104680009C83AD83BE834EE75DECBE016F5F7F4FC1
:104690008AEC94E00E94810665EE70E08AEC94E07A
:1046A0000E94CB07B7018AEC94E00E940A2060EEDA
:1046B00070E08AEC94E00E94CB0762ED70E08AEC37
:1046C00094E00E94CB07B8018AEC94E00E940A2093
:1046D0006DEC70E08AEC94E00E94CB078AEC94E0E9
:1046E0000E943E1A26960FB6F894DEBF0FBECDBFCD
:1046F000DF91CF911F910F91FF90EF90DF90CF90BE
:10470000BF90AF900895CF92DF92EF92FF920F93F8
:104710001F93CF93DF93CDB7DEB728970FB6F894EA
:10472000DEBF0FBECDBF0DE010E08EE2C82E82E0EE
:10473000D82E8091AB049091AC04081719070CF0A7
:10474000B9C018870F83CE0107960E941B22E82E5E
:10475000C80101969A838983CE0101960E941B228B
:10476000F82EDA82C98280919C0490919D04A091D8
:104770009E04B0919F048B839C83AD83BE834EE7E0
:104780005DECBE016F5F7F4F8AEC94E00E94810672
:1047900066EC70E08AEC94E00E94CB07B7018AECEB
:1047A00094E00E940A2061EC70E08AEC94E00E94A0
:1047B000CB0766EB70E08AEC94E00E94CB07C8015F
:1047C00002969A838983CE0101960E941B22682F4C
:1047D0008AEC94E00E94162060EB70E08AEC94E092
:1047E0000E94CB076BEA70E08AEC94E00E94CB0752
:1047F000C80106969A838983CE0101960E941B22E6
:10480000682F8AEC94E00E9416206FE28AEC94E014
:104810000E94C407C80107969A838983CE01019636
:104820000E941B22682F8AEC94E00E9416206FE2FF
:104830008AEC94E00E94C407C80105969A83898394
:10484000CE0101960E941B22682F8AEC94E00E9400
:10485000162065EA70E08AEC94E00E94CB07C8015C
:1048600003969A838983CE0101960E941B22682FAA
:104870008AEC94E00E9416206AE38AEC94E00E949D
:10488000C407C80104969A838983CE0101960E94C9
:104890001B22682F8AEC94E00E9416208AEC94E098
:1048A0000E943E1A809196048F5F80939604085F61
:1048B0001F4F3FCF28960FB6F894DEBF0FBECDBF77
:1048C000DF91CF911F910F91FF90EF90DF90CF90EC
:1048D0000895CF93DF93CDE0D0E060E0CE010E9459
:1048E000403C2196C11584E0D807B9F78CE090E0F0
:1048F0009093AC048093AB046CE0DF91CF910C9467
:10490000403C2F923F924F925F926F927F928F9294
:104910009F92AF92BF92CF92DF92EF92FF920F934E
:104920001F93CF93DF93CDB7DEB7CF55D1090FB625
:10493000F894DEBF0FBECDBF0E94770C0091AE028F
:104940001091AF022091B0023091B1020617170703
:1049500028073907C0F430E020E04AEB52E06EEB64
:1049600072E080EA94E00E9442040E94770C68574B
:104970007C4E8F4F9F4F6093AE027093AF02809337
:10498000B0029093B1020E94770C0091B202109194
:10499000B3022091B4023091B50206171707280719
:1049A000390708F085C08091F702882309F480C098
:1049B00030E020E04AEB52E06EEB72E080EA94E0F7
:1049C0000E9442048EE292E09A83898380919C0443
:1049D00090919D04A0919E04B0919F048B839C8331
:1049E000AD83BE834EE75DECBE016F5F7F4F8AEC07
:1049F00094E00E9481064091BE025091BF026091F6
:104A0000C0027091C10222E08AEC94E00E946D2005
:104A100063E571E08AEC94E00E94CB0726E636E677
:104A200046EE5FE36091BE027091BF028091C002CA
:104A30009091C1020E941C3B20E030E040E052E433
:104A40000E94633C0E94413D8AEC94E00E940A204F
:104A50006DE471E08AEC94E00E94CB074091BA02C9
:104A60005091BB026091BC027091BD0222E08AECC1
:104A700094E00E946D2068E471E08AEC94E00E946A
:104A8000CB078AEC94E00E943E1A0E94770C68578C
:104A90007C4E8F4F9F4F6093B2027093B30280930E
:104AA000B4029093B502809196048F5F8093960430
:104AB0000E94311329873A874B875C876D877E87F1
:104AC0008F873111B6C00E9431132DA33EA34FA38F
:104AD00058A769A77AA78BA72111CFC030E020E0A3
:104AE0004AEB52E06EEB72E080EA94E00E944204EE
:104AF0006091BE027091BF028091C0029091C1028C
:104B00000E94413D7A8369836091BA027091BB0231
:104B10008091BC029091BD020E94413D6B830E9436
:104B200031132CA73DA74EA75FA768AB79AB8AAB23
:104B30004C830E9431132BAB3CAB4DAB5EAB6FABE8
:104B400078AF89AF3D830E9431132AAF3BAF4CAFA2
:104B50005DAF6EAF7FAF21968FAF21978E830E949E
:104B6000311322962FAF229723963FAF2397249697
:104B70004FAF249725965FAF259726966FAF269760
:104B800027967FAF279728968FAF28977F830E941D
:104B9000311329962FAF29972A963FAF2A972B9644
:104BA0004FAF2B972C965FAF2C972D966FAF2D970D
:104BB0002E967FAF2E972F968FAF2F976887E09016
:104BC000AB04F090AC0487010F5F1F4FAE014F5F45
:104BD0005F4F6A0159E0E50EF11C61961FAF0EAF01
:104BE0006197D601BD906D01CE01815B9F4F0E9400
:104BF0001B22B81621F06B2DC8010E94403C0F5FAC
:104C00001F4FE016F10649F76091AB047091AC04B8
:104C1000685F7F4F7093AC046093AB048CE090E0CE
:104C20000E94403C6CE474E080E090E00E94450CFF
:104C300024C00E943113288B398B4A8B5B8B6C8B81
:104C40007D8B8E8B3F3009F43ECF0E9431132F8B2A
:104C5000388F498F5A8F6B8F7C8F8D8F3E3109F43F
:104C600032CF0E9431132E8F3F8F48A359A36AA3DE
:104C70007BA38CA33D3209F426CF0E94881180913A
:104C8000170190911801059709F070C00E94D41285
:104C90008C010E94770CC090B602D090B702E090D1
:104CA000B802F090B902C616D706E806F906B8F4BD
:104CB000012B09F47FC00E94D4129093C904809301
:104CC000C8040E94770C6C507E4F8F4F9F4F6093AB
:104CD000B6027093B7028093B8029093B902009124
:104CE000C8041091C9040530110509F06AC00E947A
:104CF0005F0B6BE671E082EB95E00E94CB07409181
:104D0000BE025091BF026091C0027091C10222E0C8
:104D100082EB95E00E946D2066E671E082EB95E003
:104D20000E94CB0761E080E00E94660B6EE571E0B7
:104D300082EB95E00E94CB074091BA025091BB02F2
:104D40006091BC027091BD0222E082EB95E00E946E
:104D50006D2069E571E082EB95E00E94CB0710922F
:104D6000C9041092C80486E080931601809117014F
:104D700090911801019709F079C00E94F9120E94E0
:104D80009E0B80919404909195048130910509F0D7
:104D9000ECC1209115012850209315018091AB049E
:104DA0009091AC048C30910509F054C08DE0809353
:104DB000150154C00E94770C6C597F4F8F4F9F4F45
:104DC00086CF0130110541F48DE00E94202210931E
:104DD000180100931701CACF0230110529F5F09090
:104DE0009704E09096040E945F0B68E872E082EB03
:104DF00095E00E944F216E2D82EB95E00E941620D7
:104E000061E080E00E94660B6FE872E082EB95E063
:104E10000E944F216F2D82EB95E00E941620109288
:104E2000C9041092C804D3CF03301105F9F40E94CD
:104E30005F0B6DE871E082EB95E00E94CB0761E0CB
:104E400080E00E94660B62E771E082EB95E00E94D1
:104E5000CB07E5CF87502D3008F4A9CF80911501FD
:104E60000E942022109295041092940480911701C0
:104E700090911801029799F40E94F9120E949E0BDA
:104E800080919404909195048130910509F088C136
:104E90008CE10E944E0B1092950410929404809124
:104EA000170190911801039709F07BC00E94F91235
:104EB0000E949E0B809194049091950484309105FA
:104EC00009F07CC188E090E090931801809317016D
:104ED0000E945F0B65EA71E082EB95E00E94CB07D0
:104EE0006091000182EB95E00E94162060E282EB67
:104EF00095E00E94C4076091010182EB95E00E9459
:104F000016206DE282EB95E00E94C40760910201D9
:104F100082EB95E00E94162060E282EB95E00E9411
:104F2000C4076091030182EB95E00E9416206DE2B8
:104F300082EB95E00E94C4076091040182EB95E04A
:104F40000E94162060E282EB95E00E94C407609107
:104F5000050182EB95E00E9416206DE282EB95E060
:104F60000E94C4076091060182EB95E00E94162022
:104F700060E282EB95E00E94C40762EA71E082EB96
:104F800095E00E94CB076091070182EB95E00E94BB
:104F900016201092C9041092C80410929504109221
:104FA000940480911701909118010697D1F40E9402
:104FB000F91280919404909195048430910509F040
:104FC00054C10E94692485E090E090931801809379
:104FD00017019093C9048093C8041092950410920D
:104FE00094048091170190911801079751F50E9440
:104FF000F91261E0809116010E94660B0E94950BE8
:1050000080919404909195048130910509F036C106
:105010008CE10E944E0B80911601811103C088E241
:10502000809316018091160181508093160161E0F2
:105030000E94660B81E08093930410929504109275
:1050400094048091170190911801089751F50E94DE
:10505000F91261E0809116010E94660B0E94950B87
:1050600080919404909195048130910509F0C8C312
:105070008CE10E944E0B80911601811103C088E2E1
:10508000809316018091160181508093160161E092
:105090000E94660B81E08093930410929504109215
:1050A00094046F961FAE6F970E94770C60938F04E5
:1050B00070939004809391049093920480918E0455
:1050C000882331F08DE06F968FAF6F9710928E042A
:1050D000E0917F05E353E53008F49DC710929005F9
:1050E00080E880939105109292050E94830C8DE3D5
:1050F00096E00E941507892B11F40C94F2318DE390
:1051000096E00E94F3060E94533C6F968FAF6F9714
:10511000BE01625A7F4F80E794E00E94CC016F96F7
:105120008FAD6F978F3711F00C94E93161EA72E01F
:105130008DE396E00E944F2167E672E08DE396E0F2
:105140000E944F2161EA72E08DE396E00E944F21B8
:1051500080E0E82FF0E0DF01A059BB4F9C9199233C
:1051600011F40C94DF318F5FF4CF8430910579F422
:1051700080911501885F809315012091AB043091D7
:10518000AC048217130609F00CF468CE0FCE8530FC
:10519000910509F067CE909318018093170162CEB4
:1051A0008430910511F488E174CE8530910509F0C1
:1051B00072CE90931801809317016DCE82309105C5
:1051C00041F587E090E090931801809317010E94C9
:1051D0005F0B10E000E01A830983CE0101960E9464
:1051E0001B22682F82EB95E00E941620802F8B7F78
:1051F000833021F0BBE06EE20B1301C060E282EB72
:1052000095E00E94C4070F5F1F4F0C30110519F77E
:10521000C0CE81309105C9F486E090E090931801EA
:10522000809317010E945F0B69EB71E082EB95E0C0
:105230000E94CB0761E080E00E94660B68EA71E0A3
:1052400082EB95E00E94CB07A4CE8330910521F438
:1052500088E10E944E0BA1CE8530910509F09DCECC
:10526000909318018093170198CE8530910509F02D
:10527000B4CE9093180180931701AFCE8230910580
:1052800009F095C210911601133008F04BC08091BF
:105290009304E82EF12C90E080E00E94383C282F07
:1052A00030E011110AC0B701C9010E9414118F3FEB
:1052B000910511F00CF0AFC117C0113029F4B701FE
:1052C000C9010E94F710F3CFC9016AE070E00E94A3
:1052D0009D3DF901E81BF90BCF018E0D9F1D8F3FFE
:1052E000910511F00CF0AFC0682F90E080E00E94B3
:1052F000403C60E0809116010E94660B609193042F
:1053000082EB95E00E94162061E0809116010E94D8
:10531000660B809193048F5F8A3009F492C080936A
:10532000930491C01730C0F5143099F481E090E0F7
:105330000E94383C6091930470E090E00E94141148
:105340008F3F910511F00CF066C1682F81E090E06D
:10535000CECF153059F481E090E00E94383C609146
:10536000930470E090E00E94F710EACF163009F045
:105370006AC081E090E00E94383C282F30E0C901EB
:105380006AE070E00E949D3D281B390B80919304D8
:10539000820F932F911DD4CF1830D1F482E090E08A
:1053A0000E94383C282F30E0C9016AE070E00E947A
:1053B0009D3D281B390B60919304620F732F711D63
:1053C0006F3F710511F00CF026C182E090E08FCFA5
:1053D0001D30C8F51A3099F483E090E00E94383C03
:1053E0006091930470E090E00E9414118F3F91054A
:1053F00011F00CF010C1682F83E090E078CF1B30E3
:1054000059F483E090E00E94383C6091930470E08E
:1054100090E00E94F710EACF1C30A9F483E090E0FE
:105420000E94383C282F30E0C9016AE070E00E94F9
:105430009D3D281B390B80919304820F932F911D62
:10544000D5CF1092930480911601813108F052C09B
:105450008E3069F584E090E00E94383C60919304BE
:1054600070E090E00E9414118F3F910511F00CF054
:10547000E4CD682F84E090E00E94403C60E08091A1
:1054800016010E94660B6091930482EB95E00E94E6
:10549000162061E0809116010E94660B80919304B2
:1054A0008F5F8A3009F4B5C080939304B4C08F3005
:1054B00059F484E090E00E94383C6091930470E0DD
:1054C00090E00E94F710D0CF803109F0A4C084E0B2
:1054D00090E00E94383C282F30E0C9016AE070E07B
:1054E0000E949D3D281B390B80919304820F932FBE
:1054F000911DBACF8531C0F5823199F485E090E0F5
:105500000E94383C6091930470E090E00E94141176
:105510008F3F910511F00CF090CD682F85E090E061
:10552000ABCF833159F485E090E00E94383C609124
:10553000930470E090E00E94F710EACF843109F004
:105540006AC085E090E00E94383C282F30E0C90115
:105550006AE070E00E949D3D281B390B8091930406
:10556000820F932F911DD4CF8931B8F5863199F4EC
:1055700086E090E00E94383C6091930470E090E0F7
:105580000E9414118F3F910511F00CF056CD682F39
:1055900086E090E071CF873159F486E090E00E9478
:1055A000383C6091930470E090E00E94F710EACFDD
:1055B000883189F586E090E00E94383C282F30E061
:1055C000C9016AE070E00E949D3D281B390B809163
:1055D0009304820F932F911DD5CF8A31E1F487E098
:1055E00090E00E94383C282F30E0C9016AE070E06A
:1055F0000E949D3D281B390B60919304620F732F0D
:10560000711D6F3F710511F00CF017CD87E090E030
:1056100033CF10929304809116018F3108F054C05B
:105620008C3179F588E090E00E94383C60919304D9
:1056300070E090E00E9414118F3F910511F00CF082
:10564000FCCC682F88E090E00E94403C60E08091B4
:1056500016010E94660B6091930482EB95E00E9414
:10566000162061E0809116010E94660B80919304E0
:105670008F5F809393048A3009F0DFCC10929304FB
:10568000DCCC8D3159F488E090E00E94383C609188
:10569000930470E090E00E94F710CECF8E3109F0B5
:1056A000CCCC88E090E00E94383C282F30E0C90143
:1056B0006AE070E00E949D3D281B390B80919304A5
:1056C000820F932F911DB8CF8332C0F5803299F4A9
:1056D00089E090E00E94383C6091930470E090E093
:1056E0000E9414118F3F910511F00CF0A6CC682F89
:1056F00089E090E0A9CF813259F489E090E00E94DE
:10570000383C6091930470E090E00E94F710EACF7B
:10571000823209F092CC89E090E00E94383C282F38
:1057200030E0C9016AE070E00E949D3D281B390B02
:1057300080919304820F932F911DD4CF8432D1F4A2
:105740008AE090E00E94383C282F30E0C9016AE0EE
:1057500070E00E949D3D281B390B60919304620FFD
:10576000732F711D6F3F710511F00CF066CC8AE04C
:1057700090E06ACF863209F060CC8BE090E00E9426
:10578000383C282F30E0C9016AE070E00E949D3D5E
:10579000281B390B60919304620F732F711D8BE0EE
:1057A00090E06F3F710511F00CF047CC4DCF833086
:1057B000910541F461E0809116010E94660B0E9400
:1057C000950B5CCF8430910591F488E10E944E0BDB
:1057D00080911601883211F4109216018091160101
:1057E0008F5F8093160161E00E94660B47CF853082
:1057F000910509F022CC90931801809317011DCCDC
:105800008230910509F033C280911601823019F57A
:1058100020910001822F64E60E94913D892F6AE069
:105820000E94913D11E0180F1A3009F410E0612F29
:1058300070E0822F90E00E94F7102091010128175C
:10584000190609F00CF429CC80930001612F82E045
:105850000E945B2022CC833009F520910001822F29
:105860006AE00E94913D41E0490F4A3009F440E06E
:1058700030E0C9016AE070E00E949D3D281B390BB1
:10588000240F311D809101018217130609F00CF4D9
:1058900004CC20930001642F83E0DACF853009F532
:1058A00020910101822F64E60E94913D892F6AE0D8
:1058B0000E94913D11E0180F1A3009F410E0612F99
:1058C00070E0822F90E00E94F710209102012817CB
:1058D000190609F00CF4E1CB80930101612F85E0FA
:1058E000B7CF863009F520910101822F6AE00E942E
:1058F000913D41E0490F4A3009F440E030E0C901F0
:105900006AE070E00E949D3D281B390B240F311D79
:10591000809102018217130609F00CF4BECB20938C
:105920000101642F86E094CF883009F520910201AF
:10593000822F64E60E94913D892F6AE00E94913D8A
:1059400011E0180F1A3009F410E0612F70E0822F77
:1059500090E00E94F710209103012817190609F022
:105960000CF49BCB80930201612F88E071CF8930CA
:1059700009F520910201822F6AE00E94913D41E0E9
:10598000490F4A3009F440E030E0C9016AE070E0B4
:105990000E949D3D281B390B240F311D809103016E
:1059A0008217130609F00CF478CB20930201642FC0
:1059B00089E04ECF8B3009F520910301822F64E6F8
:1059C0000E94913D892F6AE00E94913D11E0180FDD
:1059D0001A3009F410E0612F70E0822F90E00E94ED
:1059E000F710209104012817190609F00CF455CB83
:1059F00080930301612F8BE02BCF8C3009F5209130
:105A00000301822F6AE00E94913D41E0490F4A3034
:105A100009F440E030E0C9016AE070E00E949D3D79
:105A2000281B390B240F311D8091040182171306A6
:105A300009F00CF432CB20930301642F8CE008CFE3
:105A40008E3009F520910401822F64E60E94913D79
:105A5000892F6AE00E94913D11E0180F1A3009F475
:105A600010E0612F70E0822F90E00E94F7102091EB
:105A700005012817190609F00CF40FCB80930401D7
:105A8000612F8EE0E5CE8F3009F520910401822F41
:105A90006AE00E94913D41E0490F4A3009F440E03C
:105AA00030E0C9016AE070E00E949D3D281B390B7F
:105AB000240F311D809105018217130609F00CF4A3
:105AC000ECCA20930401642F8FE0C2CE813109F526
:105AD00020910501822F64E60E94913D892F6AE0A2
