:100000000C9478010C94A0010C94A0010C94A00114
:100010000C94A0010C94A0010C94A0010C94A001DC
:100020000C94A0010C94A0010C94A0010C94A001CC
:100030000C94A0010C94A0010C94A0010C94A001BC
:100040000C9476140C94A0010C9444140C941E147B
:100050000C94A0010C94A0010C94A0010C94A0019C
:100060000C94FF120C94A0012A494E56414C49446D
:1000700020434F4D4D414E44000000000024002716
:10008000002A0000000000250028002B00000000CE
:100090000800020100000304070000000000000047
:1000A000003E57656C636F6D6520746F204172640C
:1000B00075696E6F20436F6D6D616E64204C696E63
:1000C0006520496E7465727072657465722C206566
:1000D0006E746572202748454C502720666F722049
:1000E0006C697374206F6620636F6D6D616E6473ED
:1000F000210A004F4646004F464600475245454EAE
:10010000004F46460052454400475245454E005276
:10011000454400424C494E4B494E4720003E204C3E
:10012000454420004F4646004F4E00424C494E4B3E
:10013000494E47003E2044313320005665727369B2
:100140006F6E3A20002D3E48454C50002D3E5645DE
:100150005253494F4E002D3E52474220424C494E89
:100160004B002D3E524742204F4646002D3E5247FF
:1001700042204F4E002D3E524742203C7265643E65
:10018000203C677265656E3E203C626C75653E0082
:100190002D3E414444203C6E756D626572313E20B7
:1001A0003C6E756D626572323E002D3E54454D5079
:1001B0002048494748204C4F57002D3E54454D504C
:1001C00020484953544F5259002D3E4355525245F1
:1001D0004E542054454D50002D3E53455420544913
:1001E0004D45203C6D6F6E74683E203C6461793EE5
:1001F000203C796561723E203C686F75723E203C00
:100200006D696E7574653E203C7365636F6E643E08
:10021000002D3E43555252454E542054494D450001
:100220002D3E535441545553204C454453002D3ECC
:1002300053455420424C494E4B203C6E756D6265CF
:10024000723E002D3E4C454420414C5445524E4197
:100250005445002D3E4C454420424C494E4B002D08
:100260003E4C4544204F4646002D3E4C45442052CE
:100270004544002D3E4C454420475245454E002DF7
:100280003E44313320424C494E4B002D3E443133E5
:10029000204F4646002D3E443133204F4E005468D7
:1002A0006520617661696C61626C6520636F6D6D5C
:1002B000616E6473206172653A20000404040404D2
:1002C0000404040202020202020303030303030103
:1002D00002040810204080010204081020010204DA
:1002E000081020000000002300260029000031151E
:1002F00011241FBECFEFD8E0DEBFCDBF25E0ACE8B4
:10030000B2E001C01D92AE3AB207E1F712E0A0E000
:10031000B1E0E8E4F2E402C005900D92AC38B10718
:10032000D9F711E0C8E7D1E004C02197FE010E948F
:100330000121C737D107C9F70E9439150C94BF1E98
:100340000C9400000F931F93CF93DF938C01D0E0A8
:10035000C0E0F801EC0FFD1F6491662371F0E0919D
:10036000F604F091F7040190F081E02D86EF94E01F
:100370000995892B11F02196ECCFCE01DF91CF9119
:100380001F910F910895E091F604F091F704019008
:10039000F081E02D682F86EF94E00994E0917A04D3
:1003A000F0917B040190F081E02D682F8AE794E0C2
:1003B000099480EE91E090937704809376040895F9
:1003C000089588EE91E090937504809374040895E5
:1003D000089520915104260F3327331F2132310510
:1003E000ECF42091F004FC0190E080E0243069F00E
:1003F00082E00895A09151042191AC014F5C5B4FC4
:10040000A40FB52FB11D2C930196861798F38091F8
:100410005104680F6093510480E0089581E00895CD
:100420000895E091790480917804E81730F4F0E0C1
:10043000E053FB4F808190E008958FEF9FEF089588
:1004400090917904809178042FEF3FEF981748F44A
:10045000E92FF0E0E053FB4F208130E09F5F909365
:100460007904C90108958091780490917904891BD9
:10047000990B0895CF92DF92EF92FF920F931F9303
:10048000CF93DF937C01CB018A0120918604222344
:1004900089F0EB016B01C40ED51ECC15DD0569F0AA
:1004A0006991D701ED91FC910190F081E02DC70198
:1004B0000995F3CF642F0E94E901C801DF91CF9124
:1004C0001F910F91FF90EF90DF90CF900895CF9301
:1004D000DF931F92CDB7DEB7698320918604222374
:1004E000F9F020918904203258F021E030E0FC013D
:1004F0003383228390E080E00F90DF91CF910895C5
:1005000080918704E82FF0E0E657FB4F99819083B4
:100510008F5F809387048093890481E090E0ECCF23
:1005200061E0CE0101960E94E901F7CF6AE00E94E6
:10053000C220292F30E1839FC0011124822B08950E
:10054000982F92959F708F702AE0929F800D1124B2
:100550000895CF92DF92EF92FF920F931F93CF9364
:10056000DF93EC017A016901E881F9810190F08162
:10057000E02D0995E881F9810084F185E02D98014D
:10058000A601B701CE01DF91CF911F910F91FF908E
:10059000EF90DF90CF9009946F927F928F929F920D
:1005A000AF92BF92CF92DF92EF92FF920F931F9381
:1005B000CF93DF93CDB7DEB7AC970FB6F894DEBF1D
:1005C0000FBECDBFDC011696ED91FC91319609F47A
:1005D0008BC059013A016B018C01FE0131964F012C
:1005E00088E2DF011D928A95E9F7D801ED91FC912F
:1005F0000488F589E02DB401C80109957C01892B97
:1006000009F05CC01AA619A61CA61BA6D801ED917C
:10061000FC910688F789E02D9E01255D3F4FAE01D4
:10062000475D5F4FB401C80109957C01892B09F032
:1006300045C0A114B10439F088E2F401D50101905C
:100640000D928A95E1F7C114D10409F189A59AA503
:1006500021E030E097FF02C02FEF3FEF9F77829FAE
:10066000B001839F700D929F700D1124072E000C16
:10067000880B990B0E94D81E20E030E040E251E444
:100680000E941A20F6016083718382839383611430
:100690007104A1F06BA57CA5072E000C880B990BAB
:1006A0000E94D81E20E030E040E251E40E941A206F
:1006B000D3016D937D938D939C931397C701AC9653
:1006C0000FB6F894DEBF0FBECDBFDF91CF911F9163
:1006D0000F91FF90EF90DF90CF90BF90AF909F90E1
:1006E0008F907F906F90089587E1E82EF12CE6CFF0
:1006F0008F929F92AF92BF92CF92DF92EF92FF9232
:100700000F931F93CF93DF93EC018B016A01790163
:10071000E881F9810288F389E02D0995B82EB801A6
:10072000685F7F4FE881F9810288F389E02DCE016F
:100730000995982EB801605F7F4FE881F9810288A2
:10074000F389E02DCE010995A82EB801685E7F4F90
:10075000E881F9810288F389E02DCE010995882E80
:10076000B801605E7F4FE881F9810288F389E02D4E
:10077000CE0109959B2D990D9A0D980D891319C0DD
:100780009A2D882DF601918380839B2D892DF70169
:100790009183808390E080E0DF91CF911F910F9152
:1007A000FF90EF90DF90CF90BF90AF909F908F9091
:1007B000089585E190E0F0CF47E050E080E0FB0154
:1007C0002191BF01042E01C0220F0A94EAF7820F83
:1007D00041505109A0F70895FC01828590E00895E9
:1007E000FC01818590E00895CF92DF92EF92FF9215
:1007F0000F931F93CF93DF93EC017A016901E88196
:10080000F9810190F081E02D0995E881F98104805A
:10081000F581E02D9801A601B701CE01DF91CF91BE
:100820001F910F91FF90EF90DF90CF900994CF929E
:10083000DF92EF92FF920F931F93CF93DF93CDB789
:10084000DEB728970FB6F894DEBF0FBECDBFDC0130
:100850001696ED91FC91319609F440C08A017B0116
:1008600019821A821B821C821D821E821F82188698
:10087000DC01ED91FC910084F185E02DAE014B5F30
:100880005F4FBE016F5F7F4F09956C01892BB1F4FB
:10089000E114F10441F069817A818B819C810E948D
:1008A0008C20F70160830115110541F06D817E8177
:1008B0008F8198850E948C20D8016C93C601289660
:1008C0000FB6F894DEBF0FBECDBFDF91CF911F9161
:1008D0000F91FF90EF90DF90CF90089587E1C82EA1
:1008E000D12CECCF262F2D7F29F4FC01608790E0DE
:1008F00080E0089588E190E00895DC0117967C93EC
:100900006E931697FB01E153FD4FE4911996EC931A
:10091000199765547D4FFB0164911A966C93089565
:10092000FC01538D448D252F30E0842F90E0821BF5
:10093000930B541710F0CF96089501970895FC017A
:10094000918D828D981761F0A28DAE0FBF2FB11DD2
:100950005D968C91928D9F5F9F73928F90E008952A
:100960008FEF9FEF0895FC01918D828D981731F0E4
:10097000828DE80FF11D858D90E008958FEF9FEF38
:100980000895FC01918D228D892F90E0805C9F4F0E
:10099000821B91098F7399270895FC01A48DA80FDC
:1009A000B92FB11DA35ABF4F2C91848D90E00196B1
:1009B0008F739927848FA689B7892C93A089B189D1
:1009C0008C91837080648C93938D848D981306C072
:1009D0000288F389E02D80818F7D80830895EF92D6
:1009E000FF920F931F93CF93DF93EC0181E0888FE9
:1009F0009B8D8C8D98131AC0E889F989808185FFB9
:100A000015C09FB7F894EE89FF896083E889F9895A
:100A100080818370806480839FBF81E090E0DF915C
:100A2000CF911F910F91FF90EF900895F62E0B8DAF
:100A300010E00F5F1F4F0F731127E02E8C8D8E116A
:100A40000CC00FB607FCFACFE889F989808185FFD1
:100A5000F5CFCE010E94CD04F1CFEB8DEC0FFD2F31
:100A6000F11DE35AFF4FF0829FB7F8940B8FEA898C
:100A7000FB8980818062CFCFCF93DF93EC01888D9B
:100A80008823B9F0AA89BB89E889F9898C9185FD09
:100A900003C0808186FD0DC00FB607FCF7CF8C9197
:100AA00085FFF2CF808185FFEDCFCE010E94CD047E
:100AB000E9CFDF91CF91089586EF94E00E94C104C1
:100AC00021E0892B09F420E0822F089580E090E056
:100AD000892B29F00E945C0581110C940000089577
:100AE000AF92BF92CF92DF92EF92FF920F931F933C
:100AF000CF93DF936C017B018B01040F151FEB017A
:100B00005E01AE18BF08C017D10759F06991D60130
:100B1000ED91FC910190F081E02DC6010995892BA2
:100B200079F7C501DF91CF911F910F91FF90EF9061
:100B3000DF90CF90BF90AF90089590E080E008954F
:100B400090E0FC01E357FF4F2491FC01E153FD4F7E
:100B50003491FC01E554FD4FE491EE23C9F02223CA
:100B600039F0233001F1A8F4213019F1223029F1B4
:100B7000F0E0EE0FFF1FED57FF4FA591B4918FB737
:100B8000F894EC91611126C030953E233C938FBFC1
:100B900008952730A9F02830C9F0243049F7809112
:100BA00080008F7D03C0809180008F7780938000CC
:100BB000DFCF84B58F7784BDDBCF84B58F7DFBCF4E
:100BC0008091B0008F778093B000D2CF8091B00039
:100BD0008F7DF9CF3E2BDACF1092F00481E0809325
:100BE000CF041092CA0461E082E10E94A00561E096
:100BF00083E10E94A005E9EBF0E080818E7F808395
:100C000080818D7F808388E48093B80085E4809321
:100C1000BC000895CF93DF9391E090933004882334
:100C2000B9F0C091B800D091BA008091BC008A7B25
:100C30008093BC0060E082E10E94A00560E083E157
:100C40000E94A0050E94EC05D093BA00C093B800A2
:100C5000DF91CF910895CF93DF9390E0FC01E153B2
:100C6000FD4F249185549D4FFC0184918823C9F048
:100C700090E0880F991FFC01E758FF4FA591B491B0
:100C8000FC01ED57FF4FC591D49161110DC09FB785
:100C9000F8948C91209582238C9388812823288333
:100CA0009FBFDF91CF910895623051F49FB7F894C0
:100CB0003C91822F809583238C93E8812E2BEFCF5C
:100CC0008FB7F894EC912E2B2C938FBFEACF1F9304
:100CD000CF93DF93182FEB0161E00E942B06209742
:100CE00039F460E0812FDF91CF911F910C94A00522
:100CF000CF3FD10511F461E0F5CFE12FF0E0E357EC
:100D0000FF4FE491E33031F140F4E130B1F0E230F3
:100D1000E1F0C038D1057CF7E4CFE73029F1E830C5
:100D200059F1E430B1F780918000806280938000B7
:100D3000D0938B00C0938A0004C084B5806884BDC2
:100D4000C7BDDF91CF911F91089584B5806284BDA6
:100D5000C8BDF7CF80918000806880938000D093D9
:100D60008900C0938800EDCF8091B00080688093A7
:100D7000B000C093B300E5CF8091B0008062809353
:100D8000B000C093B400DDCF789484B5826084BD98
:100D900084B5816084BD85B5826085BD85B581607F
:100DA00085BDEEE6F0E0808181608083E1E8F0E0DF
:100DB0001082808182608083808181608083E0E80E
:100DC000F0E0808181608083E1EBF0E080818460ED
:100DD0008083E0EBF0E0808181608083EAE7F0E0EF
:100DE0008081846080838081826080838081816053
:100DF00080838081806880831092C1000895813053
:100E0000910539F0880F991F880F991F0597019751
:100E1000F1F708953FB7F8948091A7029091A80246
:100E2000A091A902B091AA0226B5A89B05C02F3FA8
:100E300019F00196A11DB11D3FBFBA2FA92F982F00
:100E40008827BC01CD01620F711D811D911D42E0FB
:100E5000660F771F881F991F4A95D1F70895CF9283
:100E6000DF92EF92FF920F931F93CF93C82F81329F
:100E700008F096C00E940A076B017C018091F00483
:100E8000811169C081E08093F0048093CF049FEFCB
:100E90009093CE041092CD049C0F9093CC04809339
:100EA000CB048091CB04806D8093CB048091CA04E5
:100EB000813009F077C01092CA040E940A076B01C2
:100EC0007C018091CB048093BB008091F2049091CF
:100ED000F304A091F404B091F504892B8A2B8B2B99
:100EE000A1F00E940A070091F2041091F3042091EE
:100EF000F4043091F5046C197D098E099F090617D9
:100F000017072807390708F447C08091BC0083FD04
:100F1000D8CF85EC8093BC000E940A076B017C014E
:100F20008091F004813009F43FC08091CD048C178A
:100F300010F4C091CD04AAEAB4E0E0EDF4E080E062
:100F40008C1354C08C2FCF911F910F91FF90EF9075
:100F5000DF90CF9008958091F2049091F304A091D6
:100F6000F404B091F504892B8A2B8B2B09F486CFDE
:100F70000E940A070091F2041091F3042091F404F6
:100F80003091F5046C197D098E099F090617170722
:100F90002807390708F072CF8091F1040E940A06F1
:100FA000C0E0D0CF85EEB6CF8091F2049091F304EB
:100FB000A091F404B091F504892B8A2B8B2B09F4B2
:100FC000AFCF0E940A070091F2041091F304209120
:100FD000F4043091F5046C197D098E099F090617F8
:100FE00017072807390708F09BCFD6CF9D9191931B
:100FF0008F5FA6CF8F929F92AF92BF92CF92DF92D8
:10100000EF92FF920F931F93CF93DF93613208F01B
:10101000D1C0142FD62FC82F0E940A076B017C0164
:101020008091F00481116BC082E08093F0041093F2
:10103000CF048FEF8093CE041092CD04D093CC04D4
:10104000AAE8B4E0EAEAF4E080E0D8138BC010929A
:10105000CB048091CB04CC0FC82BC093CB048091E0
:10106000CA04813009F082C01092CA040E940A07A3
:101070006B017C018091CB048093BB008091F204D2
:101080009091F304A091F404B091F504892B8A2B7C
:101090008B2BA1F00E940A070091F2041091F30437
:1010A0002091F4043091F5046C197D098E099F0993
:1010B000061717072807390708F442C08091BC00BB
:1010C00083FDD8CF85EC8093BC000E940A076B019A
:1010D0007C018091F004823009F44AC08091CE04F2
:1010E0008F3F09F469C08091CE04803209F466C054
:1010F0008091CE04803309F463C084E026C08091DF
:10110000F2049091F304A091F404B091F504892BBA
:101110008A2B8B2B09F484CF0E940A078090F2045B
:101120009090F304A090F404B090F5046C197D093C
:101130008E099F0986169706A806B90608F070CF93
:101140008091F1040E940A0685E0DF91CF911F9102
:101150000F91FF90EF90DF90CF90BF90AF909F9056
:101160008F9008959D9191938F5F6FCF85EEABCF58
:101170008091F2049091F304A091F404B091F504ED
:10118000892B8A2B8B2B09F4A4CF0E940A0700918C
:10119000F2041091F3042091F4043091F5046C19D9
:1011A0007D098E099F09061717072807390708F0D8
:1011B00090CFC6CF81E0C9CF80E0C7CF82E0C5CF56
:1011C00083E0C3CF482F60918904809188040E94F6
:1011D000FA071092870410928904109286040895E9
:1011E000CF93C62F91E09093860498E6909388045D
:1011F0001092870410928904682F8AE794E00E9475
:1012000067026C2F8AE794E00E94670281E0CF9129
:101210000C94E20891E09093860498E690938804F9
:101220001092870410928904682F8AE794E00E9444
:10123000670281E00C94E2087F928F929F92AF92B6
:10124000BF92CF92DF92EF92FF920F931F93CF93B3
:10125000DF93EC01162F7A0169010E940A074B0106
:101260005C01712C1111798410E000E060E070E005
:10127000CB012A813B814C815D81261737074807C6
:101280005907F4F00115110561F5C7011E141F047B
:1012900064F10E940A07681979098A099B09EA859D
:1012A000F0E0EE0FFF1FED51FD4FA591B4912C9191
:1012B0000F5F1F4F39852323271105C097FFD9CF13
:1012C0006FEF7FEFCB01DF91CF911F910F91FF90D7
:1012D000EF90DF90CF90BF90AF909F908F907F90D6
:1012E00008951C141D04ACF6C6010E94FF06D1CF60
:1012F0002FB7F8946091A3027091A4028091A50287
:101300009091A6022FBF08954F925F926F927F92A5
:101310009F92AF92BF92CF92DF92EF92FF920F9384
:101320001F93CF93DF9300D01F92CDB7DEB7D0903D
:101330009F058091A2059091A305A091A405B0916D
:10134000A505892B8A2B8B2BD9F00E940A070091C7
:101350009B0510919C0520919D0530919E05601B79
:10136000710B820B930B0091A2051091A3052091A4
:10137000A4053091A5056017710782079307C8F28D
:101380000E940A0760939B0570939C0580939D05BE
:1013900090939E05E091AA05F091AB05309759F026
:1013A0004091A6055091A7056091A8057091A905E7
:1013B0008D2D0995D82EE0909905F0909A054D2C29
:1013C000512C712C612CE114F10409F459C0D7019E
:1013D0001C96CC901C978091A0059091A105843615
:1013E000910510F41C961C92D701ED91FC91A280FE
:1013F000B38019821A821B82DD2079F1F7013696BB
:1014000010E000E02191222319F19280992001F14E
:1014100030E050E040E02F5F3F4F4F4F5F4FC30140
:10142000B2010E94641F9B01AC01892D90E0B0E0E5
:10143000A0E0BC01CD016F5F7F4F8F4F9F4F0E9497
:10144000641FA1E0B0E0AC0FBD1FA00FB11F8C93D3
:101450000F5F1F4F03301105A9F609811A812B81F7
:10146000F7014585568562817381C701F5010995AC
:10147000D7011C96CC921C971496ED90FC90A3CFAC
:1014800080919705909198058C010F5F1F4F1093E5
:101490009805009397054997B4F10E947809C09088
:1014A0009305D0909405E0909505F09096059B01EA
:1014B000AC012C193D094E095F0921F421E030E00F
:1014C00040E050E088EE93E0089FB001099F700D66
:1014D000189F700D1124072E000C880B990B0E9489
:1014E000741F3093A1052093A005109298051092C7
:1014F00097050E94780960939305709394058093F3
:101500009505909396050F900F900F90DF91CF91D6
:101510001F910F91FF90EF90DF90CF90BF90AF9011
:101520009F907F906F905F904F9008950F931F93BF
:10153000CF93DF932091A1022F5F322F377030932A
:10154000A10220FF2BC020E831FD2064347009F097
:101550002062205FFC01EC01239600E011E064852D
:10156000662329F070E0C8010E94CE206F5F61877A
:10157000322F369F030E30E0311D1124311110C07F
:101580001682662311F0615061873196EC17FD07D2
:1015900031F7DF91CF911F910F91089520E0D4CFC3
:1015A00031503683EECF4F925F927F928F929F920F
:1015B000AF92BF92CF92DF92EF92FF920F931F9361
:1015C000CF93DF932C01EB010E940A07F2012785DC
:1015D0003089621B730B6A307105B0F3F8948A810D
:1015E0009B81181619060CF0CDC1E881F9816BB109
:1015F000862E689487F83BB13F773BB9D9848E81BA
:101600002D2D281B822F2E834F85042E000C550B69
:10161000AA81BB817C85FD84EE847F5FF394E39493
:101620009F819884BA84AB841081C12C6C2D0C2DC1
:101630002C2D2081112788942111280F08F42FEFD9
:101640008195889470FD120F1795889471FD120F83
:101650001795889472FD120F1795889473FD120FD9
:101660001795889474FD120F1795889475FD120FC5
:101670001795889476FD120F1795889477FD120FB1
:1016800017958894622F7111612F8D0D162F002CE4
:101690008BB800C017FF3BB921816627889400C032
:1016A00000C0002C3BB92111290F00C0002C8BB8C1
:1016B00000C016FF3BB908F42FEF9195889400C045
:1016C00000C0002C3BB9F0FC620F00C0002C8BB8AE
:1016D00000C015FF3BB967958894F1FC620F00C00C
:1016E00000C0002C3BB96795889400C0002C8BB8D3
:1016F00000C014FF3BB9F2FC620F6795889400C0EC
:1017000000C0002C3BB9F3FC620F00C0002C8BB86A
:1017100000C013FF3BB967958894F4FC620F00C0CA
:1017200000C0002C3BB96795889400C0002C8BB892
:1017300000C012FF3BB9F5FC620F6795889400C0AA
:1017400000C0002C3BB9F6FC620F00C0002C8BB827
:1017500000C011FF3BB967958894F7FC620F00C089
:1017600000C0002C3BB96795889400C0002C8BB852
:1017700000C010FF3BB9122FF110162F9B0D00C0B7
:1017800000C0002C3BB900C000C0002C8BB800C0CA
:1017900017FF3BB922816627889400C000C0002C47
:1017A0003BB92111290D00C0002C8BB800C016FFD9
:1017B0003BB908F42FEFE40FF51F00C000C0002C68
:1017C0003BB9E0FC620F00C0002C8BB800C015FFD5
:1017D0003BB967958894E1FC620F00C000C0002C03
:1017E0003BB96795889400C0002C8BB800C014FFEB
:1017F0003BB9E2FC620F6795889400C000C0002CE2
:101800003BB9E3FC620F00C0002C8BB800C013FF93
:101810003BB967958894E4FC620F00C000C0002CBF
:101820003BB96795889400C0002C8BB800C012FFAC
:101830003BB9E5FC620F6795889400C000C0002C9E
:101840003BB9E6FC620F00C0002C8BB800C011FF52
:101850003BB967958894E7FC620F00C000C0002C7C
:101860003BB96795889400C0002C8BB800C010FF6E
:101870003BB9122FE110162F919400C000C0002C2C
:101880003BB99A0C00C000C08BB800C017FF3BB931
:1018900020816627889400C000C0002C3BB921112C
:1018A000280F00C0002C8BB800C016FF3BB908F40D
:1018B0002FEF8195889400C000C0002C3BB970FDCB
:1018C000620F00C0002C8BB800C015FF3BB96795B4
:1018D000889471FD620F00C000C0002C3BB9679571
:1018E000889400C0002C8BB800C014FF3BB972FD77
:1018F000620F6795889400C000C0002C3BB973FD4F
:10190000620F00C0002C8BB800C013FF3BB9679575
:10191000889474FD620F00C000C0002C3BB967952D
:10192000889400C0002C8BB800C012FF3BB975FD35
:10193000620F6795889400C000C0002C3BB976FD0B
:10194000620F00C0002C8BB800C011FF3BB9679537
:10195000889477FD620F00C000C0002C3BB96795EA
:10196000889400C0002C8BB800C010FF3BB9122F28
:101970007111162F8D0D00C000C0002C3BB91197BE
:1019800009F086CE4A815B8120EE31E0DA010E94C7
:101990000721DC01CB01F4E0B695A79597958795D3
:1019A000FA95D1F730E020E0B901EAE94E9F040E44
:1019B000611D5E9F600D711D1124650F711D860FE5
:1019C000971FA11DB11D893E43E09407A105B105F4
:1019D00008F434C0885E9340A109B10942E0B6958D
:1019E000A795979587954A95D1F747E0849F080E6C
:1019F000211D949F200D311D1124290F311D60914F
:101A0000A00270E0860F971F820F931F4091A302E0
:101A10005091A4026091A5027091A602292F33274C
:101A2000420F531F611D711D4093A3025093A402E6
:101A30006093A5027093A6028093A00278940E94FE
:101A40000A07F201708B6787DF91CF911F910F9189
:101A5000FF90EF90DF90CF90BF90AF909F908F90CE
:101A60007F905F904F90089580E991E00895579A94
:101A700008956F927F928F92CF92DF92EF92FF92B2
:101A80000F931F93CF93DF93CDB7DEB762970FB657
:101A9000F894DEBF0FBECDBF6C017A013801822EF3
:101AA000DC011C962C91CA0157FF04C08827992796
:101AB000841B950B7A8369839C838B839E838D83A0
:101AC0006D867E868F86213049F5CE0101960E9473
:101AD000960A83E0888B1A8A198AF7FE02C08DEF76
:101AE000888BD601ED91FC910484F585E02DBE0133
:101AF0006F5F7F4FC601099562960FB6F894DEBFFF
:101B00000FBECDBFDF91CF911F910F91FF90EF904E
:101B1000DF90CF908F907F906F9008951C861B86EA
:101B20001A86198618861F82D4CFEF92FF920F93E0
:101B30001F93CF93DF93CDB7DEB762970FB6F894BC
:101B4000DEBF0FBECDBF7C01DC011C968C917A8379
:101B500069835C834B835E834D830D871E872F874C
:101B60008130F9F4CE0101960E94960A188A1A8AE9
:101B7000198AD701ED91FC910484F585E02DBE0111
:101B80006F5F7F4FC701099562960FB6F894DEBF6D
:101B90000FBECDBFDF91CF911F910F91FF90EF90BE
:101BA00008951C861B861A86198618861F82DECF2A
:101BB000E4EEF2E01082118212821092E3020C94A1
:101BC0008409E4EEF2E080910C01808380910E01A3
:101BD000818380910A01828381E08093E3020C94E7
:101BE00084090F931F930E94780900919C02109121
:101BF0009D0220919E0230919F0206171707280729
:101C0000390720F48091EA02811104C08091E90231
:101C1000882359F11092E9020E9478090091060187
:101C2000109107012091080130910901DC01CB01DD
:101C3000800F911FA21FB31F80939C0290939D025F
:101C4000A0939E02B0939F028091E302882331F01B
:101C50001092E3021F910F910C94D80D81E08093B4
:101C6000E3021F910F910C94E10D1F910F910895C4
:101C70000F931F93CF930E94780900918C021091CB
:101C80008D0220918E0230918F02061717072807C8
:101C9000390720F48091EF02811104C08091EB029A
:101CA000882339F11092EB02C091DB0281E0C82752
:101CB000C093DB020E947809009106011091070190
:101CC0002091080130910901DC01CB01800F911FA7
:101CD000A21FB31F80938C0290938D02A0938E025B
:101CE000B0938F026C2F8DE0CF911F910F910C94C8
:101CF000A005CF911F910F91089590E080E0089585
:101D0000FC018585968508950F931F93CF93DF93EC
:101D100000D01F92CDB7DEB7AB0119821A821B82A9
:101D2000DC01ED91FC910190F081E02D00E010E0EC
:101D300020E0BE016F5F7F4F09950F900F900F90CD
:101D4000DF91CF911F910F910895FC010190002028
:101D5000E9F73197AF01481B590BE091F604F09178
:101D6000F7040280F381E02DBC0186EF94E0099432
:101D70008BEE91E00C94A50ECF93DF930E94A2010D
:101D8000EC010E94B80E8C0F9D1FDF91CF9108953A
:101D900088E690E00C94BC0ECF93DF930E94C301C1
:101DA000EC010E94B80E8C0F9D1FDF91CF9108951A
:101DB0008F929F92AF92BF920F931F93CF93DF9317
:101DC000CDB7DEB7A1970FB6F894DEBF0FBECDBF7B
:101DD00019A2423008F44AE08E010F5D1F4F842E95
:101DE000912CB12CA12CA50194010E94741FE62F07
:101DF000B901CA01EA30F4F4E05DD801EE938D0137
:101E0000232B242B252B79F790E080E0109719F0F5
:101E1000CD010E94A50EA1960FB6F894DEBF0FBEAD
:101E2000CDBFDF91CF911F910F91BF90AF909F9049
:101E30008F900895E95CE1CF0C94A50ECF93DF93CA
:101E40000E94A50EEC010E94B80E8C0F9D1FDF9121
:101E5000CF910895BC0190E080E04AE00C94D80E48
:101E6000682F70E090E080E04AE00C94D80ECF93A9
:101E7000DF930E94300FEC010E94B80E8C0F9D1F63
:101E8000DF91CF910895BF92CF92DF92EF92FF92B0
:101E90000F931F93CF93DF9300D000D000D01F92F9
:101EA000CDB7DEB780E00E940A0987E00E942F07C5
:101EB00010927904809378048730E1F58AE794E002
:101EC0000E9420020E94A002B82E8AE794E00E949D
:101ED00020020E94A002C82E8AE794E00E942002FD
:101EE000182F86FF3EC08F710E94A0020CE015FDE6
:101EF00000E0080F8AE794E00E9420020E94A002FE
:101F0000D82E8AE794E00E9420020E94A002E82EC8
:101F10008AE794E00E94200210E087FD14E68F77A4
:101F20000E94A002F82E8AE794E00E9420020E94FC
:101F3000A002180F2B2D3C2D402F5D2DB701812FB6
:101F400090E027960FB6F894DEBF0FBECDBFDF91AD
:101F5000CF911F910F91FF90EF90DF90CF90BF90A6
:101F600008958F730E94A002082FC4CFCF92DF92F2
:101F7000EF92FF92CF93DF936C01990FEE08FF0869
:101F8000F7FE17C08DE20E94C301EC016627772798
:101F9000CB016C197D098E099F094AE00E94D80E79
:101FA0008C0F9D1FDF91CF91FF90EF90DF90CF902E
:101FB00008954AE0C701B601DF91CF91FF90EF90FD
:101FC000DF90CF900C94D80E0F931F930E94780946
:101FD000009198021091990220919A0230919B02EF
:101FE000061717072807390770F58091F90288232B
:101FF00051F130E020E046EC52E067EC72E088EC12
:1020000092E00E9417048091C70290E00E94B60FF0
:102010008EEE91E00E941C0F8091C60290E00E941B
:10202000B60F84EF91E00E941E0F0E947809685756
:102030007C4E8F4F9F4F60939802709399028093CC
:102040009A0290939B021F910F910895CF93DF9373
:10205000EB010E940A0981E00E942F071092790487
:10206000809378048AE794E00E942002888381E0CC
:10207000DF91CF910895EF92FF921F93CF93DF935B
:102080001F92CDB7DEB77C01162FBE016F5F7F4F69
:102090008EE00E942610811108C080E00F90DF9131
:1020A000CF911F91FF90EF90089581E08093860477
:1020B00088E6809388041092870410928904113076
:1020C00089F587E090E00E94CE01F70180810E94AF
:1020D000960290E00E94CE01898185608983F70194
:1020E00081810E94960290E00E94CE01F7018281D8
:1020F0000E94960290E00E94CE01F70184810E9426
:10210000960290E00E94CE0181E00E94E2088111D7
:10211000C4CF69818EE00E94F0088111BECF812F6B
:102120008770BCCF8BE090E00E94CE0189818660F1
:10213000D5CF8FE48093040170E060E08BE00E94D3
:10214000670670E060E08CE00C94670682E580939F
:102150000401809305016FEF70E08CE00E94670638
:1021600070E060E08BE00C94670687E480930401E4
:10217000809305016FEF70E08BE00E94670670E0CE
:1021800060E08CE00C9467060F931F930E9478091F
:10219000009194021091950220919602309197023D
:1021A000061717072807390708F05EC08091EE026E
:1021B000882309F459C0809105018F3419F08235C4
:1021C00009F04AC0909104019F3409F582E580939B
:1021D0000501809304010E94780900910601109185
:1021E00007012091080130910901DC01CB01800F2A
:1021F000911FA21FB31F8093940290939502A09306
:102200009602B09397021F910F910C94A6108235FD
:1022100019F5923549F587E480930501809304010F
:102220000E94780900910601109107012091080190
:1022300030910901DC01CB01800F911FA21FB31F58
:102240008093940290939502A0939602B093970284
:102250001F910F910C94B510873431F480910401D3
:10226000877F873409F4B2CF1F910F910895CF92E1
:10227000DF92EF92FF92CF930E947809C090900274
:10228000D0909102E0909202F0909302C616D70689
:10229000E806F90620F48091ED02811104C08091D6
:1022A000EC02882391F180910501823571F5C0918E
:1022B0000101C0FF1FC0C0900601D0900701E0904F
:1022C0000801F0900901C1FF72C08FE480930401FE
:1022D0000E947809C60ED71EE81EF91EC092900211
:1022E000D0929102E0929202F09293020E94991091
:1022F0001092EC028C2F90E0959587959595879597
:10230000009709F467C0809301010E947809C0908A
:102310009002D0909102E0909202F0909302C61643
:10232000D706E806F90620F48091ED02811104C079
:102330008091EC028823A9F180910501873489F509
:10234000C09100019C2F9270C0FF46C09923F9F004
:102350008FE4809304010E947809C0900601D09018
:102360000701E0900801F0900901DC01CB018C0D20
:102370009D1DAE1DBF1D8093900290939102A0936E
:102380009202B09393020E9499101092EC028C2F4B
:1023900090E095958795959587950097E1F18093C5
:1023A0000001CF91FF90EF90DF90CF900895809340
:1023B00004010E947809C60ED71EE81EF91EC092BD
:1023C0009002D0929102E0929202F09293020E94C7
:1023D000A6108ECF87E797CF9923C9F28093040187
:1023E0000E947809C0900601D0900701E090080192
:1023F000F0900901DC01CB018C0D9D1DAE1DBF1DB0
:102400008093900290939102A0939202B0939302D2
:102410000E94B510BACF8BEBC2CF85ED8093BC0084
:102420008091F2049091F304A091F404B091F5042A
:102430000796A11DB11D23E0B695A79597958795A1
:102440002A95D1F72091BC0024FD03C01092F0041E
:1024500008954091F2045091F3046091F404709156
:10246000F504452B462B472B69F30097A105B105D1
:1024700041F025E32A95F1F700000197A109B10980
:10248000E1CF8091F1040C940A06EF92FF920F9332
:102490001F93CF93DF93EC018B0188E2FB01119234
:1024A0008A95E9F761E08E810E942B0660E08E81BB
:1024B0000E94A00588EE93E00E94FF0661E08E81F5
:1024C0000E94A00568858E810E942B0688E290E01C
:1024D0000E94FF06E881F9810088F189E02D26E05D
:1024E00030E04AE050E060E0CE0109956E317105C0
:1024F000810591056CF4982F872F762F66276061F0
:10250000CB01DF91CF911F910F91FF90EF90089534
:10251000E881F9810088F189E02D26E030E04AE089
:1025200050E061E0CE0109957801F8E2EF0EF11C70
:10253000623371058105910534F4982F872F762F2A
:1025400066276161DDCFE881F9810088F189E02D9E
:1025500026E030E04AE050E060E0CE0109956831C5
:1025600071058105910534F4982F872F762F662702
:102570006261C6CFE881F9810088F189E02D26E00B
:1025800030E04AE050E061E0CE0109956B30710522
:102590008105910534F4982F872F762F6627636184
:1025A000AFCF21E069327105810591050CF420E07F
:1025B000F80121938F01EE16FF0629F6E881F981D3
:1025C0000088F189E02D26E030E04AE050E060E04C
:1025D000CE010995683171058105910534F4982F74
:1025E000872F762F662764618BCF70E060E088CFFD
:1025F0000E94FD1FFC01808191810C94E71F1F92B6
:102600000F920FB60F9211242F933F934F935F9326
:102610006F937F938F939F93AF93BF93EF93FF93AA
:102620008091B900887F803609F44AC0F0F588327D
:1026300009F4A7C018F5803109F49BC0B8F48823C9
:1026400009F4F9C0883009F494C0FF91EF91BF916B
:10265000AF919F918F917F916F915F914F913F913A
:102660002F910F900FBE0F901F901895883109F48D
:1026700088C0803251F78093CE0414C0803409F4AE
:102680009DC040F48033B9F38833F9F68093CE04CB
:1026900085ECB0C0803509F485C0883509F496C052
:1026A000883499F60E940D12D0CF883909F48CC075
:1026B00038F5883729F050F4883611F0803729F63C
:1026C00083E08093F0041092730457C0883809F4B3
:1026D0007BC0803919F0803809F0B7CF809173043E
:1026E000803208F071C0E091730481E08E0F809316
:1026F00073048091BB00F0E0ED5AFB4F80833DC036
:10270000803B39F0E0F4803A09F479C0883A09F066
:102710009CCF84E08093F0041092520410925104F4
:10272000E0917404F0917504099580915104811130
:102730000FC081E0809351041092310409C0803CA5
:1027400009F4A6CF883C09F4A3CF883B09F07DCFDC
:10275000E091520481E08E0F80935204F0E0EF5C30
:10276000FB4F80818093BB00909152048091510473
:1027700029C08091CB048093BB0085EC8093BC0082
:1027800064CF9091CD048091CC04981758F5E091D6
:10279000CD0481E08E0F8093CD04F0E0E655FB4F31
:1027A0008081E9CFE091CD0481E08E0F8093CD044C
:1027B0008091BB00F0E0E655FB4F80839091CD0403
:1027C0008091CC049817C8F285E8D8CFE091CD0469
:1027D00081E08E0F8093CD048091BB00F0E0E65540
:1027E000FB4F80838091CF0481115CCF81E0809387
:1027F000CA0484EA8093BC001092F00426CF85ECD2
:102800008093BC001092F00480917304803230F405
:10281000E0917304F0E0ED5AFB4F10826091730475
:1028200070E0E0917604F091770483E594E00995F7
:10283000109273040ACF1092CE0434CF1F920F92DD
:102840000FB60F9211242F933F934F935F936F9383
:102850007F938F939F93AF93BF93EF93FF9386EFF5
:1028600094E00E94CD04FF91EF91BF91AF919F91B1
:102870008F917F916F915F914F913F912F910F9029
:102880000FBE0F901F9018951F920F920FB60F92C8
:1028900011242F938F939F93EF93FF93E09106055D
:1028A000F09107058081E0910C05F0910D0582FD06
:1028B0001BC0908180910F058F5F8F732091100551
:1028C000821741F0E0910F05F0E0EA50FB4F958F41
:1028D00080930F05FF91EF919F918F912F910F9012
:1028E0000FBE0F901F9018958081F4CF1F920F920A
:1028F0000FB60F9211242F933F938F939F93AF9313
:10290000BF938091A3029091A402A091A502B091DF
:10291000A6023091A20223E0230F2D3758F501962D
:10292000A11DB11D2093A2028093A3029093A40243
:10293000A093A502B093A6028091A7029091A8024D
:10294000A091A902B091AA020196A11DB11D809388
:10295000A7029093A802A093A902B093AA02BF91E4
:10296000AF919F918F913F912F910F900FBE0F903C
:102970001F90189526E8230F0296A11DB11DD2CFF6
:10298000EAE7F4E01382128288EE93E0A0E0B0E080
:1029900084839583A683B7838DED91E091838083B3
:1029A0000895EFE9F5E08FEF80831282118214869B
:1029B00013868FEF9FEFDC0187839087A187B28713
:1029C0000895E6EFF4E01382128288EE93E0A0E02F
:1029D000B0E084839583A683B7838DE491E09183EF
:1029E000808385EC90E09587848784EC90E09787DE
:1029F000868780EC90E0918B808B81EC90E0938BCC
:102A0000828B82EC90E0958B848B86EC90E0978BA8
:102A1000868B118E128E138E148E0895CF93DF93B2
:102A2000C8ECD2E085E191E09983888380E291EA65
:102A3000A7E0B0E08A839B83AC83BD838FEF9FEFD9
:102A40009F838E83188689878A8762E070E0CE0133
:102A50000E947D0481E391E099838883DF91CF9187
:102A600008950E94C0140E94D1140E94E1140C9495
:102A70000E15CF93DF93CDB7DEB7AE970FB6F894B0
:102A8000DEBF0FBECDBF0E94C40661E08DE00E9494
:102A90002B0661E08CE00E942B0661E08BE00E9437
:102AA0002B06E0910605F091070512E01083E091F6
:102AB0000205F09103051082E0910405F0910505EF
:102AC0008FEC808310920E05E0910A05F0910B05C2
:102AD00086E08083E0910805F0910905808180619E
:102AE0008083E0910805F0910905808188608083EA
:102AF000E0910805F0910905808180688083E0916C
:102B00000805F091090580818F7D808310927904FA
:102B10001092780410928704109289040E94EC05A8
:102B20000E94E1010E94D90160E08EE00E94F0085D
:102B30000E94430F29833A834B835C838F838FE109
:102B40008D831E8362E0CE0101960E943B1061E0FE
:102B5000CE0101960E943B101DA61886BE01685F3B
:102B60007F4F8FE00E9426106885862F837021F0AA
:102B70006C7F8FE00E94F0088DA5882369F0BE016C
:102B8000635D7F4F8EE00E942610882329F06DA59B
:102B90006F778EE00E94F0088091BE02811145C0DF
:102BA0001092B0021092AF028FEF8093B302809325
:102BB000B4028093B5028093B6028093B7028093EB
:102BC000B80281E08093B9021092BB021092BA025F
:102BD0001092B2021092B1028091990590919A05DB
:102BE000892B31F48DEA92E090939A0580939905B0
:102BF000E091AB02F091AC02309721F08DEA92E0C7
:102C0000958384838DEA92E09093AC028093AB022B
:102C10001092BD021092BC028FE691E09093AE023A
:102C20008093AD0281E08093BE02E091AD02F0910D
:102C3000AE020480F581E02D8DEA92E0099584EEE4
:102C400092E09093B0028093AF0281E090E0909385
:102C5000BB028093BA02E091AD02F091AE02028411
:102C6000F385E02D8DEA92E00995009701F19C0132
:102C700050E040E060E472E48FE090E00E94E220E7
:102C80008091A2059091A305A091A405B091A505FE
:102C900082179307A407B50710F4DA01C9018093DE
:102CA000A2059093A305A093A405B093A5058EE17A
:102CB00080939F051092E4021092E5021092E602C2
:102CC0000E9484090E94B80E2E012BE2420E511C74
:102CD000CC24CA94DD24D39480911001882331F050
:102CE00081EA90E00E94BC0E109210010E94E40F55
:102CF0000E9478090091D3021091D4022091D5024C
:102D00003091D602061717072807390708F074C054
:102D100030E020E046EC52E067EC72E088EC92E0B4
:102D20000E9417048091C7028CA38091C6028DA3D4
:102D30000E94430F2D8F3E8F4F8F58A369A37AA314
:102D40008BA34EA30E94430F2E8B3F8B488F598F2E
:102D50006A8F7B8F8C8F3FA30E94430F2F87388B06
:102D6000498B5A8B6B8B7C8B8D8B88A70E94430F72
:102D7000288739874A875B876C877D878E8779A705
:102D80000E94430F29833A834B835C836D837E8348
:102D90008F836AA70091E7021091E8027E0184E226
:102DA000E80EF11C1CA70BA7D701BD907D01C20145
:102DB0000E94FA12B81621F06B2DC8010E94EF1F75
:102DC0000F5F1F4F4E145F0469F78091E7029091E7
:102DD000E80207969093E8028093E7020E94780940
:102DE00060567444824F9F4F6093D3027093D40215
:102DF0008093D5029093D6020E94F10D0E94380E66
:102E00000E9437110E94C4101BA60E94780960938B
:102E10002C0470932D0480932E0490932F0486EF3E
:102E200094E00E94C1047C01892BB1F186EF94E00B
:102E30000E949F040E940220182F8BA741E050E0BF
:102E4000B2018EE094E00E940A201F3709F589EF55
:102E500091E00E941C0F82EF91E00E941C0F89EF0D
:102E600091E00E941C0F8EE094E0FC010190002094
:102E7000E9F7CF018F50944059F0FC01E35FFB4F1D
:102E800020812F3729F41082845F9B4FDC011C9234
:102E90008BA50E94C301C3CF8BA58D3009F064C2FE
:102EA0008CEE91E00E941C0F0EE014E058014EE100
:102EB000942EF50101900020E9F7CF018F50944046
:102EC00098012E50344028173907C0F5D8018D904D
:102ED0008D01882D082C000C990B0E94C21E892B95
:102EE00081F480910C04E0910D049E9EF001112468
:102EF000E250FD4FE80FF11D80828F5F80930C043C
:102F0000D8CFF80132978081082E000C990B0E94CF
:102F1000C21E892B71F680910D04E0910C04989EDD
:102F20009001112422503D4FE20FF32FF11D10822A
:102F30008F5F80930D0410920C04BBCF20EF822E84
:102F400022E0922E3EEF632E32E0732E83011EA606
:102F5000212C312C9DE7A92E91E0B92EF80190810A
:102F6000D5018C9198136EC0218111968C91119787
:102F7000281368C001900020E9F73197E01BF10B9E
:102F800012962C911297022E000C330BE217F307C6
:102F900009F058C013968C91F40180832FEF2183A0
:102FA00084E0A80EB11C99EDA91691E0B906B1F61E
:102FB0003394AFEF8A1A9A0A025E1F4FB9E03B12B0
:102FC000C9CFEEE0F4E08EE1DF011D928A95E9F7CA
:102FD00080912C0490912D04A0912E04B0912F0487
:102FE0004091FA025091FB026091FC027091FD0247
:102FF000841B950BA60BB70B853F9140A105B1052E
:1030000008F48CC11092F902E091F002E150E33132
:1030100008F082C1F0E0E15FF74E0C9401215819ED
:103020008C198C198C1980198C198C193C1B001A5D
:103030008C19231BBF1A8C198C198C19DF1BB51C1A
:103040002F1C621C8091F002292F092E000C330BDB
:10305000205331092A303105E8F1823109F0A0CF3F
:103060009D3209F09DCFD80111968C91082E000C4D
:10307000990BC0970A9708F093CF91E0391261C07D
:1030800050E040E070E060E0C8010E948A1D6115D8
:103090007048810591050CF084C050E040E070E07C
:1030A00060E0C8010E948A1D613070488F4F9F4FB9
:1030B0000CF477C050E040E070E060E0C8010E948E
:1030C0008A1D7093F1026093F2029EA5992309F480
:1030D00065C060C0883001F58091F102843009F04C
:1030E00067C02DE0F401208350E040E070E060E034
:1030F000C8010E948A1D9B01AB01BC01411551050D
:1031000081E06807710508F04BCF5093F3022093DC
:10311000F402C092F50244CF823109F4AECF83317C
:1031200009F03ECFADE0A093F102C8010E94A11EBC
:103130008F3F910509F0CCF5F40181832FEF2283B5
:103140002FCFE2E03E122DC050E040E070E060E0A2
:10315000C8010E948A1D61157048810591050CF512
:1031600050E040E070E060E0C8010E948A1D6130DC
:1031700070488F4F9F4FACF050E040E070E060E04F
:10318000C8010E948A1D7093F3026093F40222200A
:1031900009F48BC0C092F50281E08EA7222423940B
:1031A000FFCE222009F4FCCE90CFC092F002F8CEE0
:1031B0008F3009F0F5CE82E0381215C0C8010E94A8
:1031C000A11E9C01215031092C30310548F4809317
:1031D0000301809103018093F202C092F802E0CED5
:1031E000C092F002F6CF93E0391213C0C8010E94DA
:1031F000A11E9C01215031092F31310538F48093F3
:103200000201809102018093F302E7CFC092F002A5
:10321000F8CFA4E03A1210C0C8010E94A11E843663
:10322000910538F48093DA028091DA028093F402F7
:10323000D4CFC092F002F8CFB5E03B1210C0C80165
:103240000E94A11E8831910538F48093D9028091A3
:10325000D9028093F502C1CFC092F002F8CFE6E028
:103260003E1210C0C8010E94A11E8C33910538F493
:103270008093D8028091D8028093F602AECFC0929C
:10328000F002F8CFF7E03F12A8CFC8010E94A11EBC
:103290008C33910538F48093D7028091D7028093C4
:1032A000F7029BCFC092F002F8CF21E02EA778CE94
:1032B0008091F102833089F08430C9F0823061F569
:1032C0008091F2028F3F41F51092EF02D092DB0223
:1032D00061E08DE00E94A00521C08091F2028F3F45
:1032E000D9F41092EF021092DB0260E0F2CF8091ED
:1032F000F2028F3F89F4D092EF020E94380E0EC086
:103300008091F102863009F44BC0D8F5833009F47E
:103310005FC0843009F468C00E94C80E80912C04FC
:1033200090912D04A0912E04B0912F048093FA0265
:103330009093FB02A093FC02B093FD028AE09301FC
:10334000215E3F4FF3011192E217F307E1F781503D
:103350002EE1620E711C8111F2CFE0EFF2E089E004
:10336000DF011D928A95E9F780E090E0892B09F44E
:10337000B3CC0E945C05882309F4AECC0E94000007
:10338000ABCC8730C9F08E3039F68091F2028F3F96
:1033900019F61092ED02D092EE020E94C410BECF38
:1033A0008091F2028F3F09F0B7CF1092EE02109297
:1033B000ED020E94B510B2CF8091F2028F3F09F06A
:1033C000ABCF1092EE021092ED020E94A610A6CF93
:1033D0008091F2028F3F09F09FCF1092EE0210927F
:1033E000ED020E9499109ACF8091F2028F3F09F06E
:1033F00093CF1092EE02D092ED020E9437118ECF41
:103400008091F1028A3009F087CF8091F2028F3FDC
:1034100009F082CF84E391E00E94A2018091EF0243
:10342000882309F452C08BE291E00E94BC0E8DE12A
:1034300091E00E94A2019091ED028091EE02992309
:1034400009F450C081116DC083E191E00E94A20196
:1034500080910501823509F042C08FE091E00E9421
:10346000BC0E8091EA02882309F463C089E092E0EF
:103470000E941C0F80910E0190910F010E942A0F53
:1034800080E20E94C30180910C0190910D010E9485
:103490002A0F80E20E94C30180910A0190910B01E2
:1034A0000E942A0F89E20E94CC0E8AE292E00E94DA
:1034B0001C0F6091060170910701809108019091A5
:1034C00009014AE00E94D80EBBC08091DB0288232C
:1034D00019F088E291E0A9CF84E291E0A6CF89E0DB
:1034E00091E0BDCF81111DC080910501823551F45D
:1034F00080910401823519F485E091E0B0CF81E03C
:1035000091E0ADCF873451F480910401873419F4F0
:103510008BEF90E0A4CF87EF90E0A1CF83EF90E016
:103520009ECF882309F49DCF8DEF91E00E941E0F5E
:1035300098CF8AE192E00E941C0F8091E3028823D9
:10354000C9F081E292E00E941C0F80910E019091DF
:103550000F010E942A0F81EF91E00E941C0F8091C1
:103560000C0190910D010E942A0F81EF91E00E94C1
:103570001C0F92CF86E292E00E941E0F96CF8091A0
:10358000F1028F3F09F0C8CE8EE992E00E94BC0E96
:1035900085E992E00E94BC0E8BE892E00E94BC0E8E
:1035A0008FE792E00E94BC0E83E792E00E94BC0E7F
:1035B00089E692E00E94BC0E8FE592E00E94BC0E6C
:1035C00083E592E00E94BC0E83E492E00E94BC0E70
:1035D0008EE292E00E94BC0E80E292E00E94BC0E5D
:1035E00081E192E00E94BC0E88ED91E00E94BC0E49
:1035F00089EC91E00E94BC0E8AEB91E00E94BC0E27
:103600008AEA91E00E94BC0E80E991E00E94BC0E23
:1036100085E791E00E94BC0E8CE691E00E94BC0E12
:1036200082E691E00E94BC0E86E591E00E94BC0E0D
:103630008CE491E00E94BC0E85E491E00E94BC0EF7
:103640000E94B80E6BCE8091F1028F3F09F064CEDC
:103650008BE391E00E94A20181E00E94300F8EE294
:103660000E94C30180E00E94300F8EE20E94C301DD
:1036700081E00E94370F52CE8091F102843009F42C
:1036800073C08F3009F048CE8091F8028F3F09F067
:1036900043CE8091F2028093E1028091F302809305
:1036A000E0028091F4028093E2028091F50280931F
:1036B000DE028091F6028093DD028091F702809312
:1036C000DC02D092860488E68093880410928704F6
:1036D0001092890490E080E00E94CE018091DC028B
:1036E0000E949602682F8AE794E00E946702809108
:1036F000DD020E949602682F8AE794E00E9467022A
:103700008091DE020E949602682F8AE794E00E9470
:1037100067028091DF02811101C081E00E94960260
:10372000682F8AE794E00E9467028091E0020E947D
:103730009602682F8AE794E00E9467028091E10276
:103740000E949602682F8AE794E00E9467028091A7
:10375000E2020E949602682F8AE794E00E946702C4
:1037600081E00E94E208DACD8091F2028D3009F00A
:10377000D3CD8091F5028F3F09F0CECD8091ED023F
:103780008111D092EC028091EF028111D092EB0274
:103790008091EA028111D092E9028091F302909126
:1037A000F402982789279827B0E0A0E080930601CB
:1037B00090930701A0930801B0930901AFCD8091C8
:1037C000F1028F3069F0813109F0A6CD8091F202CB
:1037D0008F3F09F0A1CDD092F9020E94E40F9ECD57
:1037E0008091F2028F3F09F097CD0E94430F209302
:1037F000DC023093DD024093DE025093DF026093DF
:10380000E0027093E1028093E202872F0E94300F62
:103810008FE20E94C3018091E0020E94300F8FE28C
:103820000E94C3018091E2020E94300F80E20E9458
:10383000C3018091DE020E94300F8AE30E94C3011F
:103840008091DD020E94300F8AE30E94C3018091C3
:10385000DC020E94300F8AE00E94CC0E5FCD809186
:10386000F5028F3F09F058CD8090F1029090F2025E
:10387000982489249824092C000CAA08BB0860917C
:10388000F3027091F402762767277627072E000C43
:10389000880B990B860E971EA81EB91E84E492E031
:1038A0000E941C0F4AE0C501B401B7FE0BCE8DE2A9
:1038B0000E94C30166277727CB01681979098A0915
:1038C0009B09FFCD8091F1028330D9F168F48230F9
:1038D00009F022CD8091F2028F3F09F01DCD1092A8
:1038E000EA020E94E10D1ACD8430A9F18D3009F071
:1038F00013CD8091F5028F3F09F00ECD2091F20299
:10390000822F90E090930F0180930E019091F3022B
:10391000492F50E050930D0140930C018091F40227
:10392000482F50E050930B0140930A012093E50289
:103930009093E4028093E602D092E3020E9484090D
:10394000EDCC8091F2028F3F09F0E6CC1092EA02B2
:103950000E94D80DE3CC8091F2028F3F09F0DCCCBD
:10396000D092EA020E94F10DD9CC8091F10284310B
:1039700009F441C0853109F0CFCC8091F202863143
:1039800009F0CACC8091F3028F3F09F0C5CC312CED
:1039900008EE13E087E0882E912CA32CB12C8091A7
:1039A000E7029091E802B4010E94CE20A616B70665
:1039B0000CF099C0BDA2ACA2CE0184960E94FA126E
:1039C0008E151F0439F034F0CE0184960E94FA124D
:1039D000E82EF12CBDA2ACA2CE0184960E94FA1270
:1039E0008017110634F4CE0184960E94FA12082F33
:1039F00010E03394D2CF8091F2028F3F09F08CCC4B
:103A00008091E7029091E802E816F9060CF086CC66
:103A10008DE492E00E941C0FFDA2ECA2CE018496E0
:103A20000E94FA120E94300F84E592E00E941C0F5F
:103A300089E592E00E941C0FC70101969DA38CA30B
:103A4000CE0184960E94FA120E94300F84EF91E01A
:103A50000E941E0F84E692E00E941C0FC70105968B
:103A60009DA38CA3CE0184960E94FA120E94300F6F
:103A70008FE20E94C301C70106969DA38CA3CE01CD
:103A800084960E94FA120E94300F8FE20E94C301B6
:103A9000C70104969DA38CA3CE0184960E94FA12BE
:103AA0000E94370F89E692E00E941C0FC701029620
:103AB0009DA38CA3CE0184960E94FA120E94300F1F
:103AC0008AE30E94C301C70103969DA38CA3CE0184
:103AD00084960E94FA120E94370F0E94B80EF7E0F7
:103AE000EF0EF11C8DCF8EE692E00E941C0FC701F5
:103AF0000E94B60F84E592E00E941E0F8DE792E0CF
:103B00000E941C0FC8010E94B60F84E592E00E943B
:103B10001E0F04CCB0E0A0E0E0E9FDE10C94A21F90
:103B20005C016B017A016115710519F0FB0191834C
:103B30008083E114F10451F0C7010297839730F0BC
:103B400040E030E020E090E072C05E01E5012196A7
:103B5000F5011081812F90E00E94C21E892BA9F7E8
:103B60001D3201F52196F501118101E0E114F10406
:103B700009F4DAC0F0E1EF16F10409F082C0103365
:103B800059F488818F7D883509F076C01981229695
:103B90000260F0E1EF2EF12C812C912CA12C88E019
:103BA000B82E8CC01B3221F4E5012296F50111815B
:103BB00000E0DCCFEAE0EE16F10409F4BBC0F0E16E
:103BC000EF16F10409F06DC0E7CF78E0E72EF12C95
:103BD000812C912CA12C60E1B62E70C03FE9310FF1
:103BE0003A3128F439EA332E80C021E09AC0302FD0
:103BF0003170C114D10431F0222309F12197F6016B
:103C0000D183C08327FF21C060E070E080E090E8AE
:103C1000311104C06FEF7FEF8FEF9FE722E230E0BA
:103C20003093AD052093AC05462F372F282F642FF6
:103C3000732F822FCDB7DEB7E1E10C94BE1F01FFD9
:103C400004C02297F601D183C083332341F09095BD
:103C50008095709561957F4F8F4F9F4FE5CF97FF70
:103C6000E3CF82E290E09093AD058093AC056FEFD7
:103C70007FEF8FEF9FE7D8CF10E3E114F10409F451
:103C8000A4CF28E0E216F10409F4A2CF0CF092CF01
:103C9000812C912CA12CE0E4BE2E82E0E816F104E8
:103CA00069F060E070E080E090E897010F2C000C74
:103CB000440B550B0E94741F49015A0120E060E03B
:103CC00070E0CB0127010F2C000C66087708FE017D
:103CD00050ED352E310E39E0331540F43FEB310F06
:103CE0003A3108F07BCF49EC342E310E3E141F04DC
:103CF0000CF07DCF27FD15C086169706A806B906DD
:103D000078F0A30192010E94641F630D711D811D53
:103D1000911D61307105810520E8920708F465CF97
:103D20002FEF21961081D3CF103309F42ACF2AE048
:103D3000E22EF12C9CEC892E982CA82C9CE0B92E1C
:103D4000BDCFFC0188279927E89421912032E9F31F
:103D5000293010F02E30C8F32B3241F02D3239F4D7
:103D6000689404C00E94CB1E820F911D21912053A4
:103D70002A30C0F31EF4909581959F4F0895F894D2
:103D80000C94222191110C94D31E803219F0895089
:103D90008550C8F708957AE0979F902D879F802DD2
:103DA000910D11240895992788270895E89409C052
:103DB00097FB3EF490958095709561957F4F8F4F5E
:103DC0009F4F9923A9F0F92F96E9BB279395F69574
:103DD000879577956795B795F111F8CFFAF4BB0FF2
:103DE00011F460FF1BC06F5F7F4F8F4F9F4F16C056
:103DF000882311F096E911C0772321F09EE8872FE0
:103E0000762F05C0662371F096E8862F70E060E09B
:103E10002AF09A95660F771F881FDAF7880F969514
:103E2000879597F9089597F99F6780E870E060E0BB
:103E300008959FEF80EC089500240A941616170643
:103E400018060906089500240A941216130614068B
:103E500005060895092E0394000C11F4882352F0EE
:103E6000BB0F40F4BF2B11F460FF04C06F5F7F4FA6
:103E70008F4F9F4F089557FD9058440F551F59F08D
:103E80005F3F71F04795880F97FB991F61F09F3F47
:103E900079F087950895121613061406551FF2CF70
:103EA0004695F1DF08C0161617061806991FF1CFC0
:103EB00086957105610508940895E894BB276627E7
:103EC0007727CB0197F90895DB018F939F930E9489
:103ED000961FBF91AF91A29F800D911DA39F900D42
:103EE000B29F900D11240895A1E21A2EAA1BBB1BAC
:103EF000FD010DC0AA1FBB1FEE1FFF1FA217B307B6
:103F0000E407F50720F0A21BB30BE40BF50B661FCB
:103F1000771F881F991F1A9469F76095709580958F
:103F200090959B01AC01BD01CF0108950E94D81F5F
:103F3000A59F900DB49F900DA49F800D911D1124FD
:103F400008952F923F924F925F926F927F928F923D
:103F50009F92AF92BF92CF92DF92EF92FF920F9318
:103F60001F93CF93DF93CDB7DEB7CA1BDB0B0FB622
:103F7000F894DEBF0FBECDBF09942A8839884888DF
:103F80005F846E847D848C849B84AA84B984C88475
:103F9000DF80EE80FD800C811B81AA81B981CE0F6C
:103FA000D11D0FB6F894DEBF0FBECDBFED01089551
:103FB000A29FB001B39FC001A39F700D811D11246A
:103FC000911DB29F700D811D1124911D0895F999C5
:103FD000FECF92BD81BDF89A992780B50895262F0E
:103FE000F999FECF1FBA92BD81BD20BD0FB6F894DE
:103FF000FA9AF99A0FBE0196089581E090E0F8943C
:104000000C9422219111089581568A5108F480520E
:1040100085580895FB01DC010D900020E9F7119708
:104020004150504028F0019000200D92C9F70895AA
:104030001C9208950E942E200C942A1F0E94231F78
:1040400058F00E941C1F40F029F45F3F29F00C94A7
:10405000131F51110C945E1F0C94191F0E943B1FDB
:1040600068F39923B1F3552391F3951B550BBB27A7
:10407000AA2762177307840738F09F5F5F4F220FEC
:10408000331F441FAA1FA9F335D00E2E3AF0E0E8E3
:1040900032D091505040E695001CCAF72BD0FE2F2D
:1040A00029D0660F771F881FBB1F261737074807C1
:1040B000AB07B0E809F0BB0B802DBF01FF27935879
:1040C0005F4F3AF09E3F510578F00C94131F0C940B
:1040D0005E1F5F3FE4F3983ED4F38695779567952E
:1040E000B795F7959F5FC9F7880F911D96958795AE
:1040F00097F90895E1E0660F771F881FBB1F6217CD
:1041000073078407BA0720F0621B730B840BBA0B8A
:10411000EE1F88F7E09508950E9493206894B111EE
:104120000C945E1F08950E94431F88F09F5798F0DB
:10413000B92F9927B751B0F0E1F0660F771F881FAC
:10414000991F1AF0BA95C9F714C0B13091F00E94C6
:104150005D1FB1E008950C945D1F672F782F8827AD
:10416000B85F39F0B93FCCF3869577956795B395ED
:10417000D9F73EF490958095709561957F4F8F4F5C
:104180009F4F0895991B79E004C0991F961708F076
:10419000961B881F7A95C9F78095089597FB072E7F
:1041A00016F4009407D077FD09D00E940E2107FC79
:1041B00005D03EF4909581959F4F08957095619537
:1041C0007F4F0895052E97FB1EF400940E94F9205E
:1041D00057FD07D00E94741F07FC03D04EF40C94C7
:1041E000F92050954095309521953F4F4F4F5F4FA7
:1041F000089590958095709561957F4F8F4F9F4F53
:104200000895EE0FFF1F0590F491E02D09940E9490
:10421000D81FB7FF0895821B930B0895AA1BBB1BE1
:1042200051E107C0AA1FBB1FA617B70710F0A61BB6
:10423000B70B881F991F5A95A9F780959095BC01D7
:08424000CD010895F894FFCFB1
:10424800BB7701014F52F4010000FF00FF00FF009F
:1042580001000000007D0472041704F403F812F84A
:1042680012F003EC031C09DC03F8127803000000C9
:10427800007D0472041704F403CC02A902F003ECD5
:10428800031C09DC034512780300000000EF0470EA
:104298000590043C05C1049F04B30400000000F825
:1042A80012F812F812840E800E7D0E0000000095A0
:1042B8000D390D370D840E800E340DD30A443103A9
:1042C800014F4E02024F460303424C05044C45037E
:1042D800054752050652450307534503085354063C
:1042E800094C45040A5645070B4845040C574F042A
:1042F8000D414C090E5449040F4355071054450409
:10430800114144031252470313484907144849040A
:10431800154C4F0316454F03FF0000000067023A93
:10432800029D0510023302200211020D0A00202A04
:10433800432C200020524825001B5B4400414C546C
:1043480045524E4154494E47003E20524742204272
:104358004C494E4B494E472028003E2052474220A8
:10436800004F4E2028004F4646003E20424C494E02
:104378004B20494E54455256414C205345542054E5
:104388004F3A2000455155414C533A200054656D31
:10439800703A2000202A43200048756D69646974CA
:1043A800793A20004F6E3A200041743A200048497B
:1043B80047484553542054454D503A20004C4F57D8
:0C43C8004553542054454D503A2000004D
:00000001FF
