:100000000C942A020C9452020C9452020C94520248
:100010000C9452020C9452020C9452020C94520210
:100020000C9452020C9452020C9452020C94520200
:100030000C9452020C9452020C9452020C945202F0
:100040000C9421340C9452020C94EF330C94C93369
:100050000C9452020C9452020C9452020C945202D0
:100060000C94AA320C9452022A494E56414C4944EF
:1000700020434F4D4D414E44002A494E56414C4974
:100080004420434F4D4D414E44002052482520000E
:10009000202A4320002052482500202A462C2000F8
:1000A000202A432C2000205248250048756D6964A1
:1000B0003A2000202A43200054656D703A20002029
:1000C0003C204572617365203E2054656D7020545C
:1000D00068726573686F6C647300205E2049502FEE
:1000E0005375626E65742F47617465776179003E60
:1000F0003D003C3D00596573282D3E29204E6F2858
:10010000486F6D65290041726520596F75205375E0
:1001100072653F00202A5041434B455420524543CD
:100120004549564544004D616A6F72204F766572AD
:10013000004D696E6F72204F76657200436F6D6679
:100140006F727461626C65004D696E6F7220556EDE
:10015000646572004D616A6F7220556E646572004D
:100160003E20424C494E4B20494E54455256414C3C
:100170002053455420544F3A20004F4646003E201D
:1001800052474220003E2052474220003E20524724
:100190004220424C494E4B494E472028004F46468C
:1001A00020004F4646003E204C454420003E204C57
:1001B00045442000455155414C533A200045515586
:1001C000414C533A20002041743A20004F6E3A20AF
:1001D0000020524825200048756D69646974793A99
:1001E0002000202A43200054656D703A2000202A08
:1001F0004320004C4F574553542054454D503A200E
:1002000000202A432000484947484553542054457C
:100210004D503A2000202A4320004C4F574553545C
:100220002054454D503A2000202A43200048494799
:10023000484553542054454D503A20002A4E4F20F3
:1002400044415441205945540056657273696F6E9C
:100250003A20002D3E48454C50002D3E5645525305
:10026000494F4E002D3E52474220424C494E4B00D2
:100270002D3E524742204F4646002D3E52474220D7
:100280004F4E002D3E524742203C7265643E203C5A
:10029000677265656E3E203C626C75653E002D3E62
:1002A000414444203C6E756D626572313E203C6E67
:1002B000756D626572323E002D3E54454D502048AA
:1002C000494748204C4F57002D3E54454D5020483B
:1002D0004953544F5259002D3E43555252454E54A6
:1002E0002054454D50002D3E5345542054494D4512
:1002F000203C6D6F6E74683E203C6461793E203C0A
:10030000796561723E203C686F75723E203C6D6974
:100310006E7574653E203C7365636F6E643E002DA0
:100320003E43555252454E542054494D45002D3EB2
:10033000535441545553204C454453002D3E424C98
:10034000494E4B203C6E756D6265723E002D3E4CF1
:10035000454420414C5445524E415445002D3E4C9D
:10036000454420424C494E4B002D3E4C4544204FC5
:100370004646002D3E4C454420524544002D3E4CFF
:10038000454420475245454E0054686520617661DA
:10039000696C61626C6520636F6D6D616E64732062
:1003A0006172653A200000000008000201000003AD
:1003B000040700000000000000003E57656C636FFA
:1003C0006D6520746F2041726475696E6F20436F94
:1003D0006D6D616E64204C696E6520496E74657246
:1003E0007072657465722C20656E74657220274882
:1003F000454C502720666F72206C697374206F66BD
:1004000020636F6D6D616E6473210A00000000004F
:1004100023002600290000000000250028002B00F2
:1004200000000000240027002A0001020408102018
:100430004080010204081020010204081020040476
:10044000040404040404020202020202030303037C
:100450000303C13511241FBECFEFD8E0DEBFCDBFEF
:1004600012E0A0E0B1E0E8E9F4E702C005900D92E7
:10047000AA39B107D9F726E0AAE9B2E001C01D9276
:10048000A83EB207E1F712E0CAE2D2E004C0219729
:10049000FE010E94293AC932D107C9F70E94D93515
:1004A0000C9422370C94000080E480937C008091AF
:1004B0007A00806480937A0080917A0086FDFCCF78
:1004C000809178009091790008958CBD9DBD08952C
:1004D000E091B605F091B7050190F081E02D682F0D
:1004E00086EB95E009949C0190E0F901E90FF11D7C
:1004F0008081811105C0DB018C9180831182089578
:100500009F5FF3CF80919F05811145C010929105A7
:10051000109290058FEF80939405809395058093BA
:10052000960580939705809398058093990581E0BF
:1005300080939A0510929C0510929B05109293054A
:10054000109292058091D5069091D606892B31F4B0
:100550008EE895E09093D6068093D506E0918005CD
:10056000F0918105309721F08EE895E095838483A2
:100570008EE895E0909381058093800510929E050A
:1005800010929D058FE392E090938F0580938E05E6
:1005900081E080939F05E0918E05F0918F050480A6
:1005A000F581E02D8EE895E0099582E895E090933D
:1005B00091058093900584E090E090939C05809352
:1005C0009B05E0918E05F0918F050284F385E02D67
:1005D0008EE895E00995009701F19C0150E040E01C
:1005E00060E472E48FE090E00E9455388091DE066E
:1005F0009091DF06A091E006B091E1068217930783
:10060000A407B50710F4DA01C9018093DE069093C0
:10061000DF06A093E006B093E1068EE895E008952A
:1006200087E193E090937F0580937E050895089578
:100630008FE193E090937D0580937C050895089564
:1006400020912F05260F3327331F21323105ECF47B
:1006500020912C06FC0190E080E0243069F082E0DB
:100660000895A0912F052191AC01415F5A4FA40F2D
:10067000B52FB11D2C930196861798F380912F0505
:10068000680F60932F0580E0089581E00895089534
:10069000E091B5058091B405E81730F4F0E0E45F2F
:1006A000F94F808190E008958FEF9FEF089590912A
:1006B000B5058091B4052FEF3FEF981748F4E92F67
:1006C000F0E0E45FF94F208130E09F5F9093B50543
:1006D000C90108958091B4059091B505891B990BC6
:1006E0000895CF92DF92EF92FF920F931F93CF93D3
:1006F000DF937C01CB018A012091C205222389F07E
:10070000EB016B01C40ED51ECC15DD0569F06991B6
:10071000D701ED91FC910190F081E02DC701099581
:10072000F3CF642F0E942003C801DF91CF911F9166
:100730000F91FF90EF90DF90CF900895CF93DF93CC
:100740001F92CDB7DEB769832091C2052223F9F04D
:100750002091C505203258F021E030E0FC013383C0
:10076000228390E080E00F90DF91CF9108958091F7
:10077000C305E82FF0E0EA53FA4F998190838F5F29
:100780008093C3058093C50581E090E0ECCF61E0E4
:10079000CE0101960E942003F7CFFC0120812EBDDF
:1007A0009B012150310941F051810DB407FEFDCF6D
:1007B0004EB55EBD4193F5CF61507109860F971F0D
:1007C0000DB407FEFDCF2EB5FC0120830895E09106
:1007D000FF04F091000580819091FE04892B8083B5
:1007E0000895E091FF04F091000590818091FE044E
:1007F00080958923808308958EBD00000DB407FE87
:10080000FDCF8EB50895AF92BF92CF92DF92EF9257
:10081000FF920F931F93CF93DF93CDB7DEB7289747
:100820000FB6F894DEBF0FBECDBF8C017B016A010D
:10083000809174058333E1F45801A40EB51EA0160F
:10084000B10609F46FC00E94F10380EF0E94FC031F
:10085000812F0E94FC03802F0E94FC030F5F1F4F1B
:10086000F70181917F010E94FC030E94E703E7CF1B
:100870005B01A40EB51E8433C1F40E94F1031983F9
:100880000A838D2D80688B83CC8264E070E0CE017A
:1008900001960E94CD03AE14BF0409F441C0F701D4
:1008A00081917F010E94FC03F6CF0E94F1030F3F6C
:1008B000110509F028F419820A8384E08B830CC0A7
:1008C00017FD17C019820A8333E0169507953A95EC
:1008D000E1F7007E0C600B8386E0C816D104A0F51A
:1008E000F701DE011496EA15FB0599F081918D93CD
:1008F000FACFC80126E0969587952A95E1F7807E84
:1009000019830A830115104C10F48461D7CF8C61D0
:10091000D5CFB6016D5F7F4FCE0101960E94CD030A
:100920000E94E703C60128960FB6F894DEBF0FBEFB
:10093000CDBFDF91CF911F910F91FF90EF90DF908E
:10094000CF90BF90AF90089563E070E0CE01019624
:100950000E94CD03F70181917F010E94FC03AE1438
:10096000BF04C1F7DDCFCF93DF931F92CDB7DEB7C2
:10097000898341E050E0BE016F5F7F4F90E080E0EF
:100980000E9403040F90DF91CF91089590E0209191
:100990007405233339F40C96982F990F990F990FFA
:1009A00080E008954896F8CFDA01E091B305F0E0D1
:1009B000FE2FEE27E60FF71F90E0982F8827A9015A
:1009C000BD018E0F9F1F0C940304CF93DF9300D0C3
:1009D000CDB7DEB779836A8322E030E0AE014F5FA6
:1009E0005F4F64E070E00E94D4040F900F90DF919D
:1009F000CF910895CF93DF931F92CDB7DEB72091AB
:100A0000B30530E0322F2227260F371F90E0982FB2
:100A10008827498341E050E0BE016F5F7F4F820F1E
:100A2000931F0E9403040F90DF91CF910895CF92FE
:100A3000DF92EF92FF920F931F93CF93DF93EC011E
:100A40007A016901E881F9810190F081E02D099531
:100A5000E881F9810084F185E02D9801A601B701B4
:100A6000CE01DF91CF911F910F91FF90EF90DF901A
:100A7000CF9009946F927F928F929F92AF92BF9284
:100A8000CF92DF92EF92FF920F931F93CF93DF935A
:100A9000CDB7DEB7AC970FB6F894DEBF0FBECDBFB3
:100AA000DC011696ED91FC91319609F48BC0590149
:100AB0003A016B018C01FE0131964F0188E2DF01A2
:100AC0001D928A95E9F7D801ED91FC910488F5898A
:100AD000E02DB401C80109957C01892B09F05CC0A7
:100AE0001AA619A61CA61BA6D801ED91FC91068892
:100AF000F789E02D9E01255D3F4FAE01475D5F4FB9
:100B0000B401C80109957C01892B09F045C0A114E5
:100B1000B10439F088E2F401D50101900D928A9573
:100B2000E1F7C114D10409F189A59AA521E030E0CB
:100B300097FF02C02FEF3FEF9F77829FB001839F07
:100B4000700D929F700D1124072E000C880B990BCD
:100B50000E94353720E030E040E251E40E944739FE
:100B6000F601608371838283938361147104A1F021
:100B70006BA57CA5072E000C880B990B0E943537BE
:100B800020E030E040E251E40E944739D3016D9308
:100B90007D938D939C931397C701AC960FB6F894F1
:100BA000DEBF0FBECDBFDF91CF911F910F91FF90A0
:100BB000EF90DF90CF90BF90AF909F908F907F90FD
:100BC0006F90089587E1E82EF12CE6CF8F929F92E7
:100BD000AF92BF92CF92DF92EF92FF920F931F934B
:100BE000CF93DF93EC018B016A017901E881F981F0
:100BF0000288F389E02D0995B82EB801685F7F4F10
:100C0000E881F9810288F389E02DCE010995982EBB
:100C1000B801605F7F4FE881F9810288F389E02D98
:100C2000CE010995A82EB801685E7F4FE881F98151
:100C30000288F389E02DCE010995882EB801605E07
:100C40007F4FE881F9810288F389E02DCE01099573
:100C50009B2D990D9A0D980D891319C09A2D882DE9
:100C6000F601918380839B2D892DF70191838083E9
:100C700090E080E0DF91CF911F910F91FF90EF9076
:100C8000DF90CF90BF90AF909F908F90089585E1B7
:100C900090E0F0CF47E050E080E0FB012191BF0100
:100CA000042E01C0220F0A94EAF7820F4150510925
:100CB000A0F70895FC01828590E00895FC018185EC
:100CC00090E00895CF92DF92EF92FF920F931F93DF
:100CD000CF93DF93EC017A016901E881F9810190FA
:100CE000F081E02D0995E881F9810480F581E02DFE
:100CF0009801A601B701CE01DF91CF911F910F910D
:100D0000FF90EF90DF90CF900994CF92DF92EF9217
:100D1000FF920F931F93CF93DF93CDB7DEB7289742
:100D20000FB6F894DEBF0FBECDBFDC011696ED9175
:100D3000FC91319609F440C08A017B0119821A8224
:100D40001B821C821D821E821F821886DC01ED918F
:100D5000FC910084F185E02DAE014B5F5F4FBE0139
:100D60006F5F7F4F09956C01892BB1F4E114F10499
:100D700041F069817A818B819C810E94B939F701A8
:100D800060830115110541F06D817E818F81988509
:100D90000E94B939D8016C93C60128960FB6F89411
:100DA000DEBF0FBECDBFDF91CF911F910F91FF909E
:100DB000EF90DF90CF90089587E1C82ED12CECCF33
:100DC000262F2D7F29F4FC01608790E080E00895B4
:100DD00088E190E00895DC0117967C936E93169756
:100DE000FB01E65DFB4FE4911996EC931997625C69
:100DF0007B4FFB0164911A966C9308956AE00E9400
:100E0000093A292F30E1839FC0011124822B0895D4
:100E1000982F92959F708F702AE0929F800D1124D9
:100E200008950895CF93DF931F92CDB7DEB76983FE
:100E3000DC01ED91FC910280F381E02D41E050E076
:100E4000BE016F5F7F4F09950F90DF91CF9108959D
:100E5000DF92EF92FF920F931F93CF93DF9300D017
:100E6000CDB7DEB7FB01DC0157961C921E92569758
:100E70002281211109C02381211106C02481211161
:100E800003C02581222369F14115510551F17A01F1
:100E90008F01FC01D08C80E591E00E946502A801E1
:100EA0004E5F5F4F24E030E06CE070E08D2D0E94DB
:100EB000D404F982EA8222E030E0AE014F5F5F4F56
:100EC00060E170E08D2D0E94D40481E090E00F90ED
:100ED0000F90DF91CF911F910F91FF90EF90DF90D6
:100EE000089580E0F3CFFC01818D928D0895FC017F
:100EF000848595850895FC0184899589089529E262
:100F000032E0FC0131832083FB01408951896289F1
:100F10007389FC0142835383648375830895FC01C4
:100F2000538D448D252F30E0842F90E0821B930B4E
:100F3000541710F0CF96089501970895FC01918DF4
:100F4000828D981761F0A28DAE0FBF2FB11D5D96F7
:100F50008C91928D9F5F9F73928F90E008958FEF99
:100F60009FEF0895FC01918D828D981731F0828D4D
:100F7000E80FF11D858D90E008958FEF9FEF0895A4
:100F8000FC01918D228D892F90E0805C9F4F821B08
:100F900091098F7399270895FC01A48DA80FB92F8B
:100FA000B11DA35ABF4F2C91848D90E001968F7391
:100FB0009927848FA689B7892C93A089B1898C91B0
:100FC000837080648C93938D848D981306C00288FF
:100FD000F389E02D80818F7D80830895EF92FF92C9
:100FE0000F931F93CF93DF93EC0181E0888F9B8D4C
:100FF0008C8D98131AC0E889F989808185FF15C006
:101000009FB7F894EE89FF896083E889F989808128
:101010008370806480839FBF81E090E0DF91CF91F7
:101020001F910F91FF90EF900895F62E0B8D10E019
:101030000F5F1F4F0F731127E02E8C8D8E110CC088
:101040000FB607FCFACFE889F989808185FFF5CFD3
:10105000CE010E94CC07F1CFEB8DEC0FFD2FF11DDF
:10106000E35AFF4FF0829FB7F8940B8FEA89FB8910
:1010700080818062CFCFCF93DF93EC01888D88236E
:10108000B9F0AA89BB89E889F9898C9185FD03C0EB
:10109000808186FD0DC00FB607FCF7CF8C9185FFD0
:1010A000F2CF808185FFEDCFCE010E94CC07E9CF42
:1010B000DF91CF91089582E396E00E94C00721E07E
:1010C000892B09F420E0822F089580E090E0892B9D
:1010D00029F00E945B0881110C9400000895DC0146
:1010E000ED91FC910190F081E02D0994EF92FF9237
:1010F0000F931F93CF93DF938C017B01D0E0C0E06F
:10110000F701EC0FFD1F6491662361F0D801ED91AA
:10111000FC910190F081E02DC8010995892B11F017
:101120002196EECFCE01DF91CF911F910F91FF90CD
:10113000EF900895AF92BF92CF92DF92EF92FF921D
:101140000F931F93CF93DF936C017B018B01040FEF
:10115000151FEB015E01AE18BF08C017D10759F08B
:101160006991D601ED91FC910190F081E02DC601CD
:101170000995892B79F7C501DF91CF911F910F91C7
:10118000FF90EF90DF90CF90BF90AF9008950895BB
:10119000089590E0FC01EA55FC4F2491FC01E65DC6
:1011A000FB4F3491FC01E25CFB4FE491EE23C9F06C
:1011B000222339F0233001F1A8F4213019F1223033
:1011C00029F1F0E0EE0FFF1FEA5EFB4FA591B4910D
:1011D0008FB7F894EC91611126C030953E233C9373
:1011E0008FBF08952730A9F02830C9F0243049F77F
:1011F000809180008F7D03C0809180008F778093E5
:101200008000DFCF84B58F7784BDDBCF84B58F7D41
:10121000FBCF8091B0008F778093B000D2CF8091C8
:10122000B0008F7DF9CF3E2BDACF10922C0681E0F3
:1012300080930B061092060661E082E10E94C908C5
:1012400061E083E10E94C908E9EBF0E080818E7FD4
:10125000808380818D7F808388E48093B80085E4DB
:101260008093BC0008951092B5051092B4051092B9
:10127000C3051092C5050E9415090E9418030C941D
:101280001003CF93DF9391E090930E058823B9F07C
:10129000C091B800D091BA008091BC008A7B809345
:1012A000BC0060E082E10E94C90860E083E10E9426
:1012B000C9080E941509D093BA00C093B800DF9105
:1012C000CF910895CF93DF9390E0FC01E65DFB4F53
:1012D0002491825C9B4FFC0184918823C9F090E0AB
:1012E000880F991FFC01E05EFB4FA591B491FC01B2
:1012F000EA5EFB4FC591D49161110DC09FB7F89480
:101300008C91209582238C938881282328839FBFEA
:10131000DF91CF910895623051F49FB7F8943C91DA
:10132000822F809583238C93E8812E2BEFCF8FB76C
:10133000F894EC912E2B2C938FBFEACF789484B540
:10134000826084BD84B5816084BD85B5826085BDC1
:1013500085B5816085BDEEE6F0E0808181608083A7
:10136000E1E8F0E01082808182608083808181608A
:101370008083E0E8F0E0808181608083E1EBF0E051
:10138000808184608083E0EBF0E0808181608083F5
:10139000EAE7F0E0808184608083808182608083DE
:1013A0008081816080838081806880831092C10009
:1013B00008958130910539F0880F991F880F991F82
:1013C00005970197F1F708953FB7F8948091B90414
:1013D0009091BA04A091BB04B091BC0426B5A89B1F
:1013E00005C02F3F19F00196A11DB11D3FBFBA2FB7
:1013F000A92F982F8827BC01CD01620F711D811D77
:10140000911D42E0660F771F881F991F4A95D1F7FB
:101410000895CF92DF92EF92FF920F931F93CF9395
:10142000C82F813208F096C00E94E4096B017C014C
:1014300080912C06811169C081E080932C068093F5
:101440000B069FEF90930A06109209069C0F90934B
:1014500008068093070680910706806D8093070633
:1014600080910606813009F077C0109206060E942E
:10147000E4096B017C01809107068093BB00809199
:101480002E0690912F06A0913006B0913106892B3F
:101490008A2B8B2BA1F00E94E40900912E0610915B
:1014A0002F0620913006309131066C197D098E0986
:1014B0009F09061717072807390708F447C08091C6
:1014C000BC0083FDD8CF85EC8093BC000E94E4096A
:1014D0006B017C0180912C06813009F43FC0809122
:1014E00009068C1710F4C0910906A6EEB5E0ECE0F1
:1014F000F6E080E08C1354C08C2FCF911F910F9198
:10150000FF90EF90DF90CF90089580912E069091FC
:101510002F06A0913006B0913106892B8A2B8B2B98
:1015200009F486CF0E94E40900912E0610912F063F
:1015300020913006309131066C197D098E099F0982
:10154000061717072807390708F072CF80912D0674
:101550000E944109C0E0D0CF85EEB6CF80912E0623
:1015600090912F06A0913006B0913106892B8A2BDD
:101570008B2B09F4AFCF0E94E40900912E06109145
:101580002F0620913006309131066C197D098E09A5
:101590009F09061717072807390708F09BCFD6CFF2
:1015A0009D9191938F5FA6CF8F929F92AF92BF92A2
:1015B000CF92DF92EF92FF920F931F93CF93DF931F
:1015C000613208F0D1C0142FD62FC82F0E94E40931
:1015D0006B017C0180912C0681116BC082E08093AD
:1015E0002C0610930B068FEF80930A0610920906C3
:1015F000D0930806A6ECB5E0E6EEF5E080E0D8135F
:101600008BC01092070680910706CC0FC82BC093A1
:10161000070680910606813009F082C01092060606
:101620000E94E4096B017C01809107068093BB0056
:1016300080912E0690912F06A0913006B091310630
:10164000892B8A2B8B2BA1F00E94E40900912E0696
:1016500010912F0620913006309131066C197D09CA
:101660008E099F09061717072807390708F442C093
:101670008091BC0083FDD8CF85EC8093BC000E9494
:10168000E4096B017C0180912C06823009F44AC088
:1016900080910A068F3F09F469C080910A06803262
:1016A00009F466C080910A06803309F463C084E0BF
:1016B00026C080912E0690912F06A0913006B09101
:1016C0003106892B8A2B8B2B09F484CF0E94E409E5
:1016D00080902E0690902F06A0903006B090310694
:1016E0006C197D098E099F0986169706A806B9060A
:1016F00008F070CF80912D060E94410985E0DF91AE
:10170000CF911F910F91FF90EF90DF90CF90BF90FE
:10171000AF909F908F9008959D9191938F5F6FCF21
:1017200085EEABCF80912E0690912F06A0913006CA
:10173000B0913106892B8A2B8B2B09F4A4CF0E9400
:10174000E40900912E0610912F0620913006309169
:1017500031066C197D098E099F090617170728079E
:10176000390708F090CFC6CF81E0C9CF80E0C7CF5E
:1017700082E0C5CF83E0C3CF482F6091C50580913B
:10178000C4050E94D40A1092C3051092C505109298
:10179000C2050895FC01248131E03093C2052093F5
:1017A000C4051092C3051092C5058385862B90E071
:1017B0000E94680281E00C94BC0B0F931F93CF939F
:1017C0008C01C62F0E94CA0B6C2F6460C8010E9456
:1017D000CA0B81E090E00E94D9096C2F6B7FC80191
:1017E0000E94CA0B82E390E0CF911F910F910C945D
:1017F000D909CF93C82F682F607F87EA95E00E94B0
:10180000DD0B80E1C89FB001112487EA95E0CF91FC
:101810000C94DD0BCF93DF93CDB7DEB728970FB6CF
:10182000F894DEBF0FBECDBF98E0E0E2F1E0DE014C
:10183000119601900D929A95E1F79091B005961747
:1018400008F46FEF70E0660F771F21E030E02C0F97
:101850003D1F620F731FFB019081890F80682896DE
:101860000FB6F894DEBF0FBECDBFDF91CF910C94C1
:10187000F90B81E00E94F90B80ED97E00C94D909F7
:10188000E7EAF5E08681982F926096838A600C944F
:10189000F90BE7EAF5E086818D7F868388600C94FA
:1018A000F90B0F931F93CF938C01C62F607F61605C
:1018B0000E94DD0B80E1C89FB00111246160C80166
:1018C0000E94DD0B81E090E0CF911F910F91089570
:1018D000CF93C62F91E09093C20598E69093C405EC
:1018E0001092C3051092C505682F86EB95E00E9403
:1018F0009E036C2F86EB95E00E949E0381E0CF91C2
:101900000C94BC0B91E09093C20598E69093C405AB
:101910001092C3051092C505682F86EB95E00E94D2
:101920009E0381E00C94BC0B7F928F929F92AF92AA
:10193000BF92CF92DF92EF92FF920F931F93CF93BC
:10194000DF93EC01162F7A0169010E94E4094B0133
:101950005C01712C1111798410E000E060E070E00E
:10196000CB012A813B814C815D81261737074807CF
:101970005907F4F00115110561F5C7011E141F0484
:1019800064F10E94E409681979098A099B09EA85CA
:10199000F0E0EE0FFF1FE45FFB4FA591B4912C9197
:1019A0000F5F1F4F39852323271105C097FFD9CF1C
:1019B0006FEF7FEFCB01DF91CF911F910F91FF90E0
:1019C000EF90DF90CF90BF90AF909F908F907F90DF
:1019D00008951C141D04ACF6C6010E94D909D1CF8C
:1019E0008F929F92AF92BF92CF92DF92EF92FF922F
:1019F0004B015C010E94E4096B017C010E94E40937
:101A00006C197D098E099F09683E73408105910517
:101A1000A8F321E0821A9108A108B10888EEC80E47
:101A200083E0D81EE11CF11C81149104A104B104CF
:101A300029F7FF90EF90DF90CF90BF90AF909F90ED
:101A40008F9008952FB7F8946091B5047091B60403
:101A50008091B7049091B8042FBF08954F925F9280
:101A60006F927F929F92AF92BF92CF92DF92EF924E
:101A7000FF920F931F93CF93DF9300D01F92CDB7A8
:101A8000DEB7D090DB068091DE069091DF06A09154
:101A9000E006B091E106892B8A2B8B2BD9F00E94AE
:101AA000E4090091D7061091D8062091D90630910B
:101AB000DA06601B710B820B930B0091DE0610910E
:101AC000DF062091E0063091E1066017710782077A
:101AD0009307C8F20E94E4096093D7067093D80672
:101AE0008093D9069093DA06E091E606F091E70636
:101AF000309759F04091E2065091E3066091E40678
:101B00007091E5068D2D0995D82EE090D506F090C0
:101B1000D6064D2C512C712C612CE114F10409F4E2
:101B200059C0D7011C96CC901C978091DC069091EF
:101B3000DD068436910510F41C961C92D701ED91B8
:101B4000FC91A280B38019821A821B82DD2079F178
:101B5000F701369610E000E02191222319F19280DE
:101B6000992001F130E050E040E02F5F3F4F4F4FB0
:101B70005F4FC301B2010E94F9399B01AC01892D6D
:101B800090E0B0E0A0E0BC01CD016F5F7F4F8F4FD0
:101B90009F4F0E94F939A1E0B0E0AC0FBD1FA00F2C
:101BA000B11F8C930F5F1F4F03301105A9F60981F8
:101BB0001A812B81F7014585568562817381C701A2
:101BC000F5010995D7011C96CC921C971496ED90BF
:101BD000FC90A3CF8091D3069091D4068C010F5F27
:101BE0001F4F1093D4060093D3064997B4F10E9477
:101BF000220DC090CF06D090D006E090D106F09094
:101C0000D2069B01AC012C193D094E095F0921F454
:101C100021E030E040E050E088EE93E0089FB00122
:101C2000099F700D189F700D1124072E000C880B52
:101C3000990B0E947F383093DD062093DC061092CA
:101C4000D4061092D3060E94220D6093CF067093A3
:101C5000D0068093D1069093D2060F900F900F90EC
:101C6000DF91CF911F910F91FF90EF90DF90CF9078
:101C7000BF90AF909F907F906F905F904F9008952E
:101C80000F931F93CF93DF9320918E042F5F322FFA
:101C9000377030938E0420FF2BC020E831FD206484
:101CA000347009F02062205FFC01EC01239600E013
:101CB00011E06485662329F070E0C8010E94153A9E
:101CC0006F5F6187322F369F030E30E0311D112484
:101CD000311110C01682662311F061506187319670
:101CE000EC17FD0731F7DF91CF911F910F91089508
:101CF00020E0D4CF31503683EECF4F925F927F9267
:101D00008F929F92AF92BF92CF92DF92EF92FF920B
:101D10000F931F93CF93DF932C01EB010E94E409F3
:101D2000F20127853089621B730B6A307105B0F3AD
:101D3000F8948A819B81181619060CF0CDC1E881B0
:101D4000F9816BB1862E689487F83BB13F773BB938
:101D5000D9848E812D2D281B822F2E834F85042E12
:101D6000000C550BAA81BB817C85FD84EE847F5FCE
:101D7000F394E3949F819884BA84AB841081C12C3E
:101D80006C2D0C2D2C2D2081112788942111280FCA
:101D900008F42FEF8195889470FD120F17958894A1
:101DA00071FD120F1795889472FD120F1795889484
:101DB00073FD120F1795889474FD120F1795889470
:101DC00075FD120F1795889476FD120F179588945C
:101DD00077FD120F17958894622F7111612F8D0D69
:101DE000162F002C8BB800C017FF3BB92181662746
:101DF000889400C000C0002C3BB92111290F00C0FD
:101E0000002C8BB800C016FF3BB908F42FEF91955A
:101E1000889400C000C0002C3BB9F0FC620F00C0E9
:101E2000002C8BB800C015FF3BB967958894F1FC76
:101E3000620F00C000C0002C3BB96795889400C0B9
:101E4000002C8BB800C014FF3BB9F2FC620F679501
:101E5000889400C000C0002C3BB9F3FC620F00C0A6
:101E6000002C8BB800C013FF3BB967958894F4FC35
:101E7000620F00C000C0002C3BB96795889400C079
:101E8000002C8BB800C012FF3BB9F5FC620F6795C0
:101E9000889400C000C0002C3BB9F6FC620F00C063
:101EA000002C8BB800C011FF3BB967958894F7FCF4
:101EB000620F00C000C0002C3BB96795889400C039
:101EC000002C8BB800C010FF3BB9122FF110162F59
:101ED0009B0D00C000C0002C3BB900C000C0002C0E
:101EE0008BB800C017FF3BB922816627889400C0D9
:101EF00000C0002C3BB92111290D00C0002C8BB86B
:101F000000C016FF3BB908F42FEFE40FF51F00C027
:101F100000C0002C3BB9E0FC620F00C0002C8BB865
:101F200000C015FF3BB967958894E1FC620F00C0C3
:101F300000C0002C3BB96795889400C0002C8BB87A
:101F400000C014FF3BB9E2FC620F6795889400C0A3
:101F500000C0002C3BB9E3FC620F00C0002C8BB822
:101F600000C013FF3BB967958894E4FC620F00C082
:101F700000C0002C3BB96795889400C0002C8BB83A
:101F800000C012FF3BB9E5FC620F6795889400C062
:101F900000C0002C3BB9E6FC620F00C0002C8BB8DF
:101FA00000C011FF3BB967958894E7FC620F00C041
:101FB00000C0002C3BB96795889400C0002C8BB8FA
:101FC00000C010FF3BB9122FE110162F919400C0F2
:101FD00000C0002C3BB99A0C00C000C08BB800C0F8
:101FE00017FF3BB920816627889400C000C0002CF1
:101FF0003BB92111280F00C0002C8BB800C016FF80
:102000003BB908F42FEF8195889400C000C0002CE4
:102010003BB970FD620F00C0002C8BB800C015FFEB
:102020003BB96795889471FD620F00C000C0002C19
:102030003BB96795889400C0002C8BB800C014FF92
:102040003BB972FD620F6795889400C000C0002CF8
:102050003BB973FD620F00C0002C8BB800C013FFAA
:102060003BB96795889474FD620F00C000C0002CD6
:102070003BB96795889400C0002C8BB800C012FF54
:102080003BB975FD620F6795889400C000C0002CB5
:102090003BB976FD620F00C0002C8BB800C011FF69
:1020A0003BB96795889477FD620F00C000C0002C93
:1020B0003BB96795889400C0002C8BB800C010FF16
:1020C0003BB9122F7111162F8D0D00C000C0002CCE
:1020D0003BB9119709F086CE4A815B8120EE31E051
:1020E000DA010E942F3ADC01CB01F4E0B695A79506
:1020F00097958795FA95D1F730E020E0B901EAE9A4
:102100004E9F040E611D5E9F600D711D1124650FB1
:10211000711D860F971FA11DB11D893E43E09407D5
:10212000A105B10508F434C0885E9340A109B10946
:1021300042E0B695A795979587954A95D1F747E0E0
:10214000849F080E211D949F200D311D1124290FFD
:10215000311D60918D0470E0860F971F820F931FD1
:102160004091B5045091B6046091B7047091B804E1
:10217000292F3327420F531F611D711D4093B50452
:102180005093B6046093B7047093B80480938D04A1
:1021900078940E94E409F201708B6787DF91CF91F8
:1021A0001F910F91FF90EF90DF90CF90BF90AF9075
:1021B0009F908F907F905F904F90089580E991E07D
:1021C0000895579A08956F927F928F92CF92DF92DF
:1021D000EF92FF920F931F93CF93DF93CDB7DEB7AC
:1021E00062970FB6F894DEBF0FBECDBF6C017A01C7
:1021F0003801822EDC011C962C91CA0157FF04C0C5
:1022000088279927841B950B7A8369839C838B830A
:102210009E838D836D867E868F86213049F5CE0123
:1022200001960E94400E83E0888B1A8A198AF7FE75
:1022300002C08DEF888BD601ED91FC910484F58569
:10224000E02DBE016F5F7F4FC601099562960FB604
:10225000F894DEBF0FBECDBFDF91CF911F910F91DC
:10226000FF90EF90DF90CF908F907F906F900895C8
:102270001C861B861A86198618861F82D4CFEF9279
:10228000FF920F931F93CF93DF93CDB7DEB7629783
:102290000FB6F894DEBF0FBECDBF7C01DC011C96EB
:1022A0008C917A8369835C834B835E834D830D8736
:1022B0001E872F878130F9F4CE0101960E94400ECF
:1022C000188A1A8A198AD701ED91FC910484F58540
:1022D000E02DBE016F5F7F4FC701099562960FB673
:1022E000F894DEBF0FBECDBFDF91CF911F910F914C
:1022F000FF90EF9008951C861B861A861986188613
:102300001F82DECFCF93DF93FC01EB0164E670E028
:102310000E94153A9F01281B390BCF016AE070E03B
:102320000E94153A280F391F4AE04C9FC0014D9F6B
:10233000900D1124820F931FDF91CF910895E2E851
:10234000F5E01082118212821092C2020C942E0DBE
:10235000E2E8F5E080910801808380910A018183A1
:1023600080910601828381E08093C2020C942E0D3D
:102370000F931F930E94220D00919A0210919B02CD
:1023800020919C0230919D020617170728073907F4
:1023900020F48091E202811104C08091E10288233F
:1023A00059F11092E1020E94220D00910201109158
:1023B00003012091040130910501DC01CB01800F64
:1023C000911FA21FB31F80939A0290939B02A09328
:1023D0009C02B0939D028091C202882331F010923A
:1023E000C2021F910F910C949F1181E08093C20251
:1023F0001F910F910C94A8111F910F9108950F93A5
:102400001F93CF93DF93EC01E0E0F0E060E070E039
:10241000CB01DE01AE0FB11D2C91222309F12D322B
:1024200011F4EF5FF1E0DE01AE0FB11D0C9120ED74
:10243000200F2A3018F5AAE0B0E09B01AC010E9401
:102440007438002E000C110B220B330B600F711F20
:10245000821F931F6053710981099109EF5FD9CFE2
:10246000FF2339F090958095709561957F4F8F4F40
:102470009F4FDF91CF911F910F9108956FEF7FEFE5
:10248000CB01F7CFFC0190E030E020E07AE0DF0103
:10249000A90FB11D6C916623A1F080ED860F8A30E3
:1024A00070F4729FA001739F500D11249A01260FA2
:1024B000311D67FD3A95205331099F5FE8CF2FEF1B
:1024C0003FEFC9010895DC01ED91FC91048CF58D7D
:1024D000E02D099490E080E00895FC0185859685C3
:1024E00008950F931F93CF93DF9300D01F92CDB722
:1024F000DEB7AB0119821A821B82DC01ED91FC91DF
:102500000190F081E02D00E010E020E0BE016F5F5F
:102510007F4F09950F900F900F90DF91CF911F91F2
:102520000F91089590E080E008950E945402823354
:1025300091058CF0833C91058CF08C3721E092075B
:1025400084F08B3222E092077CF0863193407CF05D
:1025500090E080E0089581E090E0089582E090E0CE
:10256000089583E090E0089584E090E0089585E088
:1025700090E008950F931F93CF93DF930E949512DD
:10258000EC010E94220D00919E0210919F02209169
:10259000A0023091A1020617170728073907B0F4E7
:1025A000CD2BC9F00E94951290938A0480938904E0
:1025B0000E94220D6C507E4F8F4F9F4F60939E0262
:1025C00070939F028093A0029093A102DF91CF911C
:1025D0001F910F9108950E94220D6C597F4F8F4FCC
:1025E0009F4FECCFBF92CF92DF92EF92FF920F936B
:1025F0001F93CF93DF9300D000D000D01F92CDB7B0
:10260000DEB780E00E94820C87E00E94090A1092E7
:10261000B5058093B4058730E1F586EB95E00E941F
:1026200057030E940807B82E86EB95E00E945703D7
:102630000E940807C82E86EB95E00E945703182FCA
:1026400086FF3EC08F710E9408070CE015FD00E078
:10265000080F86EB95E00E9457030E940807D82ECA
:1026600086EB95E00E9457030E940807E82E86EB50
:1026700095E00E94570310E087FD14E68F770E94D3
:102680000807F82E86EB95E00E9457030E94080782
:10269000180F2B2D3C2D402F5D2DB701812F90E081
:1026A00027960FB6F894DEBF0FBECDBFDF91CF9156
:1026B0001F910F91FF90EF90DF90CF90BF90089502
:1026C0008F730E940807082FC4CFCF93DF93EB01CD
:1026D0000E94820C81E00E94090A1092B505809345
:1026E000B40586EB95E00E945703888381E0DF9173
:1026F000CF910895EF92FF921F93CF93DF931F9294
:10270000CDB7DEB77C01162FBE016F5F7F4F8EE025
:102710000E946513811108C080E00F90DF91CF9176
:102720001F91FF90EF90089581E08093C20588E6A5
:102730008093C4051092C3051092C505113089F528
:1027400087E090E00E946802F70180810E94FE0607
:1027500090E00E946802898185608983F701818108
:102760000E94FE0690E00E946802F70182810E94AA
:10277000FE0690E00E946802F70184810E94FE0636
:1027800090E00E94680281E00E94BC0B8111C4CFDE
:1027900069818EE00E94680C8111BECF812F877005
:1027A000BCCF8BE090E00E94680289818660D5CF23
:1027B00085ED8093BC0080912E0690912F06A0910C
:1027C0003006B09131060796A11DB11D23E0B695E4
:1027D000A795979587952A95D1F72091BC0024FD60
:1027E00003C010922C06089540912E0650912F069A
:1027F0006091300670913106452B462B472B69F3CB
:102800000097A105B10541F025E32A95F1F70000F5
:102810000197A109B109E1CF80912D060C944109DE
:10282000AF92BF92CF92DF92EF92FF920F931F93DE
:10283000CF93DF9300D000D0CDB7DEB78C016B0112
:102840007A01809174058333E9F45B016801C40E59
:10285000D51EC016D106A9F10E94F1038FE00E9497
:10286000FC03812F0E94FC03802F0E94FC030F5F5A
:102870001F4F80E00E94FC03F50181935F010E94DD
:10288000E703E7CF843369F50E94F10319830A83D4
:102890008F2D8F778B83EC8264E070E0CE01019600
:1028A0000E94CD03A70170E060E0C6010E94D3380A
:1028B000E114F10421F0B701C6010E94CD030E948A
:1028C000E703C7010F900F900F900F90DF91CF910A
:1028D0001F910F91FF90EF90DF90CF90BF90AF903E
:1028E00008950E94F1030F3F110509F030F4198299
:1028F0000A831B8263E070E0D1CF17FD0BC0198201
:102900000A8333E0169507953A95E1F7007E086053
:102910000B83F0CFC80126E0969587952A95E1F7BD
:10292000807E19830A830115104C18F480618B8313
:10293000E1CF8861FCCFFA012091B30530E0322F5E
:102940002227260F371F90E0982F882742E050E07B
:10295000BF01820F931F0C941014FF920F931F93CB
:10296000CF93DF9300D0CDB7DEB7F82EAE014F5F27
:102970005F4F66E270E00E949B1409811A81102764
:1029800001271027AE014F5F5F4F66E270E08F2D89
:102990000E949B1489819A81982789279827081774
:1029A000190749F4C8010F900F90DF91CF911F9143
:1029B0000F91FF9008958C01E5CF3F924F925F9267
:1029C0006F927F928F929F92AF92BF92CF92DF923F
:1029D000EF92FF920F931F93CF93DF9300D0CDB769
:1029E000DEB75C014B01342E452EFC0166887788EA
:1029F000508C80E591E00E946502AE014F5F5F4F11
:102A000060E270E0852D0E949B14C980DA80DC248E
:102A1000CD24DC24AE014F5F5F4F60E270E0852D76
:102A20000E949B1489819A81982789279827C81624
:102A3000D90609F077C0E52CF12C67E0569EF0012D
:102A40001124E85AFA4FD582C482032D142DC016E2
:102A5000D10608F48601AE014F5F5F4F64E270E07B
:102A6000852D0E949B1489819A8198278927982710
:102A7000680E791E9301377040917405433309F055
:102A800053C088E0E80EF11CFE2CEE24FF0CFF0C76
:102A9000FF0CC9018E0D9F1D473309F449C0A901E0
:102AA000400F511F4130584008F442C060E078E0C8
:102AB0006B01C21AD30AA601B4010E940304A80143
:102AC0004C195D09B4016C0D7D1DC7010E94030402
:102AD000600E711E79826A8222E030E0AE014F5FA3
:102AE0005F4F64E270E0852D0E94D404F501868971
:102AF0009789800F911F978B868BC8010F900F903D
:102B0000DF91CF911F910F91FF90EF90DF90CF90C9
:102B1000BF90AF909F908F907F906F905F904F90FD
:102B20003F9008956C0176CFE0E1EE0EF11CACCF42
:102B3000A801B401CBCFCF93DF931F92CDB7DEB7FF
:102B400041E050E0BE016F5F7F4F0E941014898109
:102B50000F90DF91CF91089590E080E00C949B1549
:102B6000CF93DF93C4E1D0E00E94AC15882361F0DD
:102B700061E070E080E090E00E94F00C2197A1F706
:102B800080E0DF91CF91089581E0FBCFDF92EF925B
:102B9000FF920F931F93CF93DF9300D0CDB7DEB793
:102BA00060E372E080E090E00E94F00CDFB6F89401
:102BB00008E414E034E3E32E34E0F32E80910105C1
:102BC000811125C0F8018491F7019491E82FF0E07C
:102BD000EE0FFF1FE05EFB4FA591B4918C919823FF
:102BE00021F461E08AE00E94C90861E08AE00E9465
:102BF00062098CB580618CBD8CB580648CBD61E050
:102C00008DE00E94620961E08BE00E946209809180
:102C100001058F5F80930105DFBEF8010491E02F6D
:102C2000F0E0EE0FFF1FEA5EFB4F859194919093C9
:102C300000058093FF04F701E490E092FE0461E058
:102C40008AE00E9462090E94E70380E591E00E9409
:102C5000650284E38093740580E80E94B3040E94B7
:102C6000B015882309F441C088E00E94B3040E9493
:102C7000AC158830D1F580E10E94B3040E94AC15F8
:102C8000803199F580E00E94B3040E94AC15182FA2
:102C900081112BC08FE190E00E949B15833029F5B4
:102CA00080E48093B30542E06EE170E0812F0E94E2
:102CB000FA0442E06FE170E0812F0E94FA041F5F86
:102CC000143089F740E06EE170E0812F0E94FA0431
:102CD00040E06FE170E0812F0E94FA041F5F18301E
:102CE00089F781E080937B0564C087E38093740556
:102CF00080E80E94B3040E94B0158823F9F088E0B0
:102D00000E94B3040E94AC158830C1F480E10E9497
:102D1000B3040E94AC15182F803181F480E00E942A
:102D2000B3040E94AC15811109C089E390E00E94B0
:102D30009B15843019F41093B305D3CF83E38093AC
:102D4000740580E80E94B3040E94B015882371F1D5
:102D500080E10E94B3040E94AC15803139F582E114
:102D60000E94B3040E94AC15823101F580E00E94FC
:102D7000B3040E94AC15811119C084E08093B3059F
:102D800015E51A8341E050E0BE016E5F7F4F8BE195
:102D900090E00E940304198341E050E0BE016F5FA0
:102DA0007F4F8AE190E00E9403049BCF109274054C
:102DB00080E00F900F90DF91CF911F910F91FF90C6
:102DC000EF90DF900895CF92DF92EF92FF92CF9332
:102DD000DF93CDB7DEB7C254D1090FB6F894DEBF8A
:102DE0000FBECDBFFC014281538164817581239662
:102DF0004CAF5DAF6EAF7FAF239781E023968FAF6F
:102E000023972396CCACDDACEEACFFAC2397CBAADA
:102E1000DCAAEDAAFEAA4DA75EA76FA778AB88AB88
:102E2000CDA4DEA4EFA4F8A8CFA2D8A6E9A6FAA65E
:102E30008EABCBA8DCA8EDA8FEA8C9A2DAA2EBA2B3
:102E4000FCA229E232E03C8B2B8B9FEF9D8B9E8B6B
:102E50009F8B188E3E872D878AA7CFA0D8A4E9A480
:102E6000FAA4CF86D88AE98AFA8A8CA389A19AA182
:102E7000ABA1BCA189879A87AB87BC873A8329839A
:102E80004B835C836D837E8380917B05882309F46B
:102E900043C080E591E00E94650246E050E06AE1AF
:102EA00071E089E090E00E94030444E050E0BE013C
:102EB0006D5F7F4F8FE090E00E94030444E050E09C
:102EC000BE01615F7F4F81E090E00E94030444E017
:102ED00050E0BE016B5E7F4F85E090E00E940304EE
:102EE00081E08C8789859A85AB85BC858093770541
:102EF00090937805A0937905B0937A05CE5BDF4F68
:102F00000FB6F894DEBF0FBECDBFDF91CF91FF901B
:102F1000EF90DF90CF9008950E94C615882371F33B
:102F2000B8CF2091B30530E0322F2227620F731FF4
:102F300090E0982F8827860F971F0C949B15CF93AE
:102F4000C82F462F61E070E00E94FA0461E070E053
:102F50008C2F0E9491178111F9CFCF9108958F92F4
:102F60009F92AF92BF92CF92DF92EF92FF921F9308
:102F7000CF93DF93CDB7DEB72C970FB6F894DEBFB3
:102F80000FBECDBF2091740514E0222339F16B01EF
:102F90007C0180E591E00E9465025E0127E0A20EBF
:102FA000B11C450110E063E070E0812F0E94911791
:102FB000F40181934F01882349F11F5F143099F781
:102FC00010E0F50181915F018D31D9F08831C9F0B0
:102FD0008A518230B0F01F5F143099F7812F2C9600
:102FE0000FB6F894DEBF0FBECDBFDF91CF911F911A
:102FF000FF90EF90DF90CF90BF90AF909F908F9019
:10300000089560E170E0812F0E949F17A12EB12CDE
:103010008AEF90E00E94D90942E870E060E0812FD9
:103020000E94FA044FEF62E070E0812F0E94FA04E0
:10303000B601C114D10491F4809118019091190145
:1030400001968115F0EC9F0708F462C09093190176
:10305000809318016091180170911901812F0E94CD
:10306000E50486E0E8E2F1E0DE01119601900D92C0
:103070008A95E1F7F70183818F778C8384818D8333
:1030800085818E83A7014E5F5F4F24E030E06CE0C6
:1030900070E0812F0E94D404DB86CC8622E030E0F1
:1030A000AE01455F5F4F60E170E0812F0E94D40464
:1030B00026E030E0AE014F5F5F4F66E070E0812FA9
:1030C0000E94D40461E070E0812F0E949F1727E0E6
:1030D0002A9DC0012B9D900D11249C01285A3A4F26
:1030E0007901F90111821082AE01455F5F4F68E2FC
:1030F00070E0812F0E949B148B859C8598278927DF
:103100009827F7019383828316821582148266CFF3
:1031100080E090EC9BCF4F925F927F928F929F9234
:10312000AF92BF92CF92DF92EF92FF920F931F93D5
:10313000CF93DF9300D0CDB7DEB7782E6B014A0175
:10314000A82EB12C27E0829FC0011124FC01E85A6F
:10315000FA4F7F010081118180E591E00E946502B4
:103160000815190554F4872D0E94AD14F701268126
:103170008C01021B1109118300830115110529F52A
:1031800063E070E0872D0E949117843159F0882305
:1031900049F001E010E08C3111F410E000E01195ED
:1031A00001951109C8010F900F90DF91CF911F91E8
:1031B0000F91FF90EF90DF90CF90BF90AF909F90D6
:1031C0008F907F905F904F900895801691060CF439
:1031D000840187E08A9DF0018B9DF00D1124E85A4F
:1031E000FA4FE280F380C114D10451F12701F7E0D6
:1031F0005F22872D0E94C604840D951D20917405C1
:10320000273309F453C09801240D351D213038406F
:1032100008F44CC020E038E0490184189508A40166
:10322000B6010E9410142601480C591C6801C818E8
:10323000D908872D0E94C604A601B2010E9410146D
:10324000E00EF11E87E08A9DF0018B9DF00D1124A8
:10325000E85AFA4FF382E28220813181201B310B40
:10326000318320838681800F912F911D8A3F9105A4
:1032700010F4232BF1F487E08A9DF0018B9DF00D73
:103280001124E85AFA4F1682F982EA8222E030E0ED
:10329000AE014F5F5F4F68E270E0872D0E94D4045B
:1032A00060E470E0872D0E949F177CCFA801B601D3
:1032B000C5CF868377CFCF93DF93FC01218D328DED
:1032C0002115310529F48FEF9FEFDF91CF910895FC
:1032D000EC01808D4217530708F0A9010E948B185A
:1032E0001816190684F7298D3A8D281B390B3A8F49
:1032F000298FEBCF0F931F93CF93DF931F92CDB7FF
:10330000DEB7FC01218D328D232B41F48FEF9FEF2F
:103310000F90DF91CF911F910F9108958C0141E0A3
:1033200050E0BE016F5F7F4FFC01808D0E948B18C3
:10333000181619065CF7F801818D928D0197928F0E
:10334000818F898190E0E4CFCF93C82F80E591E011
:103350000E94650260E170E08C2FCF910C949F1762
:10336000CF92DF92EF92FF920F931F93CF93DF9351
:1033700000D000D000D0CDB7DEB78C016B017A0150
:10338000FC01808D843010F40E94A41989E292E03F
:103390009A838983F60182819381A481B5818B838D
:1033A0009C83AD83BE83B701CE0101960E94AF1707
:1033B000F801808F8430A0F4F586E486128E118E99
:1033C00081E026960FB6F894DEBF0FBECDBFDF9129
:1033D000CF911F910F91FF90EF90DF90CF900895C4
:1033E00080E0EFCFCF93DF93EC01888D843020F421
:1033F0000E94A41984E0888FDF91CF910895CF9324
:10340000FC01C08D80E591E00E94650260E270E001
:103410008C2F0E949F1762E070E08C2F0E94911702
:1034200084FD16C062E070E08C2F0E94911783FF2C
:103430000AC048E162E070E08C2F0E94FA0480E04C
:1034400090E0CF91089580E591E00E946502E3CF7E
:1034500040E162E070E08C2F0E94FA0481E0F0CF3E
:103460008F929F92AF92BF92CF92DF92EF92FF9294
:103470001F93CF93DF9300D000D000D0CDB7DEB73D
:103480006C015B01FC01808D843010F40E94A41952
:1034900080917405811115C094E0F601908F2696F5
:1034A0000FB6F894DEBF0FBECDBFDF91CF911F9155
:1034B000FF90EF90DF90CF90BF90AF909F908F9054
:1034C000089580E591E00E9465029E012F5F3F4FC5
:1034D0007901490110E063E070E0812F0E949117AB
:1034E000F40181934F01882309F11F5F143099F78C
:1034F00010E0F70181917F018D3199F0883189F0D9
:103500008A51823070F01F5F143099F7F601108FE6
:1035100080E0143021F2B586A486128E118E81E0EF
:10352000BECF60E170E0812F0E949F17812E912C09
:103530008AEF90E00E94D90942E070E060E0812FBC
:103540000E94FA044FEF62E070E0812F0E94FA04BB
:10355000B501A114B10489F4809118019091190169
:1035600001968115F0EC9F0788F1909319018093E3
:1035700018016091180170911901812F0E94E504D2
:1035800061E070E0812F0E949F1727E0289DC00115
:10359000299D900D11249C01285A3A4F7901F90177
:1035A00011821082AE014B5F5F4F68E270E0812FA5
:1035B0000E949B148D819E81982789279827F70167
:1035C00093838283168215821482A0CF80E090ECD0
:1035D000CCCF1F93CF93DF931F92CDB7DEB7FC0103
:1035E000108D143020F5818D928D892B01F180E5AD
:1035F00091E00E946502812F0E94C60427E0129F7D
:10360000F0011124E85AFA4F22813381377041E0EA
:1036100050E0BE016F5F7F4F820F931F0E94101416
:10362000898190E00F90DF91CF911F9108958FEFE6
:103630009FEFF8CFEF92FF920F931F93CF93DF93FB
:10364000EC018B0188E2FB0111928A95E9F761E0B8
:103650008E810E94620960E08E810E94C90888EE16
:1036600093E00E94D90961E08E810E94C9086885B3
:103670008E810E94620988E290E00E94D909E88167
:10368000F9810088F189E02D26E030E04AE050E041
:1036900060E0CE0109956E317105810591056CF4EC
:1036A000982F872F762F66276061CB01DF91CF910E
:1036B0001F910F91FF90EF900895E881F9810088A4
:1036C000F189E02D26E030E04AE050E061E0CE01F3
:1036D00009957801F8E2EF0EF11C6233710581055E
:1036E000910534F4982F872F762F66276161DDCFFF
:1036F000E881F9810088F189E02D26E030E04AE098
:1037000050E060E0CE0109956831710581059105B1
:1037100034F4982F872F762F66276261C6CFE88111
:10372000F9810088F189E02D26E030E04AE050E0A0
:1037300061E0CE0109956B3071058105910534F486
:10374000982F872F762F66276361AFCF21E06932EC
:103750007105810591050CF420E0F80121938F019A
:10376000EE16FF0629F6E881F9810088F189E02D3F
:1037700026E030E04AE050E060E0CE010995683193
:1037800071058105910534F4982F872F762F6627D0
:1037900064618BCF70E060E088CFDF92EF92FF92A0
:1037A0000F931F93CF93DF93CDB7DEB728970FB654
:1037B000F894DEBF0FBECDBF8C01D80159964D9154
:1037C0005C915A974115510551F0ED91FC91048C93
:1037D000F58DE02D70E060E0C8010995EECFF801AD
:1037E000D08CF7E0DF9EC00111249C01285A3A4F8B
:1037F0007901D9018D919C91892B59F148E050E0D4
:10380000BE016F5F7F4FF801808D0E948B181816E4
:10381000190694F5D801509684E0FE013196019086
:103820000D928A95E1F78D8190E0982F88272E815F
:10383000820F911DF801958B848B8F81282F30E0AA
:10384000322F22278885820F932F911D928F818F8F
:1038500013C080E591E00E9465028D2D0E94AD1499
:10386000D70116962C911697821B91098D939C93E4
:10387000892B21F690E080E028960FB6F894DEBF01
:103880000FBECDBFDF91CF911F910F91FF90EF90B1
:10389000DF9008956F927F928F929F92AF92BF9226
:1038A000CF92DF92EF92FF920F931F93CF93DF930C
:1038B000CDB7DEB7EC970FB6F894DEBF0FBECDBF25
:1038C0004C018B013A0189E292E09A8389831C863C
:1038D0001B8648EE53E060E070E04D875E876F879F
:1038E000788B2DEE31E03A872987988F8F8B198E50
:1038F0001A8E1B8E1C8E24E029A399AB88AB1AAAC2
:103900001BAA1CAA1DAA8091770590917805A09109
:103910007905B0917A058EA39FA3A8A7B9A78B8339
:103920009C83AD83BE8318861F82F80120E090E05F
:1039300080E06AE03191332309F47AC040ED430F0F
:103940004A3008F064C0689FA001699F500D11249F
:10395000CA01C097830F911D37FD9A958F3F91053E
:1039600049F340F34B815C816D817E818091EE044F
:103970009091EF04A091F004B091F1044817590719
:103980006A077B0709F428C20E94220D6F7077270F
:103990007C5FCE0109960E94301A813009F01FC267
:1039A00089E292E09DA38CA38B819C81AD81BE8135
:1039B0008EA39FA3A8A7B9A745E350E0BE016C5D05
:1039C0007F4FCE0109960E942807892B09F04EC02F
:1039D00010E000E0CE0109960E94F21901301105B5
:1039E00059F1C801EC960FB6F894DEBF0FBECDBFFB
:1039F000DF91CF911F910F91FF90EF90DF90CF90CB
:103A0000BF90AF909F908F907F906F9008953E32BF
:103A100009F0A8CF233009F4A5CFA2E3B0E0AC0FA2
:103A2000BD1FA20FB11D8C932F5F90E080E082CF6D
:103A3000233009F097CF8DABD401ED91FC91048830
:103A4000F589E02D89E292E09DA38CA38AA99BA928
:103A5000ACA9BDA98EA39FA3A8A7B9A7A301BE0126
:103A60006C5D7F4FC40109958C01BBCF0E94220D74
:103A700078876F8342E050E0BE01695F7F4FCE01DF
:103A800009960E94DD1481E090E09DA38CA342E0A2
:103A900050E0BE016C5D7F4FCE0109960E94DD149F
:103AA00080E091E09DA38CA342E050E0BE016C5DFC
:103AB0007F4FCE0109960E94DD141DA21CA242E098
:103AC00050E0BE016C5D7F4FCE0109960E94DD146F
:103AD00042E050E0BE016C5D7F4FCE0109960E942E
:103AE000DD1442E050E0BE016C5D7F4FCE010996CF
:103AF0000E94DD147801D8018C91882311F187018F
:103B0000F80181916F01882311F08E32C1F45801C0
:103B1000AE18BF081A141B0484F4AEAA41E050E0AA
:103B2000BE016A5C7F4FCE0109960E94DD14A5019B
:103B3000B701CE0109960E94DD147601DCCF860123
:103B4000DFCF1EAA41E050E0BE016A5C7F4FCE018C
:103B500009960E94DD1400E011E01DA30CA342E0D1
:103B600050E0BE016C5D7F4FCE0109960E94DD14CE
:103B70001DA30CA342E050E0BE016C5D7F4FCE015F
:103B800009960E94DD14CE0109960E94FF19892B27
:103B900009F41ECF83E0E82EF12CD7C04B815C8165
:103BA0006D817E81898D9A8DAB8DBC8D48175907AB
:103BB0006A077B0709F00AC18D8D9E8DC59709F0B4
:103BC00005C18AA19BA10DEF1FEF0C970CF4B4C0A7
:103BD0004CE050E0BE016C5D7F4FCE0109960E9423
:103BE0005B198EA19FA19827892798279BAF8AAF41
:103BF0004F8158852CA13DA14217530709F0E9C018
:103C000097FFE7C08F7092700BEF1FEF892B09F0C1
:103C100093C0AAA4BBA4BA24AB24BA240AEF1FEF12
:103C2000A114B10409F488C010E000E088A599A5AA
:103C30009827892798270817190708F541E050E0C9
:103C4000BE016A5C7F4FCE0109960E945B194EA9A6
:103C5000442339F050E070E060E0CE0109960E9404
:103C60005B198EA98111EACF44E050E070E060E07A
:103C7000CE0109960E945B190F5F1F4FD7CFD12C41
:103C8000C12C41E050E0BE01645C7F4FCE0109963B
:103C90000E945B194CAD842F807C09F074C04423D2
:103CA00039F050E070E060E0CE0109960E945B19A7
:103CB0008CAD8111E6CF42E050E0BE01685C7F4FE1
:103CC000CE0109960E945B1942E050E0BE016A5C99
:103CD0007F4FCE0109960E945B1944E050E070E0EE
:103CE00060E0CE0109960E945B1942E050E0BE01FF
:103CF000665C7F4FCE0109960E945B1988AD99AD35
:103D00004AAD5BAD8115914009F047C00EA91FA9CE
:103D10001027012710270130110509F03EC0411579
:103D2000544009F04DC044E050E0BE016E5C7F4F4E
:103D3000CE0109960E945B19F1E0EF1AF10809F42F
:103D400049CE0F3F100709F045CE0E94220D5B01BE
:103D50006C01CE0109960E94CD1B181619060CF4B1
:103D60001DCF0E94220D6A197B098C099D096938B3
:103D700073418105910538F562E370E080E090E0E1
:103D80000E94F00CE6CF41E050E070E060E0CE0130
:103D900009960E945B191CAE8BCF542745275427E8
:103DA00070E060E0CE0109960E945B19EFEFCE1A39
:103DB000DE0AAC14BD0409F064CF06EF1FEFBCCFE0
:103DC00007EF1FEFB9CF0FEF1FEFB6CF0EEF1FEFCB
:103DD000B3CF0CEF1FEFB0CF0EEF1FEF02CE10E00E
:103DE00000E0FFCD0E94C638FB0101900020E9F7FA
:103DF0003197AF01461B570BDC01ED91FC9102801E
:103E0000F381E02D0994CF93DF93BC0182E396E028
:103E10000E947608EC016DE472E082E396E00E9475
:103E2000F41E8C0F9D1FDF91CF910895CF93DF93E8
:103E300000D000D000D0CDB7DEB789E790E00E9477
:103E4000031F89E292E09A83898380919104909183
:103E50009204A0919304B09194048B839C83AD83CE
:103E6000BE834EE65CECBE016F5F7F4F8FEB94E04C
:103E70000E94280768E670E08FEB94E00E947608C5
:103E80008FEB94E00E94FF1926960FB6F894DEBFE0
:103E90000FBECDBFDF91CF9108958F929F92AF92C9
:103EA000BF92EF92FF920F931F93CF93DF93CDB703
:103EB000DEB7A1970FB6F894DEBF0FBECDBF7C0171
:103EC000FA01CB0119A2223008F42AE08E010F5D1D
:103ED0001F4F822E912CB12CA12CBF01A501940162
:103EE0000E947F38F901CA016A300CF5605DD80183
:103EF0006E938D01232B242B252B79F790E080E006
:103F0000109721F0BD01C7010E94F41EA1960FB6C3
:103F1000F894DEBF0FBECDBFDF91CF911F910F91FF
:103F2000FF90EF90BF90AF909F908F900895695C45
:103F3000DECFCF92DF92EF92FF920F931F93CF933A
:103F4000DF9377FF1DC06A017B01EC016DE20E94E7
:103F50006F088C0144275527BA014C195D096E0979
:103F60007F092AE0CE010E944D1F800F911FDF9133
:103F7000CF911F910F91FF90EF90DF90CF90089518
:103F80002AE0DF91CF911F910F91FF90EF90DF908A
:103F9000CF900C944D1FAB01770F660B770B0C94F1
:103FA000991FAB0170E060E02AE00C944D1F462F92
:103FB00050E070E060E02AE00C944D1F8F929F92D9
:103FC000AF92BF92CF92DF92EF92FF920F931F9327
:103FD000CF93DF937C018B014C0182E0880E911C12
:103FE0005701E5E0AE0EB11CD0E0C0E0F4016191F4
:103FF0004F01C8010E94D71F6C016EE2C8010E94E8
:104000006F088C0D9D1DC80FD91F8A149B0471F772
:10401000F7016581C8010E94D71F8C0F9D1FDF919A
:10402000CF911F910F91FF90EF90DF90CF90BF90B5
:10403000AF909F908F900895CF93DF93C82FD62F86
:1040400060E00E940A0C6D2F87EA95E00E94D71F5E
:1040500061E08C2FDF91CF910C940A0C2F923F924C
:104060004F925F926F927F928F929F92AF92BF9288
:10407000CF92DF92EF92FF921F93CF93DF93EC01E9
:104080006A017B01722EAB019601CB01B6010E9441
:10409000F43960E572E0811126C046015701E894C9
:1040A000B7F82FEF3FEF4FE75FE7C501B4010E947C
:1040B000F43981110CC02FEF3FEF4FE75FE7C501E7
:1040C000B4010E942E3764E572E0181664F02FEFF9
:1040D0003FEF4FE75FE4C701B6010E94EF391816C2
:1040E000B4F468E572E0CE01DF91CF911F91FF90AB
:1040F000EF90DF90CF90BF90AF909F908F907F9088
:104100006F905F904F903F902F900C94F41E2FEF84
:104110003FEF4FE75FECC701B6010E942E3787FDE6
:10412000E0CF20E030E0A901C701B6010E942E37A0
:10413000312C212C87FF09C06DE2CE010E946F084F
:104140001C01F7FAF094F7F8F09410E060E070E0EA
:1041500080E09FE3711641F020E030E040E251E45E
:104160000E9447391F5FF6CFA70196010E94DB38F6
:104170002B013C010E94C0394B015C012AE0BC01CB
:10418000A401CE010E944D1F7C01E20CF31C1123FF
:10419000A1F1C501B4010E9433379B01AC01C301F9
:1041A000B2010E94DA384B015C016EE2CE010E943E
:1041B0006F08E80EF91E115000F120E030E040E2F7
:1041C00051E4C501B4010E9494372B013C010E94C7
:1041D000C0394B01CE010E94D11FE80EF91EB40177
:1041E00090E080E00E9433379B01AC01C301B20133
:1041F0000E94DA384B015C01DECFC701DF91CF911D
:104200001F91FF90EF90DF90CF90BF90AF909F9065
:104210008F907F906F905F904F903F902F90089578
:104220000C94F41EFC01808191810C94B038EF92C3
:10423000FF920F931F93CF93DF9300D000D0CDB7A1
:10424000DEB7082F0E94390C10E01C830B83CE01CF
:1042500003960E941221E82EC80101969A83898351
:10426000CE0101960E941221F82E60E080E00E94AB
:104270000A0CB70187EA95E00E94CB1F60E970E065
:1042800087EA95E00E947608C80102969A8389839E
:10429000CE0101960E941221682F70E087EA95E016
:1042A0000E94CB1F6AE870E087EA95E00E947608DA
:1042B00061E080E00E940A0CC80106969A83898317
:1042C000CE0101960E941221682F87EA95E00E9494
:1042D000D71F6FE287EA95E00E946F08C801079632
:1042E0009A838983CE0101960E941221682F87EA62
:1042F00095E00E94D71F6FE287EA95E00E946F0861
:10430000C80105969A838983CE0101960E941221E5
:10431000682F87EA95E00E94D71F60E287EA95E060
:104320000E946F08C80103969A838983CE01019683
:104330000E941221682F87EA95E00E94D71F6AE346
:1043400087EA95E00E946F080C5F1F4F1A8309836C
:10435000CE0101960E941221682F87EA95E00E9403
:10436000D71F1092BE041092BD040F900F900F90B3
:104370000F90DF91CF911F910F91FF90EF900895D3
:10438000CF93DF93CDE0D0E060E0CE010E94B8385B
:104390002196C11584E0D807B9F78CE090E090939E
:1043A000A1048093A0046CE0DF91CF910C94B83805
:1043B0002F923F924F925F926F927F928F929F9235
:1043C000AF92BF92CF92DF92EF92FF920F931F9323
:1043D000CF93DF93CDB7DEB7C355D1090FB6F894AD
:1043E000DEBF0FBECDBF0E94220DC090A202D090B2
:1043F000A302E090A402F090A502C616D706E80634
:10440000F906C0F430E020E04EEA52E062EB72E0E0
:1044100085E994E00E943A050E94220D68577C4E7F
:104420008F4F9F4F6093A2027093A3028093A402C8
:104430009093A5020E94220DC090A602D090A702E0
:10444000E090A802F090A902C616D706E806F90681
:1044500008F085C08091EC02882309F480C030E028
:1044600020E04EEA52E062EB72E085E994E00E94BF
:104470003A0589E292E09A83898380919104909130
:104480009204A0919304B09194048B839C83AD8398
:10449000BE834EE65CECBE016F5F7F4F8FEB94E016
:1044A0000E9428074091B2025091B3026091B40279
:1044B0007091B50222E08FEB94E00E942E2060EA1A
:1044C00070E08FEB94E00E94760826E636E646EE32
:1044D0005FE36091B2027091B3028091B402909157
:1044E000B5020E94943720E030E040E052E40E94A0
:1044F000DB380E94B9398FEB94E00E94CB1F6AE948
:1045000070E08FEB94E00E9476084091AE025091EB
:10451000AF026091B0027091B10222E08FEB94E0A3
:104520000E942E2065E970E08FEB94E00E947608EF
:104530008FEB94E00E94FF190E94220D68577C4E79
:104540008F4F9F4F6093A6027093A7028093A8029B
:104550009093A90280918B048F5F80938B040E94BB
:10456000F21229873A874B875C876D877E878F8712
:104570003111B8C00E94F2122DA33EA34FA358A739
:1045800069A77AA78BA72111D1C030E020E04EEABD
:1045900052E062EB72E085E994E00E943A05609196
:1045A000B2027091B3028091B4029091B5020E9460
:1045B000B9397A8369836091AE027091AF028091BC
:1045C000B0029091B1020E94B9396B830E94F2123D
:1045D0002CA73DA74EA75FA768AB79AB8AAB4C83EE
:1045E0000E94F2122BAB3CAB4DAB5EAB6FAB78AF26
:1045F00089AF3D830E94F2122AAF3BAF4CAF5DAF53
:104600006EAF7FAF21968FAF21978E830E94F212FB
:1046100022962FAF229723963FAF239724964FAF32
:10462000249725965FAF259726966FAF26972796F6
:104630007FAF279728968FAF28977F830E94F2122B
:1046400029962FAF29972A963FAF2A972B964FAFDF
:104650002B972C965FAF2C972D966FAF2D972E969C
:104660007FAF2E972F968FAF2F976887C090A004AB
:10467000D090A10476012FEFE21AF20AAE014F5F4B
:104680005F4F5A0159E0C50ED11C6196FFAEEEAEE8
:104690006197D5010D915D01CE01815B9F4F0E9415
:1046A0001221081721F0602FC7010E94B838BFEF10
:1046B000EB1AFB0ACE14DF0441F76091A00470915D
:1046C000A104685F7F4F7093A1046093A0048CE005
:1046D00090E00E94B8386CE474E080E090E00E94C2
:1046E000F00C24C00E94F212288B398B4A8B5B8B12
:1046F0006C8B7D8B8E8B3F3009F43CCF0E94F21285
:104700002F8B388F498F5A8F6B8F7C8F8D8F3E31D7
:1047100009F430CF0E94F2122E8F3F8F48A359A385
:104720006AA37BA38CA33D3209F424CF0E94B81165
:104730008091160190911701059709F071C00E94B0
:1047400095127C010E94220D8090AA029090AB02EB
:10475000A090AC02B090AD0286169706A806B906E6
:10476000B8F4EF2809F480C00E9495129093BE041B
:104770008093BD040E94220D6C507E4F8F4F9F4F3F
:104780006093AA027093AB028093AC029093AD0247
:10479000E090BD04F090BE04E5E0EE16F10409F0EF
:1047A0006AC00E94390C68EB70E087EA95E00E94CD
:1047B00076084091B2025091B3026091B4027091B8
:1047C000B50222E087EA95E00E942E2063EB70E0BC
:1047D00087EA95E00E94760861E080E00E940A0C7A
:1047E0006BEA70E087EA95E00E9476084091AE029D
:1047F0005091AF026091B0027091B10222E087EA5D
:1048000095E00E942E2066EA70E087EA95E00E941B
:1048100076081092BE041092BD0486E080931501C4
:104820008091160190911701019709F07CC00E94B8
:10483000BA120E94490C8091890490918A048130B7
:10484000910509F052C120911401285020931401C0
:104850008091A0049091A1048C30910509F057C07B
:104860008DE08093140157C00E94220D6C597F4F38
:104870008F4F9F4F85CFF1E0EF16F10441F48DE0AB
:104880000E941721F0921701E0921601C9CF22E091
:10489000E216F10429F500918C04D0908B040E945B
:1048A000390C6CE572E087EA95E00E9410216D2DCD
:1048B00087EA95E00E94D71F61E080E00E940A0C21
:1048C00063E672E087EA95E00E941021602F87EA94
:1048D00095E00E94D71F1092BE041092BD04D2CF63
:1048E00043E0E416F104F9F40E94390C6AED70E03B
:1048F00087EA95E00E94760861E080E00E940A0C59
:104900006FEB70E087EA95E00E947608E4CF87506D
:104910002D3008F4A6CF809114010E941721109227
:104920008A041092890480911601909117010297D0
:1049300099F40E94BA120E94490C809189049091C6
:104940008A048130910509F0EBC08CE10E94F90BDB
:1049500010928A0410928904809116019091170197
:10496000039709F07BC00E94BA120E94490C809103
:10497000890490918A048430910509F0DFC088E0B1
:1049800090E090931701809316010E94390C62EF1A
:1049900070E087EA95E00E94760860910C0187EA52
:1049A00095E00E94D71F60E287EA95E00E946F08B9
:1049B00060910D0187EA95E00E94D71F6DE287EABA
:1049C00095E00E946F0860910E0187EA95E00E94D1
:1049D000D71F60E287EA95E00E946F0860910F019F
:1049E00087EA95E00E94D71F6DE287EA95E00E9472
:1049F0006F086091100187EA95E00E94D71F60E27E
:104A000087EA95E00E946F086091110187EA95E0BE
:104A10000E94D71F6DE287EA95E00E946F086091BF
:104A2000120187EA95E00E94D71F60E287EA95E0CD
:104A30000E946F086FEE70E087EA95E00E947608AA
:104A40006091130187EA95E00E94D71F1092BE047F
:104A50001092BD0410928A0410928904809116016C
:104A6000909117010697D1F40E94BA12809189049F
:104A700090918A048430910509F0B9C00E94C02148
:104A800085E090E090931701809316019093BE0407
:104A90008093BD0410928A041092890480911601BB
:104AA00090911701079709F0EFC00E94BA12809108
:104AB000890490918A048130910509F0A1C08CE1AC
:104AC0000E94F90B80911501811103C088E2809347
:104AD00015018091150181508093150161E00E94BC
:104AE0000A0C81E080938804CBC08430910579F46E
:104AF00080911401885F809314012091A00430916B
:104B0000A1048217130609F00CF405CFA9CE853055
:104B1000910509F004CF9093170180931601FFCE01
:104B20008430910511F488E111CF8530910509F0A9
:104B30000FCF90931701809316010ACF8230910511
:104B400051F587E090E090931701809316010E9441
:104B5000390CF12CE12C0E2DFA82E982CE0101965E
:104B60000E941221682F87EA95E00E94D71F8E2DA0
:104B70008B7F833019F06EE20B3009F460E287EA34
:104B800095E00E946F085FEFE51AF50A8CE0E816E1
:104B9000F10409F75BCF81309105C9F486E090E01C
:104BA00090931701809316010E94390C66E071E022
:104BB00087EA95E00E94760861E080E00E940A0C96
:104BC00065EF70E087EA95E00E9476083FCF83307A
:104BD000910521F488E10E94F90B3CCF85309105C5
:104BE00009F038CF909317018093160133CF8530A9
:104BF000910509F04FCF90931701809316014ACF8A
:104C00008230910509F087C100911501033008F049
:104C1000E5C0D0908804ED2CF12C90E080E00E945B
:104C2000B038282F30E00111C6C0C90164E670E039
:104C30000E94153AA4E6DA9E800D911D11248F3F43
:104C4000910509F0ECF4682F90E080E00E94B838FC
:104C500060E0809115010E940A0C6091880487EA47
:104C600095E00E94D71F61E0809115010E940A0C17
:104C7000809188048F5F8A3009F034CF10928804C5
:104C800010928A0410928904809116019091170164
:104C9000089751F50E94BA1261E0809115010E94B7
:104CA0000A0C0E94400C8091890490918A04813002
:104CB000910509F059C18CE10E94F90B8091150111
:104CC000811103C088E28093150180911501815004
:104CD0008093150161E00E940A0C81E080938804B2
:104CE00010928A041092890463961FAE63970E9403
:104CF000220D6093840470938504809386049093BE
:104D0000870480918304882331F08DE063968FAF10
:104D1000639710928304E0917405E353E53008F043
:104D200089C3F0E0E25DFE4F8081882309F482C3ED
:104D300080917B05882309F46DC3809174058433C9
:104D400009F46EC3873309F47DC38FEF8093850523
:104D500010928605109287050E942E0D8FEB94E02D
:104D60000E94CD1B892B09F479C381E080938304D1
:104D70004EE150E063EC72E08FEB94E00E9463122E
:104D800063EC72E082E396E00E94102164E171E03E
:104D900082E396E00E94760880E0E82FF0E0DF01F1
:104DA000AD53BD4F9C91EB59FB4F992309F455C36B
:104DB00090838F5FF2CF013029F4B701C9010E94BF
:104DC00082113DCFC9016AE070E00E94153AF901F5
:104DD000E81BF90BCF018E0D9F1D31CF0730F0F589
:104DE0000430C9F40091880481E090E00E94B0385A
:104DF00090E064E670E00E94153AF4E60F9F800DA3
:104E0000911D11248F3F910511F00CF039CF682FBF
:104E100081E090E01BCF053059F481E090E00E94E2
:104E2000B0386091880470E090E00E948211EACF6F
:104E3000063009F025CF81E090E00E94B038282F9D
:104E400030E0C9016AE070E00E94153A281B390B76
:104E500080918804820F932F911DD4CF0830D1F414
:104E600082E090E00E94B038282F30E0C9016AE06B
:104E700070E00E94153A281B390B60918804620F7C
:104E8000732F711D6F3F710511F00CF0F9CE82E0A8
:104E900090E0DCCE0D3008F0F3CE0A30C9F400917A
:104EA000880483E090E00E94B03890E064E670E00F
:104EB0000E94153A24E6029F800D911D11248F3F18
:104EC000910511F00CF0DCCE682F83E090E0BECEAF
:104ED0000B3059F483E090E00E94B0386091880470
:104EE00070E090E00E948211EACF0C3009F0C8CE49
:104EF00083E090E00E94B038282F30E0C9016AE0DA
:104F000070E00E94153A281B390B80918804820FAB
:104F1000932F911DD4CF8330910541F461E08091AE
:104F200015010E940A0C0E94400CA8CE8430910505
:104F300091F488E10E94F90B80911501883211F4F7
:104F400010921501809115018F5F8093150161E02A
:104F50000E940A0C93CE8530910509F091CE909372
:104F60001701809316018CCE8230910509F027C27B
:104F700080911501823019F520910C01822F64E691
:104F80000E94093A892F6AE00E94093A01E0080F5D
:104F90000A3009F400E0602F70E0822F90E00E9458
:104FA000821120910D012817190609F00CF498CEF2
:104FB00080930C01602F82E00E941C2091CE8330F0
:104FC00009F520910C01822F6AE00E94093A41E024
:104FD000490F4A3009F440E030E0C9016AE070E06E
:104FE0000E94153A281B390B240F311D80910D01A9
:104FF0008217130609F00CF473CE20930C01642F72
:1050000083E0DACF853009F520910D01822F64E627
:105010000E94093A892F6AE00E94093A01E0080FCC
:105020000A3009F400E0602F70E0822F90E00E94C7
:10503000821120910E012817190609F00CF450CEA8
:1050400080930D01602F85E0B7CF863009F5209160
:105050000D01822F6AE00E94093A41E0490F4A306F
:1050600009F440E030E0C9016AE070E00E94153ABE
:10507000281B390B240F311D80910E018217130656
:1050800009F00CF42DCE20930D01642F86E094CF0F
:10509000883009F520910E01822F64E60E94093ABA
:1050A000892F6AE00E94093A01E0080F0A3009F4EA
:1050B00000E0602F70E0822F90E00E94821120912A
:1050C0000F012817190609F00CF40ACE80930E017F
:1050D000602F88E071CF893009F520910E01822F71
:1050E0006AE00E94093A41E0490F4A3009F440E081
:1050F00030E0C9016AE070E00E94153A281B390BC4
:10510000240F311D80910F018217130609F00CF452
:10511000E7CD20930E01642F89E04ECF8B3009F547
:1051200020910F01822F64E60E94093A892F6AE0DC
:105130000E94093A01E0080F0A3009F400E0602FEC
:1051400070E0822F90E00E948211209110012817B8
:10515000190609F00CF4C4CD80930F01602F8BE089
:105160002BCF8C3009F520910F01822F6AE00E942D
:10517000093A41E0490F4A3009F440E030E0C90102
:105180006AE070E00E94153A281B390B240F311D8C
:10519000809110018217130609F00CF4A1CD209321
:1051A0000F01642F8CE008CF8E3009F5209110019B
:1051B000822F64E60E94093A892F6AE00E94093A28
:1051C00001E0080F0A3009F400E0602F70E0822F40
:1051D00090E00E948211209111012817190609F010
:1051E0000CF47ECD80931001602F8EE0E5CE8F30E1
:1051F00009F520911001822F6AE00E94093A41E0EE
:10520000490F4A3009F440E030E0C9016AE070E03B
:105210000E94153A281B390B240F311D8091110172
:105220008217130609F00CF45BCD20931001642F54
:105230008FE0C2CE813109F520911101822F64E601
:105240000E94093A892F6AE00E94093A01E0080F9A
:105250000A3009F400E0602F70E0822F90E00E9495
:105260008211209112012817190609F00CF438CD8B
:1052700080931101602F81E19FCE823109F5209149
:105280001101822F6AE00E94093A41E0490F4A3039
:1052900009F440E030E0C9016AE070E00E94153A8C
:1052A000281B390B240F311D809112018217130620
:1052B00009F00CF415CD20931101642F82E17CCE0E
:1052C000843109F520911201822F64E60E94093A87
:1052D000892F6AE00E94093A01E0080F0A3009F4B8
:1052E00000E0602F70E0822F90E00E9482112091F8
:1052F00013012817190609F00CF4F2CC809312015F
:10530000602F84E159CE853109F520911201822F59
:105310006AE00E94093A41E0490F4A3009F440E04E
:1053200030E0C9016AE070E00E94153A281B390B91
:10533000240F311D809113018217130609F00CF41C
:10534000CFCC20931201642F85E136CE8931D1F480
:1053500020911301822F64E60E94093A892F6AE0A6
:105360000E94093A01E0080F0A3009F400E0602FBA
:1053700070E0822F90E00E94821180931301602FD1
:1053800089E11ACE8A3109F0ABCC20911301822F2A
:105390006AE00E94093A41E0490F4A3009F440E0CE
:1053A00030E0C9016AE070E00E94153A281B390B11
:1053B000240F311D20931301642F8AE1FDCD83302A
:1053C000910551F461E0809115010E940A0C0E9440
:1053D000400C1092880484CC8430910591F488E1CB
:1053E0000E94F90B80911501883211F41092150179
:1053F000809115018F5F8093150161E00E940A0C76
:10540000E8CF8530910509F06BCC9093170180931C
:10541000160166CC0E94C615882309F496CC8DCC63
:1054200080E591E00E94650285E390E00E949B1573
:1054300085FD8BCC1092850580E8809386051092BF
:1054400087058CC080E591E00E9465028EE290E0C5
:105450000E949B1580FD79CCEDCF108226E636E6C2
:1054600046EE5FE36091B2027091B3028091B402A4
:105470009091B5020E94943720E030E040E052E481
:105480000E94DB380E94B93980910C0186171706FB
:1054900064F580910D018617170609F034F48091A8
:1054A0000E01861717060CF097C080910F01861722
:1054B000170609F034F480911001861717060CF0D6
:1054C0008DC0809111018617170609F034F4809180
:1054D0001201861717060CF083C0809113018617FE
:1054E000170609F01CF419E001C015E08091B6021E
:1054F0008117B1F189E292E09A83898380919104C6
:1055000090919204A0919304B09194048B839C8316
:10551000AD83BE834EE65CECBE016F5F7F4F8FEBC9
:1055200094E00E942807153009F05CC01093B60281
:1055300064E571E08FEB94E00E9476088FEF809332
:1055400089051092880580938A0580918B048F5F6E
:1055500080938B048FEB94E00E94FF190E942E0D24
:1055600082E396E00E94C0077C01892B09F48EC07B
:1055700082E396E00E949E070E94CB3863968FAF2D
:105580006397BE016E5A7F4F85E694E00E947302D6
:1055900063968FAD63978F3709F070C06EE672E047
:1055A00082E396E00E94102168E772E082E396E0D1
:1055B0000E9410216EE672E082E396E00E941021C4
:1055C00080E0E82FF0E0DF01AB59BB4F9C919923BD
:1055D00009F44AC08F5FF5CF16E088CF17E086CF79
:1055E00018E084CF163071F41093B60268E471E0CD
:1055F0008FEB94E00E94760810928805109289053E
:105600008FEFA1CF173081F41093B6026CE371E0F5
:105610008FEB94E00E9476088FEF809388051092BC
:10562000890510928A0591CF183079F41093B6024B
:1056300061E371E08FEB94E00E9476088FEF809336
:1056400089058BE480938805ECCF89E08093B602CE
:1056500066E271E08FEB94E00E9476081092880574
:1056600080E880938905DDCF882341F0EC59FB4F1A
:1056700080818F3719F4108212971C9263966FAD58
:10568000639782E396E00E946F086ACF63968FADBE
:1056900063978D3009F0FEC36DE472E082E396E01B
:1056A0000E94F41E8EE362968FAF6297BE016F5A1E
:1056B0007F4F81E094E00E94730280918C048F5FA1
:1056C00080938C04D12CAEE1CA2E80E0E82FF0E06C
:1056D000EB59FB4F9081992311F08F5FF7CFD816CC
:1056E00008F041C00D2D10E00B591B4FB80181E0AF
:1056F00094E00E947302D801BC908B2D0B2C000CFF
:10570000990B0E942537892B89F48091FF03E09142
:105710000004CE9EF0011124EF50FD4FE80FF11D63
:10572000B0828F5F8093FF03D394CFCFF80131977E
:105730008081082E000C990B0E942537892BA1F738
:1057400080910004E091FF03C89E900111242F5026
:105750003D4FE20FF32FF11D10828F5F8093000405
:105760001092FF03E1CFE1EF8E2EE2E09E2EF3EEEA
:10577000CF2EF2E0DF2E840164961FAE6497312CA9
:10578000512C44244A94F8012080622C022C000CF5
:105790007708F0E36F1A710873E3A72E71E0B72E54
:1057A000D5018C91281271C0F801918111968C91CC
:1057B00098136BC080E0282F30E0F801E20FF31F50
:1057C0009081992311F08F5FF6CFD50112968C91BD
:1057D0001297082E000C990B2817390709F055C0AD
:1057E00013968C91F60180832FEF2183B4E0AB0EEA
:1057F000B11CE3E9F1E0EA15FB0591F65394025E72
:105800001F4FFFEFCF1ADF0A29E05212BCCFE5E6A7
:10581000F4E08EE1DF011D928A95E9F7809184041E
:1058200090918504A0918604B09187044091ED0287
:105830005091EE026091EF027091F002841B950B83
:10584000A60BB70B853F9140A105B10508F4E9C24D
:105850001092EC02E091E302E850E03108F0DFC280
:10586000F0E0EB5CF34D0C94293A072F572D0F2FE6
:10587000C92E322E0F2F0F2F0F2FF82F1E31703001
:10588000C7300F2F0F2F0F2F9D328091E3024AE078
:105890006416710430F1823109F0A8CF5DE225125F
:1058A000A5CFD80111968C91082E000C990BC097AA
:1058B0000A9708F09BCF91E0591248C0C8010E9496
:1058C000FF119B01AC01215030484F4F5F4F2F3FDC
:1058D0003F4F4105510508F45BC0332009F486CFE2
:1058E0005BC08830E1F48091E402843009F05DC04F
:1058F0002DE0F6012083C8010E94FF119B01AB013E
:10590000BC014115510581E06807710508F06ECFB3
:105910005093E6022093E7024092E80267CF82317B
:1059200051F2833109F062CF4DE04093E402C801A7
:105930000E9442128F3F910509F0A4F5D6011196FD
:105940008C931197EFEF1296EC9350CFB2E05B126D
:10595000C4CFC8010E94FF119B01AC012150304807
:105960004F4F5F4F2F3F3F4F4105510508F0B5CFD7
:105970007093E6026093E702332009F493C04092EB
:10598000E802F1E06496FFAF6497332433942ECF9E
:105990007093E4026093E50264962FAD649722232E
:1059A000A1F3EDCF4092E30221CF8F3009F01ECF5B
:1059B000F2E05F1215C0C8010E9442129C01215002
:1059C00031092C30310548F04092E3028091010109
:1059D0008093E5024092EB0209CF80930101F6CF5C
:1059E00023E0521213C0C8010E9442129C012150B0
:1059F00031092F31310538F04092E30280910001E6
:105A00008093E602E7CF80930001F8CF44E0541280
:105A100010C0C8010E9442128436910538F04092AD
:105A2000E3028091BA028093E702D4CF8093BA0256
:105A3000F8CF55E0551210C0C8010E9442128831BB
:105A4000910538F04092E3028091B9028093E80218
:105A5000C1CF8093B902F8CF86E0581210C0C801B8
:105A60000E9442128C33910538F04092E3028091FB
:105A7000B8028093E902AECF8093B802F8CF97E0E6
:105A80005912A8CFC8010E9442128C33910538F0F8
:105A90004092E3028091B7028093EA029BCF809309
:105AA000B702F8CFA1E06496AFAF64979FCE809124
:105AB000E4028A3009F0B3C18091E5028F3F09F01A
:105AC000AEC189E292E09A8389838091910490919A
:105AD0009204A0919304B09194048B839C83AD8332
