:100000000C942A020C9452020C9452020C94520248
:100010000C9452020C9452020C9452020C94520210
:100020000C9452020C9452020C9452020C94520200
:100030000C9452020C9452020C9452020C945202F0
:100040000C944A230C9452020C9418230C94F22220
:100050000C9452020C9452020C9452020C945202D0
:100060000C94D3210C9452022A494E56414C4944D7
:1000700020434F4D4D414E44002A494E56414C4974
:100080004420434F4D4D414E44002052482520000E
:10009000202A4320000000000800020100000304A1
:1000A0000700000000000000003E57656C636F6DA4
:1000B0006520746F2041726475696E6F20436F6DA7
:1000C0006D616E64204C696E6520496E7465727056
:1000D00072657465722C20656E74657220274845C0
:1000E0004C502720666F72206C697374206F6620F5
:1000F000636F6D6D616E6473210A002052482500A4
:10010000202A462C2000202A432C2000205248255B
:100110000048756D69643A2000202A432000546528
:100120006D703A2000203C204572617365203E20AE
:1001300054656D70205468726573686F6C647300E9
:10014000205E2049502F5375626E65742F4761748D
:1001500065776179003E3D003C3D00596573282D6F
:100160003E29204E6F28486F6D6529004172652039
:10017000596F7520537572653F00202A5041434BDB
:100180004554205245434549564544004D616A6FE8
:1001900072204F766572004D696E6F72204F7665E2
:1001A0007200436F6D666F727461626C65004D69B9
:1001B0006E6F7220556E646572004D616A6F7220B9
:1001C000556E646572003E20424C494E4B20494EAC
:1001D00054455256414C2053455420544F3A200028
:1001E0004F4646003E2052474220003E20524742A2
:1001F00020003E2052474220424C494E4B494E4738
:100200002028004F464620004F4646003E204C45E1
:100210004420003E204C45442000455155414C535C
:100220003A2000455155414C533A20002041743A40
:1002300020004F6E3A200020524825200048756D5E
:1002400069646974793A2000202A43200054656D5E
:10025000703A2000202A4320004C4F574553542029
:1002600054454D503A2000202A4320004849474831
:100270004553542054454D503A2000202A43200035
:100280004C4F574553542054454D503A2000202A96
:10029000432000484947484553542054454D503A5F
:1002A00020002A4E4F2044415441205945540056C5
:1002B000657273696F6E3A20002D3E48454C5000C0
:1002C0002D3E56455253494F4E002D3E5247422037
:1002D000424C494E4B002D3E524742204F4646006D
:1002E0002D3E524742204F4E002D3E524742203C69
:1002F0007265643E203C677265656E3E203C626CB0
:1003000075653E002D3E414444203C6E756D62652E
:1003100072313E203C6E756D626572323E002D3E3C
:1003200054454D502048494748204C4F57002D3EDA
:1003300054454D5020484953544F5259002D3E4387
:10034000555252454E542054454D50002D3E534574
:10035000542054494D45203C6D6F6E74683E203CDE
:100360006461793E203C796561723E203C686F751E
:10037000723E203C6D696E7574653E203C7365630A
:100380006F6E643E002D3E43555252454E542054EC
:10039000494D45002D3E535441545553204C45443E
:1003A00053002D3E424C494E4B203C6E756D6265AC
:1003B000723E002D3E4C454420414C5445524E4126
:1003C0005445002D3E4C454420424C494E4B002D97
:1003D0003E4C4544204F4646002D3E4C454420525D
:1003E0004544002D3E4C454420475245454E00545F
:1003F000686520617661696C61626C6520636F6D10
:100400006D616E6473206172653A20000000000027
:1004100023002600290000000000250028002B00F2
:1004200000000000240027002A0001020408102018
:100430004080010204081020010204081020040476
:10044000040404040404020202020202030303037C
:100450000303EA2411241FBECFEFD8E0DEBFCDBFD7
:1004600012E0A0E0B1E0EEE3F3E702C005900D92E8
:10047000AA39B107D9F726E0AAE9B2E001C01D9276
:10048000A83EB207E1F712E0CAE2D2E004C0219729
:10049000FE010E947C39C932D107C9F70E940225AA
:1004A0000C9475360C94000080E480937C0080915D
:1004B0007A00806480937A0080917A0086FDFCCF78
:1004C000809178009091790008958CBD9DBD08952C
:1004D000E091B605F091B7050190F081E02D682F0D
:1004E00086EB95E009949C0190E0F901E90FF11D7C
:1004F0008081811105C0DB018C9180831182089578
:100500009F5FF3CF80919F05811145C010929105A7
:10051000109290058FEF80939405809395058093BA
:10052000960580939705809398058093990581E0BF
:1005300080939A0510929C0510929B05109293054A
:10054000109292058091D5069091D606892B31F4B0
:100550008EE895E09093D6068093D506E0918005CD
:10056000F0918105309721F08EE895E095838483A2
:100570008EE895E0909381058093800510929E050A
:1005800010929D058FE392E090938F0580938E05E6
:1005900081E080939F05E0918E05F0918F050480A6
:1005A000F581E02D8EE895E0099582E895E090933D
:1005B00091058093900584E090E090939C05809352
:1005C0009B05E0918E05F0918F050284F385E02D67
:1005D0008EE895E00995009701F19C0150E040E01C
:1005E00060E472E48FE090E00E94A8378091DE061C
:1005F0009091DF06A091E006B091E1068217930783
:10060000A407B50710F4DA01C9018093DE069093C0
:10061000DF06A093E006B093E1068EE895E008952A
:1006200087E193E090937F0580937E050895089578
:100630008FE193E090937D0580937C050895089564
:1006400020912F05260F3327331F21323105ECF47B
:1006500020912C06FC0190E080E0243069F082E0DB
:100660000895A0912F052191AC01415F5A4FA40F2D
:10067000B52FB11D2C930196861798F380912F0505
:10068000680F60932F0580E0089581E00895089534
:10069000E091B5058091B405E81730F4F0E0E45F2F
:1006A000F94F808190E008958FEF9FEF089590912A
:1006B000B5058091B4052FEF3FEF981748F4E92F67
:1006C000F0E0E45FF94F208130E09F5F9093B50543
:1006D000C90108958091B4059091B505891B990BC6
:1006E0000895CF92DF92EF92FF920F931F93CF93D3
:1006F000DF937C01CB018A012091C205222389F07E
:10070000EB016B01C40ED51ECC15DD0569F06991B6
:10071000D701ED91FC910190F081E02DC701099581
:10072000F3CF642F0E942003C801DF91CF911F9166
:100730000F91FF90EF90DF90CF900895CF93DF93CC
:100740001F92CDB7DEB769832091C2052223F9F04D
:100750002091C505203258F021E030E0FC013383C0
:10076000228390E080E00F90DF91CF9108958091F7
:10077000C305E82FF0E0EA53FA4F998190838F5F29
:100780008093C3058093C50581E090E0ECCF61E0E4
:10079000CE0101960E942003F7CFFC0120812EBDDF
:1007A0009B012150310941F051810DB407FEFDCF6D
:1007B0004EB55EBD4193F5CF61507109860F971F0D
:1007C0000DB407FEFDCF2EB5FC0120830895E09106
:1007D000FF04F091000580819091FE04892B8083B5
:1007E0000895E091FF04F091000590818091FE044E
:1007F00080958923808308958EBD00000DB407FE87
:10080000FDCF8EB50895AF92BF92CF92DF92EF9257
:10081000FF920F931F93CF93DF93CDB7DEB7289747
:100820000FB6F894DEBF0FBECDBF8C017B016A010D
:10083000809174058333E1F45801A40EB51EA0160F
:10084000B10609F46FC00E94F10380EF0E94FC031F
:10085000812F0E94FC03802F0E94FC030F5F1F4F1B
:10086000F70181917F010E94FC030E94E703E7CF1B
:100870005B01A40EB51E8433C1F40E94F1031983F9
:100880000A838D2D80688B83CC8264E070E0CE017A
:1008900001960E94CD03AE14BF0409F441C0F701D4
:1008A00081917F010E94FC03F6CF0E94F1030F3F6C
:1008B000110509F028F419820A8384E08B830CC0A7
:1008C00017FD17C019820A8333E0169507953A95EC
:1008D000E1F7007E0C600B8386E0C816D104A0F51A
:1008E000F701DE011496EA15FB0599F081918D93CD
:1008F000FACFC80126E0969587952A95E1F7807E84
:1009000019830A830115104C10F48461D7CF8C61D0
:10091000D5CFB6016D5F7F4FCE0101960E94CD030A
:100920000E94E703C60128960FB6F894DEBF0FBEFB
:10093000CDBFDF91CF911F910F91FF90EF90DF908E
:10094000CF90BF90AF90089563E070E0CE01019624
:100950000E94CD03F70181917F010E94FC03AE1438
:10096000BF04C1F7DDCFCF93DF931F92CDB7DEB7C2
:10097000898341E050E0BE016F5F7F4F90E080E0EF
:100980000E9403040F90DF91CF91089590E0209191
:100990007405233339F40C96982F990F990F990FFA
:1009A00080E008954896F8CFDA01E091B305F0E0D1
:1009B000FE2FEE27E60FF71F90E0982F8827A9015A
:1009C000BD018E0F9F1F0C940304CF93DF9300D0C3
:1009D000CDB7DEB779836A8322E030E0AE014F5FA6
:1009E0005F4F64E070E00E94D4040F900F90DF919D
:1009F000CF910895CF93DF931F92CDB7DEB72091AB
:100A0000B30530E0322F2227260F371F90E0982FB2
:100A10008827498341E050E0BE016F5F7F4F820F1E
:100A2000931F0E9403040F90DF91CF910895CF92FE
:100A3000DF92EF92FF920F931F93CF93DF93EC011E
:100A40007A016901E881F9810190F081E02D099531
:100A5000E881F9810084F185E02D9801A601B701B4
:100A6000CE01DF91CF911F910F91FF90EF90DF901A
:100A7000CF9009946F927F928F929F92AF92BF9284
:100A8000CF92DF92EF92FF920F931F93CF93DF935A
:100A9000CDB7DEB7AC970FB6F894DEBF0FBECDBFB3
:100AA000DC011696ED91FC91319609F48BC0590149
:100AB0003A016B018C01FE0131964F0188E2DF01A2
:100AC0001D928A95E9F7D801ED91FC910488F5898A
:100AD000E02DB401C80109957C01892B09F05CC0A7
:100AE0001AA619A61CA61BA6D801ED91FC91068892
:100AF000F789E02D9E01255D3F4FAE01475D5F4FB9
:100B0000B401C80109957C01892B09F045C0A114E5
:100B1000B10439F088E2F401D50101900D928A9573
:100B2000E1F7C114D10409F189A59AA521E030E0CB
:100B300097FF02C02FEF3FEF9F77829FB001839F07
:100B4000700D929F700D1124072E000C880B990BCD
:100B50000E94883620E030E040E251E40E949A385A
:100B6000F601608371838283938361147104A1F021
:100B70006BA57CA5072E000C880B990B0E9488366C
:100B800020E030E040E251E40E949A38D3016D93B6
:100B90007D938D939C931397C701AC960FB6F894F1
:100BA000DEBF0FBECDBFDF91CF911F910F91FF90A0
:100BB000EF90DF90CF90BF90AF909F908F907F90FD
:100BC0006F90089587E1E82EF12CE6CF8F929F92E7
:100BD000AF92BF92CF92DF92EF92FF920F931F934B
:100BE000CF93DF93EC018B016A017901E881F981F0
:100BF0000288F389E02D0995B82EB801685F7F4F10
:100C0000E881F9810288F389E02DCE010995982EBB
:100C1000B801605F7F4FE881F9810288F389E02D98
:100C2000CE010995A82EB801685E7F4FE881F98151
:100C30000288F389E02DCE010995882EB801605E07
:100C40007F4FE881F9810288F389E02DCE01099573
:100C50009B2D990D9A0D980D891319C09A2D882DE9
:100C6000F601918380839B2D892DF70191838083E9
:100C700090E080E0DF91CF911F910F91FF90EF9076
:100C8000DF90CF90BF90AF909F908F90089585E1B7
:100C900090E0F0CF47E050E080E0FB012191BF0100
:100CA000042E01C0220F0A94EAF7820F4150510925
:100CB000A0F70895FC01828590E00895FC018185EC
:100CC00090E00895CF92DF92EF92FF920F931F93DF
:100CD000CF93DF93EC017A016901E881F9810190FA
:100CE000F081E02D0995E881F9810480F581E02DFE
:100CF0009801A601B701CE01DF91CF911F910F910D
:100D0000FF90EF90DF90CF900994CF92DF92EF9217
:100D1000FF920F931F93CF93DF93CDB7DEB7289742
:100D20000FB6F894DEBF0FBECDBFDC011696ED9175
:100D3000FC91319609F440C08A017B0119821A8224
:100D40001B821C821D821E821F821886DC01ED918F
:100D5000FC910084F185E02DAE014B5F5F4FBE0139
:100D60006F5F7F4F09956C01892BB1F4E114F10499
:100D700041F069817A818B819C810E940C39F70155
:100D800060830115110541F06D817E818F81988509
:100D90000E940C39D8016C93C60128960FB6F894BE
:100DA000DEBF0FBECDBFDF91CF911F910F91FF909E
:100DB000EF90DF90CF90089587E1C82ED12CECCF33
:100DC000262F2D7F29F4FC01608790E080E00895B4
:100DD00088E190E00895DC0117967C936E93169756
:100DE000FB01E65DFB4FE4911996EC931997625C69
:100DF0007B4FFB0164911A966C9308956AE00E9400
:100E00005C39292F30E1839FC0011124822B089582
:100E1000982F92959F708F702AE0929F800D1124D9
:100E200008950895CF93DF931F92CDB7DEB76983FE
:100E3000DC01ED91FC910280F381E02D41E050E076
:100E4000BE016F5F7F4F09950F90DF91CF9108959D
:100E5000DF92EF92FF920F931F93CF93DF9300D017
:100E6000CDB7DEB7FB01DC0157961C921E92569758
:100E70002281211109C02381211106C02481211161
:100E800003C02581222369F14115510551F17A01F1
:100E90008F01FC01D08C80E591E00E946502A801E1
:100EA0004E5F5F4F24E030E06CE070E08D2D0E94DB
:100EB000D404F982EA8222E030E0AE014F5F5F4F56
:100EC00060E170E08D2D0E94D40481E090E00F90ED
:100ED0000F90DF91CF911F910F91FF90EF90DF90D6
:100EE000089580E0F3CFFC01818D928D0895FC017F
:100EF000848595850895FC0184899589089529E262
:100F000032E0FC0131832083FB01408951896289F1
:100F10007389FC0142835383648375830895FC01C4
:100F2000538D448D252F30E0842F90E0821B930B4E
:100F3000541710F0CF96089501970895FC01918DF4
:100F4000828D981761F0A28DAE0FBF2FB11D5D96F7
:100F50008C91928D9F5F9F73928F90E008958FEF99
:100F60009FEF0895FC01918D828D981731F0828D4D
:100F7000E80FF11D858D90E008958FEF9FEF0895A4
:100F8000FC01918D228D892F90E0805C9F4F821B08
:100F900091098F7399270895FC01A48DA80FB92F8B
:100FA000B11DA35ABF4F2C91848D90E001968F7391
:100FB0009927848FA689B7892C93A089B1898C91B0
:100FC000837080648C93938D848D981306C00288FF
:100FD000F389E02D80818F7D80830895EF92FF92C9
:100FE0000F931F93CF93DF93EC0181E0888F9B8D4C
:100FF0008C8D98131AC0E889F989808185FF15C006
:101000009FB7F894EE89FF896083E889F989808128
:101010008370806480839FBF81E090E0DF91CF91F7
:101020001F910F91FF90EF900895F62E0B8D10E019
:101030000F5F1F4F0F731127E02E8C8D8E110CC088
:101040000FB607FCFACFE889F989808185FFF5CFD3
:10105000CE010E94CC07F1CFEB8DEC0FFD2FF11DDF
:10106000E35AFF4FF0829FB7F8940B8FEA89FB8910
:1010700080818062CFCFCF93DF93EC01888D88236E
:10108000B9F0AA89BB89E889F9898C9185FD03C0EB
:10109000808186FD0DC00FB607FCF7CF8C9185FFD0
:1010A000F2CF808185FFEDCFCE010E94CC07E9CF42
:1010B000DF91CF91089582E396E00E94C00721E07E
:1010C000892B09F420E0822F089580E090E0892B9D
:1010D00029F00E945B0881110C9400000895DC0146
:1010E000ED91FC910190F081E02D0994EF92FF9237
:1010F0000F931F93CF93DF938C017B01D0E0C0E06F
:10110000F701EC0FFD1F6491662361F0D801ED91AA
:10111000FC910190F081E02DC8010995892B11F017
:101120002196EECFCE01DF91CF911F910F91FF90CD
:10113000EF900895AF92BF92CF92DF92EF92FF921D
:101140000F931F93CF93DF936C017B018B01040FEF
:10115000151FEB015E01AE18BF08C017D10759F08B
:101160006991D601ED91FC910190F081E02DC601CD
:101170000995892B79F7C501DF91CF911F910F91C7
:10118000FF90EF90DF90CF90BF90AF9008950895BB
:10119000089590E0FC01EB56FF4F2491FC01E65DC1
:1011A000FB4F3491FC01E25CFB4FE491EE23C9F06C
:1011B000222339F0233001F1A8F4213019F1223033
:1011C00029F1F0E0EE0FFF1FEA5EFB4FA591B4910D
:1011D0008FB7F894EC91611126C030953E233C9373
:1011E0008FBF08952730A9F02830C9F0243049F77F
:1011F000809180008F7D03C0809180008F778093E5
:101200008000DFCF84B58F7784BDDBCF84B58F7D41
:10121000FBCF8091B0008F778093B000D2CF8091C8
:10122000B0008F7DF9CF3E2BDACF10922C0681E0F3
:1012300080930B061092060661E082E10E94C908C5
:1012400061E083E10E94C908E9EBF0E080818E7FD4
:10125000808380818D7F808388E48093B80085E4DB
:101260008093BC0008951092B5051092B4051092B9
:10127000C3051092C5050E9415090E9418030C941D
:101280001003CF93DF9391E090930E058823B9F07C
:10129000C091B800D091BA008091BC008A7B809345
:1012A000BC0060E082E10E94C90860E083E10E9426
:1012B000C9080E941509D093BA00C093B800DF9105
:1012C000CF910895CF93DF9390E0FC01E65DFB4F53
:1012D0002491825C9B4FFC0184918823C9F090E0AB
:1012E000880F991FFC01E05EFB4FA591B491FC01B2
:1012F000EA5EFB4FC591D49161110DC09FB7F89480
:101300008C91209582238C938881282328839FBFEA
:10131000DF91CF910895623051F49FB7F8943C91DA
:10132000822F809583238C93E8812E2BEFCF8FB76C
:10133000F894EC912E2B2C938FBFEACF789484B540
:10134000826084BD84B5816084BD85B5826085BDC1
:1013500085B5816085BDEEE6F0E0808181608083A7
:10136000E1E8F0E01082808182608083808181608A
:101370008083E0E8F0E0808181608083E1EBF0E051
:10138000808184608083E0EBF0E0808181608083F5
:10139000EAE7F0E0808184608083808182608083DE
:1013A0008081816080838081806880831092C10009
:1013B00008958130910539F0880F991F880F991F82
:1013C00005970197F1F708953FB7F8948091BB0214
:1013D0009091BC02A091BD02B091BE0226B5A89B1F
:1013E00005C02F3F19F00196A11DB11D3FBFBA2FB7
:1013F000A92F982F8827BC01CD01620F711D811D77
:10140000911D42E0660F771F881F991F4A95D1F7FB
:101410000895CF92DF92EF92FF920F931F93CF9395
:10142000C82F813208F096C00E94E4096B017C014C
:1014300080912C06811169C081E080932C068093F5
:101440000B069FEF90930A06109209069C0F90934B
:1014500008068093070680910706806D8093070633
:1014600080910606813009F077C0109206060E942E
:10147000E4096B017C01809107068093BB00809199
:101480002E0690912F06A0913006B0913106892B3F
:101490008A2B8B2BA1F00E94E40900912E0610915B
:1014A0002F0620913006309131066C197D098E0986
:1014B0009F09061717072807390708F447C08091C6
:1014C000BC0083FDD8CF85EC8093BC000E94E4096A
:1014D0006B017C0180912C06813009F43FC0809122
:1014E00009068C1710F4C0910906A6EEB5E0ECE0F1
:1014F000F6E080E08C1354C08C2FCF911F910F9198
:10150000FF90EF90DF90CF90089580912E069091FC
:101510002F06A0913006B0913106892B8A2B8B2B98
:1015200009F486CF0E94E40900912E0610912F063F
:1015300020913006309131066C197D098E099F0982
:10154000061717072807390708F072CF80912D0674
:101550000E944109C0E0D0CF85EEB6CF80912E0623
:1015600090912F06A0913006B0913106892B8A2BDD
:101570008B2B09F4AFCF0E94E40900912E06109145
:101580002F0620913006309131066C197D098E09A5
:101590009F09061717072807390708F09BCFD6CFF2
:1015A0009D9191938F5FA6CF8F929F92AF92BF92A2
:1015B000CF92DF92EF92FF920F931F93CF93DF931F
:1015C000613208F0D1C0142FD62FC82F0E94E40931
:1015D0006B017C0180912C0681116BC082E08093AD
:1015E0002C0610930B068FEF80930A0610920906C3
:1015F000D0930806A6ECB5E0E6EEF5E080E0D8135F
:101600008BC01092070680910706CC0FC82BC093A1
:10161000070680910606813009F082C01092060606
:101620000E94E4096B017C01809107068093BB0056
:1016300080912E0690912F06A0913006B091310630
:10164000892B8A2B8B2BA1F00E94E40900912E0696
:1016500010912F0620913006309131066C197D09CA
:101660008E099F09061717072807390708F442C093
:101670008091BC0083FDD8CF85EC8093BC000E9494
:10168000E4096B017C0180912C06823009F44AC088
:1016900080910A068F3F09F469C080910A06803262
:1016A00009F466C080910A06803309F463C084E0BF
:1016B00026C080912E0690912F06A0913006B09101
:1016C0003106892B8A2B8B2B09F484CF0E94E409E5
:1016D00080902E0690902F06A0903006B090310694
:1016E0006C197D098E099F0986169706A806B9060A
:1016F00008F070CF80912D060E94410985E0DF91AE
:10170000CF911F910F91FF90EF90DF90CF90BF90FE
:10171000AF909F908F9008959D9191938F5F6FCF21
:1017200085EEABCF80912E0690912F06A0913006CA
:10173000B0913106892B8A2B8B2B09F4A4CF0E9400
:10174000E40900912E0610912F0620913006309169
:1017500031066C197D098E099F090617170728079E
:10176000390708F090CFC6CF81E0C9CF80E0C7CF5E
:1017700082E0C5CF83E0C3CF482F6091C50580913B
:10178000C4050E94D40A1092C3051092C505109298
:10179000C2050895FC01248131E03093C2052093F5
:1017A000C4051092C3051092C5058385862B90E071
:1017B0000E94680281E00C94BC0B0F931F93CF939F
:1017C0008C01C62F0E94CA0B6C2F6460C8010E9456
:1017D000CA0B81E090E00E94D9096C2F6B7FC80191
:1017E0000E94CA0B82E390E0CF911F910F910C945D
:1017F000D909CF93C82F682F607F87EA95E00E94B0
:10180000DD0B80E1C89FB001112487EA95E0CF91FC
:101810000C94DD0BCF93DF93CDB7DEB728970FB6CF
:10182000F894DEBF0FBECDBF98E0E0E2F1E0DE014C
:10183000119601900D929A95E1F79091B005961747
:1018400008F46FEF70E0660F771F21E030E02C0F97
:101850003D1F620F731FFB019081890F80682896DE
:101860000FB6F894DEBF0FBECDBFDF91CF910C94C1
:10187000F90B81E00E94F90B80ED97E00C94D909F7
:10188000E7EAF5E086818D7F868388600C94F90B0A
:101890000F931F93CF938C01C62F607F61600E94CE
:1018A000DD0B80E1C89FB00111246160C8010E9476
:1018B000DD0B81E090E0CF911F910F910895CF93C0
:1018C000C62F91E09093C20598E69093C4051092BC
:1018D000C3051092C505682F86EB95E00E949E0314
:1018E0006C2F86EB95E00E949E0381E0CF910C94D3
:1018F000BC0B91E09093C20598E69093C4051092BA
:10190000C3051092C505682F86EB95E00E949E03E3
:1019100081E00C94BC0B7F928F929F92AF92BF920A
:10192000CF92DF92EF92FF920F931F93CF93DF93AB
:10193000EC01162F7A0169010E94E4094B015C0158
:10194000712C1111798410E000E060E070E0CB01AF
:101950002A813B814C815D8126173707480759074B
:10196000F4F00115110561F5C7011E141F0464F19F
:101970000E94E409681979098A099B09EA85F0E05F
:10198000EE0FFF1FE45FFB4FA591B4912C910F5F09
:101990001F4F39852323271105C097FFD9CF6FEF3C
:1019A0007FEFCB01DF91CF911F910F91FF90EF90CF
:1019B000DF90CF90BF90AF909F908F907F900895D1
:1019C0001C141D04ACF6C6010E94D909D1CF8F9218
:1019D0009F92AF92BF92CF92DF92EF92FF924B0114
:1019E0005C010E94E4096B017C010E94E4096C190E
:1019F0007D098E099F09683E734081059105A8F312
:101A000021E0821A9108A108B10888EEC80E83E08F
:101A1000D81EE11CF11C81149104A104B10429F722
:101A2000FF90EF90DF90CF90BF90AF909F908F90FE
:101A300008952FB7F8946091B7027091B802809121
:101A4000B9029091BA022FBF08954F925F926F92A0
:101A50007F929F92AF92BF92CF92DF92EF92FF92CE
:101A60000F931F93CF93DF9300D01F92CDB7DEB7B4
:101A7000D090DB068091DE069091DF06A091E00613
:101A8000B091E106892B8A2B8B2BD9F00E94E409B7
:101A90000091D7061091D8062091D9063091DA0628
:101AA000601B710B820B930B0091DE061091DF0619
:101AB0002091E0063091E1066017710782079307D5
:101AC000C8F20E94E4096093D7067093D806809309
:101AD000D9069093DA06E091E606F091E706309792
:101AE00059F04091E2065091E3066091E40670914E
:101AF000E5068D2D0995D82EE090D506F090D606F6
:101B00004D2C512C712C612CE114F10409F459C0B5
:101B1000D7011C96CC901C978091DC069091DD0635
:101B20008436910510F41C961C92D701ED91FC911E
:101B3000A280B38019821A821B82DD2079F1F7011D
:101B4000369610E000E02191222319F1928099202D
:101B500001F130E050E040E02F5F3F4F4F4F5F4FCB
:101B6000C301B2010E944C399B01AC01892D90E068
:101B7000B0E0A0E0BC01CD016F5F7F4F8F4F9F4F62
:101B80000E944C39A1E0B0E0AC0FBD1FA00FB11F07
:101B90008C930F5F1F4F03301105A9F609811A813D
:101BA0002B81F7014585568562817381C701F50157
:101BB0000995D7011C96CC921C971496ED90FC9039
:101BC000A3CF8091D3069091D4068C010F5F1F4F55
:101BD0001093D4060093D3064997B4F10E94190DCF
:101BE000C090CF06D090D006E090D106F090D206FB
:101BF0009B01AC012C193D094E095F0921F421E03C
:101C000030E040E050E088EE93E0089FB001099F8B
:101C1000700D189F700D1124072E000C880B990B66
:101C20000E94D2373093DD062093DC061092D40652
:101C30001092D3060E94190D6093CF067093D006C0
:101C40008093D1069093D2060F900F900F90DF9162
:101C5000CF911F910F91FF90EF90DF90CF90BF90A9
:101C6000AF909F907F906F905F904F9008959C01F0
:101C70008FEF860F863078F4E62FF0E0E45FFE4FBA
:101C800081818217130639F034F03197908181E019
:101C9000921713060CF080E008950F931F93CF93D3
:101CA000DF932091A3022F5F322F37703093A3026E
:101CB00020FF2BC020E831FD2064347009F0206241
:101CC000205FFC01EC01239600E011E064856623AF
:101CD00029F070E0C8010E9468396F5F6187322F78
:101CE000369F030E30E0311D1124311110C01682D1
:101CF000662311F0615061873196EC17FD0731F7CB
:101D0000DF91CF911F910F91089520E0D4CF3150F2
:101D10003683EECF4F925F927F928F929F92AF92D7
:101D2000BF92CF92DF92EF92FF920F931F93CF93C8
:101D3000DF932C01EB010E94E409F2012785308931
:101D4000621B730B6A307105B0F3F8948A819B8132
:101D5000181619060CF0CDC1E881F9816BB1862EF9
:101D6000689487F83BB13F773BB9D9848E812D2D9C
:101D7000281B822F2E834F85042E000C550BAA8121
:101D8000BB817C85FD84EE847F5FF394E3949F8127
:101D90009884BA84AB841081C12C6C2D0C2D2C2D11
:101DA0002081112788942111280F08F42FEF8195A5
:101DB000889470FD120F1795889471FD120F179576
:101DC000889472FD120F1795889473FD120F179562
:101DD000889474FD120F1795889475FD120F17954E
:101DE000889476FD120F1795889477FD120F17953A
:101DF0008894622F7111612F8D0D162F002C8BB8D6
:101E000000C017FF3BB921816627889400C000C03D
:101E1000002C3BB92111290F00C0002C8BB800C049
:101E200016FF3BB908F42FEF9195889400C000C0CD
:101E3000002C3BB9F0FC620F00C0002C8BB800C036
:101E400015FF3BB967958894F1FC620F00C000C094
:101E5000002C3BB96795889400C0002C8BB800C05B
:101E600014FF3BB9F2FC620F6795889400C000C074
:101E7000002C3BB9F3FC620F00C0002C8BB800C0F3
:101E800013FF3BB967958894F4FC620F00C000C053
:101E9000002C3BB96795889400C0002C8BB800C01B
:101EA00012FF3BB9F5FC620F6795889400C000C033
:101EB000002C3BB9F6FC620F00C0002C8BB800C0B0
:101EC00011FF3BB967958894F7FC620F00C000C012
:101ED000002C3BB96795889400C0002C8BB800C0DB
:101EE00010FF3BB9122FF110162F9B0D00C000C040
:101EF000002C3BB900C000C0002C8BB800C017FFFD
:101F00003BB922816627889400C000C0002C3BB9F1
:101F10002111290D00C0002C8BB800C016FF3BB961
:101F200008F42FEFE40FF51F00C000C0002C3BB9F0
:101F3000E0FC620F00C0002C8BB800C015FF3BB95D
:101F400067958894E1FC620F00C000C0002C3BB98B
:101F50006795889400C0002C8BB800C014FF3BB973
:101F6000E2FC620F6795889400C000C0002C3BB96A
:101F7000E3FC620F00C0002C8BB800C013FF3BB91C
:101F800067958894E4FC620F00C000C0002C3BB948
:101F90006795889400C0002C8BB800C012FF3BB935
:101FA000E5FC620F6795889400C000C0002C3BB927
:101FB000E6FC620F00C0002C8BB800C011FF3BB9DB
:101FC00067958894E7FC620F00C000C0002C3BB905
:101FD0006795889400C0002C8BB800C010FF3BB9F7
:101FE000122FE110162F919400C000C0002C3BB9B5
:101FF0009A0C00C000C08BB800C017FF3BB920810D
:102000006627889400C000C0002C3BB92111280F1E
:1020100000C0002C8BB800C016FF3BB908F42FEFAE
:102020008195889400C000C0002C3BB970FD620F00
:1020300000C0002C8BB800C015FF3BB96795889491
:1020400071FD620F00C000C0002C3BB967958894F9
:1020500000C0002C8BB800C014FF3BB972FD620FAA
:102060006795889400C000C0002C3BB973FD620FD7
:1020700000C0002C8BB800C013FF3BB96795889453
:1020800074FD620F00C000C0002C3BB967958894B6
:1020900000C0002C8BB800C012FF3BB975FD620F69
:1020A0006795889400C000C0002C3BB976FD620F94
:1020B00000C0002C8BB800C011FF3BB96795889415
:1020C00077FD620F00C000C0002C3BB96795889473
:1020D00000C0002C8BB800C010FF3BB9122F71114B
:1020E000162F8D0D00C000C0002C3BB9119709F0D0
:1020F00086CE4A815B8120EE31E0DA010E9482398E
:10210000DC01CB01F4E0B695A79597958795FA95F4
:10211000D1F730E020E0B901EAE94E9F040E611DDD
:102120005E9F600D711D1124650F711D860F971F35
:10213000A11DB11D893E43E09407A105B10508F436
:1021400034C0885E9340A109B10942E0B695A795D5
:10215000979587954A95D1F747E0849F080E211DF2
:10216000949F200D311D1124290F311D6091A20271
:1021700070E0860F971F820F931F4091B702509116
:10218000B8026091B9027091BA02292F3327420F29
:10219000531F611D711D4093B7025093B8026093A5
:1021A000B9027093BA028093A20278940E94E40963
:1021B000F201708B6787DF91CF911F910F91FF9094
:1021C000EF90DF90CF90BF90AF909F908F907F90D7
:1021D0005F904F90089580E991E00895579A08958F
:1021E0006F927F928F92CF92DF92EF92FF920F9336
:1021F0001F93CF93DF93CDB7DEB762970FB6F894F6
:10220000DEBF0FBECDBF6C017A013801822EDC012A
:102210001C962C91CA0157FF04C088279927841B5C
:10222000950B7A8369839C838B839E838D836D86D4
:102230007E868F86213049F5CE0101960E944D0E93
:1022400083E0888B1A8A198AF7FE02C08DEF888B8B
:10225000D601ED91FC910484F585E02DBE016F5F00
:102260007F4FC601099562960FB6F894DEBF0FBE88
:10227000CDBFDF91CF911F910F91FF90EF90DF9035
:10228000CF908F907F906F9008951C861B861A8642
:10229000198618861F82D4CFEF92FF920F931F9357
:1022A000CF93DF93CDB7DEB762970FB6F894DEBF5A
:1022B0000FBECDBF7C01DC011C968C917A836983B3
:1022C0005C834B835E834D830D871E872F87813010
:1022D000F9F4CE0101960E944D0E188A1A8A198AC5
:1022E000D701ED91FC910484F585E02DBE016F5F6F
:1022F0007F4FC701099562960FB6F894DEBF0FBEF7
:10230000CDBFDF91CF911F910F91FF90EF90089576
:102310001C861B861A86198618861F82DECFCF93ED
:10232000DF93FC01EB0164E670E00E9468399F01D5
:10233000281B390BCF016AE070E00E946839280F32
:10234000391F4AE04C9FC0014D9F900D1124820F10
:10235000931FDF91CF910895E2E8F5E0108211829A
:1023600012821092F0020C94250DE2E8F5E08091C3
:102370000801808380910A01818380910601828314
:1023800081E08093F0020C94250D0F931F930E941F
:10239000190D00919A0210919B0220919C0230919C
:1023A0009D02061717072807390720F480911003AC
:1023B000811104C080910F03882359F110920F03FB
:1023C0000E94190D00910201109103012091040156
:1023D00030910501DC01CB01800F911FA21FB31FBB
:1023E00080939A0290939B02A0939C02B0939D02CB
:1023F0008091F002882331F01092F0021F910F912A
:102400000C94AC1181E08093F0021F910F910C9419
:10241000B5111F910F9108950F931F93CF93DF93E1
:10242000EC01E0E0F0E060E070E0CB01DE01AE0F37
:10243000B11D2C91222309F12D3211F4EF5FF1E04F
:10244000DE01AE0FB11D0C9120ED200F2A3018F5E2
:10245000AAE0B0E09B01AC010E94C737002E000C3F
:10246000110B220B330B600F711F821F931F6053E0
:10247000710981099109EF5FD9CFFF2339F0909558
:102480008095709561957F4F8F4F9F4FDF91CF91D2
:102490001F910F9108956FEF7FEFCB01F7CFFC01F4
:1024A00090E030E020E07AE0DF01A90FB11D6C91EF
:1024B0006623A1F080ED860F8A3070F4729FA00130
:1024C000739F500D11249A01260F311D67FD3A9517
:1024D000205331099F5FE8CF2FEF3FEFC9010895E7
:1024E000DC01ED91FC91048CF58DE02D099490E0D8
:1024F00080E00895FC018585968508950F931F93CC
:10250000CF93DF9300D01F92CDB7DEB7AB01198216
:102510001A821B82DC01ED91FC910190F081E02D8B
:1025200000E010E020E0BE016F5F7F4F09950F9043
:102530000F900F90DF91CF911F910F91089590E030
:1025400080E008950E945402823391058CF0833C10
:1025500091058CF08C3721E0920784F08B3222E0D9
:1025600092077CF0863193407CF090E080E0089503
:1025700081E090E0089582E090E0089583E090E0AB
:10258000089584E090E0089585E090E008950F9329
:102590001F93CF93DF930E94A212EC010E94190DAA
:1025A00000919E0210919F022091A0023091A10201
:1025B0000617170728073907B0F4CD2BC9F00E947A
:1025C000A2129093DB048093DA040E94190D6C50E0
:1025D0007E4F8F4F9F4F60939E0270939F02809318
:1025E000A0029093A102DF91CF911F910F910895C6
:1025F0000E94190D6C597F4F8F4F9F4FECCFBF92A8
:10260000CF92DF92EF92FF920F931F93CF93DF93BE
:1026100000D000D000D01F92CDB7DEB780E00E947E
:10262000790C87E00E94090A1092B5058093B405E1
:102630008730E1F586EB95E00E9457030E9408077A
:10264000B82E86EB95E00E9457030E940807C82E1B
:1026500086EB95E00E945703182F86FF3EC08F71CE
:102660000E9408070CE015FD00E0080F86EB95E0DE
:102670000E9457030E940807D82E86EB95E00E941F
:1026800057030E940807E82E86EB95E00E94570347
:1026900010E087FD14E68F770E940807F82E86EB7E
:1026A00095E00E9457030E940807180F2B2D3C2D20
:1026B000402F5D2DB701812F90E027960FB6F8943B
:1026C000DEBF0FBECDBFDF91CF911F910F91FF9065
:1026D000EF90DF90CF90BF9008958F730E9408070E
:1026E000082FC4CFCF93DF93EB010E94790C81E0D8
:1026F0000E94090A1092B5058093B40586EB95E017
:102700000E945703888381E0DF91CF910895EF9273
:10271000FF921F93CF93DF931F92CDB7DEB77C015B
:10272000162FBE016F5F7F4F8EE00E9472138111E2
:1027300008C080E00F90DF91CF911F91FF90EF9044
:10274000089581E08093C20588E68093C4051092C5
:10275000C3051092C505113089F587E090E00E940D
:102760006802F70180810E94FE0690E00E946802E4
:10277000898185608983F70181810E94FE0690E04E
:102780000E946802F70182810E94FE0690E00E948A
:102790006802F70184810E94FE0690E00E946802B0
:1027A00081E00E94BC0B8111C4CF69818EE00E9440
:1027B0005F0C8111BECF812F8770BCCF8BE090E082
:1027C0000E94680289818660D5CF85ED8093BC0028
:1027D00080912E0690912F06A0913006B09131067F
:1027E0000796A11DB11D23E0B695A79597958795EE
:1027F0002A95D1F72091BC0024FD03C010922C062D
:10280000089540912E0650912F06609130067091E8
:102810003106452B462B472B69F30097A105B105DF
:1028200041F025E32A95F1F700000197A109B109CC
:10283000E1CF80912D060C944109AF92BF92CF92C7
:10284000DF92EF92FF920F931F93CF93DF9300D00D
:1028500000D0CDB7DEB78C016B017A018091740591
:102860008333E9F45B016801C40ED51EC016D1069E
:10287000A9F10E94F1038FE00E94FC03812F0E94C6
:10288000FC03802F0E94FC030F5F1F4F80E00E941B
:10289000FC03F50181935F010E94E703E7CF8433D6
:1028A00069F50E94F10319830A838F2D8F778B833B
:1028B000EC8264E070E0CE0101960E94CD03A70196
:1028C00070E060E0C6010E942638E114F10421F0B6
:1028D000B701C6010E94CD030E94E703C7010F9014
:1028E0000F900F900F90DF91CF911F910F91FF905C
:1028F000EF90DF90CF90BF90AF9008950E94F103CA
:102900000F3F110509F030F419820A831B8263E03E
:1029100070E0D1CF17FD0BC019820A8333E0169502
:1029200007953A95E1F7007E08600B83F0CFC80168
:1029300026E0969587952A95E1F7807E19830A838C
:102940000115104C18F480618B83E1CF8861FCCFB6
:10295000FA012091B30530E0322F2227260F371FCE
:1029600090E0982F882742E050E0BF01820F931F2C
:102970000C941D14FF920F931F93CF93DF9300D0FD
:10298000CDB7DEB7F82EAE014F5F5F4F66E270E065
:102990000E94A81409811A81102701271027AE016F
:1029A0004F5F5F4F66E270E08F2D0E94A81489810F
:1029B0009A819827892798270817190749F4C80189
:1029C0000F900F90DF91CF911F910F91FF9008957D
:1029D0008C01E5CF3F924F925F926F927F928F92E0
:1029E0009F92AF92BF92CF92DF92EF92FF920F939E
:1029F0001F93CF93DF9300D0CDB7DEB75C014B01BF
:102A0000342E452EFC0166887788508C80E591E055
:102A10000E946502AE014F5F5F4F60E270E0852D5E
:102A20000E94A814C980DA80DC24CD24DC24AE0105
:102A30004F5F5F4F60E270E0852D0E94A81489818E
:102A40009A81982789279827C816D90609F077C050
:102A5000E52CF12C67E0569EF0011124E85AFA4F5C
:102A6000D582C482032D142DC016D10608F4860128
:102A7000AE014F5F5F4F64E270E0852D0E94A814A5
:102A800089819A81982789279827680E791E930152
:102A9000377040917405433309F053C088E0E80E65
:102AA000F11CFE2CEE24FF0CFF0CFF0CC9018E0D57
:102AB0009F1D473309F449C0A901400F511F413000
:102AC000584008F442C060E078E06B01C21AD30AB3
:102AD000A601B4010E940304A8014C195D09B401C8
:102AE0006C0D7D1DC7010E940304600E711E79826A
:102AF0006A8222E030E0AE014F5F5F4F64E270E037
:102B0000852D0E94D404F50186899789800F911F35
:102B1000978B868BC8010F900F90DF91CF911F91FB
:102B20000F91FF90EF90DF90CF90BF90AF909F906C
:102B30008F907F906F905F904F903F9008956C01C1
:102B400076CFE0E1EE0EF11CACCFA801B401CBCF03
:102B5000CF93DF931F92CDB7DEB741E050E0BE01C7
:102B60006F5F7F4F0E941D1489810F90DF91CF917D
:102B7000089590E080E00C94A815CF93DF93C4E112
:102B8000D0E00E94B915882361F061E070E080E038
:102B900090E00E94E70C2197A1F780E0DF91CF91B0
:102BA000089581E0FBCFDF92EF92FF920F931F9386
:102BB000CF93DF9300D0CDB7DEB760E372E080E063
:102BC00090E00E94E70CDFB6F89408E414E034E3E8
:102BD000E32E34E0F32E80910105811125C0F80128
:102BE0008491F7019491E82FF0E0EE0FFF1FE05E73
:102BF000FB4FA591B4918C91982321F461E08AE078
:102C00000E94C90861E08AE00E9462098CB5806177
:102C10008CBD8CB580648CBD61E08DE00E94620942
:102C200061E08BE00E946209809101058F5F8093D3
:102C30000105DFBEF8010491E02FF0E0EE0FFF1F69
:102C4000EA5EFB4F85919491909300058093FF0479
:102C5000F701E490E092FE0461E08AE00E946209DC
:102C60000E94E70380E591E00E94650284E380937F
:102C7000740580E80E94B3040E94BD15882309F4FE
:102C800041C088E00E94B3040E94B9158830D1F594
:102C900080E10E94B3040E94B915803199F580E06B
:102CA0000E94B3040E94B915182F81112BC08FE127
:102CB00090E00E94A815833029F580E48093B30545
:102CC00042E06EE170E0812F0E94FA0442E06FE181
:102CD00070E0812F0E94FA041F5F143089F740E0F2
:102CE0006EE170E0812F0E94FA0440E06FE170E035
:102CF000812F0E94FA041F5F183089F781E08093CA
:102D00007B0564C087E38093740580E80E94B30468
:102D10000E94BD158823F9F088E00E94B3040E9448
:102D2000B9158830C1F480E10E94B3040E94B9153E
:102D3000182F803181F480E00E94B3040E94B915FD
:102D4000811109C089E390E00E94A815843019F42C
:102D50001093B305D3CF83E38093740580E80E947A
:102D6000B3040E94BD15882371F180E10E94B30471
:102D70000E94B915803139F582E10E94B3040E94A6
:102D8000B915823101F580E00E94B3040E94B915A3
:102D9000811119C084E08093B30515E51A8341E0E1
:102DA00050E0BE016E5F7F4F8BE190E00E94030414
:102DB000198341E050E0BE016F5F7F4F8AE190E0F0
:102DC0000E9403049BCF1092740580E00F900F9037
:102DD000DF91CF911F910F91FF90EF90DF900895B9
:102DE000CF92DF92EF92FF92CF93DF93CDB7DEB712
:102DF000C254D1090FB6F894DEBF0FBECDBFFC019F
:102E0000428153816481758123964CAF5DAF6EAF73
:102E10007FAF239781E023968FAF23972396CCAC87
:102E2000DDACEEACFFAC2397CBAADCAAEDAAFEAAE0
:102E30004DA75EA76FA778AB88ABCDA4DEA4EFA4A7
:102E4000F8A8CFA2D8A6E9A6FAA68EABCBA8DCA894
:102E5000EDA8FEA8C9A2DAA2EBA2FCA229E232E008
:102E60003C8B2B8B9FEF9D8B9E8B9F8B188E3E8771
:102E70002D878AA7CFA0D8A4E9A4FAA4CF86D88AA0
:102E8000E98AFA8A8CA389A19AA1ABA1BCA18987FE
:102E90009A87AB87BC873A8329834B835C836D8396
:102EA0007E8380917B05882309F443C080E591E00F
:102EB0000E94650246E050E06AE171E089E090E03E
:102EC0000E94030444E050E0BE016D5F7F4F8FE03D
:102ED00090E00E94030444E050E0BE01615F7F4F38
:102EE00081E090E00E94030444E050E0BE016B5E8C
:102EF0007F4F85E090E00E94030481E08C87898504
:102F00009A85AB85BC858093770590937805A093CF
:102F10007905B0937A05CE5BDF4F0FB6F894DEBF2C
:102F20000FBECDBFDF91CF91FF90EF90DF90CF909C
:102F300008950E94D315882371F3B8CF2091B3056B
:102F400030E0322F2227620F731F90E0982F8827DE
:102F5000860F971F0C94A815CF93C82F462F61E0BA
:102F600070E00E94FA0461E070E08C2F0E949E17CE
:102F70008111F9CFCF9108958F929F92AF92BF9216
:102F8000CF92DF92EF92FF921F93CF93DF93CDB753
:102F9000DEB72C970FB6F894DEBF0FBECDBF2091E1
:102FA000740514E0222339F16B017C0180E591E086
:102FB0000E9465025E0127E0A20EB11C450110E0EF
:102FC00063E070E0812F0E949E17F40181934F010E
:102FD000882349F11F5F143099F710E0F5018191C2
:102FE0005F018D31D9F08831C9F08A518230B0F05B
:102FF0001F5F143099F7812F2C960FB6F894DEBF1F
:103000000FBECDBFDF91CF911F91FF90EF90DF906A
:10301000CF90BF90AF909F908F90089560E170E047
:10302000812F0E94AC17A12EB12C8AEF90E00E9454
:10303000D90942E870E060E0812F0E94FA044FEF66
:1030400062E070E0812F0E94FA04B601C114D1043D
:1030500091F4809118019091190101968115F0EC7D
:103060009F0708F462C09093190180931801609142
:10307000180170911901812F0E94E50486E0E8E2B1
:10308000F1E0DE01119601900D928A95E1F7F701CA
:1030900083818F778C8384818D8385818E83A70143
:1030A0004E5F5F4F24E030E06CE070E0812F0E94C3
:1030B000D404DB86CC8622E030E0AE01455F5F4F72
:1030C00060E170E0812F0E94D40426E030E0AE0180
:1030D0004F5F5F4F66E070E0812F0E94D40461E093
:1030E00070E0812F0E94AC1727E02A9DC0012B9D24
:1030F000900D11249C01285A3A4F7901F90111824F
:103100001082AE01455F5F4F68E270E0812F0E9440
:10311000A8148B859C85982789279827F701938386
:10312000828316821582148266CF80E090EC9BCF5A
:103130004F925F927F928F929F92AF92BF92CF9267
:10314000DF92EF92FF920F931F93CF93DF9300D004
:10315000CDB7DEB7782E6B014A01A82EB12C27E03F
:10316000829FC0011124FC01E85AFA4F7F010081BF
:10317000118180E591E00E9465020815190554F45B
:10318000872D0E94BA14F70126818C01021B1109B8
:10319000118300830115110529F563E070E0872D87
:1031A0000E949E17843159F0882349F001E010E015
:1031B0008C3111F410E000E0119501951109C8015E
:1031C0000F900F90DF91CF911F910F91FF90EF9093
:1031D000DF90CF90BF90AF909F908F907F905F9047
:1031E0004F900895801691060CF4840187E08A9D23
:1031F000F0018B9DF00D1124E85AFA4FE280F38024
:10320000C114D10451F12701F7E05F22872D0E94FC
:10321000C604840D951D20917405273309F453C00D
:103220009801240D351D2130384008F44CC020E0B1
:1032300038E0490184189508A401B6010E941D14C4
:103240002601480C591C6801C818D908872D0E940E
:10325000C604A601B2010E941D14E00EF11E87E013
:103260008A9DF0018B9DF00D1124E85AFA4FF382EC
:10327000E28220813181201B310B318320838681C2
:10328000800F912F911D8A3F910510F4232BF1F4AB
:1032900087E08A9DF0018B9DF00D1124E85AFA4FCA
:1032A0001682F982EA8222E030E0AE014F5F5F4F82
:1032B00068E270E0872D0E94D40460E470E0872DFE
:1032C0000E94AC177CCFA801B601C5CF868377CF0B
:1032D000CF93DF93FC01218D328D2115310529F427
:1032E0008FEF9FEFDF91CF910895EC01808D421712
:1032F000530708F0A9010E9498181816190684F7B8
:10330000298D3A8D281B390B3A8F298FEBCF0F93DC
:103310001F93CF93DF931F92CDB7DEB7FC01218DB2
:10332000328D232B41F48FEF9FEF0F90DF91CF91E0
:103330001F910F9108958C0141E050E0BE016F5F35
:103340007F4FFC01808D0E949818181619065CF7B3
:10335000F801818D928D0197928F818F898190E004
:10336000E4CFCF93C82F80E591E00E94650260E131
:1033700070E08C2FCF910C94AC17CF92DF92EF922C
:10338000FF920F931F93CF93DF9300D000D000D014
:10339000CDB7DEB78C016B017A01FC01808D8430E2
:1033A00010F40E94B11989E292E09A838983F601B0
:1033B00082819381A481B5818B839C83AD83BE83FD
:1033C000B701CE0101960E94BC17F801808F8430AE
:1033D000A0F4F586E486128E118E81E026960FB653
:1033E000F894DEBF0FBECDBFDF91CF911F910F913B
:1033F000FF90EF90DF90CF90089580E0EFCFCF93D4
:10340000DF93EC01888D843020F40E94B11984E0B0
:10341000888FDF91CF910895CF93FC01C08D80E517
:1034200091E00E94650260E270E08C2F0E94AC1770
:1034300062E070E08C2F0E949E1784FD16C062E04F
:1034400070E08C2F0E949E1783FF0AC048E162E063
:1034500070E08C2F0E94FA0480E090E0CF910895F4
:1034600080E591E00E946502E3CF40E162E070E018
:103470008C2F0E94FA0481E0F0CF8F929F92AF923E
:10348000BF92CF92DF92EF92FF921F93CF93DF9381
:1034900000D000D000D0CDB7DEB76C015B01FC01DD
:1034A000808D843010F40E94B119809174058111CF
:1034B00015C094E0F601908F26960FB6F894DEBF03
:1034C0000FBECDBFDF91CF911F91FF90EF90DF90A6
:1034D000CF90BF90AF909F908F90089580E591E03E
:1034E0000E9465029E012F5F3F4F7901490110E064
:1034F00063E070E0812F0E949E17F40181934F01D9
:10350000882309F11F5F143099F710E0F7018191CA
:103510007F018D3199F0883189F08A51823070F0C5
:103520001F5F143099F7F601108F80E0143021F2FC
:10353000B586A486128E118E81E0BECF60E170E068
:10354000812F0E94AC17812E912C8AEF90E00E946F
:10355000D90942E070E060E0812F0E94FA044FEF49
:1035600062E070E0812F0E94FA04B501A114B10459
:1035700089F4809118019091190101968115F0EC60
:103580009F0788F1909319018093180160911801A9
:1035900070911901812F0E94E50461E070E0812F94
:1035A0000E94AC1727E0289DC001299D900D112491
:1035B0009C01285A3A4F7901F90111821082AE011B
:1035C0004B5F5F4F68E270E0812F0E94A8148D81ED
:1035D0009E81982789279827F701938382831682F3
:1035E00015821482A0CF80E090ECCCCF1F93CF93B4
:1035F000DF931F92CDB7DEB7FC01108D143020F59C
:10360000818D928D892B01F180E591E00E94650208
:10361000812F0E94C60427E0129FF0011124E85A6E
:10362000FA4F22813381377041E050E0BE016F5F75
:103630007F4F820F931F0E941D14898190E00F908D
:10364000DF91CF911F9108958FEF9FEFF8CFEF9209
:10365000FF920F931F93CF93DF93EC018B0188E2CE
:10366000FB0111928A95E9F761E08E810E9462095F
:1036700060E08E810E94C90888EE93E00E94D9091B
:1036800061E08E810E94C90868858E810E9462096E
:1036900088E290E00E94D909E881F9810088F189E7
:1036A000E02D26E030E04AE050E060E0CE010995F0
:1036B0006E317105810591056CF4982F872F762F57
:1036C00066276061CB01DF91CF911F910F91FF9031
:1036D000EF900895E881F9810088F189E02D26E0D6
:1036E00030E04AE050E061E0CE0109957801F8E26F
:1036F000EF0EF11C623371058105910534F4982FAA
:10370000872F762F66276161DDCFE881F9810088F8
:10371000F189E02D26E030E04AE050E060E0CE01A3
:103720000995683171058105910534F4982F872F2B
:10373000762F66276261C6CFE881F9810088F1891A
:10374000E02D26E030E04AE050E061E0CE0109954E
:103750006B3071058105910534F4982F872F762FF2
:1037600066276361AFCF21E069327105810591055C
:103770000CF420E0F80121938F01EE16FF0629F6E4
:10378000E881F9810088F189E02D26E030E04AE007
:1037900050E060E0CE010995683171058105910521
:1037A00034F4982F872F762F662764618BCF70E0D3
:1037B00060E088CFDF92EF92FF920F931F93CF9339
:1037C000DF93CDB7DEB728970FB6F894DEBF0FBEF4
:1037D000CDBF8C01D80159964D915C915A974115F6
:1037E000510551F0ED91FC91048CF58DE02D70E0C8
:1037F00060E0C8010995EECFF801D08CF7E0DF9EBC
:10380000C00111249C01285A3A4F7901D9018D91A8
:103810009C91892B59F148E050E0BE016F5F7F4FCA
:10382000F801808D0E9498181816190694F5D80191
:10383000509684E0FE01319601900D928A95E1F751
:103840008D8190E0982F88272E81820F911DF8019D
:10385000958B848B8F81282F30E0322F222788850B
:10386000820F932F911D928F818F13C080E591E07D
:103870000E9465028D2D0E94BA14D70116962C91D4
:103880001697821B91098D939C93892B21F690E0CA
:1038900080E028960FB6F894DEBF0FBECDBFDF9153
:1038A000CF911F910F91FF90EF90DF9008956F924D
:1038B0007F928F929F92AF92BF92CF92DF92EF92C0
:1038C000FF920F931F93CF93DF93CDB7DEB7EC97A3
:1038D0000FB6F894DEBF0FBECDBF4C018B013A018D
:1038E00089E292E09A8389831C861B8648EE53E026
:1038F00060E070E04D875E876F87788B2DEE31E05A
:103900003A872987988F8F8B198E1A8E1B8E1C8E63
:1039100024E029A399AB88AB1AAA1BAA1CAA1DAA4A
:103920008091770590917805A0917905B0917A05FD
:103930008EA39FA3A8A7B9A78B839C83AD83BE83C7
:1039400018861F82F80120E090E080E06AE0319163
:10395000332309F47AC040ED430F4A3008F064C0C5
:10396000689FA001699F500D1124CA01C097830F61
:10397000911D37FD9A958F3F910549F340F34B8197
:103980005C816D817E818091EE049091EF04A09125
:10399000F004B091F104481759076A077B0709F44E
:1039A00028C20E94190D6F7077277C5FCE0109969F
:1039B0000E943D1A813009F01FC289E292E09DA366
:1039C0008CA38B819C81AD81BE818EA39FA3A8A770
:1039D000B9A745E350E0BE016C5D7F4FCE0109966B
:1039E0000E942807892B09F04EC010E000E0CE01AC
:1039F00009960E94FF190130110559F1C801EC9692
:103A00000FB6F894DEBF0FBECDBFDF91CF911F91EF
:103A10000F91FF90EF90DF90CF90BF90AF909F906D
:103A20008F907F906F9008953E3209F0A8CF233099
:103A300009F4A5CFA2E3B0E0AC0FBD1FA20FB11DEA
:103A40008C932F5F90E080E082CF233009F097CFF6
:103A50008DABD401ED91FC910488F589E02D89E2CC
:103A600092E09DA38CA38AA99BA9ACA9BDA98EA312
:103A70009FA3A8A7B9A7A301BE016C5D7F4FC40196
:103A800009958C01BBCF0E94190D78876F8342E0A6
:103A900050E0BE01695F7F4FCE0109960E94EA1493
:103AA00081E090E09DA38CA342E050E0BE016C5DFC
:103AB0007F4FCE0109960E94EA1480E091E09DA319
:103AC0008CA342E050E0BE016C5D7F4FCE010996B1
:103AD0000E94EA141DA21CA242E050E0BE016C5DEF
:103AE0007F4FCE0109960E94EA1442E050E0BE01E9
:103AF0006C5D7F4FCE0109960E94EA1442E050E0CF
:103B0000BE016C5D7F4FCE0109960E94EA147801D8
:103B1000D8018C91882311F18701F80181916F01FF
:103B2000882311F08E32C1F45801AE18BF081A1460
:103B30001B0484F4AEAA41E050E0BE016A5C7F4FF2
:103B4000CE0109960E94EA14A501B701CE0109969B
:103B50000E94EA147601DCCF8601DFCF1EAA41E085
:103B600050E0BE016A5C7F4FCE0109960E94EA14C4
:103B700000E011E01DA30CA342E050E0BE016C5D2B
:103B80007F4FCE0109960E94EA141DA30CA342E0C8
:103B900050E0BE016C5D7F4FCE0109960E94EA1491
:103BA000CE0109960E940C1A892B09F41ECF83E0DE
:103BB000E82EF12CD7C04B815C816D817E81898D8F
:103BC0009A8DAB8DBC8D481759076A077B0709F0A2
:103BD0000AC18D8D9E8DC59709F005C18AA19BA153
:103BE0000DEF1FEF0C970CF4B4C04CE050E0BE0199
:103BF0006C5D7F4FCE0109960E9468198EA19FA12E
:103C00009827892798279BAF8AAF4F8158852CA189
:103C10003DA14217530709F0E9C097FFE7C08F7035
:103C200092700BEF1FEF892B09F093C0AAA4BBA4DD
:103C3000BA24AB24BA240AEF1FEFA114B10409F48B
:103C400088C010E000E088A599A5982789279827C3
:103C50000817190708F541E050E0BE016A5C7F4F84
:103C6000CE0109960E9468194EA9442339F050E00C
:103C700070E060E0CE0109960E9468198EA981115A
:103C8000EACF44E050E070E060E0CE0109960E9487
:103C900068190F5F1F4FD7CFD12CC12C41E050E0E6
:103CA000BE01645C7F4FCE0109960E9468194CAD3D
:103CB000842F807C09F074C0442339F050E070E018
:103CC00060E0CE0109960E9468198CAD8111E6CFA3
:103CD00042E050E0BE01685C7F4FCE0109960E9431
:103CE000681942E050E0BE016A5C7F4FCE01099640
:103CF0000E94681944E050E070E060E0CE0109964F
:103D00000E94681942E050E0BE01665C7F4FCE0120
:103D100009960E94681988AD99AD4AAD5BAD8115D1
:103D2000914009F047C00EA91FA9102701271027AD
:103D30000130110509F03EC04115544009F04DC055
:103D400044E050E0BE016E5C7F4FCE0109960E94B8
:103D50006819F1E0EF1AF10809F449CE0F3F100796
:103D600009F045CE0E94190D5B016C01CE01099648
:103D70000E94DA1B181619060CF41DCF0E94190DAB
:103D80006A197B098C099D09693873418105910580
:103D900038F562E370E080E090E00E94E70CE6CF47
:103DA00041E050E070E060E0CE0109960E946819A1
:103DB0001CAE8BCF54274527542770E060E0CE011E
:103DC00009960E946819EFEFCE1ADE0AAC14BD0402
:103DD00009F064CF06EF1FEFBCCF07EF1FEFB9CF9D
:103DE0000FEF1FEFB6CF0EEF1FEFB3CF0CEF1FEFAC
:103DF000B0CF0EEF1FEF02CE10E000E0FFCDFC01D0
:103E0000808191810C940338CF93DF93CDE0D0E093
:103E100060E0CE010E940B382196C11584E0D807DE
:103E2000B9F78CE090E09093D9048093D8046CE0CB
:103E3000DF91CF910C940B380E941938FB0101904F
:103E40000020E9F73197AF01461B570BDC01ED91DC
:103E5000FC910280F381E02D0994CF93DF93BC01A4
:103E600082E396E00E947608EC016DE472E082E362
:103E700096E00E941E1F8C0F9D1FDF91CF91089529
:103E8000CF93DF9300D000D000D0CDB7DEB789E765
:103E900090E00E942D1F89E292E09A8389838091AD
:103EA0002E0390912F03A0913003B09131038B83A7
:103EB0009C83AD83BE834EE65CECBE016F5F7F4F9B
:103EC00081E193E00E94280768E670E081E193E0D9
:103ED0000E94760881E193E00E940C1A26960FB6A4
:103EE000F894DEBF0FBECDBFDF91CF9108958F92C2
:103EF0009F92AF92BF92EF92FF920F931F93CF9337
:103F0000DF93CDB7DEB7A1970FB6F894DEBF0FBE33
:103F1000CDBF7C01FA01CB0119A2223008F42AE0BE
:103F20008E010F5D1F4F822E912CB12CA12CBF0151
:103F3000A50194010E94D237F901CA016A300CF53B
:103F4000605DD8016E938D01232B242B252B79F7EF
:103F500090E080E0109721F0BD01C7010E941E1F74
:103F6000A1960FB6F894DEBF0FBECDBFDF91CF9103
:103F70001F910F91FF90EF90BF90AF909F908F9007
:103F80000895695CDECFCF92DF92EF92FF920F939C
:103F90001F93CF93DF9377FF1DC06A017B01EC0174
:103FA0006DE20E946F088C0144275527BA014C1915
:103FB0005D096E097F092AE0CE010E94771F800FFC
:103FC000911FDF91CF911F910F91FF90EF90DF90A4
:103FD000CF9008952AE0DF91CF911F910F91FF902C
:103FE000EF90DF90CF900C94771FAB01770F660BAB
:103FF000770B0C94C31FAB0170E060E02AE00C94D7
:10400000771F462F50E070E060E02AE00C94771FA5
:104010008F929F92AF92BF92CF92DF92EF92FF92D8
:104020000F931F93CF93DF937C018B014C0182E0B0
:10403000880E911C5701E5E0AE0EB11CD0E0C0E047
:10404000F40161914F01C8010E9401206C016EE2F0
:10405000C8010E946F088C0D9D1DC80FD91F8A14BE
:104060009B0471F7F7016581C8010E9401208C0F44
:104070009D1FDF91CF911F910F91FF90EF90DF90E7
:10408000CF90BF90AF909F908F900895EF92FF9246
:104090000F931F93CF93DF9300D000D0CDB7DEB73F
:1040A000082F0E94390C10E01C830B83CE0103966D
:1040B0000E94FF1EE82EC80101969A838983CE01D3
:1040C00001960E94FF1EF82E60E080E00E940A0C1C
:1040D000B70187EA95E00E94F51F60E970E087EA82
:1040E00095E00E947608C80102969A838983CE01E2
:1040F00001960E94FF1E682F70E087EA95E00E94FB
:10410000F51F6AE870E087EA95E00E94760861E0B2
:1041100080E00E940A0CC80106969A838983CE012A
:1041200001960E94FF1E682F87EA95E00E940120F9
:104130006FE287EA95E00E946F08C80107969A83AC
:104140008983CE0101960E94FF1E682F87EA95E0C1
:104150000E9401206FE287EA95E00E946F08C80183
:1041600005969A838983CE0101960E94FF1E682FCF
:1041700087EA95E00E94012060E287EA95E00E94CC
:104180006F08C80103969A838983CE0101960E9425
:10419000FF1E682F87EA95E00E9401206AE387EA04
:1041A00095E00E946F080C5F1F4F1A830983CE01B0
:1041B00001960E94FF1E682F87EA95E00E94012069
:1041C0001092DF041092DE040F900F900F900F906A
:1041D000DF91CF911F910F91FF90EF9008952F9253
:1041E0003F924F925F926F927F928F929F92AF9287
:1041F000BF92CF92DF92EF92FF921F93CF93DF9304
:10420000EC016A017B01722EAB019601CB01B60174
:104210000E94473960E572E0811126C046015701CE
:10422000E894B7F82FEF3FEF4FE75FE7C501B40120
:104230000E94473981110CC02FEF3FEF4FE75FE736
:10424000C501B4010E94813664E572E0181664F07D
:104250002FEF3FEF4FE75FE4C701B6010E944239FD
:104260001816B4F468E572E0CE01DF91CF911F918A
:10427000FF90EF90DF90CF90BF90AF909F908F9086
:104280007F906F905F904F903F902F900C941E1FE7
:104290002FEF3FEF4FE75FECC701B6010E94813679
:1042A00087FDE0CF20E030E0A901C701B6010E9400
:1042B0008136312C212C87FF09C06DE2CE010E948E
:1042C0006F081C01F7FAF094F7F8F09410E060E042
:1042D00070E080E09FE3711641F020E030E040E2C2
:1042E00051E40E949A381F5FF6CFA70196010E9401
:1042F0002E382B013C010E9413394B015C012AE04E
:10430000BC01A401CE010E94771F7C01E20CF31CCA
:104310001123A1F1C501B4010E9486369B01AC01B5
:10432000C301B2010E942D384B015C016EE2CE0147
:104330000E946F08E80EF91E115000F120E030E0F5
:1043400040E251E4C501B4010E94E7362B013C0173
:104350000E9413394B01CE010E94FB1FE80EF91E8B
:10436000B40190E080E00E9486369B01AC01C3015D
:10437000B2010E942D384B015C01DECFC701DF91F5
:10438000CF911F91FF90EF90DF90CF90BF90AF90B3
:104390009F908F907F906F905F904F903F902F9065
:1043A00008950C941E1F1F920F920FB60F921124A6
:1043B0002F933F934F935F936F937F938F939F932D
:1043C000AF93BF93EF93FF938091B900887F8036BE
:1043D00009F44AC0F0F5883209F4A7C018F5803115
:1043E00009F49BC0B8F4882309F4F9C0883009F4B3
:1043F00094C0FF91EF91BF91AF919F918F917F9169
:104400006F915F914F913F912F910F900FBE0F9041
:104410001F901895883109F488C0803251F7809335
:104420000A0614C0803409F49DC040F48033B9F307
:104430008833F9F680930A0685ECB0C0803509F41C
:1044400085C0883509F496C0883499F60E94E51332
:10445000D0CF883909F48CC038F5883729F050F46A
:10446000883611F0803729F683E080932C0610926D
:10447000510557C0883809F47BC0803919F080385D
:1044800009F0B7CF80915105803208F071C0E091FA
:10449000510581E08E0F809351058091BB00F0E0C3
:1044A000EF5CFA4F80833DC0803B39F0E0F4803A06
:1044B00009F479C0883A09F09CCF84E080932C06F7
:1044C0001092300510922F05E0917C05F0917D054A
:1044D000099580912F0581110FC081E080932F05F0
:1044E00010920F0509C0803C09F4A6CF883C09F45E
:1044F000A3CF883B09F07DCFE091300581E08E0F9E
:1045000080933005F0E0E15FFA4F80818093BB003B
:104510009091300580912F0529C0809107068093E6
:10452000BB0085EC8093BC0064CF9091090680911C
:104530000806981758F5E091090681E08E0F8093E0
:104540000906F0E0EA51FA4F8081E9CFE0910906CF
:1045500081E08E0F809309068091BB00F0E0EA5164
:10456000FA4F808390910906809108069817C8F247
:1045700085E8D8CFE091090681E08E0F8093090687
:104580008091BB00F0E0EA51FA4F808380910B06E6
:1045900081115CCF81E08093060684EA8093BC00A1
:1045A00010922C0626CF85EC8093BC0010922C062E
:1045B00080915105803230F4E0915105F0E0EF5CDC
:1045C000FA4F10826091510570E0E0917E05F09104
:1045D0007F0581E395E00995109251050ACF10926D
:1045E0000A0634CF1F920F920FB60F9211242F9309
:1045F0003F934F935F936F937F938F939F93AF936B
:10460000BF93EF93FF9382E396E00E94CC07FF9164
:10461000EF91BF91AF919F918F917F916F915F913A
:104620004F913F912F910F900FBE0F901F901895B3
:104630001F920F920FB60F9211242F938F939F9377
:10464000EF93FF93E0914206F09143068081E09161
:104650004806F091490682FD1BC0908180914B066F
:104660008F5F8F7320914C06821741F0E0914B06CB
:10467000F0E0EE5CF94F958F80934B06FF91EF9140
:104680009F918F912F910F900FBE0F901F901895B3
:104690008081F4CF1F920F920FB60F9211242F93A7
:1046A0003F938F939F93AF93BF938091B702909165
:1046B000B802A091B902B091BA023091B60223E0DB
:1046C000230F2D3758F50196A11DB11D2093B60279
:1046D0008093B7029093B802A093B902B093BA0244
:1046E0008091BB029091BC02A091BD02B091BE022C
:1046F0000196A11DB11D8093BB029093BC02A093B3
:10470000BD02B093BE02BF91AF919F918F913F9137
:104710002F910F900FBE0F901F90189526E8230F32
:104720000296A11DB11DD2CFE2E5F5E089E292E04B
:104730009183808312821382148215820895E6EB9E
:10474000F5E01382128288EE93E0A0E0B0E084836B
:104750009583A683B78387E192E091838083089550
:10476000E8E0F5E089E292E091838083128213828F
:10477000148215820895E2E0F5E089E292E09183E7
:10478000808312821382148215820895E8EFF4E088
:1047900089E292E0918380831282138214821582CF
:1047A0000895E2EFF4E089E292E09183808312823F
:1047B0001382148215820895EBEDF6E08FEF80836B
:1047C00012821182148613868FEF9FEFDC0187839C
:1047D0009087A187B2870895ECEEF4E089E292E039
:1047E0009183808312821382148215820895E6EEEB
:1047F000F4E089E292E09183808312821382148232
:104800001582E5E7F5E0918380831282138214829A
:1048100015820895E0EEF4E089E292E091838083CE
:1048200012821382148215820895E2E3F6E0138265
:10483000128288EE93E0A0E0B0E084839583A683A3
:10484000B78386E791E09183808385EC90E095873C
:10485000848784EC90E09787868780EC90E0918B4A
:10486000808B81EC90E0938B828B82EC90E0958B37
:10487000848B86EC90E0978B868B118E128E138E34
:10488000148E08950895CF92DF92EF92FF920F93C6
:104890001F93CF93DF93E0EBF2E009E212E0118384
:1048A0000083128213821482158283E090E00E94BA
:1048B0000338C82F82E090E00E940338D82F81E0AF
:1048C00090E00E940338F82E90E080E00E940338C8
:1048D000EFEBF2E0118300838283F382D483C583FC
:1048E000E1E1F3E01382128288EE93E0A0E0B0E011
:1048F00084839583A683B7838DEE91E09183808333
:1049000017870687108A118A128A138A84E0808F9B
:10491000EAEAF2E011830083FF24FA94F282F38240
:10492000F4821582E4EAF2E01183008380ECC82E61
:10493000C28298EAD92ED382EE24E394E482E582FF
:10494000E7EAF5E0138212828AE691E091838083A0
:1049500087E2848380E1808782E08187128688E015
:1049600083878CE090E00E94033890E09093D90414
:104970008093D804CDECD2E082E391E099838883E0
:1049800080E291EAA7E0B0E08A839B83AC83BD8399
:104990008FEF9FEF9F838E831886F986FA8662E0F9
:1049A00070E0CE010E94EB068EE491E0998388834B
:1049B000ECE2F3E011830083C282D382E48284EBD1
:1049C0008583DF91CF911F910F91FF90EF90DF9042
:1049D000CF9008950E9494230E949F230E94B023A9
:1049E0000E94BB230E94C6230E94D1230E94DC2385
:1049F0000E94EC230E94F7230E940A240E9415249F
:104A00000C944324CF93DF93CDB7DEB7C755D109BC
:104A10000FB6F894DEBF0FBECDBF0E949E0961E0C5
:104A20008DE00E94620961E089E00E94620961E014
:104A300088E00E94620989E292E09A8389838091EA
:104A4000C1029091C202A091C302B091C4028B83B3
:104A50009C83AD83BE83CE0101960E94F016E09147
:104A60004206F091430662E0F62EF082E0913E06A7
:104A7000F0913F061082E0914006F09141068FECE4
:104A8000808310924A06E0914606F091470686E040
:104A90008083E0914406F0914506808180618083A7
:104AA000E0914406F0914506808188608083E09122
:104AB0004406F0914506808180688083E091440639
:104AC000F091450680818F7D80830E94330960E0EC
:104AD0008EE00E945F0C0E94FF1229833A834B8371
:104AE0005C838F838FE18D83FE8262E0CE0101962D
:104AF0000E94871361E0CE0101960E94871364969D
:104B00001FAE64971986BE01675F7F4F8FE00E94DA
:104B100072136985862F837021F06C7F8FE00E946D
:104B20005F0C64968FAD6497882379F0BE016D5A4F
:104B30007F4F8EE00E947213882339F064966FAD28
:104B400064976F778EE00E945F0C0E9482020E9441
:104B500082020E9482020E9482028EE18093DB0622
:104B6000109282051092830510928405109285059B
:104B7000109286051092870510928805109289057B
:104B800010928A058FEF80938B0510928C051092FE
:104B90008D050E94250D89EA90E00E942D1F68EB8B
:104BA00072E281E193E00E943D1A0E943309109263
:104BB000AC058091B005823018F098E09093AC0578
:104BC0009091B105992339F0813029F48091AC0599
:104BD00084608093AC0562E370E080E090E00E9426
:104BE000E70C6091B20587EA95E00E94CA0B68EE77
:104BF00073E080E090E00E94E70C60E387EA95E0D4
:104C00000E94DD0B84E991E10E94D90960E387EA03
:104C100095E00E94DD0B84E991E10E94D90960E3EF
:104C200087EA95E00E94DD0B86E990E00E94D909B1
:104C300060E287EA95E00E94DD0B8091AC0580621E
:104C40000E94F90B84E08093AD058CE00E94F90B83
:104C50000E94390C82E08093AE0586E00E94F90B39
:104C600082E00E94F90B80ED97E00E94D90988E06C
:104C70008093B20560E087EA95E00E94CA0B85E068
:104C800090E09093DF048093DE040E94190D8090E1
:104C9000C5029090C602A090C702B090C8028616C6
:104CA0009706A806B906C0F430E020E04CED52E0CB
:104CB00060EE72E08DEC92E00E943A050E94190DC0
:104CC00068577C4E8F4F9F4F6093C5027093C6020A
:104CD0008093C7029093C8020E94190D8090C90268
:104CE0009090CA02A090CB02B090CC028616970694
:104CF000A806B90608F085C080913B03882309F413
:104D000080C030E020E04CED52E060EE72E08DECCF
:104D100092E00E943A0589E292E09A838983809129
:104D20002E0390912F03A0913003B09131038B8318
:104D30009C83AD83BE834EE65CECBE016F5F7F4F0C
:104D400081E193E00E9428074091E0025091E10246
:104D50006091E2027091E30222E081E193E00E941F
:104D6000EF2066E071E081E193E00E94760826E69C
:104D700036E646EE5FE36091E0027091E1028091D9
:104D8000E2029091E3020E94E73620E030E040E04A
:104D900052E40E942E380E940C3981E193E00E9477
:104DA000F51F60E071E081E193E00E947608409198
:104DB000DC025091DD026091DE027091DF0222E0A0
:104DC00081E193E00E94EF206BEF70E081E193E0DE
:104DD0000E94760881E193E00E940C1A0E94190D4E
:104DE00068577C4E8F4F9F4F6093C9027093CA02E1
:104DF0008093CB029093CC028091DC048F5F8093F0
:104E0000DC040E94FF1229873A874B875C876D87F5
:104E10007E878F873111B8C00E94FF122DA33EA359
:104E20004FA358A769A77AA78BA72111D1C030E05B
:104E300020E04CED52E060EE72E08DEC92E00E94DA
:104E40003A056091E0027091E1028091E202909156
:104E5000E3020E940C397A8369836091DC027091CD
:104E6000DD028091DE029091DF020E940C396B839B
:104E70000E94FF122CA73DA74EA75FA768AB79AB96
:104E80008AAB4C830E94FF122BAB3CAB4DAB5EABAD
:104E90006FAB78AF89AF3D830E94FF122AAF3BAF63
:104EA0004CAF5DAF6EAF7FAF21968FAF21978E83F2
:104EB0000E94FF1222962FAF229723963FAF23978F
:104EC00024964FAF249725965FAF259726966FAF10
:104ED000269727967FAF279728968FAF28977F83AF
:104EE0000E94FF1229962FAF29972A963FAF2A9743
:104EF0002B964FAF2B972C965FAF2C972D966FAFBD
:104F00002D972E967FAF2E972F968FAF2F9768876E
:104F10008090D8049090D90474012FEFE21AF20A1D
:104F2000AE014F5F5F4F5A0159E0850E911C6196AB
:104F3000FFAEEEAE6197D501CD905D01CE01815BF4
:104F40009F4F0E94FF1EC81621F06C2DC7010E94C2
:104F50000B38BFEFEB1AFB0AE814F90441F7609134
:104F6000D8047091D904685F7F4F7093D90460931F
:104F7000D8048CE090E00E940B386CE474E080E090
:104F800090E00E94E70C24C00E94FF12288B398B0E
:104F90004A8B5B8B6C8B7D8B8E8B3F3009F43CCFC7
:104FA0000E94FF122F8B388F498F5A8F6B8F7C8F07
:104FB0008D8F3E3109F430CF0E94FF122E8F3F8F2C
:104FC00048A359A36AA37BA38CA33D3209F424CF41
:104FD0000E94C5118091160190911701059709F063
:104FE00071C00E94A2127C010E94190D8090D8020B
:104FF0009090D902A090DA02B090DB028616970654
:10500000A806B906B8F4EF2809F480C00E94A212DD
:105010009093DF048093DE040E94190D6C507E4F44
:105020008F4F9F4F6093D8027093D9028093DA021A
:105030009093DB02E090DE04F090DF04E5E0EE16F2
:10504000F10409F06AC00E94390C6EE171E087EA50
:1050500095E00E9476084091E0025091E102609153
:10506000E2027091E30222E087EA95E00E94EF20DD
:1050700069E171E087EA95E00E94760861E080E0EE
:105080000E940A0C61E171E087EA95E00E947608CF
:105090004091DC025091DD026091DE027091DF02EE
:1050A00022E087EA95E00E94EF206CE071E087EA59
:1050B00095E00E9476081092DF041092DE0486E0EC
:1050C000809315018091160190911701019709F0C5
:1050D0007CC00E94C7120E94400C8091DA0490911B
:1050E000DB048130910509F052C120911401285050
:1050F000209314018091D8049091D9048C309105AB
:1051000009F057C08DE08093140157C00E94190D1B
:105110006C597F4F8F4F9F4F85CFF1E0EF16F10411
:1051200041F48DE00E944620F0921701E0921601B2
:10513000C9CF22E0E216F10429F5C090DD04B09059
:10514000DC040E94390C6CE572E087EA95E00E946D
:10515000D1216B2D87EA95E00E94012061E080E07B
:105160000E940A0C63E672E087EA95E00E94D12172
:105170006C2D87EA95E00E9401201092DF041092C6
:10518000DE04D2CF33E0E316F104F9F40E94390CC7
:1051900060E471E087EA95E00E94760861E080E0D3
:1051A0000E940A0C65E271E087EA95E00E947608A9
:1051B000E4CF87502D3008F4A6CF809114010E94CF
:1051C00046201092DB041092DA048091160190912F
:1051D0001701029799F40E94C7120E94400C809117
:1051E000DA049091DB048130910509F0EBC08CE189
:1051F0000E94F90B1092DB041092DA0480911601E0
:1052000090911701039709F07BC00E94C7120E947A
:10521000400C8091DA049091DB048430910509F010
:10522000DFC088E090E090931701809316010E9400
:10523000390C68E571E087EA95E00E947608609194
:105240000C0187EA95E00E94012060E287EA95E080
:105250000E946F0860910D0187EA95E00E9401208D
:105260006DE287EA95E00E946F0860910E0187EA7F
:1052700095E00E94012060E287EA95E00E946F08B5
:1052800060910F0187EA95E00E9401206DE287EAB4
:1052900095E00E946F086091100187EA95E00E94F6
:1052A000012060E287EA95E00E946F086091110199
:1052B00087EA95E00E9401206DE287EA95E00E946E
:1052C0006F086091120187EA95E00E94012060E278
:1052D00087EA95E00E946F0865E571E087EA95E04E
:1052E0000E9476086091130187EA95E00E940120F0
:1052F0001092DF041092DE041092DB041092DA04A4
:1053000080911601909117010697D1F40E94C7125F
:105310008091DA049091DB048430910509F0B9C0E2
:105320000E94041F85E090E090931701809316017E
:105330009093DF048093DE041092DB041092DA0471
:105340008091160190911701079709F0F0C00E9413
:10535000C7128091DA049091DB048130910509F045
:10536000A1C08CE10E94F90B80911501811103C04D
:1053700088E2809315018091150181508093150179
:1053800061E00E940A0C81E08093D704CCC0843095
:10539000910579F480911401885F80931401209124
:1053A000D8043091D9048217130609F00CF405CF04
:1053B000A9CE8530910509F004CF90931701809311
:1053C0001601FFCE8430910511F488E111CF8530AC
:1053D000910509F00FCF90931701809316010ACF22
:1053E0008230910551F587E090E09093170180930A
:1053F00016010E94390CF12CE12CFA82E982CE01CF
:1054000001960E94FF1E682F87EA95E00E94012006
:105410008E2D8B7F833021F04BE06EE2E41201C0D1
:1054200060E287EA95E00E946F085FEFE51AF50AEF
:105430008CE0E816F10409F75BCF81309105C9F4DF
:1054400086E090E090931701809316010E94390C3A
:105450006CE671E087EA95E00E94760861E080E002
:105460000E940A0C6BE571E087EA95E00E947608DD
:105470003FCF8330910521F488E10E94F90B3CCFA6
:105480008530910509F038CF90931701809316016C
:1054900033CF8530910509F04FCF9093170180935A
:1054A00016014ACF8230910509F08AC1C0901501DA
:1054B00092E09C1508F4DFC0B090D704EB2CF12CDF
:1054C00090E080E00E940338282F30E0C110BFC078
:1054D000C90164E670E00E946839A4E6BA9E800DB6
:1054E000911D11248F3F910509F0ECF4682F90E095
:1054F00080E00E940B3860E0809115010E940A0C48
:105500006091D70487EA95E00E94012061E08091D4
:1055100015010E940A0C8091D7048F5F8A3009F030
:1055200033CF1092D7041092DB041092DA048091EA
:10553000160190911701089719F50E94C7128091E2
:10554000DA049091DB048130910509F069C18CE1A6
:105550000E94F90B80911501811103C088E28093AC
:1055600015018091150181508093150161E00E9421
:105570000A0C81E08093D7041092DB041092DA04C5
:1055800063961FAE63970E94190D6093D3047093C6
:10559000D4048093D5049093D6048091D2048823B8
:1055A00031F08DE063968FAF63971092D204E09153
:1055B0007405E353E53008F0F3C2F0E0EC57FE4F1A
:1055C0008081882309F4ECC280917B05882309F44B
:1055D000D7C280917405843309F4D8C2873309F4A3
:1055E000E7C28FEF8093850510928605109287059C
:1055F0000E94250D81E193E00E94DA1B892B09F4BA
:10560000E3C281E08093D2044EE150E061EF72E0AA
:1056100081E193E00E94701261EF72E082E396E014
:105620000E94D1216AE771E082E396E00E94760849
:1056300080E0E82FF0E0DF01AF50BD4F9C91EC54CB
:10564000FB4F992309F4BFC290838F5FF2CFB1E083
:10565000CB1205C0B701C9010E948F1143CFC90108
:105660006AE070E00E946839F901E81BF90BCF018C
:105670008E0D9F1D37CFF6E0FC1508F440C024E0E6
:10568000C21219C0F090D70481E090E00E94033864
:1056900090E064E670E00E94683934E6F39E800D85
:1056A000911D11248F3F910511F00CF03CCF682F14
:1056B00081E090E01ECF45E0C4120BC081E090E095
:1056C0000E9403386091D70470E090E00E948F112F
:1056D000E9CF56E0C51227CF81E090E00E94033861
:1056E000282F30E0C9016AE070E00E946839281B69
:1056F000390B8091D704820F932F911DD3CF88E06F
:10570000C8121AC082E090E00E940338282F30E0CF
:10571000C9016AE070E00E946839281B390B60916A
:10572000D704620F732F711D6F3F710511F00CF0DC
:10573000FACE82E090E0DDCE9CE09C1508F4F3CE3A
:10574000AAE0CA1219C0F090D70483E090E00E944A
:10575000033890E064E670E00E946839B4E6FB9E8E
:10576000800D911D11248F3F910511F00CF0DBCEBF
:10577000682F83E090E0BDCEEBE0CE120BC083E05B
:1057800090E00E9403386091D70470E090E00E949E
:105790008F11E9CFFCE0CF12C6CE83E090E00E94EB
:1057A0000338282F30E0C9016AE070E00E946839B0
:1057B000281B390B8091D704820F932F911DD3CFD3
:1057C0008330910579F461E0809115010E940A0C03
:1057D0008091AD05982F92609093AD058A600E94EC
:1057E000F90B9FCE8430910591F488E10E94F90B6A
:1057F00080911501883211F41092150180911501E4
:105800008F5F8093150161E00E940A0C8ACE85307B
:10581000910509F088CE909317018093160183CEED
:105820008230910509F07CC1F09015018EEF8F0D4B
:10583000823008F03FC0A0900C01B12C2091D70419
:1058400030E042E0F4122CC0B901C5010E948F1172
:105850005C0180910D018A151B0409F03CF460E0A5
:10586000C5010E94370E882309F486CEA0920C0150
:1058700060E08F2D0E940A0C6091D70487EA95E0C2
:105880000E94012061E0809115010E940A0C809124
:10589000D7048F5F8A3009F06DCE1092D7046CCE9A
:1058A000C5016AE070E00E946839A81AB90AA20E20
:1058B000B31ECFCF59E05F1508F453C086E08F15B3
:1058C00040F195E0F91213C06091D70470E0809127
:1058D0000D0190E00E948F118C0161E0C8010E94CF
:1058E000370E882309F448CE00930D01C1CFA6E0FE
:1058F000FA12F3CF00910D0110E0C8016AE070E0E8
:105900000E946839081B190B8091D704080F111DDC
:10591000E4CFB8E0FB1213C06091D70470E080912F
:105920000E0190E00E948F118C0162E0C8010E947C
:10593000370E882309F420CE00930E0199CFE9E0B9
:10594000FE12F3CF00910E0110E0C8016AE070E092
:105950000E946839081B190B8091D704080F111D8C
:10596000E4CFFFE0FF1508F453C02CE02F1540F101
:105970003BE0F31213C06091D70470E080910F01F7
:1059800090E00E948F118C0163E0C8010E94370EE5
:10599000882309F4F1CD00930F016ACF4CE0F41293
:1059A000F3CF00910F0110E0C8016AE070E00E949F
:1059B0006839081B190B8091D704080F111DE4CF1B
:1059C0005EE0F51213C06091D70470E08091100181
:1059D00090E00E948F118C0164E0C8010E94370E94
:1059E000882309F4C9CD0093100142CF8FE0F8124B
:1059F000F3CF0091100110E0C8016AE070E00E944E
:105A00006839081B190B8091D704080F111DE4CFCA
:105A100095E19F1508F453C0A2E1AF1540F1B1E143
:105A2000FB1213C06091D70470E08091110190E0E7
:105A30000E948F118C0165E0C8010E94370E8823F7
:105A400009F49ACD0093110113CFE2E1FE12F3CFD6
:105A50000091110110E0C8016AE070E00E9468390D
:105A6000081B190B8091D704080F111DE4CFF4E136
:105A7000FF1213C06091D70470E08091120190E092
:105A80000E948F118C0166E0C8010E94370E8823A6
:105A900009F472CD00931201EBCE25E1F212F3CF9F
:105AA0000091120110E0C8016AE070E00E946839BC
:105AB000081B190B8091D704080F111DE4CF3AE1A0
:105AC0003F1508F459CD49E1F41218C06091D7048C
:105AD00070E08091130190E00E948F118C01809101
