:100000000C941F020C9447020C9447020C94470274
:100010000C9447020C9447020C9447020C9447023C
:100020000C9447020C9447020C9447020C9447022C
:100030000C9447020C9447020C9447020C9447021C
:100040000C9401360C9447020C94CF350C94A935CE
:100050000C9447020C9447020C9447020C944702FC
:100060000C948A340C944702202A4320004C4F57AA
:100070004553542054454D503A2000202A43200037
:10008000484947484553542054454D503A20002094
:100090002A4320004C4F574553542054454D503A65
:1000A0002000202A43200048494748455354205403
:1000B000454D503A20002A494E56414C4944204370
:1000C0004F4D4D414E44002A494E56414C49442023
:1000D000434F4D4D414E4400205248252000202AD8
:1000E0004320002052482500202A462C2000202AA8
:1000F000432C2000205248250048756D69643A2041
:1001000000202A43200054656D703A2000203C20D6
:100110004572617365203E2054656D70205468728D
:100120006573686F6C647300205E2049502F5375AF
:10013000626E65742F47617465776179003E3D009A
:100140003C3D00596573282D3E29204E6F28486F8D
:100150006D65290041726520596F75205375726570
:100160003F00202A5041434B4554205245434549C6
:10017000564544004D616A6F72204F766572004D9E
:10018000696E6F72204F76657200436F6D666F7295
:100190007461626C65004D696E6F7220556E6465A6
:1001A00072004D616A6F7220556E646572003E2068
:1001B000424C494E4B20494E54455256414C2053D7
:1001C000455420544F3A20004F4646003E205247A7
:1001D0004220003E2052474220003E20524742200B
:1001E000424C494E4B494E47202800455155414C01
:1001F000533A2000455155414C533A200020417458
:100200003A20004F6E3A20002052482520004875C1
:100210006D69646974793A2000202A43200054658E
:100220006D703A20002A4E4F2044415441205945D8
:10023000540056657273696F6E3A20002D3E484532
:100240004C50002D3E56455253494F4E002D3E52C4
:10025000474220424C494E4B002D3E524742204FD0
:100260004646002D3E524742204F4E002D3E5247FB
:1002700042203C7265643E203C677265656E3E209C
:100280003C626C75653E002D3E414444203C6E75D9
:100290006D626572313E203C6E756D626572323EF4
:1002A000002D3E54454D502048494748204C4F575B
:1002B000002D3E54454D5020484953544F5259004B
:1002C0002D3E43555252454E542054454D50002D1D
:1002D0003E5345542054494D45203C6D6F6E746823
:1002E0003E203C6461793E203C796561723E203C51
:1002F000686F75723E203C6D696E7574653E203C7A
:100300007365636F6E643E002D3E43555252454EF9
:10031000542054494D45002D3E53544154555320CB
:100320004C454453002D3E424C494E4B203C6E758B
:100330006D6265723E002D3E4C454420414C544553
:10034000524E415445002D3E4C454420424C494EAE
:100350004B002D3E4C4544204F4646002D3E4C451B
:100360004420524544002D3E4C45442047524545CB
:100370004E0054686520617661696C61626C65202D
:10038000636F6D6D616E6473206172653A20000069
:100390000000080002010000030407000000000044
:1003A0000000003E57656C636F6D6520746F2041DF
:1003B000726475696E6F20436F6D6D616E64204C61
:1003C000696E6520496E7465727072657465722C11
:1003D00020656E746572202748454C502720666F53
:1003E00072206C697374206F6620636F6D6D616E2F
:1003F0006473210A00000000002300260029000089
:10040000000000250028002B000000000024002729
:10041000002A000102040810204080010204081094
:10042000200102040810200404040404040404024B
:10043000020202020203030303030300A137112493
:100440001FBECFEFD8E0DEBFCDBF12E0A0E0B1E02D
:10045000E8E5F8E702C005900D92AA39B107D9F78F
:1004600026E0AAE9B2E001C01D92A83EB207E1F77A
:1004700012E0CFE1D2E004C02197FE010E94093CC6
:10048000CE31D107C9F70E94B9370C9402390C94C8
:10049000000080E480937C0080917A0080648093E7
:1004A0007A0080917A0086FDFCCF8091780090914F
:1004B000790008958CBD9DBD0895E091B605F09139
:1004C000B7050190F081E02D682F86EB95E0099447
:1004D0009C0190E0F901E90FF11D8081811105C0B7
:1004E000DB018C918083118208959F5FF3CF80910F
:1004F0009F05811145C010929105109290058FEFD4
:100500008093940580939505809396058093970535
:10051000809398058093990581E080939A051092C5
:100520009C0510929B051092930510929205809164
:10053000D5069091D606892B31F48EE895E09093FC
:10054000D6068093D506E0918005F091810530971D
:1005500021F08EE895E0958384838EE895E0909372
:1005600081058093800510929E0510929D058FE372
:1005700092E090938F0580938E0581E080939F0594
:10058000E0918E05F0918F050480F581E02D8EE8D5
:1005900095E0099582E895E0909391058093900508
:1005A00084E090E090939C0580939B05E0918E05FC
:1005B000F0918F050284F385E02D8EE895E0099592
:1005C000009701F19C0150E040E060E472E48FE0AC
:1005D00090E00E94353A8091DE069091DF06A0916E
:1005E000E006B091E10682179307A407B50710F45F
:1005F000DA01C9018093DE069093DF06A093E0063E
:10060000B093E1068EE895E008958CE093E0909336
:100610007F0580937E050895089584E193E090938B
:100620007D0580937C050895089520912F05260F60
:100630003327331F21323105ECF420912C06FC01C5
:1006400090E080E0243069F082E00895A0912F05C9
:100650002191AC01415F5A4FA40FB52FB11D2C93CE
:100660000196861798F380912F05680F60932F05E8
:1006700080E0089581E008950895E091B5058091A6
:10068000B405E81730F4F0E0E45FF94F808190E0C2
:1006900008958FEF9FEF08959091B5058091B4056F
:1006A0002FEF3FEF981748F4E92FF0E0E45FF94FA0
:1006B000208130E09F5F9093B505C9010895809136
:1006C000B4059091B505891B990B0895CF92DF92DF
:1006D000EF92FF920F931F93CF93DF937C01CB0197
:1006E0008A012091C205222389F0EB016B01C40E1F
:1006F000D51ECC15DD0569F06991D701ED91FC910E
:100700000190F081E02DC7010995F3CF642F0E947D
:100710001503C801DF91CF911F910F91FF90EF90CA
:10072000DF90CF900895CF93DF931F92CDB7DEB7C0
:1007300069832091C2052223F9F02091C50520325A
:1007400058F021E030E0FC013383228390E080E028
:100750000F90DF91CF9108958091C305E82FF0E0CD
:10076000EA53FA4F998190838F5F8093C3058093FA
:10077000C50581E090E0ECCF61E0CE0101960E94DA
:100780001503F7CFFC0120812EBD9B0121503109BB
:1007900041F051810DB407FEFDCF4EB55EBD4193D2
:1007A000F5CF61507109860F971F0DB407FEFDCF7D
:1007B0002EB5FC0120830895E091FF04F09100051F
:1007C00080819091FE04892B80830895E091FF043D
:1007D000F091000590818091FE04809589238083AB
:1007E00008958EBD00000DB407FEFDCF8EB50895AF
:1007F000AF92BF92CF92DF92EF92FF920F931F932F
:10080000CF93DF93CDB7DEB728970FB6F894DEBF4E
:100810000FBECDBF8C017B016A01809174058333CB
:10082000E1F45801A40EB51EA016B10609F46FC07C
:100830000E94E60380EF0E94F103812F0E94F103E2
:10084000802F0E94F1030F5F1F4FF70181917F01FD
:100850000E94F1030E94DC03E7CF5B01A40EB51EEA
:100860008433C1F40E94E60319830A838D2D8068C6
:100870008B83CC8264E070E0CE0101960E94C203BB
:10088000AE14BF0409F441C0F70181917F010E94B9
:10089000F103F6CF0E94E6030F3F110509F028F49B
:1008A00019820A8384E08B830CC017FD17C019825C
:1008B0000A8333E0169507953A95E1F7007E0C60C0
:1008C0000B8386E0C816D104A0F5F701DE0114966B
:1008D000EA15FB0599F081918D93FACFC80126E0C6
:1008E000969587952A95E1F7807E19830A830115ED
:1008F000104C10F48461D7CF8C61D5CFB6016D5FF9
:100900007F4FCE0101960E94C2030E94DC03C60104
:1009100028960FB6F894DEBF0FBECDBFDF91CF9102
:100920001F910F91FF90EF90DF90CF90BF90AF900D
:10093000089563E070E0CE0101960E94C203F701C2
:1009400081917F010E94F103AE14BF04C1F7DDCF96
:10095000CF93DF931F92CDB7DEB7898341E050E09C
:10096000BE016F5F7F4F90E080E00E94F8030F9020
:10097000DF91CF91089590E020917405233339F4ED
:100980000C96982F990F990F990F80E0089548962B
:10099000F8CFDA01E091B305F0E0FE2FEE27E60F85
:1009A000F71F90E0982F8827A901BD018E0F9F1F88
:1009B0000C94F803CF93DF9300D0CDB7DEB77983E3
:1009C0006A8322E030E0AE014F5F5F4F64E070E089
:1009D0000E94C9040F900F90DF91CF910895CF939B
:1009E000DF931F92CDB7DEB72091B30530E0322FF1
:1009F0002227260F371F90E0982F8827498341E050
:100A000050E0BE016F5F7F4F820F931F0E94F8037B
:100A10000F90DF91CF910895CF92DF92EF92FF92E6
:100A20000F931F93CF93DF93EC017A016901E88163
:100A3000F9810190F081E02D0995E881F981008428
:100A4000F185E02D9801A601B701CE01DF91CF918C
:100A50001F910F91FF90EF90DF90CF9009946F92CC
:100A60007F928F929F92AF92BF92CF92DF92EF923E
:100A7000FF920F931F93CF93DF93CDB7DEB7AC9761
:100A80000FB6F894DEBF0FBECDBFDC011696ED9118
:100A9000FC91319609F48BC059013A016B018C012C
:100AA000FE0131964F0188E2DF011D928A95E9F738
:100AB000D801ED91FC910488F589E02DB401C801BD
:100AC00009957C01892B09F05CC01AA619A61CA601
:100AD0001BA6D801ED91FC910688F789E02D9E01B7
:100AE000255D3F4FAE01475D5F4FB401C8010995D9
:100AF0007C01892B09F045C0A114B10439F088E2CA
:100B0000F401D50101900D928A95E1F7C114D10449
:100B100009F189A59AA521E030E097FF02C02FEFE7
:100B20003FEF9F77829FB001839F700D929F700D62
:100B30001124072E000C880B990B0E94153920E018
:100B400030E040E251E40E94273BF601608371836C
:100B50008283938361147104A1F06BA57CA5072E99
:100B6000000C880B990B0E94153920E030E040E220
:100B700051E40E94273BD3016D937D938D939C9309
:100B80001397C701AC960FB6F894DEBF0FBECDBF6A
:100B9000DF91CF911F910F91FF90EF90DF90CF9059
:100BA000BF90AF909F908F907F906F90089587E156
:100BB000E82EF12CE6CF8F929F92AF92BF92CF9208
:100BC000DF92EF92FF920F931F93CF93DF93EC018D
:100BD0008B016A017901E881F9810288F389E02DAE
:100BE0000995B82EB801685F7F4FE881F9810288C6
:100BF000F389E02DCE010995982EB801605F7F4FF3
:100C0000E881F9810288F389E02DCE010995A82EAB
:100C1000B801685E7F4FE881F9810288F389E02D91
:100C2000CE010995882EB801605E7F4FE881F98179
:100C30000288F389E02DCE0109959B2D990D9A0D1F
:100C4000980D891319C09A2D882DF6019183808300
:100C50009B2D892DF7019183808390E080E0DF91C7
:100C6000CF911F910F91FF90EF90DF90CF90BF90A9
:100C7000AF909F908F90089585E190E0F0CF47E08E
:100C800050E080E0FB012191BF01042E01C0220F42
:100C90000A94EAF7820F41505109A0F70895FC0128
:100CA000828590E00895FC01818590E00895CF92BF
:100CB000DF92EF92FF920F931F93CF93DF93EC019C
:100CC0007A016901E881F9810190F081E02D0995AF
:100CD000E881F9810480F581E02D9801A601B70132
:100CE000CE01DF91CF911F910F91FF90EF90DF9098
:100CF000CF900994CF92DF92EF92FF920F931F93C0
:100D0000CF93DF93CDB7DEB728970FB6F894DEBF49
:100D10000FBECDBFDC011696ED91FC91319609F422
:100D200040C08A017B0119821A821B821C821D82AB
:100D30001E821F821886DC01ED91FC910084F185F2
:100D4000E02DAE014B5F5F4FBE016F5F7F4F099596
:100D50006C01892BB1F4E114F10441F069817A81CD
:100D60008B819C810E94993BF701608301151105DD
:100D700041F06D817E818F8198850E94993BD801D9
:100D80006C93C60128960FB6F894DEBF0FBECDBF98
:100D9000DF91CF911F910F91FF90EF90DF90CF9057
:100DA000089587E1C82ED12CECCF262F2D7F29F472
:100DB000FC01608790E080E0089588E190E008956C
:100DC000DC0117967C936E931697FB01ED5EFB4F4B
:100DD000E4911996EC931997695D7B4FFB0164913F
:100DE0001A966C9308956AE00E94E93B292F30E13E
:100DF000839FC0011124822B0895982F92959F7094
:100E00008F702AE0929F800D112408950895CF934A
:100E1000DF931F92CDB7DEB76983DC01ED91FC91C2
:100E20000280F381E02D41E050E0BE016F5F7F4F13
:100E300009950F90DF91CF910895DF92EF92FF9285
:100E40000F931F93CF93DF9300D0CDB7DEB7FB0195
:100E5000DC0157961C921E9256972281211109C0DF
:100E60002381211106C02481211103C02581222361
:100E700069F14115510551F17A018F01FC01D08CC6
:100E800080E591E00E945A02A8014E5F5F4F24E086
:100E900030E06CE070E08D2D0E94C904F982EA8296
:100EA00022E030E0AE014F5F5F4F60E170E08D2DDA
:100EB0000E94C90481E090E00F900F90DF91CF91E4
:100EC0001F910F91FF90EF90DF90089580E0F3CF96
:100ED000FC01818D928D0895FC018485958508958E
:100EE000FC0184899589089529E232E0FC0131836F
:100EF0002083FB014089518962897389FC01428307
:100F00005383648375830895FC01538D448D252F8D
:100F100030E0842F90E0821B930B541710F0CF9693
:100F2000089501970895FC01918D828D981761F0C5
:100F3000A28DAE0FBF2FB11D5D968C91928D9F5FDC
:100F40009F73928F90E008958FEF9FEF0895FC01BB
:100F5000918D828D981731F0828DE80FF11D858D6E
:100F600090E008958FEF9FEF0895FC01918D228D01
:100F7000892F90E0805C9F4F821B91098F73992786
:100F80000895FC01A48DA80FB92FB11DA35ABF4F1E
:100F90002C91848D90E001968F739927848FA68978
:100FA000B7892C93A089B1898C91837080648C93CC
:100FB000938D848D981306C00288F389E02D80817B
:100FC0008F7D80830895EF92FF920F931F93CF93AD
:100FD000DF93EC0181E0888F9B8D8C8D98131AC074
:100FE000E889F989808185FF15C09FB7F894EE895B
:100FF000FF896083E889F9898081837080648083B8
:101000009FBF81E090E0DF91CF911F910F91FF9002
:10101000EF900895F62E0B8D10E00F5F1F4F0F73AA
:101020001127E02E8C8D8E110CC00FB607FCFACF65
:10103000E889F989808185FFF5CFCE010E94C1073B
:10104000F1CFEB8DEC0FFD2FF11DE35AFF4FF08236
:101050009FB7F8940B8FEA89FB8980818062CFCF9C
:10106000CF93DF93EC01888D8823B9F0AA89BB89DF
:10107000E889F9898C9185FD03C0808186FD0DC0CA
:101080000FB607FCF7CF8C9185FFF2CF808185FFEB
:10109000EDCFCE010E94C107E9CFDF91CF91089536
:1010A00082E396E00E94B50721E0892B09F420E055
:1010B000822F089580E090E0892B29F00E9450084B
:1010C00081110C9400000895DC01ED91FC910190D8
:1010D000F081E02D0994EF92FF920F931F93CF932D
:1010E000DF938C017B01D0E0C0E0F701EC0FFD1F26
:1010F0006491662361F0D801ED91FC910190F0813B
:10110000E02DC8010995892B11F02196EECFCE0173
:10111000DF91CF911F910F91FF90EF900895AF92C3
:10112000BF92CF92DF92EF92FF920F931F93CF93D4
:10113000DF936C017B018B01040F151FEB015E0136
:10114000AE18BF08C017D10759F06991D601ED91CB
:10115000FC910190F081E02DC6010995892B79F76A
:10116000C501DF91CF911F910F91FF90EF90DF901C
:10117000CF90BF90AF9008950895089590E0FC013E
:10118000E157FC4F2491FC01ED5EFB4F3491FC01D3
:10119000E95DFB4FE491EE23C9F0222339F02330BF
:1011A00001F1A8F4213019F1223029F1F0E0EE0F1D
:1011B000FF1FE150FC4FA591B4918FB7F894EC91CB
:1011C000611126C030953E233C938FBF0895273090
:1011D000A9F02830C9F0243049F7809180008F7D34
:1011E00003C0809180008F7780938000DFCF84B52B
:1011F0008F7784BDDBCF84B58F7DFBCF8091B0002E
:101200008F778093B000D2CF8091B0008F7DF9CFDF
:101210003E2BDACF10922C0681E080930B061092C1
:10122000060661E082E10E94BE0861E083E10E945F
:10123000BE08E9EBF0E080818E7F808380818D7F26
:10124000808388E48093B80085E48093BC0008958F
:101250001092B5051092B4051092C3051092C50501
:101260000E940A090E940D030C940503CF93DF939B
:1012700091E090930E058823B9F0C091B800D09109
:10128000BA008091BC008A7B8093BC0060E082E160
:101290000E94BE0860E083E10E94BE080E940A0925
:1012A000D093BA00C093B800DF91CF910895CF9347
:1012B000DF9390E0FC01ED5EFB4F2491895D9B4F35
:1012C000FC0184918823C9F090E0880F991FFC01EC
:1012D000E75FFB4FA591B491FC01E150FC4FC59134
:1012E000D49161110DC09FB7F8948C912095822301
:1012F0008C938881282328839FBFDF91CF91089505
:10130000623051F49FB7F8943C91822F80958323EB
:101310008C93E8812E2BEFCF8FB7F894EC912E2B86
:101320002C938FBFEACF789484B5826084BD84B556
:10133000816084BD85B5826085BD85B5816085BDD0
:10134000EEE6F0E0808181608083E1E8F0E01082E9
:10135000808182608083808181608083E0E8F0E02A
:10136000808181608083E1EBF0E080818460808314
:10137000E0EBF0E0808181608083EAE7F0E080814B
:1013800084608083808182608083808181608083AB
:101390008081806880831092C1000895813091051A
:1013A00039F0880F991F880F991F05970197F1F75A
:1013B00008953FB7F8948091B9049091BA04A09130
:1013C000BB04B091BC0426B5A89B05C02F3F19F003
:1013D0000196A11DB11D3FBFBA2FA92F982F8827B5
:1013E000BC01CD01620F711D811D911D42E0660F90
:1013F000771F881F991F4A95D1F70895CF92DF92E2
:10140000EF92FF920F931F93CF93C82F813208F072
:1014100096C00E94D9096B017C0180912C06811134
:1014200069C081E080932C0680930B069FEF909318
:101430000A06109209069C0F9093080680930706EF
:1014400080910706806D80930706809106068130A3
:1014500009F077C0109206060E94D9096B017C0141
:10146000809107068093BB0080912E0690912F06F5
:10147000A0913006B0913106892B8A2B8B2BA1F0DD
:101480000E94D90900912E0610912F062091300656
:10149000309131066C197D098E099F0906171707CF
:1014A0002807390708F447C08091BC0083FDD8CFD6
:1014B00085EC8093BC000E94D9096B017C0180916E
:1014C0002C06813009F43FC0809109068C1710F476
:1014D000C0910906A6EEB5E0ECE0F6E080E08C13E2
:1014E00054C08C2FCF911F910F91FF90EF90DF9000
:1014F000CF90089580912E0690912F06A0913006EE
:10150000B0913106892B8A2B8B2B09F486CF0E9450
:10151000D90900912E0610912F06209130063091A6
:1015200031066C197D098E099F09061717072807D0
:10153000390708F072CF80912D060E943609C0E06D
:10154000D0CF85EEB6CF80912E0690912F06A09138
:101550003006B0913106892B8A2B8B2B09F4AFCF43
:101560000E94D90900912E0610912F062091300675
:10157000309131066C197D098E099F0906171707EE
:101580002807390708F09BCFD6CF9D9191938F5FA5
:10159000A6CF8F929F92AF92BF92CF92DF92EF929F
:1015A000FF920F931F93CF93DF93613208F0D1C066
:1015B000142FD62FC82F0E94D9096B017C0180916E
:1015C0002C0681116BC082E080932C0610930B06D1
:1015D0008FEF80930A0610920906D0930806A6ECB6
:1015E000B5E0E6EEF5E080E0D8138BC01092070678
:1015F00080910706CC0FC82BC09307068091060682
:10160000813009F082C0109206060E94D9096B0150
:101610007C01809107068093BB0080912E069091FB
:101620002F06A0913006B0913106892B8A2B8B2B87
:10163000A1F00E94D90900912E0610912F06209149
:101640003006309131066C197D098E099F09061705
:1016500017072807390708F442C08091BC0083FDB2
:10166000D8CF85EC8093BC000E94D9096B017C0126
:1016700080912C06823009F44AC080910A068F3F7F
:1016800009F469C080910A06803209F466C080912D
:101690000A06803309F463C084E026C080912E06D8
:1016A00090912F06A0913006B0913106892B8A2B9C
:1016B0008B2B09F484CF0E94D90980902E0690903C
:1016C0002F06A0903006B09031066C197D098E0966
:1016D0009F0986169706A806B90608F070CF809174
:1016E0002D060E94360985E0DF91CF911F910F9161
:1016F000FF90EF90DF90CF90BF90AF909F908F9032
:1017000008959D9191938F5F6FCF85EEABCF8091C0
:101710002E0690912F06A0913006B0913106892BAC
:101720008A2B8B2B09F4A4CF0E94D90900912E0695
:1017300010912F0620913006309131066C197D09E9
:101740008E099F09061717072807390708F090CF59
:10175000C6CF81E0C9CF80E0C7CF82E0C5CF83E0AC
:10176000C3CF482F6091C5058091C4050E94C90A66
:101770001092C3051092C5051092C2050895FC0190
:10178000248131E03093C2052093C4051092C30533
:101790001092C5058385862B90E00E945D0281E052
:1017A0000C94B10B0F931F93CF938C01C62F0E9403
:1017B000BF0B6C2F6460C8010E94BF0B81E090E0FA
:1017C0000E94CE096C2F6B7FC8010E94BF0B82E381
:1017D00090E0CF911F910F910C94CE09CF93C82F19
:1017E000682F607F87EA95E00E94D20B80E1C89F56
:1017F000B001112487EA95E0CF910C94D20BCF93DE
:10180000DF93CDB7DEB728970FB6F894DEBF0FBED3
:10181000CDBF98E0E0E2F1E0DE01119601900D927B
:101820009A95E1F79091B005961708F46FEF70E084
:10183000660F771F21E030E02C0F3D1F620F731FF2
:10184000FB019081890F806828960FB6F894DEBF5F
:101850000FBECDBFDF91CF910C94EE0B81E00E94C3
:10186000EE0B80ED97E00C94CE09E7EAF5E0868177
:101870008D7F868388600C94EE0B0F931F93CF931C
:101880008C01C62F607F61600E94D20B80E1C89FEF
:10189000B00111246160C8010E94D20B81E090E088
:1018A000CF911F910F910895CF93C62F91E0909300
:1018B000C20598E69093C4051092C3051092C50521
:1018C000682F86EB95E00E9493036C2F86EB95E0E2
:1018D0000E94930381E0CF910C94B10B91E090931F
:1018E000C20598E69093C4051092C3051092C505F1
:1018F000682F86EB95E00E94930381E00C94B10B76
:101900007F928F929F92AF92BF92CF92DF92EF928F
:10191000FF920F931F93CF93DF93EC01162F7A0161
:1019200069010E94D9094B015C01712C1111798464
:1019300010E000E060E070E0CB012A813B814C8147
:101940005D812617370748075907F4F0011511057F
:1019500061F5C7011E141F0464F10E94D9096819BA
:1019600079098A099B09EA85F0E0EE0FFF1FEB5029
:10197000FC4FA591B4912C910F5F1F4F3985232304
:10198000271105C097FFD9CF6FEF7FEFCB01DF9114
:10199000CF911F910F91FF90EF90DF90CF90BF906C
:1019A000AF909F908F907F9008951C141D04ACF60B
:1019B000C6010E94CE09D1CF8F929F92AF92BF9263
:1019C000CF92DF92EF92FF924B015C010E94D90906
:1019D0006B017C010E94D9096C197D098E099F0950
:1019E000683E734081059105A8F321E0821A9108B1
:1019F000A108B10888EEC80E83E0D81EE11CF11CD6
:101A000081149104A104B10429F7FF90EF90DF90B5
:101A1000CF90BF90AF909F908F9008952FB7F8947C
:101A20006091B5047091B6048091B7049091B804A8
:101A30002FBF08954F925F926F927F929F92AF92C5
:101A4000BF92CF92DF92EF92FF920F931F93CF93AB
:101A5000DF9300D01F92CDB7DEB7D090DB06809128
:101A6000DE069091DF06A091E006B091E106892B99
:101A70008A2B8B2BD9F00E94D9090091D70610919F
:101A8000D8062091D9063091DA06601B710B820BC3
:101A9000930B0091DE061091DF062091E006309155
:101AA000E1066017710782079307C8F20E94D909FF
:101AB0006093D7067093D8068093D9069093DA0680
:101AC000E091E606F091E706309759F04091E20682
:101AD0005091E3066091E4067091E5068D2D09951D
:101AE000D82EE090D506F090D6064D2C512C712CB6
:101AF000612CE114F10409F459C0D7011C96CC9073
:101B00001C978091DC069091DD068436910510F4D7
:101B10001C961C92D701ED91FC91A280B380198292
:101B20001A821B82DD2079F1F701369610E000E081
:101B30002191222319F19280992001F130E050E0A7
:101B400040E02F5F3F4F4F4F5F4FC301B2010E94F4
:101B5000D93B9B01AC01892D90E0B0E0A0E0BC0135
:101B6000CD016F5F7F4F8F4F9F4F0E94D93BA1E008
:101B7000B0E0AC0FBD1FA00FB11F8C930F5F1F4FC4
:101B800003301105A9F609811A812B81F7014585DA
:101B9000568562817381C701F5010995D7011C96AD
:101BA000CC921C971496ED90FC90A3CF8091D30615
:101BB0009091D4068C010F5F1F4F1093D4060093B1
:101BC000D3064997B4F10E940E0DC090CF06D09075
:101BD000D006E090D106F090D2069B01AC012C1902
:101BE0003D094E095F0921F421E030E040E050E07A
:101BF00088EE93E0089FB001099F700D189F700D4B
:101C00001124072E000C880B990B0E945F3A309329
:101C1000DD062093DC061092D4061092D3060E94B3
:101C20000E0D6093CF067093D0068093D1069093EB
:101C3000D2060F900F900F90DF91CF911F910F91CF
:101C4000FF90EF90DF90CF90BF90AF909F907F90EC
:101C50006F905F904F9008950F931F93CF93DF93F2
:101C600020918E042F5F322F377030938E0420FF27
:101C70002BC020E831FD2064347009F02062205F21
:101C8000FC01EC01239600E011E06485662329F055
:101C900070E0C8010E94F53B6F5F6187322F369F6D
:101CA000030E30E0311D1124311110C0168266235D
:101CB00011F0615061873196EC17FD0731F7DF9124
:101CC000CF911F910F91089520E0D4CF31503683EA
:101CD000EECF4F925F927F928F929F92AF92BF9280
:101CE000CF92DF92EF92FF920F931F93CF93DF93E8
:101CF0002C01EB010E94D909F20127853089621B72
:101D0000730B6A307105B0F3F8948A819B811816C1
:101D100019060CF0CDC1E881F9816BB1862E68946B
:101D200087F83BB13F773BB9D9848E812D2D281B95
:101D3000822F2E834F85042E000C550BAA81BB8168
:101D40007C85FD84EE847F5FF394E3949F81988487
:101D5000BA84AB841081C12C6C2D0C2D2C2D2081CC
:101D6000112788942111280F08F42FEF819588946A
:101D700070FD120F1795889471FD120F17958894B6
:101D800072FD120F1795889473FD120F17958894A2
:101D900074FD120F1795889475FD120F179588948E
:101DA00076FD120F1795889477FD120F179588947A
:101DB000622F7111612F8D0D162F002C8BB800C072
:101DC00017FF3BB921816627889400C000C0002C12
:101DD0003BB92111290F00C0002C8BB800C016FFA1
:101DE0003BB908F42FEF9195889400C000C0002CF7
:101DF0003BB9F0FC620F00C0002C8BB800C015FF8F
:101E00003BB967958894F1FC620F00C000C0002CBC
:101E10003BB96795889400C0002C8BB800C014FFB4
:101E20003BB9F2FC620F6795889400C000C0002C9B
:101E30003BB9F3FC620F00C0002C8BB800C013FF4D
:101E40003BB967958894F4FC620F00C000C0002C79
:101E50003BB96795889400C0002C8BB800C012FF76
:101E60003BB9F5FC620F6795889400C000C0002C58
:101E70003BB9F6FC620F00C0002C8BB800C011FF0C
:101E80003BB967958894F7FC620F00C000C0002C36
:101E90003BB96795889400C0002C8BB800C010FF38
:101EA0003BB9122FF110162F9B0D00C000C0002C63
:101EB0003BB900C000C0002C8BB800C017FF3BB975
:101EC00022816627889400C000C0002C3BB92111F4
:101ED000290D00C0002C8BB800C016FF3BB908F4D8
:101EE0002FEFE40FF51F00C000C0002C3BB9E0FC51
:101EF000620F00C0002C8BB800C015FF3BB967957E
:101F00008894E1FC620F00C000C0002C3BB96795CB
:101F1000889400C0002C8BB800C014FF3BB9E2FCD1
:101F2000620F6795889400C000C0002C3BB9E3FCA9
:101F3000620F00C0002C8BB800C013FF3BB967953F
:101F40008894E4FC620F00C000C0002C3BB9679588
:101F5000889400C0002C8BB800C012FF3BB9E5FC90
:101F6000620F6795889400C000C0002C3BB9E6FC66
:101F7000620F00C0002C8BB800C011FF3BB9679501
:101F80008894E7FC620F00C000C0002C3BB9679545
:101F9000889400C0002C8BB800C010FF3BB9122FF2
:101FA000E110162F919400C000C0002C3BB99A0C90
:101FB00000C000C08BB800C017FF3BB92081662766
:101FC000889400C000C0002C3BB92111280F00C02C
:101FD000002C8BB800C016FF3BB908F42FEF819599
:101FE000889400C000C0002C3BB970FD620F00C097
:101FF000002C8BB800C015FF3BB96795889471FD24
:10200000620F00C000C0002C3BB96795889400C0E7
:10201000002C8BB800C014FF3BB972FD620F6795AE
:10202000889400C000C0002C3BB973FD620F00C053
:10203000002C8BB800C013FF3BB96795889474FDE2
:10204000620F00C000C0002C3BB96795889400C0A7
:10205000002C8BB800C012FF3BB975FD620F67956D
:10206000889400C000C0002C3BB976FD620F00C010
:10207000002C8BB800C011FF3BB96795889477FDA1
:10208000620F00C000C0002C3BB96795889400C067
:10209000002C8BB800C010FF3BB9122F7111162F06
:1020A0008D0D00C000C0002C3BB9119709F086CE01
:1020B0004A815B8120EE31E0DA010E940F3CDC01B5
:1020C000CB01F4E0B695A79597958795FA95D1F74A
:1020D00030E020E0B901EAE94E9F040E611D5E9FE9
:1020E000600D711D1124650F711D860F971FA11DB5
:1020F000B11D893E43E09407A105B10508F434C041
:10210000885E9340A109B10942E0B695A7959795DD
:1021100087954A95D1F747E0849F080E211D949F2B
:10212000200D311D1124290F311D60918D0470E0A7
:10213000860F971F820F931F4091B5045091B604EC
:102140006091B7047091B804292F3327420F531FB1
:10215000611D711D4093B5045093B6046093B7049C
:102160007093B80480938D0478940E94D909F20189
:10217000708B6787DF91CF911F910F91FF90EF9048
:10218000DF90CF90BF90AF909F908F907F905F90A7
:102190004F90089580E991E00895579A08956F92BD
:1021A0007F928F92CF92DF92EF92FF920F931F93C5
:1021B000CF93DF93CDB7DEB762970FB6F894DEBF4B
:1021C0000FBECDBF6C017A013801822EDC011C9656
:1021D0002C91CA0157FF04C088279927841B950BAF
:1021E0007A8369839C838B839E838D836D867E86B1
:1021F0008F86213049F5CE0101960E942C0E83E096
:10220000888B1A8A198AF7FE02C08DEF888BD60157
:10221000ED91FC910484F585E02DBE016F5F7F4F49
:10222000C601099562960FB6F894DEBF0FBECDBF0A
:10223000DF91CF911F910F91FF90EF90DF90CF90A2
:102240008F907F906F9008951C861B861A86198642
:1022500018861F82D4CFEF92FF920F931F93CF93D4
:10226000DF93CDB7DEB762970FB6F894DEBF0FBE2F
:10227000CDBF7C01DC011C968C917A8369835C83E1
:102280004B835E834D830D871E872F878130F9F442
:10229000CE0101960E942C0E188A1A8A198AD7013B
:1022A000ED91FC910484F585E02DBE016F5F7F4FB9
:1022B000C701099562960FB6F894DEBF0FBECDBF79
:1022C000DF91CF911F910F91FF90EF9008951C86A1
:1022D0001B861A86198618861F82DECFCF93DF935E
:1022E000FC01EB0164E670E00E94F53B9F01281BB6
:1022F000390BCF016AE070E00E94F53B280F391FCF
:102300004AE04C9FC0014D9F900D1124820F931FF6
:10231000DF91CF910895E2E8F5E0108211821282F8
:102320001092C2020C941A0DE2E8F5E080911001BF
:10233000808380911201818380910E01828381E0EC
:102340008093C2020C941A0D0F931F930E940E0DDE
:1023500000919A0210919B0220919C0230919D0263
:10236000061717072807390720F48091E202811128
:1023700004C08091E102882359F11092E1020E9489
:102380000E0D00910A0110910B0120910C0130916A
:102390000D01DC01CB01800F911FA21FB31F8093A1
:1023A0009A0290939B02A0939C02B0939D0280910D
:1023B000C202882331F01092C2021F910F910C9437
:1023C0008B1181E08093C2021F910F910C949411A4
:1023D0001F910F9108950F931F93CF93DF93EC01FB
:1023E000E0E0F0E060E070E0CB01DE01AE0FB11D97
:1023F0002C91222309F12D3211F4EF5FF1E0DE017F
:10240000AE0FB11D0C9120ED200F2A3018F5AAE077
:10241000B0E09B01AC010E94543A002E000C110B5D
:10242000220B330B600F711F821F931F60537109C2
:1024300081099109EF5FD9CFFF2339F090958095FD
:10244000709561957F4F8F4F9F4FDF91CF911F9177
:102450000F9108956FEF7FEFCB01F7CFFC0190E074
:1024600030E020E07AE0DF01A90FB11D6C91662316
:10247000A1F080ED860F8A3070F4729FA001739FE7
:10248000500D11249A01260F311D67FD3A952053F6
:1024900031099F5FE8CF2FEF3FEFC9010895DC01BD
:1024A000ED91FC91048CF58DE02D099490E080E095
:1024B0000895FC018585968508950F931F93CF930A
:1024C000DF9300D01F92CDB7DEB7AB0119821A821D
:1024D0001B82DC01ED91FC910190F081E02D00E088
:1024E00010E020E0BE016F5F7F4F09950F900F90C5
:1024F0000F90DF91CF911F910F91089590E080E0B0
:1025000008950E944902823391058CF0833C910525
:102510008CF08C3721E0920784F08B3222E0920716
:102520007CF0863193407CF090E080E0089581E07B
:1025300090E0089582E090E0089583E090E00895AF
:1025400084E090E0089585E090E008950F931F9354
:10255000CF93DF930E948112EC010E940E0D009137
:102560009E0210919F022091A0023091A1020617B5
:10257000170728073907B0F4CD2BC9F00E94811244
:1025800090938A04809389040E940E0D6C507E4FB4
:102590008F4F9F4F60939E0270939F028093A00283
:1025A0009093A102DF91CF911F910F9108950E9406
:1025B0000E0D6C597F4F8F4F9F4FECCFBF92CF9234
:1025C000DF92EF92FF920F931F93CF93DF9300D090
:1025D00000D000D01F92CDB7DEB780E00E946E0C15
:1025E00087E00E94FE091092B5058093B4058730FC
:1025F000E1F586EB95E00E944C030E94FD06B82EA3
:1026000086EB95E00E944C030E94FD06C82E86EBE7
:1026100095E00E944C03182F86FF3EC08F710E94E8
:10262000FD060CE015FD00E0080F86EB95E00E942A
:102630004C030E94FD06D82E86EB95E00E944C03C9
:102640000E94FD06E82E86EB95E00E944C0310E008
:1026500087FD14E68F770E94FD06F82E86EB95E045
:102660000E944C030E94FD06180F2B2D3C2D402F7D
:102670005D2DB701812F90E027960FB6F894DEBF4D
:102680000FBECDBFDF91CF911F910F91FF90EF90C3
:10269000DF90CF90BF9008958F730E94FD06082FA2
:1026A000C4CFCF93DF93EB010E946E0C81E00E94B8
:1026B000FE091092B5058093B40586EB95E00E9463
:1026C0004C03888381E0DF91CF910895EF92FF92D0
:1026D0001F93CF93DF931F92CDB7DEB77C01162FE8
:1026E000BE016F5F7F4F8EE00E945113811108C0C1
:1026F00080E00F90DF91CF911F91FF90EF900895B0
:1027000081E08093C20588E68093C4051092C305DA
:102710001092C505113089F587E090E00E945D02B6
:10272000F70180810E94F30690E00E945D0289819A
:1027300085608983F70181810E94F30690E00E9401
:102740005D02F70182810E94F30690E00E945D0223
:10275000F70184810E94F30690E00E945D0281E00F
:102760000E94B10B8111C4CF69818EE00E94540C8C
:102770008111BECF812F8770BCCF8BE090E00E948B
:102780005D0289818660D5CF85ED8093BC00809104
:102790002E0690912F06A0913006B0913106079633
:1027A000A11DB11D23E0B695A795979587952A950C
:1027B000D1F72091BC0024FD03C010922C0608958F
:1027C00040912E0650912F0660913006709131068F
:1027D000452B462B472B69F30097A105B10541F026
:1027E00025E32A95F1F700000197A109B109E1CF8E
:1027F00080912D060C943609AF92BF92CF92DF9252
:10280000EF92FF920F931F93CF93DF9300D000D0EE
:10281000CDB7DEB78C016B017A01809174058333EB
:10282000E9F45B016801C40ED51EC016D106A9F1FA
:102830000E94E6038FE00E94F103812F0E94F103C2
:10284000802F0E94F1030F5F1F4F80E00E94F10371
:10285000F50181935F010E94DC03E7CF843369F5C2
:102860000E94E60319830A838F2D8F778B83EC8276
:1028700064E070E0CE0101960E94C203A70170E0FF
:1028800060E0C6010E94B33AE114F10421F0B701FF
:10289000C6010E94C2030E94DC03C7010F900F9083
:1028A0000F900F90DF91CF911F910F91FF90EF90BC
:1028B000DF90CF90BF90AF9008950E94E6030F3F46
:1028C000110509F030F419820A831B8263E070E07D
:1028D000D1CF17FD0BC019820A8333E016950795F7
:1028E0003A95E1F7007E08600B83F0CFC80126E03F
:1028F000969587952A95E1F7807E19830A830115BD
:10290000104C18F480618B83E1CF8861FCCFFA0111
:102910002091B30530E0322F2227260F371F90E099
:10292000982F882742E050E0BF01820F931F0C943C
:10293000FC13FF920F931F93CF93DF9300D0CDB77B
:10294000DEB7F82EAE014F5F5F4F66E270E00E9487
:10295000871409811A81102701271027AE014F5FC4
:102960005F4F66E270E08F2D0E94871489819A8103
:102970009827892798270817190749F4C8010F9045
:102980000F90DF91CF911F910F91FF9008958C01CF
:10299000E5CF3F924F925F926F927F928F929F927C
:1029A000AF92BF92CF92DF92EF92FF920F931F935D
:1029B000CF93DF9300D0CDB7DEB75C014B01342E4F
:1029C000452EFC0166887788508C80E591E00E9456
:1029D0005A02AE014F5F5F4F60E270E0852D0E94AA
:1029E0008714C980DA80DC24CD24DC24AE014F5F5B
:1029F0005F4F60E270E0852D0E94871489819A8183
:102A0000982789279827C816D90609F077C0E52C9A
:102A1000F12C67E0569EF0011124E85AFA4FD58256
:102A2000C482032D142DC016D10608F48601AE0110
:102A30004F5F5F4F64E270E0852D0E9487148981AB
:102A40009A81982789279827680E791E93013770F5
:102A500040917405433309F053C088E0E80EF11C3F
:102A6000FE2CEE24FF0CFF0CFF0CC9018E0D9F1DE8
:102A7000473309F449C0A901400F511F4130584064
:102A800008F442C060E078E06B01C21AD30AA601E4
:102A9000B4010E94F803A8014C195D09B4016C0D42
:102AA0007D1DC7010E94F803600E711E79826A8243
:102AB00022E030E0AE014F5F5F4F64E270E0852DB1
:102AC0000E94C904F50186899789800F911F978B11
:102AD000868BC8010F900F90DF91CF911F910F91BE
:102AE000FF90EF90DF90CF90BF90AF909F908F902E
:102AF0007F906F905F904F903F9008956C0176CFDC
:102B0000E0E1EE0EF11CACCFA801B401CBCFCF9326
:102B1000DF931F92CDB7DEB741E050E0BE016F5F9B
:102B20007F4F0E94FC1389810F90DF91CF91089510
:102B300090E080E00C948715CF93DF93C4E1D0E060
:102B40000E949815882361F061E070E080E090E0D9
:102B50000E94DC0C2197A1F780E0DF91CF910895CE
:102B600081E0FBCFDF92EF92FF920F931F93CF9301
:102B7000DF9300D0CDB7DEB760E372E080E090E095
:102B80000E94DC0CDFB6F89401E314E03DE1E32E93
:102B900034E0F32E80910105811125C0F801849164
:102BA000F7019491E82FF0E0EE0FFF1FE75FFB4F76
:102BB000A591B4918C91982321F461E08AE00E9460
:102BC000BE0861E08AE00E9457098CB580618CBD27
:102BD0008CB580648CBD61E08DE00E94570961E096
:102BE0008BE00E945709809101058F5F809301055A
:102BF000DFBEF8010491E02FF0E0EE0FFF1FE1507F
:102C0000FC4F85919491909300058093FF04F70108
:102C1000E490E092FE0461E08AE00E9457090E947D
:102C2000DC0380E591E00E945A0284E380937405FE
:102C300080E80E94A8040E949C15882309F441C0E2
:102C400088E00E94A8040E9498158830D1F580E1A0
:102C50000E94A8040E949815803199F580E00E9496
:102C6000A8040E949815182F81112BC08FE190E0C5
:102C70000E948715833029F580E48093B30542E0F4
:102C80006EE170E0812F0E94EF0442E06FE170E09E
:102C9000812F0E94EF041F5F143089F740E06EE13E
:102CA00070E0812F0E94EF0440E06FE170E0812F1F
:102CB0000E94EF041F5F183089F781E080937B0545
:102CC00064C087E38093740580E80E94A8040E9492
:102CD0009C158823F9F088E00E94A8040E949815AA
:102CE0008830C1F480E10E94A8040E949815182F32
:102CF000803181F480E00E94A8040E94981581111F
:102D000009C089E390E00E948715843019F410937C
:102D1000B305D3CF83E38093740580E80E94A804B1
:102D20000E949C15882371F180E10E94A8040E94F2
:102D30009815803139F582E10E94A8040E94981507
:102D4000823101F580E00E94A8040E94981581114B
:102D500019C084E08093B30515E51A8341E050E083
:102D6000BE016E5F7F4F8BE190E00E94F8031983F4
:102D700041E050E0BE016F5F7F4F8AE190E00E942A
:102D8000F8039BCF1092740580E00F900F90DF91B5
:102D9000CF911F910F91FF90EF90DF900895CF9208
:102DA000DF92EF92FF92CF93DF93CDB7DEB7C2549D
:102DB000D1090FB6F894DEBF0FBECDBFFC01428132
:102DC00053816481758123964CAF5DAF6EAF7FAF49
:102DD000239781E023968FAF23972396CCACDDAC6D
:102DE000EEACFFAC2397CBAADCAAEDAAFEAA4DA7B6
:102DF0005EA76FA778AB88ABCDA4DEA4EFA4F8A83C
:102E0000CFA2D8A6E9A6FAA68EABCBA8DCA8EDA8DF
:102E1000FEA8C9A2DAA2EBA2FCA229E232E03C8B16
:102E20002B8B9FEF9D8B9E8B9F8B188E3E872D87C4
:102E30008AA7CFA0D8A4E9A4FAA4CF86D88AE98A21
:102E4000FA8A8CA389A19AA1ABA1BCA189879A8790
:102E5000AB87BC873A8329834B835C836D837E83F6
:102E600080917B05882309F443C080E591E00E94AE
:102E70005A0246E050E06AE171E089E090E00E9489
:102E8000F80344E050E0BE016D5F7F4F8FE090E0BB
:102E90000E94F80344E050E0BE01615F7F4F81E093
:102EA00090E00E94F80344E050E0BE016B5E7F4F6B
:102EB00085E090E00E94F80381E08C8789859A85FF
:102EC000AB85BC858093770590937805A0937905B1
:102ED000B0937A05CE5BDF4F0FB6F894DEBF0FBE1E
:102EE000CDBFDF91CF91FF90EF90DF90CF9008950D
:102EF0000E94B215882371F3B8CF2091B30530E05A
:102F0000322F2227620F731F90E0982F8827860F99
:102F1000971F0C948715CF93C82F462F61E070E060
:102F20000E94EF0461E070E08C2F0E947D178111F8
:102F3000F9CFCF9108958F929F92AF92BF92CF9287
:102F4000DF92EF92FF921F93CF93DF93CDB7DEB75F
:102F50002C970FB6F894DEBF0FBECDBF209174053D
:102F600014E0222339F16B017C0180E591E00E949D
:102F70005A025E0127E0A20EB11C450110E063E099
:102F800070E0812F0E947D17F40181934F01882307
:102F900049F11F5F143099F710E0F50181915F014D
:102FA0008D31D9F08831C9F08A518230B0F01F5F7D
:102FB000143099F7812F2C960FB6F894DEBF0FBE10
:102FC000CDBFDF91CF911F91FF90EF90DF90CF9019
:102FD000BF90AF909F908F90089560E170E0812F37
:102FE0000E948B17A12EB12C8AEF90E00E94CE098F
:102FF00042E870E060E0812F0E94EF044FEF62E052
:1030000070E0812F0E94EF04B601C114D10491F445
:10301000809118019091190101968115F0EC9F079C
:1030200008F462C09093190180931801609118010F
:1030300070911901812F0E94DA0486E0E8E2F1E044
:10304000DE01119601900D928A95E1F7F7018381D7
:103050008F778C8384818D8385818E83A7014E5FDA
:103060005F4F24E030E06CE070E0812F0E94C904E3
:10307000DB86CC8622E030E0AE01455F5F4F60E149
:1030800070E0812F0E94C90426E030E0AE014F5F5E
:103090005F4F66E070E0812F0E94C90461E070E03C
:1030A000812F0E948B1727E02A9DC0012B9D900D38
:1030B00011249C01285A3A4F7901F901118210829A
:1030C000AE01455F5F4F68E270E0812F0E94871478
:1030D0008B859C85982789279827F701938382837E
:1030E00016821582148266CF80E090EC9BCF4F92BF
:1030F0005F927F928F929F92AF92BF92CF92DF9218
:10310000EF92FF920F931F93CF93DF9300D0CDB731
:10311000DEB7782E6B014A01A82EB12C27E0829FE2
:10312000C0011124FC01E85AFA4F7F01008111818E
:1031300080E591E00E945A020815190554F4872D84
:103140000E949914F70126818C01021B1109118339
:1031500000830115110529F563E070E0872D0E94B9
:103160007D17843159F0882349F001E010E08C315B
:1031700011F410E000E0119501951109C8010F90BC
:103180000F90DF91CF911F910F91FF90EF90DF9003
:10319000CF90BF90AF909F908F907F905F904F9017
:1031A0000895801691060CF4840187E08A9DF00151
:1031B0008B9DF00D1124E85AFA4FE280F380C11480
:1031C000D10451F12701F7E05F22872D0E94BB0453
:1031D000840D951D20917405273309F453C098017F
:1031E000240D351D2130384008F44CC020E038E073
:1031F000490184189508A401B6010E94FC13260118
:10320000480C591C6801C818D908872D0E94BB04B6
:10321000A601B2010E94FC13E00EF11E87E08A9D18
:10322000F0018B9DF00D1124E85AFA4FF382E282EF
:1032300020813181201B310B318320838681800FD7
:10324000912F911D8A3F910510F4232BF1F487E013
:103250008A9DF0018B9DF00D1124E85AFA4F1682D9
:10326000F982EA8222E030E0AE014F5F5F4F68E210
:1032700070E0872D0E94C90460E470E0872D0E94F1
:103280008B177CCFA801B601C5CF868377CFCF93AC
:10329000DF93FC01218D328D2115310529F48FEF4B
:1032A0009FEFDF91CF910895EC01808D4217530776
:1032B00008F0A9010E9477181816190684F7298DBD
:1032C0003A8D281B390B3A8F298FEBCF0F931F9321
:1032D000CF93DF931F92CDB7DEB7FC01218D328DE6
:1032E000232B41F48FEF9FEF0F90DF91CF911F9130
:1032F0000F9108958C0141E050E0BE016F5F7F4F58
:10330000FC01808D0E947718181619065CF7F801E9
:10331000818D928D0197928F818F898190E0E4CF8A
:10332000CF93C82F80E591E00E945A0260E170E0DF
:103330008C2FCF910C948B17CF92DF92EF92FF924C
:103340000F931F93CF93DF9300D000D000D0CDB761
:10335000DEB78C016B017A01FC01808D843010F4A2
:103360000E94901989E292E09A838983F601828112
:103370009381A481B5818B839C83AD83BE83B70188
:10338000CE0101960E949B17F801808F8430A0F433
:10339000F586E486128E118E81E026960FB6F8949B
:1033A000DEBF0FBECDBFDF91CF911F910F91FF9078
:1033B000EF90DF90CF90089580E0EFCFCF93DF9331
:1033C000EC01888D843020F40E94901984E0888F6D
:1033D000DF91CF910895CF93FC01C08D80E591E0FE
:1033E0000E945A0260E270E08C2F0E948B1762E00C
:1033F00070E08C2F0E947D1784FD16C062E070E0A3
:103400008C2F0E947D1783FF0AC048E162E070E0C4
:103410008C2F0E94EF0480E090E0CF91089580E52A
:1034200091E00E945A02E3CF40E162E070E08C2F0D
:103430000E94EF0481E0F0CF8F929F92AF92BF92F3
:10344000CF92DF92EF92FF921F93CF93DF9300D042
:1034500000D000D0CDB7DEB76C015B01FC01808DE0
:10346000843010F40E94901980917405811115C068
:1034700094E0F601908F26960FB6F894DEBF0FBE4B
:10348000CDBFDF91CF911F91FF90EF90DF90CF9054
:10349000BF90AF909F908F90089580E591E00E943B
:1034A0005A029E012F5F3F4F7901490110E063E00E
:1034B00070E0812F0E947D17F40181934F018823D2
:1034C00009F11F5F143099F710E0F70181917F0136
:1034D0008D3199F0883189F08A51823070F01F5F08
:1034E000143099F7F601108F80E0143021F2B58680
:1034F000A486128E118E81E0BECF60E170E0812F34
:103500000E948B17812E912C8AEF90E00E94CE09A9
:1035100042E070E060E0812F0E94EF044FEF62E034
:1035200070E0812F0E94EF04B501A114B10489F469
:10353000809118019091190101968115F0EC9F0777
:1035400088F190931901809318016091180170918E
:103550001901812F0E94DA0461E070E0812F0E943E
:103560008B1727E0289DC001299D900D11249C01F7
:10357000285A3A4F7901F90111821082AE014B5F4E
:103580005F4F68E270E0812F0E9487148D819E81D9
:10359000982789279827F7019383828316821582BB
:1035A0001482A0CF80E090ECCCCF1F93CF93DF9319
:1035B0001F92CDB7DEB7FC01108D143020F5818D40
:1035C000928D892B01F180E591E00E945A02812FB2
:1035D0000E94BB0427E0129FF0011124E85AFA4F21
:1035E00022813381377041E050E0BE016F5F7F4F31
:1035F000820F931F0E94FC13898190E00F90DF914E
:10360000CF911F9108958FEF9FEFF8CFEF92FF9228
:103610000F931F93CF93DF93EC018B0188E2FB01A3
:1036200011928A95E9F761E08E810E94570960E066
:103630008E810E94BE0888EE93E00E94CE0961E070
:103640008E810E94BE0868858E810E94570988E29B
:1036500090E00E94CE09E881F9810088F189E02D8F
:1036600026E030E04AE050E060E0CE0109956E319E
:103670007105810591056CF4982F872F762F6627A9
:103680006061CB01DF91CF911F910F91FF90EF907F
:103690000895E881F9810088F189E02D26E030E085
:1036A0004AE050E061E0CE0109957801F8E2EF0EC2
:1036B000F11C623371058105910534F4982F872F31
:1036C000762F66276161DDCFE881F9810088F18975
:1036D000E02D26E030E04AE050E060E0CE010995C0
:1036E000683171058105910534F4982F872F762F65
:1036F00066276261C6CFE881F9810088F189E02DF3
:1037000026E030E04AE050E061E0CE0109956B3000
:1037100071058105910534F4982F872F762F662740
:103720006361AFCF21E069327105810591050CF429
:1037300020E0F80121938F01EE16FF0629F6E881BB
:10374000F9810088F189E02D26E030E04AE050E080
:1037500060E0CE010995683171058105910534F469
:10376000982F872F762F662764618BCF70E060E0FB
:1037700088CFDF92EF92FF920F931F93CF93DF9347
:10378000CDB7DEB728970FB6F894DEBF0FBECDBF1A
:103790008C01D80159964D915C915A97411551056C
:1037A00051F0ED91FC91048CF58DE02D70E060E01E
:1037B000C8010995EECFF801D08CF7E0DF9EC0017B
:1037C00011249C01285A3A4F7901D9018D919C917D
:1037D000892B59F148E050E0BE016F5F7F4FF8013F
:1037E000808D0E9477181816190694F5D801509606
:1037F00084E0FE01319601900D928A95E1F78D816A
:1038000090E0982F88272E81820F911DF801958BCB
:10381000848B8F81282F30E0322F22278885820FDA
:10382000932F911D928F818F13C080E591E00E94AC
:103830005A028D2D0E949914D70116962C91169735
:10384000821B91098D939C93892B21F690E080E057
:1038500028960FB6F894DEBF0FBECDBFDF91CF9193
:103860001F910F91FF90EF90DF9008956F927F92DC
:103870008F929F92AF92BF92CF92DF92EF92FF9280
:103880000F931F93CF93DF93CDB7DEB7EC970FB6AF
:10389000F894DEBF0FBECDBF4C018B013A0189E227
:1038A00092E09A8389831C861B8648EE53E060E091
:1038B00070E04D875E876F87788B2DEE31E03A8719
:1038C0002987988F8F8B198E1A8E1B8E1C8E24E061
:1038D00029A399AB88AB1AAA1BAA1CAA1DAA80917E
:1038E000770590917805A0917905B0917A058EA31E
:1038F0009FA3A8A7B9A78B839C83AD83BE8318869B
:103900001F82F80120E090E080E06AE031913323EB
:1039100009F47AC040ED430F4A3008F064C0689F54
:10392000A001699F500D1124CA01C097830F911DFA
:1039300037FD9A958F3F910549F340F34B815C81A8
:103940006D817E818091EE049091EF04A091F0044E
:10395000B091F104481759076A077B0709F428C298
:103960000E940E0D6F7077277C5FCE0109960E9432
:103970001C1A813009F01FC289E292E09DA38CA33A
:103980008B819C81AD81BE818EA39FA3A8A7B9A77F
:1039900045E350E0BE016C5D7F4FCE0109960E9469
:1039A0001D07892B09F04EC010E000E0CE010996FA
:1039B0000E94DE190130110559F1C801EC960FB6CD
:1039C000F894DEBF0FBECDBFDF91CF911F910F9155
:1039D000FF90EF90DF90CF90BF90AF909F908F902F
:1039E0007F906F9008953E3209F0A8CF233009F4FC
:1039F000A5CFA2E3B0E0AC0FBD1FA20FB11D8C9309
:103A00002F5F90E080E082CF233009F097CF8DAB1D
:103A1000D401ED91FC910488F589E02D89E292E0D2
:103A20009DA38CA38AA99BA9ACA9BDA98EA39FA382
:103A3000A8A7B9A7A301BE016C5D7F4FC40109957A
:103A40008C01BBCF0E940E0D78876F8342E050E05F
:103A5000BE01695F7F4FCE0109960E94C91481E0C3
:103A600090E09DA38CA342E050E0BE016C5D7F4FCF
:103A7000CE0109960E94C91480E091E09DA38CA319
:103A800042E050E0BE016C5D7F4FCE0109960E947E
:103A9000C9141DA21CA242E050E0BE016C5D7F4F24
:103AA000CE0109960E94C91442E050E0BE016C5D4F
:103AB0007F4FCE0109960E94C91442E050E0BE013A
:103AC0006C5D7F4FCE0109960E94C9147801D80120
:103AD0008C91882311F18701F80181916F0188236E
:103AE00011F08E32C1F45801AE18BF081A141B042D
:103AF00084F4AEAA41E050E0BE016A5C7F4FCE0183
:103B000009960E94C914A501B701CE0109960E9429
:103B1000C9147601DCCF8601DFCF1EAA41E050E058
:103B2000BE016A5C7F4FCE0109960E94C91400E075
:103B300011E01DA30CA342E050E0BE016C5D7F4F7D
:103B4000CE0109960E94C9141DA30CA342E050E0C7
:103B5000BE016C5D7F4FCE0109960E94C914CE0153
:103B600009960E94EB19892B09F41ECF83E0E82EF9
:103B7000F12CD7C04B815C816D817E81898D9A8DBE
:103B8000AB8DBC8D481759076A077B0709F00AC13E
:103B90008D8D9E8DC59709F005C18AA19BA10DEF62
:103BA0001FEF0C970CF4B4C04CE050E0BE016C5D0C
:103BB0007F4FCE0109960E9447198EA19FA1982799
:103BC000892798279BAF8AAF4F8158852CA13DA1AB
:103BD0004217530709F0E9C097FFE7C08F70927052
:103BE0000BEF1FEF892B09F093C0AAA4BBA4BA2442
:103BF000AB24BA240AEF1FEFA114B10409F488C062
:103C000010E000E088A599A598278927982708172C
:103C1000190708F541E050E0BE016A5C7F4FCE0114
:103C200009960E9447194EA9442339F050E070E0EC
:103C300060E0CE0109960E9447198EA98111EACF52
:103C400044E050E070E060E0CE0109960E94471920
:103C50000F5F1F4FD7CFD12CC12C41E050E0BE01E8
:103C6000645C7F4FCE0109960E9447194CAD842FAA
:103C7000807C09F074C0442339F050E070E060E0CB
:103C8000CE0109960E9447198CAD8111E6CF42E022
:103C900050E0BE01685C7F4FCE0109960E94471933
:103CA00042E050E0BE016A5C7F4FCE0109960E945F
:103CB000471944E050E070E060E0CE0109960E94B0
:103CC000471942E050E0BE01665C7F4FCE01099685
:103CD0000E94471988AD99AD4AAD5BAD8115914001
:103CE00009F047C00EA91FA910270127102701308E
:103CF000110509F03EC04115544009F04DC044E0A3
:103D000050E0BE016E5C7F4FCE0109960E944719BC
:103D1000F1E0EF1AF10809F449CE0F3F100709F05E
:103D200045CE0E940E0D5B016C01CE0109960E94EA
:103D3000B91B181619060CF41DCF0E940E0D6A1936
:103D40007B098C099D09693873418105910538F516
:103D500062E370E080E090E00E94DC0CE6CF41E09E
:103D600050E070E060E0CE0109960E9447191CAE59
:103D70008BCF54274527542770E060E0CE01099689
:103D80000E944719EFEFCE1ADE0AAC14BD0409F009
:103D900064CF06EF1FEFBCCF07EF1FEFB9CF0FEFD8
:103DA0001FEFB6CF0EEF1FEFB3CF0CEF1FEFB0CF6B
:103DB0000EEF1FEF02CE10E000E0FFCD0E94A63A0A
:103DC000FB0101900020E9F73197AF01461B570B2B
:103DD000DC01ED91FC910280F381E02D0994CF93F9
:103DE000DF93BC0182E396E00E946B08EC016DE476
:103DF00072E082E396E00E94E01E8C0F9D1FDF912F
:103E0000CF910895CF93DF9300D000D000D0CDB7ED
:103E1000DEB787EC90E00E94EF1E89E292E09A8381
:103E200089838091910490919204A0919304B09120
:103E300094048B839C83AD83BE834AEB55ECBE0117
:103E40006F5F7F4F8FEB94E00E941D0766EB70E081
:103E50008FEB94E00E946B088FEB94E00E94EB19CB
:103E600026960FB6F894DEBF0FBECDBFDF91CF917F
:103E700008958F929F92AF92BF92EF92FF920F930D
:103E80001F93CF93DF93CDB7DEB7A1970FB6F8940A
:103E9000DEBF0FBECDBF7C01FA01CB0119A22230DB
:103EA00008F42AE08E010F5D1F4F822E912CB12C59
:103EB000A12CBF01A50194010E945F3AF901CA013A
:103EC0006A300CF5605DD8016E938D01232B242B95
:103ED000252B79F790E080E0109721F0BD01C70114
:103EE0000E94E01EA1960FB6F894DEBF0FBECDBFB4
:103EF000DF91CF911F910F91FF90EF90BF90AF9006
:103F00009F908F900895695CDECFCF92DF92EF9201
:103F1000FF920F931F93CF93DF9377FF1DC06A012A
:103F20007B01EC016DE20E9464088C014427552757
:103F3000BA014C195D096E097F092AE0CE010E9481
:103F4000391F800F911FDF91CF911F910F91FF902B
:103F5000EF90DF90CF9008952AE0DF91CF911F91ED
:103F60000F91FF90EF90DF90CF900C94391FAB0131
:103F7000770F660B770B0C94851FAB0170E060E048
:103F80002AE00C94391F462F50E070E060E02AE0F0
:103F90000C94391F8F929F92AF92BF92CF92DF9273
:103FA000EF92FF920F931F93CF93DF937C018B01CE
:103FB0004C0182E0880E911C5701E5E0AE0EB11C69
:103FC000D0E0C0E0F40161914F01C8010E94C31F1D
:103FD0006C016EE2C8010E9464088C0D9D1DC80F23
:103FE000D91F8A149B0471F7F7016581C8010E94EB
:103FF000C31F8C0F9D1FDF91CF911F910F91FF90D9
:10400000EF90DF90CF90BF90AF909F908F900895EA
:10401000CF93DF93C82FD62F60E00E94FF0B6D2F48
:1040200087EA95E00E94C31F61E08C2FDF91CF915A
:104030000C94FF0B2F923F924F925F926F927F9260
:104040008F929F92AF92BF92CF92DF92EF92FF92A8
:104050001F93CF93DF93EC016A017B01722EAB01BA
:104060009601CB01B6010E94D43B60E572E081115C
:1040700026C046015701E894B7F82FEF3FEF4FE70E
:104080005FE7C501B4010E94D43B81110CC02FEF42
:104090003FEF4FE75FE7C501B4010E940E3964E5C9
:1040A00072E0181664F02FEF3FEF4FE75FE4C701AF
:1040B000B6010E94CF3B1816B4F468E572E0CE0159
:1040C000DF91CF911F91FF90EF90DF90CF90BF9045
:1040D000AF909F908F907F906F905F904F903F90A8
:1040E0002F900C94E01E2FEF3FEF4FE75FECC701DE
:1040F000B6010E940E3987FDE0CF20E030E0A90133
:10410000C701B6010E940E39312C212C87FF09C04E
:104110006DE2CE010E9464081C01F7FAF094F7F8F2
:10412000F09410E060E070E080E09FE3711641F0F1
:1041300020E030E040E251E40E94273B1F5FF6CFD1
:10414000A70196010E94BB3A2B013C010E94A03BB3
:104150004B015C012AE0BC01A401CE010E94391F81
:104160007C01E20CF31C1123A1F1C501B4010E94F2
:1041700013399B01AC01C301B2010E94BA3A4B0151
:104180005C016EE2CE010E946408E80EF91E115037
:1041900000F120E030E040E251E4C501B4010E94AA
:1041A00074392B013C010E94A03B4B01CE010E94BF
:1041B000BD1FE80EF91EB40190E080E00E941339A3
:1041C0009B01AC01C301B2010E94BA3A4B015C01F0
:1041D000DECFC701DF91CF911F91FF90EF90DF906D
:1041E000CF90BF90AF909F908F907F906F905F9097
:1041F0004F903F902F9008950C94E01EFC01808119
:1042000091810C94903AEF92FF920F931F93CF936A
:10421000DF9300D000D0CDB7DEB7082F0E942E0C60
:1042200010E01C830B83CE0103960E94FE20E82E33
:10423000C80101969A838983CE0101960E94FE20CF
:10424000F82E60E080E00E94FF0BB70187EA95E05E
:104250000E94B71F6EED70E087EA95E00E946B0840
:10426000C80102969A838983CE0101960E94FE209E
:10427000682F70E087EA95E00E94B71F68ED70E054
:1042800087EA95E00E946B0861E080E00E94FF0BE6
:10429000C80106969A838983CE0101960E94FE206A
:1042A000682F87EA95E00E94C31F6FE287EA95E0D6
:1042B0000E946408C80107969A838983CE010196FB
:1042C0000E94FE20682F87EA95E00E94C31F6FE2DC
:1042D00087EA95E00E946408C80105969A8389835D
:1042E000CE0101960E94FE20682F87EA95E00E9489
:1042F000C31F60E287EA95E00E946408C801039644
:104300009A838983CE0101960E94FE20682F87EA56
:1043100095E00E94C31F6AE387EA95E00E94640863
:104320000C5F1F4F1A830983CE0101960E94FE2065
:10433000682F87EA95E00E94C31F1092BE04109276
:10434000BD040F900F900F900F90DF91CF911F91B0
:104350000F91FF90EF900895AF92BF92CF92DF92AE
:10436000EF92FF920F931F93CF93DF9300D000D073
:1043700000D0CDB7DEB7DD24D3945DE0C52E08EEC6
:1043800013E0F12CE12C2D2D30E08091A0049091D0
:10439000A10497FD079643E0959587954A95E1F727
:1043A000281739072CF5AC2CB12CBA82A982CE0182
:1043B00001960E94FE208E151F0439F034F0CE01C4
:1043C00001960E94FE20E82EF12CBA82A982CE012D
:1043D00001960E94FE208017110634F4CE0101964A
:1043E0000E94FE20082F10E088E0C80ED394CBCFA7
:1043F00067EA70E082E396E00E946B08B70182E30F
:1044000096E00E94B71F82EA90E00E94EF1E64E9E6
:1044100070E082E396E00E946B08B80182E396E0C8
:104420000E94B71F8FE890E00E94EF1E89E292E0A1
:104430009A8389838091910490919204A09193042E
:10444000B09194048B839C83AD83BE834AEB55EC7F
:10445000BE016F5F7F4F8FEB94E00E941D0760E805
:1044600070E08FEB94E00E946B08B7018FEB94E053
:104470000E94B71F6BE770E08FEB94E00E946B081F
:104480006DE670E08FEB94E00E946B08B8018FEB53
:1044900094E00E94B71F68E670E08FEB94E00E9402
:1044A0006B088FEB94E00E94EB1926960FB6F894F8
:1044B000DEBF0FBECDBFDF91CF911F910F91FF9057
:1044C000EF90DF90CF90BF90AF900895CF93DF93A0
:1044D000CDE0D0E060E0CE010E94983A2196C1156F
:1044E00084E0D807B9F78CE090E09093A104809322
:1044F000A0046CE0DF91CF910C94983A2F923F92F8
:104500004F925F926F927F928F929F92AF92BF92E3
:10451000CF92DF92EF92FF920F931F93CF93DF938F
:10452000CDB7DEB7C355D1090FB6F894DEBF0FBEC5
:10453000CDBF0E940E0DC090A202D090A302E090C9
:10454000A402F090A502C616D706E806F906C0F444
:1045500030E020E04EEA52E062EB72E085E994E060
:104560000E942F050E940E0D68577C4E8F4F9F4F63
:104570006093A2027093A3028093A4029093A50279
:104580000E940E0DC090A602D090A702E090A80253
:10459000F090A902C616D706E806F90608F085C00D
:1045A0008091EC02882309F480C030E020E04EEADC
:1045B00052E062EB72E085E994E00E942F0589E207
:1045C00092E09A8389838091910490919204A091C2
:1045D0009304B09194048B839C83AD83BE834AEB98
:1045E00055ECBE016F5F7F4F8FEB94E00E941D077B
:1045F0004091B2025091B3026091B4027091B50241
:1046000022E08FEB94E00E941A206EEE70E08FEBB8
:1046100094E00E946B0826E636E646EE5FE3609182
:10462000B2027091B3028091B4029091B5020E94DF
:10463000743920E030E040E052E40E94BB3A0E942E
:10464000993B8FEB94E00E94B71F68EE70E08FEB10
:1046500094E00E946B084091AE025091AF026091CD
:10466000B0027091B10222E08FEB94E00E941A2018
:1046700063EE70E08FEB94E00E946B088FEB94E0A8
:104680000E94EB190E940E0D68577C4E8F4F9F4F72
:104690006093A6027093A7028093A8029093A90248
:1046A00080918B048F5F80938B040E94DE12298798
:1046B0003A874B875C876D877E878F873111B8C0BB
:1046C0000E94DE122DA33EA34FA358A769A77AA785
:1046D0008BA72111D1C030E020E04EEA52E062EB1E
:1046E00072E085E994E00E942F056091B20270911A
:1046F000B3028091B4029091B5020E94993B7A83F3
:1047000069836091AE027091AF028091B002909186
:10471000B1020E94993B6B830E94DE122CA73DA739
:104720004EA75FA768AB79AB8AAB4C830E94DE12C1
:104730002BAB3CAB4DAB5EAB6FAB78AF89AF3D8382
:104740000E94DE122AAF3BAF4CAF5DAF6EAF7FAFC2
:1047500021968FAF21978E830E94DE1222962FAF73
:10476000229723963FAF239724964FAF2497259601
:104770005FAF259726966FAF269727967FAF27972F
:1047800028968FAF28977F830E94DE1229962FAF3D
:1047900029972A963FAF2A972B964FAF2B972C96A7
:1047A0005FAF2C972D966FAF2D972E967FAF2E97DC
:1047B0002F968FAF2F976887C090A004D090A10448
:1047C00076012FEFE21AF20AAE014F5F5F4F5A01F6
:1047D00059E0C50ED11C6196FFAEEEAE6197D501D2
:1047E0000D915D01CE01815B9F4F0E94FE20081755
:1047F00021F0602FC7010E94983ABFEFEB1AFB0A25
:10480000CE14DF0441F76091A0047091A104685FA9
:104810007F4F7093A1046093A0048CE090E00E940D
:10482000983A6CE474E080E090E00E94DC0C24C0D4
:104830000E94DE12288B398B4A8B5B8B6C8B7D8BB5
:104840008E8B3F3009F43CCF0E94DE122F8B388FC5
:10485000498F5A8F6B8F7C8F8D8F3E3109F430CF0B
:104860000E94DE122E8F3F8F48A359A36AA37BA319
:104870008CA33D3209F424CF0E94A411809116012B
:1048800090911701059709F071C00E9481127C0177
:104890000E940E0D8090AA029090AB02A090AC02F4
:1048A000B090AD0286169706A806B906B8F4EF28B0
:1048B00009F480C00E9481129093BE048093BD04CD
:1048C0000E940E0D6C507E4F8F4F9F4F6093AA0237
:1048D0007093AB028093AC029093AD02E090BD0464
:1048E000F090BE04E5E0EE16F10409F06AC00E9403
:1048F0002E0C66E071E087EA95E00E946B0840911B
:10490000B2025091B3026091B4027091B50222E0FC
:1049100087EA95E00E941A2061E071E087EA95E05D
:104920000E946B0861E080E00E94FF0B69EF70E07D
:1049300087EA95E00E946B084091AE025091AF0269
:104940006091B0027091B10222E087EA95E00E9486
:104950001A2064EF70E087EA95E00E946B081092DD
:10496000BE041092BD0486E080931501809116016B
:1049700090911701019709F07CC00E94A6120E9435
:10498000350C8091890490918A048130910509F059
:1049900052C1209114012850209314018091A00449
:1049A0009091A1048C30910509F057C08DE080935F
:1049B000140157C00E940E0D6C597F4F8F4F9F4FAF
:1049C00085CFF1E0EF16F10441F48DE00E94032160
:1049D000F0921701E0921601C9CF22E0E216F1042D
:1049E00029F500918C04D0908B040E942E0C6CE56C
:1049F00072E087EA95E00E94FC206D2D87EA95E041
:104A00000E94C31F61E080E00E94FF0B63E672E03A
:104A100087EA95E00E94FC20602F87EA95E00E94DB
:104A2000C31F1092BE041092BD04D2CF43E0E4161F
:104A3000F104F9F40E942E0C68E271E087EA95E037
:104A40000E946B0861E080E00E94FF0B6DE071E066
:104A500087EA95E00E946B08E4CF87502D3008F478
:104A6000A6CF809114010E94032110928A04109213
:104A700089048091160190911701029799F40E9480
:104A8000A6120E94350C8091890490918A0481308D
:104A9000910509F0EBC08CE10E94EE0B10928A04A4
:104AA000109289048091160190911701039709F0E3
:104AB0007BC00E94A6120E94350C809189049091BF
:104AC0008A048430910509F0DFC088E090E090937B
:104AD0001701809316010E942E0C60E471E087EAB2
:104AE00095E00E946B086091000187EA95E00E94C2
:104AF000C31F60E287EA95E00E94640860910101AB
:104B000087EA95E00E94C31F6DE287EA95E00E9464
:104B100064086091020187EA95E00E94C31F60E289
:104B200087EA95E00E9464086091030187EA95E0B6
:104B30000E94C31F6DE287EA95E00E9464086091BD
:104B4000040187EA95E00E94C31F60E287EA95E0CE
:104B50000E9464086091050187EA95E00E94C31FE6
:104B60006DE287EA95E00E9464086091060187EA99
:104B700095E00E94C31F60E287EA95E00E94640806
:104B80006DE371E087EA95E00E946B086091070190
:104B900087EA95E00E94C31F1092BE041092BD04E4
:104BA00010928A0410928904809116019091170145
:104BB0000697D1F40E94A6128091890490918A04EC
:104BC0008430910509F0B9C00E94662285E090E02A
:104BD00090931701809316019093BE048093BD04B7
:104BE00010928A0410928904809116019091170105
:104BF000079709F0EFC00E94A61280918904909156
:104C00008A048130910509F0A1C08CE10E94EE0B6D
:104C100080911501811103C088E280931501809174
:104C2000150181508093150161E00E94FF0B81E026
:104C300080938804CBC08430910579F4809114016D
:104C4000885F809314012091A0043091A104821701
:104C5000130609F00CF405CFA9CE8530910509F0B3
:104C600004CF9093170180931601FFCE84309105F5
:104C700011F488E111CF8530910509F00FCF9093A1
:104C80001701809316010ACF8230910551F587E014
:104C900090E090931701809316010E942E0CF12C46
:104CA000E12C0E2DFA82E982CE0101960E94FE20AF
:104CB000682F87EA95E00E94C31F8E2D8B7F83307B
:104CC00019F06EE20B3009F460E287EA95E00E9489
:104CD00064085FEFE51AF50A8CE0E816F10409F7BD
:104CE0005BCF81309105C9F486E090E09093170185
:104CF000809316010E942E0C64E571E087EA95E02E
:104D00000E946B0861E080E00E94FF0B63E471E0A9
:104D100087EA95E00E946B083FCF8330910521F42C
:104D200088E10E94EE0B3CCF8530910509F038CF29
:104D3000909317018093160133CF8530910509F0C8
:104D40004FCF90931701809316014ACF823091057F
:104D500009F08EC100911501033008F0ECC0D0902D
:104D60008804ED2CF12C90E080E00E94903A282FEE
:104D700030E00111CDC0C90164E670E00E94F53B4E
:104D8000A4E6DA9E800D911D11248F3F910509F054
:104D9000ECF4682F90E080E00E94983A60E0809107
:104DA00015010E94FF0B6091880487EA95E00E943C
:104DB000C31F61E0809115010E94FF0B8091880460
:104DC0008F5F8A3009F034CF1092880410928A04E1
:104DD000109289048091160190911701089789F526
:104DE0000E94A61261E0809115010E94FF0B809144
:104DF000AD05982F92609093AD058A600E94EE0BEE
:104E00008091890490918A048130910509F060C1F4
:104E10008CE10E94EE0B80911501811103C088E2A4
:104E2000809315018091150181508093150161E0F7
:104E30000E94FF0B81E08093880410928A041092F4
:104E4000890463961FAE63970E940E0D60938404DD
:104E500070938504809386049093870480918304E3
:104E6000882331F08DE063968FAF639710928304AF
:104E7000E0917405E353E53008F061C5F0E0E25DD0
:104E8000FE4F8081882309F45AC580917B058823D1
:104E900009F445C580917405843309F446C5873308
:104EA00009F455C58FEF8093850510928605109201
:104EB00087050E941A0D8FEB94E00E94B91B892B85
:104EC00009F451C581E0809383044EE150E063EC26
:104ED00072E08FEB94E00E944F1263EC72E082E389
:104EE00096E00E94FC2062E671E082E396E00E9478
:104EF0006B0880E0E82FF0E0DF01AD53BD4F9C91DF
:104F0000EB59FB4F992309F42DC590838F5FF2CFA6
:104F1000013029F4B701C9010E946E1136CFC901D1
:104F20006AE070E00E94F53BF901E81BF90BCF0144
:104F30008E0D9F1D2ACF0730F0F50430C9F4009183
:104F4000880481E090E00E94903A90E064E670E08E
:104F50000E94F53BF4E60F9F800D911D11248F3FB9
:104F6000910511F00CF032CF682F81E090E014CF62
:104F7000053059F481E090E00E94903A60918804F5
:104F800070E090E00E946E11EACF063009F01ECF6B
:104F900081E090E00E94903A282F30E0C9016AE059
:104FA00070E00E94F53B281B390B80918804820F2A
:104FB000932F911DD4CF0830D1F482E090E00E946D
:104FC000903A282F30E0C9016AE070E00E94F53B7A
:104FD000281B390B60918804620F732F711D6F3F7E
:104FE000710511F00CF0F2CE82E090E0D5CE0D30DC
:104FF00008F0ECCE0A30C9F40091880483E090E018
:105000000E94903A90E064E670E00E94F53B24E64E
:10501000029F800D911D11248F3F910511F00CF01E
:10502000D5CE682F83E090E0B7CE0B3059F483E003
:1050300090E00E94903A6091880470E090E00E94B5
:105040006E11EACF0C3009F0C1CE83E090E00E94EF
:10505000903A282F30E0C9016AE070E00E94F53BE9
:10506000281B390B80918804820F932F911DD4CF78
:105070008330910579F461E0809115010E94FF0B66
:105080008091AD05982F92609093AD058A600E9443
:10509000EE0B9ACE8430910591F488E10E94EE0BDC
:1050A00080911501883211F410921501809115013B
:1050B0008F5F8093150161E00E94FF0B85CE8530E4
:1050C000910509F083CE90931701809316017ECE4F
:1050D0008230910509F027C280911501823019F5BF
:1050E00020910001822F64E60E94E93B892F6AE04B
:1050F0000E94E93B01E0080F0A3009F400E0602F4C
:1051000070E0822F90E00E946E112091010128171B
:10511000190609F00CF491CE80930001602F82E013
:105120000E9408208ACE833009F520910001822F49
:105130006AE00E94E93B41E0490F4A3009F440E04F
:1051400030E0C9016AE070E00E94F53B281B390B92
:10515000240F311D809101018217130609F00CF410
:105160006CCE20930001642F83E0DACF853009F5FF
:1051700020910101822F64E60E94E93B892F6AE0B9
:105180000E94E93B01E0080F0A3009F400E0602FBB
:1051900070E0822F90E00E946E112091020128178A
:1051A000190609F00CF449CE80930101602F85E0C7
:1051B000B7CF863009F520910101822F6AE00E9465
:1051C000E93B41E0490F4A3009F440E030E0C901D1
:1051D0006AE070E00E94F53B281B390B240F311D5B
:1051E000809102018217130609F00CF426CE209359
:1051F0000101642F86E094CF883009F520910201E7
:10520000822F64E60E94E93B892F6AE00E94E93B15
:1052100001E0080F0A3009F400E0602F70E0822FEF
:1052200090E00E946E11209103012817190609F0E1
:105230000CF403CE80930201602F88E071CF893097
:1052400009F520910201822F6AE00E94E93B41E0CA
:10525000490F4A3009F440E030E0C9016AE070E0EB
:105260000E94F53B281B390B240F311D809103014F
:105270008217130609F00CF4E0CD20930201642F8D
:1052800089E04ECF8B3009F520910301822F64E62F
:105290000E94E93B892F6AE00E94E93B01E0080F88
:1052A0000A3009F400E0602F70E0822F90E00E9445
:1052B0006E11209104012817190609F00CF4BDCDD8
:1052C00080930301602F8BE02BCF8C3009F5209168
:1052D0000301822F6AE00E94E93B41E0490F4A3016
:1052E00009F440E030E0C9016AE070E00E94F53B5B
:1052F000281B390B240F311D8091040182171306DE
:1053000009F00CF49ACD20930301642F8CE008CFB0
:105310008E3009F520910401822F64E60E94E93B5A
:10532000892F6AE00E94E93B01E0080F0A3009F486
:1053300000E0602F70E0822F90E00E946E112091BB
:1053400005012817190609F00CF477CD80930401A4
:10535000602F8EE0E5CE8F3009F520910401822F79
:105360006AE00E94E93B41E0490F4A3009F440E01D
:1053700030E0C9016AE070E00E94F53B281B390B60
:10538000240F311D809105018217130609F00CF4DA
:1053900054CD20930401642F8FE0C2CE813109F5F2
:1053A00020910501822F64E60E94E93B892F6AE083
:1053B0000E94E93B01E0080F0A3009F400E0602F89
:1053C00070E0822F90E00E946E1120910601281754
:1053D000190609F00CF431CD80930501602F81E1AD
:1053E0009FCE823109F520910501822F6AE00E944B
:1053F000E93B41E0490F4A3009F440E030E0C9019F
:105400006AE070E00E94F53B281B390B240F311D28
:10541000809106018217130609F00CF40ECD20933B
:105420000501642F82E17CCE843109F520910601CB
:10543000822F64E60E94E93B892F6AE00E94E93BE3
:1054400001E0080F0A3009F400E0602F70E0822FBD
:1054500090E00E946E11209107012817190609F0AB
:105460000CF4EBCC80930601602F84E159CE85319A
:1054700009F520910601822F6AE00E94E93B41E094
:10548000490F4A3009F440E030E0C9016AE070E0B9
:105490000E94F53B281B390B240F311D8091070119
:1054A0008217130609F00CF4C8CC20930601642F70
:1054B00085E136CE8931D1F420910701822F64E64F
:1054C0000E94E93B892F6AE00E94E93B01E0080F56
:1054D0000A3009F400E0602F70E0822F90E00E9413
:1054E0006E1180930701602F89E11ACE8A3109F08D
:1054F000A4CC20910701822F6AE00E94E93B41E0A1
:10550000490F4A3009F440E030E0C9016AE070E038
:105510000E94F53B281B390B240F311D20930701F6
:10552000642F8AE1FDCD8330910509F0D8C1209127
:1055300015012230B1F420910001822F64E60E940F
:10554000E93B892F6AE00E94E93B0FEF080F0F3F0C
:1055500009F409E0602F70E0822F90E00E946E1144
:10556000DBCD2330B1F420910001822F6AE00E944C
:10557000E93B4FEF490F4F3F09F449E030E0C901E3
:105580006AE070E00E94F53B281B390B240F311DA7
:10559000E8CD2530E1F420910101822F64E60E94DC
:1055A000E93B892F6AE00E94E93B0FEF080F0F3FAC
:1055B00009F409E0602F70E0822F90E00E946E11E4
:1055C00020910001281719060CF037CCEDCD2630BC
:1055D000E1F420910101822F6AE00E94E93B4FEF44
:1055E000490F4F3F09F449E030E0C9016AE070E03B
:1055F0000E94F53B281B390B240F311D80910001BF
:10560000821713060CF019CCF2CD2830E1F420916A
:105610000201822F64E60E94E93B892F6AE00E9422
:10562000E93B0FEF080F0F3F09F409E0602F70E02E
:10563000822F90E00E946E11209101012817190617
:105640000CF0FBCBF7CD2930E9F4E09102018E2F6D
:105650006AE00E94E93B915008F0292FF0E0CF0169
:105660006AE070E00E94F53BE81BF90BE20FF11DC8
:10567000809101018E171F060CF0DFCBE093020131
:10568000622FFECD2B30E1F420910301822F64E6DE
:105690000E94E93B892F6AE00E94E93B0FEF080F67
:1056A0000F3F09F409E0602F70E0822F90E00E9424
:1056B0006E1120910201281719060CF0BECB00CE06
:1056C0002C30E1F420910301822F6AE00E94E93B33
:1056D0004FEF490F4F3F09F449E030E0C9016AE05C
:1056E00070E00E94F53B281B390B240F311D80917F
:1056F0000201821713060CF0A0CB05CE2E30E1F488
:1057000020910401822F64E60E94E93B892F6AE020
:105710000E94E93B0FEF080F0F3F09F409E0602FEB
:1057200070E0822F90E00E946E11209103012817F3
:1057300019060CF082CB0ACE2F30E1F4209104013F
:10574000822F6AE00E94E93B4FEF490F4F3F09F477
:1057500049E030E0C9016AE070E00E94F53B281B97
:10576000390B240F311D80910301821713060CF0B1
:1057700064CB0FCE2131E1F420910501822F64E644
:105780000E94E93B892F6AE00E94E93B0FEF080F76
:105790000F3F09F409E0602F70E0822F90E00E9433
:1057A0006E1120910401281719060CF046CB14CE77
:1057B0002231E1F420910501822F6AE00E94E93B49
:1057C0004FEF490F4F3F09F449E030E0C9016AE06B
:1057D00070E00E94F53B281B390B240F311D80918E
:1057E0000401821713060CF028CB19CE2431E1F402
:1057F00020910601822F64E60E94E93B892F6AE02E
:105800000E94E93B0FEF080F0F3F09F409E0602FFA
:1058100070E0822F90E00E946E1120910501281700
:1058200019060CF00ACB1ECE2531E1F420910601B9
:10583000822F6AE00E94E93B4FEF490F4F3F09F486
:1058400049E030E0C9016AE070E00E94F53B281BA6
:10585000390B240F311D80910501821713060CF0BE
:10586000ECCA23CE2931E1F420910701822F64E6AE
:105870000E94E93B892F6AE00E94E93B0FEF080F85
:105880000F3F09F409E0602F70E0822F90E00E9442
:105890006E1120910601281719060CF0CECA21CEF0
:1058A0002A3109F0CACA20910701822F6AE00E94BA
:1058B000E93B4FEF490F4F3F09F449E030E0C901A0
:1058C0006AE070E00E94F53B281B390B240F311D64
:1058D00080910601821713060CF0AFCA1FCE8430E8
:1058E0009105A1F488E10E94EE0B809115018832A8
:1058F00011F410921501809115018F5F80931501AD
:1059000061E00E94FF0B1092880497CA85309105D0
:1059100009F093CA90931701809316018ECA0E94D2
:10592000B215882309F4BECAB5CA80E591E00E9489
:105930005A0285E390E00E94871585FDB3CA109254
:10594000850580E880938605109287058CC080E5E8
:1059500091E00E945A028EE290E00E94871580FD3D
:10596000A1CAEDCF108226E636E646EE5FE36091EF
:10597000B2027091B3028091B4029091B5020E947C
:10598000743920E030E040E052E40E94BB3A0E94CB
:10599000993B809100018617170664F580910101FB
:1059A0008617170609F034F480910201861717064E
:1059B0000CF096C0809103018617170609F034F4A5
:1059C00080910401861717060CF08CC080910501A8
:1059D0008617170609F034F480910601861717061A
:1059E0000CF082C0809107018617170609F01CF49D
:1059F00019E001C015E08091B6028117B1F189E28A
:105A000092E09A8389838091910490919204A0916D
:105A10009304B09194048B839C83AD83BE834AEB43
:105A200055ECBE016F5F7F4F8FEB94E00E941D0726
:105A3000153009F05BC01093B60262EA71E08FEB9B
:105A400094E00E946B088FEF80938905109288057F
:105A500080938A0580918B048F5F80938B048FEBFA
:105A600094E00E94EB190E941A0D82E396E00E94D6
:105A7000B507892B09F48EC082E396E00E94930754
:105A80000E94AB3A63968FAF6397BE016E5A7F4F09
:105A900085E694E00E94680263968FAD63978F3726
:105AA00009F070C06EE672E082E396E00E94FC208E
:105AB00068E772E082E396E00E94FC206EE672E006
:105AC00082E396E00E94FC2080E0E82FF0E0DF0116
:105AD000AB59BB4F9C91992309F44AC08F5FF5CF16
