:100000000C94B6010C94DE010C94DE010C94DE011C
:100010000C94DE010C94DE010C94DE010C94DE01E4
:100020000C94DE010C94DE010C94DE010C94DE01D4
:100030000C94DE010C94DE010C94DE010C94DE01C4
:100040000C9491240C94DE010C945F240C943924BC
:100050000C94DE010C94DE010C94DE010C94DE01A4
:100060000C941A230C94DE012A494E56414C494403
:1000700020434F4D4D414E44002A494E56414C4974
:100080004420434F4D4D414E44002052482520000E
:10009000202A4320000000000800020100000304A1
:1000A0000700000000000000003E57656C636F6DA4
:1000B0006520746F2041726475696E6F20436F6DA7
:1000C0006D616E64204C696E6520496E7465727056
:1000D00072657465722C20656E74657220274845C0
:1000E0004C502720666F72206C697374206F6620F5
:1000F000636F6D6D616E6473210A002052482500A4
:10010000202A462C2000202A432C2000205248255B
:100110000048756D69643A2000202A432000546528
:100120006D703A2000203C204572617365203E20AE
:1001300054656D70205468726573686F6C647300E9
:10014000205E2049502F5375626E65742F4761748D
:1001500065776179003E3D003C3D00596573282D6F
:100160003E29204E6F28486F6D6529004172652039
:10017000596F7520537572653F00202A5041434BDB
:100180004554205245434549564544004D616A6FE8
:1001900072204F766572004D696E6F72204F7665E2
:1001A0007200436F6D666F727461626C65004D69B9
:1001B0006E6F7220556E646572004D616A6F7220B9
:1001C000556E646572003E20424C494E4B20494EAC
:1001D00054455256414C2053455420544F3A200028
:1001E0004F4646003E2052474220003E20524742A2
:1001F00020003E2052474220424C494E4B494E4738
:10020000202800414C5445524E4154494E4720004D
:10021000414C5445524E4154494E47004F464620AA
:10022000004F4646004F464620004F464600475284
:1002300045454E2000475245454E004F464620005A
:100240004F4646005245442000524544004752451F
:10025000454E2000475245454E005245442000522D
:10026000454400424C494E4B494E472000424C49C0
:100270004E4B494E4720003E204C454420003E2036
:100280004C45442000455155414C533A20004551BE
:1002900055414C533A20002041743A20004F6E3AA9
:1002A000200020524825200048756D6964697479E2
:1002B0003A2000202A43200054656D703A20002027
:1002C0002A4320004C4F574553542054454D503A33
:1002D0002000202A432000484947484553542054D1
:1002E000454D503A2000202A4320004C4F5745539B
:1002F000542054454D503A2000202A4320004849BC
:1003000047484553542054454D503A20002A4E4FFB
:100310002044415441205945540056657273696F19
:100320006E3A200000000000230026002900000093
:100330000000250028002B000000000024002700FA
:100340002A00010204081020408001020408102045
:10035000010204081020040404040404040402023A
:10036000020202020303030303031F2611241FBE1C
:10037000CFEFD8E0DEBFCDBF12E0A0E0B1E0E0E417
:10038000F4E702C005900D92AE39B107D9F726E027
:10039000AEE9B2E001C01D92A73FB207E1F711E05C
:1003A000C6EBD1E004C02197FE010E94FD39C53B98
:1003B000D107C9F70E9437260C94F6360C9400003A
:1003C00080E480937C0080917A00806480937A003E
:1003D00080917A0086FDFCCF809178009091790021
:1003E00008958CBD9DBD0895E091C505F091C605A9
:1003F0000190F081E02D682F85EC95E009949C0137
:1004000090E0F901E90FF11D8081811105C0DB0148
:100410008C918083118208959F5FF3CF8091AE0508
:10042000811145C01092A00510929F058FEF809317
:10043000A3058093A4058093A5058093A6058093CA
:10044000A7058093A80581E08093A9051092AB05CC
:100450001092AA051092A2051092A1058091E406BF
:100460009091E506892B31F48DE995E09093E506AE
:100470008093E406E0918F05F0919005309721F08C
:100480008DE995E0958384838DE995E090939005BF
:1004900080938F051092AD051092AC0583E492E035
:1004A00090939E0580939D0581E08093AE05E09139
:1004B0009D05F0919E050480F581E02D8DE995E084
:1004C000099581E995E09093A00580939F0584E0CC
:1004D00090E09093AB058093AA05E0919D05F09183
:1004E0009E050284F385E02D8DE995E0099500973E
:1004F00001F19C0150E040E060E472E48FE090E0A4
:100500000E9429388091ED069091EE06A091EF06A9
:10051000B091F00682179307A407B50710F4DA012B
:10052000C9018093ED069093EE06A093EF06B09379
:10053000F0068DE995E0089583EA92E090938E05A8
:1005400080938D05089508958BEA92E090938C0531
:1005500080938B050895089520913E05260F33273B
:10056000331F21323105ECF420913B06FC0190E071
:1005700080E0243069F082E00895A0913E05219149
:10058000AC01425E5A4FA40FB52FB11D2C930196BA
:10059000861798F380913E05680F60933E0580E0D2
:1005A000089581E008950895E091C4058091C30500
:1005B000E81730F4F0E0E55EF94F808190E00895AF
:1005C0008FEF9FEF08959091C4058091C3052FEFA1
:1005D0003FEF981748F4E92FF0E0E55EF94F2081EE
:1005E00030E09F5F9093C405C90108958091C305D1
:1005F0009091C405891B990B0895CF92DF92EF92D9
:10060000FF920F931F93CF93DF937C01CB018A015D
:100610002091D105222389F0EB016B01C40ED51E78
:10062000CC15DD0569F06991D701ED91FC91019040
:10063000F081E02DC7010995F3CF642F0E94AC0231
:10064000C801DF91CF911F910F91FF90EF90DF9044
:10065000CF900895CF93DF931F92CDB7DEB7698314
:100660002091D1052223F9F02091D405203258F0B1
:1006700021E030E0FC013383228390E080E00F90A2
:10068000DF91CF9108958091D205E82FF0E0EB52F1
:10069000FA4F998190838F5F8093D2058093D40520
:1006A00081E090E0ECCF61E0CE0101960E94AC02C7
:1006B000F7CFFC0120812EBD9B012150310941F073
:1006C00051810DB407FEFDCF4EB55EBD4193F5CF10
:1006D00061507109860F971F0DB407FEFDCF2EB52F
:1006E000FC0120830895E0910E05F0910F058081B3
:1006F00090910D05892B80830895E0910E05F0916E
:100700000F05908180910D05809589238083089540
:100710008EBD00000DB407FEFDCF8EB50895AF92DB
:10072000BF92CF92DF92EF92FF920F931F93CF93DE
:10073000DF93CDB7DEB728970FB6F894DEBF0FBEB4
:10074000CDBF8C017B016A01809183058333E1F485
:100750005801A40EB51EA016B10609F46FC00E9480
:100760007D0380EF0E948803812F0E948803802FE1
:100770000E9488030F5F1F4FF70181917F010E9444
:1007800088030E947303E7CF5B01A40EB51E843378
:10079000C1F40E947D0319830A838D2D80688B83A9
:1007A000CC8264E070E0CE0101960E945903AE1441
:1007B000BF0409F441C0F70181917F010E948803C1
:1007C000F6CF0E947D030F3F110509F028F419822E
:1007D0000A8384E08B830CC017FD17C019820A833B
:1007E00033E0169507953A95E1F7007E0C600B8390
:1007F00086E0C816D104A0F5F701DE011496EA15CB
:10080000FB0599F081918D93FACFC80126E096956A
:1008100087952A95E1F7807E19830A830115104C8C
:1008200010F48461D7CF8C61D5CFB6016D5F7F4F57
:10083000CE0101960E9459030E947303C6012896B7
:100840000FB6F894DEBF0FBECDBFDF91CF911F91E1
:100850000F91FF90EF90DF90CF90BF90AF900895F1
:1008600063E070E0CE0101960E945903F701819187
:100870007F010E948803AE14BF04C1F7DDCFCF9380
:10088000DF931F92CDB7DEB7898341E050E0BE0110
:100890006F5F7F4F90E080E00E948F030F90DF91A9
:1008A000CF91089590E020918305233339F40C967D
:1008B000982F990F990F990F80E008954896F8CFD7
:1008C000DA01E091C205F0E0FE2FEE27E60FF71FF8
:1008D00090E0982F8827A901BD018E0F9F1F0C94CF
:1008E0008F03CF93DF9300D0CDB7DEB779836A83D0
:1008F00022E030E0AE014F5F5F4F64E070E00E94A5
:1009000060040F900F90DF91CF910895CF93DF9304
:100910001F92CDB7DEB72091C20530E0322F2227DB
:10092000260F371F90E0982F8827498341E050E039
:10093000BE016F5F7F4F820F931F0E948F030F9046
:10094000DF91CF910895CF92DF92EF92FF920F93B4
:100950001F93CF93DF93EC017A016901E881F9815C
:100960000190F081E02D0995E881F9810084F185FD
:10097000E02D9801A601B701CE01DF91CF911F9123
:100980000F91FF90EF90DF90CF9009946F927F923C
:100990008F929F92AF92BF92CF92DF92EF92FF928F
:1009A0000F931F93CF93DF93CDB7DEB7AC970FB6FE
:1009B000F894DEBF0FBECDBFDC011696ED91FC9121
:1009C000319609F48BC059013A016B018C01FE018B
:1009D00031964F0188E2DF011D928A95E9F7D8012F
:1009E000ED91FC910488F589E02DB401C8010995C9
:1009F0007C01892B09F05CC01AA619A61CA61BA6AF
:100A0000D801ED91FC910688F789E02D9E01255DC6
:100A10003F4FAE01475D5F4FB401C80109957C01AE
:100A2000892B09F045C0A114B10439F088E2F40122
:100A3000D50101900D928A95E1F7C114D10409F115
:100A400089A59AA521E030E097FF02C02FEF3FEF84
:100A50009F77829FB001839F700D929F700D11242C
:100A6000072E000C880B990B0E94093720E030E01C
:100A700040E251E40E941B39F60160837183828356
:100A8000938361147104A1F06BA57CA5072E000C63
:100A9000880B990B0E94093720E030E040E251E4D6
:100AA0000E941B39D3016D937D938D939C93139773
:100AB000C701AC960FB6F894DEBF0FBECDBFDF9175
:100AC000CF911F910F91FF90EF90DF90CF90BF904B
:100AD000AF909F908F907F906F90089587E1E82E60
:100AE000F12CE6CF8F929F92AF92BF92CF92DF927E
:100AF000EF92FF920F931F93CF93DF93EC018B0143
:100B00006A017901E881F9810288F389E02D09956C
:100B1000B82EB801685F7F4FE881F9810288F389B8
:100B2000E02DCE010995982EB801605F7F4FE881D6
:100B3000F9810288F389E02DCE010995A82EB8012C
:100B4000685E7F4FE881F9810288F389E02DCE014C
:100B50000995882EB801605E7F4FE881F98102888F
:100B6000F389E02DCE0109959B2D990D9A0D980DD5
:100B7000891319C09A2D882DF601918380839B2DAE
:100B8000892DF7019183808390E080E0DF91CF9100
:100B90001F910F91FF90EF90DF90CF90BF90AF909B
:100BA0009F908F90089585E190E0F0CF47E050E06E
:100BB00080E0FB012191BF01042E01C0220F0A94A5
:100BC000EAF7820F41505109A0F70895FC01828590
:100BD00090E00895FC01818590E00895CF92DF9226
:100BE000EF92FF920F931F93CF93DF93EC017A0163
:100BF0006901E881F9810190F081E02D0995E88192
:100C0000F9810480F581E02D9801A601B701CE019C
:100C1000DF91CF911F910F91FF90EF90DF90CF90D8
:100C20000994CF92DF92EF92FF920F931F93CF938D
:100C3000DF93CDB7DEB728970FB6F894DEBF0FBEAF
:100C4000CDBFDC011696ED91FC91319609F440C0C0
:100C50008A017B0119821A821B821C821D821E82DC
:100C60001F821886DC01ED91FC910084F185E02D56
:100C7000AE014B5F5F4FBE016F5F7F4F09956C0107
:100C8000892BB1F4E114F10441F069817A818B81FF
:100C90009C810E948D39F70160830115110541F097
:100CA0006D817E818F8198850E948D39D8016C93EA
:100CB000C60128960FB6F894DEBF0FBECDBFDF91F8
:100CC000CF911F910F91FF90EF90DF90CF900895FB
:100CD00087E1C82ED12CECCF262F2D7F29F4FC01E3
:100CE000608790E080E0089588E190E00895DC015D
:100CF00017967C936E931697FB01EE5BFC4FE49185
:100D00001996EC9319976A5A7C4FFB0164911A96D5
:100D10006C9308956AE00E94DD39292F30E1839FAA
:100D2000C0011124822B0895982F92959F708F7087
:100D30002AE0929F800D112408950895CF93DF93A8
:100D40001F92CDB7DEB76983DC01ED91FC91028083
:100D5000F381E02D41E050E0BE016F5F7F4F0995C8
:100D60000F90DF91CF910895DF92EF92FF920F9352
:100D70001F93CF93DF9300D0CDB7DEB7FB01DC012B
:100D800057961C921E9256972281211109C02381E9
:100D9000211106C02481211103C02581222369F17C
:100DA0004115510551F17A018F01FC01D08C80E58C
:100DB00091E00E94F101A8014E5F5F4F24E030E016
:100DC0006CE070E08D2D0E946004F982EA8222E0DE
:100DD00030E0AE014F5F5F4F60E170E08D2D0E940B
:100DE000600481E090E00F900F90DF91CF911F9110
:100DF0000F91FF90EF90DF90089580E0F3CFFC011A
:100E0000818D928D0895FC01848595850895FC015E
:100E10008489958908952DE232E0FC013183208395
:100E2000FB014089518962897389FC0142835383A4
:100E3000648375830895FC01538D448D252F30E024
:100E4000842F90E0821B930B541710F0CF960895D7
:100E500001970895FC01918D828D981761F0A28D04
:100E6000AE0FBF2FB11D5D968C91928D9F5F9F73CA
:100E7000928F90E008958FEF9FEF0895FC01918D80
:100E8000828D981731F0828DE80FF11D858D90E0ED
:100E900008958FEF9FEF0895FC01918D228D892F8A
:100EA00090E0805C9F4F821B91098F739927089572
:100EB000FC01A48DA80FB92FB11DA35ABF4F2C91CF
:100EC000848D90E001968F739927848FA689B789C6
:100ED0002C93A089B1898C91837080648C93938DBD
:100EE000848D981306C00288F389E02D80818F7D60
:100EF00080830895EF92FF920F931F93CF93DF9318
:100F0000EC0181E0888F9B8D8C8D98131AC0E88945
:100F1000F989808185FF15C09FB7F894EE89FF8914
:100F20006083E889F98980818370806480839FBFB2
:100F300081E090E0DF91CF911F910F91FF90EF90B2
:100F40000895F62E0B8D10E00F5F1F4F0F731127C2
:100F5000E02E8C8D8E110CC00FB607FCFACFE889FD
:100F6000F989808185FFF5CFCE010E945807F1CF26
:100F7000EB8DEC0FFD2FF11DE35AFF4FF0829FB771
:100F8000F8940B8FEA89FB8980818062CFCFCF9361
:100F9000DF93EC01888D8823B9F0AA89BB89E889A1
:100FA000F9898C9185FD03C0808186FD0DC00FB647
:100FB00007FCF7CF8C9185FFF2CF808185FFEDCFC5
:100FC000CE010E945807E9CFDF91CF91089581E4C7
:100FD00096E00E944C0721E0892B09F420E0822F43
:100FE000089580E090E0892B29F00E94E7078111A5
:100FF0000C9400000895DC01ED91FC910190F081CA
:10100000E02D0994EF92FF920F931F93CF93DF93FC
:101010008C017B01D0E0C0E0F701EC0FFD1F649173
:10102000662361F0D801ED91FC910190F081E02DF3
:10103000C8010995892B11F02196EECFCE01DF91E1
:10104000CF911F910F91FF90EF900895AF92BF92B3
:10105000CF92DF92EF92FF920F931F93CF93DF9384
:101060006C017B018B01040F151FEB015E01AE18B3
:10107000BF08C017D10759F06991D601ED91FC91D5
:101080000190F081E02DC6010995892B79F7C50102
:10109000DF91CF911F910F91FF90EF90DF90CF9054
:1010A000BF90AF9008950895089590E0FC01EB562D
:1010B000FF4F2491FC01EE5BFC4F3491FC01EA5A96
:1010C000FC4FE491EE23C9F0222339F0233001F1E3
:1010D000A8F4213019F1223029F1F0E0EE0FFF1FC2
:1010E000E25DFC4FA591B4918FB7F894EC9161113A
:1010F00026C030953E233C938FBF08952730A9F03A
:101100002830C9F0243049F7809180008F7D03C0DA
:10111000809180008F7780938000DFCF84B58F77B8
:1011200084BDDBCF84B58F7DFBCF8091B0008F77FE
:101130008093B000D2CF8091B0008F7DF9CF3E2B4D
:10114000DACF10923B0681E080931A0610921506C2
:1011500061E082E10E94550861E083E10E94550848
:10116000E9EBF0E080818E7F808380818D7F8083BA
:1011700088E48093B80085E48093BC0008951092C1
:10118000C4051092C3051092D2051092D4050E9496
:10119000A1080E94A4020C949C02CF93DF9391E0DB
:1011A00090931D058823B9F0C091B800D091BA0082
:1011B0008091BC008A7B8093BC0060E082E10E9449
:1011C000550860E083E10E9455080E94A108D09371
:1011D000BA00C093B800DF91CF910895CF93DF9309
:1011E00090E0FC01EE5BFC4F24918A5A9C4FFC017D
:1011F00084918823C9F090E0880F991FFC01E85C76
:10120000FC4FA591B491FC01E25DFC4FC591D491D6
:1012100061110DC09FB7F8948C91209582238C9317
:101220008881282328839FBFDF91CF910895623062
:1012300051F49FB7F8943C91822F809583238C932F
:10124000E8812E2BEFCF8FB7F894EC912E2B2C93B7
:101250008FBFEACF1F93CF93DF93182FEB0161E08D
:101260000E94EE08209739F460E0812FDF91CF9142
:101270001F910C945508CF3FD10511F461E0F5CFD3
:10128000E12FF0E0EB56FF4FE491E33031F140F411
:10129000E130B1F0E230E1F0C038D1057CF7E4CFC5
:1012A000E73029F1E83059F1E430B1F7809180005E
:1012B000806280938000D0938B00C0938A0004C02A
:1012C00084B5806884BDC7BDDF91CF911F9108951B
:1012D00084B5806284BDC8BDF7CF809180008068EE
:1012E00080938000D0938900C0938800EDCF8091D7
:1012F000B00080688093B000C093B300E5CF8091C8
:10130000B00080628093B000C093B400DDCF7894C9
:1013100084B5826084BD84B5816084BD85B58260FA
:1013200085BD85B5816085BDEEE6F0E08081816098
:101330008083E1E8F0E01082808182608083808198
:1013400081608083E0E8F0E0808181608083E1EB70
:10135000F0E0808184608083E0EBF0E08081816058
:101360008083EAE7F0E0808184608083808182600E
:1013700080838081816080838081806880831092F7
:10138000C10008958130910539F0880F991F880FA9
:10139000991F05970197F1F708953FB7F894809149
:1013A000C7029091C802A091C902B091CA0226B5A5
:1013B000A89B05C02F3F19F00196A11DB11D3FBF8D
:1013C000BA2FA92F982F8827BC01CD01620F711D5C
:1013D000811D911D42E0660F771F881F991F4A9556
:1013E000D1F70895CF92DF92EF92FF920F931F9360
:1013F000CF93C82F813208F096C00E94CD096B01AF
:101400007C0180913B06811169C081E080933B069D
:1014100080931A069FEF90931906109218069C0F5E
:10142000909317068093160680911606806D809320
:10143000160680911506813009F077C010921506C6
:101440000E94CD096B017C01809116068093BB0040
:1014500080913D0690913E06A0913F06B0914006D6
:10146000892B8A2B8B2BA1F00E94CD0900913D0680
:1014700010913E0620913F06309140066C197D097F
:101480008E099F09061717072807390708F447C070
:101490008091BC0083FDD8CF85EC8093BC000E9476
:1014A000CD096B017C0180913B06813009F43FC07E
:1014B000809118068C1710F4C0911806A5EFB5E0BE
:1014C000EBE1F6E080E08C1354C08C2FCF911F919C
:1014D0000F91FF90EF90DF90CF90089580913D069F
:1014E00090913E06A0913F06B0914006892B8A2B31
:1014F0008B2B09F486CF0E94CD0900913D061091F7
:101500003E0620913F06309140066C197D098E09F8
:101510009F09061717072807390708F072CF80912F
:101520003C060E94CD08C0E0D0CF85EEB6CF8091BA
:101530003D0690913E06A0913F06B0914006892B52
:101540008A2B8B2B09F4AFCF0E94CD0900913D0669
:1015500010913E0620913F06309140066C197D099E
:101560008E099F09061717072807390708F09BCF30
:10157000D6CF9D9191938F5FA6CF8F929F92AF927E
:10158000BF92CF92DF92EF92FF920F931F93CF9370
:10159000DF93613208F0D1C0142FD62FC82F0E94DC
:1015A000CD096B017C0180913B0681116BC082E00B
:1015B00080933B0610931A068FEF809319061092C2
:1015C0001806D0931706A5EDB5E0E5EFF5E080E04D
:1015D000D8138BC01092160680911606CC0FC82B1C
:1015E000C093160680911506813009F082C01092D2
:1015F00015060E94CD096B017C018091160680932F
:10160000BB0080913D0690913E06A0913F06B091AF
:101610004006892B8A2B8B2BA1F00E94CD090091CB
:101620003D0610913E0620913F06309140066C1910
:101630007D098E099F09061717072807390708F43F
:1016400042C08091BC0083FDD8CF85EC8093BC0064
:101650000E94CD096B017C0180913B06823009F428
:101660004AC0809119068F3F09F469C0809119061C
:10167000803209F466C080911906803309F463C092
:1016800084E026C080913D0690913E06A0913F06E1
:10169000B0914006892B8A2B8B2B09F484CF0E94B2
:1016A000CD0980903D0690903E06A0903F06B090F8
:1016B00040066C197D098E099F0986169706A806B3
:1016C000B90608F070CF80913C060E94CD0885E0F5
:1016D000DF91CF911F910F91FF90EF90DF90CF900E
:1016E000BF90AF909F908F9008959D9191938F5F41
:1016F0006FCF85EEABCF80913D0690913E06A091D5
:101700003F06B0914006892B8A2B8B2B09F4A4CF7E
:101710000E94CD0900913D0610913E0620913F06A2
:10172000309140066C197D098E099F09061717072D
:101730002807390708F090CFC6CF81E0C9CF80E0F5
:10174000C7CF82E0C5CF83E0C3CF482F6091D405D7
:101750008091D3050E94BD0A1092D2051092D40543
:101760001092D1050895FC01248131E03093D10518
:101770002093D3051092D2051092D4058385862B31
:1017800090E00E94F40181E00C94A50B0F931F934D
:10179000CF938C01C62F0E94B30B6C2F6460C801DD
:1017A0000E94B30B81E090E00E94C2096C2F6B7F16
:1017B000C8010E94B30B82E390E0CF911F910F917B
:1017C0000C94C2090F931F93CF938C01C62F607F97
:1017D00061600E94C60B80E1C89FB0011124616066
:1017E000C8010E94C60B81E090E0CF911F910F913C
:1017F0000895CF93C82F682F607F86EB95E00E94F5
:10180000C60B80E1C89FB001112486EB95E0CF9113
:101810000C94C60BCF93DF93CDB7DEB728970FB6E6
:10182000F894DEBF0FBECDBF98E0E4E2F1E0DE0148
:10183000119601900D929A95E1F79091BF05961738
:1018400008F46FEF70E0660F771F21E030E02C0F97
:101850003D1F620F731FFB019081890F80682896DE
:101860000FB6F894DEBF0FBECDBFDF91CF910C94C1
:10187000F90B81E00E94F90B80ED97E00C94C2090E
:10188000E6EBF5E086818D7F868388600C94F90B0A
:10189000CF93C62F91E09093D10598E69093D3050E
:1018A0001092D2051092D405682F85EC95E00E9425
:1018B0002A036C2F85EC95E00E942A0381E0CF91EA
:1018C0000C94A50B91E09093D10598E69093D305E5
:1018D0001092D2051092D405682F85EC95E00E94F5
:1018E0002A0381E00C94A50B7F928F929F92AF9276
:1018F000BF92CF92DF92EF92FF920F931F93CF93FD
:10190000DF93EC01162F7A0169010E94CD094B018A
:101910005C01712C1111798410E000E060E070E04E
:10192000CB012A813B814C815D812617370748070F
:101930005907F4F00115110561F5C7011E141F04C4
:1019400064F10E94CD09681979098A099B09EA8521
:10195000F0E0EE0FFF1FEC5DFC4FA591B4912C91D0
:101960000F5F1F4F39852323271105C097FFD9CF5C
:101970006FEF7FEFCB01DF91CF911F910F91FF9020
:10198000EF90DF90CF90BF90AF909F908F907F901F
:1019900008951C141D04ACF6C6010E94C209D1CFE3
:1019A0008F929F92AF92BF92CF92DF92EF92FF926F
:1019B0004B015C010E94CD096B017C010E94CD09A5
:1019C0006C197D098E099F09683E73408105910558
:1019D000A8F321E0821A9108A108B10888EEC80E88
:1019E00083E0D81EE11CF11C81149104A104B10410
:1019F00029F7FF90EF90DF90CF90BF90AF909F902E
:101A00008F9008952FB7F8946091C3027091C4022B
:101A10008091C5029091C6022FBF08954F925F92A8
:101A20006F927F929F92AF92BF92CF92DF92EF928E
:101A3000FF920F931F93CF93DF9300D01F92CDB7E8
:101A4000DEB7D090EA068091ED069091EE06A09167
:101A5000EF06B091F006892B8A2B8B2BD9F00E94D0
:101A6000CD090091E6061091E7062091E806309135
:101A7000E906601B710B820B930B0091ED06109130
:101A8000EE062091EF063091F0066017710782078D
:101A90009307C8F20E94CD096093E6067093E706AB
:101AA0008093E8069093E906E091F506F091F6063A
:101AB000309759F04091F1065091F2066091F3068B
:101AC0007091F4068D2D0995D82EE090E406F090E3
:101AD000E5064D2C512C712C612CE114F10409F414
:101AE00059C0D7011C96CC901C978091EB06909121
:101AF000EC068436910510F41C961C92D701ED91EA
:101B0000FC91A280B38019821A821B82DD2079F1B8
:101B1000F701369610E000E02191222319F192801E
:101B2000992001F130E050E040E02F5F3F4F4F4FF0
:101B30005F4FC301B2010E94CD399B01AC01892DD9
:101B400090E0B0E0A0E0BC01CD016F5F7F4F8F4F10
:101B50009F4F0E94CD39A1E0B0E0AC0FBD1FA00F98
:101B6000B11F8C930F5F1F4F03301105A9F6098138
:101B70001A812B81F7014585568562817381C701E2
:101B8000F5010995D7011C96CC921C971496ED90FF
:101B9000FC90A3CF8091E2069091E3068C010F5F49
:101BA0001F4F1093E3060093E2064997B4F10E9499
:101BB000020DC090DE06D090DF06E090E006F090C7
:101BC000E1069B01AC012C193D094E095F0921F486
:101BD00021E030E040E050E088EE93E0089FB00163
:101BE000099F700D189F700D1124072E000C880B93
:101BF000990B0E9453383093EC062093EB06109219
:101C0000E3061092E2060E94020D6093DE067093D6
:101C1000DF068093E0069093E1060F900F900F90FF
:101C2000DF91CF911F910F91FF90EF90DF90CF90B8
:101C3000BF90AF909F907F906F905F904F9008956E
:101C40000F931F93CF93DF932091AF022F5F322F1B
:101C500037703093AF0220FF2BC020E831FD2064A5
:101C6000347009F02062205FFC01EC01239600E053
:101C700011E06485662329F070E0C8010E94E9390B
:101C80006F5F6187322F369F030E30E0311D1124C4
:101C9000311110C01682662311F0615061873196B0
:101CA000EC17FD0731F7DF91CF911F910F91089548
:101CB00020E0D4CF31503683EECF4F925F927F92A7
:101CC0008F929F92AF92BF92CF92DF92EF92FF924C
:101CD0000F931F93CF93DF932C01EB010E94CD094B
:101CE000F20127853089621B730B6A307105B0F3EE
:101CF000F8948A819B81181619060CF0CDC1E881F1
:101D0000F9816BB1862E689487F83BB13F773BB978
:101D1000D9848E812D2D281B822F2E834F85042E52
:101D2000000C550BAA81BB817C85FD84EE847F5F0E
:101D3000F394E3949F819884BA84AB841081C12C7E
:101D40006C2D0C2D2C2D2081112788942111280F0A
:101D500008F42FEF8195889470FD120F17958894E1
:101D600071FD120F1795889472FD120F17958894C4
:101D700073FD120F1795889474FD120F17958894B0
:101D800075FD120F1795889476FD120F179588949C
:101D900077FD120F17958894622F7111612F8D0DA9
:101DA000162F002C8BB800C017FF3BB92181662786
:101DB000889400C000C0002C3BB92111290F00C03D
:101DC000002C8BB800C016FF3BB908F42FEF91959B
:101DD000889400C000C0002C3BB9F0FC620F00C02A
:101DE000002C8BB800C015FF3BB967958894F1FCB7
:101DF000620F00C000C0002C3BB96795889400C0FA
:101E0000002C8BB800C014FF3BB9F2FC620F679541
:101E1000889400C000C0002C3BB9F3FC620F00C0E6
:101E2000002C8BB800C013FF3BB967958894F4FC75
:101E3000620F00C000C0002C3BB96795889400C0B9
:101E4000002C8BB800C012FF3BB9F5FC620F679500
:101E5000889400C000C0002C3BB9F6FC620F00C0A3
:101E6000002C8BB800C011FF3BB967958894F7FC34
:101E7000620F00C000C0002C3BB96795889400C079
:101E8000002C8BB800C010FF3BB9122FF110162F99
:101E90009B0D00C000C0002C3BB900C000C0002C4E
:101EA0008BB800C017FF3BB922816627889400C019
:101EB00000C0002C3BB92111290D00C0002C8BB8AB
:101EC00000C016FF3BB908F42FEFE40FF51F00C068
:101ED00000C0002C3BB9E0FC620F00C0002C8BB8A6
:101EE00000C015FF3BB967958894E1FC620F00C004
:101EF00000C0002C3BB96795889400C0002C8BB8BB
:101F000000C014FF3BB9E2FC620F6795889400C0E3
:101F100000C0002C3BB9E3FC620F00C0002C8BB862
:101F200000C013FF3BB967958894E4FC620F00C0C2
:101F300000C0002C3BB96795889400C0002C8BB87A
:101F400000C012FF3BB9E5FC620F6795889400C0A2
:101F500000C0002C3BB9E6FC620F00C0002C8BB81F
:101F600000C011FF3BB967958894E7FC620F00C081
:101F700000C0002C3BB96795889400C0002C8BB83A
:101F800000C010FF3BB9122FE110162F919400C032
:101F900000C0002C3BB99A0C00C000C08BB800C038
:101FA00017FF3BB920816627889400C000C0002C31
:101FB0003BB92111280F00C0002C8BB800C016FFC0
:101FC0003BB908F42FEF8195889400C000C0002C25
:101FD0003BB970FD620F00C0002C8BB800C015FF2C
:101FE0003BB96795889471FD620F00C000C0002C5A
:101FF0003BB96795889400C0002C8BB800C014FFD3
:102000003BB972FD620F6795889400C000C0002C38
:102010003BB973FD620F00C0002C8BB800C013FFEA
:102020003BB96795889474FD620F00C000C0002C16
:102030003BB96795889400C0002C8BB800C012FF94
:102040003BB975FD620F6795889400C000C0002CF5
:102050003BB976FD620F00C0002C8BB800C011FFA9
:102060003BB96795889477FD620F00C000C0002CD3
:102070003BB96795889400C0002C8BB800C010FF56
:102080003BB9122F7111162F8D0D00C000C0002C0E
:102090003BB9119709F086CE4A815B8120EE31E091
:1020A000DA010E94033ADC01CB01F4E0B695A79572
:1020B00097958795FA95D1F730E020E0B901EAE9E4
:1020C0004E9F040E611D5E9F600D711D1124650FF2
:1020D000711D860F971FA11DB11D893E43E0940716
:1020E000A105B10508F434C0885E9340A109B10987
:1020F00042E0B695A795979587954A95D1F747E021
:10210000849F080E211D949F200D311D1124290F3D
:10211000311D6091AE0270E0860F971F820F931FF2
:102120004091C3025091C4026091C5027091C602F1
:10213000292F3327420F531F611D711D4093C30286
:102140005093C4026093C5027093C6028093AE029E
:1021500078940E94CD09F201708B6787DF91CF914F
:102160001F910F91FF90EF90DF90CF90BF90AF90B5
:102170009F908F907F905F904F90089580E991E0BD
:102180000895579A08956F927F928F92CF92DF921F
:10219000EF92FF920F931F93CF93DF93CDB7DEB7EC
:1021A00062970FB6F894DEBF0FBECDBF6C017A0107
:1021B0003801822EDC011C962C91CA0157FF04C005
:1021C00088279927841B950B7A8369839C838B834B
:1021D0009E838D836D867E868F86213049F5CE0164
:1021E00001960E94200E83E0888B1A8A198AF7FED6
:1021F00002C08DEF888BD601ED91FC910484F585AA
:10220000E02DBE016F5F7F4FC601099562960FB644
:10221000F894DEBF0FBECDBFDF91CF911F910F911C
:10222000FF90EF90DF90CF908F907F906F90089508
:102230001C861B861A86198618861F82D4CFEF92B9
:10224000FF920F931F93CF93DF93CDB7DEB76297C3
:102250000FB6F894DEBF0FBECDBF7C01DC011C962B
:102260008C917A8369835C834B835E834D830D8776
:102270001E872F878130F9F4CE0101960E94200E2F
:10228000188A1A8A198AD701ED91FC910484F58580
:10229000E02DBE016F5F7F4FC701099562960FB6B3
:1022A000F894DEBF0FBECDBFDF91CF911F910F918C
:1022B000FF90EF9008951C861B861A861986188653
:1022C0001F82DECFCF93DF93FC01EB0164E670E069
:1022D0000E94E9399F01281B390BCF016AE070E0A9
:1022E0000E94E939280F391F4AE04C9FC0014D9FD9
:1022F000900D1124820F931FDF91CF910895E1E992
:10230000F5E01082118212821092FC020C940E0DE4
:10231000E1E9F5E080910C01808380910E018183D9
:1023200080910A01828381E08093FC020C940E0D5F
:102330000F931F930E94020D0091A6021091A70215
:102340002091A8023091A90206171707280739071C
:1023500020F480911C03811104C080911B03882309
:1023600059F110921B030E94020D00910601109179
:1023700007012091080130910901DC01CB01800F98
:10238000911FA21FB31F8093A6029093A702A09350
:10239000A802B093A9028091FC02882331F0109228
:1023A000FC021F910F910C947F1181E08093FC023D
:1023B0001F910F910C9488111F910F9108950F9305
:1023C0001F93CF93DF93EC01E0E0F0E060E070E07A
:1023D000CB01DE01AE0FB11D2C91222309F12D326C
:1023E00011F4EF5FF1E0DE01AE0FB11D0C9120EDB5
:1023F000200F2A3018F5AAE0B0E09B01AC010E9442
:102400004838002E000C110B220B330B600F711F8C
:10241000821F931F6053710981099109EF5FD9CF22
:10242000FF2339F090958095709561957F4F8F4F80
:102430009F4FDF91CF911F910F9108956FEF7FEF25
:10244000CB01F7CFFC0190E030E020E07AE0DF0143
:10245000A90FB11D6C916623A1F080ED860F8A3023
:1024600070F4729FA001739F500D11249A01260FE2
:10247000311D67FD3A95205331099F5FE8CF2FEF5B
:102480003FEFC9010895DC01ED91FC91048CF58DBD
:10249000E02D099490E080E00895FC018585968503
:1024A00008950F931F93CF93DF9300D01F92CDB762
:1024B000DEB7AB0119821A821B82DC01ED91FC911F
:1024C0000190F081E02D00E010E020E0BE016F5FA0
:1024D0007F4F09950F900F900F90DF91CF911F9133
:1024E0000F91089590E080E008950E94E00182330A
:1024F00091058CF0833C91058CF08C3721E092079C
:1025000084F08B3222E092077CF0863193407CF09D
:1025100090E080E0089581E090E0089582E090E00E
:10252000089583E090E0089584E090E0089585E0C8
:1025300090E008950F931F93CF93DF930E9475123D
:10254000EC010E94020D0091AA021091AB022091B1
:10255000AC023091AD020617170728073907B0F40F
:10256000CD2BC9F00E9475129093EA048093E90480
:102570000E94020D6C507E4F8F4F9F4F6093AA02B6
:102580007093AB028093AC029093AD02DF91CF9138
:102590001F910F9108950E94020D6C597F4F8F4F2C
:1025A0009F4FECCFBF92CF92DF92EF92FF920F93AB
:1025B0001F93CF93DF9300D000D000D01F92CDB7F0
:1025C000DEB780E00E94620C87E00E94F209109260
:1025D000C4058093C3058730E1F585EC95E00E9442
:1025E000E3020E949406B82E85EC95E00E94E30277
:1025F0000E949406C82E85EC95E00E94E302182FF5
:1026000086FF3EC08F710E9494060CE015FD00E02D
:10261000080F85EC95E00E94E3020E949406D82EF4
:1026200085EC95E00E94E3020E949406E82E85EC7A
:1026300095E00E94E30210E087FD14E68F770E9488
:102640009406F82E85EC95E00E94E3020E94940621
:10265000180F2B2D3C2D402F5D2DB701812F90E0C1
:1026600027960FB6F894DEBF0FBECDBFDF91CF9196
:102670001F910F91FF90EF90DF90CF90BF90089542
:102680008F730E949406082FC4CFCF93DF93EB0182
:102690000E94620C81E00E94F2091092C4058093AE
:1026A000C30585EC95E00E94E302888381E0DF9119
:1026B000CF910895EF92FF921F93CF93DF931F92D4
:1026C000CDB7DEB77C01162FBE016F5F7F4F8EE066
:1026D0000E944513811108C080E00F90DF91CF91D7
:1026E0001F91FF90EF90089581E08093D10588E6D7
:1026F0008093D3051092D2051092D405113089F53C
:1027000087E090E00E94F401F70180810E948A0630
:1027100090E00E94F401898185608983F7018181BD
:102720000E948A0690E00E94F401F70182810E94D3
:102730008A0690E00E94F401F70184810E948A06D3
:1027400090E00E94F40181E00E94A50B8111C4CFAA
:1027500069818EE00E94480C8111BECF812F877065
:10276000BCCF8BE090E00E94F40189818660D5CFD8
:102770008FE48093040170E060E088E00E942A0901
:1027800070E060E089E00C942A0982E580930401FE
:10279000809305016FEF70E089E00E942A0970E0E4
:1027A00060E088E00C942A0987E480930401809318
:1027B00005016FEF70E088E00E942A0970E060E098
:1027C00089E00C942A090F931F930E94020D009137
:1027D000A2021091A3022091A4023091A502061733
:1027E00017072807390708F05EC080914003882347
:1027F00009F459C0809105018F3419F0823509F030
:102800004AC0909104019F3409F582E58093050147
:10281000809304010E94020D0091060110910701AE
:102820002091080130910901DC01CB01800F911F3B
:10283000A21FB31F8093A2029093A302A093A402AD
:10284000B093A5021F910F910C94C513823519F511
:10285000923549F587E480930501809304010E9435
:10286000020D00910601109107012091080130919D
:102870000901DC01CB01800F911FA21FB31F8093C0
:10288000A2029093A302A093A402B093A5021F9169
:102890000F910C94D413873431F480910401877F15
:1028A000873409F4B2CF1F910F910895CF92DF9230
:1028B000EF92FF92CF930E94020DC0909E02D090A3
:1028C0009F02E090A002F090A102C616D706E8068B
:1028D000F90620F480913F03811104C080911D030B
:1028E000882391F180910501823571F5C091010134
:1028F000C0FF1FC0C0900601D0900701E090080102
:10290000F0900901C1FF72C08FE4809304010E941E
:10291000020DC60ED71EE81EF91EC0929E02D0926E
:102920009F02E092A002F092A1020E94B8131092BE
:102930001D038C2F90E09595879595958795009729
:1029400009F467C0809301010E94020DC0909E02AD
:10295000D0909F02E090A002F090A102C616D70688
:10296000E806F90620F480913F03811104C08091AC
:102970001D038823A9F180910501873489F5C09151
:1029800000019C2F9270C0FF46C09923F9F08FE49C
:10299000809304010E94020DC0900601D0900701AF
:1029A000E0900801F0900901DC01CB018C0D9D1D28
:1029B000AE1DBF1D80939E0290939F02A093A00224
:1029C000B093A1020E94B81310921D038C2F90E0C7
:1029D00095958795959587950097E1F180930001EE
:1029E000CF91FF90EF90DF90CF90089580930401F6
:1029F0000E94020DC60ED71EE81EF91EC0929E024E
:102A0000D0929F02E092A002F092A1020E94C51310
:102A10008ECF87E797CF9923C9F2809304010E9454
:102A2000020DC0900601D0900701E0900801F090DF
:102A30000901DC01CB018C0D9D1DAE1DBF1D8093D6
:102A40009E0290939F02A093A002B093A1020E94C5
:102A5000D413BACF8BEBC2CF85ED8093BC008091AD
:102A60003D0690913E06A0913F06B0914006079624
:102A7000A11DB11D23E0B695A795979587952A9539
:102A8000D1F72091BC0024FD03C010923B060895AD
:102A900040913D0650913E0660913F067091400680
:102AA000452B462B472B69F30097A105B10541F053
:102AB00025E32A95F1F700000197A109B109E1CFBB
:102AC00080913C060C94CD08AF92BF92CF92DF92DA
:102AD000EF92FF920F931F93CF93DF9300D000D01C
:102AE000CDB7DEB78C016B017A018091830583330A
:102AF000E9F45B016801C40ED51EC016D106A9F128
:102B00000E947D038FE00E948803812F0E9488032A
:102B1000802F0E9488030F5F1F4F80E00E94880370
:102B2000F50181935F010E947303E7CF843369F558
:102B30000E947D0319830A838F2D8F778B83EC820C
:102B400064E070E0CE0101960E945903A70170E095
:102B500060E0C6010E94A738E114F10421F0B7013A
:102B6000C6010E9459030E947303C7010F900F9082
:102B70000F900F90DF91CF911F910F91FF90EF90E9
:102B8000DF90CF90BF90AF9008950E947D030F3FDC
:102B9000110509F030F419820A831B8263E070E0AA
:102BA000D1CF17FD0BC019820A8333E01695079524
:102BB0003A95E1F7007E08600B83F0CFC80126E06C
:102BC000969587952A95E1F7807E19830A830115EA
:102BD000104C18F480618B83E1CF8861FCCFFA013F
:102BE0002091C20530E0322F2227260F371F90E0B8
:102BF000982F882742E050E0BF01820F931F0C946A
:102C00006415FF920F931F93CF93DF9300D0CDB73E
:102C1000DEB7F82EAE014F5F5F4F66E270E00E94B4
:102C2000EF1509811A81102701271027AE014F5F88
:102C30005F4F66E270E08F2D0E94EF1589819A81C7
:102C40009827892798270817190749F4C8010F9072
:102C50000F90DF91CF911F910F91FF9008958C01FC
:102C6000E5CF3F924F925F926F927F928F929F92A9
:102C7000AF92BF92CF92DF92EF92FF920F931F938A
:102C8000CF93DF9300D0CDB7DEB75C014B01342E7C
:102C9000452EFC0166887788508C80E591E00E9483
:102CA000F101AE014F5F5F4F60E270E0852D0E9441
:102CB000EF15C980DA80DC24CD24DC24AE014F5F1F
:102CC0005F4F60E270E0852D0E94EF1589819A8147
:102CD000982789279827C816D90609F077C0E52CC8
:102CE000F12C67E0569EF0011124E959FA4FD58284
:102CF000C482032D142DC016D10608F48601AE013E
:102D00004F5F5F4F64E270E0852D0E94EF1589816F
:102D10009A81982789279827680E791E9301377022
:102D200040918305433309F053C088E0E80EF11C5D
:102D3000FE2CEE24FF0CFF0CFF0CC9018E0D9F1D15
:102D4000473309F449C0A901400F511F4130584091
:102D500008F442C060E078E06B01C21AD30AA60111
:102D6000B4010E948F03A8014C195D09B4016C0DD8
:102D70007D1DC7010E948F03600E711E79826A82D9
:102D800022E030E0AE014F5F5F4F64E270E0852DDE
:102D90000E946004F50186899789800F911F978BA7
:102DA000868BC8010F900F90DF91CF911F910F91EB
:102DB000FF90EF90DF90CF90BF90AF909F908F905B
:102DC0007F906F905F904F903F9008956C0176CF09
:102DD000E0E1EE0EF11CACCFA801B401CBCFCF9354
:102DE000DF931F92CDB7DEB741E050E0BE016F5FC9
:102DF0007F4F0E94641589810F90DF91CF910895D4
:102E000090E080E00C94EF16CF93DF93C4E1D0E024
:102E10000E940017882361F061E070E080E090E09C
:102E20000E94D00C2197A1F780E0DF91CF91089507
:102E300081E0FBCFDF92EF92FF920F931F93CF932E
:102E4000DF9300D0CDB7DEB760E372E080E090E0C2
:102E50000E94D00CDFB6F89400E613E03CE4E32EC9
:102E600033E0F32E80911005811125C0F801849183
:102E7000F7019491E82FF0E0EE0FFF1FE85CFC4FA4
:102E8000A591B4918C91982321F461E08AE00E948D
:102E9000550861E08AE00E94EE088CB580618CBD27
:102EA0008CB580648CBD61E08DE00E94EE0861E02D
:102EB0008BE00E94EE08809110058F5F80931005D3
:102EC000DFBEF8010491E02FF0E0EE0FFF1FE25D9E
:102ED000FC4F8591949190930F0580930E05F70117
:102EE000E490E0920D0561E08AE00E94EE080E9405
:102EF000730380E591E00E94F10184E380938305F0
:102F000080E80E943F040E940417882309F441C00E
:102F100088E00E943F040E9400178830D1F580E1CC
:102F20000E943F040E940017803199F580E00E94C2
:102F30003F040E940017182F81112BC08FE190E0F1
:102F40000E94EF16833029F580E48093C20542E0A9
:102F50006EE170E0812F0E94860442E06FE170E034
:102F6000812F0E9486041F5F143089F740E06EE1D4
:102F700070E0812F0E94860440E06FE170E0812FB5
:102F80000E9486041F5F183089F781E080938A05CC
:102F900064C087E38093830580E80E943F040E9419
:102FA00004178823F9F088E00E943F040E9400176C
:102FB0008830C1F480E10E943F040E940017182F5E
:102FC000803181F480E00E943F040E94001781114B
:102FD00009C089E390E00E94EF16843019F4109341
:102FE000C205D3CF83E38093830580E80E943F042A
:102FF0000E940417882371F180E10E943F040E941F
:103000000017803139F582E10E943F040E940017C9
:10301000823101F580E00E943F040E940017811177
:1030200019C084E08093C20515E51A8341E050E0A1
:10303000BE016E5F7F4F8BE190E00E948F0319838A
:1030400041E050E0BE016F5F7F4F8AE190E00E9457
:103050008F039BCF1092830580E00F900F90DF913C
:10306000CF911F910F91FF90EF90DF900895CF9235
:10307000DF92EF92FF92CF93DF93CDB7DEB7C254CA
:10308000D1090FB6F894DEBF0FBECDBFFC0142815F
:1030900053816481758123964CAF5DAF6EAF7FAF76
:1030A000239781E023968FAF23972396CCACDDAC9A
:1030B000EEACFFAC2397CBAADCAAEDAAFEAA4DA7E3
:1030C0005EA76FA778AB88ABCDA4DEA4EFA4F8A869
:1030D000CFA2D8A6E9A6FAA68EABCBA8DCA8EDA80D
:1030E000FEA8C9A2DAA2EBA2FCA22DE232E03C8B40
:1030F0002B8B9FEF9D8B9E8B9F8B188E3E872D87F2
:103100008AA7CFA0D8A4E9A4FAA4CF86D88AE98A4E
:10311000FA8A8CA389A19AA1ABA1BCA189879A87BD
:10312000AB87BC873A8329834B835C836D837E8323
:1031300080918A05882309F443C080E591E00E94CC
:10314000F10146E050E06EE171E089E090E00E941C
:103150008F0344E050E0BE016D5F7F4F8FE090E051
:103160000E948F0344E050E0BE01615F7F4F81E029
:1031700090E00E948F0344E050E0BE016B5E7F4F01
:1031800085E090E00E948F0381E08C8789859A8595
:10319000AB85BC858093860590938705A0938805B1
:1031A000B0938905CE5BDF4F0FB6F894DEBF0FBE3C
:1031B000CDBFDF91CF91FF90EF90DF90CF9008953A
:1031C0000E941A17882371F3B8CF2091C20530E00E
:1031D000322F2227620F731F90E0982F8827860FC7
:1031E000971F0C94EF16CF93C82F462F61E070E025
:1031F0000E94860461E070E08C2F0E94E518811126
:10320000F9CFCF9108958F929F92AF92BF92CF92B4
:10321000DF92EF92FF921F93CF93DF93CDB7DEB78C
:103220002C970FB6F894DEBF0FBECDBF209183055B
:1032300014E0222339F16B017C0180E591E00E94CA
:10324000F1015E0127E0A20EB11C450110E063E030
:1032500070E0812F0E94E518F40181934F018823CB
:1032600049F11F5F143099F710E0F50181915F017A
:103270008D31D9F08831C9F08A518230B0F01F5FAA
:10328000143099F7812F2C960FB6F894DEBF0FBE3D
:10329000CDBFDF91CF911F91FF90EF90DF90CF9046
:1032A000BF90AF909F908F90089560E170E0812F64
:1032B0000E94F318A12EB12C8AEF90E00E94C2095F
:1032C00042E870E060E0812F0E9486044FEF62E0E8
:1032D00070E0812F0E948604B601C114D10491F4DC
:1032E00080911C0190911D0101968115F0EC9F07C2
:1032F00008F462C090931D0180931C0160911C0131
:1033000070911D01812F0E94710486E0ECE2F1E0D2
:10331000DE01119601900D928A95E1F7F701838104
:103320008F778C8384818D8385818E83A7014E5F07
:103330005F4F24E030E06CE070E0812F0E94600479
:10334000DB86CC8622E030E0AE01455F5F4F60E176
:1033500070E0812F0E94600426E030E0AE014F5FF4
:103360005F4F66E070E0812F0E94600461E070E0D2
:10337000812F0E94F31827E02A9DC0012B9D900DFC
:1033800011249C0129593A4F7901F90111821082C7
:10339000AE01455F5F4F68E270E0812F0E94EF153C
:1033A0008B859C85982789279827F70193838283AB
:1033B00016821582148266CF80E090EC9BCF4F92EC
:1033C0005F927F928F929F92AF92BF92CF92DF9245
:1033D000EF92FF920F931F93CF93DF9300D0CDB75F
:1033E000DEB7782E6B014A01A82EB12C27E0829F10
:1033F000C0011124FC01E959FA4F7F0100811181BC
:1034000080E591E00E94F1010815190554F4872D1B
:103410000E940116F70126818C01021B11091183FC
:1034200000830115110529F563E070E0872D0E94E6
:10343000E518843159F0882349F001E010E08C311F
:1034400011F410E000E0119501951109C8010F90E9
:103450000F90DF91CF911F910F91FF90EF90DF9030
:10346000CF90BF90AF909F908F907F905F904F9044
:103470000895801691060CF4840187E08A9DF0017E
:103480008B9DF00D1124E959FA4FE280F380C114AD
:10349000D10451F12701F7E05F22872D0E945204E9
:1034A000840D951D20918305273309F453C098019D
:1034B000240D351D2130384008F44CC020E038E0A0
:1034C000490184189508A401B6010E9464152601DB
:1034D000480C591C6801C818D908872D0E9452044D
:1034E000A601B2010E946415E00EF11E87E08A9DDC
:1034F000F0018B9DF00D1124E959FA4FF382E2821D
:1035000020813181201B310B318320838681800F04
:10351000912F911D8A3F910510F4232BF1F487E040
:103520008A9DF0018B9DF00D1124E959FA4F168206
:10353000F982EA8222E030E0AE014F5F5F4F68E23D
:1035400070E0872D0E94600460E470E0872D0E9487
:10355000F3187CCFA801B601C5CF868377CFCF9370
:10356000DF93FC01218D328D2115310529F48FEF78
:103570009FEFDF91CF910895EC01808D42175307A3
:1035800008F0A9010E94DF191816190684F7298D81
:103590003A8D281B390B3A8F298FEBCF0F931F934E
:1035A000CF93DF931F92CDB7DEB7FC01218D328D13
:1035B000232B41F48FEF9FEF0F90DF91CF911F915D
:1035C0000F9108958C0141E050E0BE016F5F7F4F85
:1035D000FC01808D0E94DF19181619065CF7F801AE
:1035E000818D928D0197928F818F898190E0E4CFB8
:1035F000CF93C82F80E591E00E94F10160E170E077
:103600008C2FCF910C94F318CF92DF92EF92FF9210
:103610000F931F93CF93DF9300D000D000D0CDB78E
:10362000DEB78C016B017A01FC01808D843010F4CF
:103630000E94F81A8DE292E09A838983F6018281D2
:103640009381A481B5818B839C83AD83BE83B701B5
:10365000CE0101960E940319F801808F8430A0F4F6
:10366000F586E486128E118E81E026960FB6F894C8
:10367000DEBF0FBECDBFDF91CF911F910F91FF90A5
:10368000EF90DF90CF90089580E0EFCFCF93DF935E
:10369000EC01888D843020F40E94F81A84E0888F31
:1036A000DF91CF910895CF93FC01C08D80E591E02B
:1036B0000E94F10160E270E08C2F0E94F31862E03A
:1036C00070E08C2F0E94E51884FD16C062E070E067
:1036D0008C2F0E94E51883FF0AC048E162E070E089
:1036E0008C2F0E94860480E090E0CF91089580E5C1
:1036F00091E00E94F101E3CF40E162E070E08C2FA5
:103700000E94860481E0F0CF8F929F92AF92BF9289
:10371000CF92DF92EF92FF921F93CF93DF9300D06F
:1037200000D000D0CDB7DEB76C015B01FC01808D0D
:10373000843010F40E94F81A80918305811115C01D
:1037400094E0F601908F26960FB6F894DEBF0FBE78
:10375000CDBFDF91CF911F91FF90EF90DF90CF9081
:10376000BF90AF909F908F90089580E591E00E9468
:10377000F1019E012F5F3F4F7901490110E063E0A5
:1037800070E0812F0E94E518F40181934F01882396
:1037900009F11F5F143099F710E0F70181917F0163
:1037A0008D3199F0883189F08A51823070F01F5F35
:1037B000143099F7F601108F80E0143021F2B586AD
:1037C000A486128E118E81E0BECF60E170E0812F61
:1037D0000E94F318812E912C8AEF90E00E94C2097A
:1037E00042E070E060E0812F0E9486044FEF62E0CB
:1037F00070E0812F0E948604B501A114B10489F400
:1038000080911C0190911D0101968115F0EC9F079C
:1038100088F190931D0180931C0160911C017091AF
:103820001D01812F0E94710461E070E0812F0E94D0
:10383000F31827E0289DC001299D900D11249C01BB
:1038400029593A4F7901F90111821082AE014B5F7B
:103850005F4F68E270E0812F0E94EF158D819E819D
:10386000982789279827F7019383828316821582E8
:103870001482A0CF80E090ECCCCF1F93CF93DF9346
:103880001F92CDB7DEB7FC01108D143020F5818D6D
:10389000928D892B01F180E591E00E94F101812F49
:1038A0000E94520427E0129FF0011124E959FA4FB7
:1038B00022813381377041E050E0BE016F5F7F4F5E
:1038C000820F931F0E946415898190E00F90DF9111
:1038D000CF911F9108958FEF9FEFF8CFEF92FF9256
:1038E0000F931F93CF93DF93EC018B0188E2FB01D1
:1038F00011928A95E9F761E08E810E94EE0860E0FE
:103900008E810E94550888EE93E00E94C20961E012
:103910008E810E94550868858E810E94EE0888E29B
:1039200090E00E94C209E881F9810088F189E02DC8
:1039300026E030E04AE050E060E0CE0109956E31CB
:103940007105810591056CF4982F872F762F6627D6
:103950006061CB01DF91CF911F910F91FF90EF90AC
:103960000895E881F9810088F189E02D26E030E0B2
:103970004AE050E061E0CE0109957801F8E2EF0EEF
:10398000F11C623371058105910534F4982F872F5E
:10399000762F66276161DDCFE881F9810088F189A2
:1039A000E02D26E030E04AE050E060E0CE010995ED
:1039B000683171058105910534F4982F872F762F92
:1039C00066276261C6CFE881F9810088F189E02D20
:1039D00026E030E04AE050E061E0CE0109956B302E
:1039E00071058105910534F4982F872F762F66276E
:1039F0006361AFCF21E069327105810591050CF457
:103A000020E0F80121938F01EE16FF0629F6E881E8
:103A1000F9810088F189E02D26E030E04AE050E0AD
:103A200060E0CE010995683171058105910534F496
:103A3000982F872F762F662764618BCF70E060E028
:103A400088CFDF92EF92FF920F931F93CF93DF9374
:103A5000CDB7DEB728970FB6F894DEBF0FBECDBF47
:103A60008C01D80159964D915C915A974115510599
:103A700051F0ED91FC91048CF58DE02D70E060E04B
:103A8000C8010995EECFF801D08CF7E0DF9EC001A8
:103A900011249C0129593A4F7901D9018D919C91AA
:103AA000892B59F148E050E0BE016F5F7F4FF8016C
:103AB000808D0E94DF191816190694F5D8015096CA
:103AC00084E0FE01319601900D928A95E1F78D8197
:103AD00090E0982F88272E81820F911DF801958BF9
:103AE000848B8F81282F30E0322F22278885820F08
:103AF000932F911D928F818F13C080E591E00E94DA
:103B0000F1018D2D0E940116D70116962C91169762
:103B1000821B91098D939C93892B21F690E080E084
:103B200028960FB6F894DEBF0FBECDBFDF91CF91C0
:103B30001F910F91FF90EF90DF9008956F927F9209
:103B40008F929F92AF92BF92CF92DF92EF92FF92AD
:103B50000F931F93CF93DF93CDB7DEB7EC970FB6DC
:103B6000F894DEBF0FBECDBF4C018B013A018DE250
:103B700092E09A8389831C861B8648EE53E060E0BE
:103B800070E04D875E876F87788B21EF31E03A8751
:103B90002987988F8F8B198E1A8E1B8E1C8E24E08E
:103BA00029A399AB88AB1AAA1BAA1CAA1DAA8091AB
:103BB000860590918705A0918805B09189058EA30F
:103BC0009FA3A8A7B9A78B839C83AD83BE831886C8
:103BD0001F82F80120E090E080E06AE03191332319
:103BE00009F47AC040ED430F4A3008F064C0689F82
:103BF000A001699F500D1124CA01C097830F911D28
:103C000037FD9A958F3F910549F340F34B815C81D5
:103C10006D817E818091FD049091FE04A091FF044E
:103C2000B0910005481759076A077B0709F428C2B5
:103C30000E94020D6F7077277C5FCE0109960E946B
:103C4000841B813009F01FC28DE292E09DA38CA3FA
:103C50008B819C81AD81BE818EA39FA3A8A7B9A7AC
:103C600045E350E0BE016C5D7F4FCE0109960E9496
:103C7000B406892B09F04EC010E000E0CE01099691
:103C80000E94461B0130110559F1C801EC960FB690
:103C9000F894DEBF0FBECDBFDF91CF911F910F9182
:103CA000FF90EF90DF90CF90BF90AF909F908F905C
:103CB0007F906F9008953E3209F0A8CF233009F429
:103CC000A5CFA2E3B0E0AC0FBD1FA20FB11D8C9336
:103CD0002F5F90E080E082CF233009F097CF8DAB4B
:103CE000D401ED91FC910488F589E02D8DE292E0FC
:103CF0009DA38CA38AA99BA9ACA9BDA98EA39FA3B0
:103D0000A8A7B9A7A301BE016C5D7F4FC4010995A7
:103D10008C01BBCF0E94020D78876F8342E050E098
:103D2000BE01695F7F4FCE0109960E94311681E086
:103D300090E09DA38CA342E050E0BE016C5D7F4FFC
:103D4000CE0109960E94311680E091E09DA38CA3DC
:103D500042E050E0BE016C5D7F4FCE0109960E94AB
:103D600031161DA21CA242E050E0BE016C5D7F4FE7
:103D7000CE0109960E94311642E050E0BE016C5D12
:103D80007F4FCE0109960E94311642E050E0BE01FD
:103D90006C5D7F4FCE0109960E9431167801D801E3
:103DA0008C91882311F18701F80181916F0188239B
:103DB00011F08E32C1F45801AE18BF081A141B045A
:103DC00084F4AEAA41E050E0BE016A5C7F4FCE01B0
:103DD00009960E943116A501B701CE0109960E94ED
:103DE00031167601DCCF8601DFCF1EAA41E050E01C
:103DF000BE016A5C7F4FCE0109960E94311600E039
:103E000011E01DA30CA342E050E0BE016C5D7F4FAA
:103E1000CE0109960E9431161DA30CA342E050E08A
:103E2000BE016C5D7F4FCE0109960E943116CE0116
:103E300009960E94531B892B09F41ECF83E0E82EBC
:103E4000F12CD7C04B815C816D817E81898D9A8DEB
:103E5000AB8DBC8D481759076A077B0709F00AC16B
:103E60008D8D9E8DC59709F005C18AA19BA10DEF8F
:103E70001FEF0C970CF4B4C04CE050E0BE016C5D39
:103E80007F4FCE0109960E94AF1A8EA19FA198275D
:103E9000892798279BAF8AAF4F8158852CA13DA1D8
:103EA0004217530709F0E9C097FFE7C08F7092707F
:103EB0000BEF1FEF892B09F093C0AAA4BBA4BA246F
:103EC000AB24BA240AEF1FEFA114B10409F488C08F
:103ED00010E000E088A599A598278927982708175A
:103EE000190708F541E050E0BE016A5C7F4FCE0142
:103EF00009960E94AF1A4EA9442339F050E070E0B1
:103F000060E0CE0109960E94AF1A8EA98111EACF16
:103F100044E050E070E060E0CE0109960E94AF1AE4
:103F20000F5F1F4FD7CFD12CC12C41E050E0BE0115
:103F3000645C7F4FCE0109960E94AF1A4CAD842F6E
:103F4000807C09F074C0442339F050E070E060E0F8
:103F5000CE0109960E94AF1A8CAD8111E6CF42E0E6
:103F600050E0BE01685C7F4FCE0109960E94AF1AF7
:103F700042E050E0BE016A5C7F4FCE0109960E948C
:103F8000AF1A44E050E070E060E0CE0109960E9474
:103F9000AF1A42E050E0BE01665C7F4FCE01099649
:103FA0000E94AF1A88AD99AD4AAD5BAD81159140C5
:103FB00009F047C00EA91FA91027012710270130BB
:103FC000110509F03EC04115544009F04DC044E0D0
:103FD00050E0BE016E5C7F4FCE0109960E94AF1A81
:103FE000F1E0EF1AF10809F449CE0F3F100709F08C
:103FF00045CE0E94020D5B016C01CE0109960E9424
:10400000211D181619060CF41DCF0E94020D6A1905
:104010007B098C099D09693873418105910538F543
:1040200062E370E080E090E00E94D00CE6CF41E0D7
:1040300050E070E060E0CE0109960E94AF1A1CAE1D
:104040008BCF54274527542770E060E0CE010996B6
:104050000E94AF1AEFEFCE1ADE0AAC14BD0409F0CD
:1040600064CF06EF1FEFBCCF07EF1FEFB9CF0FEF05
:104070001FEFB6CF0EEF1FEFB3CF0CEF1FEFB0CF98
:104080000EEF1FEF02CE10E000E0FFCDFC018081BB
:1040900091810C948438CF93DF93CDE0D0E060E041
:1040A000CE010E948C382196C11584E0D807B9F75B
:1040B0008CE090E09093E8048093E7046CE0DF915B
:1040C000CF910C948C380E949A38FB01019000200B
:1040D000E9F73197AF01461B570BDC01ED91FC91DD
:1040E0000280F381E02D0994CF93DF93BC0181E43A
:1040F00096E00E940208EC0161E572E081E496E03E
:104100000E9465208C0F9D1FDF91CF910895CF9362
:10411000DF9300D000D000D0CDB7DEB789E790E0C4
:104120000E9474208DE292E09A83898380913B0300
:1041300090913C03A0913D03B0913E038B839C83FF
:10414000AD83BE834EE65CECBE016F5F7F4F8EE1B8
:1041500093E00E94B40668E670E08EE193E00E946E
:1041600002088EE193E00E94531B26960FB6F89446
:10417000DEBF0FBECDBFDF91CF9108958F929F928A
:10418000AF92BF92EF92FF920F931F93CF93DF9363
:10419000CDB7DEB7A1970FB6F894DEBF0FBECDBF87
:1041A0007C01FA01CB0119A2223008F42AE08E0129
:1041B0000F5D1F4F822E912CB12CA12CBF01A501A8
:1041C00094010E945338F901CA016A300CF5605D10
:1041D000D8016E938D01232B242B252B79F790E0AA
:1041E00080E0109721F0BD01C7010E946520A196D3
:1041F0000FB6F894DEBF0FBECDBFDF91CF911F91F8
:104200000F91FF90EF90BF90AF909F908F90089587
:10421000695CDECFCF92DF92EF92FF920F931F93F4
:10422000CF93DF9377FF1DC06A017B01EC016DE244
:104230000E94FB078C0144275527BA014C195D09E0
:104240006E097F092AE0CE010E94BE20800F911FD7
:10425000DF91CF911F910F91FF90EF90DF90CF9062
:1042600008952AE0DF91CF911F910F91FF90EF9079
:10427000DF90CF900C94BE20AB01770F660B770BCD
:104280000C940A21AB0170E060E02AE00C94BE209F
:10429000462F50E070E060E02AE00C94BE208F9240
:1042A0009F92AF92BF92CF92DF92EF92FF920F93C5
:1042B0001F93CF93DF937C018B014C0182E0880E2A
:1042C000911C5701E5E0AE0EB11CD0E0C0E0F40156
:1042D00061914F01C8010E9448216C016EE2C80142
:1042E0000E94FB078C0D9D1DC80FD91F8A149B04CB
:1042F00071F7F7016581C8010E9448218C0F9D1F4D
:10430000DF91CF911F910F91FF90EF90DF90CF90B1
:10431000BF90AF909F908F900895EF92FF920F9370
:104320001F93CF93DF9300D000D0CDB7DEB7082F17
:104330000E94390C10E01C830B83CE0103960E946F
:104340004620E82EC80101969A838983CE01019602
:104350000E944620F82E60E080E00E940A0CB7011F
:1043600086EB95E00E943C2160E970E086EB95E0E9
:104370000E940208C80102969A838983CE010196A1
:104380000E944620682F70E086EB95E00E943C2159
:104390006AE870E086EB95E00E94020861E080E048
:1043A0000E940A0CC80106969A838983CE01019661
:1043B0000E944620682F86EB95E00E9448216FE21C
:1043C00086EB95E00E94FB07C80107969A838983D4
:1043D000CE0101960E944620682F86EB95E00E9450
:1043E00048216FE286EB95E00E94FB07C801059625
:1043F0009A838983CE0101960E944620682F86EB1E
:1044000095E00E94482160E286EB95E00E94FB0760
:10441000C80103969A838983CE0101960E944620A3
:10442000682F86EB95E00E9448216AE386EB95E0D1
:104430000E94FB070C5F1F4F1A830983CE01019670
:104440000E944620682F86EB95E00E94482110923A
:10445000EE041092ED040F900F900F900F90DF91EB
:10446000CF911F910F91FF90EF9008952F923F925F
:104470004F925F926F927F928F929F92AF92BF9274
:10448000CF92DF92EF92FF921F93CF93DF93EC01D5
:104490006A017B01722EAB019601CB01B6010E942D
:1044A000C83964E572E0811126C046015701E894DD
:1044B000B7F82FEF3FEF4FE75FE7C501B4010E9468
:1044C000C83981110CC02FEF3FEF4FE75FE7C501FF
:1044D000B4010E94023768E572E0181664F02FEF0D
:1044E0003FEF4FE75FE4C701B6010E94C3391816DA
:1044F000B4F46CE572E0CE01DF91CF911F91FF9093
:10450000EF90DF90CF90BF90AF909F908F907F9073
:104510006F905F904F903F902F900C9465202FEFFD
:104520003FEF4FE75FECC701B6010E94023787FDFE
:10453000E0CF20E030E0A901C701B6010E940237B8
:10454000312C212C87FF09C06DE2CE010E94FB07B0
:104550001C01F7FAF094F7F8F09410E060E070E0D6
:1045600080E09FE3711641F020E030E040E251E44A
:104570000E941B391F5FF6CFA70196010E94AF383A
:104580002B013C010E9494394B015C012AE0BC01E3
:10459000A401CE010E94BE207C01E20CF31C112379
:1045A000A1F1C501B4010E9407379B01AC01C30111
:1045B000B2010E94AE384B015C016EE2CE010E9456
:1045C000FB07E80EF91E115000F120E030E040E258
:1045D00051E4C501B4010E9468372B013C010E94DF
:1045E00094394B01CE010E944221E80EF91EB4011C
:1045F00090E080E00E9407379B01AC01C301B2014B
:104600000E94AE384B015C01DECFC701DF91CF9134
:104610001F91FF90EF90DF90CF90BF90AF909F9051
:104620008F907F906F905F904F903F902F90089564
:104630000C9465201F920F920FB60F9211242F93A6
:104640003F934F935F936F937F938F939F93AF931A
:10465000BF93EF93FF938091B900887F803609F470
:104660004AC0F0F5883209F4A7C018F5803109F482
:104670009BC0B8F4882309F4F9C0883009F494C0C9
:10468000FF91EF91BF91AF919F918F917F916F912A
:104690005F914F913F912F910F900FBE0F901F9000
:1046A0001895883109F488C0803251F78093190633
:1046B00014C0803409F49DC040F48033B9F38833CA
:1046C000F9F68093190685ECB0C0803509F485C0F1
:1046D000883509F496C0883499F60E942C15D0CFFD
:1046E000883909F48CC038F5883729F050F48836B9
:1046F00011F0803729F683E080933B061092600525
:1047000057C0883809F47BC0803919F0803809F027
:10471000B7CF80916005803208F071C0E0916005EC
:1047200081E08E0F809360058091BB00F0E0E05C3B
:10473000FA4F80833DC0803B39F0E0F4803A09F4C1
:1047400079C0883A09F09CCF84E080933B061092B0
:104750003F0510923E05E0918B05F0918C0509957F
:1047600080913E0581110FC081E080933E0510923B
:104770001E0509C0803C09F4A6CF883C09F4A3CFEC
:10478000883B09F07DCFE0913F0581E08E0F80935B
:104790003F05F0E0E25EFA4F80818093BB0090918C
:1047A0003F0580913E0529C0809116068093BB008D
:1047B00085EC8093BC0064CF909118068091170619
:1047C000981758F5E091180681E08E0F809318062F
:1047D000F0E0EB50FA4F8081E9CFE091180681E0DC
:1047E0008E0F809318068091BB00F0E0EB50FA4FDB
:1047F000808390911806809117069817C8F285E873
:10480000D8CFE091180681E08E0F80931806809132
:10481000BB00F0E0EB50FA4F808380911A068111C3
:104820005CCF81E08093150684EA8093BC001092EF
:104830003B0626CF85EC8093BC0010923B0680910E
:104840006005803230F4E0916005F0E0E05CFA4F02
:1048500010826091600570E0E0918D05F0918E0509
:1048600080E495E00995109260050ACF1092190630
:1048700034CF1F920F920FB60F9211242F933F93B4
:104880004F935F936F937F938F939F93AF93BF9358
:10489000EF93FF9381E496E00E945807FF91EF9118
:1048A000BF91AF919F918F917F916F915F914F9148
:1048B0003F912F910F900FBE0F901F9018951F9250
:1048C0000F920FB60F9211242F938F939F93EF9314
:1048D000FF93E0915106F09152068081E0915706D6
:1048E000F091580682FD1BC0908180915A068F5F1F
:1048F0008F7320915B06821741F0E0915A06F0E039
:10490000EF5BF94F958F80935A06FF91EF919F913E
:104910008F912F910F900FBE0F901F90189580814F
:10492000F4CF1F920F920FB60F9211242F933F9343
:104930008F939F93AF93BF938091C3029091C402D2
:10494000A091C502B091C6023091C20223E0230FAC
:104950002D3758F50196A11DB11D2093C2028093F9
:10496000C3029093C402A093C502B093C602809183
:10497000C7029091C802A091C902B091CA020196E3
:10498000A11DB11D8093C7029093C802A093C902D4
:10499000B093CA02BF91AF919F918F913F912F9198
:1049A0000F900FBE0F901F90189526E8230F0296C8
:1049B000A11DB11DD2CFE1E6F5E08DE292E0918339
:1049C000808312821382148215820895E5ECF5E04B
:1049D0001382128288EE93E0A0E0B0E08483958396
:1049E000A683B7838BE192E0918380830895E7E10A
:1049F000F5E08DE292E0918380831282138214822B
:104A000015820895E1E1F5E08DE292E091838083E3
:104A100012821382148215820895E7E0F5E08DE298
:104A200092E091838083128213821482158208950A
:104A3000E1E0F5E08DE292E09183808312821382BF
:104A4000148215820895EAEEF6E08FEF80831282D9
:104A50001182148613868FEF9FEFDC018783908786
:104A6000A187B2870895EBEFF4E08DE292E09183A5
:104A7000808312821382148215820895E5EFF4E098
:104A80008DE292E0918380831282138214821582D8
:104A9000E4E8F5E091838083128213821482158208
:104AA0000895EFEEF4E08DE292E09183808312822C
:104AB0001382148215820895E1E4F6E013821282D3
:104AC00088EE93E0A0E0B0E084839583A683B7836B
:104AD0008AE791E09183808385EC90E095878487D5
:104AE00084EC90E09787868780EC90E0918B808BB8
:104AF00081EC90E0938B828B82EC90E0958B848BA1
:104B000086EC90E0978B868B118E128E138E148E0E
:104B100008950895CF92DF92EF92FF920F931F9323
:104B2000CF93DF93ECEBF2E00DE212E01183008310
:104B30001282138214821582EBECF2E0118300835F
:104B400080ECC82EC28298EAD92ED382EE24E39458
:104B5000E48281EB8583EEE1F3E01382128288EE3A
:104B600093E0A0E0B0E084839583A683B78381EFD0
:104B700091E09183808317870687108A118A128AB1
:104B8000138A84E0808FE6EBF2E011830083FF2438
:104B9000FA94F282F382F4821582E0EBF2E0118360
:104BA0000083C282D382E482E582E6EBF5E01382E1
:104BB00012828EE691E09183808387E2848380E194
:104BC000808782E08187128688E083878CE090E08E
:104BD0000E94843890E09093E8048093E704C9ED44
:104BE000D2E086E391E09983888380E291EAA7E0AE
:104BF000B0E08A839B83AC83BD838FEF9FEF9F835D
:104C00008E831886F986FA8662E070E0CE010E94F3
:104C1000770682E591E099838883E9E3F3E01183E5
:104C20000083C282D382E48284EB8583DF91CF91BB
:104C30001F910F91FF90EF90DF90CF9008950E9409
:104C4000DB240E94E6240E94F7240E9402250E9491
:104C50000D250E9418250E9423250E9433250E94BD
:104C60003E250E9451250E945C250C948A25CF93F5
:104C7000DF93CDB7DEB7C555D1090FB6F894DEBFC7
:104C80000FBECDBF0E94870961E08DE00E94EE0853
:104C900061E089E00E94EE0861E088E00E94EE0891
:104CA0008DE292E09A8389838091CD029091CE0229
:104CB000A091CF02B091D0028B839C83AD83BE8341
:104CC000CE0101960E943718E0915106F0915206EC
:104CD00012E01083E0914D06F0914E061082E091B3
:104CE0004F06F09150068FEC808310925906E091A8
:104CF0005506F091560686E08083E0915306F091C8
:104D00005406808180618083E0915306F0915406BF
:104D1000808188608083E0915306F0915406808101
:104D200080688083E0915306F091540680818F7DE6
:104D300080830E94BF0860E08EE00E94480C0E94C1
:104D4000D21229833A834B835C838F838FE18D83D7
:104D50001E8362E0CE0101960E945A1361E0CE01EB
:104D600001960E945A1364961FAE64971986BE017D
:104D7000675F7F4F8FE00E9445136985862F8370A0
:104D800021F06C7F8FE00E94480C64968FAD649791
:104D9000882379F0BE016D5A7F4F8EE00E94451343
:104DA000882339F064966FAD64976F778EE00E9428
:104DB000480C0E940E020E940E020E940E020E94E7
:104DC0000E028EE18093EA061092910510929205F0
:104DD00010929305109294051092950510929605E5
:104DE0001092970510929805109299058FEF809375
:104DF0009A0510929B0510929C050E940E0D89EA5F
:104E000090E00E94742068EB72E28EE193E00E94D1
:104E1000841B0E94BF081092BB058091BF058230A1
:104E200018F098E09093BB059091C005992339F054
:104E3000813029F48091BB0584608093BB0562E3D7
:104E400070E080E090E00E94D00C6091C10586EB9C
:104E500095E00E94B30B68EE73E080E090E00E9462
:104E6000D00C60E386EB95E00E94C60B84E991E1EB
:104E70000E94C20960E386EB95E00E94C60B84E9BC
:104E800091E10E94C20960E386EB95E00E94C60BA7
:104E900086E990E00E94C20960E286EB95E00E94FC
:104EA000C60B8091BB0580620E94F90B84E0809361
:104EB000BC058CE00E94F90B0E94390C82E08093C3
:104EC000BD0586E00E94F90B82E00E94F90B80ED9F
:104ED00097E00E94C20988E08093C10560E086EBFC
:104EE00095E00E94B30B85E090E09093EE048093F0
:104EF000ED040E94020D0091D1021091D202209186
:104F0000D3023091D4020617170728073907C0F4D7
:104F100030E020E048EE52E06CEE72E089ED92E085
:104F20000E94C6040E94020D68577C4E8F4F9F4F0F
:104F30006093D1027093D2028093D3029093D402F3
:104F40000E94020D0091D5021091D6022091D70245
:104F50003091D802061717072807390708F085C0CF
:104F600080914A03882309F480C030E020E048EEB5
:104F700052E06CEE72E089ED92E00E94C6048DE290
:104F800092E09A83898380913B0390913C03A091A6
:104F90003D03B0913E038B839C83AD83BE834EE67D
:104FA0005CECBE016F5F7F4F8EE193E00E94B40620
:104FB0004091EC025091ED026091EE027091EF028F
:104FC00022E08EE193E00E94362266E071E08EE1FD
:104FD00093E00E94020826E636E646EE5FE3609123
:104FE000EC027091ED028091EE029091EF020E942E
:104FF000683720E030E040E052E40E94AF380E9481
:105000008D398EE193E00E943C2160E071E08EE1F9
:1050100093E00E9402084091E8025091E9026091F9
:10502000EA027091EB0222E08EE193E00E943622C8
:105030006BEF70E08EE193E00E9402088EE193E056
:105040000E94531B0E94020D68577C4E8F4F9F4F4A
:105050006093D5027093D6028093D7029093D802C2
:105060008091EB048F5F8093EB040E94D21229871A
:105070003A874B875C876D877E878F873111B6C0F3
:105080000E94D2122DA33EA34FA358A769A77AA7C7
:105090008BA72111CFC030E020E048EE52E06CEE4B
:1050A00072E089ED92E00E94C6046091EC0270917A
:1050B000ED028091EE029091EF020E948D397A8389
:1050C00069836091E8027091E9028091EA0290910F
:1050D000EB020E948D396B830E94D2122CA73DA750
:1050E0004EA75FA768AB79AB8AAB4C830E94D21204
:1050F0002BAB3CAB4DAB5EAB6FAB78AF89AF3D83B9
:105100000E94D2122AAF3BAF4CAF5DAF6EAF7FAF04
:1051100021968FAF21978E830E94D21222962FAFB5
:10512000229723963FAF239724964FAF2497259637
:105130005FAF259726966FAF269727967FAF279765
:1051400028968FAF28977F830E94D21229962FAF7F
:1051500029972A963FAF2A972B964FAF2B972C96DD
:105160005FAF2C972D966FAF2D972E967FAF2E9712
:105170002F968FAF2F976887C090E704D090E804F0
:1051800086010F5F1F4F9E012F5F3F4F590139E08E
:10519000C30ED11C61961FAF0EAF6197D501ED9084
:1051A0005D01CE01815B9F4F0E944620E81621F0F1
:1051B0006E2DC8010E948C380F5F1F4FC016D1069C
:1051C00049F76091E7047091E804685F7F4F70933E
:1051D000E8046093E7048CE090E00E948C386CE473
:1051E00074E080E090E00E94D00C24C00E94D212B3
:1051F000288B398B4A8B5B8B6C8B7D8B8E8B3F30F6
:1052000009F43ECF0E94D2122F8B388F498F5A8FCC
:105210006B8F7C8F8D8F3E3109F432CF0E94D2127A
:105220002E8F3F8F48A359A36AA37BA38CA33D3243
:1052300009F426CF0E9498110E9456140E94E3138D
:1052400080911A0190911B01059709F070C00E948E
:1052500075128C010E94020D8090E4029090E5028C
:10526000A090E602B090E70286169706A806B90657
:10527000B8F4012B09F4F7C10E9475129093EE0463
:105280008093ED040E94020D6C507E4F8F4F9F4F14
:105290006093E4027093E5028093E6029093E70244
:1052A0000091ED041091EE040530110509F0E2C102
:1052B0000E94390C6EE171E086EB95E00E940208D5
:1052C0004091EC025091ED026091EE027091EF027C
:1052D00022E086EB95E00E94362269E171E086EBE0
:1052E00095E00E94020861E080E00E940A0C61E102
:1052F00071E086EB95E00E9402084091E80250912F
:10530000E9026091EA027091EB0222E086EB95E0FF
:105310000E9436226CE071E086EB95E00E94020864
:105320001092EE041092ED0486E0809319018091B2
:105330001A0190911B01019739F50E949A120E945F
:10534000400C8091E9049091EA0481309105C1F00C
:105350008430910509F0D8C180911801885F80934D
:1053600018012091E7043091E8048217130621F018
:105370001CF08DE080931801809118010E948D210E
:105380001092EA041092E90480911A0190911B0195
:10539000029799F40E949A120E94400C8091E904AD
:1053A0009091EA048130910509F0B7C18CE10E9427
:1053B000F90B1092EA041092E90480911A0190917D
:1053C0001B01039709F07BC00E949A120E94400CB7
:1053D0008091E9049091EA048430910509F0ABC111
:1053E00088E090E090931B0180931A010E94390C91
:1053F00068E571E086EB95E00E9402086091170174
:1054000086EB95E00E94482160E286EB95E00E94E1
:10541000FB076091160186EB95E00E9448216DE242
:1054200086EB95E00E94FB076091150186EB95E005
:105430000E94482160E286EB95E00E94FB076091A4
:10544000140186EB95E00E9448216DE286EB95E021
:105450000E94FB076091130186EB95E00E944821B2
:1054600060E286EB95E00E94FB076091120186EBFB
:1054700095E00E9448216DE286EB95E00E94FB07D3
:105480006091110186EB95E00E94482160E286EB75
:1054900095E00E94FB0765E571E086EB95E00E94D0
:1054A00002086091100186EB95E00E94482110925D
:1054B000EE041092ED041092EA041092E904809137
:1054C0001A0190911B010697D1F40E949A128091C3
:1054D000E9049091EA048430910509F083C10E94A7
:1054E0004B2085E090E090931B0180931A019093EC
:1054F000EE048093ED041092EA041092E904809186
:105500001A0190911B01079719F50E949A12809138
:10551000E9049091EA048130910509F06CC18CE1B5
:105520000E94F90B80911901811103C088E28093D8
:1055300019018091190181508093190161E00E9445
:105540000A0C81E08093E6041092EA041092E904C8
:1055500080911A0190911B01089719F50E949A12E7
:105560008091E9049091EA048130910509F044C2E8
:105570008CE10E94F90B80911901811103C088E22E
:10558000809319018091190181508093190161E084
:105590000E940A0C81E08093E6041092EA041092C3
:1055A000E90463961FAE63970E94020D6093E204C4
:1055B0007093E3048093E4049093E5048091E10404
:1055C000882331F08DE063968FAF63971092E104EA
:1055D000E0918305E353E53008F444C31092940549
:1055E00080E880939505109296050E940E0D81E447
:1055F00096E00E944C076C01892B09F47CC481E47D
:1056000096E00E942A070E949F3863968FAF6397A7
:10561000BE016E5A7F4F83EC94E00E94FF016396B7
:105620008FAD63978F3709F05EC462E772E081E463
:1056300096E00E9418236CE772E081E496E00E94F5
:10564000182362E772E081E496E00E94182380E06C
:10565000E82FF0E0DF01AD53BB4F9C91992309F493
:1056600038C48F5FF5CF0E94020D6C597F4F8F4F6A
:105670009F4F0ECE0130110541F48DE00E948D2127
:1056800010931B0100931A0152CE0230110529F527
:10569000E090EC04D090EB040E94390C60E672E0DC
:1056A00086EB95E00E9418236D2D86EB95E00E9415
:1056B000482161E080E00E940A0C67E672E086EB18
:1056C00095E00E9418236E2D86EB95E00E944821FC
:1056D0001092EE041092ED04D3CF0330110509F0BF
:1056E00053CE0E94390C60E471E086EB95E00E9495
:1056F000020861E080E00E940A0C65E271E086EB3E
:1057000095E00E940208E4CF8530910509F038CE7B
:1057100090931B0180931A0133CE8430910511F4CC
:1057200088E145CE8530910509F043CE90931B0169
:1057300080931A013ECE8230910541F587E090E0DA
:1057400090931B0180931A010E94390C10E000E035
:105750001A830983CE0101960E944620682F86EBAA
:1057600095E00E944821802F8B7F833021F0BBE0A1
:105770006EE20B1301C060E286EB95E00E94FB072E
:105780000F5F1F4F0C30110519F791CE8130910535
:10579000C9F486E090E090931B0180931A010E9467
:1057A000390C6CE671E086EB95E00E94020861E03E
:1057B00080E00E940A0C6BE571E086EB95E00E94A8
:1057C000020875CE8330910521F488E10E94F90B1F
:1057D00072CE8530910509F06ECE90931B018093B7
:1057E0001A0169CE8530910509F085CE90931B0191
:1057F00080931A0180CE8230910509F0CDC00E94BD
:10580000400C60E0809119010E940A0C6091E6044E
:1058100086EB95E00E944821809119011091E604E1
:1058200081111CC090E080E00E94843890E064E622
:1058300070E00E94E939BC01E4E61E9F600D711D15
:10584000112490E080E00E948C388091E6048F5F04
:105850008A3009F077CE1092E60476CE813059F482
:1058600090E080E00E948438612F70E090E00E9418
:105870006211682FE6CF823089F490E080E00E94C8
:105880008438282F30E0C9016AE070E00E94E939CD
:10589000B901681B790B610F711DD3CF843091F46E
:1058A00081E090E00E94843890E064E670E00E941D
:1058B000E939BC01F4E61F9F600D711D112481E0E0
:1058C00090E0C1CF853059F481E090E00E948438A7
:1058D000612F70E090E00E946211682FF0CF863057
:1058E00089F481E090E00E948438282F30E0C901DB
:1058F0006AE070E00E94E939B901681B790B610F19
:10590000711DDDCF883099F482E090E00E948438E8
:10591000282F30E0C9016AE070E00E94E939B9013E
:10592000681B790B610F711D82E090E08CCF8A308B
:1059300091F483E090E00E94843890E064E670E0A7
:105940000E94E939BC0124E6129F600D711D1124EB
:1059500083E090E078CF8B3059F483E090E00E94B0
:105960008438612F70E090E00E946211682FF0CFC0
:105970008C3009F06ACF83E090E00E948438282FB1
:1059800030E0C9016AE070E00E94E939B901681BA2
:10599000790B610F711DDCCF8330910579F461E0E3
:1059A000809119010E940A0C8091BC05982F926089
:1059B0009093BC058A600E94F90B4DCF843091050D
:1059C00091F488E10E94F90B80911901883211F459
:1059D00010921901809119018F5F8093190161E084
:1059E0000E940A0C38CF8530910509F0ADCD909317
:1059F0001B0180931A01A8CD8230910509F000C1E6
:105A00000E94400C60E0809119010E940A0C609194
:105A1000E60486EB95E00E944821809119011091DF
:105A2000E604823081F4612F70E08091170190E0EC
:105A30000E946211809317011F5F1A3009F4F1C0B0
:105A40001093E604AACD833079F42091170130E059
:105A5000C9016AE070E00E94E939281B390B210F67
:105A6000311D20931701E8CF853051F4612F70E08C
:105A70008091160190E00E94621180931601DCCFA4
:105A8000863079F42091160130E0C9016AE070E0B7
:105A90000E94E939281B390B210F311D2093160173
:105AA000CBCF883051F4612F70E08091150190E0E8
:105AB0000E94621180931501BFCF893079F4209143
:105AC000150130E0C9016AE070E00E94E939281B45
:105AD000390B210F311D20931501AECF8B3051F4BE
