:100000000C9444030C946C030C946C030C946C03DC
:100010000C946C030C946C030C946C030C946C03A4
:100020000C946C030C946C030C946C030C946C0394
:100030000C946C030C946C030C946C030C946C0384
:100040000C94D9250C946C030C94A7250C94812551
:100050000C946C030C946C030C946C030C946C0364
:100060000C9462240C946C032A494E56414C49442A
:1000700020434F4D4D414E44002A494E56414C4974
:100080004420434F4D4D414E440000000008000203
:1000900001000003040700000000000000003E57BC
:1000A000656C636F6D6520746F2041726475696E55
:1000B0006F20436F6D6D616E64204C696E652049E1
:1000C0006E7465727072657465722C20656E7465ED
:1000D00072202748454C502720666F72206C697348
:1000E00074206F6620636F6D6D616E6473210A000A
:1000F0002052482500202A462C2000202A432C206C
:10010000002052482500202A462C2000202A432C7B
:100110002000205248250048756D69643A2000206F
:100120002A43200054656D703A2000205248252053
:1001300000202A432000202A5041434B455420529E
:1001400045434549564544004D616A6F72204F76DC
:100150006572004D696E6F72204F76657200436F55
:100160006D666F727461626C65004D696E6F7220AE
:10017000556E646572004D616A6F7220556E6465DC
:1001800072003E20424C494E4B20494E5445525637
:10019000414C2053455420544F3A20004F464600CE
:1001A0004F4E2028003E2052474220003E2052471A
:1001B0004220003E2052474220424C494E4B494E7D
:1001C000472028003E2052474220424C494E4B498E
:1001D0004E47202800414C5445524E4154494E4709
:1001E0002000414C5445524E4154494E47004F4621
:1001F0004620004F4646004F464620004F464600E8
:10020000475245454E2000475245454E004F464611
:1002100020004F46460052454420005245440047C6
:100220005245454E2000475245454E005245442018
:100230000052454400424C494E4B494E4720004233
:100240004C494E4B494E4720003E204C454420002F
:100250003E204C454420004F464620004F46460075
:100260004F4E20004F4E00424C494E4B494E4720C6
:1002700000424C494E4B494E47003E20443133200A
:10028000003E204431332000455155414C533A2023
:1002900000455155414C533A20002041743A20000A
:1002A0004F6E3A200020524825200048756D696441
:1002B0006974793A2000202A43200054656D703A11
:1002C000200041743A20004F6E3A20002052482509
:1002D0000048756D69646974793A2000202A4320CA
:1002E0000054656D703A2000202A4320004C4F577F
:1002F0004553542054454D503A2000202A432000B5
:10030000484947484553542054454D503A20002011
:100310002A4320004C4F574553542054454D503AE2
:100320002000202A43200048494748455354205480
:10033000454D503A20002A4E4F2044415441205907
:1003400045540056657273696F6E3A2000566572A7
:1003500073696F6E3A20002D3E48454C50002D3E8B
:1003600056455253494F4E002D3E52474220424C73
:10037000494E4B002D3E524742204F4646002D3EEF
:10038000524742204F4E002D3E524742203C72655C
:10039000643E203C677265656E3E203C626C75650C
:1003A0003E002D3E414444203C6E756D62657231C5
:1003B0003E203C6E756D626572323E002D3E5445A6
:1003C0004D502048494748204C4F57002D3E54453A
:1003D0004D5020484953544F5259002D3E435552D9
:1003E00052454E542054454D50002D3E5345542007
:1003F00054494D45203C6D6F6E74683E203C6461ED
:10040000793E203C796561723E203C686F75723E92
:10041000203C6D696E7574653E203C7365636F6E3C
:10042000643E002D3E43555252454E542054494D92
:1004300045002D3E535441545553204C45445300E0
:100440002D3E424C494E4B203C6E756D6265723EAE
:10045000002D3E4C454420414C5445524E4154459C
:10046000002D3E4C454420424C494E4B002D3E4C05
:100470004544204F4646002D3E4C454420524544BD
:10048000002D3E4C454420475245454E002D3E44EC
:10049000313320424C494E4B002D3E443133204FE6
:1004A0004646002D3E443133204F4E0054686520AF
:1004B000617661696C61626C6520636F6D6D616E00
:1004C0006473206172653A20002D3E48454C50000F
:1004D0002D3E56455253494F4E002D3E5247422025
:1004E000424C494E4B002D3E524742204F4646005B
:1004F0002D3E524742204F4E002D3E524742203C57
:100500007265643E203C677265656E3E203C626C9D
:1005100075653E002D3E414444203C6E756D62651C
:1005200072313E203C6E756D626572323E002D3E2A
:1005300054454D502048494748204C4F57002D3EC8
:1005400054454D5020484953544F5259002D3E4375
:10055000555252454E542054454D50002D3E534562
:10056000542054494D45203C6D6F6E74683E203CCC
:100570006461793E203C796561723E203C686F750C
:10058000723E203C6D696E7574653E203C736563F8
:100590006F6E643E002D3E43555252454E542054DA
:1005A000494D45002D3E535441545553204C45442C
:1005B00053002D3E53455420424C494E4B203C6E37
:1005C000756D6265723E002D3E4C454420414C5491
:1005D00045524E415445002D3E4C454420424C4925
:1005E0004E4B002D3E4C4544204F4646002D3E4C80
:1005F000454420524544002D3E4C45442047524539
:10060000454E002D3E44313320424C494E4B002D87
:100610003E443133204F4646002D3E443133204F77
:100620004E0054686520617661696C61626C65207A
:10063000636F6D6D616E6473206172653A200000B6
:1006400000000023002600290000000000250028EB
:10065000002B0000000000240027002A00010204F3
:100660000810204080010204081020010204081034
:10067000200404040404040404020202020202032B
:10068000030303030300672711241FBECFEFD8E045
:10069000DEBFCDBF12E0A0E0B1E0ECE2F7E702C0C0
:1006A00005900D92AE3CB107D9F727E0AEECB2E071
:1006B00001C01D92A132B207E1F713E0C4E4D3E018
:1006C00004C02197FE010E94733BC334D107C9F7D0
:1006D0000E947F270C946C380C94000080E4809377
:1006E0007C0080917A00806480937A0080917A0007
:1006F00086FDFCCF809178009091790008958CBDA3
:100700009DBD0895E091EF05F091F0050190F08115
:10071000E02D682F8FEE95E009949C0190E0F9019F
:10072000E90FF11D8081811105C0DB018C9180836F
:10073000118208959F5FF3CF8091D805811145C044
:100740001092CA051092C9058FEF8093CD05809352
:10075000CE058093CF058093D0058093D1058093FB
:10076000D20581E08093D3051092D5051092D4056F
:100770001092CC051092CB0580910E0790910F0737
:10078000892B31F487EC95E090930F0780930E0747
:10079000E091B905F091BA05309721F087EC95E02A
:1007A0009583848387EC95E09093BA058093B9058F
:1007B0001092D7051092D60589E392E09093C80570
:1007C0008093C70581E08093D805E091C705F0913B
:1007D000C8050480F581E02D87EC95E009958BEB49
:1007E00095E09093CA058093C90584E090E09093CA
:1007F000D5058093D405E091C705F091C805028422
:10080000F385E02D87EC95E00995009701F19C01B7
:1008100050E040E060E472E48FE090E00E949F3995
:100820008091170790911807A0911907B0911A07A6
:1008300082179307A407B50710F4DA01C901809362
:10084000170790931807A0931907B0931A0787EC1E
:1008500095E0089581E394E09093B8058093B705FF
:100860000895089589E394E09093B6058093B505C3
:100870000895089520916805260F3327331F2132EC
:100880003105ECF420916506FC0190E080E0243015
:1008900069F082E00895A09168052191AC01485B60
:1008A0005A4FA40FB52FB11D2C930196861798F3BC
:1008B00080916805680F6093680580E0089581E085
:1008C00008950895E091EE058091ED05E81730F464
:1008D000F0E0EB5BF94F808190E008958FEF9FEFA0
:1008E00008959091EE058091ED052FEF3FEF981759
:1008F00048F4E92FF0E0EB5BF94F208130E09F5F97
:100900009093EE05C90108958091ED059091EE0553
:10091000891B990B0895CF92DF92EF92FF920F936C
:100920001F93CF93DF937C01CB018A012091FB05BC
:10093000222389F0EB016B01C40ED51ECC15DD0519
:1009400069F06991D701ED91FC910190F081E02D62
:10095000C7010995F3CF642F0E943A04C801DF91C3
:10096000CF911F910F91FF90EF90DF90CF9008955E
:10097000CF93DF931F92CDB7DEB769832091FB053C
:100980002223F9F02091FE05203258F021E030E0DA
:10099000FC013383228390E080E00F90DF91CF91C0
:1009A00008958091FC05E82FF0E0E150FA4F99811D
:1009B00090838F5F8093FC058093FE0581E090E03B
:1009C000ECCF61E0CE0101960E943A04F7CFFC0122
:1009D00020812EBD9B012150310941F051810DB480
:1009E00007FEFDCF4EB55EBD4193F5CF6150710955
:1009F000860F971F0DB407FEFDCF2EB5FC01208397
:100A00000895E0913805F09139058081909137057E
:100A1000892B80830895E0913805F0913905908104
:100A20008091370580958923808308958EBD0000CD
:100A30000DB407FEFDCF8EB50895AF92BF92CF9251
:100A4000DF92EF92FF920F931F93CF93DF93CDB777
:100A5000DEB728970FB6F894DEBF0FBECDBF8C016E
:100A60007B016A018091AD058333E1F45801A40E46
:100A7000B51EA016B10609F46FC00E940B0580EFE9
:100A80000E941605812F0E941605802F0E941605D0
:100A90000F5F1F4FF70181917F010E9416050E9491
:100AA0000105E7CF5B01A40EB51E8433C1F40E949B
:100AB0000B0519830A838D2D80688B83CC8264E0BB
:100AC00070E0CE0101960E94E704AE14BF0409F461
:100AD00041C0F70181917F010E941605F6CF0E9467
:100AE0000B050F3F110509F028F419820A8384E0F1
:100AF0008B830CC017FD17C019820A8333E016954B
:100B000007953A95E1F7007E0C600B8386E0C816E6
:100B1000D104A0F5F701DE011496EA15FB0599F062
:100B200081918D93FACFC80126E0969587952A95F5
:100B3000E1F7807E19830A830115104C10F484615B
:100B4000D7CF8C61D5CFB6016D5F7F4FCE010196B7
:100B50000E94E7040E940105C60128960FB6F8948A
:100B6000DEBF0FBECDBFDF91CF911F910F91FF90E0
:100B7000EF90DF90CF90BF90AF90089563E070E06A
:100B8000CE0101960E94E704F70181917F010E9446
:100B90001605AE14BF04C1F7DDCFCF93DF931F92CC
:100BA000CDB7DEB7898341E050E0BE016F5F7F4F74
:100BB00090E080E00E941D050F90DF91CF91089595
:100BC00090E02091AD05233339F40C96982F990FBE
:100BD000990F990F80E008954896F8CFDA01E091D7
:100BE000EC05F0E0FE2FEE27E60FF71F90E0982FC0
:100BF0008827A901BD018E0F9F1F0C941D05CF935F
:100C0000DF9300D0CDB7DEB779836A8322E030E08E
:100C1000AE014F5F5F4F64E070E00E94EE050F9001
:100C20000F90DF91CF910895CF93DF931F92CDB7AF
:100C3000DEB72091EC0530E0322F2227260F371F38
:100C400090E0982F8827498341E050E0BE016F5F14
:100C50007F4F820F931F0E941D050F90DF91CF9150
:100C60000895CF92DF92EF92FF920F931F93CF934D
:100C7000DF93EC017A016901E881F9810190F0814B
:100C8000E02D0995E881F9810084F185E02D980136
:100C9000A601B701CE01DF91CF911F910F91FF9077
:100CA000EF90DF90CF9009946F927F928F929F92F6
:100CB000AF92BF92CF92DF92EF92FF920F931F936A
:100CC000CF93DF93CDB7DEB7AC970FB6F894DEBF06
:100CD0000FBECDBFDC011696ED91FC91319609F463
:100CE0008BC059013A016B018C01FE0131964F0115
:100CF00088E2DF011D928A95E9F7D801ED91FC9118
:100D00000488F589E02DB401C80109957C01892B7F
:100D100009F05CC01AA619A61CA61BA6D801ED9165
:100D2000FC910688F789E02D9E01255D3F4FAE01BD
:100D3000475D5F4FB401C80109957C01892B09F01B
:100D400045C0A114B10439F088E2F401D501019045
:100D50000D928A95E1F7C114D10409F189A59AA5EC
:100D600021E030E097FF02C02FEF3FEF9F77829F97
:100D7000B001839F700D929F700D1124072E000CFF
:100D8000880B990B0E947F3820E030E040E251E46C
:100D90000E94913AF6016083718382839383611488
:100DA0007104A1F06BA57CA5072E000C880B990B94
:100DB0000E947F3820E030E040E251E40E94913A06
:100DC000D3016D937D938D939C931397C701AC963C
:100DD0000FB6F894DEBF0FBECDBFDF91CF911F914C
:100DE0000F91FF90EF90DF90CF90BF90AF909F90CA
:100DF0008F907F906F90089587E1E82EF12CE6CFD9
:100E00008F929F92AF92BF92CF92DF92EF92FF921A
:100E10000F931F93CF93DF93EC018B016A0179014C
:100E2000E881F9810288F389E02D0995B82EB8018F
:100E3000685F7F4FE881F9810288F389E02DCE0158
:100E40000995982EB801605F7F4FE881F98102888B
:100E5000F389E02DCE010995A82EB801685E7F4F79
:100E6000E881F9810288F389E02DCE010995882E69
:100E7000B801605E7F4FE881F9810288F389E02D37
:100E8000CE0109959B2D990D9A0D980D891319C0C6
:100E90009A2D882DF601918380839B2D892DF70152
:100EA0009183808390E080E0DF91CF911F910F913B
:100EB000FF90EF90DF90CF90BF90AF909F908F907A
:100EC000089585E190E0F0CF47E050E080E0FB013D
:100ED0002191BF01042E01C0220F0A94EAF7820F6C
:100EE00041505109A0F70895FC01828590E00895D2
:100EF000FC01818590E00895CF92DF92EF92FF92FE
:100F00000F931F93CF93DF93EC017A016901E8817E
:100F1000F9810190F081E02D0995E881F981048043
:100F2000F581E02D9801A601B701CE01DF91CF91A7
:100F30001F910F91FF90EF90DF90CF900994CF9287
:100F4000DF92EF92FF920F931F93CF93DF93CDB772
:100F5000DEB728970FB6F894DEBF0FBECDBFDC0119
:100F60001696ED91FC91319609F440C08A017B01FF
:100F700019821A821B821C821D821E821F82188681
:100F8000DC01ED91FC910084F185E02DAE014B5F19
:100F90005F4FBE016F5F7F4F09956C01892BB1F4E4
:100FA000E114F10441F069817A818B819C810E9476
:100FB000033BF70160830115110541F06D817E81CE
:100FC0008F8198850E94033BD8016C93C6012896B7
:100FD0000FB6F894DEBF0FBECDBFDF91CF911F914A
:100FE0000F91FF90EF90DF90CF90089587E1C82E8A
:100FF000D12CECCF262F2D7F29F4FC01608790E0C7
:1010000080E0089588E190E00895DC0117967C93D4
:101010006E931697FB01E35AF94FE4911996EC93FE
:1010200019976F58794FFB0164911A966C93089544
:101030006AE00E94533B292F30E1839FC0011124B5
:10104000822B0895982F92959F708F702AE0929F1F
:10105000800D112408950895CF93DF931F92CDB78B
:10106000DEB76983DC01ED91FC910280F381E02D14
:1010700041E050E0BE016F5F7F4F09950F90DF9117
:10108000CF910895DF92EF92FF920F931F93CF932A
:10109000DF9300D0CDB7DEB7FB01DC0157961C9281
:1010A0001E9256972281211109C02381211106C069
:1010B0002481211103C02581222369F141155105A5
:1010C00051F17A018F01FC01D08C80E591E00E9402
:1010D0007F03A8014E5F5F4F24E030E06CE070E0DA
:1010E0008D2D0E94EE05F982EA8222E030E0AE0109
:1010F0004F5F5F4F60E170E08D2D0E94EE0581E053
:1011000090E00F900F90DF91CF911F910F91FF9082
:10111000EF90DF90089580E0F3CFFC01818D928DF8
:101120000895FC01848595850895FC01848995893D
:10113000089523E232E0FC0131832083FB014089E2
:10114000518962897389FC01428353836483758367
:101150000895FC01538D448D252F30E0842F90E0BD
:10116000821B930B541710F0CF96089501970895A2
:10117000FC01918D828D981761F0A28DAE0FBF2F6B
:10118000B11D5D968C91928D9F5F9F73928F90E0C1
:1011900008958FEF9FEF0895FC01918D828D981730
:1011A00031F0828DE80FF11D858D90E008958FEF6D
:1011B0009FEF0895FC01918D228D892F90E0805C36
:1011C0009F4F821B91098F7399270895FC01A48D6D
:1011D000A80FB92FB11DA35ABF4F2C91848D90E059
:1011E00001968F739927848FA689B7892C93A0893C
:1011F000B1898C91837080648C93938D848D9813C6
:1012000006C00288F389E02D80818F7D8083089558
:10121000EF92FF920F931F93CF93DF93EC0181E046
:10122000888F9B8D8C8D98131AC0E889F9898081ED
:1012300085FF15C09FB7F894EE89FF896083E88920
:10124000F98980818370806480839FBF81E090E012
:10125000DF91CF911F910F91FF90EF900895F62E9F
:101260000B8D10E00F5F1F4F0F731127E02E8C8D39
:101270008E110CC00FB607FCFACFE889F98980817E
:1012800085FFF5CFCE010E94E608F1CFEB8DEC0F84
:10129000FD2FF11DE35AFF4FF0829FB7F8940B8F9B
:1012A000EA89FB8980818062CFCFCF93DF93EC0105
:1012B000888D8823B9F0AA89BB89E889F9898C913E
:1012C00085FD03C0808186FD0DC00FB607FCF7CFFA
:1012D0008C9185FFF2CF808185FFEDCFCE010E94FA
:1012E000E608E9CFDF91CF9108958BE696E00E9462
:1012F000DA0821E0892B09F420E0822F089580E0AC
:1013000090E0892B29F00E94750981110C9400004E
:101310000895DC01ED91FC910190F081E02D09949C
:10132000EF92FF920F931F93CF93DF938C017B017A
:10133000D0E0C0E0F701EC0FFD1F6491662361F07F
:10134000D801ED91FC910190F081E02DC801099543
:10135000892B11F02196EECFCE01DF91CF911F9115
:101360000F91FF90EF900895AF92BF92CF92DF92CE
:10137000EF92FF920F931F93CF93DF936C017B014A
:101380008B01040F151FEB015E01AE18BF08C017DB
:10139000D10759F06991D601ED91FC910190F0814E
:1013A000E02DC6010995892B79F7C501DF91CF9111
:1013B0001F910F91FF90EF90DF90CF90BF90AF9073
:1013C00008950895089590E0FC01E657FF4F249199
:1013D000FC01E35AF94F3491FC01EF58F94FE491C5
:1013E000EE23C9F0222339F0233001F1A8F4213093
:1013F00019F1223029F1F0E0EE0FFF1FE75BF94F02
:10140000A591B4918FB7F894EC91611126C03095F5
:101410003E233C938FBF08952730A9F02830C9F0B0
:10142000243049F7809180008F7D03C08091800037
:101430008F7780938000DFCF84B58F7784BDDBCF3B
:1014400084B58F7DFBCF8091B0008F778093B00003
:10145000D2CF8091B0008F7DF9CF3E2BDACF1092A2
:10146000650681E08093440610923F0661E082E1C8
:101470000E94E30961E083E10E94E309E9EBF0E007
:1014800080818E7F808380818D7F808388E48093BC
:10149000B80085E48093BC0008951092EE05109288
:1014A000ED051092FC051092FE050E942F0A0E9485
:1014B00032040C942A04CF93DF9391E09093470574
:1014C0008823B9F0C091B800D091BA008091BC00D7
:1014D0008A7B8093BC0060E082E10E94E30960E0C7
:1014E00083E10E94E3090E942F0AD093BA00C093BF
:1014F000B800DF91CF910895CF93DF9390E0FC0186
:10150000E35AF94F24918F58994FFC018491882315
:10151000C9F090E0880F991FFC01ED5AF94FA59191
:10152000B491FC01E75BF94FC591D49161110DC0F5
:101530009FB7F8948C91209582238C9388812823DF
:1015400028839FBFDF91CF910895623051F49FB7F8
:10155000F8943C91822F809583238C93E8812E2BE5
:10156000EFCF8FB7F894EC912E2B2C938FBFEACF4F
:101570001F93CF93DF93182FEB0161E00E947C0A49
:10158000209739F460E0812FDF91CF911F910C9467
:10159000E309CF3FD10511F461E0F5CFE12FF0E091
:1015A000E657FF4FE491E33031F140F4E130B1F020
:1015B000E230E1F0C038D1057CF7E4CFE73029F123
:1015C000E83059F1E430B1F7809180008062809377
:1015D0008000D0938B00C0938A0004C084B58068DB
:1015E00084BDC7BDDF91CF911F91089584B58062FE
:1015F00084BDC8BDF7CF8091800080688093800053
:10160000D0938900C0938800EDCF8091B0008068AE
:101610008093B000C093B300E5CF8091B0008062AA
:101620008093B000C093B400DDCF789484B582601D
:1016300084BD84B5816084BD85B5826085BD85B576
:10164000816085BDEEE6F0E0808181608083E1E825
:10165000F0E010828081826080838081816080835D
:10166000E0E8F0E0808181608083E1EBF0E0808160
:1016700084608083E0EBF0E0808181608083EAE732
:10168000F0E08081846080838081826080838081BB
:10169000816080838081806880831092C10008957A
:1016A0008130910539F0880F991F880F991F059790
:1016B0000197F1F708953FB7F8948091EF02909168
:1016C000F002A091F102B091F20226B5A89B05C0EC
:1016D0002F3F19F00196A11DB11D3FBFBA2FA92FB1
:1016E000982F8827BC01CD01620F711D811D911DAE
:1016F00042E0660F771F881F991F4A95D1F708951A
:10170000CF92DF92EF92FF920F931F93CF93C82F48
:10171000813208F096C00E945B0B6B017C018091C6
:101720006506811169C081E0809365068093440657
:101730009FEF90934306109242069C0F90934106B0
:101740008093400680914006806D80934006809192
:101750003F06813009F077C010923F060E945B0B74
:101760006B017C01809140068093BB0080916706ED
:1017700090916806A0916906B0916A06892B8A2B20
:101780008B2BA1F00E945B0B0091670610916806FD
:101790002091690630916A066C197D098E099F09AE
:1017A000061717072807390708F447C08091BC00BF
:1017B00083FDD8CF85EC8093BC000E945B0B6B014E
:1017C0007C0180916506813009F43FC0809142061A
:1017D0008C1710F4C0914206AFE1B6E0E5E4F6E004
:1017E00080E08C1354C08C2FCF911F910F91FF90EC
:1017F000EF90DF90CF9008958091670690916806F2
:10180000A0916906B0916A06892B8A2B8B2B09F46B
:1018100086CF0E945B0B00916706109168062091AD
:10182000690630916A066C197D098E099F090617B1
:1018300017072807390708F072CF809166060E94C3
:101840005B0AC0E0D0CF85EEB6CF8091670690915D
:101850006806A0916906B0916A06892B8A2B8B2BAA
:1018600009F4AFCF0E945B0B0091670610916806E8
:101870002091690630916A066C197D098E099F09CD
:10188000061717072807390708F09BCFD6CF9D9179
:1018900091938F5FA6CF8F929F92AF92BF92CF927C
:1018A000DF92EF92FF920F931F93CF93DF936132FA
:1018B00008F0D1C0142FD62FC82F0E945B0B6B01EC
:1018C0007C018091650681116BC082E08093650682
:1018D000109344068FEF8093430610924206D093F4
:1018E0004106AFEFB5E0EFE1F6E080E0D8138BC042
:1018F0001092400680914006CC0FC82BC093400642
:1019000080913F06813009F082C010923F060E940C
:101910005B0B6B017C01809140068093BB00809142
:10192000670690916806A0916906B0916A06892BB6
:101930008A2B8B2BA1F00E945B0B00916706109104
:1019400068062091690630916A066C197D098E0936
:101950009F09061717072807390708F442C0809126
:10196000BC0083FDD8CF85EC8093BC000E945B0B4C
:101970006B017C0180916506823009F44AC0809138
:1019800043068F3F09F469C080914306803209F411
:1019900066C080914306803309F463C084E026C0AA
:1019A0008091670690916806A0916906B0916A06D9
:1019B000892B8A2B8B2B09F484CF0E945B0B8090A0
:1019C000670690906806A0906906B0906A066C1948
:1019D0007D098E099F0986169706A806B90608F0A4
:1019E00070CF809166060E945B0A85E0DF91CF91FF
:1019F0001F910F91FF90EF90DF90CF90BF90AF902D
:101A00009F908F9008959D9191938F5F6FCF85EEFA
:101A1000ABCF8091670690916806A0916906B0915E
:101A20006A06892B8A2B8B2B09F4A4CF0E945B0BAF
:101A300000916706109168062091690630916A0648
:101A40006C197D098E099F090617170728073907A2
:101A500008F090CFC6CF81E0C9CF80E0C7CF82E049
:101A6000C5CF83E0C3CF482F6091FE058091FD056F
:101A70000E944B0C1092FC051092FE051092FB0583
:101A80000895FC01248131E03093FB052093FD058E
:101A90001092FC051092FE058385862B90E00E9433
:101AA000820381E00C94330D0F931F93CF938C012D
:101AB000C62F0E94410D6C2F6460C8010E94410D29
:101AC00081E090E00E94500B6C2F6B7FC8010E9458
:101AD000410D82E390E0CF911F910F910C94500B38
:101AE000CF93C82F682F607F80EE95E00E94540D41
:101AF00080E1C89FB001112480EE95E0CF910C9455
:101B0000540DCF93DF93CDB7DEB728970FB6F89477
:101B1000DEBF0FBECDBF98E0EAE1F1E0DE01119635
:101B200001900D929A95E1F79091E905961708F4C6
:101B30006FEF70E0660F771F21E030E02C0F3D1F44
:101B4000620F731FFB019081890F806828960FB682
:101B5000F894DEBF0FBECDBFDF91CF910C94700D16
:101B600081E00E94700D80ED97E00C94500B0F9374
:101B70001F93CF938C01C62F607F61600E94540D2C
:101B800080E1C89FB00111246160C8010E94540D1A
:101B900081E090E0CF911F910F910895CF93C62FD0
:101BA00091E09093FB0598E69093FD051092FC055B
:101BB0001092FE05682F8FEE95E00E94B8046C2FFE
:101BC0008FEE95E00E94B80481E0CF910C94330D24
:101BD00091E09093FB0598E69093FD051092FC052B
:101BE0001092FE05682F8FEE95E00E94B80481E008
:101BF0000C94330D7F928F929F92AF92BF92CF92AF
:101C0000DF92EF92FF920F931F93CF93DF93EC013C
:101C1000162F7A0169010E945B0B4B015C01712C4C
:101C20001111798410E000E060E070E0CB012A81BE
:101C30003B814C815D812617370748075907F4F02F
:101C40000115110561F5C7011E141F0464F10E94FE
:101C50005B0B681979098A099B09EA85F0E0EE0FA8
:101C6000FF1FE15CF94FA591B4912C910F5F1F4FBD
:101C700039852323271105C097FFD9CF6FEF7FEF59
:101C8000CB01DF91CF911F910F91FF90EF90DF90EB
:101C9000CF90BF90AF909F908F907F9008951C142D
:101CA0001D04ACF6C6010E94500BD1CF8F929F92BB
:101CB000AF92BF92CF92DF92EF92FF924B015C0105
:101CC0000E945B0B6B017C010E945B0B6C197D0910
:101CD0008E099F09683E734081059105A8F321E0B4
:101CE000821A9108A108B10888EEC80E83E0D81EB8
:101CF000E11CF11C81149104A104B10429F7FF90A7
:101D0000EF90DF90CF90BF90AF909F908F9008950D
:101D10002FB7F8946091EB027091EC028091ED0284
:101D20009091EE022FBF08954F925F926F927F9233
:101D30009F92AF92BF92CF92DF92EF92FF920F935A
:101D40001F93CF93DF9300D01F92CDB7DEB7D09013
:101D500014078091170790911807A0911907B09167
:101D60001A07892B8A2B8B2BD9F00E945B0B0091D1
:101D70001007109111072091120730911307601B73
:101D8000710B820B930B009117071091180720918C
:101D9000190730911A076017710782079307C8F275
:101DA0000E945B0B609310077093110780931207DA
:101DB00090931307E0911F07F0912007309759F097
:101DC00040911B0750911C0760911D0770911E07E1
:101DD0008D2D0995D82EE0900E07F0900F074D2C11
:101DE000512C712C612CE114F10409F459C0D70174
:101DF0001C96CC901C9780911507909116078436FD
:101E0000910510F41C961C92D701ED91FC91A280D3
:101E1000B38019821A821B82DD2079F1F701369690
:101E200010E000E02191222319F19280992001F124
:101E300030E050E040E02F5F3F4F4F4F5F4FC30116
:101E4000B2010E94433B9B01AC01892D90E0B0E0C0
:101E5000A0E0BC01CD016F5F7F4F8F4F9F4F0E946D
:101E6000433BA1E0B0E0AC0FBD1FA00FB11F8C93AE
:101E70000F5F1F4F03301105A9F609811A812B81CD
:101E8000F7014585568562817381C701F501099582
:101E9000D7011C96CC921C971496ED90FC90A3CF82
:101EA00080910C0790910D078C010F5F1F4F1093CD
:101EB0000D0700930C074997B4F10E94880EC0905B
:101EC0000807D0900907E0900A07F0900B079B01E4
:101ED000AC012C193D094E095F0921F421E030E0E5
:101EE00040E050E088EE93E0089FB001099F700D3C
:101EF000189F700D1124072E000C880B990B0E945F
:101F0000C939309316072093150710920D071092C8
:101F10000C070E94880E609308077093090780934E
:101F20000A0790930B070F900F900F90DF91CF91BE
:101F30001F910F91FF90EF90DF90CF90BF90AF90E7
:101F40009F907F906F905F904F9008950F931F9395
:101F5000CF93DF932091E3022F5F322F37703093BE
:101F6000E30220FF2BC020E831FD2064347009F02B
:101F70002062205FFC01EC01239600E011E0648503
:101F8000662329F070E0C8010E945F3B6F5F6187A4
:101F9000322F369F030E30E0311D1124311110C055
:101FA0001682662311F0615061873196EC17FD07A8
:101FB00031F7DF91CF911F910F91089520E0D4CF99
:101FC00031503683EECF4F925F927F928F929F92E5
:101FD000AF92BF92CF92DF92EF92FF920F931F9337
:101FE000CF93DF932C01EB010E945B0BF20127855D
:101FF0003089621B730B6A307105B0F3F8948A81E3
:102000009B81181619060CF0CDC1E881F9816BB1DE
:10201000862E689487F83BB13F773BB9D9848E818F
:102020002D2D281B822F2E834F85042E000C550B3F
:10203000AA81BB817C85FD84EE847F5FF394E39469
:102040009F819884BA84AB841081C12C6C2D0C2D97
:102050002C2D2081112788942111280F08F42FEFAF
:102060008195889470FD120F1795889471FD120F59
:102070001795889472FD120F1795889473FD120FAF
:102080001795889474FD120F1795889475FD120F9B
:102090001795889476FD120F1795889477FD120F87
:1020A00017958894622F7111612F8D0D162F002CBA
:1020B0008BB800C017FF3BB921816627889400C008
:1020C00000C0002C3BB92111290F00C0002C8BB897
:1020D00000C016FF3BB908F42FEF9195889400C01B
:1020E00000C0002C3BB9F0FC620F00C0002C8BB884
:1020F00000C015FF3BB967958894F1FC620F00C0E2
:1021000000C0002C3BB96795889400C0002C8BB8A8
:1021100000C014FF3BB9F2FC620F6795889400C0C1
:1021200000C0002C3BB9F3FC620F00C0002C8BB840
:1021300000C013FF3BB967958894F4FC620F00C0A0
:1021400000C0002C3BB96795889400C0002C8BB868
:1021500000C012FF3BB9F5FC620F6795889400C080
:1021600000C0002C3BB9F6FC620F00C0002C8BB8FD
:1021700000C011FF3BB967958894F7FC620F00C05F
:1021800000C0002C3BB96795889400C0002C8BB828
:1021900000C010FF3BB9122FF110162F9B0D00C08D
:1021A00000C0002C3BB900C000C0002C8BB800C0A0
:1021B00017FF3BB922816627889400C000C0002C1D
:1021C0003BB92111290D00C0002C8BB800C016FFAF
:1021D0003BB908F42FEFE40FF51F00C000C0002C3E
:1021E0003BB9E0FC620F00C0002C8BB800C015FFAB
:1021F0003BB967958894E1FC620F00C000C0002CD9
:102200003BB96795889400C0002C8BB800C014FFC0
:102210003BB9E2FC620F6795889400C000C0002CB7
:102220003BB9E3FC620F00C0002C8BB800C013FF69
:102230003BB967958894E4FC620F00C000C0002C95
:102240003BB96795889400C0002C8BB800C012FF82
:102250003BB9E5FC620F6795889400C000C0002C74
:102260003BB9E6FC620F00C0002C8BB800C011FF28
:102270003BB967958894E7FC620F00C000C0002C52
:102280003BB96795889400C0002C8BB800C010FF44
:102290003BB9122FE110162F919400C000C0002C02
:1022A0003BB99A0C00C000C08BB800C017FF3BB907
:1022B00020816627889400C000C0002C3BB9211102
:1022C000280F00C0002C8BB800C016FF3BB908F4E3
:1022D0002FEF8195889400C000C0002C3BB970FDA1
:1022E000620F00C0002C8BB800C015FF3BB967958A
:1022F000889471FD620F00C000C0002C3BB9679547
:10230000889400C0002C8BB800C014FF3BB972FD4C
:10231000620F6795889400C000C0002C3BB973FD24
:10232000620F00C0002C8BB800C013FF3BB967954B
:10233000889474FD620F00C000C0002C3BB9679503
:10234000889400C0002C8BB800C012FF3BB975FD0B
:10235000620F6795889400C000C0002C3BB976FDE1
:10236000620F00C0002C8BB800C011FF3BB967950D
:10237000889477FD620F00C000C0002C3BB96795C0
:10238000889400C0002C8BB800C010FF3BB9122FFE
:102390007111162F8D0D00C000C0002C3BB9119794
:1023A00009F086CE4A815B8120EE31E0DA010E949D
:1023B000793BDC01CB01F4E0B695A795979587951D
:1023C000FA95D1F730E020E0B901EAE94E9F040E1A
:1023D000611D5E9F600D711D1124650F711D860FBB
:1023E000971FA11DB11D893E43E09407A105B105CA
:1023F00008F434C0885E9340A109B10942E0B69563
:10240000A795979587954A95D1F747E0849F080E41
:10241000211D949F200D311D1124290F311D609124
:10242000E20270E0860F971F820F931F4091EB022C
:102430005091EC026091ED027091EE02292F33274A
:10244000420F531F611D711D4093EB025093EC022C
:102450006093ED027093EE028093E20278940E9402
:102460005B0BF201708B6787DF91CF911F910F910A
:10247000FF90EF90DF90CF90BF90AF909F908F90A4
:102480007F905F904F90089580E991E00895579A6A
:1024900008956F927F928F92CF92DF92EF92FF9288
:1024A0000F931F93CF93DF93CDB7DEB762970FB62D
:1024B000F894DEBF0FBECDBF6C017A013801822EC9
:1024C000DC011C962C91CA0157FF04C0882799276C
:1024D000841B950B7A8369839C838B839E838D8376
:1024E0006D867E868F86213049F5CE0101960E9449
:1024F000A60F83E0888B1A8A198AF7FE02C08DEF37
:10250000888BD601ED91FC910484F585E02DBE0108
:102510006F5F7F4FC601099562960FB6F894DEBFD4
:102520000FBECDBFDF91CF911F910F91FF90EF9024
:10253000DF90CF908F907F906F9008951C861B86C0
:102540001A86198618861F82D4CFEF92FF920F93B6
:102550001F93CF93DF93CDB7DEB762970FB6F89492
:10256000DEBF0FBECDBF7C01DC011C968C917A834F
:1025700069835C834B835E834D830D871E872F8722
:102580008130F9F4CE0101960E94A60F188A1A8AAA
:10259000198AD701ED91FC910484F585E02DBE01E7
:1025A0006F5F7F4FC701099562960FB6F894DEBF43
:1025B0000FBECDBFDF91CF911F910F91FF90EF9094
:1025C00008951C861B861A86198618861F82DECF00
:1025D000EBEBF5E0108211821282109231030C9421
:1025E000940EEBEBF5E080910C01808380910E015D
:1025F000818380910A01828381E0809331030C946E
:10260000940E0F931F930E94880E0091DA0210918E
:10261000DB022091DC023091DD0206171707280744
:10262000390720F480914903811104C08091480347
:10263000882359F1109248030E94880E00910601E8
:10264000109107012091080130910901DC01CB01B3
:10265000800F911FA21FB31F8093DA029093DB02B9
:10266000A093DC02B093DD0280913103882331F026
:10267000109231031F910F910C94E81281E0809326
:1026800031031F910F910C94F1121F910F91089536
:102690000F931F93CF930E94880E0091CE0210914A
:1026A000CF022091D0023091D102061717072807D8
:1026B000390720F480916F03811104C080914A038F
:1026C000882339F110924A03C091290381E0C82779
:1026D000C09329030E94880E009106011091070102
:1026E0002091080130910901DC01CB01800F911F7D
:1026F000A21FB31F8093CE029093CF02A093D0026B
:10270000B093D1026C2F8DE0CF911F910F910C945B
:10271000E309CF911F910F9108950F931F93CF93CA
:10272000DF93EC01E0E0F0E060E070E0CB01DE017F
:10273000AE0FB11D2C91222309F12D3211F4EF5F60
:10274000F1E0DE01AE0FB11D0C9120ED200F2A301B
:1027500018F5AAE0B0E09B01AC010E94BE39002E42
:10276000000C110B220B330B600F711F821F931F84
:102770006053710981099109EF5FD9CFFF2339F0C7
:1027800090958095709561957F4F8F4F9F4FDF910A
:10279000CF911F910F9108956FEF7FEFCB01F7CF8E
:1027A000FC0190E030E020E07AE0DF01A90FB11DEC
:1027B0006C916623A1F080ED860F8A3070F4729FD1
:1027C000A001739F500D11249A01260F311D67FD42
:1027D0003A95205331099F5FE8CF2FEF3FEFC901B2
:1027E0000895DC01ED91FC91048CF58DE02D0994A8
:1027F00090E080E00895FC018585968508950F930B
:102800001F93CF93DF9300D01F92CDB7DEB7AB01FC
:1028100019821A821B82DC01ED91FC910190F081FA
:10282000E02D00E010E020E0BE016F5F7F4F0995D2
:102830000F900F900F90DF91CF911F910F910895FE
:1028400090E080E008950E946E03823391058CF041
:10285000833C91058CF08C3721E0920784F08B3219
:1028600022E092077CF0863193407CF090E080E09B
:10287000089581E090E0089582E090E0089583E07B
:1028800090E0089584E090E0089585E090E0089558
:102890000F931F93CF93DF930E942314EC010E94A8
:1028A000880E0091DE021091DF022091E00230914B
:1028B000E1020617170728073907B0F4CD2BC9F036
:1028C0000E9423149093B2048093B1040E94880E56
:1028D0006C507E4F8F4F9F4F6093DE027093DF02EC
:1028E0008093E0029093E102DF91CF911F910F91CD
:1028F00008950E94880E6C597F4F8F4F9F4FECCFE9
:10290000BF92CF92DF92EF92FF920F931F93CF93DC
:10291000DF9300D000D000D01F92CDB7DEB780E0AB
:102920000E94E80D87E00E94800B1092EE058093D4
:10293000ED058730E1F58FEE95E00E9471040E946D
:102940002208B82E8FEE95E00E9471040E942208A2
:10295000C82E8FEE95E00E947104182F86FF3EC0AE
:102960008F710E9422080CE015FD00E0080F8FEE29
:1029700095E00E9471040E942208D82E8FEE95E007
:102980000E9471040E942208E82E8FEE95E00E94BA
:10299000710410E087FD14E68F770E942208F82E5C
:1029A0008FEE95E00E9471040E942208180F2B2DD3
:1029B0003C2D402F5D2DB701812F90E027960FB65B
:1029C000F894DEBF0FBECDBFDF91CF911F910F9165
:1029D000FF90EF90DF90CF90BF9008958F730E948B
:1029E0002208082FC4CFCF93DF93EB010E94E80D9C
:1029F00081E00E94800B1092EE058093ED058FEE32
:102A000095E00E947104888381E0DF91CF91089561
:102A1000EF92FF921F93CF93DF931F92CDB7DEB754
:102A20007C01162FBE016F5F7F4F8EE00E94F31472
:102A3000811108C080E00F90DF91CF911F91FF902E
:102A4000EF90089581E08093FB0588E68093FD0573
:102A50001092FC051092FE05113089F587E090E098
:102A60000E948203F70180810E94180890E00E9472
:102A70008203898185608983F70181810E9418081A
:102A800090E00E948203F70182810E94180890E082
:102A90000E948203F70184810E94180890E00E943E
:102AA000820381E00E94330D8111C4CF69818EE0E1
:102AB0000E94CE0D8111BECF812F8770BCCF8BE0DD
:102AC00090E00E94820389818660D5CF8FE4809355
:102AD000040170E060E088E00E94B80A70E060E005
:102AE00089E00C94B80A82E5809304018093050183
:102AF0006FEF70E089E00E94B80A70E060E088E063
:102B00000C94B80A87E480930401809305016FEF69
:102B100070E088E00E94B80A70E060E089E00C9400
:102B2000B80A0F931F930E94880E0091D60210914D
:102B3000D7022091D8023091D9020617170728072B
:102B4000390708F05EC080916E03882309F459C0EC
:102B5000809105018F3419F0823509F04AC09091B7
:102B600004019F3409F582E58093050180930401F7
:102B70000E94880E00910601109107012091080122
:102B800030910901DC01CB01800F911FA21FB31FFF
:102B90008093D6029093D702A093D802B093D90223
:102BA0001F910F910C947315823519F5923549F5E3
:102BB00087E480930501809304010E94880E0091B0
:102BC0000601109107012091080130910901DC01F3
:102BD000CB01800F911FA21FB31F8093D602909349
:102BE000D702A093D802B093D9021F910F910C94F1
:102BF0008215873431F480910401877F873409F48A
:102C0000B2CF1F910F910895CF92DF92EF92FF9272
:102C1000CF930E94880EC090D202D090D302E09051
:102C2000D402F090D502C616D706E806F90620F4BD
:102C300080916D03811104C080914B03882391F131
:102C400080910501823571F5C0910101C0FF1FC05F
:102C5000C0900601D0900701E0900801F0900901B2
:102C6000C1FF72C08FE4809304010E94880EC60EDB
:102C7000D71EE81EF91EC092D202D092D302E09273
:102C8000D402F092D5020E94661510924B038C2F4D
:102C900090E09595879595958795009709F467C07D
:102CA000809301010E94880EC090D202D090D3027E
:102CB000E090D402F090D502C616D706E806F906D1
:102CC00020F480916D03811104C080914B0388230F
:102CD000A9F180910501873489F5C09100019C2FED
:102CE0009270C0FF46C09923F9F08FE480930401ED
:102CF0000E94880EC0900601D0900701E090080164
:102D0000F0900901DC01CB018C0D9D1DAE1DBF1D96
:102D10008093D2029093D302A093D402B093D502B1
:102D20000E94661510924B038C2F90E09595879525
:102D3000959587950097E1F180930001CF91FF90E1
:102D4000EF90DF90CF900895809304010E94880E49
:102D5000C60ED71EE81EF91EC092D202D092D30230
:102D6000E092D402F092D5020E9473158ECF87E7CD
:102D700097CF9923C9F2809304010E94880EC090D6
:102D80000601D0900701E0900801F0900901DC01F4
:102D9000CB018C0D9D1DAE1DBF1D8093D202909363
:102DA000D302A093D402B093D5020E948215BACF69
:102DB0008BEBC2CF85ED8093BC008091670690912C
:102DC0006806A0916906B0916A060796A11DB11D1B
:102DD00023E0B695A795979587952A95D1F72091E9
:102DE000BC0024FD03C0109265060895409167065B
:102DF000509168066091690670916A06452B462BD2
:102E0000472B69F30097A105B10541F025E32A9509
:102E1000F1F700000197A109B109E1CF80916606A1
:102E20000C945B0AAF92BF92CF92DF92EF92FF9227
:102E30000F931F93CF93DF9300D000D0CDB7DEB7B1
:102E40008C016B017A018091AD058333E9F45B015C
:102E50006801C40ED51EC016D106A9F10E940B054B
:102E60008FE00E941605812F0E941605802F0E9478
:102E700016050F5F1F4F80E00E941605F501819334
:102E80005F010E940105E7CF843369F50E940B05BD
:102E900019830A838F2D8F778B83EC8264E070E037
:102EA000CE0101960E94E704A70170E060E0C60130
:102EB0000E941D3AE114F10421F0B701C6010E94FD
:102EC000E7040E940105C7010F900F900F900F902B
:102ED000DF91CF911F910F91FF90EF90DF90CF90F6
:102EE000BF90AF9008950E940B050F3F110509F0A8
:102EF00030F419820A831B8263E070E0D1CF17FDA2
:102F00000BC019820A8333E0169507953A95E1F7CD
:102F1000007E08600B83F0CFC80126E09695879568
:102F20002A95E1F7807E19830A830115104C18F465
:102F300080618B83E1CF8861FCCFFA012091EC05A1
:102F400030E0322F2227260F371F90E0982F882756
:102F500042E050E0BF01820F931F0C941217FF92C2
:102F60000F931F93CF93DF9300D0CDB7DEB7F82E2A
:102F7000AE014F5F5F4F66E270E00E949D170981CE
:102F80001A81102701271027AE014F5F5F4F66E2BD
:102F900070E08F2D0E949D1789819A81982789273B
:102FA00098270817190749F4C8010F900F90DF916F
:102FB000CF911F910F91FF9008958C01E5CF3F9223
:102FC0004F925F926F927F928F929F92AF92BF9239
:102FD000CF92DF92EF92FF920F931F93CF93DF93E5
:102FE00000D0CDB7DEB75C014B01342E452EFC017D
:102FF00066887788508C80E591E00E947F03AE015F
:103000004F5F5F4F60E270E0852D0E949D17C98081
:10301000DA80DC24CD24DC24AE014F5F5F4F60E218
:1030200070E0852D0E949D1789819A8198278927B4
:103030009827C816D90609F077C0E52CF12C67E06F
:10304000569EF0011124EF56FA4FD582C482032D0B
:10305000142DC016D10608F48601AE014F5F5F4FF4
:1030600064E270E0852D0E949D1789819A819827DE
:1030700089279827680E791E930137704091AD0516
:10308000433309F053C088E0E80EF11CFE2CEE2417
:10309000FF0CFF0CFF0CC9018E0D9F1D473309F477
:1030A00049C0A901400F511F4130584008F442C0A7
:1030B00060E078E06B01C21AD30AA601B4010E9455
:1030C0001D05A8014C195D09B4016C0D7D1DC701DA
:1030D0000E941D05600E711E79826A8222E030E036
:1030E000AE014F5F5F4F64E270E0852D0E94EE05F8
:1030F000F50186899789800F911F978B868BC80170
:103100000F900F90DF91CF911F910F91FF90EF9053
:10311000DF90CF90BF90AF909F908F907F906F90F7
:103120005F904F903F9008956C0176CFE0E1EE0EF6
:10313000F11CACCFA801B401CBCFCF93DF931F928A
:10314000CDB7DEB741E050E0BE016F5F7F4F0E9418
:10315000121789810F90DF91CF91089590E080E060
:103160000C949D18CF93DF93C4E1D0E00E94AE1879
:10317000882361F061E070E080E090E00E94560EEC
:103180002197A1F780E0DF91CF91089581E0FBCFF7
:10319000DF92EF92FF920F931F93CF93DF9300D0B4
:1031A000CDB7DEB760E372E080E090E00E94560E9B
:1031B000DFB6F8940BE716E037E6E32E36E0F32EA1
:1031C00080913A05811125C0F8018491F70194910D
:1031D000E82FF0E0EE0FFF1FED5AF94FA591B491E3
:1031E0008C91982321F461E08AE00E94E30961E078
:1031F0008AE00E947C0A8CB580618CBD8CB58064AD
:103200008CBD61E08DE00E947C0A61E08BE00E9451
:103210007C0A80913A058F5F80933A05DFBEF80102
:103220000491E02FF0E0EE0FFF1FE75BF94F85916F
:1032300094919093390580933805F701E490E092DA
:10324000370561E08AE00E947C0A0E94010580E562
:1032500091E00E947F0384E38093AD0580E80E94A3
:10326000CD050E94B218882309F441C088E00E946D
:10327000CD050E94AE188830D1F580E10E94CD05C1
:103280000E94AE18803199F580E00E94CD050E9421
:10329000AE18182F81112BC08FE190E00E949D186D
:1032A000833029F580E48093EC0542E06EE170E024
:1032B000812F0E94140642E06FE170E0812F0E948E
:1032C00014061F5F143089F740E06EE170E0812F33
:1032D0000E94140640E06FE170E0812F0E94140606
:1032E0001F5F183089F781E08093B40564C087E3DD
:1032F0008093AD0580E80E94CD050E94B218882316
:10330000F9F088E00E94CD050E94AE188830C1F423
:1033100080E10E94CD050E94AE18182F803181F403
:1033200080E00E94CD050E94AE18811109C089E39A
:1033300090E00E949D18843019F41093EC05D3CFCF
:1033400083E38093AD0580E80E94CD050E94B2180A
:10335000882371F180E10E94CD050E94AE18803172
:1033600039F582E10E94CD050E94AE18823101F547
:1033700080E00E94CD050E94AE18811119C084E042
:103380008093EC0515E51A8341E050E0BE016E5FC5
:103390007F4F8BE190E00E941D05198341E050E0D2
:1033A000BE016F5F7F4F8AE190E00E941D059BCFB9
:1033B0001092AD0580E00F900F90DF91CF911F919B
:1033C0000F91FF90EF90DF900895CF92DF92EF92F0
:1033D000FF92CF93DF93CDB7DEB7C254D1090FB6BA
:1033E000F894DEBF0FBECDBFFC01428153816481E2
:1033F000758123964CAF5DAF6EAF7FAF239781E0B1
:1034000023968FAF23972396CCACDDACEEACFFAC0C
:103410002397CBAADCAAEDAAFEAA4DA75EA76FA7A9
:1034200078AB88ABCDA4DEA4EFA4F8A8CFA2D8A631
:10343000E9A6FAA68EABCBA8DCA8EDA8FEA8C9A287
:10344000DAA2EBA2FCA223E232E03C8B2B8B9FEFB3
:103450009D8B9E8B9F8B188E3E872D878AA7CFA032
:10346000D8A4E9A4FAA4CF86D88AE98AFA8A8CA3D8
:1034700089A19AA1ABA1BCA189879A87AB87BC8798
:103480003A8329834B835C836D837E838091B4056B
:10349000882309F443C080E591E00E947F0346E061
:1034A00050E064E171E089E090E00E941D0544E095
:1034B00050E0BE016D5F7F4F8FE090E00E941D05E0
:1034C00044E050E0BE01615F7F4F81E090E00E94E8
:1034D0001D0544E050E0BE016B5E7F4F85E090E04B
:1034E0000E941D0581E08C8789859A85AB85BC8506
:1034F0008093B0059093B105A093B205B093B30546
:10350000CE5BDF4F0FB6F894DEBF0FBECDBFDF91AD
:10351000CF91FF90EF90DF90CF9008950E94C81850
:10352000882371F3B8CF2091EC0530E0322F2227A9
:10353000620F731F90E0982F8827860F971F0C94B7
:103540009D18CF93C82F462F61E070E00E941406AB
:1035500061E070E08C2F0E94931A8111F9CFCF9116
:1035600008958F929F92AF92BF92CF92DF92EF9287
:10357000FF921F93CF93DF93CDB7DEB72C970FB693
:10358000F894DEBF0FBECDBF2091AD0514E022231D
:1035900039F16B017C0180E591E00E947F035E01BF
:1035A00027E0A20EB11C450110E063E070E0812F1E
:1035B0000E94931AF40181934F01882349F11F5F00
:1035C000143099F710E0F50181915F018D31D9F048
:1035D0008831C9F08A518230B0F01F5F143099F7FA
:1035E000812F2C960FB6F894DEBF0FBECDBFDF91B2
:1035F000CF911F91FF90EF90DF90CF90BF90AF9051
:103600009F908F90089560E170E0812F0E94A11A31
:10361000A12EB12C8AEF90E00E94500B42E870E09E
:1036200060E0812F0E9414064FEF62E070E0812F6E
:103630000E941406B601C114D10491F480911201C4
:103640009091130101968115F0EC9F0708F462C078
:1036500090931301809312016091120170911301F4
:10366000812F0E94FF0586E0E2E2F1E0DE01119683
:1036700001900D928A95E1F7F70183818F778C8312
:1036800084818D8385818E83A7014E5F5F4F24E007
:1036900030E06CE070E0812F0E94EE05DB86CC8686
:1036A00022E030E0AE01455F5F4F60E170E0812FC6
:1036B0000E94EE0526E030E0AE014F5F5F4F66E00E
:1036C00070E0812F0E94EE0561E070E0812F0E9482
:1036D000A11A27E02A9DC0012B9D900D11249C0169
:1036E0002F563A4F7901F90111821082AE01455FE0
:1036F0005F4F68E270E0812F0E949D178B859C854B
:10370000982789279827F701938382831682158249
:10371000148266CF80E090EC9BCF4F925F927F92B5
:103720008F929F92AF92BF92CF92DF92EF92FF92D1
:103730000F931F93CF93DF9300D0CDB7DEB7782ED2
:103740006B014A01A82EB12C27E0829FC0011124F1
:10375000FC01EF56FA4F7F010081118180E591E075
:103760000E947F030815190554F4872D0E94AF1796
:10377000F70126818C01021B1109118300830115B9
:10378000110529F563E070E0872D0E94931A8431BA
:1037900059F0882349F001E010E08C3111F410E079
:1037A00000E0119501951109C8010F900F90DF916C
:1037B000CF911F910F91FF90EF90DF90CF90BF902E
:1037C000AF909F908F907F905F904F90089580165C
:1037D00091060CF4840187E08A9DF0018B9DF00D29
:1037E0001124EF56FA4FE280F380C114D10451F155
:1037F0002701F7E05F22872D0E94E005840D951DCB
:103800002091AD05273309F453C09801240D351DCF
:103810002130384008F44CC020E038E049018418D9
:103820009508A401B6010E9412172601480C591CE4
:103830006801C818D908872D0E94E005A601B201C9
:103840000E941217E00EF11E87E08A9DF0018B9D09
:10385000F00D1124EF56FA4FF382E282208131817C
:10386000201B310B318320838681800F912F911D86
:103870008A3F910510F4232BF1F487E08A9DF00133
:103880008B9DF00D1124EF56FA4F1682F982EA82D1
:1038900022E030E0AE014F5F5F4F68E270E0872DBD
:1038A0000E94EE0560E470E0872D0E94A11A7CCF93
:1038B000A801B601C5CF868377CFCF93DF93FC01F4
:1038C000218D328D2115310529F48FEF9FEFDF9186
:1038D000CF910895EC01808D4217530708F0A9019C
:1038E0000E948D1B1816190684F7298D3A8D281B06
:1038F000390B3A8F298FEBCF0F931F93CF93DF9321
:103900001F92CDB7DEB7FC01218D328D232B41F400
:103910008FEF9FEF0F90DF91CF911F910F9108953F
:103920008C0141E050E0BE016F5F7F4FFC01808D54
:103930000E948D1B181619065CF7F801818D928D77
:103940000197928F818F898190E0E4CFCF93C82F28
:1039500080E591E00E947F0360E170E08C2FCF91C1
:103960000C94A11ACF92DF92EF92FF920F931F93C4
:10397000CF93DF9300D000D000D0CDB7DEB78C015D
:103980006B017A01FC01808D843010F40E94A61C2A
:1039900083E292E09A838983F60182819381A481F4
:1039A000B5818B839C83AD83BE83B701CE01019625
:1039B0000E94B11AF801808F8430A0F4F586E48665
:1039C000128E118E81E026960FB6F894DEBF0FBEE0
:1039D000CDBFDF91CF911F910F91FF90EF90DF90BE
:1039E000CF90089580E0EFCFCF93DF93EC01888DE7
:1039F000843020F40E94A61C84E0888FDF91CF9150
:103A00000895CF93FC01C08D80E591E00E947F0373
:103A100060E270E08C2F0E94A11A62E070E08C2FAF
:103A20000E94931A84FD16C062E070E08C2F0E9401
:103A3000931A83FF0AC048E162E070E08C2F0E9475
:103A4000140680E090E0CF91089580E591E00E9417
:103A50007F03E3CF40E162E070E08C2F0E94140608
:103A600081E0F0CF8F929F92AF92BF92CF92DF9280
:103A7000EF92FF921F93CF93DF9300D000D000D03E
:103A8000CDB7DEB76C015B01FC01808D843010F492
:103A90000E94A61C8091AD05811115C094E0F6012D
:103AA000908F26960FB6F894DEBF0FBECDBFDF9184
:103AB000CF911F91FF90EF90DF90CF90BF90AF908C
:103AC0009F908F90089580E591E00E947F039E0172
:103AD0002F5F3F4F7901490110E063E070E0812FD3
:103AE0000E94931AF40181934F01882309F11F5F0B
:103AF000143099F710E0F70181917F018D3199F031
:103B0000883189F08A51823070F01F5F143099F744
:103B1000F601108F80E0143021F2B586A486128E53
:103B2000118E81E0BECF60E170E0812F0E94A11A6A
:103B3000812E912C8AEF90E00E94500B42E070E0C1
:103B400060E0812F0E9414064FEF62E070E0812F49
:103B50000E941406B501A114B10489F480911201E8
:103B60009091130101968115F0EC9F0788F19093D5
:103B70001301809312016091120170911301812F42
:103B80000E94FF0561E070E0812F0E94A11A27E0EA
:103B9000289DC001299D900D11249C012F563A4F5C
:103BA0007901F90111821082AE014B5F5F4F68E22B
:103BB00070E0812F0E949D178D819E819827892713
:103BC0009827F70193838283168215821482A0CFEF
:103BD00080E090ECCCCF1F93CF93DF931F92CDB7B3
:103BE000DEB7FC01108D143020F5818D928D892B6C
:103BF00001F180E591E00E947F03812F0E94E005A2
:103C000027E0129FF0011124EF56FA4F22813381F1
:103C1000377041E050E0BE016F5F7F4F820F931F0E
:103C20000E941217898190E00F90DF91CF911F9130
:103C300008958FEF9FEFF8CFEF92FF920F931F93AE
:103C4000CF93DF93EC018B0188E2FB0111928A95FF
:103C5000E9F761E08E810E947C0A60E08E810E941B
:103C6000E30988EE93E00E94500B61E08E810E9490
:103C7000E30968858E810E947C0A88E290E00E94B8
:103C8000500BE881F9810088F189E02D26E030E0D1
:103C90004AE050E060E0CE0109956E317105810582
:103CA00091056CF4982F872F762F66276061CB01E2
:103CB000DF91CF911F910F91FF90EF900895E881D0
:103CC000F9810088F189E02D26E030E04AE050E0FB
:103CD00061E0CE0109957801F8E2EF0EF11C623344
:103CE00071058105910534F4982F872F762F66276B
:103CF0006161DDCFE881F9810088F189E02D26E05E
:103D000030E04AE050E060E0CE010995683171058D
:103D10008105910534F4982F872F762F66276261ED
:103D2000C6CFE881F9810088F189E02D26E030E0F6
:103D30004AE050E061E0CE0109956B3071058105E4
:103D4000910534F4982F872F762F66276361AFCFC4
:103D500021E069327105810591050CF420E0F8013C
:103D600021938F01EE16FF0629F6E881F98100887C
:103D7000F189E02D26E030E04AE050E060E0CE013D
:103D80000995683171058105910534F4982F872FC5
:103D9000762F662764618BCF70E060E088CFDF927A
:103DA000EF92FF920F931F93CF93DF93CDB7DEB7C0
:103DB00028970FB6F894DEBF0FBECDBF8C01D80197
:103DC00059964D915C915A974115510551F0ED91DD
:103DD000FC91048CF58DE02D70E060E0C801099540
:103DE000EECFF801D08CF7E0DF9EC00111249C01DA
:103DF0002F563A4F7901D9018D919C91892B59F118
:103E000048E050E0BE016F5F7F4FF801808D0E9457
:103E10008D1B1816190694F5D801509684E0FE0102
:103E2000319601900D928A95E1F78D8190E0982F5F
:103E300088272E81820F911DF801958B848B8F81AD
:103E4000282F30E0322F22278885820F932F911D53
:103E5000928F818F13C080E591E00E947F038D2DAA
:103E60000E94AF17D70116962C911697821B9109C5
:103E70008D939C93892B21F690E080E028960FB6D5
:103E8000F894DEBF0FBECDBFDF91CF911F910F9190
:103E9000FF90EF90DF9008956F927F928F929F92A4
:103EA000AF92BF92CF92DF92EF92FF920F931F9348
:103EB000CF93DF93CDB7DEB7EC970FB6F894DEBFA4
:103EC0000FBECDBF4C018B013A0183E292E09A8391
:103ED00089831C861B8648EE53E060E070E04D87C6
:103EE0005E876F87788B27EE31E03A872987988F36
:103EF0008F8B198E1A8E1B8E1C8E24E029A399ABF2
:103F000088AB1AAA1BAA1CAA1DAA8091B005909181
:103F1000B105A091B205B091B3058EA39FA3A8A748
:103F2000B9A78B839C83AD83BE8318861F82F8015B
:103F300020E090E080E06AE03191332309F47AC018
:103F400040ED430F4A3008F064C0689FA001699FAC
:103F5000500D1124CA01C097830F911D37FD9A950A
:103F60008F3F910549F340F34B815C816D817E81E8
:103F70008091270590912805A0912905B0912A05E7
:103F8000481759076A077B0709F428C20E94880E60
:103F90006F7077277C5FCE0109960E94321D8130B9
:103FA00009F01FC283E292E09DA38CA38B819C81C8
:103FB000AD81BE818EA39FA3A8A7B9A745E350E01A
:103FC000BE016C5D7F4FCE0109960E944208892B8D
:103FD00009F04EC010E000E0CE0109960E94F41CEA
:103FE0000130110559F1C801EC960FB6F894DEBF07
:103FF0000FBECDBFDF91CF911F910F91FF90EF903A
:10400000DF90CF90BF90AF909F908F907F906F90F8
:1040100008953E3209F0A8CF233009F4A5CFA2E3DA
:10402000B0E0AC0FBD1FA20FB11D8C932F5F90E0CD
:1040300080E082CF233009F097CF8DABD401ED9192
:10404000FC910488F589E02D83E292E09DA38CA386
:104050008AA99BA9ACA9BDA98EA39FA3A8A7B9A70C
:10406000A301BE016C5D7F4FC40109958C01BBCFDC
:104070000E94880E78876F8342E050E0BE01695F3E
:104080007F4FCE0109960E94DF1781E090E09DA34B
:104090008CA342E050E0BE016C5D7F4FCE010996DB
:1040A0000E94DF1780E091E09DA38CA342E050E0E6
:1040B000BE016C5D7F4FCE0109960E94DF171DA2E5
:1040C0001CA242E050E0BE016C5D7F4FCE0109961C
:1040D0000E94DF1742E050E0BE016C5D7F4FCE01D1
:1040E00009960E94DF1742E050E0BE016C5D7F4FF1
:1040F000CE0109960E94DF177801D8018C918823A0
:1041000011F18701F80181916F01882311F08E323E
:10411000C1F45801AE18BF081A141B0484F4AEAAE7
:1041200041E050E0BE016A5C7F4FCE0109960E94DB
:10413000DF17A501B701CE0109960E94DF177601AE
:10414000DCCF8601DFCF1EAA41E050E0BE016A5CF1
:104150007F4FCE0109960E94DF1700E011E01DA3FA
:104160000CA342E050E0BE016C5D7F4FCE0109968A
:104170000E94DF171DA30CA342E050E0BE016C5D5E
:104180007F4FCE0109960E94DF17CE0109960E944B
:10419000011D892B09F41ECF83E0E82EF12CD7C036
:1041A0004B815C816D817E81898D9A8DAB8DBC8DBB
:1041B000481759076A077B0709F00AC18D8D9E8D44
:1041C000C59709F005C18AA19BA10DEF1FEF0C97C0
:1041D0000CF4B4C04CE050E0BE016C5D7F4FCE01EA
:1041E00009960E945D1C8EA19FA198278927982778
:1041F0009BAF8AAF4F8158852CA13DA14217530731
:1042000009F0E9C097FFE7C08F7092700BEF1FEFC6
:10421000892B09F093C0AAA4BBA4BA24AB24BA2466
:104220000AEF1FEFA114B10409F488C010E000E008
:1042300088A599A59827892798270817190708F5A9
:1042400041E050E0BE016A5C7F4FCE0109960E94BA
:104250005D1C4EA9442339F050E070E060E0CE01CF
:1042600009960E945D1C8EA98111EACF44E050E0BE
:1042700070E060E0CE0109960E945D1C0F5F1F4F49
:10428000D7CFD12CC12C41E050E0BE01645C7F4F00
:10429000CE0109960E945D1C4CAD842F807C09F0F4
:1042A00074C0442339F050E070E060E0CE0109961C
:1042B0000E945D1C8CAD8111E6CF42E050E0BE0152
:1042C000685C7F4FCE0109960E945D1C42E050E081
:1042D000BE016A5C7F4FCE0109960E945D1C44E0DE
:1042E00050E070E060E0CE0109960E945D1C42E063
:1042F00050E0BE01665C7F4FCE0109960E945D1CB6
:1043000088AD99AD4AAD5BAD8115914009F047C0CC
:104310000EA91FA91027012710270130110509F048
:104320003EC04115544009F04DC044E050E0BE018C
:104330006E5C7F4FCE0109960E945D1CF1E0EF1A82
:10434000F10809F449CE0F3F100709F045CE0E944D
:10435000880E5B016C01CE0109960E94CF1E1816D3
:1043600019060CF41DCF0E94880E6A197B098C096E
:104370009D09693873418105910538F562E370E064
:1043800080E090E00E94560EE6CF41E050E070E001
:1043900060E0CE0109960E945D1C1CAE8BCF5427B5
:1043A0004527542770E060E0CE0109960E945D1C0D
:1043B000EFEFCE1ADE0AAC14BD0409F064CF06EFAD
:1043C0001FEFBCCF07EF1FEFB9CF0FEF1FEFB6CF37
:1043D0000EEF1FEFB3CF0CEF1FEFB0CF0EEF1FEFBD
:1043E00002CE10E000E0FFCDFC01808191810C94B1
:1043F000FA39DF92EF92FF920F931F93CF93DF93DF
:1044000000D0CDB7DEB77C018B019A838983FB0195
:10441000D080CE0101960E94F421D81621F06D2D96
:10442000C7010E94023AC8010F900F90DF91CF910F
:104430001F910F91FF90EF90DF900895CF93DF933E
:10444000CCE0D0E060E0CE010E94023A2196C11596
:1044500084E0D807B9F78CE090E090933303809321
:104460003203DF91CF9108950E94103AFB01019031
:104470000020E9F73197AF01461B570BDC01ED91A6
:10448000FC910280F381E02D099467E472E08BE6F1
:1044900096E00C943622CF93DF93BC018BE696E036
:1044A0000E949009EC010E9445228C0F9D1FDF9114
:1044B000CF910895CF93DF9300D000D000D0CDB737
:1044C000DEB789E790E00E944B2283E292E09A8374
:1044D00089838091690390916A03A0916B03B091E5
:1044E0006C038B839C83AD83BE8341EF53EBBE0192
:1044F0006F5F7F4F8CE493E00E94420868E670E0B3
:104500008CE493E00E9490098CE493E00E94011DEA
:1045100026960FB6F894DEBF0FBECDBFDF91CF91C8
:104520000895CF93DF93682F8BE696E00E94890968
:10453000EC010E9445228C0F9D1FDF91CF910895C1
:104540008F929F92AF92BF92EF92FF920F931F9321
:10455000CF93DF93CDB7DEB7A1970FB6F894DEBF48
:104560000FBECDBF7C01FA01CB0119A2223008F4A5
:104570002AE08E010F5D1F4F822E912CB12CA12CB1
:10458000BF01A50194010E94C939F901CA016A302D
:104590000CF5605DD8016E938D01232B242B252B08
:1045A00079F790E080E0109721F0BD01C7010E94EB
:1045B0003622A1960FB6F894DEBF0FBECDBFDF91B5
:1045C000CF911F910F91FF90EF90BF90AF909F9070
:1045D0008F900895695CDECFCF92DF92EF92FF92C9
:1045E0000F931F93CF93DF9377FF1DC06A017B0169
:1045F000EC016DE20E9489098C0144275527BA011C
:104600004C195D096E097F092AE0CE010E94A022A3
:10461000800F911FDF91CF911F910F91FF90EF902D
:10462000DF90CF9008952AE0DF91CF911F910F91F5
:10463000FF90EF90DF90CF900C94A022AB01770F0A
:10464000660B770B0C94EC22AB0170E060E02AE083
:104650000C94A022462F50E070E060E02AE00C9419
:10466000A022CF93DF93682F8BE696E00E942A2347
:10467000EC010E9445228C0F9D1FDF91CF91089580
:104680008F929F92AF92BF92CF92DF92EF92FF9262
:104690000F931F93CF93DF937C018B014C0182E03A
:1046A000880E911C5701E5E0AE0EB11CD0E0C0E0D1
:1046B000F40161914F01C8010E942A236C016EE24E
:1046C000C8010E9489098C0D9D1DC80FD91F8A142D
:1046D0009B0471F7F7016581C8010E942A238C0FA2
:1046E0009D1FDF91CF911F910F91FF90EF90DF9071
:1046F000CF90BF90AF909F908F9008952F923F9250
:104700004F925F926F927F928F929F92AF92BF92E1
:10471000CF92DF92EF92FF921F93CF93DF93EC0142
:104720006A017B01722EAB019601CB01B6010E949A
:104730003E3B6AE472E0811126C046015701E894CD
:10474000B7F82FEF3FEF4FE75FE7C501B4010E94D5
:104750003E3B81110CC02FEF3FEF4FE75FE7C501F4
:10476000B4010E9478386EE472E0181664F02FEFFE
:104770003FEF4FE75FE4C701B6010E94393B1816CF
:10478000B4F462E572E0CE01DF91CF911F91FF900A
:10479000EF90DF90CF90BF90AF909F908F907F90E1
:1047A0006F905F904F903F902F900C9436222FEF98
:1047B0003FEF4FE75FECC701B6010E94783887FDF5
:1047C000E0CF20E030E0A901C701B6010E947838AF
:1047D000312C212C87FF09C06DE2CE010E9489098E
:1047E0001C01F7FAF094F7F8F09410E060E070E044
:1047F00080E09FE3711641F020E030E040E251E4B8
:104800000E94913A1F5FF6CFA70196010E94253AB8
:104810002B013C010E940A3B4B015C012AE0BC01D8
:10482000A401CE010E94A0227C01E20CF31C112302
:10483000A1F1C501B4010E947D389B01AC01C30107
:10484000B2010E94243A4B015C016EE2CE010E944B
:104850008909E80EF91E115000F120E030E040E235
:1048600051E4C501B4010E94DE382B013C010E94D5
:104870000A3B4B01CE010E942423E80EF91EB4012D
:1048800090E080E00E947D389B01AC01C301B20141
:104890000E94243A4B015C01DECFC701DF91CF912A
:1048A0001F91FF90EF90DF90CF90BF90AF909F90BF
:1048B0008F907F906F905F904F903F902F900895D2
:1048C0000C9436221F920F920FB60F9211242F9341
:1048D0003F934F935F936F937F938F939F93AF9388
:1048E000BF93EF93FF938091B900887F803609F4DE
:1048F0004AC0F0F5883209F4A7C018F5803109F4F0
:104900009BC0B8F4882309F4F9C0883009F494C036
:10491000FF91EF91BF91AF919F918F917F916F9197
:104920005F914F913F912F910F900FBE0F901F906D
:104930001895883109F488C0803251F78093430676
:1049400014C0803409F49DC040F48033B9F3883337
:10495000F9F68093430685ECB0C0803509F485C034
:10496000883509F496C0883499F60E94DA16D0CFBB
:10497000883909F48CC038F5883729F050F4883626
:1049800011F0803729F683E08093650610928A053E
:1049900057C0883809F47BC0803919F0803809F095
:1049A000B7CF80918A05803208F071C0E0918A0506
:1049B00081E08E0F80938A058091BB00F0E0E6597C
:1049C000FA4F80833DC0803B39F0E0F4803A09F42F
:1049D00079C0883A09F09CCF84E0809365061092F4
:1049E000690510926805E091B505F091B605099545
:1049F0008091680581110FC081E080936805109255
:104A0000480509C0803C09F4A6CF883C09F4A3CF2F
:104A1000883B09F07DCFE091690581E08E0F80939E
:104A20006905F0E0E85BFA4F80818093BB009091CC
:104A300069058091680529C0809140068093BB007C
:104A400085EC8093BC0064CF909142068091410632
:104A5000981758F5E091420681E08E0F8093420648
:104A6000F0E0E15EF94F8081E9CFE091420681E01C
:104A70008E0F809342068091BB00F0E0E15EF94F1B
:104A8000808390914206809141069817C8F285E88C
:104A9000D8CFE091420681E08E0F8093420680914C
:104AA000BB00F0E0E15EF94F808380914406811104
:104AB0005CCF81E080933F0684EA8093BC00109233
:104AC000650626CF85EC8093BC0010926506809128
:104AD0008A05803230F4E0918A05F0E0E659FA4F19
:104AE000108260918A0570E0E091B705F091B805F9
:104AF0008AE695E0099510928A050ACF109243063E
:104B000034CF1F920F920FB60F9211242F933F9321
:104B10004F935F936F937F938F939F93AF93BF93C5
:104B2000EF93FF938BE696E00E94E608FF91EF91EA
:104B3000BF91AF919F918F917F916F915F914F91B5
:104B40003F912F910F900FBE0F901F9018951F92BD
:104B50000F920FB60F9211242F938F939F93EF9381
:104B6000FF93E0917B06F0917C068081E0918106C5
:104B7000F091820682FD1BC09081809184068F5F38
:104B80008F7320918506821741F0E0918406F0E052
:104B9000E559F94F958F80938406FF91EF919F918E
:104BA0008F912F910F900FBE0F901F9018958081BD
:104BB000F4CF1F920F920FB60F9211242F933F93B1
:104BC0008F939F93AF93BF938091EB029091EC02F0
:104BD000A091ED02B091EE023091EA0223E0230FA2
:104BE0002D3758F50196A11DB11D2093EA0280933F
:104BF000EB029093EC02A093ED02B093EE02809151
:104C0000EF029091F002A091F102B091F2020196B0
:104C1000A11DB11D8093EF029093F002A093F102C9
:104C2000B093F202BF91AF919F918F913F912F91DD
:104C30000F900FBE0F901F90189526E8230F029635
:104C4000A11DB11DD2CFEBE8F5E083E292E09183A4
:104C5000808312821382148215820895EFEEF5E0AC
:104C60001382128288EE93E0A0E0B0E08483958303
:104C7000A683B78381E192E0918380830895E1E484
:104C8000F5E083E292E091838083128213821482A2
:104C900015820895EBE3F5E083E292E0918380834F
:104CA00012821382148215820895E1E3F5E083E213
:104CB00092E0918380831282138214821582089578
:104CC000EBE2F5E083E292E091838083128213822B
:104CD000148215820895E4E1F7E08FEF8083128259
:104CE0001182148613868FEF9FEFDC0187839087F4
:104CF000A187B2870895E5E2F5E083E292E091832F
:104D0000808312821382148215820895EFE1F5E008
:104D100083E292E09183808312821382148215824F
:104D2000EEEAF5E091838083128213821482158269
:104D30000895E9E1F5E083E292E0918380831282B5
:104D40001382148215820895EBE6F6E01382128234
:104D500088EE93E0A0E0B0E084839583A683B783D8
:104D600080E791E09183808385EC90E0958784874C
:104D700084EC90E09787868780EC90E0918B808B25
:104D800081EC90E0938B828B82EC90E0958B848B0E
:104D900086EC90E0978B868B118E128E138E148E7C
:104DA00008950895CF92DF92EF92FF920F931F9391
:104DB000CF93DF93E4EEF2E003E212E0118300838D
:104DC0001282138214821582EFEFF2E011830083C6
:104DD00080ECC82EC28298EAD92ED382EE24E394C6
:104DE000E48281EB8583ECE4F3E01382128288EEA7
:104DF00093E0A0E0B0E084839583A683B78387EE39
:104E000091E09183808317870687108A118A128A1E
:104E1000138A84E0808FE9EFF2E011830083FF249E
:104E2000FA94F282F382F4821582E3EFF2E01183C6
:104E30000083C282D382E482E582E0EEF5E0138251
:104E4000128284E691E09183808387E2848380E10B
:104E5000808782E08187128688E083878CE090E0FB
:104E60000E94FA3990E09093330380933203CDE0AF
:104E7000D3E08CE291E09983888380E291EAA7E015
:104E8000B0E08A839B83AC83BD838FEF9FEF9F83CA
:104E90008E831886F986FA8662E070E0CE010E9461
:104EA000050888E491E099838883E7E6F3E01183BD
:104EB0000083C282D382E48284EB8583DF91CF9129
:104EC0001F910F91FF90EF90DF90CF9008950E9477
:104ED00023260E942E260E943F260E944A260E94D8
:104EE00055260E9460260E946B260E947B260E9407
:104EF00086260E9499260E94A4260C94D226CF933F
:104F0000DF93CDB7DEB7C455D1090FB6F894DEBF35
:104F10000FBECDBF0E94150B61E08DE00E947C0AA0
:104F200061E089E00E947C0A61E088E00E947C0ADE
:104F300083E292E09A838983809101039091020336
:104F4000A0910303B09104038B839C83AD83BE8344
:104F5000CE0101960E94E519E0917B06F0917C0656
:104F600012E01083E0917706F09178061082E091CC
:104F70007906F0917A068FEC808310928306E09197
:104F80007F06F091800686E08083E0917D06F091B7
:104F90007E06808180618083E0917D06F0917E06AF
:104FA000808188608083E0917D06F0917E0680811B
:104FB00080688083E0917D06F0917E0680818F7D00
:104FC00080830E944D0A60E08EE00E94CE0D0E9418
:104FD000801429833A834B835C838F838FE18D8395
:104FE0001E8362E0CE0101960E94081561E0CE01A9
:104FF00001960E94081563961FAE63971986BE013D
:10500000675F7F4F8FE00E94F3146985862F83705E
:1050100021F06C7F8FE00E94CE0D63968FAD639779
:10502000882379F0BE016E5A7F4F8EE00E94F31400
:10503000882339F063966FAD63976F778EE00E9497
:10504000CE0D0E949C030E949C030E949C030E9420
:105050009C038EE1809314071092BB051092BC054F
:105060001092BD051092BE051092BF051092C005AA
:105070001092C1051092C2051092C3058FEF809364
:10508000C4051092C5051092C6050E94940E8EE9C3
:1050900090E00E944B2268EB72E28CE493E00E9465
:1050A000321D0E944D0A1092E5058091E90582307B
:1050B00018F098E09093E5059091EA05992339F06E
:1050C000813029F48091E50584608093E50562E3F1
:1050D00070E080E090E00E94560E6091EB0580EE5B
:1050E00095E00E94410D68EE73E080E090E00E9440
:1050F000560E60E380EE95E00E94540D84E991E144
:105100000E94500B60E380EE95E00E94540D84E90C
:1051100091E10E94500B60E380EE95E00E94540DF7
:1051200086E990E00E94500B60E280EE95E00E94DC
:10513000540D8091E50580620E94700D84E080939B
:10514000E6058CE00E94700D0E94B00D82E0809315
:10515000E70586E00E94700D82E00E94700D80EDF0
:1051600097E00E94500B88E08093EB0560E080EEB2
:1051700095E00E94410D85E090E0909318058093A2
:10518000170561E073E090E080E00E94F92162E0A1
:1051900073E081E090E00E94F92163E073E082E037
:1051A00090E00E94F92164E073E083E090E00E94C7
:1051B000F9216BEF72E084E090E00E94F9216CEF3E
:1051C00072E085E090E00E94F9216DEF72E086E0E8
:1051D00090E00E94F9216EEF72E087E090E00E947B
:1051E000F92165EF72E088E090E00E94F92166EF16
:1051F00072E089E090E00E94F92167EF72E08AE0B6
:1052000090E00E94F92168EF72E08BE090E00E944C
:10521000F92110E000E01A830983CE0101960E9473
:10522000F4210E9431230F5F1F4F0C30110599F7B5
:105230000E94880E00910503109106032091070338
:10524000309108030617170728073907C0F430E024
:1052500020E04CE153E061E273E08DE093E00E94D6
:1052600054060E94880E68577C4E8F4F9F4F609364
:1052700005037093060380930703909308030E942D
:10528000880E0091090310910A0320910B033091BD
:105290000C03061717072807390708F0C4C08091C8
:1052A0007903882309F4BFC030E020E04CE153E0EB
:1052B00061E273E08DE093E00E9454064091210387
:1052C00050912203609123037091240322E08BE626
:1052D00096E00E947E236CE071E08BE696E00E94EF
:1052E000900926E636E646EE5FE360912103709171
:1052F000220380912303909124030E94DE3820E052
:1053000030E040E052E40E94253A0E94033B8BE6E5
:1053100096E00E941E2366E071E08BE696E00E9414
:10532000900940911C0350911D0360911E037091E0
:105330001F0322E08BE696E00E947E2381E091E04D
:105340000E944B2283E292E09A83898380916903D1
:1053500090916A03A0916B03B0916C038B839C8343
:10536000AD83BE8341EF53EBBE016F5F7F4F8CE493
:1053700093E00E94420840912103509122036091E2
:1053800023037091240322E08CE493E00E947E23A7
:105390006BEF70E08CE493E00E94900926E636E61D
:1053A00046EE5FE360912103709122038091230315
:1053B000909124030E94DE3820E030E040E052E487
:1053C0000E94253A0E94033B8CE493E00E941E2336
:1053D00065EF70E08CE493E00E94900940911C031B
:1053E00050911D0360911E0370911F0322E08CE415
:1053F00093E00E947E2360EF70E08CE493E00E94D3
:1054000090098CE493E00E94011D0E94880E685769
:105410007C4E8F4F9F4F6093090370930A038093D4
:105420000B0390930C030E94801429873A874B87C3
:105430005C876D877E878F873111B5C00E9480148D
:105440002DA33EA34FA358A769A77AA78BA7211125
:10545000CEC030E020E04CE153E061E273E08DE04B
:1054600093E00E9454066091210370912203809181
:105470002303909124030E94033B7A836983609104
:105480001C0370911D0380911E0390911F030E94C5
:10549000033B6B830E9480142CA73DA74EA75FA7F8
:1054A00068AB79AB8AAB4C830E9480142BAB3CABCE
:1054B0004DAB5EAB6FAB78AF89AF3D830E9480147C
:1054C0002AAF3BAF4CAF5DAF6EAF7FAF21968FAFD2
:1054D00021978E830E94801422962FAF22972396C5
:1054E0003FAF239724964FAF249725965FAF25971C
:1054F00026966FAF269727967FAF279728968FAF70
:1055000028977F830E94801429962FAF29972A9687
:105510003FAF2A972B964FAF2B972C965FAF2C97C8
:105520002D966FAF2D972E967FAF2E972F968FAF1C
:105530002F976887E0903203F090330387010F5F65
:105540001F4FCE0101966C0199E0E90EF11C6196A6
:105550001FAF0EAF6197D601BD906D01CE01815B8B
:105560009F4F0E94F421B81621F06B2DC8010E94B4
:10557000023A0F5F1F4FE016F10649F760913203C0
:1055800070913303685F7F4F7093330360933203EE
:105590008CE090E00E94023A6CE474E080E090E0DD
:1055A0000E94560E24C00E948014288B398B4A8B8F
:1055B0005B8B6C8B7D8B8E8B3F3009F43FCF0E94D1
:1055C00080142F8B388F498F5A8F6B8F7C8F8D8FE4
:1055D0003E3109F433CF0E9480142E8F3F8F48A3B1
:1055E00059A36AA37BA38CA33D3209F427CF0E9461
:1055F00001130E9448130E9404160E949115809185
:10560000100190911101059709F06DC00E942314BB
:105610008C010E94880EC0901803D0901903E0906E
:105620001A03F0901B03C616D706E806F906B8F46D
:10563000012B09F43EC10E94231490931805809316
:1056400017050E94880E6C507E4F8F4F9F4F6093BE
:1056500018037093190380931A0390931B0300910E
:105660001705109118050530110509F029C10E9490
:10567000B00D64E271E080EE95E00E9490094091E7
:10568000210350912203609123037091240322E0AF
:1056900080EE95E00E947E236FE171E080EE95E060
:1056A0000E94900961E080E00E94810D67E171E055
:1056B00080EE95E00E94900940911C0350911D03DB
:1056C00060911E0370911F0322E080EE95E00E941E
:1056D0007E2362E171E080EE95E00E9490091092D5
:1056E00018051092170580911001909111010197F2
:1056F00089F40E9448148091B1049091B2048130E1
:10570000910509F0B4C18CE10E94700D1092B204B1
:105710001092B1048091100190911101029789F4C7
:105720000E9448148091B1049091B2048130910597
:1057300009F0ABC18CE10E94700D1092B20410927E
:10574000B1048091100190911101039781F50E949D
:1057500048148091B1049091B2048430910519F1FC
:105760008230910501F18130910509F09CC186E0FC
:1057700090E090931101809310010E94B00D64E8B5
:1057800072E080EE95E00E94602461E080E00E947B
:10579000810D62E972E080EE95E00E946024109233
:1057A0001805109217051092B2041092B10480915E
:1057B0001001909111010697D1F40E944814809134
:1057C000B1049091B2048430910509F07CC10E942B
:1057D0001E2285E090E09093110180931001909338
:1057E0001805809317051092B2041092B1046296C6
:1057F0001FAE62970E94880E6093AD047093AE0452
:105800008093AF049093B0048091AC04882331F06E
:105810008DE062968FAF62971092AC04E091AD0577
:10582000E353E53008F458C11092BE0580E8809338
:10583000BF051092C0050E94940E8BE696E00E9470
:10584000DA085C01892B09F451C28BE696E00E94CC
:10585000B8080E94153A62968FAF6297BE016F5AE0
:105860007F4F8EE894E00E948D0362968FAD629721
:105870008F3709F033C263EA72E08BE696E00E944C
:10588000602468EA72E08BE696E00E94602463EA96
:1058900072E08BE696E00E94602480E0E82FF0E062
:1058A000DF01A257BB4F9C91992309F40DC28F5F72
:1058B000F5CF0E94880E6C597F4F8F4F9F4FC7CEF8
:1058C0000130110509F0ACC00E94B00DF12C0DE0C3
:1058D00010E08091320390913303081719070CF000
:1058E00094C01A830983CE0101960E94F421C82E28
:1058F000C801019661969FAF8EAF6197CE01815B23
:105900009F4F0E94F421D82E60E08F2D0E94810DC0
:10591000B60180EE95E00E941E2361E371E080EE07
:1059200095E00E949009C80102969A838983CE016E
:1059300001960E94F421682F70E080EE95E00E94AD
:105940001E236BE271E080EE95E00E94900961E019
:105950008F2D0E94810DC80106969A838983CE01FE
:1059600001960E94F421682F80EE95E00E942A2380
:105970006FE280EE95E00E948909C80107969A833C
:105980008983CE0101960E94F421682F80EE95E074
:105990000E942A236FE280EE95E00E948909C801E7
:1059A00005969A838983CE0101960E94F421682F7F
:1059B00080EE95E00E942A2360E280EE95E00E944E
:1059C0008909C80103969A838983CE0101960E94B2
:1059D000F421682F80EE95E00E942A236AE380EE8E
:1059E00095E00E948909C80104969A838983CE01B3
:1059F00001960E94F421682F80EE95E00E942A23F0
:105A0000085F1F4FBEE0FB0E64CF10921805109286
:105A1000170581E090E0909311018093100163CE0F
:105A20000230110589F40E94B00D63EB74E080EE42
:105A300095E00E94602410921805109217051093AB
:105A40001101009310014FCE0330110509F062CE11
:105A50000E94B00D66E572E080EE95E00E94602441
:105A600061E080E00E94810D6AE672E0E0CF843060
:105A7000910511F488E148CE8530910509F046CEB4
:105A8000909311018093100141CE8430910511F45F
:105A900088E151CE8530910509F04FCE90931101E8
:105AA000809310014ACE8330910521F488E10E9451
:105AB000700D79CE8530910509F075CE9093110166
:105AC0008093100170CE8530910509F08CCE9093B3
:105AD00011018093100187CEF0E0E258FE4F8081E3
