:100000000C94C5010C94ED010C94ED010C94ED01E0
:100010000C94ED010C94ED010C94ED010C94ED01A8
:100020000C94ED010C94ED010C94ED010C94ED0198
:100030000C94ED010C94ED010C94ED010C94ED0188
:100040000C9462140C94ED010C9430140C940A146A
:100050000C94ED010C94ED010C94ED010C94ED0168
:100060000C94EB120C94ED012A494E56414C494434
:1000700020434F4D4D414E44000000000024002716
:10008000002A0000000000250028002B00000000CE
:100090000800020100000304070000000000000047
:1000A000003E57656C636F6D6520746F204172640C
:1000B00075696E6F20436F6D6D616E64204C696E63
:1000C0006520496E7465727072657465722C206566
:1000D0006E746572202748454C502720666F722049
:1000E0006C697374206F6620636F6D6D616E6473ED
:1000F000210A004F4646004F464600475245454EAE
:10010000004F46460052454400475245454E005276
:10011000454400424C494E4B494E4720003E204C3E
:10012000454420004F4646004F4E00424C494E4B3E
:10013000494E47003E204431332000323000456EA6
:1001400074657265642054696D657374616D703A8D
:100150002000456E74657220446179204F662057F7
:1001600065656B2028312064696769742C20312D06
:10017000372C206172626974726172696C79203106
:10018000203D204D6F6E2C2037203D2053756E2969
:100190003A2000456E746572205365636F6E64206B
:1001A0002832206469676974732C2030302D35390A
:1001B000293A2000456E746572204D696E7574652C
:1001C000202832206469676974732C2030302D3503
:1001D00039293A2000456E74657220486F75722087
:1001E0002832206469676974732C20323420686F68
:1001F000757220636C6F636B2C2030302D32332985
:100200003A2000456E74657220596561722028326B
:10021000206469676974732C2030302D3939293A8C
:100220002000456E746572204D6F6E746820283210
:10023000206469676974732C2030312D3132293A7A
:100240002000456E74657220446179206F66204DF0
:100250006F6E7468202832206469676974732C207B
:1002600030312D3331293A2000436C6F636B2069A4
:100270007320736574207768656E20616C6C2064F0
:1002800061746120697320656E74657265642061B4
:100290006E6420796F752073656E6420275927205E
:1002A000746F20636F6E6669726D2E00566572738F
:1002B000696F6E3A20003E48454C50003E5645520C
:1002C00053494F4E003E535441545553204C4544DE
:1002D00053003E53455420424C494E4B203C6E75D2
:1002E0006D6265723E003E4C454420414C5445527F
:1002F0004E415445003E4C454420424C494E4B0033
:100300003E4C4544204F4646003E4C454420524515
:1003100044003E4C454420475245454E003E443142
:100320003320424C494E4B003E443133204F464629
:10033000003E443133204F4E0054686520617661A1
:10034000696C61626C6520636F6D6D616E647320B2
:100350006172653A200004040404040404040202E7
:100360000202020203030303030301020408102034
:10037000408001020408102001020408102000003F
:1003800000002300260029001D1511241FBECFEFF9
:10039000D8E0DEBFCDBF25E0A4E6B2E001C01D92EB
:1003A000AB31B207E1F712E0A0E0B1E0E6EAF2E437
:1003B00002C005900D92A436B107D9F711E0C5EC43
:1003C000D1E004C02197FE010E943021C43CD10736
:1003D000C9F70E9425150C94041F0C940000E091AD
:1003E0009D04F0919E040190F081E02D682F8DE92D
:1003F00094E0099481E092E09093E4038093E30316
:100400000895089589E092E09093E2038093E103D8
:10041000089508952091BE03260F3327331F2132FC
:100420003105ECF420911305FC0190E080E02430CC
:1004300069F082E00895A091BE032191AC0142567B
:100440005C4FA40FB52FB11D2C930196861798F31E
:100450008091BE03680F6093BE0380E0089581E041
:1004600008950895E0919C0480919B04E81730F46E
:10047000F0E0ED50FB4F808190E008958FEF9FEF0B
:10048000089590919C0480919B042FEF3FEF981763
:1004900048F4E92FF0E0ED50FB4F208130E09F5F02
:1004A00090939C04C901089580919B0490919C04B1
:1004B000891B990B0895CF92DF92EF92FF920F93D1
:1004C0001F93CF93DF937C01CB018A012091A90474
:1004D000222389F0EB016B01C40ED51ECC15DD057E
:1004E00069F06991D701ED91FC910190F081E02DC7
:1004F000C7010995F3CF642F0E940A02C801DF915A
:10050000CF911F910F91FF90EF90DF90CF900895C2
:10051000CF93DF931F92CDB7DEB769832091A904F3
:100520002223F9F02091AC04203258F021E030E091
:10053000FC013383228390E080E00F90DF91CF9124
:1005400008958091AA04E82FF0E0E355FB4F9981CC
:1005500090838F5F8093AA048093AC0481E090E045
:10056000ECCF61E0CE0101960E940A02F7CF6AE06B
:100570000E94F120292F30E1839FC0011124822B9A
:100580000895982F92959F708F702AE0929F800D0A
:1005900011240895CF92DF92EF92FF920F931F9351
:1005A000CF93DF93EC017A016901E881F981019031
:1005B000F081E02D0995E881F9810084F185E02D35
:1005C0009801A601B701CE01DF91CF911F910F9144
:1005D000FF90EF90DF90CF9009946F927F928F926F
:1005E0009F92AF92BF92CF92DF92EF92FF920F93C2
:1005F0001F93CF93DF93CDB7DEB7AC970FB6F894C8
:10060000DEBF0FBECDBFDC011696ED91FC91319699
:1006100009F48BC059013A016B018C01FE0131963E
:100620004F0188E2DF011D928A95E9F7D801ED912B
:10063000FC910488F589E02DB401C80109957C017D
:10064000892B09F05CC01AA619A61CA61BA6D80106
:10065000ED91FC910688F789E02D9E01255D3F4FC5
:10066000AE01475D5F4FB401C80109957C01892B3C
:1006700009F045C0A114B10439F088E2F401D501B4
:1006800001900D928A95E1F7C114D10409F189A571
:100690009AA521E030E097FF02C02FEF3FEF9F7750
:1006A000829FB001839F700D929F700D1124072EC1
:1006B000000C880B990B0E941D1F20E030E040E2E7
:1006C00051E40E944920F601608371838283938301
:1006D00061147104A1F06BA57CA5072E000C880B9A
:1006E000990B0E941D1F20E030E040E251E40E947F
:1006F0004920D3016D937D938D939C931397C701EC
:10070000AC960FB6F894DEBF0FBECDBFDF91CF9190
:100710001F910F91FF90EF90DF90CF90BF90AF901F
:100720009F908F907F906F90089587E1E82EF12C35
:10073000E6CF8F929F92AF92BF92CF92DF92EF92CD
:10074000FF920F931F93CF93DF93EC018B016A010C
:100750007901E881F9810288F389E02D0995B82EA5
:10076000B801685F7F4FE881F9810288F389E02D45
:10077000CE010995982EB801605F7F4FE881F9811D
:100780000288F389E02DCE010995A82EB801685E94
:100790007F4FE881F9810288F389E02DCE01099528
:1007A000882EB801605E7F4FE881F9810288F38965
:1007B000E02DCE0109959B2D990D9A0D980D891369
:1007C00019C09A2D882DF601918380839B2D892D48
:1007D000F7019183808390E080E0DF91CF911F91BA
:1007E0000F91FF90EF90DF90CF90BF90AF909F90D0
:1007F0008F90089585E190E0F0CF47E050E080E0F1
:10080000FB012191BF01042E01C0220F0A94EAF7D7
:10081000820F41505109A0F70895FC01828590E0B4
:100820000895FC01818590E00895CF92DF92EF92C8
:10083000FF920F931F93CF93DF93EC017A0169012D
:10084000E881F9810190F081E02D0995E881F98135
:100850000480F581E02D9801A601B701CE01DF915A
:10086000CF911F910F91FF90EF90DF90CF9009945F
:10087000CF92DF92EF92FF920F931F93CF93DF936C
:10088000CDB7DEB728970FB6F894DEBF0FBECDBF49
:10089000DC011696ED91FC91319609F440C08A0175
:1008A0007B0119821A821B821C821D821E821F827A
:1008B0001886DC01ED91FC910084F185E02DAE01FC
:1008C0004B5F5F4FBE016F5F7F4F09956C01892BB6
:1008D000B1F4E114F10441F069817A818B819C814A
:1008E0000E94BB20F70160830115110541F06D8165
:1008F0007E818F8198850E94BB20D8016C93C601B0
:1009000028960FB6F894DEBF0FBECDBFDF91CF9112
:100910001F910F91FF90EF90DF90CF90089587E1A6
:10092000C82ED12CECCF262F2D7F29F4FC01608717
:1009300090E080E0089588E190E00895DC0117964A
:100940007C936E931697FB01E659FC4FE491199640
:10095000EC9319976A5A7C4FFB0164911A966C9339
:100960000895FC01538D448D252F30E0842F90E0B5
:10097000821B930B541710F0CF960895019708959A
:10098000FC01918D828D981761F0A28DAE0FBF2F63
:10099000B11D5D968C91928D9F5F9F73928F90E0B9
:1009A00008958FEF9FEF0895FC01918D828D981728
:1009B00031F0828DE80FF11D858D90E008958FEF65
:1009C0009FEF0895FC01918D228D892F90E0805C2E
:1009D0009F4F821B91098F7399270895FC01A48D65
:1009E000A80FB92FB11DA35ABF4F2C91848D90E051
:1009F00001968F739927848FA689B7892C93A08934
:100A0000B1898C91837080648C93938D848D9813BD
:100A100006C00288F389E02D80818F7D8083089550
:100A2000EF92FF920F931F93CF93DF93EC0181E03E
:100A3000888F9B8D8C8D98131AC0E889F9898081E5
:100A400085FF15C09FB7F894EE89FF896083E88918
:100A5000F98980818370806480839FBF81E090E00A
:100A6000DF91CF911F910F91FF90EF900895F62E97
:100A70000B8D10E00F5F1F4F0F731127E02E8C8D31
:100A80008E110CC00FB607FCFACFE889F989808176
:100A900085FFF5CFCE010E94EE04F1CFEB8DEC0F78
:100AA000FD2FF11DE35AFF4FF0829FB7F8940B8F93
:100AB000EA89FB8980818062CFCFCF93DF93EC01FD
:100AC000888D8823B9F0AA89BB89E889F9898C9136
:100AD00085FD03C0808186FD0DC00FB607FCF7CFF2
:100AE0008C9185FFF2CF808185FFEDCFCE010E94F2
:100AF000EE04E9CFDF91CF91089585EE93E00E9457
:100B0000E20421E0892B09F420E0822F089580E09F
:100B100090E0892B29F00E947D0581110C94000042
:100B20000895DC01ED91FC910190F081E02D099494
:100B3000EF92FF920F931F93CF93DF938C017B0172
:100B4000D0E0C0E0F701EC0FFD1F6491662361F077
:100B5000D801ED91FC910190F081E02DC80109953B
:100B6000892B11F02196EECFCE01DF91CF911F910D
:100B70000F91FF90EF900895AF92BF92CF92DF92C6
:100B8000EF92FF920F931F93CF93DF936C017B0142
:100B90008B01040F151FEB015E01AE18BF08C017D3
:100BA000D10759F06991D601ED91FC910190F08146
:100BB000E02DC6010995892B79F7C501DF91CF9109
:100BC0001F910F91FF90EF90DF90CF90BF90AF906B
:100BD000089590E080E0089590E0FC01E357FF4F16
:100BE0002491FC01E659FC4F3491FC01EA5AFC4F78
:100BF000E491EE23C9F0222339F0233001F1A8F467
:100C0000213019F1223029F1F0E0EE0FFF1FED57EE
:100C1000FF4FA591B4918FB7F894EC91611126C064
:100C200030953E233C938FBF08952730A9F028309C
:100C3000C9F0243049F7809180008F7D03C08091F6
:100C400080008F7780938000DFCF84B58F7784BD5D
:100C5000DBCF84B58F7DFBCF8091B0008F77809301
:100C6000B000D2CF8091B0008F7DF9CF3E2BDACF8C
:100C70001092130581E08093F2041092ED0461E07C
:100C800082E10E94EC0561E083E10E94EC05E9EB62
:100C9000F0E080818E7F808380818D7F808388E4F7
:100CA0008093B80085E48093BC000895CF93DF93D0
:100CB00091E090939D038823B9F0C091B800D09142
:100CC000BA008091BC008A7B8093BC0060E082E126
:100CD0000E94EC0560E083E10E94EC050E9438066A
:100CE000D093BA00C093B800DF91CF910895CF930D
:100CF000DF9390E0FC01E659FC4F24918A5A9C4F07
:100D0000FC0184918823C9F090E0880F991FFC01B1
:100D1000E758FF4FA591B491FC01ED57FF4FC591E6
:100D2000D49161110DC09FB7F8948C9120958223C6
:100D30008C938881282328839FBFDF91CF910895CA
:100D4000623051F49FB7F8943C91822F80958323B1
:100D50008C93E8812E2BEFCF8FB7F894EC912E2B4C
:100D60002C938FBFEACF1F93CF93DF93182FEB0104
:100D700061E00E947706209739F460E0812FDF91CF
:100D8000CF911F910C94EC05CF3FD10511F461E098
:100D9000F5CFE12FF0E0E357FF4FE491E33031F17D
:100DA00040F4E130B1F0E230E1F0C038D1057CF739
:100DB000E4CFE73029F1E83059F1E430B1F7809120
:100DC0008000806280938000D0938B00C0938A0063
:100DD00004C084B5806884BDC7BDDF91CF911F91E9
:100DE000089584B5806284BDC8BDF7CF809180002E
:100DF000806880938000D0938900C0938800EDCFF5
:100E00008091B00080688093B000C093B300E5CFBC
:100E10008091B00080628093B000C093B400DDCFB9
:100E2000789484B5826084BD84B5816084BD85B5C5
:100E3000826085BD85B5816085BDEEE6F0E080818C
:100E400081608083E1E8F0E01082808182608083AD
:100E5000808181608083E0E8F0E080818160808330
:100E6000E1EBF0E0808184608083E0EBF0E0808162
:100E700081608083EAE7F0E0808184608083808104
:100E800082608083808181608083808180688083AC
:100E90001092C10008958130910539F0880F991F93
:100EA000880F991F05970197F1F708953FB7F894B8
:100EB00080917C0290917D02A0917E02B0917F0290
:100EC00026B5A89B05C02F3F19F00196A11DB11DA5
:100ED0003FBFBA2FA92F982F8827BC01CD01620FE1
:100EE000711D811D911D42E0660F771F881F991F9C
:100EF0004A95D1F70895CF92DF92EF92FF920F9328
:100F00001F93CF93C82F813208F096C00E945607D6
:100F10006B017C0180911305811169C081E0809390
:100F200013058093F2049FEF9093F1041092F00464
:100F30009C0F9093EF048093EE048091EE04806DFB
:100F40008093EE048091ED04813009F077C0109217
:100F5000ED040E9456076B017C018091EE048093A2
:100F6000BB008091150590911605A0911705B091D1
:100F70001805892B8A2B8B2BA1F00E945607009114
:100F800015051091160520911705309118056C195B
:100F90007D098E099F09061717072807390708F4E6
:100FA00047C08091BC0083FDD8CF85EC8093BC0006
:100FB0000E9456076B017C0180911305813009F472
:100FC0003FC08091F0048C1710F4C091F004ADEC98
:100FD000B4E0E3EFF4E080E08C1354C08C2FCF91A9
:100FE0001F910F91FF90EF90DF90CF900895809127
:100FF000150590911605A0911705B0911805892B3C
:101000008A2B8B2B09F486CF0E9456070091150579
:101010001091160520911705309118056C197D095E
:101020008E099F09061717072807390708F072CF9E
:10103000809114050E945606C0E0D0CF85EEB6CF51
:101040008091150590911605A0911705B09118058E
:10105000892B8A2B8B2B09F4AFCF0E945607009166
:1010600015051091160520911705309118056C197A
:101070007D098E099F09061717072807390708F009
:101080009BCFD6CF9D9191938F5FA6CF8F929F924A
:10109000AF92BF92CF92DF92EF92FF920F931F9386
:1010A000CF93DF93613208F0D1C0142FD62FC82F11
:1010B0000E9456076B017C018091130581116BC062
:1010C00082E0809313051093F2048FEF8093F10474
:1010D0001092F004D093EF04ADEAB4E0EDECF4E04C
:1010E00080E0D8138BC01092EE048091EE04CC0FF8
:1010F000C82BC093EE048091ED04813009F082C0CA
:101100001092ED040E9456076B017C018091EE0461
:101110008093BB008091150590911605A09117054D
:10112000B0911805892B8A2B8B2BA1F00E945607B2
:10113000009115051091160520911705309118059D
:101140006C197D098E099F090617170728073907AB
:1011500008F442C08091BC0083FDD8CF85EC809319
:10116000BC000E9456076B017C0180911305823000
:1011700009F44AC08091F1048F3F09F469C080915D
:10118000F104803209F466C08091F104803309F4DF
:1011900063C084E026C08091150590911605A0914A
:1011A0001705B0911805892B8A2B8B2B09F484CF56
:1011B0000E9456078090150590901605A09017057F
:1011C000B09018056C197D098E099F09861697063F
:1011D000A806B90608F070CF809114050E94560643
:1011E00085E0DF91CF911F910F91FF90EF90DF90FD
:1011F000CF90BF90AF909F908F9008959D919193C5
:101200008F5F6FCF85EEABCF80911505909116055E
:10121000A0911705B0911805892B8A2B8B2B09F407
:10122000A4CF0E9456070091150510911605209134
:101230001705309118056C197D098E099F0906174D
:1012400017072807390708F090CFC6CF81E0C9CF2C
:1012500080E0C7CF82E0C5CF83E0C3CF482F609145
:10126000AC048091AB040E9446081092AA0410922C
:10127000AC041092A9040895CF93C62F91E09093E7
:10128000A90498E69093AB041092AA041092AC04BF
:10129000682F8DE994E00E9488026C2F8DE994E01C
:1012A0000E94880281E0CF910C942E0991E09093E6
:1012B000A90498E69093AB041092AA041092AC048F
:1012C000682F8DE994E00E94880281E00C942E0939
:1012D0007F928F929F92AF92BF92CF92DF92EF92C6
:1012E000FF920F931F93CF93DF93EC01162F7A0198
:1012F00069010E9456074B015C01712C1111798420
:1013000010E000E060E070E0CB012A813B814C817D
:101310005D812617370748075907F4F001151105B5
:1013200061F5C7011E141F0464F10E945607681975
:1013300079098A099B09EA85F0E0EE0FFF1FE25860
:10134000FC4FA591B4912C910F5F1F4F398523233A
:10135000271105C097FFD9CF6FEF7FEFCB01DF914A
:10136000CF911F910F91FF90EF90DF90CF90BF90A2
:10137000AF909F908F907F9008951C141D04ACF641
:10138000C6010E944B07D1CF2FB7F8946091780225
:101390007091790280917A0290917B022FBF08951B
:1013A0004F925F926F927F929F92AF92BF92CF9235
:1013B000DF92EF92FF920F931F93CF93DF9300D0B2
:1013C0001F92CDB7DEB7D0908E048091910490919A
:1013D0009204A0919304B0919404892B8A2B8B2BB7
:1013E000D9F00E94560700918A0410918B04209135
:1013F0008C0430918D04601B710B820B930B009158
:1014000091041091920420919304309194046017F8
:10141000710782079307C8F20E94560760938A04F7
:1014200070938B0480938C0490938D04E0919904C5
:10143000F0919A04309759F0409195045091960498
:1014400060919704709198048D2D0995D82EE090A5
:101450008804F09089044D2C512C712C612CE114DE
:10146000F10409F459C0D7011C96CC901C978091C7
:101470008F04909190048436910510F41C961C9270
:10148000D701ED91FC91A280B38019821A821B8250
:10149000DD2079F1F701369610E000E0219122235A
:1014A00019F19280992001F130E050E040E02F5F87
:1014B0003F4F4F4F5F4FC301B2010E94A91F9B01D5
:1014C000AC01892D90E0B0E0A0E0BC01CD016F5FE0
:1014D0007F4F8F4F9F4F0E94A91FA1E0B0E0AC0F3C
:1014E000BD1FA00FB11F8C930F5F1F4F033011055D
:1014F000A9F609811A812B81F701458556856281FC
:101500007381C701F5010995D7011C96CC921C97F0
:101510001496ED90FC90A3CF80918604909187045F
:101520008C010F5F1F4F1093870400938604499727
:10153000B4F10E94C409C0908204D0908304E0906A
:101540008404F09085049B01AC012C193D094E09DF
:101550005F0921F421E030E040E050E088EE93E0C4
:10156000089FB001099F700D189F700D1124072E60
:10157000000C880B990B0E94B91F309390042093A4
:101580008F0410928704109286040E94C40960930D
:1015900082047093830480938404909385040F9055
:1015A0000F900F90DF91CF911F910F91FF90EF90CF
:1015B000DF90CF90BF90AF909F907F906F905F90A3
:1015C0004F9008958F929F92AF92BF92EF92FF92A9
:1015D0000F931F93CF93DF937B018C01D0E0C0E08A
:1015E0000E94C4096093ED037093EE038093EF03B0
:1015F0009093F003E091E503F091E6030284F38514
:10160000E02D85EE93E0099597FF27C00E94C4095D
:101610008090ED039090EE03A090EF03B090F00364
:10162000681979098A099B098090E9039090EA0377
:10163000A090EB03B090EC03681579058A059B0533
:10164000C8F2CE01DF91CF911F910F91FF90EF90E3
:10165000BF90AF909F908F900895F80181938F0174
:101660002196EC16FD0609F0BBCFEBCF0F931F932D
:10167000CF93DF93209176022F5F322F3770309314
:10168000760220FF2BC020E831FD2064347009F081
:101690002062205FFC01EC01239600E011E06485EC
:1016A000662329F070E0C8010E94FD206F5F61870A
:1016B000322F369F030E30E0311D1124311110C03E
:1016C0001682662311F0615061873196EC17FD0791
:1016D00031F7DF91CF911F910F91089520E0D4CF82
:1016E00031503683EECF4F925F927F928F929F92CE
:1016F000AF92BF92CF92DF92EF92FF920F931F9320
:10170000CF93DF932C01EB010E945607F20127854E
:101710003089621B730B6A307105B0F3F8948A81CB
:101720009B81181619060CF0CDC1E881F9816BB1C7
:10173000862E689487F83BB13F773BB9D9848E8178
:101740002D2D281B822F2E834F85042E000C550B28
:10175000AA81BB817C85FD84EE847F5FF394E39452
:101760009F819884BA84AB841081C12C6C2D0C2D80
:101770002C2D2081112788942111280F08F42FEF98
:101780008195889470FD120F1795889471FD120F42
:101790001795889472FD120F1795889473FD120F98
:1017A0001795889474FD120F1795889475FD120F84
:1017B0001795889476FD120F1795889477FD120F70
:1017C00017958894622F7111612F8D0D162F002CA3
:1017D0008BB800C017FF3BB921816627889400C0F1
:1017E00000C0002C3BB92111290F00C0002C8BB880
:1017F00000C016FF3BB908F42FEF9195889400C004
:1018000000C0002C3BB9F0FC620F00C0002C8BB86C
:1018100000C015FF3BB967958894F1FC620F00C0CA
:1018200000C0002C3BB96795889400C0002C8BB891
:1018300000C014FF3BB9F2FC620F6795889400C0AA
:1018400000C0002C3BB9F3FC620F00C0002C8BB829
:1018500000C013FF3BB967958894F4FC620F00C089
:1018600000C0002C3BB96795889400C0002C8BB851
:1018700000C012FF3BB9F5FC620F6795889400C069
:1018800000C0002C3BB9F6FC620F00C0002C8BB8E6
:1018900000C011FF3BB967958894F7FC620F00C048
:1018A00000C0002C3BB96795889400C0002C8BB811
:1018B00000C010FF3BB9122FF110162F9B0D00C076
:1018C00000C0002C3BB900C000C0002C8BB800C089
:1018D00017FF3BB922816627889400C000C0002C06
:1018E0003BB92111290D00C0002C8BB800C016FF98
:1018F0003BB908F42FEFE40FF51F00C000C0002C27
:101900003BB9E0FC620F00C0002C8BB800C015FF93
:101910003BB967958894E1FC620F00C000C0002CC1
:101920003BB96795889400C0002C8BB800C014FFA9
:101930003BB9E2FC620F6795889400C000C0002CA0
:101940003BB9E3FC620F00C0002C8BB800C013FF52
:101950003BB967958894E4FC620F00C000C0002C7E
:101960003BB96795889400C0002C8BB800C012FF6B
:101970003BB9E5FC620F6795889400C000C0002C5D
:101980003BB9E6FC620F00C0002C8BB800C011FF11
:101990003BB967958894E7FC620F00C000C0002C3B
:1019A0003BB96795889400C0002C8BB800C010FF2D
:1019B0003BB9122FE110162F919400C000C0002CEB
:1019C0003BB99A0C00C000C08BB800C017FF3BB9F0
:1019D00020816627889400C000C0002C3BB92111EB
:1019E000280F00C0002C8BB800C016FF3BB908F4CC
:1019F0002FEF8195889400C000C0002C3BB970FD8A
:101A0000620F00C0002C8BB800C015FF3BB9679572
:101A1000889471FD620F00C000C0002C3BB967952F
:101A2000889400C0002C8BB800C014FF3BB972FD35
:101A3000620F6795889400C000C0002C3BB973FD0D
:101A4000620F00C0002C8BB800C013FF3BB9679534
:101A5000889474FD620F00C000C0002C3BB96795EC
:101A6000889400C0002C8BB800C012FF3BB975FDF4
:101A7000620F6795889400C000C0002C3BB976FDCA
:101A8000620F00C0002C8BB800C011FF3BB96795F6
:101A9000889477FD620F00C000C0002C3BB96795A9
:101AA000889400C0002C8BB800C010FF3BB9122FE7
:101AB0007111162F8D0D00C000C0002C3BB911977D
:101AC00009F086CE4A815B8120EE31E0DA010E9486
:101AD0003621DC01CB01F4E0B695A7959795879563
:101AE000FA95D1F730E020E0B901EAE94E9F040E03
:101AF000611D5E9F600D711D1124650F711D860FA4
:101B0000971FA11DB11D893E43E09407A105B105B2
:101B100008F434C0885E9340A109B10942E0B6954B
:101B2000A795979587954A95D1F747E0849F080E2A
:101B3000211D949F200D311D1124290F311D60910D
:101B4000750270E0860F971F820F931F40917802F5
:101B50005091790260917A0270917B02292F33278C
:101B6000420F531F611D711D4093780250937902FB
:101B700060937A0270937B028093750278940E943E
:101B80005607F201708B6787DF91CF911F910F91FC
:101B9000FF90EF90DF90CF90BF90AF909F908F908D
:101BA0007F905F904F90089580E991E00895579A53
:101BB00008956F927F928F92CF92DF92EF92FF9271
:101BC0000F931F93CF93DF93CDB7DEB762970FB616
:101BD000F894DEBF0FBECDBF6C017A013801822EB2
:101BE000DC011C962C91CA0157FF04C08827992755
:101BF000841B950B7A8369839C838B839E838D835F
:101C00006D867E868F86213049F5CE0101960E9431
:101C1000360B83E0888B1A8A198AF7FE02C08DEF93
:101C2000888BD601ED91FC910484F585E02DBE01F1
:101C30006F5F7F4FC601099562960FB6F894DEBFBD
:101C40000FBECDBFDF91CF911F910F91FF90EF900D
:101C5000DF90CF908F907F906F9008951C861B86A9
:101C60001A86198618861F82D4CFEF92FF920F939F
:101C70001F93CF93DF93CDB7DEB762970FB6F8947B
:101C8000DEBF0FBECDBF7C01DC011C968C917A8338
:101C900069835C834B835E834D830D871E872F870B
:101CA0008130F9F4CE0101960E94360B188A1A8A07
:101CB000198AD701ED91FC910484F585E02DBE01D0
:101CC0006F5F7F4FC701099562960FB6F894DEBF2C
:101CD0000FBECDBFDF91CF911F910F91FF90EF907D
:101CE00008951C861B861A86198618861F82DECFE9
:101CF000E1EBF2E080910801808380910A01818309
:101D00008091060182830C94D0090F931F93CF9387
:101D10000E94C40900917102109172022091730215
:101D200030917402061717072807390720F48091AD
:101D3000B502811104C08091B402882391F1109200
:101D4000B402C091700281E0C827C09370020E9463
:101D5000C409009102011091030120910401309106
:101D60000501DC01CB01800F911FA21FB31F8093DF
:101D7000710290937202A0937302B0937402CC2309
:101D800059F01092B1021092B2021092B302CF91A8
:101D90001F910F910C94D009CF911F910F910C942A
:101DA000780ECF911F910F9108950F931F93CF93AA
:101DB0000E94C4090091640210916502209166029C
:101DC00030916702061717072807390720F480911A
:101DD000BA02811104C08091B602882339F11092B1
:101DE000B602C091A50281E0C827C093A5020E9457
:101DF000C409009102011091030120910401309166
:101E00000501DC01CB01800F911FA21FB31F80933E
:101E1000640290936502A0936602B09367026C2FF0
:101E20008DE0CF911F910F910C94EC05CF911F91F4
:101E30000F91089590E080E00895FC0185859685D6
:101E400008950F931F93CF93DF9300D01F92CDB7C8
:101E5000DEB7AB0119821A821B82DC01ED91FC9185
:101E60000190F081E02D00E010E020E0BE016F5F06
:101E70007F4F09950F900F900F90DF91CF911F9199
:101E80000F910895BF92CF92DF92EF92FF920F933E
:101E90001F93CF93DF9300D000D000D01F92CDB717
:101EA000DEB780E00E94560987E00E947B0710920F
:101EB0009C0480939B048730E1F58DE994E00E94B7
:101EC00041020E94C102B82E8DE994E00E944102B5
:101ED0000E94C102C82E8DE994E00E944102182F91
:101EE00086FF3EC08F710E94C1020CE015FD00E02C
:101EF000080F8DE994E00E9441020E94C102D82E91
:101F00008DE994E00E9441020E94C102E82E8DE911
:101F100094E00E94410210E087FD14E68F770E9452
:101F2000C102F82E8DE994E00E9441020E94C10294
:101F3000180F2B2D3C2D402F5D2DB701812F90E0E8
:101F400027960FB6F894DEBF0FBECDBFDF91CF91BD
:101F50001F910F91FF90EF90DF90CF90BF90089569
:101F60008F730E94C102082FC4CFCF93DF93EB0180
:101F70000E94560981E00E947B0710929C04809386
:101F80009B048DE994E00E944102888381E0DF9107
:101F9000CF910895EF92FF921F93CF93DF931F92FB
:101FA000CDB7DEB77C01162FBE016F5F7F4F8EE08D
:101FB0000E94B50F811108C080E00F90DF91CF9192
:101FC0001F91FF90EF90089581E08093A90488E627
:101FD0008093AB041092AA041092AC04113089F5DE
:101FE00087E090E00E94EF01F70180810E94B70234
:101FF00090E00E94EF01898185608983F7018181EA
:102000000E94B70290E00E94EF01F70182810E94D6
:10201000B70290E00E94EF01F70184810E94B702AD
:1020200090E00E94EF0181E00E942E098111C4CF4F
:1020300069818EE00E943C098111BECF812F87709B
:10204000BCCF8BE090E00E94EF0189818660D5CF04
:102050008FE48093000170E060E08BE00E94B306A3
:1020600070E060E08CE00C94B30682E580930001A0
:10207000809301016FEF70E08CE00E94B30670E086
:1020800060E08BE00C94B30687E4809300018093BA
:1020900001016FEF70E08BE00E94B30670E060E03A
:1020A0008CE00C94B3060F931F930E94C409009117
:1020B0006C0210916D0220916E0230916F02061732
:1020C00017072807390708F05EC08091B9028823F6
:1020D00009F459C0809101018F3419F0823509F05B
:1020E0004AC0909100019F3409F582E58093010177
:1020F000809300010E94C409009102011091030124
:102100002091040130910501DC01CB01800F911F6A
:10211000A21FB31F80936C0290936D02A0936E0276
:10212000B0936F021F910F910C943510823519F501
:10213000923549F587E480930101809300010E9464
:10214000C409009102011091030120910401309112
:102150000501DC01CB01800F911FA21FB31F8093EB
:102160006C0290936D02A0936E02B0936F021F9168
:102170000F910C944410873431F480910001877FD3
:10218000873409F4B2CF1F910F9108950F931F93D5
:102190000E94C409009168021091690220916A02AC
:1021A00030916B02061717072807390720F4809132
:1021B000B802811104C08091B702882361F1909127
:1021C0000101809100019F3411F0923539F58F346F
:1021D00009F045C082E580930101809300010E94CF
:1021E000C409009102011091030120910401309172
:1021F0000501DC01CB01800F911FA21FB31F80934B
:10220000680290936902A0936A02B0936B020E94E5
:1022100035101092B7021F910F9108959734F9F479
:102220008F34E9F4909300010E94C40900910201E7
:10223000109103012091040130910501DC01CB01D3
:10224000800F911FA21FB31F8093680290936902B1
:10225000A0936A02B0936B020E944410DACF8235D9
:1022600011F08734C1F68FE4809300010E94C40905
:1022700000910201109103012091040130910501A8
:10228000DC01CB01800F911FA21FB31F8093680256
:1022900090936902A0936A02B0936B020E94281087
:1022A000B8CF85ED8093BC008091150590911605FF
:1022B000A0911705B09118050796A11DB11D23E047
:1022C000B695A795979587952A95D1F72091BC004B
:1022D00024FD03C0109213050895409115055091F7
:1022E00016056091170570911805452B462B472B55
:1022F00069F30097A105B10541F025E32A95F1F7AF
:1023000000000197A109B109E1CF809114050C9457
:102310005606EF92FF920F931F93CF93DF93EC013A
:102320008B0188E2FB0111928A95E9F761E08E81C9
:102330000E94770660E08E810E94EC0588EE93E0B3
:102340000E944B0761E08E810E94EC0568858E81BA
:102350000E94770688E290E00E944B07E881F981AD
:102360000088F189E02D26E030E04AE050E060E0AE
:10237000CE0109956E317105810591056CF4982F98
:10238000872F762F66276061CB01DF91CF911F9158
:102390000F91FF90EF900895E881F9810088F1890D
:1023A000E02D26E030E04AE050E061E0CE01099502
:1023B0007801F8E2EF0EF11C623371058105910599
:1023C00034F4982F872F762F66276161DDCFE8815F
:1023D000F9810088F189E02D26E030E04AE050E004
:1023E00060E0CE010995683171058105910534F4ED
:1023F000982F872F762F66276261C6CFE881F981F3
:102400000088F189E02D26E030E04AE050E061E00C
:10241000CE0109956B3071058105910534F4982F33
:10242000872F762F66276361AFCF21E06932710570
:10243000810591050CF420E0F80121938F01EE163F
:10244000FF0629F6E881F9810088F189E02D26E070
:1024500030E04AE050E060E0CE0109956831710556
:102460008105910534F4982F872F762F66276461B4
:102470008BCF70E060E088CFFB0101900020E9F78E
:102480003197AF01461B570BDC01ED91FC910280A7
:10249000F381E02D09948F929F92AF92BF92EF92B9
:1024A000FF920F931F93CF93DF93CDB7DEB7A19722
:1024B0000FB6F894DEBF0FBECDBF7C01FA01CB0191
:1024C00019A2223008F42AE08E010F5D1F4F822EE0
:1024D000912CB12CA12CBF01A50194010E94B91F20
:1024E000F901CA016A300CF5605DD8016E938D0167
:1024F000232B242B252B79F790E080E0109721F0F7
:10250000BD01C7010E943C12A1960FB6F894DEBF30
:102510000FBECDBFDF91CF911F910F91FF90EF9034
:10252000BF90AF909F908F900895695CDECFAC0113
:10253000990F660B770B2AE085EE93E00C944B1213
:10254000CF93C82F8A3028F460E385EE93E00E9491
:1025500091054C2F50E070E060E02AE085EE93E0BA
:10256000CF910C944B12BC0185EE93E00C943C127D
:102570006BED71E00C943C12CF93DF93482F50E049
:1025800070E060E02AE085EE93E00E944B12EC01DF
:1025900085EE93E00E94B8128C0F9D1FDF91CF91C2
:1025A00008950F931F93CF93DF93EC010E9498053A
:1025B0008C01CE010E94B812800F911FDF91CF9144
:1025C0001F910F91089568E670E085EE93E00C94FA
:1025D000D1120E942C201F920F920FB60F9211243D
:1025E0002F933F934F935F936F937F938F939F931B
:1025F000AF93BF93EF93FF938091B900887F8036AC
:1026000009F44AC0F0F5883209F4A7C018F5803102
:1026100009F49BC0B8F4882309F4F9C0883009F4A0
:1026200094C0FF91EF91BF91AF919F918F917F9156
:102630006F915F914F913F912F910F900FBE0F902F
:102640001F901895883109F488C0803251F7809323
:10265000F10414C0803409F49DC040F48033B9F310
:102660008833F9F68093F10485ECB0C0803509F425
:1026700085C0883509F496C0883499F60E945111B6
:10268000D0CF883909F48CC038F5883729F050F458
:10269000883611F0803729F683E080931305109275
:1026A000E00357C0883809F47BC0803919F08038BE
:1026B00009F0B7CF8091E003803208F071C0E0915B
:1026C000E00381E08E0F8093E0038091BB00F0E097
:1026D000E054FC4F80833DC0803B39F0E0F4803A09
:1026E00009F479C0883A09F09CCF84E080931305FF
:1026F0001092BF031092BE03E091E103F091E20358
:1027000009958091BE0381110FC081E08093BE03C3
:1027100010929E0309C0803C09F4A6CF883C09F4BE
:10272000A3CF883B09F07DCFE091BF0381E08E0FFE
:102730008093BF03F0E0E256FC4F80818093BB00A2
:102740009091BF038091BE0329C08091EE048093D5
:10275000BB0085EC8093BC0064CF9091F004809125
:10276000EF04981758F5E091F00481E08E0F809304
:10277000F004F0E0E353FB4F8081E9CFE091F004F7
:1027800081E08E0F8093F0048091BB00F0E0E35372
:10279000FB4F80839091F0048091EF049817C8F26A
:1027A00085E8D8CFE091F00481E08E0F8093F004AB
:1027B0008091BB00F0E0E353FB4F80838091F204F3
:1027C00081115CCF81E08093ED0484EA8093BC00AA
:1027D0001092130526CF85EC8093BC001092130550
:1027E0008091E003803230F4E091E003F0E0E054C7
:1027F000FC4F10826091E00370E0E091E303F09100
:10280000E40380EC93E009951092E0030ACF109264
:10281000F10434CF1F920F920FB60F9211242F9311
:102820003F934F935F936F937F938F939F93AF9358
:10283000BF93EF93FF9385EE93E00E94EE04FF9128
:10284000EF91BF91AF919F918F917F916F915F9128
:102850004F913F912F910F900FBE0F901F901895A1
:102860001F920F920FB60F9211242F938F939F9365
:10287000EF93FF93E091F503F091F6038081E091EF
:10288000FB03F091FC0382FD1BC090818091FE034D
:102890008F5F8F732091FF03821741F0E091FE0359
:1028A000F0E0EB51FC4F958F8093FE03FF91EF9189
:1028B0009F918F912F910F900FBE0F901F901895A1
:1028C0008081F4CF1F920F920FB60F9211242F9395
:1028D0003F938F939F93AF93BF9380917802909192
:1028E0007902A0917A02B0917B023091770223E0C5
:1028F000230F2D3758F50196A11DB11D20937702A6
:102900008093780290937902A0937A02B0937B022D
:1029100080917C0290917D02A0917E02B0917F0215
:102920000196A11DB11D80937C0290937D02A0931E
:102930007E02B0937F02BF91AF919F918F913F91A3
:102940002F910F900FBE0F901F90189526E8230F20
:102950000296A11DB11DD2CFEDE9F4E013821282DF
:1029600088EE93E0A0E0B0E084839583A683B783EC
:102970008DEC91E0918380830895EEE8F4E08FEF91
:10298000808312821182148613868FEF9FEFDC0101
:1029900087839087A187B2870895E5EEF3E01382DD
:1029A000128288EE93E0A0E0B0E084839583A68352
:1029B000B78389E491E09183808385EC90E09587EB
:1029C000848784EC90E09787868780EC90E0918BF9
:1029D000808B81EC90E0938B828B82EC90E0958BE6
:1029E000848B86EC90E0978B868B118E128E138EE3
:1029F000148E0895CF93DF93C6EAD2E081E191E08F
:102A00009983888380E291EAA7E0B0E08A839B8380
:102A1000AC83BD838FEF9FEF9F838E83188689875A
:102A20008A8762E070E0CE010E949E048DE291E010
:102A300099838883DF91CF9108950E94AC140E94FE
:102A4000BD140E94CD140C94FA14CF93DF93CDB72C
:102A5000DEB7AD970FB6F894DEBF0FBECDBF0E94B4
:102A6000100761E08DE00E94770661E08CE00E9433
:102A7000770661E08BE00E947706E091F503F09124
:102A8000F60312E01083E091F103F091F20310825B
:102A9000E091F303F091F4038FEC80831092FD0337
:102AA000E091F903F091FA0386E08083E091F70367
:102AB000F091F803808180618083E091F703F091C9
:102AC000F803808188608083E091F703F091F80338
:102AD000808180688083E091F703F091F803808122
:102AE0008F7D808310929C0410929B041092AA0404
:102AF0001092AC040E9438060E9402020E94FA0161
:102B000060E08EE00E943C090E94420F29833A83D4
:102B10004B835C838F838FE18D831E8362E0CE01C4
:102B200001962C010E94CA0F61E0C2010E94CA0FE7
:102B30001DA61886BE01685F7F4F8FE00E94B50F0B
:102B40006885862F837021F06C7F8FE00E943C099E
:102B50008DA5882369F0BE01635D7F4F8EE00E94E2
:102B6000B50F882329F06DA56F778EE00E943C0990
:102B700080919302811145C01092850210928402C7
:102B80008FEF809388028093890280938A028093DA
:102B90008B0280938C0280938D0281E080938E0261
:102BA0001092900210928F02109287021092860269
:102BB0008091880490918904892B31F482E892E015
:102BC0009093890480938804E0918002F0918102BF
:102BD000309721F082E892E09583848382E892E046
:102BE000909381028093800210929202109291023F
:102BF0008BE691E0909383028093820281E0809340
:102C00009302E0918202F09183020480F581E02D2D
:102C100082E892E0099581EB92E09093850280939F
:102C2000840281E090E09093900280938F02E09183
:102C30008202F09183020284F385E02D82E892E023
:102C40000995009701F19C0150E040E060E472E4D6
:102C50008FE090E00E941121809191049091920464
:102C6000A0919304B091940482179307A407B50729
:102C700010F4DA01C9018093910490939204A09317
:102C80009304B09394048EE180938E041092B10269
:102C90001092B2021092B3020E94D00985EE93E026
:102CA0000E94B8128E010F5F1F4F7E0192E0E90E65
:102CB000F11CADE02A2E80910C01882341F061EADD
:102CC00070E085EE93E00E94D11210920C010E94F8
:102CD000C40980909D0290909E02A0909F02B090A7
:102CE000A00286169706A806B906C0F430E020E0D8
:102CF0004BE952E06CE972E086EA92E00E94380407
:102D00000E94C40968577C4E8F4F9F4F60939D026D
:102D100070939E0280939F029093A0020E94C40928
:102D20008090A1029090A202A090A302B090A40271
:102D300086169706A806B906D8F50E94420F2CA35E
:102D40003DA34EA35FA368A779A78AA70E94420F5D
:102D50002D8F3E8F4F8F58A369A37AA38BA30E9418
:102D6000420F2E8B3F8B488F598F6A8F7B8F8C8FB2
:102D70000E94420F2F87388B498B5A8B6B8B7C8B31
:102D80008D8B0E94420F288739874A875B876C8723
:102D90007D878E870E94C40960567444824F9F4F7E
:102DA0006093A1027093A2028093A3029093A40265
:102DB0000E94850E0E94D50E0E94C6100E945310DC
:102DC0001CA60E94C4096093990370939A03809390
:102DD0009B0390939C0385EE93E00E94E204892B71
:102DE000D9F185EE93E00E94C0040E943120D82ED4
:102DF0008CA741E050E0BE01645D7F4F8BE793E01C
:102E00000E943920AFE7DA1221C08EED91E00E94D6
:102E1000B31286E292E00E94B3128EED91E00E941E
:102E2000B3128BE793E0FC0101900020E9F7CF019A
:102E30008C57934059F0FC01E658FC4F20812F3706
:102E400029F4108287589C4FDC011C926CA585EEFA
:102E500093E00E949105BFCF8CA58D3009F083C10E
:102E60008CED91E00E94B312EBE7CE2EE3E0DE2E74
:102E70005601FEE19F2EF50101900020E9F7CF01F8
:102E80008C57934096012B57334028173907C0F5CC
:102E9000D6018D906D01882D082C000C990B0E9495
:102EA000071F892B81F480917903E0917A039E9E1C
:102EB000F0011124EB53FD4FE80FF11D80828F5F6D
:102EC00080937903D8CFF60132978081082E000CC9
:102ED000990B0E94071F892B71F680917A03E0916C
:102EE0007903989E900111242B533D4FE20FF32F4D
:102EF000F11D10828F5F80937A0310927903BBCF0C
:102F00006BEBA62E62E0B62E75EC672E72E0772E84
:102F10006301312C59E7852E51E0952EF601808111
:102F2000D4019C9189136DC0218111969C911197B8
:102F3000291367C001900020E9F73197EC19FD09CA
:102F400012962C911297022E000C330BE217F30706
:102F500009F057C013968C91F50180832FEF2183E0
:102F600084E0880E911CA9ECB1E0A815B905B1F672
:102F70003394BFEFAB1ABB0AEEE1CE0ED11CF6E0E4
:102F80003F12C8CFEBE7F3E08EE1DF011D928A9597
:102F9000E9F78091990390919A03A0919B03B091D6
:102FA0009C034091C1025091C2026091C302709192
:102FB000C402841B950BA60BB70B853F9140A1055E
:102FC000B10508F4ABC0E091BB02E150E33108F079
:102FD000A3C0F0E0E251F84E0C94302156188C1842
:102FE0008C188C1880188C188C18ED1901198C18F5
:102FF000C3196F198C188C188C18B81C8C183E1DAE
:10300000751D082E000C990BC0970A9708F0A8CFE1
:103010008091BB02883009F58091BC02843009F0B0
:103020009FCFEDE0D501EC9350E040E070E060E030
:10303000C6010E94CF1D9B01AB01BC01411551058A
:10304000F1E06F07710508F08BCF5093BE0220931B
:10305000BF022FEF2093C00283CF8231D1F450E022
:1030600040E070E060E0C6010E94CF1D81E03812B0
:1030700008C07093BC026093BD02AFEFA093C00282
:103080006FCF92E03912F9CF7093BE026093BF0206
:10309000F4CF833109F064CF2092BC02C6010E94B4
:1030A000E61EF50181832FEF22835ACF8091BC0267
:1030B000833091F08430D1F0823071F58091BD027F
:1030C0008F3F51F51092BA0281E08093A50261E032
:1030D0008DE00E94EC0522C08091BD028F3FE1F49B
:1030E0001092BA021092A50260E0F2CF8091BD0268
:1030F0008F3F91F481E08093BA020E94D50E0EC0FA
:103100008091BC02863009F44BC0D0F5833009F4BD
:103110005FC0843009F468C00E94E3128091990373
:1031200090919A03A0919B03B0919C038093C1025C
:103130009093C202A093C302B093C40287E09301AC
:10314000215E3F4FF30111922E173F07E1F78150A7
:10315000EEE16E0E711C8111F2CF86E0ABEBB2E0B6
:103160001D928A95E9F7E0E0F0E0EF2B09F4A3CD9A
:103170000E947D05882309F49CCD0E94000099CD12
:103180008730D1F08E3041F68091BD028F3F21F61D
:103190001092B80281E08093B9020E945310BECF12
:1031A0008091BD028F3F09F0B7CF1092B902109203
:1031B000B8020E944410B2CF8091BD028F3F09F047
:1031C000ABCF1092B9021092B8020E943510A6CF70
:1031D0008091BD028F3F09F09FCF1092B9021092EB
:1031E000B8020E9428109ACF8091BD028F3F09F04B
:1031F00093CF1092B90281E08093B8020E94C6106A
:103200008DCF8091BC028A3009F086CF8091BD02BB
:103210008F3F09F081CF64E371E085EE93E00E9477
:1032200098058091BA026BE271E0811108C080912B
:10323000A50268E271E0811102C064E271E085EEEE
:1032400093E00E94D1126DE171E085EE93E00E945F
:1032500098058091B802882341F163E171E085EE21
:1032600093E00E949805809101016FE071E0823542
:1032700011F069E071E085EE93E00E94D11282EED8
:1032800091E00E94B31240910201509103016091BC
:103290000401709105012AE085EE93E00E944B1233
:1032A00085EE93E00E94B81239CF809101018235FA
:1032B00049F48091000165E071E08235E1F261E05E
:1032C00071E0D9CF63EF70E08734A9F680910001F7
:1032D0006BEF70E0873479F267EF70E0CCCF8091CC
:1032E000BC028F3F09F018CF69E373E085EE93E0ED
:1032F0000E94D11261E373E085EE93E00E94D11247
:1033000068E273E085EE93E00E94D1126DE173E014
:1033100085EE93E00E94D11262E173E085EE93E0C6
:103320000E94D11269E073E085EE93E00E94D11211
:1033300060E073E085EE93E00E94D11265EF72E0E9
:1033400085EE93E00E94D11266EE72E085EE93E086
:103350000E94D11262ED72E085EE93E00E94D112DC
:1033600065EC72E085EE93E00E94D1126CEB72E0A6
:1033700085EE93E00E94D11266EB72E085EE93E059
:103380000E94D1128DCF8091BC028F3F09F0C4CE34
:103390006CEA72E085EE93E00E9498052AE041E035
:1033A00050E060E070E085EE93E00E944B126EE228
:1033B00085EE93E00E9491052AE040E050E0BA01DA
:1033C00085EE93E00E944B126EE285EE93E00E9440
:1033D000910580E00E94BC12A1CE8091BC02843095
:1033E00009F449C08F3009F097CE8091BD028F3F1C
:1033F00009F092CE19821A821B8269E672E085EE8C
:1034000093E00E94D11283E0D2011D928A95E9F7E0
:1034100085EE93E00E94B81262E472E085EE93E0DC
:103420000E949805E091E503F091E6030084F185A0
:10343000E02D85EE93E00995892BA1F362E070E021
:10344000C2010E94E20AE091E503F091E6030084E4
:10345000F185E02D85EE93E00995892B09F445C0AF
:10346000E091E503F091E6030284F385E02D85EE1B
:1034700093E00995E8CF8091BD028D3009F04CCEE4
:103480008091C0028F3F09F047CE8091B802882317
:1034900019F081E08093B7028091BA02882319F075
:1034A00081E08093B6028091B502882319F081E013
:1034B0008093B4028091BE0290E0982F8827092E55
:1034C000000CAA0BBB0B2091BF02822B0097F1E0EE
:1034D000AF07B10508F022CE80930201909303015B
:1034E000A0930401B093050119CE89818033D9F1ED
:1034F000C8010E94E61EA82E83E0F80111928A9569
:10350000E9F785EE93E00E94B81262E272E085EE80
:1035100093E00E949805E091E503F091E6030084B2
:10352000F185E02D85EE93E00995892BA1F362E00A
:1035300070E0C8010E94E20AE091E503F091E60321
:103540000084F185E02D85EE93E00995892B69F0E3
:10355000E091E503F091E6030284F385E02D85EE2A
:1035600093E00995E9CFC701C4CF89818033D9F1B0
:10357000C8010E94E61EB82E83E0D8011D928A95EC
:10358000E9F785EE93E00E94B81263E072E085EE01
:1035900093E00E949805E091E503F091E603008432
:1035A000F185E02D85EE93E00995892BA1F362E08A
:1035B00070E0C8010E94E20AE091E503F091E603A1
:1035C0000084F185E02D85EE93E00995892B69F063
:1035D000E091E503F091E6030284F385E02D85EEAA
:1035E00093E00995E9CFC701C4CF89818033D9F130
:1035F000C8010E94E61ED82E83E0F80111928A9538
:10360000E9F785EE93E00E94B81265ED71E085EE72
:1036100093E00E949805E091E503F091E6030084B1
:10362000F185E02D85EE93E00995892BA1F362E009
:1036300070E0C8010E94E20AE091E503F091E60320
:103640000084F185E02D85EE93E00995892B69F0E2
:10365000E091E503F091E6030284F385E02D85EE29
:1036600093E00995E9CFC701C4CF89818033D9F1AF
:10367000C8010E94E61E982E83E0D8011D928A950B
:10368000E9F785EE93E00E94B81264EB71E085EEF5
:1036900093E00E949805E091E503F091E603008431
:1036A000F185E02D85EE93E00995892BA1F362E089
:1036B00070E0C8010E94E20AE091E503F091E603A0
:1036C0000084F185E02D85EE93E00995892B69F062
:1036D000E091E503F091E6030284F385E02D85EEA9
:1036E00093E00995E9CFC701C4CF89818033D9F12F
:1036F000C8010E94E61E882E83E0F80111928A9587
:10370000E9F785EE93E00E94B81263E971E085EE77
:1037100093E00E949805E091E503F091E6030084B0
:10372000F185E02D85EE93E00995892BA1F362E008
:1037300070E0C8010E94E20AE091E503F091E6031F
:103740000084F185E02D85EE93E00995892B69F0E1
:10375000E091E503F091E6030284F385E02D85EE28
:1037600093E00995E9CFC701C4CF89818033D9F1AE
:10377000C8010E94E61E382E83E0D8011D928A956A
:10378000E9F785EE93E00E94B81262E571E085EEFC
:1037900093E00E94D112E091E503F091E6030084EA
:1037A000F185E02D85EE93E00995892BA1F361E089
:1037B00070E0C8010E94E20AE091E503F091E6039F
:1037C0000084F185E02D85EE93E00995892B69F061
:1037D000E091E503F091E6030284F385E02D85EEA8
:1037E00093E00995E9CFC701C4CFC8010E94E61E46
:1037F000C82E85EE93E00E94B8126EE371E085EE6C
:1038000093E00E949805B4E6BD1508F05CC062E341
:1038100085EE93E00E9491058D2D0E94A0126DE22D
:1038200085EE93E00E9491058B2D0E94A0126DE21F
:1038300085EE93E00E9491058A2D0E94A01264E516
:1038400085EE93E00E949105892D0E94A0126AE303
:1038500085EE93E00E949105882D0E94A0126AE3F4
:1038600085EE93E00E949105832D0E94A01285EEC3
:1038700093E00E94B812E091E503F091E603008422
:10388000F185E02D85EE93E00995892BA1F361E0A8
:1038900070E0C8010E94E20AE091E503F091E603BE
:1038A0000084F185E02D85EE93E00995892B91F058
:1038B000E091E503F091E6030284F385E02D85EEC7
:1038C00093E00995E9CF6BE371E085EE93E00E9408
:1038D0009805A2CF81E08093A90488E68093AB0489
:1038E0001092AA041092AC0490E080E00E94EF01D4
:1038F000832D0E94B702682F8DE994E00E94880210
:10390000882D0E94B702682F8DE994E00E948802FA
:10391000892D0E94B702682F8DE994E00E948802E9
:10392000C11002C0CC24C3948C2D0E94B702682F12
:103930008DE994E00E9488028A2D0E94B702682FC8
:103940008DE994E00E9488028B2D0E94B702682FB7
:103950008DE994E00E9488028D2D0E94B702682FA5
:103960008DE994E00E94880281E00E942E09D6CB66
:103970008091BC028F3009F448C0813109F0CECB70
:103980008091BD028F3F09F0C7CB1BA6198230E0A2
:1039900020E0A201BE01655D7F4F86EA92E00E94B1
:1039A00038046C01892BD1F08CEF91E00E94B312A6
:1039B000C60199270E94971284E192E00E94B312F7
:1039C000CD2CDD24A60170E060E02AE085EE93E0D6
:1039D0000E944B1285EE93E00E94B81286E192E0BD
:1039E0000E94B3128BA590E00E94971282E292E0AF
:1039F0000E94B312898190E00E94971268E272E0FF
:103A000085EE93E00E943C124BCC8091BD028F3F2B
:103A100009F082CB0E94420F29833A834B835C8357
:103A20006D837E838F838DE292E00E94B3128B813F
:103A30000E94BC1284E392E00E94B3128A810E9429
:103A4000BC128DE392E00E94B31289810E94BC12E5
:103A500086E492E00E94B3128F810E94BC128DE432
:103A600092E00E94B3128E810E94BC1285E592E022
:103A70000E94B3128D810E94BC1212CC8091C002B0
:103A80008F3F09F049CB8090BC02912C982C882460
:103A9000C401990CAA0BBB0B2091BD02822B809014
:103AA000BE02912C982C8824092C000CAA08BB0873
:103AB0002091BF02822A880E991EAA1EBB1E8BE58A
:103AC00092E00E94B3122AE0B501A401B7FEE4CB54
:103AD0006DE285EE93E00E94910544275527BA01D7
:103AE000481959096A097B09D6CB8091BC028330F9
:103AF00009F442C068F4823009F010CB8091BD0215
:103B00008F3F09F009CB1092B5020E94780E06CBC8
:103B1000843039F18D3009F001CB8091C0028F3FA4
:103B2000D9F52091BD02822F90E090930B018093F4
:103B30000A019091BE02492F50E050930901409331
:103B400008018091BF02482F50E050930701409335
:103B500006012093B2029093B1028093B3020E94B7
:103B6000D0098091BD028F3F09F0D8CA81E08093CF
:103B7000B5020E94850ED2CA8091BD028F3F09F026
:103B8000CBCA1092B5021092B1021092B2021092FA
:103B9000B3020E94D009C2CA0E94E312E2CFB0E091
:103BA000A0E0E5EDFDE10C94E71F5C016B017A01FB
:103BB0006115710519F0FB0191838083E114F10413
:103BC00051F0C7010297839730F040E030E020E0E9
:103BD00090E072C05E01E5012196F5011081812F10
:103BE00090E00E94071F892BA9F71D3201F521964D
:103BF000F501118101E0E114F10409F4DAC0F0E10A
:103C0000EF16F10409F082C0103359F488818F7DDA
:103C1000883509F076C0198122960260F0E1EF2E16
:103C2000F12C812C912CA12C88E0B82E8CC01B3259
:103C300021F4E5012296F501118100E0DCCFEAE0F4
:103C4000EE16F10409F4BBC0F0E1EF16F10409F03F
:103C50006DC0E7CF78E0E72EF12C812C912CA12CC0
:103C600060E1B62E70C03FE9310F3A3128F439EAED
:103C7000332E80C021E09AC0302F3170C114D1049E
:103C800031F0222309F12197F601D183C08327FF68
:103C900021C060E070E080E090E8311104C06FEF77
:103CA0007FEF8FEF9FE722E230E030931A052093F9
:103CB0001905462F372F282F642F732F822FCDB74A
:103CC000DEB7E1E10C94032001FF04C02297F60166
:103CD000D183C083332341F0909580957095619591
:103CE0007F4F8F4F9F4FE5CF97FFE3CF82E290E06A
:103CF00090931A05809319056FEF7FEF8FEF9FE781
:103D0000D8CF10E3E114F10409F4A4CF28E0E216BF
:103D1000F10409F4A2CF0CF092CF812C912CA12CAC
:103D2000E0E4BE2E82E0E816F10469F060E070E0A5
:103D300080E090E897010F2C000C440B550B0E947B
:103D4000B91F49015A0120E060E070E0CB01270172
:103D50000F2C000C66087708FE0150ED352E310E51
:103D600039E0331540F43FEB310F3A3108F07BCFA7
:103D700049EC342E310E3E141F040CF07DCF27FD8C
:103D800015C086169706A806B90678F0A301920119
:103D90000E94A91F630D711D811D911D6130710568
:103DA000810520E8920708F465CF2FEF2196108156
:103DB000D3CF103309F42ACF2AE0E22EF12C9CEC69
:103DC000892E982CA82C9CE0B92EBDCFFC01882709
:103DD0009927E89421912032E9F3293010F02E3010
:103DE000C8F32B3241F02D3239F4689404C00E949C
:103DF000101F820F911D219120532A30C0F31EF411
:103E0000909581959F4F0895F8940C9451219111AC
:103E10000C94181F803219F089508550C8F7089506
:103E20007AE0979F902D879F802D910D1124089502
:103E3000992788270895E89409C097FB3EF4909548
:103E40008095709561957F4F8F4F9F4F9923A9F073
:103E5000F92F96E9BB279395F69587957795679502
:103E6000B795F111F8CFFAF4BB0F11F460FF1BC046
:103E70006F5F7F4F8F4F9F4F16C0882311F096E9D9
:103E800011C0772321F09EE8872F762F05C0662387
:103E900071F096E8862F70E060E02AF09A95660F40
:103EA000771F881FDAF7880F9695879597F90895F9
:103EB00097F99F6780E870E060E008959FEF80ECDD
:103EC000089500240A941616170618060906089580
:103ED00000240A9412161306140605060895092EE6
:103EE0000394000C11F4882352F0BB0F40F4BF2B55
:103EF00011F460FF04C06F5F7F4F8F4F9F4F089595
:103F000057FD9058440F551F59F05F3F71F047958A
:103F1000880F97FB991F61F09F3F79F0879508956F
:103F2000121613061406551FF2CF4695F1DF08C08E
:103F3000161617061806991FF1CF869571056105AB
:103F400008940895E894BB2766277727CB0197F953
:103F50000895DB018F939F930E94DB1FBF91AF9168
:103F6000A29F800D911DA39F900DB29F900D1124D3
:103F70000895A1E21A2EAA1BBB1BFD010DC0AA1FAA
:103F8000BB1FEE1FFF1FA217B307E407F50720F0C2
:103F9000A21BB30BE40BF50B661F771F881F991F3D
:103FA0001A9469F760957095809590959B01AC0186
:103FB000BD01CF0108950E941D20A59F900DB49FC3
:103FC000900DA49F800D911D112408952F923F9272
:103FD0004F925F926F927F928F929F92AF92BF9219
:103FE000CF92DF92EF92FF920F931F93CF93DF93C5
:103FF000CDB7DEB7CA1BDB0B0FB6F894DEBF0FBE22
:10400000CDBF09942A88398848885F846E847D846E
:104010008C849B84AA84B984C884DF80EE80FD8070
:104020000C811B81AA81B981CE0FD11D0FB6F894E6
:10403000DEBF0FBECDBFED010895A29FB001B39FBB
:10404000C001A39F700D811D1124911DB29F700DA1
:10405000811D1124911D089581E090E0F8940C9445
:1040600051219111089581568A5108F48052855842
:104070000895FB01DC010D900020E9F711974150F4
:10408000504028F0019000200D92C9F708951C922D
:1040900008950E945D200C946F1F0E94681F58F0C5
:1040A0000E94611F40F029F45F3F29F00C94581FD3
:1040B00051110C94A31F0C945E1F0E94801F68F383
:1040C0009923B1F3552391F3951B550BBB27AA27D1
:1040D00062177307840738F09F5F5F4F220F331F0B
:1040E000441FAA1FA9F335D00E2E3AF0E0E832D0D3
:1040F00091505040E695001CCAF72BD0FE2F29D0D6
:10410000660F771F881FBB1F261737074807AB07A7
:10411000B0E809F0BB0B802DBF01FF2793585F4F1C
:104120003AF09E3F510578F00C94581F0C94A31F51
:104130005F3FE4F3983ED4F3869577956795B795FE
:10414000F7959F5FC9F7880F911D9695879597F909
:104150000895E1E0660F771F881FBB1F6217730782
:104160008407BA0720F0621B730B840BBA0BEE1F97
:1041700088F7E09508950E94C2206894B1110C94CC
:10418000A31F08950E94881F88F09F5798F0B92FA9
:104190009927B751B0F0E1F0660F771F881F991F7C
:1041A0001AF0BA95C9F714C0B13091F00E94A21F5D
:1041B000B1E008950C94A21F672F782F8827B85F6D
:1041C00039F0B93FCCF3869577956795B395D9F7D4
:1041D0003EF490958095709561957F4F8F4F9F4FDE
:1041E0000895991B79E004C0991F961708F0961B53
:1041F000881F7A95C9F78095089597FB072E16F4C6
:10420000009407D077FD09D00E943D2107FC05D01E
:104210003EF4909581959F4F0895709561957F4FDD
:104220000895052E97FB1EF400940E94282157FD47
:1042300007D00E94B91F07FC03D04EF40C9428212C
:1042400050954095309521953F4F4F4F5F4F0895C2
:1042500090958095709561957F4F8F4F9F4F0895F2
:10426000EE0FFF1F0590F491E02D09940E941D2090
:10427000B7FF0895821B930B0895AA1BBB1B51E146
:1042800007C0AA1FBB1FA617B70710F0A61BB70BC6
:10429000881F991F5A95A9F780959095BC01CD016B
:0642A0000895F894FFCF21
:1042A6004F4FF4010000FF00FF00FF000100000077
:1042B600009E04930438041504E912E91211040D52
:1042C600046809FD03E9129903000000009E0493A7
:1042D6000438041504ED02CA0211040D046809FD30
:1042E6000389119903000000001005BC05B1045DA7
:1042F60005E204C004D40400000000E912E912E952
:1043060012210F1D0F1A0F00000000350ED90DD710
:104316000D210F1D0FD40D730B443103014F4E02B7
:10432600024F460303424C05044C4503054752051C
:10433600065245030753450308535406094C4504E2
:104346000A5645070B4845040C574F040D414C09C6
:104356000E5449040F4355071054450411414403B4
:104366001252470313454F03FF0000000088025B0B
:1043760002E90531025402410232020D0A001B5BBA
:1043860044003E20424C494E4B20494E544552561D
:10439600414C2053455420544F3A200052656164E5
:1043A600204448543232206661696C65642C20656D
:1043B60072723D002C0053616D706C65204F4B3A54
:1043C6002000202A432C20002052482500486F75E3
:1043D600723A20004D696E7574653A200053656324
:1043E6006F6E643A2000596561723A20004D6F6E17
:1043F60074683A20004461793A2000455155414C91
:04440600533A200005
:00000001FF
