:100000000C94C5010C94ED010C94ED010C94ED01E0
:100010000C94ED010C94ED010C94ED010C94ED01A8
:100020000C94ED010C94ED010C94ED010C94ED0198
:100030000C94ED010C94ED010C94ED010C94ED0188
:100040000C9477140C94ED010C9445140C941F142B
:100050000C94ED010C94ED010C94ED010C94ED0168
:100060000C9400130C94ED012A494E56414C49441E
:1000700020434F4D4D414E44000000000024002716
:10008000002A0000000000250028002B00000000CE
:100090000800020100000304070000000000000047
:1000A000003E57656C636F6D6520746F204172640C
:1000B00075696E6F20436F6D6D616E64204C696E63
:1000C0006520496E7465727072657465722C206566
:1000D0006E746572202748454C502720666F722049
:1000E0006C697374206F6620636F6D6D616E6473ED
:1000F000210A004F4646004F464600475245454EAE
:10010000004F46460052454400475245454E005276
:10011000454400424C494E4B494E4720003E204C3E
:10012000454420004F4646004F4E00424C494E4B3E
:10013000494E47003E204431332000323000456EA6
:1001400074657265642054696D657374616D703A8D
:100150002000456E74657220446179204F662057F7
:1001600065656B2028312064696769742C20312D06
:10017000372C206172626974726172696C79203106
:10018000203D204D6F6E2C2037203D2053756E2969
:100190003A2000456E746572205365636F6E64206B
:1001A0002832206469676974732C2030302D35390A
:1001B000293A2000456E746572204D696E7574652C
:1001C000202832206469676974732C2030302D3503
:1001D00039293A2000456E74657220486F75722087
:1001E0002832206469676974732C20323420686F68
:1001F000757220636C6F636B2C2030302D32332985
:100200003A2000456E74657220596561722028326B
:10021000206469676974732C2030302D3939293A8C
:100220002000456E746572204D6F6E746820283210
:10023000206469676974732C2030312D3132293A7A
:100240002000456E74657220446179206F66204DF0
:100250006F6E7468202832206469676974732C207B
:1002600030312D3331293A2000436C6F636B2069A4
:100270007320736574207768656E20616C6C2064F0
:1002800061746120697320656E74657265642061B4
:100290006E6420796F752073656E6420275927205E
:1002A000746F20636F6E6669726D2E00566572738F
:1002B000696F6E3A20003E48454C50003E5645520C
:1002C00053494F4E003E535441545553204C4544DE
:1002D00053003E53455420424C494E4B203C6E75D2
:1002E0006D6265723E003E4C454420414C5445527F
:1002F0004E415445003E4C454420424C494E4B0033
:100300003E4C4544204F4646003E4C454420524515
:1003100044003E4C454420475245454E003E443142
:100320003320424C494E4B003E443133204F464629
:10033000003E443133204F4E0054686520617661A1
:10034000696C61626C6520636F6D6D616E647320B2
:100350006172653A200004040404040404040202E7
:100360000202020203030303030301020408102034
:10037000408001020408102001020408102000003F
:100380000000230026002900321511241FBECFEFE4
:10039000D8E0DEBFCDBF25E0AEEAB2E001C01D92DD
:1003A000A736B207E1F712E0A0E0B1E0ECE0F5E437
:1003B00002C005900D92AE3AB107D9F711E0C5EC35
:1003C000D1E004C02197FE010E946322C43CD10702
:1003D000C9F70E943A150C9421200C940000E0917A
:1003E000D004F091D1040190F081E02D682F80EDD0
:1003F00094E0099481E092E09093300480932F047C
:100400000895089589E092E090932E0480932D043E
:100410000895089520910A04260F3327331F2132AF
:100420003105ECF420914605FC0190E080E0243099
:1004300069F082E00895A0910A042191AC0146512F
:100440005C4FA40FB52FB11D2C930196861798F31E
:1004500080910A04680F60930A0480E0089581E0A7
:1004600008950895E091CF048091CE04E81730F408
:10047000F0E0EA5DFA4F808190E008958FEF9FEF02
:1004800008959091CF048091CE042FEF3FEF9817FD
:1004900048F4E92FF0E0EA5DFA4F208130E09F5FF9
:1004A0009093CF04C90108958091CE049091CF0418
:1004B000891B990B0895CF92DF92EF92FF920F93D1
:1004C0001F93CF93DF937C01CB018A012091DC0441
:1004D000222389F0EB016B01C40ED51ECC15DD057E
:1004E00069F06991D701ED91FC910190F081E02DC7
:1004F000C7010995F3CF642F0E940A02C801DF915A
:10050000CF911F910F91FF90EF90DF90CF900895C2
:10051000CF93DF931F92CDB7DEB769832091DC04C0
:100520002223F9F02091DF04203258F021E030E05E
:10053000FC013383228390E080E00F90DF91CF9124
:1005400008958091DD04E82FF0E0E052FB4F99819F
:1005500090838F5F8093DD048093DF0481E090E0DF
:10056000ECCF61E0CE0101960E940A02F7CF6AE06B
:100570000E942422292F30E1839FC0011124822B65
:100580000895982F92959F708F702AE0929F800D0A
:1005900011240895CF92DF92EF92FF920F931F9351
:1005A000CF93DF93EC017A016901E881F981019031
:1005B000F081E02D0995E881F9810084F185E02D35
:1005C0009801A601B701CE01DF91CF911F910F9144
:1005D000FF90EF90DF90CF9009946F927F928F926F
:1005E0009F92AF92BF92CF92DF92EF92FF920F93C2
:1005F0001F93CF93DF93CDB7DEB7AC970FB6F894C8
:10060000DEBF0FBECDBFDC011696ED91FC91319699
:1006100009F48BC059013A016B018C01FE0131963E
:100620004F0188E2DF011D928A95E9F7D801ED912B
:10063000FC910488F589E02DB401C80109957C017D
:10064000892B09F05CC01AA619A61CA61BA6D80106
:10065000ED91FC910688F789E02D9E01255D3F4FC5
:10066000AE01475D5F4FB401C80109957C01892B3C
:1006700009F045C0A114B10439F088E2F401D501B4
:1006800001900D928A95E1F7C114D10409F189A571
:100690009AA521E030E097FF02C02FEF3FEF9F7750
:1006A000829FB001839F700D929F700D1124072EC1
:1006B000000C880B990B0E943A2020E030E040E2C9
:1006C00051E40E947C21F6016083718382839383CD
:1006D00061147104A1F06BA57CA5072E000C880B9A
:1006E000990B0E943A2020E030E040E251E40E9461
:1006F0007C21D3016D937D938D939C931397C701B8
:10070000AC960FB6F894DEBF0FBECDBFDF91CF9190
:100710001F910F91FF90EF90DF90CF90BF90AF901F
:100720009F908F907F906F90089587E1E82EF12C35
:10073000E6CF8F929F92AF92BF92CF92DF92EF92CD
:10074000FF920F931F93CF93DF93EC018B016A010C
:100750007901E881F9810288F389E02D0995B82EA5
:10076000B801685F7F4FE881F9810288F389E02D45
:10077000CE010995982EB801605F7F4FE881F9811D
:100780000288F389E02DCE010995A82EB801685E94
:100790007F4FE881F9810288F389E02DCE01099528
:1007A000882EB801605E7F4FE881F9810288F38965
:1007B000E02DCE0109959B2D990D9A0D980D891369
:1007C00019C09A2D882DF601918380839B2D892D48
:1007D000F7019183808390E080E0DF91CF911F91BA
:1007E0000F91FF90EF90DF90CF90BF90AF909F90D0
:1007F0008F90089585E190E0F0CF47E050E080E0F1
:10080000FB012191BF01042E01C0220F0A94EAF7D7
:10081000820F41505109A0F70895FC01828590E0B4
:100820000895FC01818590E00895CF92DF92EF92C8
:10083000FF920F931F93CF93DF93EC017A0169012D
:10084000E881F9810190F081E02D0995E881F98135
:100850000480F581E02D9801A601B701CE01DF915A
:10086000CF911F910F91FF90EF90DF90CF9009945F
:10087000CF92DF92EF92FF920F931F93CF93DF936C
:10088000CDB7DEB728970FB6F894DEBF0FBECDBF49
:10089000DC011696ED91FC91319609F440C08A0175
:1008A0007B0119821A821B821C821D821E821F827A
:1008B0001886DC01ED91FC910084F185E02DAE01FC
:1008C0004B5F5F4FBE016F5F7F4F09956C01892BB6
:1008D000B1F4E114F10441F069817A818B819C814A
:1008E0000E94EE21F70160830115110541F06D8131
:1008F0007E818F8198850E94EE21D8016C93C6017C
:1009000028960FB6F894DEBF0FBECDBFDF91CF9112
:100910001F910F91FF90EF90DF90CF90089587E1A6
:10092000C82ED12CECCF262F2D7F29F4FC01608717
:1009300090E080E0089588E190E00895DC0117964A
:100940007C936E931697FB01E659FC4FE491199640
:10095000EC9319976A5A7C4FFB0164911A966C9339
:100960000895FC01538D448D252F30E0842F90E0B5
:10097000821B930B541710F0CF960895019708959A
:10098000FC01918D828D981761F0A28DAE0FBF2F63
:10099000B11D5D968C91928D9F5F9F73928F90E0B9
:1009A00008958FEF9FEF0895FC01918D828D981728
:1009B00031F0828DE80FF11D858D90E008958FEF65
:1009C0009FEF0895FC01918D228D892F90E0805C2E
:1009D0009F4F821B91098F7399270895FC01A48D65
:1009E000A80FB92FB11DA35ABF4F2C91848D90E051
:1009F00001968F739927848FA689B7892C93A08934
:100A0000B1898C91837080648C93938D848D9813BD
:100A100006C00288F389E02D80818F7D8083089550
:100A2000EF92FF920F931F93CF93DF93EC0181E03E
:100A3000888F9B8D8C8D98131AC0E889F9898081E5
:100A400085FF15C09FB7F894EE89FF896083E88918
:100A5000F98980818370806480839FBF81E090E00A
:100A6000DF91CF911F910F91FF90EF900895F62E97
:100A70000B8D10E00F5F1F4F0F731127E02E8C8D31
:100A80008E110CC00FB607FCFACFE889F989808176
:100A900085FFF5CFCE010E94EE04F1CFEB8DEC0F78
:100AA000FD2FF11DE35AFF4FF0829FB7F8940B8F93
:100AB000EA89FB8980818062CFCFCF93DF93EC01FD
:100AC000888D8823B9F0AA89BB89E889F9898C9136
:100AD00085FD03C0808186FD0DC00FB607FCF7CFF2
:100AE0008C9185FFF2CF808185FFEDCFCE010E94F2
:100AF000EE04E9CFDF91CF91089581E394E00E9465
:100B0000E20421E0892B09F420E0822F089580E09F
:100B100090E0892B29F00E947D0581110C94000042
:100B20000895DC01ED91FC910190F081E02D099494
:100B3000EF92FF920F931F93CF93DF938C017B0172
:100B4000D0E0C0E0F701EC0FFD1F6491662361F077
:100B5000D801ED91FC910190F081E02DC80109953B
:100B6000892B11F02196EECFCE01DF91CF911F910D
:100B70000F91FF90EF900895AF92BF92CF92DF92C6
:100B8000EF92FF920F931F93CF93DF936C017B0142
:100B90008B01040F151FEB015E01AE18BF08C017D3
:100BA000D10759F06991D601ED91FC910190F08146
:100BB000E02DC6010995892B79F7C501DF91CF9109
:100BC0001F910F91FF90EF90DF90CF90BF90AF906B
:100BD000089590E080E0089590E0FC01E357FF4F16
:100BE0002491FC01E659FC4F3491FC01EA5AFC4F78
:100BF000E491EE23C9F0222339F0233001F1A8F467
:100C0000213019F1223029F1F0E0EE0FFF1FED57EE
:100C1000FF4FA591B4918FB7F894EC91611126C064
:100C200030953E233C938FBF08952730A9F028309C
:100C3000C9F0243049F7809180008F7D03C08091F6
:100C400080008F7780938000DFCF84B58F7784BD5D
:100C5000DBCF84B58F7DFBCF8091B0008F77809301
:100C6000B000D2CF8091B0008F7DF9CF3E2BDACF8C
:100C70001092460581E0809325051092200561E0E1
:100C800082E10E94EC0561E083E10E94EC05E9EB62
:100C9000F0E080818E7F808380818D7F808388E4F7
:100CA0008093B80085E48093BC000895CF93DF93D0
:100CB00091E09093E9038823B9F0C091B800D091F6
:100CC000BA008091BC008A7B8093BC0060E082E126
:100CD0000E94EC0560E083E10E94EC050E9438066A
:100CE000D093BA00C093B800DF91CF910895CF930D
:100CF000DF9390E0FC01E659FC4F24918A5A9C4F07
:100D0000FC0184918823C9F090E0880F991FFC01B1
:100D1000E758FF4FA591B491FC01ED57FF4FC591E6
:100D2000D49161110DC09FB7F8948C9120958223C6
:100D30008C938881282328839FBFDF91CF910895CA
:100D4000623051F49FB7F8943C91822F80958323B1
:100D50008C93E8812E2BEFCF8FB7F894EC912E2B4C
:100D60002C938FBFEACF1F93CF93DF93182FEB0104
:100D700061E00E947706209739F460E0812FDF91CF
:100D8000CF911F910C94EC05CF3FD10511F461E098
:100D9000F5CFE12FF0E0E357FF4FE491E33031F17D
:100DA00040F4E130B1F0E230E1F0C038D1057CF739
:100DB000E4CFE73029F1E83059F1E430B1F7809120
:100DC0008000806280938000D0938B00C0938A0063
:100DD00004C084B5806884BDC7BDDF91CF911F91E9
:100DE000089584B5806284BDC8BDF7CF809180002E
:100DF000806880938000D0938900C0938800EDCFF5
:100E00008091B00080688093B000C093B300E5CFBC
:100E10008091B00080628093B000C093B400DDCFB9
:100E2000789484B5826084BD84B5816084BD85B5C5
:100E3000826085BD85B5816085BDEEE6F0E080818C
:100E400081608083E1E8F0E01082808182608083AD
:100E5000808181608083E0E8F0E080818160808330
:100E6000E1EBF0E0808184608083E0EBF0E0808162
:100E700081608083EAE7F0E0808184608083808104
:100E800082608083808181608083808180688083AC
:100E90001092C10008958130910539F0880F991F93
:100EA000880F991F05970197F1F708953FB7F894B8
:100EB0008091C6029091C702A091C802B091C90268
:100EC00026B5A89B05C02F3F19F00196A11DB11DA5
:100ED0003FBFBA2FA92F982F8827BC01CD01620FE1
:100EE000711D811D911D42E0660F771F881F991F9C
:100EF0004A95D1F70895CF92DF92EF92FF920F9328
:100F00001F93CF93C82F813208F096C00E945607D6
:100F10006B017C0180914605811169C081E080935D
:100F20004605809325059FEF909324051092230595
:100F30009C0F909322058093210580912105806D5F
:100F40008093210580912005813009F077C01092AF
:100F500020050E9456076B017C018091210580933A
:100F6000BB008091480590914905A0914A05B09138
:100F70004B05892B8A2B8B2BA1F00E9456070091E1
:100F800048051091490520914A0530914B056C198F
:100F90007D098E099F09061717072807390708F4E6
:100FA00047C08091BC0083FDD8CF85EC8093BC0006
:100FB0000E9456076B017C0180914605813009F43F
:100FC0003FC0809123058C1710F4C0912305A0E049
:100FD000B5E0E6E2F5E080E08C1354C08C2FCF91B1
:100FE0001F910F91FF90EF90DF90CF900895809127
:100FF000480590914905A0914A05B0914B05892B70
:101000008A2B8B2B09F486CF0E9456070091480546
:101010001091490520914A0530914B056C197D09C5
:101020008E099F09061717072807390708F072CF9E
:10103000809147050E945606C0E0D0CF85EEB6CF1E
:101040008091480590914905A0914A05B0914B05C2
:10105000892B8A2B8B2B09F4AFCF0E945607009166
:1010600048051091490520914A0530914B056C19AE
:101070007D098E099F09061717072807390708F009
:101080009BCFD6CF9D9191938F5FA6CF8F929F924A
:10109000AF92BF92CF92DF92EF92FF920F931F9386
:1010A000CF93DF93613208F0D1C0142FD62FC82F11
:1010B0000E9456076B017C018091460581116BC02F
:1010C00082E080934605109325058FEF80932405D9
:1010D00010922305D0932205A0EEB4E0E0E0F5E005
:1010E00080E0D8138BC01092210580912105CC0F90
:1010F000C82BC093210580912005813009F082C062
:10110000109220050E9456076B017C0180912105F9
:101110008093BB008091480590914905A0914A05B4
:10112000B0914B05892B8A2B8B2BA1F00E9456077F
:10113000009148051091490520914A0530914B05D1
:101140006C197D098E099F090617170728073907AB
:1011500008F442C08091BC0083FDD8CF85EC809319
:10116000BC000E9456076B017C01809146058230CD
:1011700009F44AC0809124058F3F09F469C0809129
:101180002405803209F466C080912405803309F477
:1011900063C084E026C08091480590914905A091E4
:1011A0004A05B0914B05892B8A2B8B2B09F484CFF0
:1011B0000E9456078090480590904905A0904A05E6
:1011C000B0904B056C197D098E099F09861697060C
:1011D000A806B90608F070CF809147050E94560610
:1011E00085E0DF91CF911F910F91FF90EF90DF90FD
:1011F000CF90BF90AF909F908F9008959D919193C5
:101200008F5F6FCF85EEABCF8091480590914905F8
:10121000A0914A05B0914B05892B8A2B8B2B09F4A1
:10122000A4CF0E94560700914805109149052091CE
:101230004A0530914B056C197D098E099F090617E7
:1012400017072807390708F090CFC6CF81E0C9CF2C
:1012500080E0C7CF82E0C5CF83E0C3CF482F609145
:10126000DF048091DE040E9446081092DD04109293
:10127000DF041092DC040895CF93C62F91E0909381
:10128000DC0498E69093DE041092DD041092DF04F3
:10129000682F80ED94E00E9488026C2F80ED94E02E
:1012A0000E94880281E0CF910C942E0991E09093E6
:1012B000DC0498E69093DE041092DD041092DF04C3
:1012C000682F80ED94E00E94880281E00C942E0942
:1012D0007F928F929F92AF92BF92CF92DF92EF92C6
:1012E000FF920F931F93CF93DF93EC01162F7A0198
:1012F00069010E9456074B015C01712C1111798420
:1013000010E000E060E070E0CB012A813B814C817D
:101310005D812617370748075907F4F001151105B5
:1013200061F5C7011E141F0464F10E945607681975
:1013300079098A099B09EA85F0E0EE0FFF1FE25860
:10134000FC4FA591B4912C910F5F1F4F398523233A
:10135000271105C097FFD9CF6FEF7FEFCB01DF914A
:10136000CF911F910F91FF90EF90DF90CF90BF90A2
:10137000AF909F908F907F9008951C141D04ACF641
:10138000C6010E944B07D1CF2FB7F8946091C202DB
:101390007091C3028091C4029091C5022FBF08953D
:1013A0004F925F926F927F929F92AF92BF92CF9235
:1013B000DF92EF92FF920F931F93CF93DF9300D0B2
:1013C0001F92CDB7DEB7D090580580915B05909104
:1013D0005C05A0915D05B0915E05892B8A2B8B2B56
:1013E000D9F00E945607009154051091550520919F
:1013F000560530915705601B710B820B930B0091C2
:101400005B0510915C0520915D0530915E056017CC
:10141000710782079307C8F20E945607609354052C
:10142000709355058093560590935705E091630599
:10143000F0916405309759F040915F055091600537
:1014400060916105709162058D2D0995D82EE0900F
:101450005205F09053054D2C512C712C612CE11448
:10146000F10409F459C0D7011C96CC901C978091C7
:10147000590590915A058436910510F41C961C92DA
:10148000D701ED91FC91A280B38019821A821B8250
:10149000DD2079F1F701369610E000E0219122235A
:1014A00019F19280992001F130E050E040E02F5F87
:1014B0003F4F4F4F5F4FC301B2010E94C6209B01B7
:1014C000AC01892D90E0B0E0A0E0BC01CD016F5FE0
:1014D0007F4F8F4F9F4F0E94C620A1E0B0E0AC0F1E
:1014E000BD1FA00FB11F8C930F5F1F4F033011055D
:1014F000A9F609811A812B81F701458556856281FC
:101500007381C701F5010995D7011C96CC921C97F0
:101510001496ED90FC90A3CF8091500590915105C9
:101520008C010F5F1F4F1093510500935005499791
:10153000B4F10E94C409C0904C05D0904D05E090D4
:101540004E05F0904F059B01AC012C193D094E0949
:101550005F0921F421E030E040E050E088EE93E0C4
:10156000089FB001099F700D189F700D1124072E60
:10157000000C880B990B0E94D62030935A052093BB
:10158000590510925105109250050E94C4096093AC
:101590004C0570934D0580934E0590934F050F9029
:1015A0000F900F90DF91CF911F910F91FF90EF90CF
:1015B000DF90CF90BF90AF909F907F906F905F90A3
:1015C0004F9008958F929F92AF92BF92EF92FF92A9
:1015D0000F931F93CF93DF937B018C01D0E0C0E08A
:1015E0000E94C4096093390470933A0480933B04C9
:1015F00090933C04E0913104F09132040284F3852D
:10160000E02D81E394E0099597FF27C00E94C4096B
:101610008090390490903A04A0903B04B0903C0430
:10162000681979098A099B098090350490903604DD
:10163000A0903704B0903804681579058A059B0599
:10164000C8F2CE01DF91CF911F910F91FF90EF90E3
:10165000BF90AF909F908F900895F80181938F0174
:101660002196EC16FD0609F0BBCFEBCF0F931F932D
:10167000CF93DF932091C0022F5F322F37703093CA
:10168000C00220FF2BC020E831FD2064347009F037
:101690002062205FFC01EC01239600E011E06485EC
:1016A000662329F070E0C8010E9430226F5F6187D5
:1016B000322F369F030E30E0311D1124311110C03E
:1016C0001682662311F0615061873196EC17FD0791
:1016D00031F7DF91CF911F910F91089520E0D4CF82
:1016E00031503683EECF4F925F927F928F929F92CE
:1016F000AF92BF92CF92DF92EF92FF920F931F9320
:10170000CF93DF932C01EB010E945607F20127854E
:101710003089621B730B6A307105B0F3F8948A81CB
:101720009B81181619060CF0CDC1E881F9816BB1C7
:10173000862E689487F83BB13F773BB9D9848E8178
:101740002D2D281B822F2E834F85042E000C550B28
:10175000AA81BB817C85FD84EE847F5FF394E39452
:101760009F819884BA84AB841081C12C6C2D0C2D80
:101770002C2D2081112788942111280F08F42FEF98
:101780008195889470FD120F1795889471FD120F42
:101790001795889472FD120F1795889473FD120F98
:1017A0001795889474FD120F1795889475FD120F84
:1017B0001795889476FD120F1795889477FD120F70
:1017C00017958894622F7111612F8D0D162F002CA3
:1017D0008BB800C017FF3BB921816627889400C0F1
:1017E00000C0002C3BB92111290F00C0002C8BB880
:1017F00000C016FF3BB908F42FEF9195889400C004
:1018000000C0002C3BB9F0FC620F00C0002C8BB86C
:1018100000C015FF3BB967958894F1FC620F00C0CA
:1018200000C0002C3BB96795889400C0002C8BB891
:1018300000C014FF3BB9F2FC620F6795889400C0AA
:1018400000C0002C3BB9F3FC620F00C0002C8BB829
:1018500000C013FF3BB967958894F4FC620F00C089
:1018600000C0002C3BB96795889400C0002C8BB851
:1018700000C012FF3BB9F5FC620F6795889400C069
:1018800000C0002C3BB9F6FC620F00C0002C8BB8E6
:1018900000C011FF3BB967958894F7FC620F00C048
:1018A00000C0002C3BB96795889400C0002C8BB811
:1018B00000C010FF3BB9122FF110162F9B0D00C076
:1018C00000C0002C3BB900C000C0002C8BB800C089
:1018D00017FF3BB922816627889400C000C0002C06
:1018E0003BB92111290D00C0002C8BB800C016FF98
:1018F0003BB908F42FEFE40FF51F00C000C0002C27
:101900003BB9E0FC620F00C0002C8BB800C015FF93
:101910003BB967958894E1FC620F00C000C0002CC1
:101920003BB96795889400C0002C8BB800C014FFA9
:101930003BB9E2FC620F6795889400C000C0002CA0
:101940003BB9E3FC620F00C0002C8BB800C013FF52
:101950003BB967958894E4FC620F00C000C0002C7E
:101960003BB96795889400C0002C8BB800C012FF6B
:101970003BB9E5FC620F6795889400C000C0002C5D
:101980003BB9E6FC620F00C0002C8BB800C011FF11
:101990003BB967958894E7FC620F00C000C0002C3B
:1019A0003BB96795889400C0002C8BB800C010FF2D
:1019B0003BB9122FE110162F919400C000C0002CEB
:1019C0003BB99A0C00C000C08BB800C017FF3BB9F0
:1019D00020816627889400C000C0002C3BB92111EB
:1019E000280F00C0002C8BB800C016FF3BB908F4CC
:1019F0002FEF8195889400C000C0002C3BB970FD8A
:101A0000620F00C0002C8BB800C015FF3BB9679572
:101A1000889471FD620F00C000C0002C3BB967952F
:101A2000889400C0002C8BB800C014FF3BB972FD35
:101A3000620F6795889400C000C0002C3BB973FD0D
:101A4000620F00C0002C8BB800C013FF3BB9679534
:101A5000889474FD620F00C000C0002C3BB96795EC
:101A6000889400C0002C8BB800C012FF3BB975FDF4
:101A7000620F6795889400C000C0002C3BB976FDCA
:101A8000620F00C0002C8BB800C011FF3BB96795F6
:101A9000889477FD620F00C000C0002C3BB96795A9
:101AA000889400C0002C8BB800C010FF3BB9122FE7
:101AB0007111162F8D0D00C000C0002C3BB911977D
:101AC00009F086CE4A815B8120EE31E0DA010E9486
:101AD0006922DC01CB01F4E0B695A795979587952F
:101AE000FA95D1F730E020E0B901EAE94E9F040E03
:101AF000611D5E9F600D711D1124650F711D860FA4
:101B0000971FA11DB11D893E43E09407A105B105B2
:101B100008F434C0885E9340A109B10942E0B6954B
:101B2000A795979587954A95D1F747E0849F080E2A
:101B3000211D949F200D311D1124290F311D60910D
:101B4000BF0270E0860F971F820F931F4091C20261
:101B50005091C3026091C4027091C502292F3327AE
:101B6000420F531F611D711D4093C2025093C30267
:101B70006093C4027093C5028093BF0278940E9460
:101B80005607F201708B6787DF91CF911F910F91FC
:101B9000FF90EF90DF90CF90BF90AF909F908F908D
:101BA0007F905F904F90089580E991E00895579A53
:101BB00008956F927F928F92CF92DF92EF92FF9271
:101BC0000F931F93CF93DF93CDB7DEB762970FB616
:101BD000F894DEBF0FBECDBF6C017A013801822EB2
:101BE000DC011C962C91CA0157FF04C08827992755
:101BF000841B950B7A8369839C838B839E838D835F
:101C00006D867E868F86213049F5CE0101960E9431
:101C1000360B83E0888B1A8A198AF7FE02C08DEF93
:101C2000888BD601ED91FC910484F585E02DBE01F1
:101C30006F5F7F4FC601099562960FB6F894DEBFBD
:101C40000FBECDBFDF91CF911F910F91FF90EF900D
:101C5000DF90CF908F907F906F9008951C861B86A9
:101C60001A86198618861F82D4CFEF92FF920F939F
:101C70001F93CF93DF93CDB7DEB762970FB6F8947B
:101C8000DEBF0FBECDBF7C01DC011C968C917A8338
:101C900069835C834B835E834D830D871E872F870B
:101CA0008130F9F4CE0101960E94360B188A1A8A07
:101CB000198AD701ED91FC910484F585E02DBE01D0
:101CC0006F5F7F4FC701099562960FB6F894DEBF2C
:101CD0000FBECDBFDF91CF911F910F91FF90EF907D
:101CE00008951C861B861A86198618861F82DECFE9
:101CF000EBEFF2E080910801808380910A018183FB
:101D00008091060182830C94D0090F931F93CF9387
:101D10000E94C4090091BB021091BC022091BD0237
:101D20003091BE02061717072807390720F4809163
:101D30000103811104C080910003882391F1109266
:101D40000003C091BA0281E0C827C093BA020E9482
:101D5000C409009102011091030120910401309106
:101D60000501DC01CB01800F911FA21FB31F8093DF
:101D7000BB029093BC02A093BD02B093BE02CC23E1
:101D800059F01092FB021092FC021092FD02CF91CA
:101D90001F910F910C94D009CF911F910F910C942A
:101DA000780ECF911F910F9108950F931F93CF93AA
:101DB0000E94C4090091AE021091AF022091B002BE
:101DC0003091B102061717072807390720F48091D0
:101DD0000603811104C080910203882339F1109217
:101DE0000203C091EF0281E0C827C093EF020E9476
:101DF000C409009102011091030120910401309166
:101E00000501DC01CB01800F911FA21FB31F80933E
:101E1000AE029093AF02A093B002B093B1026C2FC8
:101E20008DE0CF911F910F910C94EC05CF911F91F4
:101E30000F91089590E080E00895FC0185859685D6
:101E400008950F931F93CF93DF9300D01F92CDB7C8
:101E5000DEB7AB0119821A821B82DC01ED91FC9185
:101E60000190F081E02D00E010E020E0BE016F5F06
:101E70007F4F09950F900F900F90DF91CF911F9199
:101E80000F910895BF92CF92DF92EF92FF920F933E
:101E90001F93CF93DF9300D000D000D01F92CDB717
:101EA000DEB780E00E94560987E00E947B0710920F
:101EB000CF048093CE048730E1F580ED94E00E945A
:101EC00041020E94C102B82E80ED94E00E944102BE
:101ED0000E94C102C82E80ED94E00E944102182F9A
:101EE00086FF3EC08F710E94C1020CE015FD00E02C
:101EF000080F80ED94E00E9441020E94C102D82E9A
:101F000080ED94E00E9441020E94C102E82E80ED23
:101F100094E00E94410210E087FD14E68F770E9452
:101F2000C102F82E80ED94E00E9441020E94C1029D
:101F3000180F2B2D3C2D402F5D2DB701812F90E0E8
:101F400027960FB6F894DEBF0FBECDBFDF91CF91BD
:101F50001F910F91FF90EF90DF90CF90BF90089569
:101F60008F730E94C102082FC4CFCF93DF93EB0180
:101F70000E94560981E00E947B071092CF04809353
:101F8000CE0480ED94E00E944102888381E0DF91DD
:101F9000CF910895EF92FF921F93CF93DF931F92FB
:101FA000CDB7DEB77C01162FBE016F5F7F4F8EE08D
:101FB0000E94B50F811108C080E00F90DF91CF9192
:101FC0001F91FF90EF90089581E08093DC0488E6F4
:101FD0008093DE041092DD041092DF04113089F545
:101FE00087E090E00E94EF01F70180810E94B70234
:101FF00090E00E94EF01898185608983F7018181EA
:102000000E94B70290E00E94EF01F70182810E94D6
:10201000B70290E00E94EF01F70184810E94B702AD
:1020200090E00E94EF0181E00E942E098111C4CF4F
:1020300069818EE00E943C098111BECF812F87709B
:10204000BCCF8BE090E00E94EF0189818660D5CF04
:102050008FE48093000170E060E08BE00E94B306A3
:1020600070E060E08CE00C94B30682E580930001A0
:10207000809301016FEF70E08CE00E94B30670E086
:1020800060E08BE00C94B30687E4809300018093BA
:1020900001016FEF70E08BE00E94B30670E060E03A
:1020A0008CE00C94B3060F931F930E94C409009117
:1020B000B6021091B7022091B8023091B90206170A
:1020C00017072807390708F05EC0809105038823A9
:1020D00009F459C0809101018F3419F0823509F05B
:1020E0004AC0909100019F3409F582E58093010177
:1020F000809300010E94C409009102011091030124
:102100002091040130910501DC01CB01800F911F6A
:10211000A21FB31F8093B6029093B702A093B80298
:10212000B093B9021F910F910C943510823519F5B7
:10213000923549F587E480930101809300010E9464
:10214000C409009102011091030120910401309112
:102150000501DC01CB01800F911FA21FB31F8093EB
:10216000B6029093B702A093B802B093B9021F9140
:102170000F910C944410873431F480910001877FD3
:10218000873409F4B2CF1F910F9108950F931F93D5
:102190000E94C4090091B2021091B3022091B402CE
:1021A0003091B502061717072807390720F48091E8
:1021B0000403811104C080910303882361F190918D
:1021C0000101809100019F3411F0923539F58F346F
:1021D00009F045C082E580930101809300010E94CF
:1021E000C409009102011091030120910401309172
:1021F0000501DC01CB01800F911FA21FB31F80934B
:10220000B2029093B302A093B402B093B5020E94BD
:102210003510109203031F910F9108959734F9F42C
:102220008F34E9F4909300010E94C40900910201E7
:10223000109103012091040130910501DC01CB01D3
:10224000800F911FA21FB31F8093B2029093B3021D
:10225000A093B402B093B5020E944410DACF823545
:1022600011F08734C1F68FE4809300010E94C40905
:1022700000910201109103012091040130910501A8
:10228000DC01CB01800F911FA21FB31F8093B2020C
:102290009093B302A093B402B093B5020E942810A9
:1022A000B8CF85ED8093BC00809148059091490599
:1022B000A0914A05B0914B050796A11DB11D23E0E1
:1022C000B695A795979587952A95D1F72091BC004B
:1022D00024FD03C010924605089540914805509191
:1022E000490560914A0570914B05452B462B472BBC
:1022F00069F30097A105B10541F025E32A95F1F7AF
:1023000000000197A109B109E1CF809147050C9424
:102310005606EF92FF920F931F93CF93DF93EC013A
:102320008B0188E2FB0111928A95E9F761E08E81C9
:102330000E94770660E08E810E94EC0588EE93E0B3
:102340000E944B0761E08E810E94EC0568858E81BA
:102350000E94770688E290E00E944B07E881F981AD
:102360000088F189E02D26E030E04AE050E060E0AE
:10237000CE0109956E317105810591056CF4982F98
:10238000872F762F66276061CB01DF91CF911F9158
:102390000F91FF90EF900895E881F9810088F1890D
:1023A000E02D26E030E04AE050E061E0CE01099502
:1023B0007801F8E2EF0EF11C623371058105910599
:1023C00034F4982F872F762F66276161DDCFE8815F
:1023D000F9810088F189E02D26E030E04AE050E004
:1023E00060E0CE010995683171058105910534F4ED
:1023F000982F872F762F66276261C6CFE881F981F3
:102400000088F189E02D26E030E04AE050E061E00C
:10241000CE0109956B3071058105910534F4982F33
:10242000872F762F66276361AFCF21E06932710570
:10243000810591050CF420E0F80121938F01EE163F
:10244000FF0629F6E881F9810088F189E02D26E070
:1024500030E04AE050E060E0CE0109956831710556
:102460008105910534F4982F872F762F66276461B4
:102470008BCF70E060E088CFFB0101900020E9F78E
:102480003197AF01461B570BDC01ED91FC910280A7
:10249000F381E02D09948F929F92AF92BF92EF92B9
:1024A000FF920F931F93CF93DF93CDB7DEB7A19722
:1024B0000FB6F894DEBF0FBECDBF7C01FA01CB0191
:1024C00019A2223008F42AE08E010F5D1F4F822EE0
:1024D000912CB12CA12CBF01A50194010E94D62002
:1024E000F901CA016A300CF5605DD8016E938D0167
:1024F000232B242B252B79F790E080E0109721F0F7
:10250000BD01C7010E943C12A1960FB6F894DEBF30
:102510000FBECDBFDF91CF911F910F91FF90EF9034
:10252000BF90AF909F908F900895695CDECF462F4B
:1025300050E070E060E02AE00C944B12CF93C82F7B
:102540008A3028F460E381E394E00E9491056C2FC7
:1025500081E394E0CF910C949712AC01990F660B34
:10256000770B2AE081E394E00C944B12BC0181E3E9
:1025700094E00C943C1267EE71E00C943C12CF9303
:10258000DF93682F81E394E00E949712EC0181E3CE
:1025900094E00E94BB128C0F9D1FDF91CF91089594
:1025A000CF93DF93BC0181E394E00E943C12EC01E5
:1025B00081E394E00E94BB128C0F9D1FDF91CF91AD
:1025C00008950F931F93CF93DF93EC010E9498051A
:1025D0008C01CE010E94BB12800F911FDF91CF9121
:1025E0001F910F91089568E670E081E394E00C94E8
:1025F000E1120E945F21FC01808191810C944921AC
:102600001F920F920FB60F9211242F933F934F9367
:102610005F936F937F938F939F93AF93BF93EF934A
:10262000FF938091B900887F803609F44AC0F0F5A5
:10263000883209F4A7C018F5803109F49BC0B8F4BA
:10264000882309F4F9C0883009F494C0FF91EF9110
:10265000BF91AF919F918F917F916F915F914F91BA
:102660003F912F910F900FBE0F901F9018958831BA
:1026700009F488C0803251F78093240514C0803457
:1026800009F49DC040F48033B9F38833F9F68093A0
:10269000240585ECB0C0803509F485C0883509F47F
:1026A00096C0883499F60E945111D0CF883909F428
:1026B0008CC038F5883729F050F4883611F080370F
:1026C00029F683E08093460510922C0457C0883881
:1026D00009F47BC0803919F0803809F0B7CF8091B8
:1026E0002C04803208F071C0E0912C0481E08E0F40
:1026F00080932C048091BB00F0E0E45FFB4F80836B
:102700003DC0803B39F0E0F4803A09F479C0883A62
:1027100009F09CCF84E08093460510920B04109240
:102720000A04E0912D04F0912E04099580910A0489
:1027300081110FC081E080930A041092EA0309C05E
:10274000803C09F4A6CF883C09F4A3CF883B09F06C
:102750007DCFE0910B0481E08E0F80930B04F0E0BD
:10276000E651FC4F80818093BB0090910B048091D7
:102770000A0429C0809121058093BB0085EC8093D9
:10278000BC0064CF9091230580912205981758F5DD
:10279000E091230581E08E0F80932305F0E0E05067
:1027A000FB4F8081E9CFE091230581E08E0F80937C
:1027B00023058091BB00F0E0E050FB4F80839091B7
:1027C0002305809122059817C8F285E8D8CFE091BB
:1027D000230581E08E0F809323058091BB00F0E0FC
:1027E000E050FB4F80838091250581115CCF81E013
:1027F0008093200584EA8093BC001092460526CF82
:1028000085EC8093BC001092460580912C048032A8
:1028100030F4E0912C04F0E0E45FFB4F1082609113
:102820002C0470E0E0912F04F09130048CE094E0EF
:10283000099510922C040ACF1092240534CF1F92D0
:102840000F920FB60F9211242F933F934F935F93E4
:102850006F937F938F939F93AF93BF93EF93FF9368
:1028600081E394E00E94EE04FF91EF91BF91AF915C
:102870009F918F917F916F915F914F913F912F9198
:102880000F900FBE0F901F9018951F920F920FB6CA
:102890000F9211242F938F939F93EF93FF93E091C7
:1028A0004104F09142048081E0914704F091480492
:1028B00082FD1BC0908180914A048F5F8F732091AD
:1028C0004B04821741F0E0914A04F0E0EF5CFB4FCB
:1028D000958F80934A04FF91EF919F918F912F9153
:1028E0000F900FBE0F901F9018958081F4CF1F920C
:1028F0000F920FB60F9211242F933F938F939F93B4
:10290000AF93BF938091C2029091C302A091C40281
:10291000B091C5023091C10223E0230F2D3758F545
:102920000196A11DB11D2093C1028093C202909314
:10293000C302A093C402B093C5028091C6029091D5
:10294000C702A091C802B091C9020196A11DB11D94
:102950008093C6029093C702A093C802B093C902A5
:10296000BF91AF919F918F913F912F910F900FBE8B
:102970000F901F90189526E8230F0296A11DB11DF8
:10298000D2CFE0EDF4E01382128288EE93E0A0E073
:10299000B0E084839583A683B78389ED91E091832A
:1029A00080830895E8E5F5E08FEF8083128211823D
:1029B000148613868FEF9FEFDC0187839087A187B2
:1029C000B2870895E1E3F4E01382128288EE93E087
:1029D000A0E0B0E084839583A683B78389E491E087
:1029E0009183808385EC90E09587848784EC90E0E8
:1029F0009787868780EC90E0918B808B81EC90E0CC
:102A0000938B828B82EC90E0958B848B86EC90E0AC
:102A1000978B868B118E128E138E148E0895CF9302
:102A2000DF93C0EFD2E081E191E09983888380E277
:102A300091EAA7E0B0E08A839B83AC83BD838FEFEC
:102A40009FEF9F838E83188689878A8762E070E074
:102A5000CE010E949E048DE291E099838883DF91EC
:102A6000CF9108950E94C1140E94D2140E94E214D2
:102A70000C940F15CF93DF93CDB7DEB7E1970FB668
:102A8000F894DEBF0FBECDBF0E94100761E08DE05D
:102A90000E94770661E08CE00E94770661E08BE09F
:102AA0000E947706E0914104F091420412E0108305
:102AB000E0913D04F0913E041082E0913F04F091DA
:102AC00040048FEC808310924904E0914504F0911A
:102AD000460486E08083E0914304F09144048081C1
:102AE00080618083E0914304F09144048081886098
:102AF0008083E0914304F091440480818068808366
:102B0000E0914304F091440480818F7D8083109292
:102B1000CF041092CE041092DD041092DF040E94C4
:102B200038060E9402020E94FA0160E08EE00E94D4
:102B30003C090E94420F29833A834B835C838F8335
:102B40008FE18D831E8362E0CE0101967C010E949D
:102B5000CA0F61E0C7010E94CA0F1EA61886DE01D7
:102B60001896B8ABAFA7BD018FE00E94B50F68857E
:102B7000862F837021F06C7F8FE00E943C098EA528
:102B8000882369F0BE01625D7F4F8EE00E94B50F21
:102B9000882329F06EA56F778EE00E943C09809112
:102BA000DD02811145C01092CF021092CE028FEF4C
:102BB0008093D2028093D3028093D4028093D50273
:102BC0008093D6028093D70281E08093D80210923E
:102BD000DA021092D9021092D1021092D0028091A2
:102BE000520590915305892B31F48CEC92E090932F
:102BF000530580935205E091CA02F091CB023097C1
:102C000021F08CEC92E0958384838CEC92E090939D
:102C1000CB028093CA021092DC021092DB028BE698
:102C200091E09093CD028093CC0281E08093DD020D
:102C3000E091CC02F091CD020480F581E02D8CEC86
:102C400092E009958BEF92E09093CF028093CE02B1
:102C500081E090E09093DA028093D902E091CC0277
:102C6000F091CD020284F385E02D8CEC92E0099581
:102C7000009701F19C0150E040E060E472E48FE0D5
:102C800090E00E94442280915B0590915C05A091A8
:102C90005D05B0915E0582179307A407B50710F490
:102CA000DA01C90180935B0590935C05A0935D05F3
:102CB000B0935E058EE1809358051092FB0210924E
:102CC000FC021092FD020E94D00981E394E00E9470
:102CD000BB128E010F5F1F4F3E01B2E06B0E711CE5
:102CE00080910C01882341F061EA70E081E394E077
:102CF0000E94E11210920C010E94C4098090E5022A
:102D00009090E602A090E702B090E802861697063F
:102D1000A806B906C0F430E020E049EE52E06AEEC1
:102D200072E080EF92E00E9438040E94C409685764
:102D30007C4E8F4F9F4F6093E5027093E602809325
:102D4000E7029093E8020E94C4098090EB02909001
:102D5000EC02A090ED02B090EE0286169706A8064F
:102D6000B90608F06BC08091EA0289838091E9027C
:102D70008A830E94420F2CA33DA34EA35FA368A7A2
:102D800079A78AA74B830E94420F2D8F3E8F4F8FCA
:102D900058A369A37AA38BA33C830E94420F2E8B76
:102DA0003F8B488F598F6A8F7B8F8C8F8D830E94CA
:102DB000420F2F87388B498B5A8B6B8B7C8B8D8B7B
:102DC0007E830E94420F288739874A875B876C87FA
:102DD0007D878E876F83C090FE02D090FF025701DF
:102DE000DCA6CBA6F50191905F01CE018B960E94E7
:102DF000FB12981621F0692DC6010E945121FFEFA8
:102E0000CF1ADF0A8FA598A98A159B0549F78091EB
:102E1000FE029091FF0207969093FF028093FE02BC
:102E20000E94C40960567444824F9F4F6093EB0226
:102E30007093EC028093ED029093EE020E94850E57
:102E40000E94D50E0E94C6100E9453101DA60E941B
:102E5000C4096093E5037093E6038093E7039093BE
:102E6000E80381E394E00E94E2046C01892BD9F12C
:102E700081E394E00E94C0040E946421D82E8DA7B3
:102E800041E050E0BE01635D7F4F87EC93E00E941C
:102E90006C219FE7D91221C08AEE91E00E94B61200
:102EA00082E392E00E94B6128AEE91E00E94B6128E
:102EB00087EC93E0DC010D900020E9F7CD01885C00
:102EC000934059F0FC01EA53FC4F20812F3729F43D
:102ED00010828B539C4FFC0110826DA581E394E01E
:102EE0000E949105BECF8DA58D3009F086C188EE78
:102EF00091E00E94B612E7ECAE2EE3E0BE2E450153
:102F0000FEE15F2ED4010D900020E9F7CD01885C31
:102F100093409501275C334028173907C0F5F50128
:102F200041905F01842D042C000C990B0E942420F9
:102F3000892B81F48091C503E091C6035E9EF00168
:102F40001124EF5EFC4FE80FF11D40828F5F8093EC
:102F5000C503D8CFF50132978081082E000C990B5C
:102F60000E942420892B71F68091C603E091C5034D
:102F7000589E900111242F5E3C4FE20FF32FF11D5C
:102F800010828F5F8093C6031092C503BBCF67E0AA
:102F9000462E63E0562E71E1272E73E0372E510145
:102FA00019AA59E7852E51E0952ED5018C91F4018F
:102FB000908189136FC011962C91918129136AC059
:102FC000F50101900020E9F73197EA19FB09D401D6
:102FD00012962C911297022E000C330BE217F30776
:102FE00009F058C013968C91F20180832FEF218352
:102FF00084E0880E911CA5EDB1E0A815B905A9F6ED
:10300000B9A9BF5FB9ABEFEF4E1A5E0AFEE1AF0E92
:10301000B11CB63031F6E7ECF3E08EE1DF011D9232
:103020008A95E9F78091E5039091E603A091E70383
:10303000B091E80340910D0350910E0360910F038E
:1030400070911003841B950BA60BB70B853F914025
:10305000A105B10508F4ACC0E0910703E150E331EC
:1030600008F0A4C0F0E0E95CF74E0C946322A018CD
:10307000D618D618D618CA18D618D618301A4B191A
:10308000D6180D1AB919D618D618D618FB1C101E4A
:103090007F1DB61D082E000C990BC0970A9708F0EB
:1030A000A7CF80910703883009F580910803843009
:1030B00009F09ECFEDE0D201EC9350E040E070E0EB
:1030C00060E0C5010E94EC1E9B01AB01BC014115F3
:1030D0005105F1E06F07710508F08ACF50930A039C
:1030E00020930B032FEF20930C0382CF8231D1F476
:1030F00050E040E070E060E0C5010E94EC1E89A94C
:10310000813041F47093080360930903AFEFA093FB
:103110000C036ECF99A99230C9F770930A0360939C
:103120000B03F4CF833109F063CFBDE0B093080304
:10313000C5010E940320F20181832FEF228358CF23
:1031400080910803833091F08430D1F0823071F5A2
:10315000809109038F3F51F51092060381E080931F
:10316000EF0261E08DE00E94EC0522C0809109032E
:103170008F3FE1F4109206031092EF0260E0F2CF6D
:10318000809109038F3F91F481E0809306030E94B0
:10319000D50E0EC080910803863009F44BC0D0F5DF
:1031A000833009F45FC0843009F468C00E94F312D0
:1031B0008091E5039091E603A091E703B091E803C5
:1031C00080930D0390930E03A0930F03B09310030D
:1031D00087E09101215E3F4FF10111922E173F07C9
:1031E000E1F78150FEE12F0E311C8111F2CF86E014
:1031F000A7E0B3E01D928A95E9F780E090E0892B83
:1032000009F46ECD0E947D05882309F469CD0E94E2
:10321000000066CD8730D1F08E3041F680910903F1
:103220008F3F21F61092040381E0809305030E94F2
:103230005310BECF809109038F3F09F0B7CF109292
:103240000503109204030E944410B2CF8091090339
:103250008F3F09F0ABCF10920503109204030E9438
:103260003510A6CF809109038F3F09F09FCF1092B0
:103270000503109204030E9428109ACF809109033D
:103280008F3F09F093CF1092050381E080930403F0
:103290000E94C6108DCF809108038A3009F086CF36
:1032A000809109038F3F09F081CF64E371E081E3EE
:1032B00094E00E949805809106036BE271E0811111
:1032C00008C08091EF0268E271E0811102C064E2FF
:1032D00071E081E394E00E94E1126DE171E081E32D
:1032E00094E00E94980580910403882341F163E1F2
:1032F00071E081E394E00E949805809101016FE004
:1033000071E0823511F069E071E081E394E00E94A0
:10331000E1128EEE91E00E94B612409102015091AE
:10332000030160910401709105012AE081E394E0BA
:103330000E944B1281E394E00E94BB1239CF80912E
:103340000101823549F48091000165E071E0823528
:10335000E1F261E071E0D9CF63EF70E08734A9F664
:10336000809100016BEF70E0873479F267EF70E0D5
:10337000CCCF809108038F3F09F018CF69E373E049
:1033800081E394E00E94E11261E373E081E394E061
:103390000E94E11268E273E081E394E00E94E1128E
:1033A0006DE173E081E394E00E94E11262E173E079
:1033B00081E394E00E94E11269E073E081E394E02C
:1033C0000E94E11260E073E081E394E00E94E11268
:1033D00065EF72E081E394E00E94E11266EE72E034
:1033E00081E394E00E94E11262ED72E081E394E0F7
:1033F0000E94E11265EC72E081E394E00E94E11228
:103400006CEB72E081E394E00E94E11266EB72E003
:1034100081E394E00E94E1128DCF809108038F3FF9
:1034200009F0C4CE6CEA72E081E394E00E94980552
:1034300061E081E394E00E9497126EE281E394E000
:103440000E94910560E081E394E00E9497126EE291
:1034500081E394E00E94910580E00E94BF12A8CE13
:1034600080910803843009F449C08F3009F09ECE62
:10347000809109038F3F09F099CE19821A821B822D
:1034800069E672E081E394E00E94E11283E0D701F3
:103490001D928A95E9F781E394E00E94BB1262E4F1
:1034A00072E081E394E00E949805E0913104F0918C
:1034B00032040084F185E02D81E394E00995892BA5
:1034C000A1F362E070E0C7010E94E20AE0913104DA
:1034D000F09132040084F185E02D81E394E00995B8
:1034E000892B09F445C0E0913104F0913204028443
:1034F000F385E02D81E394E00995E8CF80910903FD
:103500008D3009F053CE80910C038F3F09F04ECEE1
:1035100080910403882319F081E080930303809154
:103520000603882319F081E0809302038091010350
:10353000882319F081E08093000380910A0390E0D2
:10354000982F8827092E000CAA0BBB0B20910B0388
:10355000822B0097F1E0AF07B10508F029CE8093E8
:10356000020190930301A0930401B093050120CEC2
:1035700089818033D9F1C8010E940320A82E83E0FD
:10358000F80111928A95E9F781E394E00E94BB1259
:1035900062E272E081E394E00E949805E0913104D8
:1035A000F09132040084F185E02D81E394E00995E7
:1035B000892BA1F362E070E0C8010E94E20AE09169
:1035C0003104F09132040084F185E02D81E394E030
:1035D0000995892B69F0E0913104F091320402845D
:1035E000F385E02D81E394E00995E9CFC301C4CFD1
:1035F00089818033D9F1C8010E940320B82E83E06D
:10360000D8011D928A95E9F781E394E00E94BB12EC
:1036100063E072E081E394E00E949805E091310458
:10362000F09132040084F185E02D81E394E0099566
:10363000892BA1F362E070E0C8010E94E20AE091E8
:103640003104F09132040084F185E02D81E394E0AF
:103650000995892B69F0E0913104F09132040284DC
:10366000F385E02D81E394E00995E9CFC301C4CF50
:1036700089818033D9F1C8010E940320D82E83E0CC
:10368000F80111928A95E9F781E394E00E94BB1258
:1036900065ED71E081E394E00E949805E0913104CA
:1036A000F09132040084F185E02D81E394E00995E6
:1036B000892BA1F362E070E0C8010E94E20AE09168
:1036C0003104F09132040084F185E02D81E394E02F
:1036D0000995892B69F0E0913104F091320402845C
:1036E000F385E02D81E394E00995E9CFC301C4CFD0
:1036F00089818033D9F1C8010E940320982E83E08C
:10370000D8011D928A95E9F781E394E00E94BB12EB
:1037100064EB71E081E394E00E949805E09131044C
:10372000F09132040084F185E02D81E394E0099565
:10373000892BA1F362E070E0C8010E94E20AE091E7
:103740003104F09132040084F185E02D81E394E0AE
:103750000995892B69F0E0913104F09132040284DB
:10376000F385E02D81E394E00995E9CFC301C4CF4F
:1037700089818033D9F1C8010E940320882E83E01B
:10378000F80111928A95E9F781E394E00E94BB1257
:1037900063E971E081E394E00E949805E0913104CF
:1037A000F09132040084F185E02D81E394E00995E5
:1037B000892BA1F362E070E0C8010E94E20AE09167
:1037C0003104F09132040084F185E02D81E394E02E
:1037D0000995892B69F0E0913104F091320402845B
:1037E000F385E02D81E394E00995E9CFC301C4CFCF
:1037F00089818033D9F1C8010E940320582E83E0CB
:10380000D8011D928A95E9F781E394E00E94BB12EA
:1038100062E571E081E394E00E94E112E0913104FD
:10382000F09132040084F185E02D81E394E0099564
:10383000892BA1F361E070E0C8010E94E20AE091E7
:103840003104F09132040084F185E02D81E394E0AD
:103850000995892B69F0E0913104F09132040284DA
:10386000F385E02D81E394E00995E9CFC301C4CF4E
:10387000C8010E940320C82E81E394E00E94BB127D
:103880006EE371E081E394E00E949805B4E6BD1513
:1038900008F05CC062E381E394E00E9491058D2D05
:1038A0000E949E126DE281E394E00E9491058B2DAF
:1038B0000E949E126DE281E394E00E9491058A2DA0
:1038C0000E949E1264E581E394E00E949105892D97
:1038D0000E949E126AE381E394E00E949105882D84
:1038E0000E949E126AE381E394E00E949105852D77
:1038F0000E949E1281E394E00E94BB12E091310489
:10390000F09132040084F185E02D81E394E0099583
:10391000892BA1F361E070E0C8010E94E20AE09106
:103920003104F09132040084F185E02D81E394E0CC
:103930000995892B91F0E0913104F09132040284D1
:10394000F385E02D81E394E00995E9CF6BE371E025
:1039500081E394E00E949805A2CF81E08093DC048B
:1039600088E68093DE041092DD041092DF0490E07C
:1039700080E00E94EF01852D0E94B702682F80ED44
:1039800094E00E948802882D0E94B702682F80ED83
:1039900094E00E948802892D0E94B702682F80ED72
:1039A00094E00E948802C11002C0CC24C3948C2DE4
:1039B0000E94B702682F80ED94E00E9488028A2D51
:1039C0000E94B702682F80ED94E00E9488028B2D40
:1039D0000E94B702682F80ED94E00E9488028D2D2E
:1039E0000E94B702682F80ED94E00E94880281E077
:1039F0000E942E09DDCB809108038F3009F446C068
:103A0000813109F0D5CB809109038F3F09F0CECBEE
:103A10001BA6198230E020E0A701BE01655D7F4F43
:103A200080EF92E00E9438046C01892BD1F088E08D
:103A300092E00E94B612C60199270E94AD1280E260
:103A400092E00E94B612CD2CDD24A60170E060E069
:103A50002AE081E394E00E944B1281E394E00E940B
:103A6000BB1282E292E00E94B6128BA590E00E9407
:103A7000AD128EE292E00E94B612898190E00E941F
:103A8000AD1284E392E00E94D01292CB80910903A0
:103A90008F3F09F08BCB0E94420F29833A834B83DF
:103AA0005C836D837E838F8389E392E00E94B612EC
:103AB0008B810E94BF1280E492E00E94B6128A813C
:103AC0000E94BF1289E492E00E94B61289810E948E
:103AD000BF1282E592E00E94B6128F810E94BF124F
:103AE00089E592E00E94B6128E810E94BF1281E6A3
:103AF00092E00E94B6128D810E94BF121BCC809171
:103B00000C038F3F09F052CB80900803912C982C26
:103B10008824C401990CAA0BBB0B20910903822BAA
:103B200080900A03912C982C8824092C000CAA0858
:103B3000BB0820910B03822A880E991EAA1EBB1E69
:103B400087E692E00E94B6122AE0B501A401B7FE12
:103B5000EDCB6DE281E394E00E9491054427552767
:103B6000BA01481959096A097B09DFCB809108031A
:103B7000833009F442C068F4823009F019CB809197
:103B800009038F3F09F012CB109201030E94780EB7
:103B90000FCB843039F18D3009F00ACB80910C03C2
:103BA0008F3FD9F520910903822F90E090930B016C
:103BB00080930A0190910A03492F50E05093090124
:103BC0004093080180910B03482F50E05093070168
:103BD000409306012093FC029093FB028093FD0228
:103BE0000E94D009809109038F3F09F0DFCA81E06C
:103BF000809301030E94850EDBCA809109038F3FE9
:103C000009F0D4CA109201031092FB021092FC0238
:103C10001092FD020E94D009CBCA0E94F312E2CF9B
:103C2000809108038431B9F1853109F0C1CA8091CE
:103C30000903863109F0BCCA80910A038F3F09F05D
:103C4000B5CA912C88EEB82EA12CC92CD12C80910C
:103C5000FE029091FF0267E070E00E943022C616DB
:103C6000D7060CF0A0C0DA82C982C7010E94FB12FD
:103C7000A81620F4C7010E94FB12A82EDA82C9827E
:103C8000C7010E94FB128B1520F4C7010E94FB1292
:103C9000B82E9394DACF809109038F3F09F086CA3A
:103CA0008091FE029091FF02C816D9060CF080CADE
:103CB00080E792E00E94B612DA82C982C7010E94B0
:103CC000FB12682F81E394E00E94971287E792E04D
:103CD0000E94B6128CE792E00E94B612C6010196CD
:103CE0009A838983C7010E94FB12682F81E394E0C5
:103CF0000E94971284E392E00E94D01287E892E03B
:103D00000E94B612C60105969A838983C7010E9454
:103D1000FB12682F81E394E00E9497126FE281E327
:103D200094E00E949105C60106969A838983C70193
:103D30000E94FB12682F81E394E00E9497126FE2C9
:103D400081E394E00E949105C60104969A838983D9
:103D5000C7010E94FB120E94BF128CE892E00E94F1
:103D6000B612C60102969A838983C7010E94FB128C
:103D7000682F81E394E00E9497126AE381E394E064
:103D80000E949105C60103969A838983C7010E9408
:103D9000FB120E94BF1281E394E00E94BB12E7E095
:103DA000CE0ED11C7DCF81E992E00E94B6126A2D21
:103DB00081E394E00E94971287E792E00E94D0127C
:103DC00080EA92E00E94B6126B2D81E394E00E949B
:103DD000971287E792E057CEB0E0A0E0E2EFFEE175
:103DE0000C9404215C016B017A016115710519F0D5
:103DF000FB0191838083E114F10451F0C701029724
:103E0000839730F040E030E020E090E072C05E0147
:103E1000E5012196F5011081812F90E00E94242078
:103E2000892BA9F71D3201F52196F501118101E0D9
:103E3000E114F10409F4DAC0F0E1EF16F10409F03D
:103E400082C0103359F488818F7D883509F076C09F
:103E5000198122960260F0E1EF2EF12C812C912C39
:103E6000A12C88E0B82E8CC01B3221F4E5012296EB
:103E7000F501118100E0DCCFEAE0EE16F10409F46F
:103E8000BBC0F0E1EF16F10409F06DC0E7CF78E0B8
:103E9000E72EF12C812C912CA12C60E1B62E70C064
:103EA0003FE9310F3A3128F439EA332E80C021E05E
:103EB0009AC0302F3170C114D10431F0222309F19E
:103EC0002197F601D183C08327FF21C060E070E015
:103ED00080E090E8311104C06FEF7FEF8FEF9FE734
:103EE00022E230E03093660520936505462F372F98
:103EF000282F642F732F822FCDB7DEB7E1E10C940A
:103F0000202101FF04C02297F601D183C08333230F
:103F100041F090958095709561957F4F8F4F9F4FA1
:103F2000E5CF97FFE3CF82E290E090936605809320
:103F300065056FEF7FEF8FEF9FE7D8CF10E3E114B8
:103F4000F10409F4A4CF28E0E216F10409F4A2CFA9
:103F50000CF092CF812C912CA12CE0E4BE2E82E0BB
:103F6000E816F10469F060E070E080E090E8970105
:103F70000F2C000C440B550B0E94D62049015A010E
:103F800020E060E070E0CB0127010F2C000C6608F8
:103F90007708FE0150ED352E310E39E0331540F42F
:103FA0003FEB310F3A3108F07BCF49EC342E310E24
:103FB0003E141F040CF07DCF27FD15C08616970612
:103FC000A806B90678F0A30192010E94C620630DED
:103FD000711D811D911D61307105810520E89207D9
:103FE00008F465CF2FEF21961081D3CF103309F459
:103FF0002ACF2AE0E22EF12C9CEC892E982CA82CBA
:104000009CE0B92EBDCFFC0188279927E894219127
:104010002032E9F3293010F02E30C8F32B3241F072
:104020002D3239F4689404C00E942D20820F911D16
:10403000219120532A30C0F31EF4909581959F4F13
:104040000895F8940C94842291110C9435208032B8
:1040500019F089508550C8F708957AE0979F902D00
:10406000879F802D910D1124089599278827089501
:10407000E89409C097FB3EF4909580957095619502
:104080007F4F8F4F9F4F9923A9F0F92F96E9BB27B8
:104090009395F695879577956795B795F111F8CF34
:1040A000FAF4BB0F11F460FF1BC06F5F7F4F8F4F9F
:1040B0009F4F16C0882311F096E911C0772321F095
:1040C0009EE8872F762F05C0662371F096E8862F2D
:1040D00070E060E02AF09A95660F771F881FDAF784
:1040E000880F9695879597F9089597F99F6780E8C7
:1040F00070E060E008959FEF80EC089500240A943A
:104100001616170618060906089500240A941216B2
:104110001306140605060895092E0394000C11F4E5
:10412000882352F0BB0F40F4BF2B11F460FF04C092
:104130006F5F7F4F8F4F9F4F089557FD9058440FEB
:10414000551F59F05F3F71F04795880F97FB991FF6
:1041500061F09F3F79F087950895121613061406B3
:10416000551FF2CF4695F1DF08C016161706180640
:10417000991FF1CF86957105610508940895E8941B
:10418000BB2766277727CB0197F90895DB018F932B
:104190009F930E94F820BF91AF91A29F800D911D27
:1041A000A39F900DB29F900D11240895A1E21A2EA5
:1041B000AA1BBB1BFD010DC0AA1FBB1FEE1FFF1FCB
:1041C000A217B307E407F50720F0A21BB30BE40B1B
:1041D000F50B661F771F881F991F1A9469F7609562
:1041E0007095809590959B01AC01BD01CF0108951C
:1041F0000E943A21A59F900DB49F900DA49F800D21
:10420000911D112408952F923F924F925F926F92C9
:104210007F928F929F92AF92BF92CF92DF92EF9256
:10422000FF920F931F93CF93DF93CDB7DEB7CA1BD7
:10423000DB0B0FB6F894DEBF0FBECDBF09942A8802
:10424000398848885F846E847D848C849B84AA84AA
:10425000B984C884DF80EE80FD800C811B81AA8137
:10426000B981CE0FD11D0FB6F894DEBF0FBECDBF02
:10427000ED010895A29FB001B39FC001A39F700DEF
:10428000811D1124911DB29F700D811D1124911D5E
:104290000895F999FECF92BD81BDF89A992780B50E
:1042A0000895262FF999FECF1FBA92BD81BD20BD7A
:1042B0000FB6F894FA9AF99A0FBE0196089581E024
:1042C00090E0F8940C9484229111089581568A51BB
:1042D00008F4805285580895FB01DC010D90002000
:1042E000E9F711974150504028F0019000200D92BD
:1042F000C9F708951C9208950E9490210C948C2077
:104300000E94852058F00E947E2040F029F45F3FF3
:1043100029F00C94752051110C94C0200C947B2032
:104320000E949D2068F39923B1F3552391F3951BC7
:10433000550BBB27AA2762177307840738F09F5FC6
:104340005F4F220F331F441FAA1FA9F335D00E2E33
:104350003AF0E0E832D091505040E695001CCAF7A0
:104360002BD0FE2F29D0660F771F881FBB1F261763
:1043700037074807AB07B0E809F0BB0B802DBF013A
:10438000FF2793585F4F3AF09E3F510578F00C9409
:1043900075200C94C0205F3FE4F3983ED4F38695DB
:1043A00077956795B795F7959F5FC9F7880F911D2A
:1043B0009695879597F90895E1E0660F771F881F16
:1043C000BB1F621773078407BA0720F0621B730BC9
:1043D000840BBA0BEE1F88F7E09508950E94F52133
:1043E0006894B1110C94C02008950E94A52088F013
:1043F0009F5798F0B92F9927B751B0F0E1F0660FA9
:10440000771F881F991F1AF0BA95C9F714C0B130E9
:1044100091F00E94BF20B1E008950C94BF20672F57
:10442000782F8827B85F39F0B93FCCF38695779518
:104430006795B395D9F73EF4909580957095619501
:104440007F4F8F4F9F4F0895991B79E004C0991FAC
:10445000961708F0961B881F7A95C9F780950895DE
:1044600097FB072E16F4009407D077FD09D00E9421
:10447000702207FC05D03EF4909581959F4F0895DA
:10448000709561957F4F0895052E97FB1EF400945B
:104490000E945B2257FD07D00E94D62007FC03D064
:1044A0004EF40C945B2250954095309521953F4FEA
:1044B0004F4F5F4F089590958095709561957F4F10
:1044C0008F4F9F4F0895EE0FFF1F0590F491E02D41
:1044D00009940E943A21B7FF0895821B930B089517
:1044E000AA1BBB1B51E107C0AA1FBB1FA617B7071A
:1044F00010F0A61BB70B881F991F5A95A9F7809536
:0C4500009095BC01CD010895F894FFCF08
:10450C004F4FF4010000FF00FF00FF00010000000E
:10451C00009E04930438041504F912F91211040DC9
:10452C00046809FD03F9129903000000009E04932E
:10453C000438041504ED02CA0211040D046809FDC7
:10454C000389119903000000001005BC05B1045D3E
:10455C0005E204C004D40400000000F912F912F9B9
:10456C0012210F1D0F1A0F00000000350ED90DD7A8
:10457C000D210F1D0FD40D730B443103014F4E024F
:10458C00024F460303424C05044C450305475205B4
:10459C00065245030753450308535406094C45047A
:1045AC000A5645070B4845040C574F040D414C095E
:1045BC000E5449040F43550710544504114144034C
:1045CC00125247031348490714484904154C4F032A
:1045DC0016454F03FF0000000088025B02E905311D
:1045EC00025402410232020D0A001B5B44003E20C1
:1045FC00424C494E4B20494E54455256414C205347
:10460C00455420544F3A200052656164204448546C
:10461C003232206661696C65642C206572723D00D3
:10462C002C0053616D706C65204F4B3A2000202A92
:10463C00432C20002052482500486F75723A200008
:10464C004D696E7574653A20005365636F6E643AFC
:10465C002000596561723A20004D6F6E74683A20E3
:10466C00004461793A2000455155414C533A2000A1
:10467C0054656D703A2000202A43200048756D69FE
:10468C00646974793A20004F6E3A200041743A20E4
:10469C0000484947484553542054454D503A200052
:0E46AC004C4F574553542054454D503A200072
:00000001FF
