:100000000C941F020C9447020C9447020C94470274
:100010000C9447020C9447020C9447020C9447023C
:100020000C9447020C9447020C9447020C9447022C
:100030000C9447020C9447020C9447020C9447021C
:100040000C94DE370C9447020C94AC370C94863732
:100050000C9447020C9447020C9447020C944702FC
:100060000C9467360C9447022041743A20004F6E7E
:100070003A200020524825200048756D6964697453
:10008000793A2000202A43200054656D703A200000
:10009000202A4320004C4F574553542054454D507F
:1000A0003A2000202A43200048494748455354201D
:1000B00054454D503A2000202A4320004C4F5745CC
:1000C00053542054454D503A2000202A43200048E4
:1000D0004947484553542054454D503A20002A4939
:1000E0004E56414C494420434F4D4D414E44002A09
:1000F000494E56414C494420434F4D4D414E4400DA
:10010000205248252000202A432000205248250064
:10011000202A462C2000202A432C2000205248254B
:100120000048756D69643A2000202A432000546518
:100130006D703A2000203C204572617365203E209E
:1001400054656D70205468726573686F6C647300D9
:10015000205E2049502F5375626E65742F4761747D
:1001600065776179003E3D003C3D00596573282D5F
:100170003E29204E6F28486F6D6529004172652029
:10018000596F7520537572653F00202A5041434BCB
:100190004554205245434549564544004D616A6FD8
:1001A00072204F766572004D696E6F72204F7665D2
:1001B0007200436F6D666F727461626C65004D69A9
:1001C0006E6F7220556E646572004D616A6F7220A9
:1001D000556E646572003E20424C494E4B20494E9C
:1001E00054455256414C2053455420544F3A200018
:1001F0004F4646003E2052474220003E2052474292
:1002000020003E2052474220424C494E4B494E4727
:10021000202800455155414C533A20004551554145
:100220004C533A20002A4E4F204441544120594516
:10023000540056657273696F6E3A20002D3E484532
:100240004C50002D3E56455253494F4E002D3E52C4
:10025000474220424C494E4B002D3E524742204FD0
:100260004646002D3E524742204F4E002D3E5247FB
:1002700042203C7265643E203C677265656E3E209C
:100280003C626C75653E002D3E414444203C6E75D9
:100290006D626572313E203C6E756D626572323EF4
:1002A000002D3E54454D502048494748204C4F575B
:1002B000002D3E54454D5020484953544F5259004B
:1002C0002D3E43555252454E542054454D50002D1D
:1002D0003E5345542054494D45203C6D6F6E746823
:1002E0003E203C6461793E203C796561723E203C51
:1002F000686F75723E203C6D696E7574653E203C7A
:100300007365636F6E643E002D3E43555252454EF9
:10031000542054494D45002D3E53544154555320CB
:100320004C454453002D3E424C494E4B203C6E758B
:100330006D6265723E002D3E4C454420414C544553
:10034000524E415445002D3E4C454420424C494EAE
:100350004B002D3E4C4544204F4646002D3E4C451B
:100360004420524544002D3E4C45442047524545CB
:100370004E0054686520617661696C61626C65202D
:10038000636F6D6D616E6473206172653A20000069
:100390000000080002010000030407000000000044
:1003A0000000003E57656C636F6D6520746F2041DF
:1003B000726475696E6F20436F6D6D616E64204C61
:1003C000696E6520496E7465727072657465722C11
:1003D00020656E746572202748454C502720666F53
:1003E00072206C697374206F6620636F6D6D616E2F
:1003F0006473210A00000000002300260029000089
:10040000000000250028002B000000000024002729
:10041000002A000102040810204080010204081094
:10042000200102040810200404040404040404024B
:100430000202020202030303030303007E391124B4
:100440001FBECFEFD8E0DEBFCDBF12E0A0E0B1E02D
:10045000E2E1FCE702C005900D92AA39B107D9F795
:1004600026E0AAE9B2E001C01D92A83EB207E1F77A
:1004700012E0CFE1D2E004C02197FE010E94E63DE8
:10048000CE31D107C9F70E9496390C94DF3A0C940B
:10049000000080E480937C0080917A0080648093E7
:1004A0007A0080917A0086FDFCCF8091780090914F
:1004B000790008958CBD9DBD0895E091B605F09139
:1004C000B7050190F081E02D682F86EB95E0099447
:1004D0009C0190E0F901E90FF11D8081811105C0B7
:1004E000DB018C918083118208959F5FF3CF80910F
:1004F0009F05811145C010929105109290058FEFD4
:100500008093940580939505809396058093970535
:10051000809398058093990581E080939A051092C5
:100520009C0510929B051092930510929205809164
:10053000D5069091D606892B31F48EE895E09093FC
:10054000D6068093D506E0918005F091810530971D
:1005500021F08EE895E0958384838EE895E0909372
:1005600081058093800510929E0510929D058FE372
:1005700092E090938F0580938E0581E080939F0594
:10058000E0918E05F0918F050480F581E02D8EE8D5
:1005900095E0099582E895E0909391058093900508
:1005A00084E090E090939C0580939B05E0918E05FC
:1005B000F0918F050284F385E02D8EE895E0099592
:1005C000009701F19C0150E040E060E472E48FE0AC
:1005D00090E00E94123C8091DE069091DF06A0918F
:1005E000E006B091E10682179307A407B50710F45F
:1005F000DA01C9018093DE069093DF06A093E0063E
:10060000B093E1068EE895E008958CE093E0909336
:100610007F0580937E050895089584E193E090938B
:100620007D0580937C050895089520912F05260F60
:100630003327331F21323105ECF420912C06FC01C5
:1006400090E080E0243069F082E00895A0912F05C9
:100650002191AC01415F5A4FA40FB52FB11D2C93CE
:100660000196861798F380912F05680F60932F05E8
:1006700080E0089581E008950895E091B5058091A6
:10068000B405E81730F4F0E0E45FF94F808190E0C2
:1006900008958FEF9FEF08959091B5058091B4056F
:1006A0002FEF3FEF981748F4E92FF0E0E45FF94FA0
:1006B000208130E09F5F9093B505C9010895809136
:1006C000B4059091B505891B990B0895CF92DF92DF
:1006D000EF92FF920F931F93CF93DF937C01CB0197
:1006E0008A012091C205222389F0EB016B01C40E1F
:1006F000D51ECC15DD0569F06991D701ED91FC910E
:100700000190F081E02DC7010995F3CF642F0E947D
:100710001503C801DF91CF911F910F91FF90EF90CA
:10072000DF90CF900895CF93DF931F92CDB7DEB7C0
:1007300069832091C2052223F9F02091C50520325A
:1007400058F021E030E0FC013383228390E080E028
:100750000F90DF91CF9108958091C305E82FF0E0CD
:10076000EA53FA4F998190838F5F8093C3058093FA
:10077000C50581E090E0ECCF61E0CE0101960E94DA
:100780001503F7CFFC0120812EBD9B0121503109BB
:1007900041F051810DB407FEFDCF4EB55EBD4193D2
:1007A000F5CF61507109860F971F0DB407FEFDCF7D
:1007B0002EB5FC0120830895E091FF04F09100051F
:1007C00080819091FE04892B80830895E091FF043D
:1007D000F091000590818091FE04809589238083AB
:1007E00008958EBD00000DB407FEFDCF8EB50895AF
:1007F000AF92BF92CF92DF92EF92FF920F931F932F
:10080000CF93DF93CDB7DEB728970FB6F894DEBF4E
:100810000FBECDBF8C017B016A01809174058333CB
:10082000E1F45801A40EB51EA016B10609F46FC07C
:100830000E94E60380EF0E94F103812F0E94F103E2
:10084000802F0E94F1030F5F1F4FF70181917F01FD
:100850000E94F1030E94DC03E7CF5B01A40EB51EEA
:100860008433C1F40E94E60319830A838D2D8068C6
:100870008B83CC8264E070E0CE0101960E94C203BB
:10088000AE14BF0409F441C0F70181917F010E94B9
:10089000F103F6CF0E94E6030F3F110509F028F49B
:1008A00019820A8384E08B830CC017FD17C019825C
:1008B0000A8333E0169507953A95E1F7007E0C60C0
:1008C0000B8386E0C816D104A0F5F701DE0114966B
:1008D000EA15FB0599F081918D93FACFC80126E0C6
:1008E000969587952A95E1F7807E19830A830115ED
:1008F000104C10F48461D7CF8C61D5CFB6016D5FF9
:100900007F4FCE0101960E94C2030E94DC03C60104
:1009100028960FB6F894DEBF0FBECDBFDF91CF9102
:100920001F910F91FF90EF90DF90CF90BF90AF900D
:10093000089563E070E0CE0101960E94C203F701C2
:1009400081917F010E94F103AE14BF04C1F7DDCF96
:10095000CF93DF931F92CDB7DEB7898341E050E09C
:10096000BE016F5F7F4F90E080E00E94F8030F9020
:10097000DF91CF91089590E020917405233339F4ED
:100980000C96982F990F990F990F80E0089548962B
:10099000F8CFDA01E091B305F0E0FE2FEE27E60F85
:1009A000F71F90E0982F8827A901BD018E0F9F1F88
:1009B0000C94F803CF93DF9300D0CDB7DEB77983E3
:1009C0006A8322E030E0AE014F5F5F4F64E070E089
:1009D0000E94C9040F900F90DF91CF910895CF939B
:1009E000DF931F92CDB7DEB72091B30530E0322FF1
:1009F0002227260F371F90E0982F8827498341E050
:100A000050E0BE016F5F7F4F820F931F0E94F8037B
:100A10000F90DF91CF910895CF92DF92EF92FF92E6
:100A20000F931F93CF93DF93EC017A016901E88163
:100A3000F9810190F081E02D0995E881F981008428
:100A4000F185E02D9801A601B701CE01DF91CF918C
:100A50001F910F91FF90EF90DF90CF9009946F92CC
:100A60007F928F929F92AF92BF92CF92DF92EF923E
:100A7000FF920F931F93CF93DF93CDB7DEB7AC9761
:100A80000FB6F894DEBF0FBECDBFDC011696ED9118
:100A9000FC91319609F48BC059013A016B018C012C
:100AA000FE0131964F0188E2DF011D928A95E9F738
:100AB000D801ED91FC910488F589E02DB401C801BD
:100AC00009957C01892B09F05CC01AA619A61CA601
:100AD0001BA6D801ED91FC910688F789E02D9E01B7
:100AE000255D3F4FAE01475D5F4FB401C8010995D9
:100AF0007C01892B09F045C0A114B10439F088E2CA
:100B0000F401D50101900D928A95E1F7C114D10449
:100B100009F189A59AA521E030E097FF02C02FEFE7
:100B20003FEF9F77829FB001839F700D929F700D62
:100B30001124072E000C880B990B0E94F23A20E03A
:100B400030E040E251E40E94043DF601608371838D
:100B50008283938361147104A1F06BA57CA5072E99
:100B6000000C880B990B0E94F23A20E030E040E242
:100B700051E40E94043DD3016D937D938D939C932A
:100B80001397C701AC960FB6F894DEBF0FBECDBF6A
:100B9000DF91CF911F910F91FF90EF90DF90CF9059
:100BA000BF90AF909F908F907F906F90089587E156
:100BB000E82EF12CE6CF8F929F92AF92BF92CF9208
:100BC000DF92EF92FF920F931F93CF93DF93EC018D
:100BD0008B016A017901E881F9810288F389E02DAE
:100BE0000995B82EB801685F7F4FE881F9810288C6
:100BF000F389E02DCE010995982EB801605F7F4FF3
:100C0000E881F9810288F389E02DCE010995A82EAB
:100C1000B801685E7F4FE881F9810288F389E02D91
:100C2000CE010995882EB801605E7F4FE881F98179
:100C30000288F389E02DCE0109959B2D990D9A0D1F
:100C4000980D891319C09A2D882DF6019183808300
:100C50009B2D892DF7019183808390E080E0DF91C7
:100C6000CF911F910F91FF90EF90DF90CF90BF90A9
:100C7000AF909F908F90089585E190E0F0CF47E08E
:100C800050E080E0FB012191BF01042E01C0220F42
:100C90000A94EAF7820F41505109A0F70895FC0128
:100CA000828590E00895FC01818590E00895CF92BF
:100CB000DF92EF92FF920F931F93CF93DF93EC019C
:100CC0007A016901E881F9810190F081E02D0995AF
:100CD000E881F9810480F581E02D9801A601B70132
:100CE000CE01DF91CF911F910F91FF90EF90DF9098
:100CF000CF900994CF92DF92EF92FF920F931F93C0
:100D0000CF93DF93CDB7DEB728970FB6F894DEBF49
:100D10000FBECDBFDC011696ED91FC91319609F422
:100D200040C08A017B0119821A821B821C821D82AB
:100D30001E821F821886DC01ED91FC910084F185F2
:100D4000E02DAE014B5F5F4FBE016F5F7F4F099596
:100D50006C01892BB1F4E114F10441F069817A81CD
:100D60008B819C810E94763DF701608301151105FE
:100D700041F06D817E818F8198850E94763DD801FA
:100D80006C93C60128960FB6F894DEBF0FBECDBF98
:100D9000DF91CF911F910F91FF90EF90DF90CF9057
:100DA000089587E1C82ED12CECCF262F2D7F29F472
:100DB000FC01608790E080E0089588E190E008956C
:100DC000DC0117967C936E931697FB01ED5EFB4F4B
:100DD000E4911996EC931997695D7B4FFB0164913F
:100DE0001A966C9308956AE00E94C63D292F30E15F
:100DF000839FC0011124822B0895982F92959F7094
:100E00008F702AE0929F800D112408950895CF934A
:100E1000DF931F92CDB7DEB76983DC01ED91FC91C2
:100E20000280F381E02D41E050E0BE016F5F7F4F13
:100E300009950F90DF91CF910895DF92EF92FF9285
:100E40000F931F93CF93DF9300D0CDB7DEB7FB0195
:100E5000DC0157961C921E9256972281211109C0DF
:100E60002381211106C02481211103C02581222361
:100E700069F14115510551F17A018F01FC01D08CC6
:100E800080E591E00E945A02A8014E5F5F4F24E086
:100E900030E06CE070E08D2D0E94C904F982EA8296
:100EA00022E030E0AE014F5F5F4F60E170E08D2DDA
:100EB0000E94C90481E090E00F900F90DF91CF91E4
:100EC0001F910F91FF90EF90DF90089580E0F3CF96
:100ED000FC01818D928D0895FC018485958508958E
:100EE000FC0184899589089529E232E0FC0131836F
:100EF0002083FB014089518962897389FC01428307
:100F00005383648375830895FC01538D448D252F8D
:100F100030E0842F90E0821B930B541710F0CF9693
:100F2000089501970895FC01918D828D981761F0C5
:100F3000A28DAE0FBF2FB11D5D968C91928D9F5FDC
:100F40009F73928F90E008958FEF9FEF0895FC01BB
:100F5000918D828D981731F0828DE80FF11D858D6E
:100F600090E008958FEF9FEF0895FC01918D228D01
:100F7000892F90E0805C9F4F821B91098F73992786
:100F80000895FC01A48DA80FB92FB11DA35ABF4F1E
:100F90002C91848D90E001968F739927848FA68978
:100FA000B7892C93A089B1898C91837080648C93CC
:100FB000938D848D981306C00288F389E02D80817B
:100FC0008F7D80830895EF92FF920F931F93CF93AD
:100FD000DF93EC0181E0888F9B8D8C8D98131AC074
:100FE000E889F989808185FF15C09FB7F894EE895B
:100FF000FF896083E889F9898081837080648083B8
:101000009FBF81E090E0DF91CF911F910F91FF9002
:10101000EF900895F62E0B8D10E00F5F1F4F0F73AA
:101020001127E02E8C8D8E110CC00FB607FCFACF65
:10103000E889F989808185FFF5CFCE010E94C1073B
:10104000F1CFEB8DEC0FFD2FF11DE35AFF4FF08236
:101050009FB7F8940B8FEA89FB8980818062CFCF9C
:10106000CF93DF93EC01888D8823B9F0AA89BB89DF
:10107000E889F9898C9185FD03C0808186FD0DC0CA
:101080000FB607FCF7CF8C9185FFF2CF808185FFEB
:10109000EDCFCE010E94C107E9CFDF91CF91089536
:1010A00082E396E00E94B50721E0892B09F420E055
:1010B000822F089580E090E0892B29F00E9450084B
:1010C00081110C9400000895DC01ED91FC910190D8
:1010D000F081E02D0994EF92FF920F931F93CF932D
:1010E000DF938C017B01D0E0C0E0F701EC0FFD1F26
:1010F0006491662361F0D801ED91FC910190F0813B
:10110000E02DC8010995892B11F02196EECFCE0173
:10111000DF91CF911F910F91FF90EF900895AF92C3
:10112000BF92CF92DF92EF92FF920F931F93CF93D4
:10113000DF936C017B018B01040F151FEB015E0136
:10114000AE18BF08C017D10759F06991D601ED91CB
:10115000FC910190F081E02DC6010995892B79F76A
:10116000C501DF91CF911F910F91FF90EF90DF901C
:10117000CF90BF90AF9008950895089590E0FC013E
:10118000E157FC4F2491FC01ED5EFB4F3491FC01D3
:10119000E95DFB4FE491EE23C9F0222339F02330BF
:1011A00001F1A8F4213019F1223029F1F0E0EE0F1D
:1011B000FF1FE150FC4FA591B4918FB7F894EC91CB
:1011C000611126C030953E233C938FBF0895273090
:1011D000A9F02830C9F0243049F7809180008F7D34
:1011E00003C0809180008F7780938000DFCF84B52B
:1011F0008F7784BDDBCF84B58F7DFBCF8091B0002E
:101200008F778093B000D2CF8091B0008F7DF9CFDF
:101210003E2BDACF10922C0681E080930B061092C1
:10122000060661E082E10E94BE0861E083E10E945F
:10123000BE08E9EBF0E080818E7F808380818D7F26
:10124000808388E48093B80085E48093BC0008958F
:101250001092B5051092B4051092C3051092C50501
:101260000E940A090E940D030C940503CF93DF939B
:1012700091E090930E058823B9F0C091B800D09109
:10128000BA008091BC008A7B8093BC0060E082E160
:101290000E94BE0860E083E10E94BE080E940A0925
:1012A000D093BA00C093B800DF91CF910895CF9347
:1012B000DF9390E0FC01ED5EFB4F2491895D9B4F35
:1012C000FC0184918823C9F090E0880F991FFC01EC
:1012D000E75FFB4FA591B491FC01E150FC4FC59134
:1012E000D49161110DC09FB7F8948C912095822301
:1012F0008C938881282328839FBFDF91CF91089505
:10130000623051F49FB7F8943C91822F80958323EB
:101310008C93E8812E2BEFCF8FB7F894EC912E2B86
:101320002C938FBFEACF789484B5826084BD84B556
:10133000816084BD85B5826085BD85B5816085BDD0
:10134000EEE6F0E0808181608083E1E8F0E01082E9
:10135000808182608083808181608083E0E8F0E02A
:10136000808181608083E1EBF0E080818460808314
:10137000E0EBF0E0808181608083EAE7F0E080814B
:1013800084608083808182608083808181608083AB
:101390008081806880831092C1000895813091051A
:1013A00039F0880F991F880F991F05970197F1F75A
:1013B00008953FB7F8948091B9049091BA04A09130
:1013C000BB04B091BC0426B5A89B05C02F3F19F003
:1013D0000196A11DB11D3FBFBA2FA92F982F8827B5
:1013E000BC01CD01620F711D811D911D42E0660F90
:1013F000771F881F991F4A95D1F70895CF92DF92E2
:10140000EF92FF920F931F93CF93C82F813208F072
:1014100096C00E94D9096B017C0180912C06811134
:1014200069C081E080932C0680930B069FEF909318
:101430000A06109209069C0F9093080680930706EF
:1014400080910706806D80930706809106068130A3
:1014500009F077C0109206060E94D9096B017C0141
:10146000809107068093BB0080912E0690912F06F5
:10147000A0913006B0913106892B8A2B8B2BA1F0DD
:101480000E94D90900912E0610912F062091300656
:10149000309131066C197D098E099F0906171707CF
:1014A0002807390708F447C08091BC0083FDD8CFD6
:1014B00085EC8093BC000E94D9096B017C0180916E
:1014C0002C06813009F43FC0809109068C1710F476
:1014D000C0910906A6EEB5E0ECE0F6E080E08C13E2
:1014E00054C08C2FCF911F910F91FF90EF90DF9000
:1014F000CF90089580912E0690912F06A0913006EE
:10150000B0913106892B8A2B8B2B09F486CF0E9450
:10151000D90900912E0610912F06209130063091A6
:1015200031066C197D098E099F09061717072807D0
:10153000390708F072CF80912D060E943609C0E06D
:10154000D0CF85EEB6CF80912E0690912F06A09138
:101550003006B0913106892B8A2B8B2B09F4AFCF43
:101560000E94D90900912E0610912F062091300675
:10157000309131066C197D098E099F0906171707EE
:101580002807390708F09BCFD6CF9D9191938F5FA5
:10159000A6CF8F929F92AF92BF92CF92DF92EF929F
:1015A000FF920F931F93CF93DF93613208F0D1C066
:1015B000142FD62FC82F0E94D9096B017C0180916E
:1015C0002C0681116BC082E080932C0610930B06D1
:1015D0008FEF80930A0610920906D0930806A6ECB6
:1015E000B5E0E6EEF5E080E0D8138BC01092070678
:1015F00080910706CC0FC82BC09307068091060682
:10160000813009F082C0109206060E94D9096B0150
:101610007C01809107068093BB0080912E069091FB
:101620002F06A0913006B0913106892B8A2B8B2B87
:10163000A1F00E94D90900912E0610912F06209149
:101640003006309131066C197D098E099F09061705
:1016500017072807390708F442C08091BC0083FDB2
:10166000D8CF85EC8093BC000E94D9096B017C0126
:1016700080912C06823009F44AC080910A068F3F7F
:1016800009F469C080910A06803209F466C080912D
:101690000A06803309F463C084E026C080912E06D8
:1016A00090912F06A0913006B0913106892B8A2B9C
:1016B0008B2B09F484CF0E94D90980902E0690903C
:1016C0002F06A0903006B09031066C197D098E0966
:1016D0009F0986169706A806B90608F070CF809174
:1016E0002D060E94360985E0DF91CF911F910F9161
:1016F000FF90EF90DF90CF90BF90AF909F908F9032
:1017000008959D9191938F5F6FCF85EEABCF8091C0
:101710002E0690912F06A0913006B0913106892BAC
:101720008A2B8B2B09F4A4CF0E94D90900912E0695
:1017300010912F0620913006309131066C197D09E9
:101740008E099F09061717072807390708F090CF59
:10175000C6CF81E0C9CF80E0C7CF82E0C5CF83E0AC
:10176000C3CF482F6091C5058091C4050E94C90A66
:101770001092C3051092C5051092C2050895FC0190
:10178000248131E03093C2052093C4051092C30533
:101790001092C5058385862B90E00E945D0281E052
:1017A0000C94B10B0F931F93CF938C01C62F0E9403
:1017B000BF0B6C2F6460C8010E94BF0B81E090E0FA
:1017C0000E94CE096C2F6B7FC8010E94BF0B82E381
:1017D00090E0CF911F910F910C94CE09CF93C82F19
:1017E000682F607F87EA95E00E94D20B80E1C89F56
:1017F000B001112487EA95E0CF910C94D20BCF93DE
:10180000DF93CDB7DEB728970FB6F894DEBF0FBED3
:10181000CDBF98E0E0E2F1E0DE01119601900D927B
:101820009A95E1F79091B005961708F46FEF70E084
:10183000660F771F21E030E02C0F3D1F620F731FF2
:10184000FB019081890F806828960FB6F894DEBF5F
:101850000FBECDBFDF91CF910C94EE0B81E00E94C3
:10186000EE0B80ED97E00C94CE09E7EAF5E0868177
:10187000982F926096838A600C94EE0BE7EAF5E06D
:1018800086818D7F868388600C94EE0B0F931F9367
:10189000CF938C01C62F607F61600E94D20B80E1E4
:1018A000C89FB00111246160C8010E94D20B81E081
:1018B00090E0CF911F910F910895CF93C62F91E0A3
:1018C0009093C20598E69093C4051092C3051092B8
:1018D000C505682F86EB95E00E9493036C2F86EB7D
:1018E00095E00E94930381E0CF910C94B10B91E0BD
:1018F0009093C20598E69093C4051092C305109288
:10190000C505682F86EB95E00E94930381E00C9457
:10191000B10B7F928F929F92AF92BF92CF92DF9244
:10192000EF92FF920F931F93CF93DF93EC01162F4B
:101930007A0169010E94D9094B015C01712C1111D6
:10194000798410E000E060E070E0CB012A813B8107
:101950004C815D812617370748075907F4F00115B8
:10196000110561F5C7011E141F0464F10E94D90915
:10197000681979098A099B09EA85F0E0EE0FFF1FD3
:10198000EB50FC4FA591B4912C910F5F1F4F3985FF
:101990002323271105C097FFD9CF6FEF7FEFCB012E
:1019A000DF91CF911F910F91FF90EF90DF90CF903B
:1019B000BF90AF909F908F907F9008951C141D044E
:1019C000ACF6C6010E94CE09D1CF8F929F92AF9202
:1019D000BF92CF92DF92EF92FF924B015C010E9487
:1019E000D9096B017C010E94D9096C197D098E0906
:1019F0009F09683E734081059105A8F321E0821A92
:101A00009108A108B10888EEC80E83E0D81EE11C39
:101A1000F11C81149104A104B10429F7FF90EF9007
:101A2000DF90CF90BF90AF909F908F9008952FB789
:101A3000F8946091B5047091B6048091B7049091C8
:101A4000B8042FBF08954F925F926F927F929F923A
:101A5000AF92BF92CF92DF92EF92FF920F931F93BC
:101A6000CF93DF9300D01F92CDB7DEB7D090DB06C7
:101A70008091DE069091DF06A091E006B091E1062C
:101A8000892B8A2B8B2BD9F00E94D9090091D7067C
:101A90001091D8062091D9063091DA06601B710B9F
:101AA000820B930B0091DE061091DF062091E00679
:101AB0003091E1066017710782079307C8F20E9410
:101AC000D9096093D7067093D8068093D90690936E
:101AD000DA06E091E606F091E706309759F040917A
:101AE000E2065091E3066091E4067091E5068D2DC3
:101AF0000995D82EE090D506F090D6064D2C512CA5
:101B0000712C612CE114F10409F459C0D7011C9621
:101B1000CC901C978091DC069091DD06843691056F
:101B200010F41C961C92D701ED91FC91A280B38019
:101B300019821A821B82DD2079F1F701369610E0B6
:101B400000E02191222319F19280992001F130E0E7
:101B500050E040E02F5F3F4F4F4F5F4FC301B20156
:101B60000E94B63D9B01AC01892D90E0B0E0A0E061
:101B7000BC01CD016F5F7F4F8F4F9F4F0E94B63DDD
:101B8000A1E0B0E0AC0FBD1FA00FB11F8C930F5FA1
:101B90001F4F03301105A9F609811A812B81F70126
:101BA0004585568562817381C701F5010995D70185
:101BB0001C96CC921C971496ED90FC90A3CF80912C
:101BC000D3069091D4068C010F5F1F4F1093D4065B
:101BD0000093D3064997B4F10E94170DC090CF0629
:101BE000D090D006E090D106F090D2069B01AC01D7
:101BF0002C193D094E095F0921F421E030E040E055
:101C000050E088EE93E0089FB001099F700D189F87
:101C1000700D1124072E000C880B990B0E943C3C80
:101C20003093DD062093DC061092D4061092D30682
:101C30000E94170D6093CF067093D0068093D10653
:101C40009093D2060F900F900F90DF91CF911F913C
:101C50000F91FF90EF90DF90CF90BF90AF909F904B
:101C60007F906F905F904F9008950F931F93CF9345
:101C7000DF9320918E042F5F322F377030938E04C4
:101C800020FF2BC020E831FD2064347009F0206271
:101C9000205FFC01EC01239600E011E064856623DF
:101CA00029F070E0C8010E94D23D6F5F6187322F3A
:101CB000369F030E30E0311D1124311110C0168201
:101CC000662311F0615061873196EC17FD0731F7FB
:101CD000DF91CF911F910F91089520E0D4CF315023
:101CE0003683EECF4F925F927F928F929F92AF9208
:101CF000BF92CF92DF92EF92FF920F931F93CF93F9
:101D0000DF932C01EB010E94D909F201278530896C
:101D1000621B730B6A307105B0F3F8948A819B8162
:101D2000181619060CF0CDC1E881F9816BB1862E29
:101D3000689487F83BB13F773BB9D9848E812D2DCC
:101D4000281B822F2E834F85042E000C550BAA8151
:101D5000BB817C85FD84EE847F5FF394E3949F8157
:101D60009884BA84AB841081C12C6C2D0C2D2C2D41
:101D70002081112788942111280F08F42FEF8195D5
:101D8000889470FD120F1795889471FD120F1795A6
:101D9000889472FD120F1795889473FD120F179592
:101DA000889474FD120F1795889475FD120F17957E
:101DB000889476FD120F1795889477FD120F17956A
:101DC0008894622F7111612F8D0D162F002C8BB806
:101DD00000C017FF3BB921816627889400C000C06E
:101DE000002C3BB92111290F00C0002C8BB800C07A
:101DF00016FF3BB908F42FEF9195889400C000C0FE
:101E0000002C3BB9F0FC620F00C0002C8BB800C066
:101E100015FF3BB967958894F1FC620F00C000C0C4
:101E2000002C3BB96795889400C0002C8BB800C08B
:101E300014FF3BB9F2FC620F6795889400C000C0A4
:101E4000002C3BB9F3FC620F00C0002C8BB800C023
:101E500013FF3BB967958894F4FC620F00C000C083
:101E6000002C3BB96795889400C0002C8BB800C04B
:101E700012FF3BB9F5FC620F6795889400C000C063
:101E8000002C3BB9F6FC620F00C0002C8BB800C0E0
:101E900011FF3BB967958894F7FC620F00C000C042
:101EA000002C3BB96795889400C0002C8BB800C00B
:101EB00010FF3BB9122FF110162F9B0D00C000C070
:101EC000002C3BB900C000C0002C8BB800C017FF2D
:101ED0003BB922816627889400C000C0002C3BB922
:101EE0002111290D00C0002C8BB800C016FF3BB992
:101EF00008F42FEFE40FF51F00C000C0002C3BB921
:101F0000E0FC620F00C0002C8BB800C015FF3BB98D
:101F100067958894E1FC620F00C000C0002C3BB9BB
:101F20006795889400C0002C8BB800C014FF3BB9A3
:101F3000E2FC620F6795889400C000C0002C3BB99A
:101F4000E3FC620F00C0002C8BB800C013FF3BB94C
:101F500067958894E4FC620F00C000C0002C3BB978
:101F60006795889400C0002C8BB800C012FF3BB965
:101F7000E5FC620F6795889400C000C0002C3BB957
:101F8000E6FC620F00C0002C8BB800C011FF3BB90B
:101F900067958894E7FC620F00C000C0002C3BB935
:101FA0006795889400C0002C8BB800C010FF3BB927
:101FB000122FE110162F919400C000C0002C3BB9E5
:101FC0009A0C00C000C08BB800C017FF3BB920813D
:101FD0006627889400C000C0002C3BB92111280F4F
:101FE00000C0002C8BB800C016FF3BB908F42FEFDF
:101FF0008195889400C000C0002C3BB970FD620F31
:1020000000C0002C8BB800C015FF3BB967958894C1
:1020100071FD620F00C000C0002C3BB96795889429
:1020200000C0002C8BB800C014FF3BB972FD620FDA
:102030006795889400C000C0002C3BB973FD620F07
:1020400000C0002C8BB800C013FF3BB96795889483
:1020500074FD620F00C000C0002C3BB967958894E6
:1020600000C0002C8BB800C012FF3BB975FD620F99
:102070006795889400C000C0002C3BB976FD620FC4
:1020800000C0002C8BB800C011FF3BB96795889445
:1020900077FD620F00C000C0002C3BB967958894A3
:1020A00000C0002C8BB800C010FF3BB9122F71117B
:1020B000162F8D0D00C000C0002C3BB9119709F000
:1020C00086CE4A815B8120EE31E0DA010E94EC3D50
:1020D000DC01CB01F4E0B695A79597958795FA9525
:1020E000D1F730E020E0B901EAE94E9F040E611D0E
:1020F0005E9F600D711D1124650F711D860F971F66
:10210000A11DB11D893E43E09407A105B10508F466
:1021100034C0885E9340A109B10942E0B695A79505
:10212000979587954A95D1F747E0849F080E211D22
:10213000949F200D311D1124290F311D60918D04B4
:1021400070E0860F971F820F931F4091B504509146
:10215000B6046091B7047091B804292F3327420F59
:10216000531F611D711D4093B5045093B6046093D5
:10217000B7047093B80480938D0478940E94D909B1
:10218000F201708B6787DF91CF911F910F91FF90C4
:10219000EF90DF90CF90BF90AF909F908F907F9007
:1021A0005F904F90089580E991E00895579A0895BF
:1021B0006F927F928F92CF92DF92EF92FF920F9366
:1021C0001F93CF93DF93CDB7DEB762970FB6F89426
:1021D000DEBF0FBECDBF6C017A013801822EDC015B
:1021E0001C962C91CA0157FF04C088279927841B8D
:1021F000950B7A8369839C838B839E838D836D8605
:102200007E868F86213049F5CE0101960E94350EDB
:1022100083E0888B1A8A198AF7FE02C08DEF888BBB
:10222000D601ED91FC910484F585E02DBE016F5F30
:102230007F4FC601099562960FB6F894DEBF0FBEB8
:10224000CDBFDF91CF911F910F91FF90EF90DF9065
:10225000CF908F907F906F9008951C861B861A8672
:10226000198618861F82D4CFEF92FF920F931F9387
:10227000CF93DF93CDB7DEB762970FB6F894DEBF8A
:102280000FBECDBF7C01DC011C968C917A836983E3
:102290005C834B835E834D830D871E872F87813040
:1022A000F9F4CE0101960E94350E188A1A8A198A0D
:1022B000D701ED91FC910484F585E02DBE016F5F9F
:1022C0007F4FC701099562960FB6F894DEBF0FBE27
:1022D000CDBFDF91CF911F910F91FF90EF900895A7
:1022E0001C861B861A86198618861F82DECFCF931E
:1022F000DF93FC01EB0164E670E00E94D23D9F0198
:10230000281B390BCF016AE070E00E94D23D280FF4
:10231000391F4AE04C9FC0014D9F900D1124820F40
:10232000931FDF91CF910895FB0164E670E00E9456
:10233000D23D44E64E9F90014F9F300D1124820FF5
:10234000931F0895E2E8F5E0108211821282109244
:10235000C2020C94230DE2E8F5E080911001808325
:1023600080911201818380910E01828381E08093AC
:10237000C2020C94230D0F931F930E94170D00911E
:10238000A1021091A2022091A3023091A40206178B
:1023900017072807390720F48091E202811104C051
:1023A0008091E102882359F11092E1020E94170DF9
:1023B00000910A0110910B0120910C0130910D0147
:1023C000DC01CB01800F911FA21FB31F8093A102DC
:1023D0009093A202A093A302B093A4028091C202A0
:1023E000882331F01092C2021F910F910C94A21118
:1023F00081E08093C2021F910F910C94AB111F9149
:102400000F9108958091E50280939F028091E602EA
:1024100080939E028091E7028093A0028091E8025F
:1024200080939C028091E90280939B028091EA0252
:1024300080939A0281E08093C20588E68093C40568
:102440001092C3051092C50590E080E00E945D02E5
:1024500080919A020E94F306682F86EB95E00E9415
:10246000930380919B020E94F306682F86EB95E010
:102470000E94930380919C020E94F306682F86EBD2
:1024800095E00E94930380919D02811101C081E03B
:102490000E94F306682F86EB95E00E9493038091DB
:1024A0009E020E94F306682F86EB95E00E9493033C
:1024B00080919F020E94F306682F86EB95E00E94B0
:1024C00093038091A0020E94F306682F86EB95E0AB
:1024D0000E94930381E00C94B10B0F931F93CF9351
:1024E000DF93EC01E0E0F0E060E070E0CB01DE01C2
:1024F000AE0FB11D2C91222309F12D3211F4EF5FA3
:10250000F1E0DE01AE0FB11D0C9120ED200F2A305D
:1025100018F5AAE0B0E09B01AC010E94313C002E0E
:10252000000C110B220B330B600F711F821F931FC6
:102530006053710981099109EF5FD9CFFF2339F009
:1025400090958095709561957F4F8F4F9F4FDF914C
:10255000CF911F910F9108956FEF7FEFCB01F7CFD0
:10256000FC0190E030E020E07AE0DF01A90FB11D2E
:102570006C916623A1F080ED860F8A3070F4729F13
:10258000A001739F500D11249A01260F311D67FD84
:102590003A95205331099F5FE8CF2FEF3FEFC901F4
:1025A0000895DC01ED91FC91048CF58DE02D0994EA
:1025B00090E080E00895FC018585968508950F934D
:1025C0001F93CF93DF9300D01F92CDB7DEB7AB013F
:1025D00019821A821B82DC01ED91FC910190F0813D
:1025E000E02D00E010E020E0BE016F5F7F4F099515
:1025F0000F900F900F90DF91CF911F910F91089541
:1026000090E080E008950E944902823391058CF0A9
:10261000833C91058CF08C3721E0920784F08B325B
:1026200022E092077CF0863193407CF090E080E0DD
:10263000089581E090E0089582E090E0089583E0BD
:1026400090E0089584E090E0089585E090E008959A
:102650000F931F93CF93DF930E940313EC010E940B
:10266000170D0091A5021091A6022091A7023091AA
:10267000A8020617170728073907B0F4CD2BC9F0B1
:102680000E94031390938A04809389040E94170D7B
:102690006C507E4F8F4F9F4F6093A5027093A602A0
:1026A0008093A7029093A802DF91CF911F910F9181
:1026B00008950E94170D6C597F4F8F4F9F4FECCF9D
:1026C000BF92CF92DF92EF92FF920F931F93CF931F
:1026D000DF9300D000D000D01F92CDB7DEB780E0EE
:1026E0000E94770C87E00E94FE091092B505809346
:1026F000B4058730E1F586EB95E00E944C030E941B
:10270000FD06B82E86EB95E00E944C030E94FD0664
:10271000C82E86EB95E00E944C03182F86FF3EC022
:102720008F710E94FD060CE015FD00E0080F86EB9E
:1027300095E00E944C030E94FD06D82E86EB95E0A2
:102740000E944C030E94FD06E82E86EB95E00E9455
:102750004C0310E087FD14E68F770E94FD06F82EEB
:1027600086EB95E00E944C030E94FD06180F2B2D6E
:102770003C2D402F5D2DB701812F90E027960FB69D
:10278000F894DEBF0FBECDBFDF91CF911F910F91A7
:10279000FF90EF90DF90CF90BF9008958F730E94CD
:1027A000FD06082FC4CFCF93DF93EB010E94770C77
:1027B00081E00E94FE091092B5058093B40586EB76
:1027C00095E00E944C03888381E0DF91CF910895CA
:1027D000EF92FF921F93CF93DF931F92CDB7DEB797
:1027E0007C01162FBE016F5F7F4F8EE00E94D313D6
:1027F000811108C080E00F90DF91CF911F91FF9071
:10280000EF90089581E08093C20588E68093C40527
:102810001092C3051092C505113089F587E090E04C
:102820000E945D02F70180810E94F30690E00E9401
:102830005D02898185608983F70181810E94F306A9
:1028400090E00E945D02F70182810E94F30690E011
:102850000E945D02F70184810E94F30690E00E94CD
:102860005D0281E00E94B10B8111C4CF69818EE0CD
:102870000E945D0C8111BECF812F8770BCCF8BE091
:1028800090E00E945D0289818660D5CF85ED8093BE
:10289000BC0080912E0690912F06A0913006B09139
:1028A00031060796A11DB11D23E0B695A795979512
:1028B00087952A95D1F72091BC0024FD03C0109282
:1028C0002C06089540912E0650912F0660913006F7
:1028D00070913106452B462B472B69F30097A105D4
:1028E000B10541F025E32A95F1F700000197A10910
:1028F000B109E1CF80912D060C943609AF92BF92B9
:10290000CF92DF92EF92FF920F931F93CF93DF93BB
:1029100000D000D0CDB7DEB78C016B017A01809179
:1029200074058333E9F45B016801C40ED51EC0163B
:10293000D106A9F10E94E6038FE00E94F103812FE6
:102940000E94F103802F0E94F1030F5F1F4F80E070
:102950000E94F103F50181935F010E94DC03E7CF40
:10296000843369F50E94E60319830A838F2D8F77DC
:102970008B83EC8264E070E0CE0101960E94C2037A
:10298000A70170E060E0C6010E94903CE114F104F0
:1029900021F0B701C6010E94C2030E94DC03C701F7
:1029A0000F900F900F900F90DF91CF911F910F918B
:1029B000FF90EF90DF90CF90BF90AF9008950E946E
:1029C000E6030F3F110509F030F419820A831B82D8
:1029D00063E070E0D1CF17FD0BC019820A8333E0AA
:1029E000169507953A95E1F7007E08600B83F0CFC6
:1029F000C80126E0969587952A95E1F7807E198390
:102A00000A830115104C18F480618B83E1CF886133
:102A1000FCCFFA012091B30530E0322F2227260F98
:102A2000371F90E0982F882742E050E0BF01820FC7
:102A3000931F0C947E14FF920F931F93CF93DF93F9
:102A400000D0CDB7DEB7F82EAE014F5F5F4F66E224
:102A500070E00E94091509811A81102701271027AB
:102A6000AE014F5F5F4F66E270E08F2D0E94091547
:102A700089819A819827892798270817190749F487
:102A8000C8010F900F90DF91CF911F910F91FF9090
:102A900008958C01E5CF3F924F925F926F927F92A3
:102AA0008F929F92AF92BF92CF92DF92EF92FF925E
:102AB0000F931F93CF93DF9300D0CDB7DEB75C01A8
:102AC0004B01342E452EFC0166887788508C80E5BA
:102AD00091E00E945A02AE014F5F5F4F60E270E0EA
:102AE000852D0E940915C980DA80DC24CD24DC24E0
:102AF000AE014F5F5F4F60E270E0852D0E940915C7
:102B000089819A81982789279827C816D90609F0BC
:102B100077C0E52CF12C67E0569EF0011124E85AAD
:102B2000FA4FD582C482032D142DC016D10608F4A5
:102B30008601AE014F5F5F4F64E270E0852D0E9419
:102B4000091589819A81982789279827680E791E07
:102B50009301377040917405433309F053C088E006
:102B6000E80EF11CFE2CEE24FF0CFF0CFF0CC9013B
:102B70008E0D9F1D473309F449C0A901400F511F15
:102B80004130584008F442C060E078E06B01C21A5E
:102B9000D30AA601B4010E94F803A8014C195D09EB
:102BA000B4016C0D7D1DC7010E94F803600E711EFB
:102BB00079826A8222E030E0AE014F5F5F4F64E2CB
:102BC00070E0852D0E94C904F50186899789800FE0
:102BD000911F978B868BC8010F900F90DF91CF913B
:102BE0001F910F91FF90EF90DF90CF90BF90AF902B
:102BF0009F908F907F906F905F904F903F9008953F
:102C00006C0176CFE0E1EE0EF11CACCFA801B4016F
:102C1000CBCFCF93DF931F92CDB7DEB741E050E02B
:102C2000BE016F5F7F4F0E947E1489810F90DF91FC
:102C3000CF91089590E080E00C940916CF93DF9334
:102C4000C4E1D0E00E941A16882361F061E070E0D0
:102C500080E090E00E94E50C2197A1F780E0DF91F1
:102C6000CF91089581E0FBCFDF92EF92FF920F9317
:102C70001F93CF93DF9300D0CDB7DEB760E372E050
:102C800080E090E00E94E50CDFB6F89401E314E0E8
:102C90003DE1E32E34E0F32E80910105811125C042
:102CA000F8018491F7019491E82FF0E0EE0FFF1FF7
:102CB000E75FFB4FA591B4918C91982321F461E0DB
:102CC0008AE00E94BE0861E08AE00E9457098CB544
:102CD00080618CBD8CB580648CBD61E08DE00E940C
:102CE000570961E08BE00E945709809101058F5FD1
:102CF00080930105DFBEF8010491E02FF0E0EE0FB4
:102D0000FF1FE150FC4F85919491909300058093B3
:102D1000FF04F701E490E092FE0461E08AE00E9483
:102D200057090E94DC0380E591E00E945A0284E387
:102D30008093740580E80E94A8040E941E168823D0
:102D400009F441C088E00E94A8040E941A16883045
:102D5000D1F580E10E94A8040E941A16803199F5ED
:102D600080E00E94A8040E941A16182F81112BC01F
:102D70008FE190E00E940916833029F580E480936A
:102D8000B30542E06EE170E0812F0E94EF0442E063
:102D90006FE170E0812F0E94EF041F5F143089F70C
:102DA00040E06EE170E0812F0E94EF0440E06FE1AF
:102DB00070E0812F0E94EF041F5F183089F781E0D7
:102DC00080937B0564C087E38093740580E80E944C
:102DD000A8040E941E168823F9F088E00E94A80427
:102DE0000E941A168830C1F480E10E94A8040E9453
:102DF0001A16182F803181F480E00E94A8040E94E6
:102E00001A16811109C089E390E00E9409168430E6
:102E100019F41093B305D3CF83E38093740580E84E
:102E20000E94A8040E941E16882371F180E10E946E
:102E3000A8040E941A16803139F582E10E94A80484
:102E40000E941A16823101F580E00E94A8040E94B7
:102E50001A16811119C084E08093B30515E51A8311
:102E600041E050E0BE016E5F7F4F8BE190E00E9439
:102E7000F803198341E050E0BE016F5F7F4F8AE1A4
:102E800090E00E94F8039BCF1092740580E00F90B1
:102E90000F90DF91CF911F910F91FF90EF90DF90F6
:102EA0000895CF92DF92EF92FF92CF93DF93CDB749
:102EB000DEB7C254D1090FB6F894DEBF0FBECDBF46
:102EC000FC01428153816481758123964CAF5DAFD3
:102ED0006EAF7FAF239781E023968FAF2397239622
:102EE000CCACDDACEEACFFAC2397CBAADCAAEDAA50
:102EF000FEAA4DA75EA76FA778AB88ABCDA4DEA4D2
:102F0000EFA4F8A8CFA2D8A6E9A6FAA68EABCBA8C4
:102F1000DCA8EDA8FEA8C9A2DAA2EBA2FCA229E2D5
:102F200032E03C8B2B8B9FEF9D8B9E8B9F8B188E63
:102F30003E872D878AA7CFA0D8A4E9A4FAA4CF867C
:102F4000D88AE98AFA8A8CA389A19AA1ABA1BCA1EB
:102F500089879A87AB87BC873A8329834B835C83B5
:102F60006D837E8380917B05882309F443C080E5CF
:102F700091E00E945A0246E050E06AE171E089E087
:102F800090E00E94F80344E050E0BE016D5F7F4F87
:102F90008FE090E00E94F80344E050E0BE01615FE2
:102FA0007F4F81E090E00E94F80344E050E0BE01D2
:102FB0006B5E7F4F85E090E00E94F80381E08C8794
:102FC00089859A85AB85BC85809377059093780534
:102FD000A0937905B0937A05CE5BDF4F0FB6F894D6
:102FE000DEBF0FBECDBFDF91CF91FF90EF90DF909E
:102FF000CF9008950E943416882371F3B8CF2091A2
:10300000B30530E0322F2227620F731F90E0982F14
:103010008827860F971F0C940916CF93C82F462F29
:1030200061E070E00E94EF0461E070E08C2F0E948C
:10303000FF178111F9CFCF9108958F929F92AF9290
:10304000BF92CF92DF92EF92FF921F93CF93DF93C5
:10305000CDB7DEB72C970FB6F894DEBF0FBECDBF4D
:103060002091740514E0222339F16B017C0180E585
:1030700091E00E945A025E0127E0A20EB11C4501B8
:1030800010E063E070E0812F0E94FF17F40181934C
:103090004F01882349F11F5F143099F710E0F501C3
:1030A00081915F018D31D9F08831C9F08A51823028
:1030B000B0F01F5F143099F7812F2C960FB6F8945B
:1030C000DEBF0FBECDBFDF91CF911F91FF90EF907C
:1030D000DF90CF90BF90AF909F908F90089560E168
:1030E00070E0812F0E940D18A12EB12C8AEF90E084
:1030F0000E94CE0942E870E060E0812F0E94EF0458
:103100004FEF62E070E0812F0E94EF04B601C1141E
:10311000D10491F4809118019091190101968115C3
:10312000F0EC9F0708F462C0909319018093180196
:103130006091180170911901812F0E94DA0486E0D4
:10314000E8E2F1E0DE01119601900D928A95E1F737
:10315000F70183818F778C8384818D8385818E8332
:10316000A7014E5F5F4F24E030E06CE070E0812FFC
:103170000E94C904DB86CC8622E030E0AE01455FC8
:103180005F4F60E170E0812F0E94C90426E030E0CB
:10319000AE014F5F5F4F66E070E0812F0E94C9046F
:1031A00061E070E0812F0E940D1827E02A9DC00188
:1031B0002B9D900D11249C01285A3A4F7901F90159
:1031C00011821082AE01455F5F4F68E270E0812F8F
:1031D0000E9409158B859C85982789279827F701D8
:1031E0009383828316821582148266CF80E090ECEE
:1031F0009BCF4F925F927F928F929F92AF92BF929E
:10320000CF92DF92EF92FF920F931F93CF93DF93B2
:1032100000D0CDB7DEB7782E6B014A01A82EB12CB5
:1032200027E0829FC0011124FC01E85AFA4F7F0178
:103230000081118180E591E00E945A02081519056C
:1032400054F4872D0E941B15F70126818C01021B67
:103250001109118300830115110529F563E070E060
:10326000872D0E94FF17843159F0882349F001E02F
:1032700010E08C3111F410E000E011950195110976
:10328000C8010F900F90DF91CF911F910F91FF9088
:10329000EF90DF90CF90BF90AF909F908F907F90F6
:1032A0005F904F900895801691060CF4840187E09A
:1032B0008A9DF0018B9DF00D1124E85AFA4FE280AF
:1032C000F380C114D10451F12701F7E05F22872D6B
:1032D0000E94BB04840D951D20917405273309F4C9
:1032E00053C09801240D351D2130384008F44CC0DE
:1032F00020E038E0490184189508A401B6010E9435
:103300007E142601480C591C6801C818D908872D5D
:103310000E94BB04A601B2010E947E14E00EF11EC1
:1033200087E08A9DF0018B9DF00D1124E85AFA4F39
:10333000F382E28220813181201B310B3183208393
:103340008681800F912F911D8A3F910510F4232BC8
:10335000F1F487E08A9DF0018B9DF00D1124E85A6D
:10336000FA4F1682F982EA8222E030E0AE014F5F26
:103370005F4F68E270E0872D0E94C90460E470E04E
:10338000872D0E940D187CCFA801B601C5CF86837A
:1033900077CFCF93DF93FC01218D328D211531053D
:1033A00029F48FEF9FEFDF91CF910895EC01808D8D
:1033B0004217530708F0A9010E94F91818161906B8
:1033C00084F7298D3A8D281B390B3A8F298FEBCF43
:1033D0000F931F93CF93DF931F92CDB7DEB7FC01FE
:1033E000218D328D232B41F48FEF9FEF0F90DF91D2
:1033F000CF911F910F9108958C0141E050E0BE01E3
:103400006F5F7F4FFC01808D0E94F9181816190616
:103410005CF7F801818D928D0197928F818F898160
:1034200090E0E4CFCF93C82F80E591E00E945A024C
:1034300060E170E08C2FCF910C940D18CF92DF9249
:10344000EF92FF920F931F93CF93DF9300D000D0A2
:1034500000D0CDB7DEB78C016B017A01FC01808D05
:10346000843010F40E94121A89E292E09A838983D0
:10347000F60182819381A481B5818B839C83AD8386
:10348000BE83B701CE0101960E941D18F801808FFE
:103490008430A0F4F586E486128E118E81E02696A3
:1034A0000FB6F894DEBF0FBECDBFDF91CF911F9155
:1034B0000F91FF90EF90DF90CF90089580E0EFCFD5
:1034C000CF93DF93EC01888D843020F40E94121A90
:1034D00084E0888FDF91CF910895CF93FC01C08D58
:1034E00080E591E00E945A0260E270E08C2F0E9419
:1034F0000D1862E070E08C2F0E94FF1784FD16C04B
:1035000062E070E08C2F0E94FF1783FF0AC048E141
:1035100062E070E08C2F0E94EF0480E090E0CF9199
:10352000089580E591E00E945A02E3CF40E162E015
:1035300070E08C2F0E94EF0481E0F0CF8F929F9279
:10354000AF92BF92CF92DF92EF92FF921F93CF93F1
:10355000DF9300D000D000D0CDB7DEB76C015B01A7
:10356000FC01808D843010F40E94121A8091740541
:10357000811115C094E0F601908F26960FB6F8944D
:10358000DEBF0FBECDBFDF91CF911F91FF90EF90B7
:10359000DF90CF90BF90AF909F908F90089580E57F
:1035A00091E00E945A029E012F5F3F4F790149012D
:1035B00010E063E070E0812F0E94FF17F401819317
:1035C0004F01882309F11F5F143099F710E0F701CC
:1035D00081917F018D3199F0883189F08A51823053
:1035E00070F01F5F143099F7F601108F80E01430EF
:1035F00021F2B586A486128E118E81E0BECF60E1E5
:1036000070E0812F0E940D18812E912C8AEF90E09E
:103610000E94CE0942E070E060E0812F0E94EF043A
:103620004FEF62E070E0812F0E94EF04B501A1141A
:10363000B10489F4809118019091190101968115C6
:10364000F0EC9F0788F19093190180931801609125
:10365000180170911901812F0E94DA0461E070E075
:10366000812F0E940D1827E0289DC001299D900DF3
:1036700011249C01285A3A4F7901F90111821082D4
:10368000AE014B5F5F4F68E270E0812F0E94091529
:103690008D819E81982789279827F70193838283BC
:1036A000168215821482A0CF80E090ECCCCF1F93BD
:1036B000CF93DF931F92CDB7DEB7FC01108D14308E
:1036C00020F5818D928D892B01F180E591E00E949A
:1036D0005A02812F0E94BB0427E0129FF00111249F
:1036E000E85AFA4F22813381377041E050E0BE0141
:1036F0006F5F7F4F820F931F0E947E14898190E03D
:103700000F90DF91CF911F9108958FEF9FEFF8CF2A
:10371000EF92FF920F931F93CF93DF93EC018B01F6
:1037200088E2FB0111928A95E9F761E08E810E949F
:10373000570960E08E810E94BE0888EE93E00E94E7
:10374000CE0961E08E810E94BE0868858E810E944C
:10375000570988E290E00E94CE09E881F98100884B
:10376000F189E02D26E030E04AE050E060E0CE0153
:1037700009956E317105810591056CF4982F872F9D
:10378000762F66276061CB01DF91CF911F910F915A
:10379000FF90EF900895E881F9810088F189E02D8C
:1037A00026E030E04AE050E061E0CE010995780182
:1037B000F8E2EF0EF11C623371058105910534F4D6
:1037C000982F872F762F66276161DDCFE881F981F9
:1037D0000088F189E02D26E030E04AE050E060E02A
:1037E000CE010995683171058105910534F4982F52
:1037F000872F762F66276261C6CFE881F98100881E
:10380000F189E02D26E030E04AE050E061E0CE01B1
:1038100009956B3071058105910534F4982F872F38
:10382000762F66276361AFCF21E06932710581058C
:1038300091050CF420E0F80121938F01EE16FF06AC
:1038400029F6E881F9810088F189E02D26E030E051
:103850004AE050E060E0CE010995683171058105CC
:10386000910534F4982F872F762F662764618BCFCC
:1038700070E060E088CFDF92EF92FF920F931F938A
:10388000CF93DF93CDB7DEB728970FB6F894DEBF9E
:103890000FBECDBF8C01D80159964D915C915A97BE
:1038A0004115510551F0ED91FC91048CF58DE02D01
:1038B00070E060E0C8010995EECFF801D08CF7E028
:1038C000DF9EC00111249C01285A3A4F7901D90189
:1038D0008D919C91892B59F148E050E0BE016F5FBA
:1038E0007F4FF801808D0E94F9181816190694F57B
:1038F000D801509684E0FE01319601900D928A9590
:10390000E1F78D8190E0982F88272E81820F911DFD
:10391000F801958B848B8F81282F30E0322F22275E
:103920008885820F932F911D928F818F13C080E520
:1039300091E00E945A028D2D0E941B15D701169608
:103940002C911697821B91098D939C93892B21F6BC
:1039500090E080E028960FB6F894DEBF0FBECDBF92
:10396000DF91CF911F910F91FF90EF90DF9008951D
:103970006F927F928F929F92AF92BF92CF92DF927F
:10398000EF92FF920F931F93CF93DF93CDB7DEB7E4
:10399000EC970FB6F894DEBF0FBECDBF4C018B0184
:1039A0003A0189E292E09A8389831C861B8648EE5D
:1039B00053E060E070E04D875E876F87788B2DEE77
:1039C00031E03A872987988F8F8B198E1A8E1B8E3C
:1039D0001C8E24E029A399AB88AB1AAA1BAA1CAAA7
:1039E0001DAA8091770590917805A0917905B091F5
:1039F0007A058EA39FA3A8A7B9A78B839C83AD83C9
:103A0000BE8318861F82F80120E090E080E06AE023
:103A10003191332309F47AC040ED430F4A3008F066
:103A200064C0689FA001699F500D1124CA01C0970E
:103A3000830F911D37FD9A958F3F910549F340F310
:103A40004B815C816D817E818091EE049091EF04C9
:103A5000A091F004B091F104481759076A077B0759
:103A600009F428C20E94170D6F7077277C5FCE0182
:103A700009960E949E1A813009F01FC289E292E0E5
:103A80009DA38CA38B819C81AD81BE818EA39FA3BE
:103A9000A8A7B9A745E350E0BE016C5D7F4FCE01FA
:103AA00009960E941D07892B09F04EC010E000E026
:103AB000CE0109960E94601A0130110559F1C80122
:103AC000EC960FB6F894DEBF0FBECDBFDF91CF915D
:103AD0001F910F91FF90EF90DF90CF90BF90AF902C
:103AE0009F908F907F906F9008953E3209F0A8CFFD
:103AF000233009F4A5CFA2E3B0E0AC0FBD1FA20FA5
:103B0000B11D8C932F5F90E080E082CF233009F0CD
:103B100097CF8DABD401ED91FC910488F589E02D10
:103B200089E292E09DA38CA38AA99BA9ACA9BDA917
:103B30008EA39FA3A8A7B9A7A301BE016C5D7F4F69
:103B4000C40109958C01BBCF0E94170D78876F8344
:103B500042E050E0BE01695F7F4FCE0109960E94AE
:103B60004B1581E090E09DA38CA342E050E0BE01A4
:103B70006C5D7F4FCE0109960E944B1580E091E06D
:103B80009DA38CA342E050E0BE016C5D7F4FCE014F
:103B900009960E944B151DA21CA242E050E0BE01F6
:103BA0006C5D7F4FCE0109960E944B1542E050E0BC
:103BB000BE016C5D7F4FCE0109960E944B1542E01D
:103BC00050E0BE016C5D7F4FCE0109960E944B15FF
:103BD0007801D8018C91882311F18701F801819136
:103BE0006F01882311F08E32C1F45801AE18BF085E
:103BF0001A141B0484F4AEAA41E050E0BE016A5CD2
:103C00007F4FCE0109960E944B15A501B701CE0149
:103C100009960E944B157601DCCF8601DFCF1EAAE4
:103C200041E050E0BE016A5C7F4FCE0109960E94E0
:103C30004B1500E011E01DA30CA342E050E0BE01D3
:103C40006C5D7F4FCE0109960E944B151DA30CA3FE
:103C500042E050E0BE016C5D7F4FCE0109960E94AC
:103C60004B15CE0109960E946D1A892B09F41ECFBF
:103C700083E0E82EF12CD7C04B815C816D817E8181
:103C8000898D9A8DAB8DBC8D481759076A077B07C4
:103C900009F00AC18D8D9E8DC59709F005C18AA1D5
:103CA0009BA10DEF1FEF0C970CF4B4C04CE050E05B
:103CB000BE016C5D7F4FCE0109960E94C9198EA18D
:103CC0009FA19827892798279BAF8AAF4F81588556
:103CD0002CA13DA14217530709F0E9C097FFE7C0A7
:103CE0008F7092700BEF1FEF892B09F093C0AAA47D
:103CF000BBA4BA24AB24BA240AEF1FEFA114B10469
:103D000009F488C010E000E088A599A598278927C4
:103D100098270817190708F541E050E0BE016A5CD2
:103D20007F4FCE0109960E94C9194EA9442339F04C
:103D300050E070E060E0CE0109960E94C9198EA99A
:103D40008111EACF44E050E070E060E0CE010996D6
:103D50000E94C9190F5F1F4FD7CFD12CC12C41E052
:103D600050E0BE01645C7F4FCE0109960E94C919E4
:103D70004CAD842F807C09F074C0442339F050E0AE
:103D800070E060E0CE0109960E94C9198CAD8111E6
:103D9000E6CF42E050E0BE01685C7F4FCE0109965D
:103DA0000E94C91942E050E0BE016A5C7F4FCE011B
:103DB00009960E94C91944E050E070E060E0CE012D
:103DC00009960E94C91942E050E0BE01665C7F4F2F
:103DD000CE0109960E94C91988AD99AD4AAD5BAD77
:103DE0008115914009F047C00EA91FA9102701278E
:103DF00010270130110509F03EC04115544009F06B
:103E00004DC044E050E0BE016E5C7F4FCE0109968C
:103E10000E94C919F1E0EF1AF10809F449CE0F3FE9
:103E2000100709F045CE0E94170D5B016C01CE0111
:103E300009960E943B1C181619060CF41DCF0E940F
:103E4000170D6A197B098C099D0969387341810531
:103E5000910538F562E370E080E090E00E94E50CA7
:103E6000E6CF41E050E070E060E0CE0109960E94AC
:103E7000C9191CAE8BCF54274527542770E060E04A
:103E8000CE0109960E94C919EFEFCE1ADE0AAC14D2
:103E9000BD0409F064CF06EF1FEFBCCF07EF1FEFA3
:103EA000B9CF0FEF1FEFB6CF0EEF1FEFB3CF0CEF71
:103EB0001FEFB0CF0EEF1FEF02CE10E000E0FFCDFE
:103EC0000E94833CFB0101900020E9F73197AF018C
:103ED000461B570BDC01ED91FC910280F381E02D34
:103EE0000994CF93DF93BC0182E396E00E946B08B4
:103EF000EC016DE472E082E396E00E94621F8C0F99
:103F00009D1FDF91CF910895CF93DF9300D000D014
:103F100000D0CDB7DEB78FEE90E00E94711F89E22E
:103F200092E09A8389838091910490919204A09168
:103F30009304B09194048B839C83AD83BE834AEB3E
:103F400055ECBE016F5F7F4F8FEB94E00E941D0721
:103F50006EED70E08FEB94E00E946B088FEB94E0C5
:103F60000E946D1A26960FB6F894DEBF0FBECDBF25
:103F7000DF91CF9108958F929F92AF92BF92EF926F
:103F8000FF920F931F93CF93DF93CDB7DEB7A19727
:103F90000FB6F894DEBF0FBECDBF7C01FA01CB0196
:103FA00019A2223008F42AE08E010F5D1F4F822EE5
:103FB000912CB12CA12CBF01A50194010E943C3C85
:103FC000F901CA016A300CF5605DD8016E938D016C
:103FD000232B242B252B79F790E080E0109721F0FC
:103FE000BD01C7010E94621FA1960FB6F894DEBF03
:103FF0000FBECDBFDF91CF911F910F91FF90EF903A
:10400000BF90AF909F908F900895695CDECFCF9264
:10401000DF92EF92FF920F931F93CF93DF9377FF7F
:104020001DC06A017B01EC016DE20E9464088C01F5
:1040300044275527BA014C195D096E097F092AE00A
:10404000CE010E94BB1F800F911FDF91CF911F9166
:104050000F91FF90EF90DF90CF9008952AE0DF91CD
:10406000CF911F910F91FF90EF90DF90CF900C9424
:10407000BB1FAB01770F660B770B0C940720AB01CE
:1040800070E060E02AE00C94BB1F462F50E070E027
:1040900060E02AE00C94BB1F8F929F92AF92BF9278
:1040A000CF92DF92EF92FF920F931F93CF93DF9304
:1040B0007C018B014C0182E0880E911C5701E5E0E8
:1040C000AE0EB11CD0E0C0E0F40161914F01C80117
:1040D0000E9445206C016EE2C8010E9464088C0DAC
:1040E0009D1DC80FD91F8A149B0471F7F7016581C4
:1040F000C8010E9445208C0F9D1FDF91CF911F9119
:104100000F91FF90EF90DF90CF90BF90AF909F9076
:104110008F900895CF93DF93C82FD62F60E00E9431
:10412000FF0B6D2F87EA95E00E94452061E08C2F00
:10413000DF91CF910C94FF0B0F931F93CF93DF93DD
:1041400000D000D000D0CDB7DEB70E94601320931E
:104150009A0230939B0240939C0250939D0260937D
:104160009E0270939F028093A00289E292E09A835C
:1041700089838091910490919204A0919304B091CD
:1041800094048B839C83AD83BE834AEB55ECBE01C4
:104190006F5F7F4F8FEB94E00E941D070AE912E0EA
:1041A000F80165818FEB94E00E9445206FE28FEB70
:1041B00094E00E946408F80164818FEB94E00E940F
:1041C00045206FE28FEB94E00E946408F80166815D
:1041D0008FEB94E00E94452060E28FEB94E00E9418
:1041E0006408F80162818FEB94E00E9445206AE345
:1041F0008FEB94E00E946408F80161818FEB94E0FA
:104200000E9445206AE38FEB94E00E946408F80165
:1042100060818FEB94E00E9445208FEB94E00E9438
:104220006D1A26960FB6F894DEBF0FBECDBFDF9194
:10423000CF911F910F9108952F923F924F925F92CD
:104240006F927F928F929F92AF92BF92CF92DF92A6
:10425000EF92FF921F93CF93DF93EC016A017B01F2
:10426000722EAB019601CB01B6010E94B13D60E513
:1042700072E0811126C046015701E894B7F82FEF8C
:104280003FEF4FE75FE7C501B4010E94B13D8111E7
:104290000CC02FEF3FEF4FE75FE7C501B4010E946D
:1042A000EB3A64E572E0181664F02FEF3FEF4FE74A
:1042B0005FE4C701B6010E94AC3D1816B4F468E58E
:1042C00072E0CE01DF91CF911F91FF90EF90DF90D0
:1042D000CF90BF90AF909F908F907F906F905F90A6
:1042E0004F903F902F900C94621F2FEF3FEF4FE7BE
:1042F0005FECC701B6010E94EB3A87FDE0CF20E0FA
:1043000030E0A901C701B6010E94EB3A312C212C03
:1043100087FF09C06DE2CE010E9464081C01F7FA14
:10432000F094F7F8F09410E060E070E080E09FE334
:10433000711641F020E030E040E251E40E94043D7B
:104340001F5FF6CFA70196010E94983C2B013C010C
:104350000E947D3D4B015C012AE0BC01A401CE011D
:104360000E94BB1F7C01E20CF31C1123A1F1C501CB
:10437000B4010E94F03A9B01AC01C301B2010E945A
:10438000973C4B015C016EE2CE010E946408E80E8E
:10439000F91E115000F120E030E040E251E4C50187
:1043A000B4010E94513B2B013C010E947D3D4B0119
:1043B000CE010E943F20E80EF91EB40190E080E09B
:1043C0000E94F03A9B01AC01C301B2010E94973CEC
:1043D0004B015C01DECFC701DF91CF911F91FF90B0
:1043E000EF90DF90CF90BF90AF909F908F907F9095
:1043F0006F905F904F903F902F9008950C94621FA4
:10440000FC01808191810C946D3CEF92FF920F939F
:104410001F93CF93DF9300D000D0CDB7DEB7082F26
:104420000E942E0C10E01C830B83CE0103960E9489
:104430000022E82EC80101969A838983CE01019655
:104440000E940022F82E60E080E00E94FF0BB7017E
:1044500087EA95E00E94392066E071E087EA95E0FE
:104460000E946B08C80102969A838983CE01019647
:104470000E940022682F70E087EA95E00E943920B0
:1044800060E071E087EA95E00E946B0861E080E0FF
:104490000E94FF0BC80106969A838983CE0101967C
:1044A0000E940022682F87EA95E00E9445206FE273
:1044B00087EA95E00E946408C80107969A83898379
:1044C000CE0101960E940022682F87EA95E00E94A3
:1044D00045206FE287EA95E00E946408C8010596CE
:1044E0009A838983CE0101960E940022682F87EA71
:1044F00095E00E94452060E287EA95E00E9464080A
:10450000C80103969A838983CE0101960E940022F6
:10451000682F87EA95E00E9445206AE387EA95E0E4
:104520000E9464080C5F1F4F1A830983CE01019615
:104530000E940022682F87EA95E00E944520109291
:10454000BE041092BD040F900F900F900F90DF915A
:10455000CF911F910F91FF90EF900895AF92BF926E
:10456000CF92DF92EF92FF920F931F93CF93DF933F
:1045700000D000D000D0CDB7DEB7DD24D3945DE00D
:10458000C52E08EE13E0F12CE12C2D2D30E08091AA
:10459000A0049091A10497FD079643E09595879517
:1045A0004A95E1F7281739072CF5AC2CB12CBA82C3
:1045B000A982CE0101960E9400228E151F0439F0B7
:1045C00034F0CE0101960E940022E82EF12CBA822E
:1045D000A982CE0101960E9400228017110634F4B0
:1045E000CE0101960E940022082F10E088E0C80E3C
:1045F000D394CBCF6FEC70E082E396E00E946B081F
:10460000B70182E396E00E9439208AEC90E00E9494
:10461000711F6CEB70E082E396E00E946B08B801BA
:1046200082E396E00E94392087EB90E00E94711FA0
:1046300089E292E09A838983809191049091920417
:10464000A0919304B09194048B839C83AD83BE832B
:104650004AEB55ECBE016F5F7F4F8FEB94E00E94F9
:104660001D0768EA70E08FEB94E00E946B08B701C9
:104670008FEB94E00E94392063EA70E08FEB94E0C6
:104680000E946B0865E970E08FEB94E00E946B0874
:10469000B8018FEB94E00E94392060E970E08FEB65
:1046A00094E00E946B088FEB94E00E946D1A2696AE
:1046B0000FB6F894DEBF0FBECDBFDF91CF911F9133
:1046C0000F91FF90EF90DF90CF90BF90AF90089543
:1046D000CF92DF92EF92FF920F931F93CF93DF93CE
:1046E000CDB7DEB728970FB6F894DEBF0FBECDBFAB
:1046F0000DE010E089E2C82E82E0D82E8091A0045F
:104700009091A104081719070CF0B9C018870F83FE
:10471000CE0107960E940022E82EC80101969A83D6
:104720008983CE0101960E940022F82EDA82C98286
:104730008091910490919204A0919304B09194047B
:104740008B839C83AD83BE834AEB55ECBE016F5FC8
:104750007F4F8FEB94E00E941D0769E870E08FEBBC
:1047600094E00E946B08B7018FEB94E00E9439201F
:1047700064E870E08FEB94E00E946B0869E770E0FA
:104780008FEB94E00E946B08C80102969A8389839C
:10479000CE0101960E940022682F8FEB94E00E94C8
:1047A000452063E770E08FEB94E00E946B086EE6B3
:1047B00070E08FEB94E00E946B08C80106969A8324
:1047C0008983CE0101960E940022682F8FEB94E02E
:1047D0000E9445206FE28FEB94E00E946408C801BC
:1047E00007969A838983CE0101960E940022682F42
:1047F0008FEB94E00E9445206FE28FEB94E00E94E3
:104800006408C80105969A838983CE0101960E94A7
:104810000022682F8FEB94E00E94452068E670E04C
:104820008FEB94E00E946B08C80103969A838983FA
:10483000CE0101960E940022682F8FEB94E00E9427
:1048400045206AE38FEB94E00E946408C801049657
:104850009A838983CE0101960E940022682F8FEBF4
:1048600094E00E9445208FEB94E00E946D1A8091A5
:104870008B048F5F80938B04085F1F4F3FCF289678
:104880000FB6F894DEBF0FBECDBFDF91CF911F9161
:104890000F91FF90EF90DF90CF900895CF93DF932B
:1048A000CDE0D0E060E0CE010E94753C2196C115BC
:1048B00084E0D807B9F78CE090E09093A10480934E
:1048C000A0046CE0DF91CF910C94753C2F923F9245
:1048D0004F925F926F927F928F929F92AF92BF9210
:1048E000CF92DF92EF92FF920F931F93CF93DF93BC
:1048F000CDB7DEB7C255D1090FB6F894DEBF0FBEF3
:10490000CDBF0E94170DC090A902D090AA02E090DE
:10491000AB02F090AC02C616D706E806F906C0F462
:1049200030E020E045EB52E069EB72E085E994E08D
:104930000E942F050E94170D68577C4E8F4F9F4F86
:104940006093A9027093AA028093AB029093AC0289
:104950000E94170DC090AD02D090AE02E090AF0261
:10496000F090B002C616D706E806F90608F085C032
:104970008091EC02882309F480C030E020E045EB10
:1049800052E069EB72E085E994E00E942F0589E22C
:1049900092E09A8389838091910490919204A091EE
:1049A0009304B09194048B839C83AD83BE834AEBC4
:1049B00055ECBE016F5F7F4F8FEB94E00E941D07A7
:1049C0004091B9025091BA026091BB027091BC0251
:1049D00022E08FEB94E00E941C2166E171E08FEBF6
:1049E00094E00E946B0826E636E646EE5FE36091AF
:1049F000B9027091BA028091BB029091BC020E94F0
:104A0000513B20E030E040E052E40E94983C0E949C
:104A1000763D8FEB94E00E94392060E171E08FEBEE
:104A200094E00E946B084091B5025091B6026091EB
:104A3000B7027091B80222E08FEB94E00E941C2133
:104A40006BE071E08FEB94E00E946B088FEB94E0D9
:104A50000E946D1A0E94170D68577C4E8F4F9F4F12
:104A60006093AD027093AE028093AF029093B00258
:104A700080918B048F5F80938B040E946013298741
:104A80003A874B875C876D877E878F873111B8C0E7
:104A90000E9460132DA33EA34FA358A769A77AA72E
:104AA0008BA72111D1C030E020E045EB52E069EB4B
:104AB00072E085E994E00E942F056091B90270913F
:104AC000BA028091BB029091BC020E94763D7A832B
:104AD00069836091B5027091B6028091B70290919E
:104AE000B8020E94763D6B830E9460132CA73DA7FD
:104AF0004EA75FA768AB79AB8AAB4C830E9460136B
:104B00002BAB3CAB4DAB5EAB6FAB78AF89AF3D83AE
:104B10000E9460132AAF3BAF4CAF5DAF6EAF7FAF6B
:104B200021968FAF21978E830E94601322962FAF1C
:104B3000229723963FAF239724964FAF249725962D
:104B40005FAF259726966FAF269727967FAF27975B
:104B500028968FAF28977F830E94601329962FAFE6
:104B600029972A963FAF2A972B964FAF2B972C96D3
:104B70005FAF2C972D966FAF2D972E967FAF2E9708
:104B80002F968FAF2F976887C090A004D090A10474
:104B900076012FEFE21AF20AAE014F5F5F4F5A0122
:104BA00059E0C50ED11C6196FFAEEEAE6197D501FE
:104BB0000D915D01CE01815B9F4F0E94002208177D
:104BC00021F0602FC7010E94753CBFEFEB1AFB0A72
:104BD000CE14DF0441F76091A0047091A104685FD6
:104BE0007F4F7093A1046093A0048CE090E00E943A
:104BF000753C6CE474E080E090E00E94E50C24C019
:104C00000E946013288B398B4A8B5B8B6C8B7D8B5E
:104C10008E8B3F3009F43CCF0E9460132F8B388F6E
:104C2000498F5A8F6B8F7C8F8D8F3E3109F430CF37
:104C30000E9460132E8F3F8F48A359A36AA37BA3C2
:104C40008CA33D3209F424CF0E94BB118091160140
:104C500090911701059709F071C00E9403137C0120
:104C60000E94170D8090B1029090B202A090B30202
:104C7000B090B40286169706A806B906B8F4EF28D5
:104C800009F480C00E9403139093BE048093BD0476
:104C90000E94170D6C507E4F8F4F9F4F6093B10253
:104CA0007093B2028093B3029093B402E090BD047B
:104CB000F090BE04E5E0EE16F10409F06AC00E942F
:104CC0002E0C6EE271E087EA95E00E946B0840913D
:104CD000B9025091BA026091BB027091BC0222E00D
:104CE00087EA95E00E941C2169E271E087EA95E07D
:104CF0000E946B0861E080E00E94FF0B61E271E0BE
:104D000087EA95E00E946B084091B5025091B60287
:104D10006091B7027091B80222E087EA95E00E94A4
:104D20001C216CE171E087EA95E00E946B0810920B
:104D3000BE041092BD0486E0809315018091160197
:104D400090911701019709F07CC00E9428130E94DE
:104D50003E0C8091890490918A048130910509F07C
:104D6000EFC1209114012850209314018091A004D8
:104D70009091A1048C30910509F057C08DE080938B
:104D8000140157C00E94170D6C597F4F8F4F9F4FD2
:104D900085CFF1E0EF16F10441F48DE00E94052289
:104DA000F0921701E0921601C9CF22E0E216F10459
:104DB00029F500918C04D0908B040E942E0C6CE598
:104DC00072E087EA95E00E94FE216D2D87EA95E06A
:104DD0000E94452061E080E00E94FF0B63E672E0E4
:104DE00087EA95E00E94FE21602F87EA95E00E9405
:104DF00045201092BE041092BD04D2CF43E0E416C9
:104E0000F104F9F40E942E0C60E571E087EA95E068
:104E10000E946B0861E080E00E94FF0B65E371E097
:104E200087EA95E00E946B08E4CF87502D3008F4A4
:104E3000A6CF809114010E94052210928A0410923C
:104E400089048091160190911701029799F40E94AC
:104E500028130E943E0C8091890490918A0481302D
:104E6000910509F088C18CE10E94EE0B10928A0432
:104E7000109289048091160190911701039709F00F
:104E80007BC00E9428130E943E0C8091890490915F
:104E90008A048430910509F07CC188E090E0909309
:104EA0001701809316010E942E0C68E671E087EAD4
:104EB00095E00E946B086091000187EA95E00E94EE
:104EC000452060E287EA95E00E9464086091010154
:104ED00087EA95E00E9445206DE287EA95E00E940E
:104EE00064086091020187EA95E00E94452060E233
:104EF00087EA95E00E9464086091030187EA95E0E3
:104F00000E9445206DE287EA95E00E946408609166
:104F1000040187EA95E00E94452060E287EA95E077
:104F20000E9464086091050187EA95E00E9445208F
:104F30006DE287EA95E00E9464086091060187EAC5
:104F400095E00E94452060E287EA95E00E946408AF
:104F500065E671E087EA95E00E946B0860910701C1
:104F600087EA95E00E9445201092BE041092BD048D
:104F700010928A0410928904809116019091170171
:104F80000697D1F40E9428138091890490918A0495
:104F90008430910509F056C10E944E2485E090E0CE
:104FA00090931701809316019093BE048093BD04E3
:104FB00010928A0410928904809116019091170131
:104FC000079751F50E94281361E0809115010E9416
:104FD000FF0B0E94350C8091890490918A048130E6
:104FE000910509F038C18CE10E94EE0B809115010A
:104FF000811103C088E280931501809115018150D1
:105000008093150161E00E94FF0B81E0809388048A
:1050100010928A04109289048091160190911701D0
:10502000089751F50E94281361E0809115010E94B4
:10503000FF0B0E94350C8091890490918A04813085
:10504000910509F0CAC38CE10E94EE0B8091150115
:10505000811103C088E28093150180911501815070
:105060008093150161E00E94FF0B81E0809388042A
:1050700010928A041092890462961FAE62970E9471
:10508000170D609384047093850480938604909335
:10509000870480918304882331F08DE062968FAF7E
:1050A000629710928304E0917405E353E53008F4AD
:1050B0009FC71092850580E880938605109287052A
:1050C0000E94230D82E396E00E94B507892B11F41C
:1050D0000C943A3182E396E00E9493070E94883C48
:1050E00062968FAF6297BE016F5A7F4F85E694E05C
:1050F0000E94680262968FAD62978F3711F00C9410
:1051000031316EE672E082E396E00E94FE2168E7AC
:1051100072E082E396E00E94FE216EE672E082E396
:1051200096E00E94FE2180E0E82FF0E0DF01AB591D
:10513000BB4F9C91992311F40C9427318F5FF4CFCE
:105140008430910579F480911401885F8093140173
:105150002091A0043091A1048217130609F00CF4E9
:1051600068CE0CCE8530910509F067CE909317017B
:105170008093160162CE8430910511F488E174CEDB
:105180008530910509F072CE909317018093160136
:105190006DCE8230910551F587E090E09093170134
:1051A000809316010E942E0CF12CE12C0E2DFA8218
:1051B000E982CE0101960E940022682F87EA95E0DD
:1051C0000E9445208E2D8B7F833019F06EE20B30CC
:1051D00009F460E287EA95E00E9464085FEFE51A4F
:1051E000F50A8CE0E816F10409F7BECE813091058E
:1051F000C9F486E090E090931701809316010E9415
:105200002E0C6CE771E087EA95E00E946B0861E084
:1052100080E00E94FF0B6BE671E087EA95E00E9458
:105220006B08A2CE8330910521F488E10E94EE0B39
:105230009FCE8530910509F09BCE90931701809306
:10524000160196CE8530910509F0B2CE90931701E4
:1052500080931601ADCE8230910509F095C2009180
:105260001501033008F04BC080918804E82EF12C22
:1052700090E080E00E946D3C282F30E001110AC0D0
:10528000B701C9010E9494118F3F910511F00CF0F4
:10529000AFC117C0013029F4B701C9010E947711CD
:1052A000F3CFC9016AE070E00E94D23DD901A81B8A
:1052B000B90BCD018E0D9F1D8F3F910511F00CF0A4
:1052C000AFC0682F90E080E00E94753C60E0809164
:1052D00015010E94FF0B6091880487EA95E00E9407
:1052E000452061E0809115010E94FF0B80918804A8
:1052F0008F5F8A3009F492C08093880491C0073090
:10530000C0F5043099F481E090E00E946D3C60911A
:10531000880470E090E00E9494118F3F910511F095
:105320000CF066C1682F81E090E0CECF053059F4D3
:1053300081E090E00E946D3C6091880470E090E014
:105340000E947711EACF063009F06AC081E090E050
:105350000E946D3C282F30E0C9016AE070E00E9495
:10536000D23D281B390B80918804820F932F911D09
:10537000D4CF0830D1F482E090E00E946D3C282F19
:1053800030E0C9016AE070E00E94D23D281B390B71
:1053900060918804620F732F711D6F3F710511F0CA
:1053A0000CF026C182E090E08FCF0D30C8F50A30B6
:1053B00099F483E090E00E946D3C6091880470E075
:1053C00090E00E9494118F3F910511F00CF010C1F4
:1053D000682F83E090E078CF0B3059F483E090E0C1
:1053E0000E946D3C6091880470E090E00E9477110B
:1053F000EACF0C30A9F483E090E00E946D3C282FA6
:1054000030E0C9016AE070E00E94D23D281B390BF0
:1054100080918804820F932F911DD5CF109288041C
:1054200080911501813108F052C08E3069F584E019
:1054300090E00E946D3C6091880470E090E00E94D2
:1054400094118F3F910511F00CF0E2CD682F84E0AC
:1054500090E00E94753C60E0809115010E94FF0B76
:105460006091880487EA95E00E94452061E0809180
:1054700015010E94FF0B809188048F5F8A3009F428
:10548000B5C080938804B4C08F3059F484E090E0B4
:105490000E946D3C6091880470E090E00E9477115A
:1054A000D0CF803109F0A4C084E090E00E946D3C30
:1054B000282F30E0C9016AE070E00E94D23D281B2D
:1054C000390B80918804820F932F911DBACF8531BB
:1054D000C0F5823199F485E090E00E946D3C6091C6
:1054E000880470E090E00E9494118F3F910511F0C4
:1054F0000CF08ECD682F85E090E0ABCF833159F46E
:1055000085E090E00E946D3C6091880470E090E03E
:105510000E947711EACF843109F06AC085E090E0FB
:105520000E946D3C282F30E0C9016AE070E00E94C3
:10553000D23D281B390B80918804820F932F911D37
:10554000D4CF8931B8F5863199F486E090E00E9495
:105550006D3C6091880470E090E00E9494118F3F50
:10556000910511F00CF054CD682F86E090E071CFDA
:10557000873159F486E090E00E946D3C6091880488
:1055800070E090E00E947711EACF883189F586E0DB
:1055900090E00E946D3C282F30E0C9016AE070E085
:1055A0000E94D23D281B390B80918804820F932FD3
:1055B000911DD5CF8A31E1F487E090E00E946D3CE7
:1055C000282F30E0C9016AE070E00E94D23D281B1C
:1055D000390B60918804620F732F711D6F3F710545
:1055E00011F00CF015CD87E090E033CF10928804D5
:1055F000809115018F3108F054C08C3179F588E025
:1056000090E00E946D3C6091880470E090E00E9400
:1056100094118F3F910511F00CF0FACC682F88E0BF
:1056200090E00E94753C60E0809115010E94FF0BA4
:105630006091880487EA95E00E94452061E08091AE
:1056400015010E94FF0B809188048F5F809388046E
:105650008A3009F0DDCC10928804DACC8D3159F40F
:1056600088E090E00E946D3C6091880470E090E0DA
:105670000E947711CECF8E3109F0CACC88E090E03D
:105680000E946D3C282F30E0C9016AE070E00E9462
:10569000D23D281B390B80918804820F932F911DD6
:1056A000B8CF8332C0F5803299F489E090E00E944F
:1056B0006D3C6091880470E090E00E9494118F3FEF
:1056C000910511F00CF0A4CC682F89E090E0A9CFEF
:1056D000813259F489E090E00E946D3C6091880429
:1056E00070E090E00E947711EACF823209F090CC0E
:1056F00089E090E00E946D3C282F30E0C9016AE00B
:1057000070E00E94D23D281B390B80918804820FE3
:10571000932F911DD4CF8432D1F48AE090E00E947F
:105720006D3C282F30E0C9016AE070E00E94D23D54
:10573000281B390B60918804620F732F711D6F3F16
:10574000710511F00CF064CC8AE090E06ACF8632EB
:1057500009F05ECC8BE090E00E946D3C282F30E099
:10576000C9016AE070E00E94D23D281B390B6091AC
:105770008804620F732F711D8BE090E06F3F7105FD
:1057800011F00CF045CC4DCF8330910541F461E030
:10579000809115010E94FF0B0E94350C5CCF843074
:1057A000910591F488E10E94EE0B809115018832F9
:1057B00011F410921501809115018F5F80931501EE
:1057C00061E00E94FF0B47CF8530910509F020CCA6
:1057D00090931701809316011BCC8230910509F03C
:1057E00033C280911501823019F520910001822F7A
:1057F00064E60E94C63D892F6AE00E94C63D01E032
:10580000080F0A3009F400E0602F70E0822F90E06A
:105810000E947711209101012817190609F00CF454
:1058200027CC80930001602F82E00E948A2020CC48
:10583000833009F520910001822F6AE00E94C63D65
:1058400041E0490F4A3009F440E030E0C9016AE024
:1058500070E00E94D23D281B390B240F311D80912E
:1058600001018217130609F00CF402CC2093000109
:10587000642F83E0DACF853009F520910101822F72
:1058800064E60E94C63D892F6AE00E94C63D01E0A1
:10589000080F0A3009F400E0602F70E0822F90E0DA
:1058A0000E947711209102012817190609F00CF4C3
:1058B000DFCB80930101602F85E0B7CF863009F5FB
:1058C00020910101822F6AE00E94C63D41E0490F0C
:1058D0004A3009F440E030E0C9016AE070E00E941B
:1058E000D23D281B390B240F311D809102018217F4
:1058F000130609F00CF4BCCB20930101642F86E061
:1059000094CF883009F520910201822F64E60E942D
:10591000C63D892F6AE00E94C63D01E0080F0A30AB
:1059200009F400E0602F70E0822F90E00E94771170
:10593000209103012817190609F00CF499CB8093E4
:105940000201602F88E071CF893009F520910201B2
:10595000822F6AE00E94C63D41E0490F4A3009F4B7
:1059600040E030E0C9016AE070E00E94D23D281BAF
:10597000390B240F311D809103018217130609F0A2
:105980000CF476CB20930201642F89E04ECF8B304C
:1059900009F520910301822F64E60E94C63D892FFC
:1059A0006AE00E94C63D01E0080F0A3009F400E0F9
:1059B000602F70E0822F90E00E9477112091040107
:1059C0002817190609F00CF453CB80930301602FBC
:1059D0008BE02BCF8C3009F520910301822F6AE0F8
:1059E0000E94C63D41E0490F4A3009F440E030E0F2
:1059F000C9016AE070E00E94D23D281B390B240FD8
:105A0000311D809104018217130609F00CF430CB8C
:105A100020930301642F8CE008CF8E3009F520918C
:105A20000401822F64E60E94C63D892F6AE00E942D
:105A3000C63D01E0080F0A3009F400E0602F70E075
:105A4000822F90E00E9477112091050128171906F6
:105A500009F00CF40DCB80930401602F8EE0E5CEAD
:105A60008F3009F520910401822F6AE00E94C63D23
:105A700041E0490F4A3009F440E030E0C9016AE0F2
:105A800070E00E94D23D281B390B240F311D8091FC
:105A900005018217130609F00CF4EACA20930401E9
:105AA000642F8FE0C2CE813109F520910501822F4C
:105AB00064E60E94C63D892F6AE00E94C63D01E06F
:105AC000080F0A3009F400E0602F70E0822F90E0A8
:105AD0000E947711209106012817190609F00CF48D
