:100000000C9459010C9481010C9481010C94810190
:100010000C9481010C9481010C9481010C94810158
:100020000C9481010C9481010C9481010C94810148
:100030000C9481010C9481010C9481010C94810138
:100040000C9442140C9481010C9410140C94EA1337
:100050000C9481010C9481010C9481010C94810118
:100060000C94CB120C9481012A494E56414C4944C0
:1000700020434F4D4D414E44000000000024002716
:10008000002A0000000000250028002B00000000CE
:100090000800020100000304070000000000000047
:1000A000003E57656C636F6D6520746F204172640C
:1000B00075696E6F20436F6D6D616E64204C696E63
:1000C0006520496E7465727072657465722C206566
:1000D0006E746572202748454C502720666F722049
:1000E0006C697374206F6620636F6D6D616E6473ED
:1000F000210A004F4646004F464600475245454EAE
:10010000004F46460052454400475245454E005276
:10011000454400424C494E4B494E4720003E204C3E
:10012000454420004F4646004F4E00424C494E4B3E
:10013000494E47003E2044313320005665727369B2
:100140006F6E3A20002D3E48454C50002D3E5645DE
:100150005253494F4E002D3E52474220424C494E89
:100160004B002D3E524742204F4646002D3E5247FF
:1001700042204F4E002D3E524742203C7265643E65
:10018000203C677265656E3E203C626C75653E0082
:100190002D3E414444203C6E756D626572313E20B7
:1001A0003C6E756D626572323E002D3E54454D5079
:1001B00020484953544F5259002D3E435552524501
:1001C0004E542054454D50002D3E53455420544923
:1001D0004D45002D3E43555252454E542054494DF5
:1001E00045002D3E535441545553204C4544530033
:1001F0002D3E53455420424C494E4B203C6E756D6C
:100200006265723E002D3E4C454420414C5445529F
:100210004E415445002D3E4C454420424C494E4BE6
:10022000002D3E4C4544204F4646002D3E4C454453
:1002300020524544002D3E4C454420475245454EF2
:10024000002D3E44313320424C494E4B002D3E445C
:100250003133204F4646002D3E443133204F4E006F
:1002600054686520617661696C61626C6520636FBA
:100270006D6D616E6473206172653A200004040440
:10028000040404040402020202020203030303033F
:10029000030102040810204080010204081020011C
:1002A000020408102000000000230026002900009E
:1002B000FD1411241FBECFEFD8E0DEBFCDBF25E077
:1002C000AEE5B2E001C01D92A038B207E1F712E03E
:1002D000A0E0B1E0ECE1F1E402C005900D92AE3592
:1002E000B107D9F711E0C9E5D1E004C02197FE01BB
:1002F0000E946B20C835D107C9F70E9405150C94E0
:10030000291E0C9400000F931F93CF93DF938C0151
:10031000D0E0C0E0F801EC0FFD1F6491662371F09E
:10032000E091C804F091C9040190F081E02D88ECBF
:1003300094E00995892B11F02196ECCFCE01DF9145
:10034000CF911F910F910895E091C804F091C904D5
:100350000190F081E02D682F88EC94E00994E09101
:100360004C04F0914D040190F081E02D682F8CE455
:1003700094E0099481EC91E09093490480934804BF
:100380000895089589EC91E0909347048093460482
:100390000895089520912304260F3327331F213217
:1003A0003105ECF42091C204FC0190E080E024309F
:1003B00069F082E00895A09123042191AC014D5F82
:1003C0005B4FA40FB52FB11D2C930196861798F3A0
:1003D00080912304680F6093230480E0089581E0F6
:1003E00008950895E0914B0480914A04E81730F491
:1003F000F0E0EE55FB4F808190E008958FEF9FEF86
:10040000089590914B0480914A042FEF3FEF981785
:1004100048F4E92FF0E0EE55FB4F208130E09F5F7C
:1004200090934B04C901089580914A0490914B0424
:10043000891B990B0895CF92DF92EF92FF920F9351
:100440001F93CF93DF937C01CB018A012091580445
:10045000222389F0EB016B01C40ED51ECC15DD05FE
:1004600069F06991D701ED91FC910190F081E02D47
:10047000C7010995F3CF642F0E94CA01C801DF911B
:10048000CF911F910F91FF90EF90DF90CF90089543
:10049000CF93DF931F92CDB7DEB7698320915804C5
:1004A0002223F9F020915B04203258F021E030E063
:1004B000FC013383228390E080E00F90DF91CF91A5
:1004C000089580915904E82FF0E0E45AFB4F998198
:1004D00090838F5F8093590480935B0481E090E068
:1004E000ECCF61E0CE0101960E94CA01F7CF6AE02D
:1004F0000E942C20292F30E1839FC0011124822BE0
:100500000895982F92959F708F702AE0929F800D8A
:1005100011240895CF92DF92EF92FF920F931F93D1
:10052000CF93DF93EC017A016901E881F9810190B1
:10053000F081E02D0995E881F9810084F185E02DB5
:100540009801A601B701CE01DF91CF911F910F91C4
:10055000FF90EF90DF90CF9009946F927F928F92EF
:100560009F92AF92BF92CF92DF92EF92FF920F9342
:100570001F93CF93DF93CDB7DEB7AC970FB6F89448
:10058000DEBF0FBECDBFDC011696ED91FC9131961A
:1005900009F48BC059013A016B018C01FE013196BF
:1005A0004F0188E2DF011D928A95E9F7D801ED91AC
:1005B000FC910488F589E02DB401C80109957C01FE
:1005C000892B09F05CC01AA619A61CA61BA6D80187
:1005D000ED91FC910688F789E02D9E01255D3F4F46
:1005E000AE01475D5F4FB401C80109957C01892BBD
:1005F00009F045C0A114B10439F088E2F401D50135
:1006000001900D928A95E1F7C114D10409F189A5F1
:100610009AA521E030E097FF02C02FEF3FEF9F77D0
:10062000829FB001839F700D929F700D1124072E41
:10063000000C880B990B0E94421E20E030E040E243
:1006400051E40E94841FF601608371838283938347
:1006500061147104A1F06BA57CA5072E000C880B1A
:10066000990B0E94421E20E030E040E251E40E94DB
:10067000841FD3016D937D938D939C931397C70132
:10068000AC960FB6F894DEBF0FBECDBFDF91CF9111
:100690001F910F91FF90EF90DF90CF90BF90AF90A0
:1006A0009F908F907F906F90089587E1E82EF12CB6
:1006B000E6CF8F929F92AF92BF92CF92DF92EF924E
:1006C000FF920F931F93CF93DF93EC018B016A018D
:1006D0007901E881F9810288F389E02D0995B82E26
:1006E000B801685F7F4FE881F9810288F389E02DC6
:1006F000CE010995982EB801605F7F4FE881F9819E
:100700000288F389E02DCE010995A82EB801685E14
:100710007F4FE881F9810288F389E02DCE010995A8
:10072000882EB801605E7F4FE881F9810288F389E5
:10073000E02DCE0109959B2D990D9A0D980D8913E9
:1007400019C09A2D882DF601918380839B2D892DC8
:10075000F7019183808390E080E0DF91CF911F913A
:100760000F91FF90EF90DF90CF90BF90AF909F9050
:100770008F90089585E190E0F0CF47E050E080E071
:10078000FB012191BF01042E01C0220F0A94EAF758
:10079000820F41505109A0F70895FC01828590E035
:1007A0000895FC01818590E00895CF92DF92EF9249
:1007B000FF920F931F93CF93DF93EC017A016901AE
:1007C000E881F9810190F081E02D0995E881F981B6
:1007D0000480F581E02D9801A601B701CE01DF91DB
:1007E000CF911F910F91FF90EF90DF90CF900994E0
:1007F000CF92DF92EF92FF920F931F93CF93DF93ED
:10080000CDB7DEB728970FB6F894DEBF0FBECDBFC9
:10081000DC011696ED91FC91319609F440C08A01F5
:100820007B0119821A821B821C821D821E821F82FA
:100830001886DC01ED91FC910084F185E02DAE017C
:100840004B5F5F4FBE016F5F7F4F09956C01892B36
:10085000B1F4E114F10441F069817A818B819C81CA
:100860000E94F61FF70160830115110541F06D81AB
:100870007E818F8198850E94F61FD8016C93C601F6
:1008800028960FB6F894DEBF0FBECDBFDF91CF9193
:100890001F910F91FF90EF90DF90CF90089587E127
:1008A000C82ED12CECCF262F2D7F29F4FC01608798
:1008B00090E080E0089588E190E00895DC011796CB
:1008C0007C936E931697FB01EF56FD4FE4911996BA
:1008D000EC93199763587D4FFB0164911A966C93C2
:1008E0000895FC01538D448D252F30E0842F90E036
:1008F000821B930B541710F0CF960895019708951B
:10090000FC01918D828D981761F0A28DAE0FBF2FE3
:10091000B11D5D968C91928D9F5F9F73928F90E039
:1009200008958FEF9FEF0895FC01918D828D9817A8
:1009300031F0828DE80FF11D858D90E008958FEFE5
:100940009FEF0895FC01918D228D892F90E0805CAE
:100950009F4F821B91098F7399270895FC01A48DE5
:10096000A80FB92FB11DA35ABF4F2C91848D90E0D1
:1009700001968F739927848FA689B7892C93A089B4
:10098000B1898C91837080648C93938D848D98133E
:1009900006C00288F389E02D80818F7D80830895D1
:1009A000EF92FF920F931F93CF93DF93EC0181E0BF
:1009B000888F9B8D8C8D98131AC0E889F989808166
:1009C00085FF15C09FB7F894EE89FF896083E88999
:1009D000F98980818370806480839FBF81E090E08B
:1009E000DF91CF911F910F91FF90EF900895F62E18
:1009F0000B8D10E00F5F1F4F0F731127E02E8C8DB2
:100A00008E110CC00FB607FCFACFE889F9898081F6
:100A100085FFF5CFCE010E94AE04F1CFEB8DEC0F38
:100A2000FD2FF11DE35AFF4FF0829FB7F8940B8F13
:100A3000EA89FB8980818062CFCFCF93DF93EC017D
:100A4000888D8823B9F0AA89BB89E889F9898C91B6
:100A500085FD03C0808186FD0DC00FB607FCF7CF72
:100A60008C9185FFF2CF808185FFEDCFCE010E9472
:100A7000AE04E9CFDF91CF91089588EC94E00E9415
:100A8000A20421E0892B09F420E0822F089580E060
:100A900090E0892B29F00E943D0581110C94000003
:100AA0000895AF92BF92CF92DF92EF92FF920F9391
:100AB0001F93CF93DF936C017B018B01040F151FF4
:100AC000EB015E01AE18BF08C017D10759F069915C
:100AD000D601ED91FC910190F081E02DC6010995C0
:100AE000892B79F7C501DF91CF911F910F91FF906D
:100AF000EF90DF90CF90BF90AF90089590E080E0AE
:100B0000089590E0FC01E357FF4F2491FC01EF565C
:100B1000FD4F3491FC01E358FD4FE491EE23C9F001
:100B2000222339F0233001F1A8F4213019F12230C9
:100B300029F1F0E0EE0FFF1FED57FF4FA591B491A3
:100B40008FB7F894EC91611126C030953E233C9309
:100B50008FBF08952730A9F02830C9F0243049F715
:100B6000809180008F7D03C0809180008F7780937B
:100B70008000DFCF84B58F7784BDDBCF84B58F7DD8
:100B8000FBCF8091B0008F778093B000D2CF80915F
:100B9000B0008F7DF9CF3E2BDACF1092C20481E0F6
:100BA0008093A10410929C0461E082E10E9481057F
:100BB00061E083E10E948105E9EBF0E080818E7FB6
:100BC000808380818D7F808388E48093B80085E472
:100BD0008093BC000895CF93DF9391E0909302043B
:100BE0008823B9F0C091B800D091BA008091BC00C0
:100BF0008A7B8093BC0060E082E10E94810560E016
:100C000083E10E9481050E94CD05D093BA00C09374
:100C1000B800DF91CF910895CF93DF9390E0FC016E
:100C2000EF56FD4F249183589D4FFC0184918823FA
:100C3000C9F090E0880F991FFC01E758FF4FA5917C
:100C4000B491FC01ED57FF4FC591D49161110DC0D6
:100C50009FB7F8948C91209582238C9388812823C8
:100C600028839FBFDF91CF910895623051F49FB7E1
:100C7000F8943C91822F809583238C93E8812E2BCE
:100C8000EFCF8FB7F894EC912E2B2C938FBFEACF38
:100C90001F93CF93DF93182FEB0161E00E940C06A6
:100CA000209739F460E0812FDF91CF911F910C9450
:100CB0008105CF3FD10511F461E0F5CFE12FF0E0E0
:100CC000E357FF4FE491E33031F140F4E130B1F00C
:100CD000E230E1F0C038D1057CF7E4CFE73029F10C
:100CE000E83059F1E430B1F7809180008062809360
:100CF0008000D0938B00C0938A0004C084B58068C4
:100D000084BDC7BDDF91CF911F91089584B58062E6
:100D100084BDC8BDF7CF809180008068809380003B
:100D2000D0938900C0938800EDCF8091B000806897
:100D30008093B000C093B300E5CF8091B000806293
:100D40008093B000C093B400DDCF789484B5826006
:100D500084BD84B5816084BD85B5826085BD85B55F
:100D6000816085BDEEE6F0E0808181608083E1E80E
:100D7000F0E0108280818260808380818160808346
:100D8000E0E8F0E0808181608083E1EBF0E0808149
:100D900084608083E0EBF0E0808181608083EAE71B
:100DA000F0E08081846080838081826080838081A4
:100DB000816080838081806880831092C100089563
:100DC0008130910539F0880F991F880F991F059779
:100DD0000197F1F708953FB7F89480917A029091C6
:100DE0007B02A0917C02B0917D0226B5A89B05C034
:100DF0002F3F19F00196A11DB11D3FBFBA2FA92F9A
:100E0000982F8827BC01CD01620F711D811D911D96
:100E100042E0660F771F881F991F4A95D1F7089502
:100E2000CF92DF92EF92FF920F931F93CF93C82F31
:100E3000813208F096C00E94EB066B017C01809124
:100E4000C204811169C081E08093C2048093A1042F
:100E50009FEF9093A00410929F049C0F90939E0488
:100E600080939D0480919D04806D80939D0480916A
:100E70009C04813009F077C010929C040E94EB061C
:100E80006B017C0180919D048093BB008091C40420
:100E90009091C504A091C604B091C704892B8A2BF8
:100EA0008B2BA1F00E94EB060091C4041091C504A5
:100EB0002091C6043091C7046C197D098E099F09E1
:100EC000061717072807390708F447C08091BC00A8
:100ED00083FDD8CF85EC8093BC000E94EB066B01AC
:100EE0007C018091C204813009F43FC080919F044D
:100EF0008C1710F4C0919F04ACE7B4E0E2EAF4E090
:100F000080E08C1354C08C2FCF911F910F91FF90D4
:100F1000EF90DF90CF9008958091C4049091C50424
:100F2000A091C604B091C704892B8A2B8B2B09F49E
:100F300086CF0E94EB060091C4041091C504209155
:100F4000C6043091C7046C197D098E099F090617E4
:100F500017072807390708F072CF8091C3040E9451
:100F6000EB05C0E0D0CF85EEB6CF8091C404909160
:100F7000C504A091C604B091C704892B8A2B8B2B82
:100F800009F4AFCF0E94EB060091C4041091C50490
:100F90002091C6043091C7046C197D098E099F0900
:100FA000061717072807390708F09BCFD6CF9D9162
:100FB00091938F5FA6CF8F929F92AF92BF92CF9265
:100FC000DF92EF92FF920F931F93CF93DF936132E3
:100FD00008F0D1C0142FD62FC82F0E94EB066B014A
:100FE0007C018091C20481116BC082E08093C204B5
:100FF0001093A1048FEF8093A00410929F04D093CC
:101000009E04ACE5B4E0ECE7F4E080E0D8138BC0DC
:1010100010929D0480919D04CC0FC82BC0939D0419
:1010200080919C04813009F082C010929C040E943F
:10103000EB066B017C0180919D048093BB00809145
:10104000C4049091C504A091C604B091C704892B33
:101050008A2B8B2BA1F00E94EB060091C404109107
:10106000C5042091C6043091C7046C197D098E090E
:101070009F09061717072807390708F442C080910F
:10108000BC0083FDD8CF85EC8093BC000E94EB06AA
:101090006B017C018091C204823009F44AC08091C6
:1010A000A0048F3F09F469C08091A004803209F444
:1010B00066C08091A004803309F463C084E026C038
:1010C0008091C4049091C504A091C604B091C70456
:1010D000892B8A2B8B2B09F484CF0E94EB068090FE
:1010E000C4049090C504A090C604B090C7046C19C5
:1010F0007D098E099F0986169706A806B90608F08D
:1011000070CF8091C3040E94EB0585E0DF91CF9101
:101110001F910F91FF90EF90DF90CF90BF90AF9015
:101120009F908F9008959D9191938F5F6FCF85EEE3
:10113000ABCF8091C4049091C504A091C604B09136
:10114000C704892B8A2B8B2B09F4A4CF0E94EB06B2
:101150000091C4041091C5042091C6043091C704C5
:101160006C197D098E099F0906171707280739078B
:1011700008F090CFC6CF81E0C9CF80E0C7CF82E032
:10118000C5CF83E0C3CF482F60915B0480915A04A0
:101190000E94DB071092590410925B0410925804CD
:1011A0000895CF93C62F91E09093580498E69093BA
:1011B0005A041092590410925B04682F8CE494E056
:1011C0000E9448026C2F8CE494E00E94480281E067
:1011D000CF910C94C30891E09093580498E69093B3
:1011E0005A041092590410925B04682F8CE494E026
:1011F0000E94480281E00C94C3087F928F929F92D4
:10120000AF92BF92CF92DF92EF92FF920F931F9314
:10121000CF93DF93EC01162F7A0169010E94EB0650
:101220004B015C01712C1111798410E000E060E049
:1012300070E0CB012A813B814C815D812617370705
:1012400048075907F4F00115110561F5C7011E148F
:101250001F0464F10E94EB06681979098A099B0949
:10126000EA85F0E0EE0FFF1FEB55FD4FA591B4911D
:101270002C910F5F1F4F39852323271105C097FF3E
:10128000D9CF6FEF7FEFCB01DF91CF911F910F91FE
:10129000FF90EF90DF90CF90BF90AF909F908F9096
:1012A0007F9008951C141D04ACF6C6010E94E00650
:1012B000D1CF2FB7F8946091760270917702809128
:1012C0007802909179022FBF08954F925F926F92AA
:1012D0007F929F92AF92BF92CF92DF92EF92FF9256
:1012E0000F931F93CF93DF9300D01F92CDB7DEB73C
:1012F000D09071058091740590917505A091760547
:10130000B0917705892B8A2B8B2BD9F00E94EB06A5
:1013100000916D0510916E0520916F05309170055B
:10132000601B710B820B930B009174051091750576
:101330002091760530917705601771078207930732
:10134000C8F20E94EB0660936D0570936E05809362
:101350006F0590937005E0917C05F0917D053097C5
:1013600059F0409178055091790560917A05709116
:101370007B058D2D0995D82EE0906B05F0906C05BE
:101380004D2C512C712C612CE114F10409F459C03D
:10139000D7011C96CC901C97809172059091730593
:1013A0008436910510F41C961C92D701ED91FC91A6
:1013B000A280B38019821A821B82DD2079F1F701A5
:1013C000369610E000E02191222319F192809920B5
:1013D00001F130E050E040E02F5F3F4F4F4F5F4F53
:1013E000C301B2010E94CE1E9B01AC01892D90E089
:1013F000B0E0A0E0BC01CD016F5F7F4F8F4F9F4FEA
:101400000E94CE1EA1E0B0E0AC0FBD1FA00FB11F27
:101410008C930F5F1F4F03301105A9F609811A81C4
:101420002B81F7014585568562817381C701F501DE
:101430000995D7011C96CC921C971496ED90FC90C0
:10144000A3CF8091690590916A058C010F5F1F4FB2
:1014500010936A05009369054997B4F10E945909F0
:10146000C0906505D0906605E0906705F09068052E
:101470009B01AC012C193D094E095F0921F421E0C3
:1014800030E040E050E088EE93E0089FB001099F13
:10149000700D189F700D1124072E000C880B990BEE
:1014A0000E94DE1E309373052093720510926A0528
:1014B000109269050E94590960936505709366054D
:1014C00080936705909368050F900F900F90DF91C0
:1014D000CF911F910F91FF90EF90DF90CF90BF9031
:1014E000AF909F907F906F905F904F9008950F9373
:1014F0001F93CF93DF93209174022F5F322F3770A9
:101500003093740220FF2BC020E831FD206434703A
:1015100009F02062205FFC01EC01239600E011E05D
:101520006485662329F070E0C8010E9438206F5F4F
:101530006187322F369F030E30E0311D11243111A7
:1015400010C01682662311F0615061873196EC1746
:10155000FD0731F7DF91CF911F910F91089520E0A2
:10156000D4CF31503683EECF4F925F927F928F92DD
:101570009F92AF92BF92CF92DF92EF92FF920F9322
:101580001F93CF93DF932C01EB010E94EB06F20136
:1015900027853089621B730B6A307105B0F3F894AC
:1015A0008A819B81181619060CF0CDC1E881F9815A
:1015B0006BB1862E689487F83BB13F773BB9D984ED
:1015C0008E812D2D281B822F2E834F85042E000CFB
:1015D000550BAA81BB817C85FD84EE847F5FF394EB
:1015E000E3949F819884BA84AB841081C12C6C2DC4
:1015F0000C2D2C2D2081112788942111280F08F4FF
:101600002FEF8195889470FD120F1795889471FDC6
:10161000120F1795889472FD120F1795889473FD19
:10162000120F1795889474FD120F1795889475FD05
:10163000120F1795889476FD120F1795889477FDF1
:10164000120F17958894622F7111612F8D0D162F2F
:10165000002C8BB800C017FF3BB921816627889406
:1016600000C000C0002C3BB92111290F00C0002C84
:101670008BB800C016FF3BB908F42FEF9195889402
:1016800000C000C0002C3BB9F0FC620F00C0002C71
:101690008BB800C015FF3BB967958894F1FC620FC9
:1016A00000C000C0002C3BB96795889400C0002C96
:1016B0008BB800C014FF3BB9F2FC620F67958894A9
:1016C00000C000C0002C3BB9F3FC620F00C0002C2E
:1016D0008BB800C013FF3BB967958894F4FC620F88
:1016E00000C000C0002C3BB96795889400C0002C56
:1016F0008BB800C012FF3BB9F5FC620F6795889468
:1017000000C000C0002C3BB9F6FC620F00C0002CEA
:101710008BB800C011FF3BB967958894F7FC620F46
:1017200000C000C0002C3BB96795889400C0002C15
:101730008BB800C010FF3BB9122FF110162F9B0D74
:1017400000C000C0002C3BB900C000C0002C8BB80A
:1017500000C017FF3BB922816627889400C000C0F3
:10176000002C3BB92111290D00C0002C8BB800C002
:1017700016FF3BB908F42FEFE40FF51F00C000C0BF
:10178000002C3BB9E0FC620F00C0002C8BB800C0FD
:1017900015FF3BB967958894E1FC620F00C000C05B
:1017A000002C3BB96795889400C0002C8BB800C012
:1017B00014FF3BB9E2FC620F6795889400C000C03B
:1017C000002C3BB9E3FC620F00C0002C8BB800C0BA
:1017D00013FF3BB967958894E4FC620F00C000C01A
:1017E000002C3BB96795889400C0002C8BB800C0D2
:1017F00012FF3BB9E5FC620F6795889400C000C0FA
:10180000002C3BB9E6FC620F00C0002C8BB800C076
:1018100011FF3BB967958894E7FC620F00C000C0D8
:10182000002C3BB96795889400C0002C8BB800C091
:1018300010FF3BB9122FE110162F919400C000C089
:10184000002C3BB99A0C00C000C08BB800C017FF39
:101850003BB920816627889400C000C0002C3BB9AA
:101860002111280F00C0002C8BB800C016FF3BB917
:1018700008F42FEF8195889400C000C0002C3BB97C
:1018800070FD620F00C0002C8BB800C015FF3BB983
:101890006795889471FD620F00C000C0002C3BB9B1
:1018A0006795889400C0002C8BB800C014FF3BB92A
:1018B00072FD620F6795889400C000C0002C3BB990
:1018C00073FD620F00C0002C8BB800C013FF3BB942
:1018D0006795889474FD620F00C000C0002C3BB96E
:1018E0006795889400C0002C8BB800C012FF3BB9EC
:1018F00075FD620F6795889400C000C0002C3BB94D
:1019000076FD620F00C0002C8BB800C011FF3BB900
:101910006795889477FD620F00C000C0002C3BB92A
:101920006795889400C0002C8BB800C010FF3BB9AD
:10193000122F7111162F8D0D00C000C0002C3BB965
:10194000119709F086CE4A815B8120EE31E0DA0101
:101950000E947120DC01CB01F4E0B695A795979524
:101960008795FA95D1F730E020E0B901EAE94E9F7A
:10197000040E611D5E9F600D711D1124650F711DA8
:10198000860F971FA11DB11D893E43E09407A10555
:10199000B10508F434C0885E9340A109B10942E062
:1019A000B695A795979587954A95D1F747E0849F77
:1019B000080E211D949F200D311D1124290F311D6A
:1019C0006091730270E0860F971F820F931F409102
:1019D0007602509177026091780270917902292FF6
:1019E0003327420F531F611D711D409376025093A0
:1019F00077026093780270937902809373027894EF
:101A00000E94EB06F201708B6787DF91CF911F91E7
:101A10000F91FF90EF90DF90CF90BF90AF909F908D
:101A20008F907F905F904F90089580E991E00895A6
:101A3000579A08956F927F928F92CF92DF92EF9292
:101A4000FF920F931F93CF93DF93CDB7DEB76297CB
:101A50000FB6F894DEBF0FBECDBF6C017A0138011E
:101A6000822EDC011C962C91CA0157FF04C08827E6
:101A70009927841B950B7A8369839C838B839E8330
:101A80008D836D867E868F86213049F5CE01019645
:101A90000E94770A83E0888B1A8A198AF7FE02C0AF
:101AA0008DEF888BD601ED91FC910484F585E02DB6
:101AB000BE016F5F7F4FC601099562960FB6F8941D
:101AC000DEBF0FBECDBFDF91CF911F910F91FF9071
:101AD000EF90DF90CF908F907F906F9008951C864D
:101AE0001B861A86198618861F82D4CFEF92FF9222
:101AF0000F931F93CF93DF93CDB7DEB762970FB6E7
:101B0000F894DEBF0FBECDBF7C01DC011C968C912A
:101B10007A8369835C834B835E834D830D871E8745
:101B20002F878130F9F4CE0101960E94770A188A36
:101B30001A8A198AD701ED91FC910484F585E02D6C
:101B4000BE016F5F7F4FC701099562960FB6F8948B
:101B5000DEBF0FBECDBFDF91CF911F910F91FF90E0
:101B6000EF9008951C861B861A86198618861F8298
:101B7000DECFE6EBF2E080910C01808380910E01D4
:101B8000818380910A0182830C9465090F931F93CE
:101B9000CF930E94590900916F0210917002209119
:101BA000710230917202061717072807390720F4CF
:101BB0008091BC02811104C08091BB02882391F105
:101BC0001092BB02C0916E0281E0C827C0936E02E2
:101BD0000E94590900910601109107012091080106
:101BE00030910901DC01CB01800F911FA21FB31FAF
:101BF00080936F0290937002A0937102B09372026F
:101C0000CC2359F01092B6021092B7021092B8028B
:101C1000CF911F910F910C946509CF911F910F9156
:101C20000C94B90DCF911F910F9108950F931F93AD
:101C3000CF930E94590900915E0210915F0220919A
:101C4000600230916102061717072807390720F450
:101C50008091C102811104C08091BD02882339F1B5
:101C60001092BD02C091AE0281E0C827C093AE02BF
:101C70000E94590900910601109107012091080165
:101C800030910901DC01CB01800F911FA21FB31F0E
:101C900080935E0290935F02A0936002B093610212
:101CA0006C2F8DE0CF911F910F910C948105CF91F6
:101CB0001F910F91089590E080E00895FC018585C3
:101CC000968508950F931F93CF93DF9300D01F92B3
:101CD000CDB7DEB7AB0119821A821B82DC01ED9110
:101CE000FC910190F081E02D00E010E020E0BE01C9
:101CF0006F5F7F4F09950F900F900F90DF91CF91FD
:101D00001F910F910895FC0101900020E9F7319790
:101D1000AF01481B590BE091C804F091C90402803F
:101D2000F381E02DBC0188EC94E009948BEE91E006
:101D30000C94830ECF93DF930E948301EC010E94E9
:101D4000960E8C0F9D1FDF91CF91089588E690E04D
:101D50000C949A0E8F929F92AF92BF920F931F9303
:101D6000CF93DF93CDB7DEB7A1970FB6F894DEBF60
:101D70000FBECDBF19A2423008F44AE08E010F5DBC
:101D80001F4F842E912CB12CA12CA50194010E94EF
:101D9000DE1EE62FB901CA01EA30F4F4E05DD80195
:101DA000EE938D01232B242B252B79F790E080E0F7
:101DB000109719F0CD010E94830EA1960FB6F894EA
:101DC000DEBF0FBECDBFDF91CF911F910F91BF90AE
:101DD000AF909F908F900895E95CE1CF0C94830EB3
:101DE000CF93DF930E94830EEC010E94960E8C0F1E
:101DF0009D1FDF91CF910895682F70E090E080E003
:101E00004AE00C94AA0ECF93DF930E94FC0EEC01E3
:101E10000E94960E8C0F9D1FDF91CF910895BF9267
:101E2000CF92DF92EF92FF920F931F93CF93DF93A6
:101E300000D000D000D01F92CDB7DEB780E00E9466
:101E4000EB0887E00E94100710924B0480934A042D
:101E50008730E1F58CE494E00E9401020E94810247
:101E6000B82E8CE494E00E9401020E948102C82EE8
:101E70008CE494E00E940102182F86FF3EC08F710F
:101E80000E9481020CE015FD00E0080F8CE494E054
:101E90000E9401020E948102D82E8CE494E00E94EC
:101EA00001020E948102E82E8CE494E00E9401026B
:101EB00010E087FD14E68F770E948102F82E8CE4F3
:101EC00094E00E9401020E948102180F2B2D3C2DEC
:101ED000402F5D2DB701812F90E027960FB6F89423
:101EE000DEBF0FBECDBFDF91CF911F910F91FF904D
:101EF000EF90DF90CF90BF9008958F730E94810282
:101F0000082FC4CFCF92DF92EF92FF92CF93DF934F
:101F10006C01990FEE08FF08F7FE17C08DE20E94D2
:101F2000A401EC0166277727CB016C197D098E0986
:101F30009F094AE00E94AA0E8C0F9D1FDF91CF914E
:101F4000FF90EF90DF90CF9008954AE0C701B6016F
:101F5000DF91CF91FF90EF90DF90CF900C94AA0E7D
:101F60000F931F930E94590900916A0210916B020E
:101F700020916C0230916D02061717072807390768
:101F800070F58091CB02882351F130E020E049E9DF
:101F900052E06AE972E08BE992E00E94F8038091D6
:101FA0009A0290E00E94820F8EEE91E00E94EE0E67
:101FB0008091990290E00E94820F84EF91E00E944C
:101FC000F00E0E94590968577C4E8F4F9F4F6093C7
:101FD0006A0270936B0280936C0290936D021F9162
:101FE0000F910895CF93DF93EB010E94EB0881E0FE
:101FF0000E94100710924B0480934A048CE494E0F2
:102000000E940102888381E0DF91CF910895EF92D1
:10201000FF921F93CF93DF931F92CDB7DEB77C0162
:10202000162FBE016F5F7F4F8EE00E94F20F81116D
:1020300008C080E00F90DF91CF911F91FF90EF904B
:10204000089581E08093580488E680935A041092A2
:10205000590410925B04113089F587E090E00E94EA
:10206000AF01F70180810E94770290E00E94AF01EA
:10207000898185608983F70181810E94770290E0E0
:102080000E94AF01F70182810E94770290E00E94D6
:10209000AF01F70184810E94770290E00E94AF01B6
:1020A00081E00E94C3088111C4CF69818EE00E9443
:1020B000D1088111BECF812F8770BCCF8BE090E01B
:1020C0000E94AF0189818660D5CF8FE4809304019F
:1020D00070E060E08BE00E94480670E060E08CE019
:1020E0000C94480682E580930401809305016FEF0C
:1020F00070E08CE00E94480670E060E08BE00C9499
:10210000480687E480930401809305016FEF70E037
:102110008BE00E94480670E060E08CE00C9448067A
:102120000F931F930E945909009166021091670254
:1021300020916802309169020617170728073907AE
:1021400008F05EC08091C002882309F459C08091D4
:1021500005018F3419F0823509F04AC090910401CD
:102160009F3409F582E580930501809304010E9464
:102170005909009106011091070120910801309141
:102180000901DC01CB01800F911FA21FB31F8093B7
:10219000660290936702A0936802B09369021F9150
:1021A0000F910C947210823519F5923549F587E438
:1021B00080930501809304010E9459090091060152
:1021C000109107012091080130910901DC01CB0138
:1021D000800F911FA21FB31F809366029093670226
:1021E000A0936802B09369021F910F910C94811023
:1021F000873431F480910401877F873409F4B2CFAA
:102200001F910F910895CF92DF92EF92FF92CF939B
:102210000E945909C0906202D0906302E09064026B
:10222000F0906502C616D706E806F90620F48091FC
:10223000BF02811104C08091BE02882391F1809178
:102240000501823571F5C0910101C0FF1FC0C0902A
:102250000601D0900701E0900801F0900901C1FF4C
:1022600072C08FE4809304010E945909C60ED71EE4
:10227000E81EF91EC0926202D0926302E0926402EC
:10228000F09265020E9465101092BE028C2F90E0C1
:102290009595879595958795009709F467C08093E4
:1022A00001010E945909C0906202D0906302E0903F
:1022B0006402F0906502C616D706E806F90620F417
:1022C0008091BF02811104C08091BE028823A9F1D0
:1022D00080910501873489F5C09100019C2F92708F
:1022E000C0FF46C09923F9F08FE4809304010E9457
:1022F0005909C0900601D0900701E0900801F090C4
:102300000901DC01CB018C0D9D1DAE1DBF1D80930D
:10231000620290936302A0936402B09365020E94EC
:1023200065101092BE028C2F90E09595879595953B
:1023300087950097E1F180930001CF91FF90EF9096
:10234000DF90CF900895809304010E945909C60E32
:10235000D71EE81EF91EC0926202D0926302E0927C
:102360006402F09265020E9472108ECF87E797CFC9
:102370009923C9F2809304010E945909C090060173
:10238000D0900701E0900801F0900901DC01CB0139
:102390008C0D9D1DAE1DBF1D809362029093630244
:1023A000A0936402B09365020E948110BACF8BEBB8
:1023B000C2CF85ED8093BC008091C4049091C50488
:1023C000A091C604B091C7040796A11DB11D23E0DA
:1023D000B695A795979587952A95D1F72091BC003A
:1023E00024FD03C01092C20408954091C40450918A
:1023F000C5046091C6047091C704452B462B472B3A
:1024000069F30097A105B10541F025E32A95F1F79D
:1024100000000197A109B109E1CF8091C3040C9498
:10242000EB05EF92FF920F931F93CF93DF93EC0195
:102430008B0188E2FB0111928A95E9F761E08E81B8
:102440000E940C0660E08E810E94810588EE93E078
:102450000E94E00661E08E810E94810568858E8180
:102460000E940C0688E290E00E94E006E881F98173
:102470000088F189E02D26E030E04AE050E060E09D
:10248000CE0109956E317105810591056CF4982F87
:10249000872F762F66276061CB01DF91CF911F9147
:1024A0000F91FF90EF900895E881F9810088F189FC
:1024B000E02D26E030E04AE050E061E0CE010995F1
:1024C0007801F8E2EF0EF11C623371058105910588
:1024D00034F4982F872F762F66276161DDCFE8814E
:1024E000F9810088F189E02D26E030E04AE050E0F3
:1024F00060E0CE010995683171058105910534F4DC
:10250000982F872F762F66276261C6CFE881F981E1
:102510000088F189E02D26E030E04AE050E061E0FB
:10252000CE0109956B3071058105910534F4982F22
:10253000872F762F66276361AFCF21E0693271055F
:10254000810591050CF420E0F80121938F01EE162E
:10255000FF0629F6E881F9810088F189E02D26E05F
:1025600030E04AE050E060E0CE0109956831710545
:102570008105910534F4982F872F762F66276461A3
:102580008BCF70E060E088CF0E94671FFC018081E4
:1025900091810C94511F1F920F920FB60F9211242C
:1025A0002F933F934F935F936F937F938F939F935B
:1025B000AF93BF93EF93FF938091B900887F8036EC
:1025C00009F44AC0F0F5883209F4A7C018F5803143
:1025D00009F49BC0B8F4882309F4F9C0883009F4E1
:1025E00094C0FF91EF91BF91AF919F918F917F9197
:1025F0006F915F914F913F912F910F900FBE0F9070
:102600001F901895883109F488C0803251F7809363
:10261000A00414C0803409F49DC040F48033B9F3A1
:102620008833F9F68093A00485ECB0C0803509F4B6
:1026300085C0883509F496C0883499F60E94D9116E
:10264000D0CF883909F48CC038F5883729F050F498
:10265000883611F0803729F683E08093C204109207
:10266000450457C0883809F47BC0803919F0803898
:1026700009F0B7CF80914504803208F071C0E09135
:10268000450481E08E0F809345048091BB00F0E00B
:10269000EB5DFB4F80833DC0803B39F0E0F4803A36
:1026A00009F479C0883A09F09CCF84E08093C20491
:1026B0001092240410922304E0914604F091470400
:1026C00009958091230481110FC081E08093230438
:1026D0001092030409C0803C09F4A6CF883C09F499
:1026E000A3CF883B09F07DCFE091240481E08E0FD9
:1026F00080932404F0E0ED5FFB4F80818093BB006A
:10270000909124048091230429C080919D0480939A
:10271000BB0085EC8093BC0064CF90919F048091B6
:102720009E04981758F5E0919F0481E08E0F8093E6
:102730009F04F0E0E458FB4F8081E9CFE0919F04D3
:1027400081E08E0F80939F048091BB00F0E0E458FD
:10275000FB4F808390919F0480919E049817C8F24C
:1027600085E8D8CFE0919F0481E08E0F80939F048D
:102770008091BB00F0E0E458FB4F80838091A1047E
:1027800081115CCF81E080939C0484EA8093BC003B
:102790001092C20426CF85EC8093BC001092C20434
:1027A00080914504803230F4E0914504F0E0EB5D27
:1027B000FB4F10826091450470E0E0914804F09175
:1027C000490485E294E00995109245040ACF1092DD
:1027D000A00434CF1F920F920FB60F9211242F93A3
:1027E0003F934F935F936F937F938F939F93AF9399
:1027F000BF93EF93FF9388EC94E00E94AE04FF91A7
:10280000EF91BF91AF919F918F917F916F915F9168
:102810004F913F912F910F900FBE0F901F901895E1
:102820001F920F920FB60F9211242F938F939F93A5
:10283000EF93FF93E091D804F091D9048081E09167
:10284000DE04F091DF0482FD1BC090818091E104E1
:102850008F5F8F732091E204821741F0E091E104D1
:10286000F0E0E853FB4F958F8093E104FF91EF91E7
:102870009F918F912F910F900FBE0F901F901895E1
:102880008081F4CF1F920F920FB60F9211242F93D5
:102890003F938F939F93AF93BF93809176029091D4
:1028A0007702A0917802B09179023091750223E00D
:1028B000230F2D3758F50196A11DB11D20937502E8
:1028C0008093760290937702A0937802B093790276
:1028D00080917A0290917B02A0917C02B0917D025E
:1028E0000196A11DB11D80937A0290937B02A09363
:1028F0007C02B0937D02BF91AF919F918F913F91E8
:102900002F910F900FBE0F901F90189526E8230F60
:102910000296A11DB11DD2CFECE4F4E01382128225
:1029200088EE93E0A0E0B0E084839583A683B7832C
:102930008DED91E0918380830895E1E7F5E08FEFDD
:10294000808312821182148613868FEF9FEFDC0141
:1029500087839087A187B2870895E8ECF4E013821B
:10296000128288EE93E0A0E0B0E084839583A68392
:10297000B7838DE491E09183808385EC90E0958727
:10298000848784EC90E09787868780EC90E0918B39
:10299000808B81EC90E0938B828B82EC90E0958B26
:1029A000848B86EC90E0978B868B118E128E138E23
:1029B000148E0895CF93DF93CBE9D2E085E191E0C7
:1029C0009983888380E291EAA7E0B0E08A839B83C1
:1029D000AC83BD838FEF9FEF9F838E83188689879B
:1029E0008A8762E070E0CE010E945E0481E391E09C
:1029F00099838883DF91CF9108950E948C140E945F
:102A00009D140E94AD140C94DA14CF93DF93CDB7CC
:102A1000DEB7AE970FB6F894DEBF0FBECDBF0E94F3
:102A2000A50661E08DE00E940C0661E08CE00E944A
:102A30000C0661E08BE00E940C06E091D804F09156
:102A4000D90412E01083E091D404F091D5041082EF
:102A5000E091D604F091D7048FEC80831092E004CB
:102A6000E091DC04F091DD0486E08083E091DA04FB
:102A7000F091DB04808180618083E091DA04F09141
:102A8000DB04808188608083E091DA04F091DB04CC
:102A9000808180688083E091DA04F091DB0480819A
:102AA0008F7D808310924B0410924A041092590437
:102AB00010925B040E94CD050E94C2010E94BA01DF
:102AC00060E08EE00E94D1080E940F0F29833A83B4
:102AD0004B835C838F838FE18D831E8362E0CE0105
:102AE00001960E94071061E0CE0101960E94071036
:102AF0001DA61886BE01685F7F4F8FE00E94F20F0F
:102B00006885862F837021F06C7F8FE00E94D1084A
:102B10008DA5882369F0BE01635D7F4F8EE00E9422
:102B2000F20F882329F06DA56F778EE00E94D108FF
:102B300080919102811145C010928302109282020D
:102B40008FEF809386028093870280938802809320
:102B5000890280938A0280938B0281E080938C02A9
:102B600010928E0210928D021092850210928402B1
:102B700080916B0590916C05892B31F480E892E08F
:102B800090936C0580936B05E0917E02F0917F023B
:102B9000309721F080E892E09583848380E892E08A
:102BA00090937F0280937E021092900210928F0287
:102BB0008FE691E0909381028093800281E0809380
:102BC0009102E0918002F09181020480F581E02D74
:102BD00080E892E0099586EB92E0909383028093DF
:102BE000820281E090E090938E0280938D02E091CA
:102BF0008002F09181020284F385E02D80E892E06A
:102C00000995009701F19C0150E040E060E472E416
:102C10008FE090E00E944C208091740590917505A2
:102C2000A0917605B091770582179307A407B507A1
:102C300010F4DA01C9018093740590937505A0938F
:102C40007605B09377058EE1809371051092B602F8
:102C50001092B7021092B8020E9465090E94960E67
:102C60003E012BE2620E711C44244A9433243394B7
:102C700080911001882331F081EA90E00E949A0E41
:102C8000109210010E94B00F0E9459090091A602F3
:102C90001091A7022091A8023091A90206171707E8
:102CA0002807390708F074C030E020E049E952E015
:102CB0006AE972E08BE992E00E94F80380919A023F
:102CC0008CA3809199028DA30E940F0F2D8F3E8FB0
:102CD0004F8F58A369A37AA38BA34EA30E940F0F13
:102CE0002E8B3F8B488F598F6A8F7B8F8C8F3FA3A2
:102CF0000E940F0F2F87388B498B5A8B6B8B7C8BE5
:102D00008D8B88A70E940F0F288739874A875B879A
:102D10006C877D878E8779A70E940F0F29833A835E
:102D20004B835C836D837E838F836AA70091B90296
:102D30001091BA027E0184E2E80EF11C1CA70BA7D9
:102D4000D701DD907D01C3010E94C612D81621F083
:102D50006D2DC8010E94591F0F5F1F4FE614F70425
:102D600069F78091B9029091BA0207969093BA02DE
:102D70008093B9020E94590960567444824F9F4F54
:102D80006093A6027093A7028093A8029093A90271
:102D90000E94C60D0E94160E0E9403110E94901000
:102DA0001BA60E9459096093FE037093FF03809352
:102DB00000049093010488EC94E00E94A2047C013A
:102DC000892BB1F188EC94E00E9480040E946C1F72
:102DD000182F8BA741E050E0B30180EE93E00E94F2
:102DE000741F1F3709F589EF91E00E94EE0E82EF04
:102DF00091E00E94EE0E89EF91E00E94EE0E80EECF
:102E000093E0FC0101900020E9F7CF01815E93403F
:102E100059F0FC01E152FC4F20812F3729F4108238
:102E200082529C4FDC011C928BA50E94A401C3CF4F
:102E30008BA58D3009F064C28CEE91E00E94EE0EFD
:102E400000EE13E068015EE1B52EF601019000206E
:102E5000E9F7CF01815E93409801205E3340281747
:102E60003907C0F5D801AD908D018A2D0A2C000CD0
:102E7000990B0E942C1E892B81F48091DE03E09136
:102E8000DF03BE9EF0011124E053FD4FE80FF11D5A
:102E9000A0828F5F8093DE03D8CFF80132978081C4
:102EA000082E000C990B0E942C1E892B71F6809124
:102EB000DF03E091DE03B89E9001112420533D4FC3
:102EC000E20FF32FF11D10828F5F8093DF031092CA
:102ED000DE03BBCF32ECA32E32E0B32E40ED842EC6
:102EE00042E0942E84011EA6212C512C2DE7C22EE7
:102EF00021E0D22EF8019081D6018C9198136EC0FA
:102F0000218111968C911197281368C0019000209F
:102F1000E9F73197E01BF10B12962C911297022ED4
:102F2000000C330BE217F30709F058C013968C918D
:102F3000F50180832FEF218384E0C80ED11C99ED29
:102F4000C91691E0D906B1F65394AFEFAA1ABA0A9E
:102F5000025E1F4FB9E05B12C9CFE0EEF3E08EE1F5
:102F6000DF011D928A95E9F78091FE039091FF039E
:102F7000A0910004B09101044091CC025091CD0287
:102F80006091CE027091CF02841B950BA60BB70BFC
:102F9000853F9140A105B10508F48CC11092CB0288
:102FA000E091C202E150E33108F082C1F0E0E55265
:102FB000F84E0C946B2024195819581958194C19AB
:102FC00058195819A91ACC195819901A321A58199F
:102FD000581958194C1B241C9C1BCF1B8091C202F2
:102FE000292F092E000C330B205331092A303105CB
:102FF000E8F1823109F0A0CF9D3209F09DCFD801D0
:1030000011968C91082E000C990BC0970A9708F026
:1030100093CF91E0591261C050E040E070E060E071
:10302000C8010E94F41C61157048810591050CF0DF
:1030300084C050E040E070E060E0C8010E94F41CF1
:10304000613070488F4F9F4F0CF477C050E040E0E4
:1030500070E060E0C8010E94F41C7093C3026093AA
:10306000C4029EA5992309F465C060C0883001F5AB
:103070008091C302843009F067C02DE0F501208300
:1030800050E040E070E060E0C8010E94F41C9B0149
:10309000AB01BC014115510581E06807710508F0DD
:1030A0004BCF5093C5022093C6024092C70244CF33
:1030B000823109F4AECF833109F03ECFADE0A09369
:1030C000C302C8010E940B1E8F3F910509F0CCF589
:1030D000F50181832FEF22832FCFE2E05E122DC016
:1030E00050E040E070E060E0C8010E94F41C61150F
:1030F0007048810591050CF550E040E070E060E01B
:10310000C8010E94F41C613070488F4F9F4FACF093
:1031100050E040E070E060E0C8010E94F41C709351
:10312000C5026093C602222009F48BC04092C702F8
:1031300081E08EA722242394FFCE222009F4FCCE26
:1031400090CF4092C202F8CE8F3009F0F5CE82E0E7
:10315000581215C0C8010E940B1E9C012150310954
:103160002C30310548F48093030180910301809352
:10317000C4024092CA02E0CE4092C202F6CF93E06F
:10318000591213C0C8010E940B1E9C012150310925
:103190002F31310538F48093020180910201809330
:1031A000C502E7CF4092C202F8CFA4E05A1210C085
:1031B000C8010E940B1E8436910538F48093AD023D
:1031C0008091AD028093C602D4CF4092C202F8CF64
:1031D000B5E05B1210C0C8010E940B1E883191053A
:1031E00038F48093AC028091AC028093C702C1CFC7
:1031F0004092C202F8CFE6E05E1210C0C8010E9401
:103200000B1E8C33910538F48093AB028091AB0296
:103210008093C802AECF4092C202F8CFF7E05F12AF
:10322000A8CFC8010E940B1E8C33910538F48093FF
:10323000AA028091AA028093C9029BCF4092C20247
:10324000F8CF21E02EA778CE8091C302833089F099
:103250008430C9F0823061F58091C4028F3F41F51E
:103260001092C1023092AE0261E08DE00E948105B1
:1032700021C08091C4028F3FD9F41092C1021092F4
:10328000AE0260E0F2CF8091C4028F3F89F43092A9
:10329000C1020E94160E0EC08091C302863009F44E
:1032A0004BC0D8F5833009F45FC0843009F468C09E
:1032B0000E94A60E8091FE039091FF03A09100044E
:1032C000B09101048093CC029093CD02A093CE02E2
:1032D000B093CF028AE09401215E3F4FF401119236
:1032E000E217F307E1F781502EE1820E911C811164
:1032F000F2CFE2ECF2E089E0DF011D928A95E9F776
:1033000080E090E0892B09F4B3CC0E943D0588232E
:1033100009F4AECC0E940000ABCC8730C9F08E30EF
:1033200039F68091C4028F3F19F61092BF02309295
:10333000C0020E949010BECF8091C4028F3F09F05E
:10334000B7CF1092C0021092BF020E948110B2CF7C
:103350008091C4028F3F09F0ABCF1092C00210924F
:10336000BF020E947210A6CF8091C4028F3F09F065
:103370009FCF1092C0021092BF020E9465109ACF98
:103380008091C4028F3F09F093CF1092C002309217
:10339000BF020E9403118ECF8091C3028A3009F0D0
:1033A00087CF8091C4028F3F09F082CF84E391E000
:1033B0000E9483018091C102882351F18BE291E048
:1033C0000E949A0E8DE191E00E9483018091BF02DC
:1033D000882359F183E191E00E94830180910501E6
:1033E000823501F58FE091E00E949A0E8DEF91E019
:1033F0000E94EE0E60910601709107018091080114
:10340000909109014AE00E94AA0E0E94960E52CFA6
:103410008091AE02882319F088E291E0D1CF84E256
:1034200091E0CECF89E091E0DFCF80910501823538
:1034300051F480910401823519F485E091E0D4CFF4
:1034400081E091E0D1CF873451F480910401873439
:1034500019F48BEF90E0C8CF87EF90E0C5CF83EFF2
:1034600090E0C2CF8091C3028F3F09F021CF80E668
:1034700092E00E949A0E87E592E00E949A0E8DE4F7
:1034800092E00E949A0E81E492E00E949A0E85E3F7
:1034900092E00E949A0E8BE292E00E949A0E81E2E4
:1034A00092E00E949A0E85E192E00E949A0E85E0D9
:1034B00092E00E949A0E80EF91E00E949A0E82EEB6
:1034C00091E00E949A0E83ED91E00E949A0E88ECA2
:1034D00091E00E949A0E89EB91E00E949A0E8AEA8E
:1034E00091E00E949A0E80E991E00E949A0E85E791
:1034F00091E00E949A0E8CE691E00E949A0E82E67C
:1035000091E00E949A0E86E591E00E949A0E8CE46A
:1035100091E00E949A0E85E491E00E949A0E75CF88
:103520008091C3028F3F09F0C3CE8BE391E00E94EC
:10353000830181E00E94FC0E8EE20E94A40180E0E3
:103540000E94FC0E8EE20E94A40180E00E94030F04
:10355000B1CE8091C302843009F473C08F3009F07A
:10356000A7CE8091CA028F3F09F0A2CE8091C402FB
:103570008093B4028091C5028093B3028091C60209
:103580008093B5028091C7028093B1028091C802F6
:103590008093B0028091C9028093AF0230925804A8
:1035A00088E680935A041092590410925B0490E0CC
:1035B00080E00E94AF018091AF020E947702682FE5
:1035C0008CE494E00E9448028091B0020E9477024D
:1035D000682F8CE494E00E9448028091B1020E941E
:1035E0007702682F8CE494E00E9448028091B20236
:1035F000811101C081E00E947702682F8CE494E081
:103600000E9448028091B3020E947702682F8CE4E6
:1036100094E00E9448028091B4020E947702682FD1
:103620008CE494E00E9448028091B5020E947702E7
:10363000682F8CE494E00E94480281E00E94C30855
:1036400039CE8091C4028D3009F032CE8091C7020C
:103650008F3F09F02DCE8091BF0281113092BE02C2
:103660008091C10281113092BD028091BC02811112
:103670003092BB028091C5029091C602982789279B
:103680009827B0E0A0E08093060190930701A093F3
:103690000801B09309010ECE8091C3028F3069F00A
:1036A000813109F007CE8091C4028F3F09F000CE2E
:1036B0003092CB020E94B00FFDCD8091C4028F3FAB
:1036C00009F0F6CD0E940F0F2093AF023093B002A5
:1036D0004093B1025093B2026093B3027093B4026C
:1036E0008093B502872F0E94FC0E8FE20E94A401F6
:1036F0008091B3020E94FC0E8FE20E94A40180918F
:10370000B5020E94FC0E80E20E94A4018091B102E9
:103710000E94FC0E8AE30E94A4018091B0020E94E4
:10372000FC0E8AE30E94A4018091AF020E94FC0E6D
:103730008AE00E94A40169CE8091C7028F3F09F000
:10374000B7CDC090C302D090C402DC24CD24DC24C9
:103750000D2C000CEE08FF086091C5027091C602A6
:10376000762767277627072E000C880B990BC60E45
:10377000D71EE81EF91E87E192E00E94EE0E4AE095
:10378000C701B601F7FE3FCE8DE20E94A401662775
:103790007727CB016C197D098E099F0933CE809163
:1037A000C3028330B9F168F4823009F083CD80918F
:1037B000C4028F3F09F07CCD1092BC020E94B90D6B
:1037C00079CD8430B9F18D3009F074CD8091C70284
:1037D0008F3F09F06DCD2091C402822F90E090932D
:1037E0000F0180930E019091C502492F50E0509334
:1037F0000D0140930C018091C602482F50E0509378
:103800000B0140930A012093B7029093B602809374
:10381000B8020DC08091C4028F3F09F049CD1092CB
:10382000BC021092B6021092B7021092B8020E9427
:10383000650940CD8091C4028F3F09F039CD3092A7
:10384000BC020E94C60D36CD8091C3028431E9F1DD
:10385000853109F02FCD8091C402863109F02ACD3F
:103860008091C5028F3F09F023CDB12C88EED82E70
:10387000C12C97E0E92EF12C0B2D10E08091B902BC
:103880009091BA02B7010E943820061717070CF072
:1038900094C01DA30CA3CE0184960E94C612C81624
:1038A00028F4CE0184960E94C612C82E1DA30CA334
:1038B000CE0184960E94C6128D1528F4CE018496FE
:1038C0000E94C612D82EB394D7CF8091C4028F3FE6
:1038D00009F0EECC8091B9029091BA02E816F9068F
:1038E0000CF0E8CC80E292E00E94EE0EFDA2ECA289
:1038F000CE0184960E94C6120E94FC0E87E292E0DE
:103900000E94EE0E8CE292E00E94EE0EC70101963C
:103910009DA38CA3CE0184960E94C6120E94FC0E29
:1039200084EF91E00E94F00E87E392E00E94EE0E99
:10393000C70105969DA38CA3CE0184960E94C61252
:103940000E94FC0E8FE20E94A401C70106969DA36F
:103950008CA3CE0184960E94C6120E94FC0E8FE2B8
:103960000E94A401C70104969DA38CA3CE01849656
:103970000E94C6120E94030F8CE392E00E94EE0E9A
:10398000C70102969DA38CA3CE0184960E94C61205
:103990000E94FC0E8AE30E94A401C70103969DA326
:1039A0008CA3CE0184960E94C6120E94030F0E942F
:1039B000960EF7E0EF0EF11C8DCF81E492E00E94AD
:1039C000EE0E8C2D0E94FC0E87E292E00E94F00E1B
:1039D00080E592E00E94EE0E8D2D0E94FC0E87E2A3
:1039E00092E00E94F00E66CCB0E0A0E0EAEFFCE1CD
:1039F0000C940C1F5C016B017A016115710519F0C3
:103A0000FB0191838083E114F10451F0C701029717
:103A1000839730F040E030E020E090E072C05E013B
:103A2000E5012196F5011081812F90E00E942C1E66
:103A3000892BA9F71D3201F52196F501118101E0CD
:103A4000E114F10409F4DAC0F0E1EF16F10409F031
:103A500082C0103359F488818F7D883509F076C093
:103A6000198122960260F0E1EF2EF12C812C912C2D
:103A7000A12C88E0B82E8CC01B3221F4E5012296DF
:103A8000F501118100E0DCCFEAE0EE16F10409F463
:103A9000BBC0F0E1EF16F10409F06DC0E7CF78E0AC
:103AA000E72EF12C812C912CA12C60E1B62E70C058
:103AB0003FE9310F3A3128F439EA332E80C021E052
:103AC0009AC0302F3170C114D10431F0222309F192
:103AD0002197F601D183C08327FF21C060E070E009
:103AE00080E090E8311104C06FEF7FEF8FEF9FE728
:103AF00022E230E030937F0520937E05462F372F5A
:103B0000282F642F732F822FCDB7DEB7E1E10C94FD
:103B1000281F01FF04C02297F601D183C0833323FD
:103B200041F090958095709561957F4F8F4F9F4F95
:103B3000E5CF97FFE3CF82E290E090937F058093FB
:103B40007E056FEF7FEF8FEF9FE7D8CF10E3E11493
:103B5000F10409F4A4CF28E0E216F10409F4A2CF9D
:103B60000CF092CF812C912CA12CE0E4BE2E82E0AF
:103B7000E816F10469F060E070E080E090E89701F9
:103B80000F2C000C440B550B0E94DE1E49015A01FC
:103B900020E060E070E0CB0127010F2C000C6608EC
:103BA0007708FE0150ED352E310E39E0331540F423
:103BB0003FEB310F3A3108F07BCF49EC342E310E18
:103BC0003E141F040CF07DCF27FD15C08616970606
:103BD000A806B90678F0A30192010E94CE1E630DDB
:103BE000711D811D911D61307105810520E89207CD
:103BF00008F465CF2FEF21961081D3CF103309F44D
:103C00002ACF2AE0E22EF12C9CEC892E982CA82CAD
:103C10009CE0B92EBDCFFC0188279927E89421911B
:103C20002032E9F3293010F02E30C8F32B3241F066
:103C30002D3239F4689404C00E94351E820F911D04
:103C4000219120532A30C0F31EF4909581959F4F07
:103C50000895F8940C948C2091110C943D1E8032A0
:103C600019F089508550C8F708957AE0979F902DF4
:103C7000879F802D910D11240895992788270895F5
:103C8000E89409C097FB3EF49095809570956195F6
:103C90007F4F8F4F9F4F9923A9F0F92F96E9BB27AC
:103CA0009395F695879577956795B795F111F8CF28
:103CB000FAF4BB0F11F460FF1BC06F5F7F4F8F4F93
:103CC0009F4F16C0882311F096E911C0772321F089
:103CD0009EE8872F762F05C0662371F096E8862F21
:103CE00070E060E02AF09A95660F771F881FDAF778
:103CF000880F9695879597F9089597F99F6780E8BB
:103D000070E060E008959FEF80EC089500240A942D
:103D10001616170618060906089500240A941216A6
:103D20001306140605060895092E0394000C11F4D9
:103D3000882352F0BB0F40F4BF2B11F460FF04C086
:103D40006F5F7F4F8F4F9F4F089557FD9058440FDF
:103D5000551F59F05F3F71F04795880F97FB991FEA
:103D600061F09F3F79F087950895121613061406A7
:103D7000551FF2CF4695F1DF08C016161706180634
:103D8000991FF1CF86957105610508940895E8940F
:103D9000BB2766277727CB0197F90895DB018F931F
:103DA0009F930E94001FBF91AF91A29F800D911D14
:103DB000A39F900DB29F900D11240895A1E21A2E99
:103DC000AA1BBB1BFD010DC0AA1FBB1FEE1FFF1FBF
:103DD000A217B307E407F50720F0A21BB30BE40B0F
:103DE000F50B661F771F881F991F1A9469F7609556
:103DF0007095809590959B01AC01BD01CF01089510
:103E00000E94421FA59F900DB49F900DA49F800D0E
:103E1000911D112408952F923F924F925F926F92BD
:103E20007F928F929F92AF92BF92CF92DF92EF924A
:103E3000FF920F931F93CF93DF93CDB7DEB7CA1BCB
:103E4000DB0B0FB6F894DEBF0FBECDBF09942A88F6
:103E5000398848885F846E847D848C849B84AA849E
:103E6000B984C884DF80EE80FD800C811B81AA812B
:103E7000B981CE0FD11D0FB6F894DEBF0FBECDBFF6
:103E8000ED010895A29FB001B39FC001A39F700DE3
:103E9000811D1124911DB29F700D811D1124911D52
:103EA0000895F999FECF92BD81BDF89A992780B502
:103EB0000895262FF999FECF1FBA92BD81BD20BD6E
:103EC0000FB6F894FA9AF99A0FBE0196089581E018
:103ED00090E0F8940C948C209111089581568A51A9
:103EE00008F4805285580895FB01DC010D900020F4
:103EF000E9F711974150504028F0019000200D92B1
:103F0000C9F708951C9208950E94981F0C94941E5E
:103F10000E948D1E58F00E94861E40F029F45F3FDB
:103F200029F00C947D1E51110C94C81E0C94831E14
:103F30000E94A51E68F39923B1F3552391F3951BB5
:103F4000550BBB27AA2762177307840738F09F5FBA
:103F50005F4F220F331F441FAA1FA9F335D00E2E27
:103F60003AF0E0E832D091505040E695001CCAF794
:103F70002BD0FE2F29D0660F771F881FBB1F261757
:103F800037074807AB07B0E809F0BB0B802DBF012E
:103F9000FF2793585F4F3AF09E3F510578F00C94FD
:103FA0007D1E0C94C81E5F3FE4F3983ED4F38695C3
:103FB00077956795B795F7959F5FC9F7880F911D1E
:103FC0009695879597F90895E1E0660F771F881F0A
:103FD000BB1F621773078407BA0720F0621B730BBD
:103FE000840BBA0BEE1F88F7E09508950E94FD1F21
:103FF0006894B1110C94C81E08950E94AD1E88F0FB
:104000009F5798F0B92F9927B751B0F0E1F0660F9C
:10401000771F881F991F1AF0BA95C9F714C0B130DD
:1040200091F00E94C71EB1E008950C94C71E672F3F
:10403000782F8827B85F39F0B93FCCF3869577950C
:104040006795B395D9F73EF49095809570956195F5
:104050007F4F8F4F9F4F0895991B79E004C0991FA0
:10406000961708F0961B881F7A95C9F780950895D2
:1040700097FB072E16F4009407D077FD09D00E9415
:10408000782007FC05D03EF4909581959F4F0895C8
:10409000709561957F4F0895052E97FB1EF400944F
:1040A0000E94632057FD07D00E94DE1E07FC03D04C
:1040B0004EF40C94632050954095309521953F4FD8
:1040C0004F4F5F4F089590958095709561957F4F04
:1040D0008F4F9F4F0895EE0FFF1F0590F491E02D35
:1040E00009940E94421FB7FF0895821B930B089505
:1040F000AA1BBB1B51E107C0AA1FBB1FA617B7070E
:1041000010F0A61BB70B881F991F5A95A9F7809529
:0C4110009095BC01CD010895F894FFCFFC
:10411C00BB7701014F52F4010000FF00FF00FF00CC
:10412C0001000000005E045304F803D503C412C45C
:10413C0012D103CD03FD08BD03C4125903000000C6
:10414C00005E045304F803D503AD028A02D103CDFB
:10415C0003FD08BD031112590300000000D00451E7
:10416C000571041D05A2048004940400000000C421
:10417C0012C412C412620E5E0E5B0E0000000076BA
:10418C000D1A0D180D620E5E0E150DB40A44310396
:10419C00014F4E02024F460303424C05044C4503AB
:1041AC000547520506524503075345030853540669
:1041BC00094C45040A5645070B4845040C574F0457
:1041CC000D414C090E5449040F4355071054450436
:1041DC001141440312524703134849071448490438
:1041EC00154C4F0316454F03FF0000000048021BFF
:1041FC00027E05F10114020102F2010D0A00202ACF
:10420C00432C200020524825001B5B44003E2042DA
:10421C004C494E4B20494E54455256414C20534527
:10422C005420544F3A2000455155414C533A2000EC
:10423C0054656D703A2000202A43200048756D6942
:10424C00646974793A20004F6E3A200041743A2028
:10425C0000484947484553542054454D503A200096
:0E426C004C4F574553542054454D503A2000B6
:00000001FF
