:100000000C94C9010C94F1010C94F1010C94F101D0
:100010000C94F1010C94F1010C94F1010C94F10198
:100020000C94F1010C94F1010C94F1010C94F10188
:100030000C94F1010C94F1010C94F1010C94F10178
:100040000C946B340C94F1010C9439340C941334EB
:100050000C94F1010C94F1010C94F1010C94F10158
:100060000C94F4320C94F1012A494E56414C494407
:1000700020434F4D4D414E44002A494E56414C4974
:100080004420434F4D4D414E44002052482500200E
:100090002A462C2000202A432C20002052482500EC
:1000A00048756D69643A2000202A43200054656D2C
:1000B000703A2000205248252000202A43200020AA
:1000C0003C204572617365203E2054656D7020545C
:1000D00068726573686F6C647300205E2049502FEE
:1000E0005375626E65742F47617465776179003E60
:1000F0003D003C3D00596573282D3E29204E6F2858
:10010000486F6D65290041726520596F75205375E0
:1001100072653F00202A5041434B455420524543CD
:100120004549564544004D616A6F72204F766572AD
:10013000004D696E6F72204F76657200436F6D6679
:100140006F727461626C65004D696E6F7220556EDE
:10015000646572004D616A6F7220556E646572004D
:100160003E20424C494E4B20494E54455256414C3C
:100170002053455420544F3A20004F4646003E201D
:1001800052474220003E2052474220003E20524724
:100190004220424C494E4B494E47202800414C5486
:1001A00045524E4154494E472000414C5445524E11
:1001B0004154494E47004F464620004F4646004FA7
:1001C000464620004F464600475245454E200047D0
:1001D0005245454E004F464620004F464600524588
:1001E00044200052454400475245454E20004752A6
:1001F00045454E00524544200052454400424C497A
:100200004E4B494E472000424C494E4B494E4720E9
:10021000003E204C454420003E204C4544200045F3
:100220005155414C533A2000455155414C533A20C9
:10023000002041743A20004F6E3A20002052482599
:10024000200048756D69646974793A2000202A435A
:10025000200054656D703A200041743A20004F6EC2
:100260003A2000205248250048756D696469747908
:100270003A2000202A43200054656D703A20002067
:100280002A4320004C4F574553542054454D503A73
:100290002000202A43200048494748455354205411
:1002A000454D503A2000202A4320004C4F574553DB
:1002B000542054454D503A2000202A4320004849FC
:1002C00047484553542054454D503A20002A4E4F3C
:1002D0002044415441205945540056657273696F5A
:1002E0006E3A20000000000800020100000304072D
:1002F00000000000000000003E57656C636F6D65F4
:1003000020746F2041726475696E6F20436F6D6D4C
:10031000616E64204C696E6520496E7465727072FE
:10032000657465722C20656E746572202748454C93
:10033000502720666F72206C697374206F6620638B
:100340006F6D6D616E6473210A0000000000230070
:100350002600290000000000250028002B000000D6
:100360000000240027002A00010204081020408019
:1003700001020408102001020408102004040404EF
:10038000040404040202020202020303030303033F
:10039000F93511241FBECFEFD8E0DEBFCDBF12E08C
:1003A000A0E0B1E0EEE0F6E702C005900D92A439BE
:1003B000B107D9F726E0A4E9B2E001C01D92AC3E36
:1003C000B207E1F711E0C9ECD1E004C02197FE01CA
:1003D0000E94E43AC83CD107C9F70E9411360C9438
:1003E000DD370C94000080E480937C0080917A00DB
:1003F000806480937A0080917A0086FDFCCF8091A2
:1004000078009091790008958CBD9DBD0895E0918C
:10041000BA05F091BB050190F081E02D682F8AEBC1
:1004200095E009949C0190E0F901E90FF11D8081AC
:10043000811105C0DB018C918083118208959F5F3B
:10044000F3CF88E292E09093AA058093A9050895DE
:10045000089580E392E09093A8058093A7050895FE
:10046000089520915A05260F3327331F2132310575
:10047000ECF420913006FC0190E080E0243069F03B
:1004800082E00895A0915A052191AC01465C5A4F33
:10049000A40FB52FB11D2C930196861798F3809168
:1004A0005A05680F60935A0580E0089581E0089529
:1004B0000895E091B9058091B805E81730F4F0E0AF
:1004C000E05FF94F808190E008958FEF9FEF0895EE
:1004D0009091B9058091B8052FEF3FEF981748F438
:1004E000E92FF0E0E05FF94F208130E09F5F9093CB
:1004F000B905C90108958091B8059091B905891B86
:10050000990B0895CF92DF92EF92FF920F931F9372
:10051000CF93DF937C01CB018A012091C605222372
:1005200089F0EB016B01C40ED51ECC15DD0569F019
:100530006991D701ED91FC910190F081E02DC70107
:100540000995F3CF642F0E943102C801DF91CF914A
:100550001F910F91FF90EF90DF90CF900895CF9370
:10056000DF931F92CDB7DEB769832091C6052223A2
:10057000F9F02091C905203258F021E030E0FC016B
:100580003383228390E080E00F90DF91CF91089534
:100590008091C705E82FF0E0E653FA4F99819083E8
:1005A0008F5F8093C7058093C90581E090E0ECCF11
:1005B00061E0CE0101960E943102F7CFFC0120815B
:1005C0002EBD9B012150310941F051810DB407FE30
:1005D000FDCF4EB55EBD4193F5CF61507109860FD9
:1005E000971F0DB407FEFDCF2EB5FC0120830895A3
:1005F000E0912A05F0912B05808190912905892BA6
:1006000080830895E0912A05F0912B0590818091D7
:10061000290580958923808308958EBD00000DB43F
:1006200007FEFDCF8EB50895AF92BF92CF92DF92B5
:10063000EF92FF920F931F93CF93DF93CDB7DEB767
:1006400028970FB6F894DEBF0FBECDBF8C017B019B
:100650006A0180919F058333E1F45801A40EB51E11
:10066000A016B10609F46FC00E94020380EF0E9439
:100670000D03812F0E940D03802F0E940D030F5F39
:100680001F4FF70181917F010E940D030E94F80224
:10069000E7CF5B01A40EB51E8433C1F40E940203B0
:1006A00019830A838D2D80688B83CC8264E070E08F
:1006B000CE0101960E94DE02AE14BF0409F441C0CF
:1006C000F70181917F010E940D03F6CF0E94020382
:1006D0000F3F110509F028F419820A8384E08B8307
:1006E0000CC017FD17C019820A8333E016950795D1
:1006F0003A95E1F7007E0C600B8386E0C816D104C2
:10070000A0F5F701DE011496EA15FB0599F0819139
:100710008D93FACFC80126E0969587952A95E1F743
:10072000807E19830A830115104C10F48461D7CFA1
:100730008C61D5CFB6016D5F7F4FCE0101960E94CF
:10074000DE020E94F802C60128960FB6F894DEBFBA
:100750000FBECDBFDF91CF911F910F91FF90EF9012
:10076000DF90CF90BF90AF90089563E070E0CE012E
:1007700001960E94DE02F70181917F010E940D0324
:10078000AE14BF04C1F7DDCFCF93DF931F92CDB777
:10079000DEB7898341E050E0BE016F5F7F4F90E09C
:1007A00080E00E9414030F90DF91CF91089590E0B4
:1007B00020919F05233339F40C96982F990F990FA8
:1007C000990F80E008954896F8CFDA01E091B705D7
:1007D000F0E0FE2FEE27E60FF71F90E0982F882716
:1007E000A901BD018E0F9F1F0C941403CF93DF93BB
:1007F00000D0CDB7DEB779836A8322E030E0AE0166
:100800004F5F5F4F64E070E00E94E5030F900F9030
:10081000DF91CF910895CF93DF931F92CDB7DEB7CD
:100820002091B70530E0322F2227260F371F90E0A6
:10083000982F8827498341E050E0BE016F5F7F4FCA
:10084000820F931F0E9414030F90DF91CF910895A0
:10085000CF92DF92EF92FF920F931F93CF93DF938C
:10086000EC017A016901E881F9810190F081E02DC4
:100870000995E881F9810084F185E02D9801A601B0
:10088000B701CE01DF91CF911F910F91FF90EF90B3
:10089000DF90CF9009946F927F928F929F92AF9248
:1008A000BF92CF92DF92EF92FF920F931F93CF935D
:1008B000DF93CDB7DEB7AC970FB6F894DEBF0FBEAF
:1008C000CDBFDC011696ED91FC91319609F48BC0F9
:1008D00059013A016B018C01FE0131964F0188E20A
:1008E000DF011D928A95E9F7D801ED91FC9104880A
:1008F000F589E02DB401C80109957C01892B09F027
:100900005CC01AA619A61CA61BA6D801ED91FC91E5
:100910000688F789E02D9E01255D3F4FAE01475DBA
:100920005F4FB401C80109957C01892B09F045C0CE
:10093000A114B10439F088E2F401D50101900D92BF
:100940008A95E1F7C114D10409F189A59AA521E09E
:1009500030E097FF02C02FEF3FEF9F77829FB001FB
:10096000839F700D929F700D1124072E000C880B31
:10097000990B0E94F03720E030E040E251E40E9401
:10098000023AF60160837183828393836114710458
:10099000A1F06BA57CA5072E000C880B990B0E947B
:1009A000F03720E030E040E251E40E94023AD30107
:1009B0006D937D938D939C931397C701AC960FB65F
:1009C000F894DEBF0FBECDBFDF91CF911F910F9185
:1009D000FF90EF90DF90CF90BF90AF909F908F905F
:1009E0007F906F90089587E1E82EF12CE6CF8F92EB
:1009F0009F92AF92BF92CF92DF92EF92FF920F93AE
:100A00001F93CF93DF93EC018B016A017901E88199
:100A1000F9810288F389E02D0995B82EB801685F45
:100A20007F4FE881F9810288F389E02DCE01099595
:100A3000982EB801605F7F4FE881F9810288F389C1
:100A4000E02DCE010995A82EB801685E7F4FE881A0
:100A5000F9810288F389E02DCE010995882EB8012D
:100A6000605E7F4FE881F9810288F389E02DCE0135
:100A700009959B2D990D9A0D980D891319C09A2DE2
:100A8000882DF601918380839B2D892DF701918319
:100A9000808390E080E0DF91CF911F910F91FF90D4
:100AA000EF90DF90CF90BF90AF909F908F90089580
:100AB00085E190E0F0CF47E050E080E0FB0121913C
:100AC000BF01042E01C0220F0A94EAF7820F4150A1
:100AD0005109A0F70895FC01828590E00895FC017A
:100AE000818590E00895CF92DF92EF92FF920F936D
:100AF0001F93CF93DF93EC017A016901E881F981BB
:100B00000190F081E02D0995E881F9810480F5815B
:100B1000E02D9801A601B701CE01DF91CF911F9181
:100B20000F91FF90EF90DF90CF900994CF92DF92DA
:100B3000EF92FF920F931F93CF93DF93CDB7DEB762
:100B400028970FB6F894DEBF0FBECDBFDC01169616
:100B5000ED91FC91319609F440C08A017B01198224
:100B60001A821B821C821D821E821F821886DC0153
:100B7000ED91FC910084F185E02DAE014B5F5F4F5C
:100B8000BE016F5F7F4F09956C01892BB1F4E114B1
:100B9000F10441F069817A818B819C810E94743AD1
:100BA000F70160830115110541F06D817E818F8110
:100BB00098850E94743AD8016C93C60128960FB6A6
:100BC000F894DEBF0FBECDBFDF91CF911F910F9183
:100BD000FF90EF90DF90CF90089587E1C82ED12C41
:100BE000ECCF262F2D7F29F4FC01608790E080E078
:100BF000089588E190E00895DC0117967C936E9348
:100C00001697FB01E859FC4FE4911996EC9319975C
:100C100064587C4FFB0164911A966C9308956AE0C6
:100C20000E94C43A292F30E1839FC0011124822BF6
:100C30000895982F92959F708F702AE0929F800D53
:100C4000112408950895CF93DF931F92CDB7DEB797
:100C50006983DC01ED91FC910280F381E02D41E09C
:100C600050E0BE016F5F7F4F09950F90DF91CF91EC
:100C70000895DF92EF92FF920F931F93CF93DF932C
:100C800000D0CDB7DEB7FB01DC0157961C921E9257
:100C900056972281211109C02381211106C0248188
:100CA000211103C02581222369F14115510551F11C
:100CB0007A018F01FC01D08C80E591E00E94040252
:100CC000A8014E5F5F4F24E030E06CE070E08D2DB6
:100CD0000E94E503F982EA8222E030E0AE014F5F34
:100CE0005F4F60E170E08D2D0E94E50381E090E0B0
:100CF0000F900F90DF91CF911F910F91FF90EF9088
:100D0000DF90089580E0F3CFFC01818D928D0895EE
:100D1000FC01848595850895FC0184899589089551
:100D20002EE432E0FC0131832083FB0140895189AC
:100D300062897389FC0142835383648375830895B8
:100D4000FC01538D448D252F30E0842F90E0821BD1
:100D5000930B541710F0CF96089501970895FC0156
:100D6000918D828D981761F0A28DAE0FBF2FB11DAE
:100D70005D968C91928D9F5F9F73928F90E0089506
:100D80008FEF9FEF0895FC01918D828D981731F0C0
:100D9000828DE80FF11D858D90E008958FEF9FEF14
:100DA0000895FC01918D228D892F90E0805C9F4FEA
:100DB000821B91098F7399270895FC01A48DA80FB8
:100DC000B92FB11DA35ABF4F2C91848D90E001968D
:100DD0008F739927848FA689B7892C93A089B189AD
:100DE0008C91837080648C93938D848D981306C04E
:100DF0000288F389E02D80818F7D80830895EF92B2
:100E0000FF920F931F93CF93DF93EC0181E0888FC4
:100E10009B8D8C8D98131AC0E889F989808185FF94
:100E200015C09FB7F894EE89FF896083E889F98936
:100E300080818370806480839FBF81E090E0DF9138
:100E4000CF911F910F91FF90EF900895F62E0B8D8B
:100E500010E00F5F1F4F0F731127E02E8C8D8E1146
:100E60000CC00FB607FCFACFE889F989808185FFAD
:100E7000F5CFCE010E94DD06F1CFEB8DEC0FFD2FFB
:100E8000F11DE35AFF4FF0829FB7F8940B8FEA8968
:100E9000FB8980818062CFCFCF93DF93EC01888D77
:100EA0008823B9F0AA89BB89E889F9898C9185FDE5
:100EB00003C0808186FD0DC00FB607FCF7CF8C9173
:100EC00085FFF2CF808185FFEDCFCE010E94DD0648
:100ED000E9CFDF91CF91089586E396E00E94D10695
:100EE00021E0892B09F420E0822F089580E090E032
:100EF000892B29F00E946C0781110C940000089541
:100F0000DC01ED91FC910190F081E02D0994EF92CC
:100F1000FF920F931F93CF93DF938C017B01D0E05F
:100F2000C0E0F701EC0FFD1F6491662361F0D8016A
:100F3000ED91FC910190F081E02DC8010995892B7C
:100F400011F02196EECFCE01DF91CF911F910F913D
:100F5000FF90EF900895AF92BF92CF92DF92EF9201
:100F6000FF920F931F93CF93DF936C017B018B0153
:100F7000040F151FEB015E01AE18BF08C017D107A3
:100F800059F06991D601ED91FC910190F081E02D2D
:100F9000C6010995892B79F7C501DF91CF911F9182
:100FA0000F91FF90EF90DF90CF90BF90AF9008959A
:100FB0000895089590E0FC01EC51FD4F2491FC014F
:100FC000E859FC4F3491FC01E458FC4FE491EE23C6
:100FD000C9F0222339F0233001F1A8F4213019F1AE
:100FE000223029F1F0E0EE0FFF1FEC5AFC4FA591E3
:100FF000B4918FB7F894EC91611126C030953E23DF
:101000003C938FBF08952730A9F02830C9F02430D1
:1010100049F7809180008F7D03C0809180008F7799
:1010200080938000DFCF84B58F7784BDDBCF84B51C
:101030008F7DFBCF8091B0008F778093B000D2CFAF
:101040008091B0008F7DF9CF3E2BDACF1092300621
:1010500081E080930F0610920A0661E082E10E940F
:10106000DA0761E083E10E94DA07E9EBF0E08081D2
:101070008E7F808380818D7F808388E48093B80019
:1010800085E48093BC0008951092B9051092B805CC
:101090001092C7051092C9050E9426080E942902D5
:1010A0000C942102CF93DF9391E09093390588232C
:1010B000B9F0C091B800D091BA008091BC008A7B91
:1010C0008093BC0060E082E10E94DA0760E083E187
:1010D0000E94DA070E942608D093BA00C093B80095
:1010E000DF91CF910895CF93DF9390E0FC01E85911
:1010F000FC4F249184589C4FFC0184918823C9F0B3
:1011000090E0880F991FFC01E25AFC4FA591B49121
:10111000FC01EC5AFC4FC591D49161110DC09FB7F1
:10112000F8948C91209582238C938881282328839E
:101130009FBFDF91CF910895623051F49FB7F8942B
:101140003C91822F809583238C93E8812E2BEFCFC7
:101150008FB7F894EC912E2B2C938FBFEACF1F936F
:10116000CF93DF93182FEB0161E00E947308209763
:1011700039F460E0812FDF91CF911F910C94DA0751
:10118000CF3FD10511F461E0F5CFE12FF0E0EC5154
:10119000FD4FE491E33031F140F4E130B1F0E23061
:1011A000E1F0C038D1057CF7E4CFE73029F1E83031
:1011B00059F1E430B1F78091800080628093800023
:1011C000D0938B00C0938A0004C084B5806884BD2E
:1011D000C7BDDF91CF911F91089584B5806284BD12
:1011E000C8BDF7CF80918000806880938000D09345
:1011F0008900C0938800EDCF8091B0008068809313
:10120000B000C093B300E5CF8091B00080628093BE
:10121000B000C093B400DDCF789484B5826084BD03
:1012200084B5816084BD85B5826085BD85B58160EA
:1012300085BDEEE6F0E0808181608083E1E8F0E04A
:101240001082808182608083808181608083E0E879
:10125000F0E0808181608083E1EBF0E08081846058
:101260008083E0EBF0E0808181608083EAE7F0E05A
:1012700080818460808380818260808380818160BE
:1012800080838081806880831092C10008958130BE
:10129000910539F0880F991F880F991F05970197BD
:1012A000F1F708953FB7F8948091BD049091BE0482
:1012B000A091BF04B091C00426B5A89B05C02F3FE4
:1012C00019F00196A11DB11D3FBFBA2FA92F982F6C
:1012D0008827BC01CD01620F711D811D911D42E067
:1012E000660F771F881F991F4A95D1F70895CF92EF
:1012F000DF92EF92FF920F931F93CF93C82F81320B
:1013000008F096C00E9452096B017C018091300662
:10131000811169C081E08093300680930F069FEFB2
:1013200090930E0610920D069C0F90930C068093DE
:101330000B0680910B06806D80930B0680910A0648
:10134000813009F077C010920A060E9452096B01A1
:101350007C0180910B068093BB00809132069091B6
:101360003306A0913406B0913506892B8A2B8B2B3E
:10137000A1F00E945209009132061091330620918B
:101380003406309135066C197D098E099F090617C0
:1013900017072807390708F447C08091BC0083FD70
:1013A000D8CF85EC8093BC000E9452096B017C0170
:1013B00080913006813009F43FC080910D068C1772
:1013C00010F4C0910D06AAEEB5E0E0E1F6E080E091
:1013D0008C1354C08C2FCF911F910F91FF90EF90E1
:1013E000DF90CF9008958091320690913306A091BE
:1013F0003406B0913506892B8A2B8B2B09F486CFC6
:101400000E94520900913206109133062091340651
:10141000309135066C197D098E099F09061717074B
:101420002807390708F072CF809131060E945208D0
:10143000C0E0D0CF85EEB6CF8091320690913306D2
:10144000A0913406B0913506892B8A2B8B2B09F499
:10145000AFCF0E94520900913206109133062091BD
:101460003406309135066C197D098E099F090617DF
:1014700017072807390708F09BCFD6CF9D91919386
:101480008F5FA6CF8F929F92AF92BF92CF92DF9243
:10149000EF92FF920F931F93CF93DF93613208F087
:1014A000D1C0142FD62FC82F0E9452096B017C0186
:1014B0008091300681116BC082E0809330061093DA
:1014C0000F068FEF80930E0610920D06D0930C0638
:1014D000AAECB5E0EAEEF5E080E0D8138BC01092FC
:1014E0000B0680910B06CC0FC82BC0930B06809186
:1014F0000A06813009F082C010920A060E94520941
:101500006B017C0180910B068093BB0080913206B9
:1015100090913306A0913406B0913506892B8A2B21
:101520008B2BA1F00E9452090091320610913306D4
:1015300020913406309135066C197D098E099F097A
:10154000061717072807390708F442C08091BC0026
:1015500083FDD8CF85EC8093BC000E9452096B01BB
:101560007C0180913006823009F44AC080910E06D9
:101570008F3F09F469C080910E06803209F466C07D
:1015800080910E06803309F463C084E026C0809108
:10159000320690913306A0913406B0913506892B1E
:1015A0008A2B8B2B09F484CF0E945209809032063B
:1015B00090903306A0903406B09035066C197D09E2
:1015C0008E099F0986169706A806B90608F070CFFF
:1015D000809131060E94520885E0DF91CF911F91E2
:1015E0000F91FF90EF90DF90CF90BF90AF909F90C2
:1015F0008F9008959D9191938F5F6FCF85EEABCFC4
:101600008091320690913306A0913406B091350650
:10161000892B8A2B8B2B09F4A4CF0E9452090091AD
:1016200032061091330620913406309135066C193C
:101630007D098E099F09061717072807390708F043
:1016400090CFC6CF81E0C9CF80E0C7CF82E0C5CFC1
:1016500083E0C3CF482F6091C9058091C8050E94DF
:10166000420A1092C7051092C9051092C605089546
:10167000FC01248131E03093C6052093C805109207
:10168000C7051092C9058385862B90E00E9407024A
:1016900081E00C942A0B0F931F93CF938C01C62FDC
:1016A0000E94380B6C2F6460C8010E94380B81E0E7
:1016B00090E00E9447096C2F6B7FC8010E94380B95
:1016C00082E390E0CF911F910F910C9447090F9303
:1016D0001F93CF938C01C62F607F61600E944B0BDC
:1016E00080E1C89FB00111246160C8010E944B0BCA
:1016F00081E090E0CF911F910F910895CF93C82F73
:10170000682F607F8BEA95E00E944B0B80E1C89FB9
:10171000B00111248BEA95E0CF910C944B0BCF9341
:10172000DF93CDB7DEB728970FB6F894DEBF0FBEB4
:10173000CDBF98E0E3E2F1E0DE01119601900D9259
:101740009A95E1F79091B405961708F46FEF70E061
:10175000660F771F21E030E02C0F3D1F620F731FD3
:10176000FB019081890F806828960FB6F894DEBF40
:101770000FBECDBFDF91CF910C947E0B81E00E9414
:101780007E0B80ED97E00C944709EBEAF5E086814B
:101790008D7F868388600C947E0BCF93C62F91E05B
:1017A0009093C60598E69093C8051092C7051092CD
:1017B000C905682F8AEB95E00E94AF026C2F8AEB77
:1017C00095E00E94AF0281E0CF910C942A0B91E04A
:1017D0009093C60598E69093C8051092C70510929D
:1017E000C905682F8AEB95E00E94AF0281E00C9456
:1017F0002A0B7F928F929F92AF92BF92CF92DF92ED
:10180000EF92FF920F931F93CF93DF93EC01162F6C
:101810007A0169010E9452094B015C01712C11117E
:10182000798410E000E060E070E0CB012A813B8128
:101830004C815D812617370748075907F4F00115D9
:10184000110561F5C7011E141F0464F10E945209BD
:10185000681979098A099B09EA85F0E0EE0FFF1FF4
:10186000E65BFC4FA591B4912C910F5F1F4F39851A
:101870002323271105C097FFD9CF6FEF7FEFCB014F
:10188000DF91CF911F910F91FF90EF90DF90CF905C
:10189000BF90AF909F908F907F9008951C141D046F
:1018A000ACF6C6010E944709D1CF8F929F92AF92AA
:1018B000BF92CF92DF92EF92FF924B015C010E94A8
:1018C00052096B017C010E9452096C197D098E0935
:1018D0009F09683E734081059105A8F321E0821AB3
:1018E0009108A108B10888EEC80E83E0D81EE11C5B
:1018F000F11C81149104A104B10429F7FF90EF9029
:10190000DF90CF90BF90AF909F908F9008952FB7AA
:10191000F8946091B9047091BA048091BB049091DD
:10192000BC042FBF08954F925F926F927F929F9257
:10193000AF92BF92CF92DF92EF92FF920F931F93DD
:10194000CF93DF9300D01F92CDB7DEB7D090DF06E4
:101950008091E2069091E306A091E406B091E5063D
:10196000892B8A2B8B2BD9F00E9452090091DB0620
:101970001091DC062091DD063091DE06601B710BB4
:10198000820B930B0091E2061091E3062091E4068E
:101990003091E5066017710782079307C8F20E942D
:1019A00052096093DB067093DC068093DD0690930A
:1019B000DE06E091EA06F091EB06309759F040918F
:1019C000E6065091E7066091E8067091E9068D2DD4
:1019D0000995D82EE090D906F090DA064D2C512CBE
:1019E000712C612CE114F10409F459C0D7011C9643
:1019F000CC901C978091E0069091E1068436910589
:101A000010F41C961C92D701ED91FC91A280B3803A
:101A100019821A821B82DD2079F1F701369610E0D7
:101A200000E02191222319F19280992001F130E008
:101A300050E040E02F5F3F4F4F4F5F4FC301B20177
:101A40000E94B43A9B01AC01892D90E0B0E0A0E087
:101A5000BC01CD016F5F7F4F8F4F9F4F0E94B43A03
:101A6000A1E0B0E0AC0FBD1FA00FB11F8C930F5FC2
:101A70001F4F03301105A9F609811A812B81F70147
:101A80004585568562817381C701F5010995D701A6
:101A90001C96CC921C971496ED90FC90A3CF80914D
:101AA000D7069091D8068C010F5F1F4F1093D80670
:101AB0000093D7064997B4F10E94870CC090D306D3
:101AC000D090D406E090D506F090D6069B01AC01EC
:101AD0002C193D094E095F0921F421E030E040E076
:101AE00050E088EE93E0089FB001099F700D189FA9
:101AF000700D1124072E000C880B990B0E943A39A7
:101B00003093E1062093E0061092D8061092D70693
:101B10000E94870C6093D3067093D4068093D506F9
:101B20009093D6060F900F900F90DF91CF911F9159
:101B30000F91FF90EF90DF90CF90BF90AF909F906C
:101B40007F906F905F904F9008950F931F93CF9366
:101B5000DF93209192042F5F322F377030939204DD
:101B600020FF2BC020E831FD2064347009F0206292
:101B7000205FFC01EC01239600E011E06485662300
:101B800029F070E0C8010E94D03A6F5F6187322F60
:101B9000369F030E30E0311D1124311110C0168222
:101BA000662311F0615061873196EC17FD0731F71C
:101BB000DF91CF911F910F91089520E0D4CF315044
:101BC0003683EECF4F925F927F928F929F92AF9229
:101BD000BF92CF92DF92EF92FF920F931F93CF931A
:101BE000DF932C01EB010E945209F2012785308915
:101BF000621B730B6A307105B0F3F8948A819B8184
:101C0000181619060CF0CDC1E881F9816BB1862E4A
:101C1000689487F83BB13F773BB9D9848E812D2DED
:101C2000281B822F2E834F85042E000C550BAA8172
:101C3000BB817C85FD84EE847F5FF394E3949F8178
:101C40009884BA84AB841081C12C6C2D0C2D2C2D62
:101C50002081112788942111280F08F42FEF8195F6
:101C6000889470FD120F1795889471FD120F1795C7
:101C7000889472FD120F1795889473FD120F1795B3
:101C8000889474FD120F1795889475FD120F17959F
:101C9000889476FD120F1795889477FD120F17958B
:101CA0008894622F7111612F8D0D162F002C8BB827
:101CB00000C017FF3BB921816627889400C000C08F
:101CC000002C3BB92111290F00C0002C8BB800C09B
:101CD00016FF3BB908F42FEF9195889400C000C01F
:101CE000002C3BB9F0FC620F00C0002C8BB800C088
:101CF00015FF3BB967958894F1FC620F00C000C0E6
:101D0000002C3BB96795889400C0002C8BB800C0AC
:101D100014FF3BB9F2FC620F6795889400C000C0C5
:101D2000002C3BB9F3FC620F00C0002C8BB800C044
:101D300013FF3BB967958894F4FC620F00C000C0A4
:101D4000002C3BB96795889400C0002C8BB800C06C
:101D500012FF3BB9F5FC620F6795889400C000C084
:101D6000002C3BB9F6FC620F00C0002C8BB800C001
:101D700011FF3BB967958894F7FC620F00C000C063
:101D8000002C3BB96795889400C0002C8BB800C02C
:101D900010FF3BB9122FF110162F9B0D00C000C091
:101DA000002C3BB900C000C0002C8BB800C017FF4E
:101DB0003BB922816627889400C000C0002C3BB943
:101DC0002111290D00C0002C8BB800C016FF3BB9B3
:101DD00008F42FEFE40FF51F00C000C0002C3BB942
:101DE000E0FC620F00C0002C8BB800C015FF3BB9AF
:101DF00067958894E1FC620F00C000C0002C3BB9DD
:101E00006795889400C0002C8BB800C014FF3BB9C4
:101E1000E2FC620F6795889400C000C0002C3BB9BB
:101E2000E3FC620F00C0002C8BB800C013FF3BB96D
:101E300067958894E4FC620F00C000C0002C3BB999
:101E40006795889400C0002C8BB800C012FF3BB986
:101E5000E5FC620F6795889400C000C0002C3BB978
:101E6000E6FC620F00C0002C8BB800C011FF3BB92C
:101E700067958894E7FC620F00C000C0002C3BB956
:101E80006795889400C0002C8BB800C010FF3BB948
:101E9000122FE110162F919400C000C0002C3BB906
:101EA0009A0C00C000C08BB800C017FF3BB920815E
:101EB0006627889400C000C0002C3BB92111280F70
:101EC00000C0002C8BB800C016FF3BB908F42FEF00
:101ED0008195889400C000C0002C3BB970FD620F52
:101EE00000C0002C8BB800C015FF3BB967958894E3
:101EF00071FD620F00C000C0002C3BB9679588944B
:101F000000C0002C8BB800C014FF3BB972FD620FFB
:101F10006795889400C000C0002C3BB973FD620F28
:101F200000C0002C8BB800C013FF3BB967958894A4
:101F300074FD620F00C000C0002C3BB96795889407
:101F400000C0002C8BB800C012FF3BB975FD620FBA
:101F50006795889400C000C0002C3BB976FD620FE5
:101F600000C0002C8BB800C011FF3BB96795889466
:101F700077FD620F00C000C0002C3BB967958894C4
:101F800000C0002C8BB800C010FF3BB9122F71119C
:101F9000162F8D0D00C000C0002C3BB9119709F021
:101FA00086CE4A815B8120EE31E0DA010E94EA3A76
:101FB000DC01CB01F4E0B695A79597958795FA9546
:101FC000D1F730E020E0B901EAE94E9F040E611D2F
:101FD0005E9F600D711D1124650F711D860F971F87
:101FE000A11DB11D893E43E09407A105B10508F488
:101FF00034C0885E9340A109B10942E0B695A79527
:10200000979587954A95D1F747E0849F080E211D43
:10201000949F200D311D1124290F311D60919104D1
:1020200070E0860F971F820F931F4091B904509163
:10203000BA046091BB047091BC04292F3327420F6E
:10204000531F611D711D4093B9045093BA046093EE
:10205000BB047093BC048093910478940E9452094D
:10206000F201708B6787DF91CF911F910F91FF90E5
:10207000EF90DF90CF90BF90AF909F908F907F9028
:102080005F904F90089580E991E00895579A0895E0
:102090006F927F928F92CF92DF92EF92FF920F9387
:1020A0001F93CF93DF93CDB7DEB762970FB6F89447
:1020B000DEBF0FBECDBF6C017A013801822EDC017C
:1020C0001C962C91CA0157FF04C088279927841BAE
:1020D000950B7A8369839C838B839E838D836D8626
:1020E0007E868F86213049F5CE0101960E94A50D8E
:1020F00083E0888B1A8A198AF7FE02C08DEF888BDD
:10210000D601ED91FC910484F585E02DBE016F5F51
:102110007F4FC601099562960FB6F894DEBF0FBED9
:10212000CDBFDF91CF911F910F91FF90EF90DF9086
:10213000CF908F907F906F9008951C861B861A8693
:10214000198618861F82D4CFEF92FF920F931F93A8
:10215000CF93DF93CDB7DEB762970FB6F894DEBFAB
:102160000FBECDBF7C01DC011C968C917A83698304
:102170005C834B835E834D830D871E872F87813061
:10218000F9F4CE0101960E94A50D188A1A8A198ABF
:10219000D701ED91FC910484F585E02DBE016F5FC0
:1021A0007F4FC701099562960FB6F894DEBF0FBE48
:1021B000CDBFDF91CF911F910F91FF90EF900895C8
:1021C0001C861B861A86198618861F82DECFCF933F
:1021D000DF93FC01EB0164E670E00E94D03A9F01BE
:1021E000281B390BCF016AE070E00E94D03A280F1B
:1021F000391F4AE04C9FC0014D9F900D1124820F62
:10220000931FDF91CF910895E9EFF4E010821182DE
:1022100012821092C4020C94930CE9EFF4E08091C6
:102220000C01808380910E01818380910A01828359
:1022300081E08093C4020C94930C0F931F930E942F
:10224000870C00919C0210919D0220919E0230917A
:102250009F02061717072807390720F48091E40228
:10226000811104C08091E302882359F11092E302A6
:102270000E94870C0091060110910701209108012E
:1022800030910901DC01CB01800F911FA21FB31F08
:1022900080939C0290939D02A0939E02B0939F0214
:1022A0008091C402882331F01092C4021F910F91D3
:1022B0000C94041181E08093C4021F910F910C943F
:1022C0000D111F910F9108950F931F93CF93DF93DB
:1022D000EC01E0E0F0E060E070E0CB01DE01AE0F89
:1022E000B11D2C91222309F12D3211F4EF5FF1E0A1
:1022F000DE01AE0FB11D0C9120ED200F2A3018F534
:10230000AAE0B0E09B01AC010E942F39002E000C26
:10231000110B220B330B600F711F821F931F605331
:10232000710981099109EF5FD9CFFF2339F09095A9
:102330008095709561957F4F8F4F9F4FDF91CF9123
:102340001F910F9108956FEF7FEFCB01F7CFFC0145
:1023500090E030E020E07AE0DF01A90FB11D6C9140
:102360006623A1F080ED860F8A3070F4729FA00181
:10237000739F500D11249A01260F311D67FD3A9568
:10238000205331099F5FE8CF2FEF3FEFC901089538
:10239000DC01ED91FC91048CF58DE02D099490E029
:1023A00080E00895FC018585968508950F931F931D
:1023B000CF93DF9300D01F92CDB7DEB7AB01198268
:1023C0001A821B82DC01ED91FC910190F081E02DDD
:1023D00000E010E020E0BE016F5F7F4F09950F9095
:1023E0000F900F90DF91CF911F910F91089590E082
:1023F00080E008950E94F301823391058CF0833CC4
:1024000091058CF08C3721E0920784F08B3222E02A
:1024100092077CF0863193407CF090E080E0089554
:1024200081E090E0089582E090E0089583E090E0FC
:10243000089584E090E0089585E090E008950F937A
:102440001F93CF93DF930E94FA11EC010E94870C37
:102450000091A0021091A1022091A2023091A3024A
:102460000617170728073907B0F4CD2BC9F00E94CB
:10247000FA1190932B0480932A040E94870C6C50CD
:102480007E4F8F4F9F4F6093A0027093A102809365
:10249000A2029093A302DF91CF911F910F91089513
:1024A0000E94870C6C597F4F8F4F9F4FECCFBF928C
:1024B000CF92DF92EF92FF920F931F93CF93DF9310
:1024C00000D000D000D01F92CDB7DEB780E00E94D0
:1024D000E70B87E00E9477091092B9058093B80551
:1024E0008730E1F58AEB95E00E9468020E941906A8
:1024F000B82E8AEB95E00E9468020E941906C82E49
:102500008AEB95E00E946802182F86FF3EC08F710B
:102510000E9419060CE015FD00E0080F8AEB95E01B
:102520000E9468020E941906D82E8AEB95E00E944C
:1025300068020E941906E82E8AEB95E00E94680264
:1025400010E087FD14E68F770E941906F82E8AEBBB
:1025500095E00E9468020E941906180F2B2D3C2D51
:10256000402F5D2DB701812F90E027960FB6F8948C
:10257000DEBF0FBECDBFDF91CF911F910F91FF90B6
:10258000EF90DF90CF90BF9008958F730E9419064F
:10259000082FC4CFCF93DF93EB010E94E70B81E0BC
:1025A0000E9477091092B9058093B8058AEB95E0EF
:1025B0000E946802888381E0DF91CF910895EF92B5
:1025C000FF921F93CF93DF931F92CDB7DEB77C01AD
:1025D000162FBE016F5F7F4F8EE00E94CA128111DD
:1025E00008C080E00F90DF91CF911F91FF90EF9096
:1025F000089581E08093C60588E68093C80510920F
:10260000C7051092C905113089F587E090E00E9456
:102610000702F70180810E940F0690E00E940702E6
:10262000898185608983F70181810E940F0690E08E
:102630000E940702F70182810E940F0690E00E942B
:102640000702F70184810E940F0690E00E940702B2
:1026500081E00E942A0B8111C4CF69818EE00E9423
:10266000CD0B8111BECF812F8770BCCF8BE090E066
:102670000E94070289818660D5CF8FE48093040190
:1026800070E060E088E00E94AF0870E060E089E000
:102690000C94AF0882E580930401809305016FEFED
:1026A00070E089E00E94AF0870E060E088E00C9480
:1026B000AF0887E480930401809305016FEF70E019
:1026C00088E00E94AF0870E060E089E00C94AF08F9
:1026D0000F931F930E94870C00919802109199020A
:1026E00020919A0230919B02061717072807390795
:1026F00008F05EC08091E702882309F459C08091F8
:1027000005018F3419F0823509F04AC09091040117
:102710009F3409F582E580930501809304010E94AE
:10272000870C00910601109107012091080130915A
:102730000901DC01CB01800F911FA21FB31F809301
:10274000980290939902A0939A02B0939B021F91D2
:102750000F910C944A13823519F5923549F587E4A7
:1027600080930501809304010E94870C009106016B
:10277000109107012091080130910901DC01CB0182
:10278000800F911FA21FB31F80939802909399020C
:10279000A0939A02B0939B021F910F910C9459132E
:1027A000873431F480910401877F873409F4B2CFF4
:1027B0001F910F910895CF92DF92EF92FF92CF93E6
:1027C0000E94870CC0909402D0909502E0909602EF
:1027D000F0909702C616D706E806F90620F4809115
:1027E000E602811104C08091E502882391F1809175
:1027F0000501823571F5C0910101C0FF1FC0C09075
:102800000601D0900701E0900801F0900901C1FF96
:1028100072C08FE4809304010E94870CC60ED71EFD
:10282000E81EF91EC0929402D0929502E0929602A0
:10283000F09297020E943D131092E5028C2F90E0D7
:102840009595879595958795009709F467C080932E
:1028500001010E94870CC0909402D0909502E090F4
:102860009602F0909702C616D706E806F90620F4FD
:102870008091E602811104C08091E5028823A9F1CC
:1028800080910501873489F5C09100019C2F9270D9
:10289000C0FF46C09923F9F08FE4809304010E94A1
:1028A000870CC0900601D0900701E0900801F090DD
:1028B0000901DC01CB018C0D9D1DAE1DBF1D809358
:1028C000940290939502A0939602B09397020E946F
:1028D0003D131092E5028C2F90E095958795959584
:1028E00087950097E1F180930001CF91FF90EF90E1
:1028F000DF90CF900895809304010E94870CC60E4C
:10290000D71EE81EF91EC0929402D0929502E09262
:102910009602F09297020E944A138ECF87E797CFD4
:102920009923C9F2809304010E94870CC09006018C
:10293000D0900701E0900801F0900901DC01CB0183
:102940008C0D9D1DAE1DBF1D80939402909395022A
:10295000A0939602B09397020E945913BACF8BEBC3
:10296000C2CF85ED8093BC008091320690913306F2
:10297000A0913406B09135060796A11DB11D23E044
:10298000B695A795979587952A95D1F72091BC0084
:1029900024FD03C0109230060895409132065091F4
:1029A00033066091340670913506452B462B472B34
:1029B00069F30097A105B10541F025E32A95F1F7E8
:1029C00000000197A109B109E1CF809131060C9473
:1029D0005208AF92BF92CF92DF92EF92FF920F9385
:1029E0001F93CF93DF9300D000D0CDB7DEB78C011B
:1029F0006B017A0180919F058333E9F45B016801E3
:102A0000C40ED51EC016D106A9F10E9402038FE0A4
:102A10000E940D03812F0E940D03802F0E940D0341
:102A20000F5F1F4F80E00E940D03F50181935F014E
:102A30000E94F802E7CF843369F50E9402031983EC
:102A40000A838F2D8F778B83EC8264E070E0CE0158
:102A500001960E94DE02A70170E060E0C6010E94BC
:102A60008E39E114F10421F0B701C6010E94DE02A3
:102A70000E94F802C7010F900F900F900F90DF9106
:102A8000CF911F910F91FF90EF90DF90CF90BF906B
:102A9000AF9008950E9402030F3F110509F030F432
:102AA00019820A831B8263E070E0D1CF17FD0BC04F
:102AB00019820A8333E0169507953A95E1F7007E6F
:102AC00008600B83F0CFC80126E0969587952A957C
:102AD000E1F7807E19830A830115104C18F4806198
:102AE0008B83E1CF8861FCCFFA012091B70530E0FC
:102AF000322F2227260F371F90E0982F882742E099
:102B000050E0BF01820F931F0C94E914FF920F93C2
:102B10001F93CF93DF9300D0CDB7DEB7F82EAE0171
:102B20004F5F5F4F66E270E00E94741509811A8161
:102B3000102701271027AE014F5F5F4F66E270E05C
:102B40008F2D0E94741589819A819827892798274B
:102B50000817190749F4C8010F900F90DF91CF9122
:102B60001F910F91FF9008958C01E5CF3F924F92F6
:102B70005F926F927F928F929F92AF92BF92CF920D
:102B8000DF92EF92FF920F931F93CF93DF9300D0CA
:102B9000CDB7DEB75C014B01342E452EFC016688B3
:102BA0007788508C80E591E00E940402AE014F5F6F
:102BB0005F4F60E270E0852D0E947415C980DA8055
:102BC000DC24CD24DC24AE014F5F5F4F60E270E077
:102BD000852D0E94741589819A81982789279827C5
:102BE000C816D90609F077C0E52CF12C67E0569E8F
:102BF000F0011124ED57FA4FD582C482032D142D14
:102C0000C016D10608F48601AE014F5F5F4F64E243
:102C100070E0852D0E94741589819A8198278927F3
:102C20009827680E791E9301377040919F054333B2
:102C300009F053C088E0E80EF11CFE2CEE24FF0CD6
:102C4000FF0CFF0CC9018E0D9F1D473309F449C0CD
:102C5000A901400F511F4130584008F442C060E0C4
:102C600078E06B01C21AD30AA601B4010E941403D2
:102C7000A8014C195D09B4016C0D7D1DC7010E94AE
:102C80001403600E711E79826A8222E030E0AE0188
:102C90004F5F5F4F64E270E0852D0E94E503F50110
:102CA00086899789800F911F978B868BC8010F901B
:102CB0000F90DF91CF911F910F91FF90EF90DF90D8
:102CC000CF90BF90AF909F908F907F906F905F90CC
:102CD0004F903F9008956C0176CFE0E1EE0EF11C2D
:102CE000ACCFA801B401CBCFCF93DF931F92CDB768
:102CF000DEB741E050E0BE016F5F7F4F0E94E914F4
:102D000089810F90DF91CF91089590E080E00C943D
:102D10007416CF93DF93C4E1D0E00E948516882318
:102D200061F061E070E080E090E00E94550C219736
:102D3000A1F780E0DF91CF91089581E0FBCFDF9292
:102D4000EF92FF920F931F93CF93DF9300D0CDB7F5
:102D5000DEB760E372E080E090E00E94550CDFB6E1
:102D6000F89406E813E032E7E32E33E0F32E809187
:102D70002C05811125C0F8018491F7019491E82F69
:102D8000F0E0EE0FFF1FE25AFC4FA591B4918C9139
:102D9000982321F461E08AE00E94DA0761E08AE08A
:102DA0000E9473088CB580618CBD8CB580648CBD2D
:102DB00061E08DE00E94730861E08BE00E9473087F
:102DC00080912C058F5F80932C05DFBEF801049164
:102DD000E02FF0E0EE0FFF1FEC5AFC4F859194912D
:102DE00090932B0580932A05F701E490E092290542
:102DF00061E08AE00E9473080E94F80280E591E099
:102E00000E94040284E380939F0580E80E94C4032B
:102E10000E948916882309F441C088E00E94C403F7
:102E20000E9485168830D1F580E10E94C4030E947B
:102E30008516803199F580E00E94C4030E948516B2
:102E4000182F81112BC08FE190E00E9474168330FF
:102E500029F580E48093B70542E06EE170E0812FB0
:102E60000E940B0442E06FE170E0812F0E940B048E
:102E70001F5F143089F740E06EE170E0812F0E94FF
:102E80000B0440E06FE170E0812F0E940B041F5F94
:102E9000183089F781E08093A60564C087E38093AA
:102EA0009F0580E80E94C4030E9489168823F9F0D8
:102EB00088E00E94C4030E9485168830C1F480E136
:102EC0000E94C4030E948516182F803181F480E08F
:102ED0000E94C4030E948516811109C089E390E015
:102EE0000E947416843019F41093B705D3CF83E38E
:102EF00080939F0580E80E94C4030E94891688235E
:102F000071F180E10E94C4030E948516803139F579
:102F100082E10E94C4030E948516823101F580E09F
:102F20000E94C4030E948516811119C084E0809319
:102F3000B70515E51A8341E050E0BE016E5F7F4F93
:102F40008BE190E00E941403198341E050E0BE0140
:102F50006F5F7F4F8AE190E00E9414039BCF109235
:102F60009F0580E00F900F90DF91CF911F910F91FF
:102F7000FF90EF90DF900895CF92DF92EF92FF9253
:102F8000CF93DF93CDB7DEB7C254D1090FB6F89413
:102F9000DEBF0FBECDBFFC014281538164817581CC
:102FA00023964CAF5DAF6EAF7FAF239781E0239642
:102FB0008FAF23972396CCACDDACEEACFFAC239760
:102FC000CBAADCAAEDAAFEAA4DA75EA76FA778AB95
:102FD00088ABCDA4DEA4EFA4F8A8CFA2D8A6E9A61A
:102FE000FAA68EABCBA8DCA8EDA8FEA8C9A2DAA2EF
:102FF000EBA2FCA22EE432E03C8B2B8B9FEF9D8B4F
:103000009E8B9F8B188E3E872D878AA7CFA0D8A432
:10301000E9A4FAA4CF86D88AE98AFA8A8CA389A17E
:103020009AA1ABA1BCA189879A87AB87BC873A8359
:1030300029834B835C836D837E838091A6058823DF
:1030400009F443C080E591E00E94040246E050E0AC
:103050006DE171E089E090E00E94140344E050E0EB
:10306000BE016D5F7F4F8FE090E00E94140344E04B
:1030700050E0BE01615F7F4F81E090E00E94140349
:1030800044E050E0BE016B5E7F4F85E090E00E941F
:10309000140381E08C8789859A85AB85BC858093F4
:1030A000A2059093A305A093A405B093A505CE5BBC
:1030B000DF4F0FB6F894DEBF0FBECDBFDF91CF91CB
:1030C000FF90EF90DF90CF9008950E949F16882385
:1030D00071F3B8CF2091B70530E0322F2227620F6D
:1030E000731F90E0982F8827860F971F0C947416F3
:1030F000CF93C82F462F61E070E00E940B0461E07F
:1031000070E08C2F0E946A188111F9CFCF91089539
:103110008F929F92AF92BF92CF92DF92EF92FF92E7
:103120001F93CF93DF93CDB7DEB72C970FB6F894EC
:10313000DEBF0FBECDBF20919F0514E0222339F1E1
:103140006B017C0180E591E00E9404025E0127E0B2
:10315000A20EB11C450110E063E070E0812F0E94D7
:103160006A18F40181934F01882349F11F5F1430DD
:1031700099F710E0F50181915F018D31D9F0883127
:10318000C9F08A518230B0F01F5F143099F7812F57
:103190002C960FB6F894DEBF0FBECDBFDF91CF9156
:1031A0001F91FF90EF90DF90CF90BF90AF909F90D6
:1031B0008F90089560E170E0812F0E947818A12E11
:1031C000B12C8AEF90E00E94470942E870E060E08D
:1031D000812F0E940B044FEF62E070E0812F0E946C
:1031E0000B04B601C114D10491F480911B0190919C
:1031F0001C0101968115F0EC9F0708F462C09093C2
:103200001C0180931B0160911B0170911C01812F97
:103210000E94F60386E0EBE2F1E0DE0111960190F8
:103220000D928A95E1F7F70183818F778C838481F2
:103230008D8385818E83A7014E5F5F4F24E030E050
:103240006CE070E0812F0E94E503DB86CC8622E0F3
:1032500030E0AE01455F5F4F60E170E0812F0E947A
:10326000E50326E030E0AE014F5F5F4F66E070E0BF
:10327000812F0E94E50361E070E0812F0E947818A1
:1032800027E02A9DC0012B9D900D11249C012D57F4
:103290003A4F7901F90111821082AE01455F5F4F0B
:1032A00068E270E0812F0E9474158B859C859827B9
:1032B00089279827F70193838283168215821482C7
:1032C00066CF80E090EC9BCF4F925F927F928F927F
:1032D0009F92AF92BF92CF92DF92EF92FF920F93A5
:1032E0001F93CF93DF9300D0CDB7DEB7782E6B015D
:1032F0004A01A82EB12C27E0829FC0011124FC01B5
:10330000ED57FA4F7F010081118180E591E00E9425
:1033100004020815190554F4872D0E948615F7013B
:1033200026818C01021B11091183008301151105EF
:1033300029F563E070E0872D0E946A18843159F006
:10334000882349F001E010E08C3111F410E000E036
:10335000119501951109C8010F900F90DF91CF9140
:103360001F910F91FF90EF90DF90CF90BF90AF90A3
:103370009F908F907F905F904F9008958016910658
:103380000CF4840187E08A9DF0018B9DF00D1124DF
:10339000ED57FA4FE280F380C114D10451F12701B7
:1033A000F7E05F22872D0E94D703840D951D2091A1
:1033B0009F05273309F453C09801240D351D213092
:1033C000384008F44CC020E038E0490184189508E2
:1033D000A401B6010E94E9142601480C591C680199
:1033E000C818D908872D0E94D703A601B2010E94F0
:1033F000E914E00EF11E87E08A9DF0018B9DF00D2F
:103400001124ED57FA4FF382E28220813181201B93
:10341000310B318320838681800F912F911D8A3F4C
:10342000910510F4232BF1F487E08A9DF0018B9D28
:10343000F00D1124ED57FA4F1682F982EA8222E04C
:1034400030E0AE014F5F5F4F68E270E0872D0E9471
:10345000E50360E470E0872D0E9478187CCFA80116
:10346000B601C5CF868377CFCF93DF93FC01218D43
:10347000328D2115310529F48FEF9FEFDF91CF9128
:103480000895EC01808D4217530708F0A9010E94AE
:1034900064191816190684F7298D3A8D281B390BE3
:1034A0003A8F298FEBCF0F931F93CF93DF931F9208
:1034B000CDB7DEB7FC01218D328D232B41F48FEF88
:1034C0009FEF0F90DF91CF911F910F9108958C0185
:1034D00041E050E0BE016F5F7F4FFC01808D0E9494
:1034E0006419181619065CF7F801818D928D019701
:1034F000928F818F898190E0E4CFCF93C82F80E5B0
:1035000091E00E94040260E170E08C2FCF910C9456
:103510007818CF92DF92EF92FF920F931F93CF9381
:10352000DF9300D000D000D0CDB7DEB78C016B01A7
:103530007A01FC01808D843010F40E947D1A8EE4A3
:1035400092E09A838983F60182819381A481B58177
:103550008B839C83AD83BE83B701CE0101960E940D
:103560008818F801808F8430A0F4F586E486128EE6
:10357000118E81E026960FB6F894DEBF0FBECDBF48
:10358000DF91CF911F910F91FF90EF90DF90CF903F
:10359000089580E0EFCFCF93DF93EC01888D8430E6
:1035A00020F40E947D1A84E0888FDF91CF910895E6
:1035B000CF93FC01C08D80E591E00E94040260E29F
:1035C00070E08C2F0E94781862E070E08C2F0E94CF
:1035D0006A1884FD16C062E070E08C2F0E946A18A1
:1035E00083FF0AC048E162E070E08C2F0E940B0468
:1035F00080E090E0CF91089580E591E00E94040280
:10360000E3CF40E162E070E08C2F0E940B0481E088
:10361000F0CF8F929F92AF92BF92CF92DF92EF92B4
:10362000FF921F93CF93DF9300D000D000D0CDB78F
:10363000DEB76C015B01FC01808D843010F40E94C8
:103640007D1A80919F05811115C094E0F601908F3D
:1036500026960FB6F894DEBF0FBECDBFDF91CF9197
:103660001F91FF90EF90DF90CF90BF90AF909F9011
:103670008F90089580E591E00E9404029E012F5FE3
:103680003F4F7901490110E063E070E0812F0E9413
:103690006A18F40181934F01882309F11F5F1430E8
:1036A00099F710E0F70181917F018D3199F0883110
:1036B00089F08A51823070F01F5F143099F7F6015B
:1036C000108F80E0143021F2B586A486128E118E00
:1036D00081E0BECF60E170E0812F0E947818812EDA
:1036E000912C8AEF90E00E94470942E070E060E090
:1036F000812F0E940B044FEF62E070E0812F0E9447
:103700000B04B501A114B10489F480911B019091BF
:103710001C0101968115F0EC9F0788F190931C0124
:1037200080931B0160911B0170911C01812F0E94ED
:10373000F60361E070E0812F0E94781827E0289D51
:10374000C001299D900D11249C012D573A4F7901FC
:10375000F90111821082AE014B5F5F4F68E270E0A9
:10376000812F0E9474158D819E8198278927982723
:10377000F70193838283168215821482A0CF80E0A2
:1037800090ECCCCF1F93CF93DF931F92CDB7DEB7D2
:10379000FC01108D143020F5818D928D892B01F163
:1037A00080E591E00E940402812F0E94D70327E068
:1037B000129FF0011124ED57FA4F228133813770A7
:1037C00041E050E0BE016F5F7F4F820F931F0E9468
:1037D000E914898190E00F90DF91CF911F910895B6
:1037E0008FEF9FEFF8CFEF92FF920F931F93CF933E
:1037F000DF93EC018B0188E2FB0111928A95E9F7D6
:1038000061E08E810E94730860E08E810E94DA0779
:1038100088EE93E00E94470961E08E810E94DA07FA
:1038200068858E810E94730888E290E00E944709B3
:10383000E881F9810088F189E02D26E030E04AE056
:1038400050E060E0CE0109956E317105810591056A
:103850006CF4982F872F762F66276061CB01DF915C
:10386000CF911F910F91FF90EF900895E881F9811A
:103870000088F189E02D26E030E04AE050E061E088
:10388000CE0109957801F8E2EF0EF11C6233710563
:103890008105910534F4982F872F762F6627616173
:1038A000DDCFE881F9810088F189E02D26E030E064
:1038B0004AE050E060E0CE0109956831710581056C
:1038C000910534F4982F872F762F66276261C6CF33
:1038D000E881F9810088F189E02D26E030E04AE0B6
:1038E00050E061E0CE0109956B30710581059105CD
:1038F00034F4982F872F762F66276361AFCF21E0AE
:1039000069327105810591050CF420E0F8012193DD
:103910008F01EE16FF0629F6E881F9810088F1890A
:10392000E02D26E030E04AE050E060E0CE0109956D
:10393000683171058105910534F4982F872F762F12
:10394000662764618BCF70E060E088CFDF92EF92F2
:10395000FF920F931F93CF93DF93CDB7DEB72897D6
:103960000FB6F894DEBF0FBECDBF8C01D8015996BB
:103970004D915C915A974115510551F0ED91FC9193
:10398000048CF58DE02D70E060E0C8010995EECF64
:10399000F801D08CF7E0DF9EC00111249C012D5767
:1039A0003A4F7901D9018D919C91892B59F148E0C9
:1039B00050E0BE016F5F7F4FF801808D0E94641957
:1039C0001816190694F5D801509684E0FE01319638
:1039D00001900D928A95E1F78D8190E0982F8827CC
:1039E0002E81820F911DF801958B848B8F81282F5A
:1039F00030E0322F22278885820F932F911D928FDE
:103A0000818F13C080E591E00E9404028D2D0E94F9
:103A10008615D70116962C911697821B91098D93C6
:103A20009C93892B21F690E080E028960FB6F894BD
:103A3000DEBF0FBECDBFDF91CF911F910F91FF90E1
:103A4000EF90DF9008956F927F928F929F92AF9246
:103A5000BF92CF92DF92EF92FF920F931F93CF937B
:103A6000DF93CDB7DEB7EC970FB6F894DEBF0FBE8D
:103A7000CDBF4C018B013A018EE492E09A83898399
:103A80001C861B8648EE53E060E070E04D875E8741
:103A90006F87788B22E132E03A872987988F8F8B66
:103AA000198E1A8E1B8E1C8E24E029A399AB88AB2D
:103AB0001AAA1BAA1CAA1DAA8091A2059091A3056F
:103AC000A091A405B091A5058EA39FA3A8A7B9A70F
:103AD0008B839C83AD83BE8318861F82F80120E010
:103AE00090E080E06AE03191332309F47AC040ED40
:103AF000430F4A3008F064C0689FA001699F500DD1
:103B00001124CA01C097830F911D37FD9A958F3FED
:103B1000910549F340F34B815C816D817E818091F9
:103B2000190590911A05A0911B05B0911C05481725
:103B300059076A077B0709F428C20E94870C6F7037
:103B400077277C5FCE0109960E94091B813009F01E
:103B50001FC28EE492E09DA38CA38B819C81AD81DA
:103B6000BE818EA39FA3A8A7B9A745E350E0BE01DD
:103B70006C5D7F4FCE0109960E943906892B09F0B2
:103B80004EC010E000E0CE0109960E94CB1A013031
:103B9000110559F1C801EC960FB6F894DEBF0FBEBF
:103BA000CDBFDF91CF911F910F91FF90EF90DF90EC
:103BB000CF90BF90AF909F908F907F906F9008951F
:103BC0003E3209F0A8CF233009F4A5CFA2E3B0E03C
:103BD000AC0FBD1FA20FB11D8C932F5F90E080E052
:103BE00082CF233009F097CF8DABD401ED91FC91BA
:103BF0000488F589E02D8EE492E09DA38CA38AA928
:103C00009BA9ACA9BDA98EA39FA3A8A7B9A7A301EF
:103C1000BE016C5D7F4FC40109958C01BBCF0E9432
:103C2000870C78876F8342E050E0BE01695F7F4F69
:103C3000CE0109960E94B61581E090E09DA38CA369
:103C400042E050E0BE016C5D7F4FCE0109960E94BC
:103C5000B61580E091E09DA38CA342E050E0BE0148
:103C60006C5D7F4FCE0109960E94B6151DA21CA265
:103C700042E050E0BE016C5D7F4FCE0109960E948C
:103C8000B61542E050E0BE016C5D7F4FCE01099653
:103C90000E94B61542E050E0BE016C5D7F4FCE0140
:103CA00009960E94B6157801D8018C91882311F1EC
:103CB0008701F80181916F01882311F08E32C1F4E0
:103CC0005801AE18BF081A141B0484F4AEAA41E0D0
:103CD00050E0BE016A5C7F4FCE0109960E94B61586
:103CE000A501B701CE0109960E94B6157601DCCF79
:103CF0008601DFCF1EAA41E050E0BE016A5C7F4F23
:103D0000CE0109960E94B61500E011E01DA30CA398
:103D100042E050E0BE016C5D7F4FCE0109960E94EB
:103D2000B6151DA30CA342E050E0BE016C5D7F4FB1
:103D3000CE0109960E94B615CE0109960E94D81AA6
:103D4000892B09F41ECF83E0E82EF12CD7C04B81DC
:103D50005C816D817E81898D9A8DAB8DBC8D48177C
:103D600059076A077B0709F00AC18D8D9E8DC5979B
:103D700009F005C18AA19BA10DEF1FEF0C970CF470
:103D8000B4C04CE050E0BE016C5D7F4FCE0109969F
:103D90000E94341A8EA19FA19827892798279BAF4C
:103DA0008AAF4F8158852CA13DA14217530709F0D6
:103DB000E9C097FFE7C08F7092700BEF1FEF892B60
:103DC00009F093C0AAA4BBA4BA24AB24BA240AEF76
:103DD0001FEFA114B10409F488C010E000E088A529
:103DE00099A59827892798270817190708F541E00A
:103DF00050E0BE016A5C7F4FCE0109960E94341AE2
:103E00004EA9442339F050E070E060E0CE010996FD
:103E10000E94341A8EA98111EACF44E050E070E08C
:103E200060E0CE0109960E94341A0F5F1F4FD7CF72
:103E3000D12CC12C41E050E0BE01645C7F4FCE012B
:103E400009960E94341A4CAD842F807C09F074C00E
:103E5000442339F050E070E060E0CE0109960E9402
:103E6000341A8CAD8111E6CF42E050E0BE01685CAF
:103E70007F4FCE0109960E94341A42E050E0BE0105
:103E80006A5C7F4FCE0109960E94341A44E050E0EC
:103E900070E060E0CE0109960E94341A42E050E0E2
:103EA000BE01665C7F4FCE0109960E94341A88AD30
:103EB00099AD4AAD5BAD8115914009F047C00EA99F
:103EC0001FA91027012710270130110509F03EC056
:103ED0004115544009F04DC044E050E0BE016E5C15
:103EE0007F4FCE0109960E94341AF1E0EF1AF108D3
:103EF00009F449CE0F3F100709F045CE0E94870C08
:103F00005B016C01CE0109960E94A61C18161906C9
:103F10000CF41DCF0E94870C6A197B098C099D093E
:103F2000693873418105910538F562E370E080E0FE
:103F300090E00E94550CE6CF41E050E070E060E078
:103F4000CE0109960E94341A1CAE8BCF5427452708
:103F5000542770E060E0CE0109960E94341AEFEF1A
:103F6000CE1ADE0AAC14BD0409F064CF06EF1FEFD1
:103F7000BCCF07EF1FEFB9CF0FEF1FEFB6CF0EEF9C
:103F80001FEFB3CF0CEF1FEFB0CF0EEF1FEF02CE3E
:103F900010E000E0FFCD0E948139FB01019000207C
:103FA000E9F73197AF01461B570BDC01ED91FC910E
:103FB0000280F381E02D099460E572E086E396E0EB
:103FC0000C94CD1FCF93DF93BC0186E396E00E9453
:103FD0008707EC010E94DC1F8C0F9D1FDF91CF91A2
:103FE0000895CF93DF9300D000D000D0CDB7DEB7D7
:103FF00089E790E00E94E21F8EE492E09A83898331
:104000008091950490919604A0919704B0919804A2
:104010008B839C83AD83BE8342E25EEDBE016F5F06
:104020007F4F8EED94E00E94390668E670E08EEDD9
:1040300094E00E9487078EED94E00E94D81A26969D
:104040000FB6F894DEBF0FBECDBFDF91CF910895BC
:104050008F929F92AF92BF92EF92FF920F931F9316
:10406000CF93DF93CDB7DEB7A1970FB6F894DEBF3D
:104070000FBECDBF7C01FA01CB0119A2223008F49A
:104080002AE08E010F5D1F4F822E912CB12CA12CA6
:10409000BF01A50194010E943A39F901CA016A30B1
:1040A0000CF5605DD8016E938D01232B242B252BFD
:1040B00079F790E080E0109721F0BD01C7010E94E0
:1040C000CD1FA1960FB6F894DEBF0FBECDBFDF9116
:1040D000CF911F910F91FF90EF90BF90AF909F9065
:1040E0008F900895695CDECFCF92DF92EF92FF92BE
:1040F0000F931F93CF93DF9377FF1DC06A017B015E
:10410000EC016DE20E9480078C0144275527BA011B
:104110004C195D096E097F092AE0CE010E94282012
:10412000800F911FDF91CF911F910F91FF90EF9022
:10413000DF90CF9008952AE0DF91CF911F910F91EA
:10414000FF90EF90DF90CF900C942820AB01770F79
:10415000660B770B0C947420AB0170E060E02AE0F2
:104160000C942820462F50E070E060E02AE00C9488
:1041700028208F929F92AF92BF92CF92DF92EF92C0
:10418000FF920F931F93CF93DF937C018B014C0120
:1041900082E0880E911C5701E5E0AE0EB11CD0E024
:1041A000C0E0F40161914F01C8010E94B2206C018E
:1041B0006EE2C8010E9480078C0D9D1DC80FD91F9B
:1041C0008A149B0471F7F7016581C8010E94B2202F
:1041D0008C0F9D1FDF91CF911F910F91FF90EF905A
:1041E000DF90CF90BF90AF909F908F9008952F92C7
:1041F0003F924F925F926F927F928F929F92AF9277
:10420000BF92CF92DF92EF92FF921F93CF93DF93F3
:10421000EC016A017B01722EAB019601CB01B60164
:104220000E94AF3A63E572E0811126C04601570152
:10423000E894B7F82FEF3FEF4FE75FE7C501B40110
:104240000E94AF3A81110CC02FEF3FEF4FE75FE7BD
:10425000C501B4010E94E93767E572E0181664F001
:104260002FEF3FEF4FE75FE4C701B6010E94AA3A84
:104270001816B4F46BE572E0CE01DF91CF911F9177
:10428000FF90EF90DF90CF90BF90AF909F908F9076
:104290007F906F905F904F903F902F900C94CD1F28
:1042A0002FEF3FEF4FE75FECC701B6010E94E93700
:1042B00087FDE0CF20E030E0A901C701B6010E94F0
:1042C000E937312C212C87FF09C06DE2CE010E9415
:1042D00080071C01F7FAF094F7F8F09410E060E022
:1042E00070E080E09FE3711641F020E030E040E2B2
:1042F00051E40E94023A1F5FF6CFA70196010E9487
:1043000096392B013C010E947B3A4B015C012AE06B
:10431000BC01A401CE010E9428207C01E20CF31C08
:104320001123A1F1C501B4010E94EE379B01AC013C
:10433000C301B2010E9495394B015C016EE2CE01CE
:104340000E948007E80EF91E115000F120E030E0D5
:1043500040E251E4C501B4010E944F382B013C01F9
:104360000E947B3A4B01CE010E94AC20E80EF91E60
:10437000B40190E080E00E94EE379B01AC01C301E4
:10438000B2010E9495394B015C01DECFC701DF917C
:10439000CF911F91FF90EF90DF90CF90BF90AF90A3
:1043A0009F908F907F906F905F904F903F902F9055
:1043B00008950C94CD1FFC01808191810C946B3980
:1043C000CF93DF93CDE0D0E060E0CE010E9473395F
:1043D0002196C11584E0D807B9F78CE090E090935E
:1043E000A5048093A4046CE0DF91CF910C94733901
:1043F0002F923F924F925F926F927F928F929F92F5
:10440000AF92BF92CF92DF92EF92FF920F931F93E2
:10441000CF93DF93CDB7DEB7C455D1090FB6F8946B
:10442000DEBF0FBECDBF0E94870CC090A402D0900B
:10443000A502E090A602F090A702C616D706E806ED
:10444000F906C0F430E020E040EB52E064EB72E0AB
:1044500089E994E00E944B040E94870C68577C4EC7
:104460008F4F9F4F6093A4027093A5028093A60282
:104470009093A7020E94870CC090A802D090A90236
:10448000E090AA02F090AB02C616D706E806F9063D
:1044900008F085C08091F102882309F480C030E0E3
:1044A00020E040EB52E064EB72E089E994E00E9486
:1044B0004B048EE492E09A838983809195049091D5
:1044C0009604A0919704B09198048B839C83AD834C
:1044D000BE8342E25EEDBE016F5F7F4F8EED94E0E2
:1044E0000E9439064091B4025091B5026091B60223
:1044F0007091B70222E08EED94E00E94F72065E90A
:1045000070E08EED94E00E94870726E636E646EEE0
:104510005FE36091B4027091B5028091B602909110
:10452000B7020E944F3820E030E040E052E40E94A1
:1045300096390E94743A8EED94E00E94A6206FE8AE
:1045400070E08EED94E00E9487074091B002509198
:10455000B1026091B2027091B30222E08EED94E05C
:104560000E94F7206AE870E08EED94E00E948707D1
:104570008EED94E00E94D81A0E94870C68577C4EFA
:104580008F4F9F4F6093A8027093A9028093AA0255
:104590009093AB02809190048F5F809390040E946F
:1045A000571229873A874B875C876D877E878F876D
:1045B0003111B7C00E9457122DA33EA34FA358A795
:1045C00069A77AA78BA72111D0C030E020E040EB8B
:1045D00052E064EB72E089E994E00E944B04609140
:1045E000B4027091B5028091B6029091B7020E9418
:1045F000743A7A8369836091B0027091B1028091BC
:10460000B2029091B3020E94743A6B830E945712D7
:104610002CA73DA74EA75FA768AB79AB8AAB4C83AD
:104620000E9457122BAB3CAB4DAB5EAB6FAB78AF80
:1046300089AF3D830E9457122AAF3BAF4CAF5DAFAD
:104640006EAF7FAF21968FAF21978E830E94571256
:1046500022962FAF229723963FAF239724964FAFF2
:10466000249725965FAF259726966FAF26972796B6
:104670007FAF279728968FAF28977F830E94571286
:1046800029962FAF29972A963FAF2A972B964FAF9F
:104690002B972C965FAF2C972D966FAF2D972E965C
:1046A0007FAF2E972F968FAF2F976887C090A40467
:1046B000D090A50476012FEFE21AF20ACE010196FE
:1046C0005C0199E0C90ED11C6196FFAEEEAE619718
:1046D000D5011D915D01CE01815B9F4F0E94DB21C1
:1046E000181721F0612FC7010E947339BFEFEB1A31
:1046F000FB0AEC14FD0441F76091A4047091A50439
:10470000685F7F4F7093A5046093A4048CE090E0F1
:104710000E9473396CE474E080E090E00E94550CD4
:1047200024C00E945712288B398B4A8B5B8B6C8B71
:104730007D8B8E8B3F3009F43DCF0E9457122F8B1B
:10474000388F498F5A8F6B8F7C8F8D8F3E3109F454
:1047500031CF0E9457122E8F3F8F48A359A36AA3CF
:104760007BA38CA33D3209F425CF0E941D110E942A
:10477000DB130E9468138091190190911A0105972B
:1047800009F06EC00E94FA117C010E94870C809093
:10479000AC029090AD02A090AE02B090AF0286162F
:1047A0009706A806B906B8F4EF2809F4E1C10E94FB
:1047B000FA119093DD048093DC040E94870C6C5006
:1047C0007E4F8F4F9F4F6093AC027093AD028093EA
:1047D000AE029093AF02E090DC04F090DD04E5E0DF
:1047E000EE16F10409F0CBC10E94BE0B6DEA70E039
:1047F0008BEA95E00E9487074091B4025091B50280
:104800006091B6027091B70222E08BEA95E00E94B7
:10481000F72068EA70E08BEA95E00E94870761E084
:1048200080E00E948F0B60EA70E08BEA95E00E94C6
:1048300087074091B0025091B1026091B20270912D
:10484000B30222E08BEA95E00E94F7206BE970E06A
:104850008BEA95E00E9487071092DD041092DC0439
:104860008091190190911A01019799F40E941F12E9
:104870000E94C50B80912A0490912B0481309105F0
:1048800009F06DC28CE10E947E0B10922B041092F5
:104890002A048091190190911A01029799F40E94BB
:1048A0001F120E94C50B80912A0490912B04813025
:1048B000910509F062C28CE10E947E0B10922B04DC
:1048C00010922A048091190190911A01039709F01E
:1048D0007BC00E941F120E94C50B80912A049091F8
:1048E0002B048430910509F056C288E090E0909343
:1048F0001A01809319010E94BE0B62EF70E08BEAEF
:1049000095E00E948707609117018BEA95E00E946D
:10491000B22060E28BEA95E00E9480076091160168
:104920008BEA95E00E94B2206DE28BEA95E00E944E
:104930008007609115018BEA95E00E94B22060E249
:104940008BEA95E00E948007609114018BEA95E064
:104950000E94B2206DE28BEA95E00E948007609190
:1049600013018BEA95E00E94B22060E28BEA95E0A9
:104970000E948007609112018BEA95E00E94B220AC
:104980006DE28BEA95E00E948007609111018BEA4D
:1049900095E00E94B22060E28BEA95E00E948007D9
:1049A0006FEE70E08BEA95E00E948707609110013E
:1049B0008BEA95E00E94B2201092DD041092DC0494
:1049C00010922B0410922A048091190190911A01DF
:1049D0000697D1F40E941F1280912A0490912B0413
:1049E0008430910509F030C20E94E02185E090E01A
:1049F00090931A01809319019093DD048093DC0455
:104A000010922B0410922A048091190190911A019E
:104A1000079719F50E941F1280912A0490912B0488
:104A20008130910509F019C28CE10E947E0B8091C2
:104A30001801811103C088E2809318018091180148
:104A400081508093180161E00E948F0B81E0809378
:104A5000290410922B0410922A048091190190913C
:104A60001A01089719F50E941F1280912A0490914B
:104A70002B048130910509F0F1C28CE10E947E0B7C
:104A800080911801811103C088E280931801809100
:104A9000180181508093180161E00E948F0B81E022
:104AA0008093290410922B0410922A0463961FAE5F
:104AB00063970E94870C609325047093260480936B
:104AC00027049093280480912404882331F08DE0FA
:104AD00063968FAF639710922404E0919F05E35390
:104AE000E53008F4F4C31092FC0480E88093FD04E0
:104AF0001092FE040E94930C86E396E00E94D10679
:104B00006C01892B09F421C586E396E00E94AF066B
:104B10000E94863963968FAF6397BE016E5A7F4FAE
:104B200086E094E00E94120263968FAD63978F3700
:104B300009F003C569E672E086E396E00E94D92198
:104B400063E772E086E396E00E94D92169E672E0AD
:104B500086E396E00E94D92180E0E82FF0E0DF01B3
:104B6000AA5FBB4F9C91992309F4DDC48F5FF5CFF9
:104B70000E94870C6C597F4F8F4F9F4F24CEF1E0DE
:104B8000EF16F10409F0ADC00E94BE0B10E0ADE0DD
:104B9000EA2EF12C8091A4049091A504E816F90660
:104BA0000CF094C0FA82E982CE0101960E94DB21CA
:104BB000C82EC701019661969FAF8EAF6197CE0157
:104BC000815B9F4F0E94DB21D82E60E0812F0E94E5
:104BD0008F0BB6018BEA95E00E94A6206AEB70E08D
:104BE0008BEA95E00E948707C70102969A83898322
:104BF000CE0101960E94DB21682F70E08BEA95E0E0
:104C00000E94A62064EB70E08BEA95E00E94870783
:104C100061E0812F0E948F0BC70106969A838983DA
:104C2000CE0101960E94DB21682F8BEA95E00E945D
:104C3000B2206FE28BEA95E00E948007C7010796D9
:104C40009A838983CE0101960E94DB21682F8BEA2B
:104C500095E00E94B2206FE28BEA95E00E94800707
:104C6000C70105969A838983CE0101960E94DB21B4
:104C7000682F8BEA95E00E94B22060E28BEA95E013
:104C80000E948007C70103969A838983CE0101960B
:104C90000E94DB21682F8BEA95E00E94B2206AE334
:104CA0008BEA95E00E948007C70104969A83898366
:104CB000CE0101960E94DB21682F8BEA95E00E94CD
:104CC000B22028E0E20EF11C125F64CF1092DD04E6
:104CD0001092DC0481E090E090931A018093190116
:104CE000BFCD82E0E816F10411F5109190040E9406
:104CF000BE0B6CE274E08BEA95E00E94D92161E082
:104D000080E00E948F0B6FE572E08BEA95E00E94D5
:104D1000D921612F8BEA95E00E94B2201092DD0428
:104D20001092DC04F0921A01E092190199CD93E0FF
:104D3000E916F10409F0ADCD0E94BE0B6AED70E0FA
:104D40008BEA95E00E94870761E080E00E948F0B6C
:104D50006FEB70E08BEA95E00E948707DFCF84302D
:104D6000910511F488E18FCD8530910509F08DCD45
:104D700090931A018093190188CD8430910511F424
:104D800088E19ACD8530910509F098CD90931A016C
:104D90008093190193CD8230910551F587E090E021
:104DA00090931A01809319010E94BE0BF12CE12C03
:104DB0001E2DFA82E982CE0101960E94DB21682F26
:104DC0008BEA95E00E94B2208E2D8B7F833019F004
:104DD0006EE21B3009F460E28BEA95E00E948007E6
:104DE000AFEFEA1AFA0ABCE0EB16F10409F7E4CDDA
:104DF00081309105C9F486E090E090931A01809388
:104E000019010E94BE0B66E071E08BEA95E00E94FA
:104E1000870761E080E00E948F0B65EF70E08BEA0E
:104E200095E00E948707C8CD8330910521F488E181
:104E30000E947E0BC5CD8530910509F0C1CD9093C0
:104E40001A0180931901BCCD8530910509F0D8CDA8
:104E500090931A0180931901D3CD8230910509F006
:104E6000CDC00E94C50B60E0809118010E948F0B9D
:104E7000609129048BEA95E00E94B220809118018C
:104E80001091290481111CC090E080E00E946B39D0
:104E900090E064E670E00E94D03ABC01E4E61E9F18
:104EA000600D711D112490E080E00E9473398091A3
:104EB00029048F5F8A3009F0CACD10922904C9CD28
:104EC000813059F490E080E00E946B39612F70E0EE
:104ED00090E00E94E710682FE6CF823089F490E0DE
:104EE00080E00E946B39282F30E0C9016AE070E051
:104EF0000E94D03AB901681B790B610F711DD3CFA5
:104F0000843091F481E090E00E946B3990E064E697
:104F100070E00E94D03ABC01F4E61F9F600D711D45
:104F2000112481E090E0C1CF853059F481E090E018
:104F30000E946B39612F70E090E00E94E710682FAB
:104F4000F0CF863089F481E090E00E946B39282F01
:104F500030E0C9016AE070E00E94D03AB901681BF4
:104F6000790B610F711DDDCF883099F482E090E0FC
:104F70000E946B39282F30E0C9016AE070E00E947E
:104F8000D03AB901681B790B610F711D82E090E086
:104F90008CCF8A3091F483E090E00E946B3990E0EE
:104FA00064E670E00E94D03ABC0124E6129F600DD6
:104FB000711D112483E090E078CF8B3059F483E0A9
:104FC00090E00E946B39612F70E090E00E94E71042
:104FD000682FF0CF8C3009F06ACF83E090E00E9418
:104FE0006B39282F30E0C9016AE070E00E94D03AA6
:104FF000B901681B790B610F711DDCCF83309105FE
:1050000079F461E0809118010E948F0B8091B105C5
:10501000982F92609093B1058A600E947E0B4DCFCD
:105020008430910591F488E10E947E0B80911801F3
:10503000883211F410921801809118018F5F8093CB
:10504000180161E00E948F0B38CF8530910509F07F
:1050500000CD90931A0180931901FBCC8230910509
:1050600009F003C18091180181110E94C50B60E015
:10507000809118010E948F0B609129048BEA95E0C2
:105080000E94B2208091180110912904823081F48D
:10509000612F70E08091170190E00E94E7108093EB
:1050A00017011F5F1A3009F4F1C010932904FACCDC
:1050B000833079F42091170130E0C9016AE070E093
:1050C0000E94D03A281B390B210F311D2093170164
:1050D000E8CF853051F4612F70E08091160190E0A7
:1050E0000E94E71080931601DCCF863079F420917E
:1050F000160130E0C9016AE070E00E94D03A281B36
:10510000390B210F311D20931601CBCF883051F47C
:10511000612F70E08091150190E00E94E71080936C
:105120001501BFCF893079F42091150130E0C90114
:105130006AE070E00E94D03A281B390B210F311D24
:1051400020931501AECF8B3051F4612F70E0809128
:10515000140190E00E94E71080931401A2CF8C30DC
:1051600079F42091140130E0C9016AE070E00E94F6
:10517000D03A281B390B210F311D2093140191CFF8
:105180008E3051F4612F70E08091130190E00E9405
:10519000E7108093130185CF8F3079F420911301AC
:1051A00030E0C9016AE070E00E94D03A281B390B58
:1051B000210F311D2093130174CF813151F4612FE0
:1051C00070E08091120190E00E94E710809312013C
:1051D00068CF823179F42091120130E0C9016AE090
:1051E00070E00E94D03A281B390B210F311D20930B
:1051F000120157CF843151F4612F70E08091110179
:1052000090E00E94E710809311014BCF853179F433
:105210002091110130E0C9016AE070E00E94D03AAB
:10522000281B390B210F311D209311013ACF8931F1
:1052300051F4612F70E08091100190E00E94E7101E
:10524000809310012ECF8A3109F02BCF20911001CD
:1052500030E0C9016AE070E00E94D03A281B390BA7
:10526000210F311D209310011CCF8330910589F44B
:1052700061E0809118010E948F0B8091B105982FF9
:1052800092609093B1058A600E947E0B109229046F
:1052900009CC8430910591F488E10E947E0B8091C5
:1052A0001801883211F410921801809118018F5F53
:1052B0008093180161E00E948F0BE8CF8530910543
:1052C00009F0F0CB90931A0180931901EBCBF0E039
:1052D000EF5CFE4F8081882309F405CC8091A60500
:1052E0008823E1F180919F058433E9F1873309F444
:1052F00045C08FEF8093FC041092FD041092FE04D1
:105300000E94930C8EED94E00E94A61C892B09F458
:1053100041C081E0809324044EE150E065EC72E0EE
:105320008EED94E00E94C81165EC72E086E396E091
:105330000E94D92164E171E086E396E00E9487072C
:1053400080E0E82FF0E0DF01AB53BD4F9C91EA5FB6
:10535000FB4F9923F1F090838F5FF3CF0E949F164C
:10536000882339F2BFCF80E591E00E94040285E3F3
:1053700090E00E94741685FDBCCFB5CB80E591E02E
:105380000E9404028EE290E00E94741680FDB1CF6C
:10539000AACB108226E636E646EE5FE36091B402C1
:1053A0007091B5028091B6029091B7020E944F3879
:1053B00020E030E040E052E40E9496390E94743AC6
:1053C000809117018617170664F5809116018617DC
:1053D000170609F034F480911501861717060CF0B2
:1053E0005AC0809114018617170609F034F4809191
:1053F0001301861717060CF050C080911201861712
:10540000170609F034F480911101861717060CF085
:1054100046C0809110018617170609F01CF409E0B8
:1054200001C005E08091B802801709F465CB8EE4D5
:1054300092E09A8389838091950490919604A0913B
:105440009704B09198048B839C83AD83BE8342E222
:105450005EEDBE016F5F7F4F8EED94E00E943906D6
:105460000530F9F40093B80264E571E08EED94E044
:105470000E9487078FEF809300051092FF048093AE
:105480000105809190048F5F809390048EED94E0ED
:105490000E94D81A2FCB06E0C5CF07E0C3CF08E0A3
:1054A000C1CF063071F40093B80268E471E08EED6C
:1054B00094E00E9487071092FF04109200058FEF7E
:1054C000DECF073081F40093B8026CE371E08EED1B
:1054D00094E00E9487078FEF8093FF0410920005ED
:1054E00010920105CECF083079F40093B80261E341
:1054F00071E08EED94E00E9487078FEF80930005A6
:105500008BE48093FF04ECCF89E08093B80266E2DD
:1055100071E08EED94E00E9487071092FF0480E80E
:1055200080930005DDCF882341F0EB5FFB4F808146
:105530008F3719F4108212971C9263966FAD6397A0
:1055400086E396E00E948007D7CA63968FAD639783
:105550008D3009F06BC20E94DC1F8EE362968FAF24
:105560006297BE016F5A7F4F8CE294E00E94120254
:10557000809190048F5F80939004F12CFEE1EF2ED8
:1055800080E0E82FF0E0EA5FFB4F9081992311F073
:105590008F5FF7CFF81608F041C00F2D10E00A5FBB
:1055A0001B4FB8018CE294E00E941202D801BC901B
:1055B0008B2D0B2C000C990B0E94E037892B89F462
:1055C00080910404E0910504EE9EF0011124EA505C
:1055D000FD4FE80FF11DB0828F5F80930404F394B8
:1055E000CFCFF80131978081082E000C990B0E94D3
:1055F000E037892BA1F780910504E0910404E89E2F
:10560000900111242A503D4FE20FF32FF11D10821B
:105610008F5F8093050410920404E1CF76EFE72EAC
:1056200072E0F72EE8EEAE2EE2E0BE2E8701649621
:105630001FAE6497312C512C44244A94F8012080E9
:10564000622C022C000C7708F0E36F1A710866E3F5
:10565000862E61E0962ED4018C91281274C0F80138
:10566000918111968C9198136EC080E0282F30E0C4
:10567000F801E20FF31F9081992311F08F5FF6CFAD
:10568000D40112968C911297082E000C990B2817B2
:10569000390709F058C013968C91F50180832FEFDC
:1056A0002183F4E08F0E911C86E991E0881599051D
:1056B00091F65394025E1F4F9FEFA91AB90AA9E011
:1056C0005A12BCCFE6E0F4E08EE1DF011D928A952C
:1056D000E9F78091250490912604A0912704B091C8
:1056E00028044091F2025091F3026091F40270910B
:1056F000F502841B950BA60BB70B853F9140A105C6
:10570000B10508F45AC11092F102E091E802E550A7
:10571000E33108F034C1F0E0E057F44D0C94E43A82
:10572000B42CBF2CBF2CCE2E552DBF2C902E8A2EE4
:10573000BF2CBF2CBF2C712FD6302C307F30BF2C0C
:10574000BF2CBF2CE7328091E8029AE06916710401
:1057500028F1823109F0A5CFADE22A12A2CFF801DB
:105760008181082E000C990BC0970A9708F099CFF9
:1057700021E0521248C0C8010E9464119B01AC0193
:10578000215030484F4F5F4F2F3F3F4F410551054C
:1057900008F45BC0332009F484CF5BC08830E1F4A7
:1057A0008091E902843009F05DC0EDE0D501EC9311
:1057B000C8010E9464119B01AB01BC014115510558
:1057C000F1E06F07710508F06CCF5093EB02209366
:1057D000EC024092ED0265CF823151F2833109F043
:1057E00060CF8DE08093E902C8010E94A7118F3F2E
:1057F000910509F0A4F5D50111968C931197EFEF5F
:105800001296EC934ECFB2E05B12C4CFC8010E9457
:1058100064119B01AC01215030484F4F5F4F2F3F27
:105820003F4F4105510508F0B5CF7093EB026093EF
:10583000EC02332009F493C04092ED02F1E064964B
:10584000FFAF6497332433942CCF7093E9026093B5
:10585000EA0264962FAD64972223A1F3EDCF409224
:10586000E8021FCF8F3009F01CCFF2E05F1215C0A5
:10587000C8010E94A7119C01215031092C3031052B
:1058800048F04092E802809103018093EA0240923E
:10589000F00207CF80930301F6CF23E0521213C02A
:1058A000C8010E94A7119C01215031092F313105F7
:1058B00038F04092E802809102018093EB02E7CF3A
:1058C00080930201F8CF84E0581210C0C8010E94F2
:1058D000A7118436910538F04092E8028091BC020D
:1058E0008093EC02D4CF8093BC02F8CF95E059129C
:1058F00010C0C8010E94A7118831910538F040926C
:10590000E8028091BB028093ED02C1CF8093BB027D
:10591000F8CFA6E05A1210C0C8010E94A7118C331C
:10592000910538F04092E8028091BA028093EE022D
:10593000AECF8093BA02F8CFB7E05B12A8CFC80110
:105940000E94A7118C33910538F04092E8028091B3
:10595000B9028093EF029BCF8093B902F8CFE1E0C8
:105960006496EFAF64979DCE8091E9028630D9F0BE
:1059700048F4833009F480C0843009F489C00E945F
:10598000F11F1BC0873009F46BC08E30C1F78091C6
:10599000EA028F3FA1F71092E60281E08093E702CE
:1059A0000E9468130AC08091EA028F3F41F710926B
:1059B000E7021092E6020E945913E5ECF2E083EE52
:1059C00092E011928E179F07E1F780912504909144
:1059D0002604A0912704B09128048093F2029093AA
:1059E000F302A093F402B093F5028AE09701215EDE
:1059F0003F4FF70111922E173F07E1F78150EEE17B
:105A0000EE0EF11C8111F2CF1092E8021092E90221
:105A10001092EA021092EB021092EC021092ED0248
:105A20001092EE021092EF021092F002CC5ADF4F69
:105A30000FB6F894DEBF0FBECDBFDF91CF911F919F
:105A40000F91FF90EF90DF90CF90BF90AF909F901D
:105A50008F907F906F905F904F903F902F90089520
:105A60008091EA028F3F09F08ACF1092E7021092EC
:105A7000E6020E944A13A1CF8091EA028F3F09F00B
:105A80007ECF1092E7021092E6020E943D1395CF5E
:105A90008091EA028F3F09F072CF1092E70281E015
:105AA0008093E6020E94DB1388CF8091E9028A305E
:105AB00009F065CF8091EA028F3F09F060CF8EE454
:105AC00092E09A8389838091950490919604A091A5
:105AD0009704B09198048B839C83AD83BE8342E28C
