:100000000C9478010C94A0010C94A0010C94A00114
:100010000C94A0010C94A0010C94A0010C94A001DC
:100020000C94A0010C94A0010C94A0010C94A001CC
:100030000C94A0010C94A0010C94A0010C94A001BC
:100040000C94A3150C94A0010C9471150C944B15F1
:100050000C94A0010C94A0010C94A0010C94A0019C
:100060000C942C140C94A0012A494E56414C49443E
:1000700020434F4D4D414E44000000000024002716
:10008000002A0000000000250028002B00000000CE
:100090000800020100000304070000000000000047
:1000A000003E57656C636F6D6520746F204172640C
:1000B00075696E6F20436F6D6D616E64204C696E63
:1000C0006520496E7465727072657465722C206566
:1000D0006E746572202748454C502720666F722049
:1000E0006C697374206F6620636F6D6D616E6473ED
:1000F000210A004F4646004F464600475245454EAE
:10010000004F46460052454400475245454E005276
:10011000454400424C494E4B494E4720003E204C3E
:10012000454420004F4646004F4E00424C494E4B3E
:10013000494E47003E2044313320005665727369B2
:100140006F6E3A20002D3E48454C50002D3E5645DE
:100150005253494F4E002D3E52474220424C494E89
:100160004B002D3E524742204F4646002D3E5247FF
:1001700042204F4E002D3E524742203C7265643E65
:10018000203C677265656E3E203C626C75653E0082
:100190002D3E414444203C6E756D626572313E20B7
:1001A0003C6E756D626572323E002D3E54454D5079
:1001B0002048494748204C4F57002D3E54454D504C
:1001C00020484953544F5259002D3E4355525245F1
:1001D0004E542054454D50002D3E53455420544913
:1001E0004D45203C6D6F6E74683E203C6461793EE5
:1001F000203C796561723E203C686F75723E203C00
:100200006D696E7574653E203C7365636F6E643E08
:10021000002D3E43555252454E542054494D450001
:100220002D3E535441545553204C454453002D3ECC
:1002300053455420424C494E4B203C6E756D6265CF
:10024000723E002D3E4C454420414C5445524E4197
:100250005445002D3E4C454420424C494E4B002D08
:100260003E4C4544204F4646002D3E4C45442052CE
:100270004544002D3E4C454420475245454E002DF7
:100280003E44313320424C494E4B002D3E443133E5
:10029000204F4646002D3E443133204F4E005468D7
:1002A0006520617661696C61626C6520636F6D6D5C
:1002B000616E6473206172653A20000404040404D2
:1002C0000404040202020202020303030303030103
:1002D00002040810204080010204081020010204DA
:1002E00008102000000000230026002900006716E7
:1002F00011241FBECFEFD8E0DEBFCDBF25E0A8EAB6
:10030000B2E001C01D92AA3CB207E1F712E0A0E002
:10031000B1E0E2EAF5E402C005900D92A83AB10717
:10032000D9F711E0C8E7D1E004C02197FE010E948F
:10033000AE22C737D107C9F70E946F160C949E1FD3
:100340000C9400000F931F93CF93DF938C01D0E0A8
:10035000C0E0F801EC0FFD1F6491662371F0E0919D
:100360001405F09115050190F081E02D84E195E0F0
:100370000995892B11F02196ECCFCE01DF91CF9119
:100380001F910F910895E0911405F09115050190CA
:10039000F081E02D682F84E195E00994E0919804C4
:1003A000F09199040190F081E02D682F88E994E0A4
:1003B000099480EE91E090939504809394040895BD
:1003C000089588EE91E090939304809392040895A9
:1003D000089520916F04260F3327331F21323105F2
:1003E000ECF420910E05FC0190E080E0243069F0EF
:1003F00082E00895A0916F042191AC01415B5B4FB5
:10040000A40FB52FB11D2C930196861798F38091F8
:100410006F04680F60936F0480E0089581E0089591
:100420000895E091970480919604E81730F4F0E085
:10043000E251FB4F808190E008958FEF9FEF089588
:1004400090919704809196042FEF3FEF981748F40E
:10045000E92FF0E0E251FB4F208130E09F5F909365
:100460009704C90108958091960490919704891B7F
:10047000990B0895CF92DF92EF92FF920F931F9303
:10048000CF93DF937C01CB018A012091A404222326
:1004900089F0EB016B01C40ED51ECC15DD0569F0AA
:1004A0006991D701ED91FC910190F081E02DC70198
:1004B0000995F3CF642F0E94E901C801DF91CF9124
:1004C0001F910F91FF90EF90DF90CF900895CF9301
:1004D000DF931F92CDB7DEB769832091A404222356
:1004E000F9F02091A704203258F021E030E0FC011F
:1004F0003383228390E080E00F90DF91CF910895C5
:100500008091A504E82FF0E0E855FB4F9981908396
:100510008F5F8093A5048093A70481E090E0ECCFE7
:1005200061E0CE0101960E94E901F7CFCF92DF9200
:10053000EF92FF920F931F93CF93DF93EC017A0119
:100540006901E881F9810190F081E02D0995E88148
:10055000F9810084F185E02D9801A601B701CE0153
:10056000DF91CF911F910F91FF90EF90DF90CF908F
:1005700009946F927F928F929F92AF92BF92CF9287
:10058000DF92EF92FF920F931F93CF93DF93CDB73C
:10059000DEB7AC970FB6F894DEBF0FBECDBFDC015F
:1005A0001696ED91FC91319609F48BC059013A01F0
:1005B0006B018C01FE0131964F0188E2DF011D9233
:1005C0008A95E9F7D801ED91FC910488F589E02D31
:1005D000B401C80109957C01892B09F05CC01AA6F9
:1005E00019A61CA61BA6D801ED91FC910688F789D7
:1005F000E02D9E01255D3F4FAE01475D5F4FB40189
:10060000C80109957C01892B09F045C0A114B104EA
:1006100039F088E2F401D50101900D928A95E1F755
:10062000C114D10409F189A59AA521E030E097FF12
:1006300002C02FEF3FEF9F77829FB001839F700D25
:10064000929F700D1124072E000C880B990B0E94AD
:10065000B11F20E030E040E251E40E948B21F6011E
:10066000608371838283938361147104A1F06BA50D
:100670007CA5072E000C880B990B0E94B11F20E06F
:1006800030E040E251E40E948B21D3016D937D93D1
:100690008D939C931397C701AC960FB6F894DEBF69
:1006A0000FBECDBFDF91CF911F910F91FF90EF90C3
:1006B000DF90CF90BF90AF909F908F907F906F9082
:1006C000089587E1E82EF12CE6CF8F929F92AF92AA
:1006D000BF92CF92DF92EF92FF920F931F93CF932F
:1006E000DF93EC018B016A017901E881F9810288CD
:1006F000F389E02D0995B82EB801685F7F4FE88136
:10070000F9810288F389E02DCE010995982EB80170
:10071000605F7F4FE881F9810288F389E02DCE0187
:100720000995A82EB801685E7F4FE881F98102889B
:10073000F389E02DCE010995882EB801605E7F4FC8
:10074000E881F9810288F389E02DCE0109959B2D7E
:10075000990D9A0D980D891319C09A2D882DF601BF
:10076000918380839B2D892DF7019183808390E075
:1007700080E0DF91CF911F910F91FF90EF90DF907C
:10078000CF90BF90AF909F908F90089585E190E0BB
:10079000F0CF47E050E080E0FB012191BF01042E43
:1007A00001C0220F0A94EAF7820F41505109A0F7C5
:1007B0000895FC01828590E00895FC01818590E018
:1007C0000895CF92DF92EF92FF920F931F93CF93F2
:1007D000DF93EC017A016901E881F9810190F081F0
:1007E000E02D0995E881F9810480F581E02D9801DB
:1007F000A601B701CE01DF91CF911F910F91FF901C
:10080000EF90DF90CF900994CF92DF92EF92FF921A
:100810000F931F93CF93DF93CDB7DEB728970FB613
:10082000F894DEBF0FBECDBFDC011696ED91FC91B2
:10083000319609F440C08A017B0119821A821B8219
:100840001C821D821E821F821886DC01ED91FC91A4
:100850000084F185E02DAE014B5F5F4FBE016F5FFD
:100860007F4F09956C01892BB1F4E114F10441F03B
:1008700069817A818B819C810E94FD21F7016083CF
:100880000115110541F06D817E818F8198850E944F
:10089000FD21D8016C93C60128960FB6F894DEBFEF
:1008A0000FBECDBFDF91CF911F910F91FF90EF90C1
:1008B000DF90CF90089587E1C82ED12CECCF262F62
:1008C0002D7F29F4FC01608790E080E0089588E1A5
:1008D00090E00895DC0117967C936E931697FB01C8
:1008E000E153FD4FE4911996EC93199765547D4FB0
:1008F000FB0164911A966C9308956AE00E944D2260
:10090000292F30E1839FC0011124822B0895982F55
:1009100092959F708F702AE0929F800D1124089508
:10092000FC01538D448D252F30E0842F90E0821BF5
:10093000930B541710F0CF96089501970895FC017A
:10094000918D828D981761F0A28DAE0FBF2FB11DD2
:100950005D968C91928D9F5F9F73928F90E008952A
:100960008FEF9FEF0895FC01918D828D981731F0E4
:10097000828DE80FF11D858D90E008958FEF9FEF38
:100980000895FC01918D228D892F90E0805C9F4F0E
:10099000821B91098F7399270895FC01A48DA80FDC
:1009A000B92FB11DA35ABF4F2C91848D90E00196B1
:1009B0008F739927848FA689B7892C93A089B189D1
:1009C0008C91837080648C93938D848D981306C072
:1009D0000288F389E02D80818F7D80830895EF92D6
:1009E000FF920F931F93CF93DF93EC0181E0888FE9
:1009F0009B8D8C8D98131AC0E889F989808185FFB9
:100A000015C09FB7F894EE89FF896083E889F9895A
:100A100080818370806480839FBF81E090E0DF915C
:100A2000CF911F910F91FF90EF900895F62E0B8DAF
:100A300010E00F5F1F4F0F731127E02E8C8D8E116A
:100A40000CC00FB607FCFACFE889F989808185FFD1
:100A5000F5CFCE010E94CD04F1CFEB8DEC0FFD2F31
:100A6000F11DE35AFF4FF0829FB7F8940B8FEA898C
:100A7000FB8980818062CFCFCF93DF93EC01888D9B
:100A80008823B9F0AA89BB89E889F9898C9185FD09
:100A900003C0808186FD0DC00FB607FCF7CF8C9197
:100AA00085FFF2CF808185FFEDCFCE010E94CD047E
:100AB000E9CFDF91CF91089584E195E00E94C104D0
:100AC00021E0892B09F420E0822F089580E090E056
:100AD000892B29F00E945C0581110C940000089577
:100AE000AF92BF92CF92DF92EF92FF920F931F933C
:100AF000CF93DF936C017B018B01040F151FEB017A
:100B00005E01AE18BF08C017D10759F06991D60130
:100B1000ED91FC910190F081E02DC6010995892BA2
:100B200079F7C501DF91CF911F910F91FF90EF9061
:100B3000DF90CF90BF90AF90089590E080E008954F
:100B400090E0FC01E357FF4F2491FC01E153FD4F7E
:100B50003491FC01E554FD4FE491EE23C9F02223CA
:100B600039F0233001F1A8F4213019F1223029F1B4
:100B7000F0E0EE0FFF1FED57FF4FA591B4918FB737
:100B8000F894EC91611126C030953E233C938FBFC1
:100B900008952730A9F02830C9F0243049F7809112
:100BA00080008F7D03C0809180008F7780938000CC
:100BB000DFCF84B58F7784BDDBCF84B58F7DFBCF4E
:100BC0008091B0008F778093B000D2CF8091B00039
:100BD0008F7DF9CF3E2BDACF10920E0581E0809306
:100BE000ED041092E80461E082E10E94A00561E05A
:100BF00083E10E94A005E9EBF0E080818E7F808395
:100C000080818D7F808388E48093B80085E4809321
:100C1000BC000895CF93DF9391E090934E04882316
:100C2000B9F0C091B800D091BA008091BC008A7B25
:100C30008093BC0060E082E10E94A00560E083E157
:100C40000E94A0050E94EC05D093BA00C093B800A2
:100C5000DF91CF910895CF93DF9390E0FC01E153B2
:100C6000FD4F249185549D4FFC0184918823C9F048
:100C700090E0880F991FFC01E758FF4FA591B491B0
:100C8000FC01ED57FF4FC591D49161110DC09FB785
:100C9000F8948C91209582238C9388812823288333
:100CA0009FBFDF91CF910895623051F49FB7F894C0
:100CB0003C91822F809583238C93E8812E2BEFCF5C
:100CC0008FB7F894EC912E2B2C938FBFEACF1F9304
:100CD000CF93DF93182FEB0161E00E942B06209742
:100CE00039F460E0812FDF91CF911F910C94A00522
:100CF000CF3FD10511F461E0F5CFE12FF0E0E357EC
:100D0000FF4FE491E33031F140F4E130B1F0E230F3
:100D1000E1F0C038D1057CF7E4CFE73029F1E830C5
:100D200059F1E430B1F780918000806280938000B7
:100D3000D0938B00C0938A0004C084B5806884BDC2
:100D4000C7BDDF91CF911F91089584B5806284BDA6
:100D5000C8BDF7CF80918000806880938000D093D9
:100D60008900C0938800EDCF8091B00080688093A7
:100D7000B000C093B300E5CF8091B0008062809353
:100D8000B000C093B400DDCF789484B5826084BD98
:100D900084B5816084BD85B5826085BD85B581607F
:100DA00085BDEEE6F0E0808181608083E1E8F0E0DF
:100DB0001082808182608083808181608083E0E80E
:100DC000F0E0808181608083E1EBF0E080818460ED
:100DD0008083E0EBF0E0808181608083EAE7F0E0EF
:100DE0008081846080838081826080838081816053
:100DF00080838081806880831092C1000895813053
:100E0000910539F0880F991F880F991F0597019751
:100E1000F1F708953FB7F8948091BF029091C00216
:100E2000A091C102B091C20226B5A89B05C02F3F78
:100E300019F00196A11DB11D3FBFBA2FA92F982F00
:100E40008827BC01CD01620F711D811D911D42E0FB
:100E5000660F771F881F991F4A95D1F70895CF9283
:100E6000DF92EF92FF920F931F93CF93C82F81329F
:100E700008F096C00E940A076B017C0180910E0564
:100E8000811169C081E080930E058093ED049FEF8E
:100E90009093EC041092EB049C0F9093EA048093DF
:100EA000E9048091E904806D8093E9048091E8046D
:100EB000813009F077C01092E8040E940A076B01A4
:100EC0007C018091E9048093BB0080911005909192
:100ED0001105A0911205B0911305892B8A2B8B2B3C
:100EE000A1F00E940A0700911005109111052091B0
:100EF0001205309113056C197D098E099F0906179B
:100F000017072807390708F447C08091BC0083FD04
:100F1000D8CF85EC8093BC000E940A076B017C014E
:100F200080910E05813009F43FC08091EB048C174D
:100F300010F4C091EB04A8ECB4E0EEEEF4E080E035
:100F40008C1354C08C2FCF911F910F91FF90EF9075
:100F5000DF90CF9008958091100590911105A09198
:100F60001205B0911305892B8A2B8B2B09F486CFA0
:100F70000E940A0700911005109111052091120599
:100F8000309113056C197D098E099F090617170703
:100F90002807390708F072CF80910F050E940A06D2
:100FA000C0E0D0CF85EEB6CF8091100590911105AD
:100FB000A0911205B0911305892B8A2B8B2B09F474
:100FC000AFCF0E940A0700911005109111052091E2
:100FD0001205309113056C197D098E099F090617BA
:100FE00017072807390708F09BCFD6CF9D9191931B
:100FF0008F5FA6CF8F929F92AF92BF92CF92DF92D8
:10100000EF92FF920F931F93CF93DF93613208F01B
:10101000D1C0142FD62FC82F0E940A076B017C0164
:1010200080910E0581116BC082E080930E051093B4
:10103000ED048FEF8093EC041092EB04D093EA045C
:10104000A8EAB4E0E8ECF4E080E0D8138BC010929A
:10105000E9048091E904CC0FC82BC093E904809186
:10106000E804813009F082C01092E8040E940A0767
:101070006B017C018091E9048093BB008091100595
:1010800090911105A0911205B0911305892B8A2B1F
:101090008B2BA1F00E940A070091100510911105F9
:1010A00020911205309113056C197D098E099F0955
:1010B000061717072807390708F442C08091BC00BB
:1010C00083FDD8CF85EC8093BC000E940A076B019A
:1010D0007C0180910E05823009F44AC08091EC04B5
:1010E0008F3F09F469C08091EC04803209F466C036
:1010F0008091EC04803309F463C084E026C08091C1
:10110000100590911105A0911205B0911305892B3E
:101110008A2B8B2B09F484CF0E940A07809010053C
:1011200090901105A0901205B09013056C197D09DF
:101130008E099F0986169706A806B90608F070CF93
:1011400080910F050E940A0685E0DF91CF911F91E3
:101150000F91FF90EF90DF90CF90BF90AF909F9056
:101160008F9008959D9191938F5F6FCF85EEABCF58
:101170008091100590911105A0911205B091130571
:10118000892B8A2B8B2B09F4A4CF0E940A0700918C
:1011900010051091110520911205309113056C195D
:1011A0007D098E099F09061717072807390708F0D8
:1011B00090CFC6CF81E0C9CF80E0C7CF82E0C5CF56
:1011C00083E0C3CF482F6091A7048091A6040E94BA
:1011D000FA071092A5041092A7041092A40408958F
:1011E000CF93C62F91E09093A40498E69093A60421
:1011F0001092A5041092A704682F88E994E00E9439
:1012000067026C2F88E994E00E94670281E0CF9129
:101210000C94E20891E09093A40498E69093A604BD
:101220001092A5041092A704682F88E994E00E9408
:10123000670281E00C94E2088F929F92AF92BF9276
:10124000CF92DF92EF92FF920E940A074B015C015E
:101250008CE4C82E84E0D82EE12CF12C0E940A07E1
:10126000681979098A099B09683E734081059105CF
:10127000A8F321E0C21AD108E108F10888EE880E2F
:1012800083E0981EA11CB11CC114D104E104F10437
:1012900029F7FF90EF90DF90CF90BF90AF909F9095
:1012A0008F9008957F928F929F92AF92BF92CF922C
:1012B000DF92EF92FF920F931F93CF93DF93EC0196
:1012C000162F7A0169010E940A074B015C01712CFB
:1012D0001111798410E000E060E070E0CB012A8118
:1012E0003B814C815D812617370748075907F4F089
:1012F0000115110561F5C7011E141F0464F10E9458
:101300000A07681979098A099B09EA85F0E0EE0F56
:10131000FF1FED51FD4FA591B4912C910F5F1F4F11
:1013200039852323271105C097FFD9CF6FEF7FEFB2
:10133000CB01DF91CF911F910F91FF90EF90DF9044
:10134000CF90BF90AF909F908F907F9008951C1486
:101350001D04ACF6C6010E94FF06D1CF2FB7F8944A
:101360006091BB027091BC028091BD029091BE025F
:101370002FBF08954F925F926F927F929F92AF928C
:10138000BF92CF92DF92EF92FF920F931F93CF9372
:10139000DF9300D01F92CDB7DEB7D090BD0580910E
:1013A000C0059091C105A091C205B091C305892BDC
:1013B0008A2B8B2BD9F00E940A070091B905109156
:1013C000BA052091BB053091BC05601B710B820BE7
:1013D000930B0091C0051091C1052091C205309179
:1013E000C3056017710782079307C8F20E940A07B6
:1013F0006093B9057093BA058093BB059093BC05C3
:10140000E091C805F091C905309759F04091C405A5
:101410005091C5056091C6057091C7058D2D099540
:10142000D82EE090B705F090B8054D2C512C712CBA
:10143000612CE114F10409F459C0D7011C96CC9039
:101440001C978091BE059091BF058436910510F4DC
:101450001C961C92D701ED91FC91A280B380198259
:101460001A821B82DD2079F1F701369610E000E048
:101470002191222319F19280992001F130E050E06E
:1014800040E02F5F3F4F4F4F5F4FC301B2010E94BB
:101490003D229B01AC01892D90E0B0E0A0E0BC01B1
:1014A000CD016F5F7F4F8F4F9F4F0E943D22A1E084
:1014B000B0E0AC0FBD1FA00FB11F8C930F5F1F4F8B
:1014C00003301105A9F609811A812B81F7014585A1
:1014D000568562817381C701F5010995D7011C9674
:1014E000CC921C971496ED90FC90A3CF8091B505FB
:1014F0009091B6058C010F5F1F4F1093B6050093B6
:10150000B5054997B4F10E94AE09C090B105D090DD
:10151000B205E090B305F090B4059B01AC012C1925
:101520003D094E095F0921F421E030E040E050E040
:1015300088EE93E0089FB001099F700D189F700D11
:101540001124072E000C880B990B0E946D223093FA
:10155000BF052093BE051092B6051092B5050E94F6
:10156000AE096093B1057093B2058093B305909373
:10157000B4050F900F900F90DF91CF911F910F91B5
:10158000FF90EF90DF90CF90BF90AF909F907F90B3
:101590006F905F904F9008950F931F93CF93DF93B9
:1015A0002091B9022F5F322F37703093B90220FF9C
:1015B0002BC020E831FD2064347009F02062205FE8
:1015C000FC01EC01239600E011E06485662329F01C
:1015D00070E0C8010E9459226F5F6187322F369FE9
:1015E000030E30E0311D1124311110C01682662324
:1015F00011F0615061873196EC17FD0731F7DF91EB
:10160000CF911F910F91089520E0D4CF31503683B0
:10161000EECF4F925F927F928F929F92AF92BF9246
:10162000CF92DF92EF92FF920F931F93CF93DF93AE
:101630002C01EB010E940A07F20127853089621B09
:10164000730B6A307105B0F3F8948A819B81181688
:1016500019060CF0CDC1E881F9816BB1862E689432
:1016600087F83BB13F773BB9D9848E812D2D281B5C
:10167000822F2E834F85042E000C550BAA81BB812F
:101680007C85FD84EE847F5FF394E3949F8198844E
:10169000BA84AB841081C12C6C2D0C2D2C2D208193
:1016A000112788942111280F08F42FEF8195889431
:1016B00070FD120F1795889471FD120F179588947D
:1016C00072FD120F1795889473FD120F1795889469
:1016D00074FD120F1795889475FD120F1795889455
:1016E00076FD120F1795889477FD120F1795889441
:1016F000622F7111612F8D0D162F002C8BB800C039
:1017000017FF3BB921816627889400C000C0002CD8
:101710003BB92111290F00C0002C8BB800C016FF67
:101720003BB908F42FEF9195889400C000C0002CBD
:101730003BB9F0FC620F00C0002C8BB800C015FF55
:101740003BB967958894F1FC620F00C000C0002C83
:101750003BB96795889400C0002C8BB800C014FF7B
:101760003BB9F2FC620F6795889400C000C0002C62
:101770003BB9F3FC620F00C0002C8BB800C013FF14
:101780003BB967958894F4FC620F00C000C0002C40
:101790003BB96795889400C0002C8BB800C012FF3D
:1017A0003BB9F5FC620F6795889400C000C0002C1F
:1017B0003BB9F6FC620F00C0002C8BB800C011FFD3
:1017C0003BB967958894F7FC620F00C000C0002CFD
:1017D0003BB96795889400C0002C8BB800C010FFFF
:1017E0003BB9122FF110162F9B0D00C000C0002C2A
:1017F0003BB900C000C0002C8BB800C017FF3BB93C
:1018000022816627889400C000C0002C3BB92111BA
:10181000290D00C0002C8BB800C016FF3BB908F49E
:101820002FEFE40FF51F00C000C0002C3BB9E0FC17
:10183000620F00C0002C8BB800C015FF3BB9679544
:101840008894E1FC620F00C000C0002C3BB9679592
:10185000889400C0002C8BB800C014FF3BB9E2FC98
:10186000620F6795889400C000C0002C3BB9E3FC70
:10187000620F00C0002C8BB800C013FF3BB9679506
:101880008894E4FC620F00C000C0002C3BB967954F
:10189000889400C0002C8BB800C012FF3BB9E5FC57
:1018A000620F6795889400C000C0002C3BB9E6FC2D
:1018B000620F00C0002C8BB800C011FF3BB96795C8
:1018C0008894E7FC620F00C000C0002C3BB967950C
:1018D000889400C0002C8BB800C010FF3BB9122FB9
:1018E000E110162F919400C000C0002C3BB99A0C57
:1018F00000C000C08BB800C017FF3BB9208166272D
:10190000889400C000C0002C3BB92111280F00C0F2
:10191000002C8BB800C016FF3BB908F42FEF81955F
:10192000889400C000C0002C3BB970FD620F00C05D
:10193000002C8BB800C015FF3BB96795889471FDEA
:10194000620F00C000C0002C3BB96795889400C0AE
:10195000002C8BB800C014FF3BB972FD620F679575
:10196000889400C000C0002C3BB973FD620F00C01A
:10197000002C8BB800C013FF3BB96795889474FDA9
:10198000620F00C000C0002C3BB96795889400C06E
:10199000002C8BB800C012FF3BB975FD620F679534
:1019A000889400C000C0002C3BB976FD620F00C0D7
:1019B000002C8BB800C011FF3BB96795889477FD68
:1019C000620F00C000C0002C3BB96795889400C02E
:1019D000002C8BB800C010FF3BB9122F7111162FCD
:1019E0008D0D00C000C0002C3BB9119709F086CEC8
:1019F0004A815B8120EE31E0DA010E94B422DC01F1
:101A0000CB01F4E0B695A79597958795FA95D1F710
:101A100030E020E0B901EAE94E9F040E611D5E9FAF
:101A2000600D711D1124650F711D860F971FA11D7B
:101A3000B11D893E43E09407A105B10508F434C007
:101A4000885E9340A109B10942E0B695A7959795A4
:101A500087954A95D1F747E0849F080E211D949FF2
:101A6000200D311D1124290F311D6091B80270E045
:101A7000860F971F820F931F4091BB025091BC02AB
:101A80006091BD027091BE02292F3327420F531F70
:101A9000611D711D4093BB025093BC026093BD0257
:101AA0007093BE028093B80278940E940A07F201F4
:101AB000708B6787DF91CF911F910F91FF90EF900F
:101AC000DF90CF90BF90AF909F908F907F905F906E
:101AD0004F90089580E991E00895579A08956F9284
:101AE0007F928F92CF92DF92EF92FF920F931F938C
:101AF000CF93DF93CDB7DEB762970FB6F894DEBF12
:101B00000FBECDBF6C017A013801822EDC011C961C
:101B10002C91CA0157FF04C088279927841B950B75
:101B20007A8369839C838B839E838D836D867E8677
:101B30008F86213049F5CE0101960E94CC0A83E0C0
:101B4000888B1A8A198AF7FE02C08DEF888BD6011E
:101B5000ED91FC910484F585E02DBE016F5F7F4F10
:101B6000C601099562960FB6F894DEBF0FBECDBFD1
:101B7000DF91CF911F910F91FF90EF90DF90CF9069
:101B80008F907F906F9008951C861B861A86198609
:101B900018861F82D4CFEF92FF920F931F93CF939B
:101BA000DF93CDB7DEB762970FB6F894DEBF0FBEF6
:101BB000CDBF7C01DC011C968C917A8369835C83A8
:101BC0004B835E834D830D871E872F878130F9F409
:101BD000CE0101960E94CC0A188A1A8A198AD70166
:101BE000ED91FC910484F585E02DBE016F5F7F4F80
:101BF000C701099562960FB6F894DEBF0FBECDBF40
:101C0000DF91CF911F910F91FF90EF9008951C8667
:101C10001B861A86198618861F82DECFE2E0F3E063
:101C2000108211821282109201030C94BA09E2E030
:101C3000F3E080910C01808380910E01818380917B
:101C40000A01828381E0809301030C94BA090F9307
:101C50001F930E94AE090091B4021091B502209129
:101C6000B6023091B702061717072807390720F484
:101C700080910803811104C080910703882359F1E2
:101C8000109207030E94AE0900910601109107010E
:101C90002091080130910901DC01CB01800F911FD7
:101CA000A21FB31F8093B4029093B502A093B60213
:101CB000B093B70280910103882331F010920103A1
:101CC0001F910F910C940E0E81E0809301031F91E0
:101CD0000F910C94170E1F910F9108950F931F935E
:101CE000CF930E94AE090091A8021091A902209101
:101CF000AA023091AB02061717072807390720F40C
:101D000080910D03811104C080910903882339F16A
:101D100010920903C091F90281E0C827C093F9022B
:101D20000E94AE090091060110910701209108015F
:101D300030910901DC01CB01800F911FA21FB31F5D
:101D40008093A8029093A902A093AA02B093AB0239
:101D50006C2F8DE0CF911F910F910C94A005CF9126
:101D60001F910F910895CF92DF92EF92FF920F9300
:101D70001F93CF93DF93EC01F0E0E0E010E060E030
:101D800070E0CB01DE01AE0FBF1F2C91222309F1C1
:101D90002D3211F4319611E0DE01AE0FBF1F0C9110
:101DA00020ED200F2A3038F5AAE0B0E09B01AC010D
:101DB0000E94D120C02E000FDD08EE08FF086C0D38
:101DC0007D1D8E1D9F1D60537109810991093196FA
:101DD000D9CF112339F090958095709561957F4FFB
:101DE0008F4F9F4FDF91CF911F910F91FF90EF90F9
:101DF000DF90CF9008956FEF7FEFCB01F3CFFC0121
:101E000030E020E08AE09191992399F040ED490F6C
:101E10004A3068F4829FA001839F500D11249A01DB
:101E2000290F311D97FD3A9520533109ECCF2FEF43
:101E30003FEFC901089590E080E00895FC01858599
:101E4000968508950F931F93CF93DF9300D01F9231
:101E5000CDB7DEB7AB0119821A821B82DC01ED918E
:101E6000FC910190F081E02D00E010E020E0BE0147
:101E70006F5F7F4F09950F900F900F90DF91CF917B
:101E80001F910F910895FC0101900020E9F731970F
:101E9000AF01481B590BE0911405F0911505028024
:101EA000F381E02DBC0184E195E009948EEE91E090
:101EB0000C94430FCF93DF930E94A201EC010E9488
:101EC000560F8C0F9D1FDF91CF91089588E690E00B
:101ED0000C945A0FCF93DF930E94C301EC010E9430
:101EE000560F8C0F9D1FDF91CF9108958F929F9277
:101EF000AF92BF920F931F93CF93DF93CDB7DEB70F
:101F0000A1970FB6F894DEBF0FBECDBF19A2423025
:101F100008F44AE08E010F5D1F4F842E912CB12CE6
:101F2000A12CA50194010E946D22E62FB901CA01DE
:101F3000EA30F4F4E05DD801EE938D01232B242BDD
:101F4000252B79F790E080E0109719F0CD010E94E1
:101F5000430FA1960FB6F894DEBF0FBECDBFDF9141
:101F6000CF911F910F91BF90AF909F908F90089548
:101F7000E95CE1CF0C94430FCF93DF930E94430FB2
:101F8000EC010E94560F8C0F9D1FDF91CF91089599
:101F9000CF92DF92EF92FF92CF93DF9397FF19C01A
:101FA0006B017C018DE20E94C301EC01662777275B
:101FB000CB016C197D098E099F094AE00E94760FBA
:101FC0008C0F9D1FDF91CF91FF90EF90DF90CF900E
:101FD00008954AE0DF91CF91FF90EF90DF90CF908E
:101FE0000C94760FBC0190E080E04AE00C94760FF0
:101FF0004F925F926F927F928F929F92AF92BF9219
:10200000CF92DF92EF92FF920F931F93CF936B01CA
:102010007C01742EAC019B010E943822882399F028
:1020200081EF91E0CF911F910F91FF90EF90DF90A2
:10203000CF90BF90AF909F908F907F906F905F9068
:102040004F900C94430F46015701E894B7F82FEFD7
:102050003FEF4FE75FE7C501B4010E9438228111CD
:102060000DC02FEF3FEF4FE75FE7C501B4010E94BE
:10207000AA1F18161CF485EF91E0D4CF2FEF3FEF85
:102080004FE75FE4C701B6010E94332218161CF423
:1020900089EF91E0C7CF2FEF3FEF4FE75FECC7012C
:1020A000B6010E94AA1F87FDF3CF20E030E0A9010E
:1020B000C701B6010E94AA1F10E000E087FF08C018
:1020C0008DE20E94C3018C01F7FAF094F7F8F094C6
:1020D000C0E060E070E080E09FE37C1641F020E02B
:1020E00030E040E251E40E948B21CF5FF6CFA701A0
:1020F00096010E941F212B013C010E9404224B01EA
:102100005C014AE00E94760F7C01E00EF11ECC23B8
:1021100099F1C501B4010E94AF1F9B01AC01C3013D
:10212000B2010E941E214B015C018EE20E94C3019C
:10213000E80EF91EC15000F120E030E040E251E429
:10214000C501B4010E9410202B013C010E94042211
:102150004B01CB010E94F20FE80EF91EB40190E092
:1021600080E00E94AF1F9B01AC01C301B2010E943D
:102170001E214B015C01DECFC701CF911F910F9152
:10218000FF90EF90DF90CF90BF90AF909F908F9097
:102190007F906F905F904F900895682F70E090E06F
:1021A00080E04AE00C94760FCF93DF930E94CD102D
:1021B000EC010E94560F8C0F9D1FDF91CF91089567
:1021C000BF92CF92DF92EF92FF920F931F93CF9324
:1021D000DF9300D000D000D01F92CDB7DEB780E0F3
:1021E0000E940A0987E00E942F07109297048093AB
:1021F00096048730E1F588E994E00E9420020E946D
:102200008704B82E88E994E00E9420020E94870487
:10221000C82E88E994E00E942002182F86FF3EC055
:102220008F710E9487040CE015FD00E0080F88E91B
:1022300094E00E9420020E948704D82E88E994E04E
:102240000E9420020E948704E82E88E994E00E9400
:10225000200210E087FD14E68F770E948704F82E95
:1022600088E994E00E9420020E948704180F2B2D19
:102270003C2D402F5D2DB701812F90E027960FB6A2
:10228000F894DEBF0FBECDBFDF91CF911F910F91AC
:10229000FF90EF90DF90CF90BF9008958F730E94D2
:1022A0008704082FC4CFCF93DF93EB010E940A0964
:1022B00081E00E942F07109297048093960488E98A
:1022C00094E00E942002888381E0DF91CF910895FD
:1022D000EF92FF921F93CF93DF931F92CDB7DEB79C
:1022E0007C01162FBE016F5F7F4F8EE00E9453115D
:1022F000811108C080E00F90DF91CF911F91FF9076
:10230000EF90089581E08093A40488E68093A6046A
:102310001092A5041092A704113089F587E090E08F
:102320000E94CE01F70180810E947D0490E00E940E
:10233000CE01898185608983F70181810E947D04B6
:1023400090E00E94CE01F70182810E947D0490E01E
:102350000E94CE01F70184810E947D0490E00E94DA
:10236000CE0181E00E94E2088111C4CF69818EE034
:102370000E94F0088111BECF812F8770BCCF8BE007
:1023800090E00E94CE0189818660D5CF8FE4809352
:10239000040170E060E088E00E94670670E060E0A1
:1023A00089E00C94670682E580930401809305011F
:1023B0006FEF70E089E00E94670670E060E088E0FF
:1023C0000C94670687E480930401809305016FEF06
:1023D00070E088E00E94670670E060E089E00C949D
:1023E00067060F931F930E94AE090091B0021091EF
:1023F000B1022091B2023091B302061717072807E5
:10240000390708F05EC080910C03882309F459C095
:10241000809105018F3419F0823509F04AC09091FE
:1024200004019F3409F582E580930501809304013E
:102430000E94AE0900910601109107012091080148
:1024400030910901DC01CB01800F911FA21FB31F46
:102450008093B0029093B102A093B202B093B30202
:102460001F910F910C94D311823519F5923549F5CE
:1024700087E480930501809304010E94AE090091D6
:102480000601109107012091080130910901DC013A
:10249000CB01800F911FA21FB31F8093B0029093B6
:1024A000B102A093B202B093B3021F910F910C94AA
:1024B000E211873431F480910401877F873409F475
:1024C000B2CF1F910F910895CF92DF92EF92FF92BA
:1024D000CF930E94AE09C090AC02D090AD02E090C4
:1024E000AE02F090AF02C616D706E806F90620F451
:1024F00080910B03811104C080910A03882391F11C
:1025000080910501823571F5C0910101C0FF1FC0A6
:10251000C0900601D0900701E0900801F0900901F9
:10252000C1FF72C08FE4809304010E94AE09C60E01
:10253000D71EE81EF91EC092AC02D092AD02E09206
:10254000AE02F092AF020E94C61110920A038C2FC5
:1025500090E09595879595958795009709F467C0C4
:10256000809301010E94AE09C090AC02D090AD02F0
:10257000E090AE02F090AF02C616D706E806F90664
:1025800020F480910B03811104C080910A038823F9
:10259000A9F180910501873489F5C09100019C2F34
:1025A0009270C0FF46C09923F9F08FE48093040134
:1025B0000E94AE09C0900601D0900701E09008018A
:1025C000F0900901DC01CB018C0D9D1DAE1DBF1DDE
:1025D0008093AC029093AD02A093AE02B093AF0291
:1025E0000E94C61110920A038C2F90E09595879552
:1025F000959587950097E1F180930001CF91FF9029
:10260000EF90DF90CF900895809304010E94AE096F
:10261000C60ED71EE81EF91EC092AC02D092AD02C3
:10262000E092AE02F092AF020E94D3118ECF87E704
:1026300097CF9923C9F2809304010E94AE09C090FC
:102640000601D0900701E0900801F0900901DC013B
:10265000CB018C0D9D1DAE1DBF1D8093AC029093D0
:10266000AD02A093AE02B093AF020E94E211BACFC6
:102670008BEBC2CF85ED8093BC00809110059091CB
:102680001105A0911205B09113050796A11DB11D6A
:1026900023E0B695A795979587952A95D1F7209130
:1026A000BC0024FD03C010920E0508954091100552
:1026B000509111056091120570911305452B462B21
:1026C000472B69F30097A105B10541F025E32A9551
:1026D000F1F700000197A109B109E1CF80910F0541
:1026E0000C940A06EF92FF920F931F93CF93DF9300
:1026F000EC018B0188E2FB0111928A95E9F761E018
:102700008E810E942B0660E08E810E94A00588EEDB
:1027100093E00E94FF0661E08E810E94A00568851B
:102720008E810E942B0688E290E00E94FF06E881DD
:10273000F9810088F189E02D26E030E04AE050E0A0
:1027400060E0CE0109956E317105810591056CF44B
:10275000982F872F762F66276061CB01DF91CF916D
:102760001F910F91FF90EF900895E881F981008803
:10277000F189E02D26E030E04AE050E061E0CE0152
:1027800009957801F8E2EF0EF11C623371058105BD
:10279000910534F4982F872F762F66276161DDCF5E
:1027A000E881F9810088F189E02D26E030E04AE0F7
:1027B00050E060E0CE010995683171058105910511
:1027C00034F4982F872F762F66276261C6CFE88171
:1027D000F9810088F189E02D26E030E04AE050E000
:1027E00061E0CE0109956B3071058105910534F4E6
:1027F000982F872F762F66276361AFCF21E069324C
:102800007105810591050CF420E0F80121938F01F9
:10281000EE16FF0629F6E881F9810088F189E02D9E
:1028200026E030E04AE050E060E0CE0109956831F2
:1028300071058105910534F4982F872F762F66272F
:1028400064618BCF70E060E088CFFC018081918172
:102850000C94EB200E9401211F920F920FB60F9251
:1028600011242F933F934F935F936F937F938F9395
:102870009F93AF93BF93EF93FF938091B900887FAD
:10288000803609F44AC0F0F5883209F4A7C018F57B
:10289000803109F49BC0B8F4882309F4F9C088306A
:1028A00009F494C0FF91EF91BF91AF919F918F91E7
:1028B0007F916F915F914F913F912F910F900FBE3C
:1028C0000F901F901895883109F488C0803251F715
:1028D0008093EC0414C0803409F49DC040F480332C
:1028E000B9F38833F9F68093EC0485ECB0C08035F9
:1028F00009F485C0883509F496C0883499F60E9499
:102900003A13D0CF883909F48CC038F5883729F0CC
:1029100050F4883611F0803729F683E080930E0555
:102920001092910457C0883809F47BC0803919F09F
:10293000803809F0B7CF80919104803208F071C0DF
:10294000E091910481E08E0F809391048091BB000F
:10295000F0E0EF58FB4F80833DC0803B39F0E0F45E
:10296000803A09F479C0883A09F09CCF84E08093DA
:102970000E051092700410926F04E0919204F09191
:102980009304099580916F0481110FC081E08093B9
:102990006F0410924F0409C0803C09F4A6CF883C14
:1029A00009F4A3CF883B09F07DCFE091700481E06A
:1029B0008E0F80937004F0E0E15BFB4F8081809389
:1029C000BB009091700480916F0429C08091E9044C
:1029D0008093BB0085EC8093BC0064CF9091EB04A6
:1029E0008091EA04981758F5E091EB0481E08E0F8E
:1029F0008093EB04F0E0E853FB4F8081E9CFE09156
:102A0000EB0481E08E0F8093EB048091BB00F0E03B
:102A1000E853FB4F80839091EB048091EA04981770
:102A2000C8F285E8D8CFE091EB0481E08E0F809367
:102A3000EB048091BB00F0E0E853FB4F8083809172
:102A4000ED0481115CCF81E08093E80484EA8093F7
:102A5000BC0010920E0526CF85EC8093BC0010922E
:102A60000E0580919104803230F4E0919104F0E001
:102A7000EF58FB4F10826091910470E0E091940454
:102A8000F091950481E794E00995109291040ACFA2
:102A90001092EC0434CF1F920F920FB60F921124B4
:102AA0002F933F934F935F936F937F938F939F9356
:102AB000AF93BF93EF93FF9384E195E00E94CD0421
:102AC000FF91EF91BF91AF919F918F917F916F9106
:102AD0005F914F913F912F910F900FBE0F901F90DC
:102AE00018951F920F920FB60F9211242F938F9368
:102AF0009F93EF93FF93E0912405F091250580814A
:102B0000E0912A05F0912B0582FD1BC090818091F8
:102B10002D058F5F8F7320912E05821741F0E09174
:102B20002D05F0E0EC5EFA4F958F80932D05FF9117
:102B3000EF919F918F912F910F900FBE0F901F904B
:102B400018958081F4CF1F920F920FB60F92112427
:102B50002F933F938F939F93AF93BF938091BB022B
:102B60009091BC02A091BD02B091BE023091BA0218
:102B700023E0230F2D3758F50196A11DB11D209399
:102B8000BA028093BB029093BC02A093BD02B093A3
:102B9000BE028091BF029091C002A091C102B0918B
:102BA000C2020196A11DB11D8093BF029093C00285
:102BB000A093C102B093C202BF91AF919F918F9138
:102BC0003F912F910F900FBE0F901F90189526E800
:102BD000230F0296A11DB11DD2CFE8E9F4E01382C4
:102BE000128288EE93E0A0E0B0E084839583A68310
:102BF000B78380EE91E0918380830895EDEBF5E05B
:102C00008FEF808312821182148613868FEF9FEFDD
:102C1000DC0187839087A187B2870895E4E1F5E01E
:102C20001382128288EE93E0A0E0B0E08483958363
:102C3000A683B7838CE491E09183808385EC90E058
:102C40009587848784EC90E09787868780EC90E076
:102C5000918B808B81EC90E0938B828B82EC90E067
:102C6000958B848B86EC90E0978B868B118E128EE1
:102C7000138E148E0895CF93DF9390E080E00E942E
:102C8000EB2090E09093060380930503CAEED2E018
:102C900084E191E09983888380E291EAA7E0B0E043
:102CA0008A839B83AC83BD838FEF9FEF9F838E834B
:102CB000188689878A8762E070E0CE010E946A04E4
:102CC00080E391E099838883DF91CF9108950E94FA
:102CD000ED150E94FE150E940E160C943B16CF9324
:102CE000DF93CDB7DEB7C355D1090FB6F894DEBF79
:102CF0000FBECDBF0E94C40661E08DE00E942B068E
:102D000061E089E00E942B0661E088E00E942B06CA
:102D1000E0912405F091250512E01083E091200553
:102D2000F09121051082E0912205F09123058FECAE
:102D3000808310922C05E0912805F091290586E00A
:102D40008083E0912605F091270580818061808352
:102D5000E0912605F0912705808188608083E091CD
:102D60002605F0912705808180688083E091260503
:102D7000F091270580818F7D8083109297041092B7
:102D800096041092A5041092A7040E94EC050E94DC
:102D9000E1010E94D90160E08EE00E94F0080E94EB
:102DA000E01029833A834B835C838F838FE18D838B
:102DB0001E8362E0CE0101960E94681161E0CE019F
:102DC00001960E94681163961FAE63971986BE0133
:102DD000675F7F4F8FE00E9453116985862F837054
:102DE00021F06C7F8FE00E94F00863968FAD6397AF
:102DF000882379F0BE016E5A7F4F8EE00E945311F6
:102E0000882339F063966FAD63976F778EE00E94E9
:102E1000F0088091D602811145C01092C80210922C
:102E2000C7028FEF8093CB028093CC028093CD02B8
:102E30008093CE028093CF028093D00281E0809372
:102E4000D1021092D3021092D2021092CA021092B2
:102E5000C9028091B7059091B805892B31F485ECB2
:102E600092E09093B8058093B705E091C302F0918A
:102E7000C402309721F085EC92E09583848385EC41
:102E800092E09093C4028093C3021092D5021092F4
:102E9000D4028EE691E09093C6028093C50281E051
:102EA0008093D602E091C502F091C6020480F581BC
:102EB000E02D85EC92E0099582E093E09093C802C2
:102EC0008093C70281E090E09093D3028093D20276
:102ED000E091C502F091C6020284F385E02D85ECF5
:102EE00092E00995009701F19C0150E040E060E418
:102EF00072E48FE090E00E948F228091C005909153
:102F0000C105A091C205B091C30582179307A4071C
:102F1000B50710F4DA01C9018093C0059093C1058B
:102F2000A093C205B093C3058EE18093BD051092B6
:102F3000020310920303109204030E94BA0981EA6B
:102F400090E00E945A0F0E94AE090091DE0210919B
:102F5000DF022091E0023091E102061717072807EF
:102F60003907D0F5809117038823B1F130E020E0D4
:102F700042EE52E066EE72E08AEE92E00E94B90202
:102F80006091E6027091E7028091E8029091E90277
:102F900042E00E94F80F8DEF91E00E94BA0F60911D
:102FA000E2027091E3028091E4029091E50242E036
:102FB0000E94F80F83E092E00E94BC0F0E94AE09CD
:102FC00068577C4E8F4F9F4F6093DE027093DF02F5
:102FD0008093E0029093E1020E94E01029873A87F3
:102FE0004B875C876D877E878F873111B1C00E94C8
:102FF000E0102DA33EA34FA358A769A77AA78BA7DC
:103000002111CAC030E020E042EE52E066EE72E0EC
:103010008AEE92E00E94B9026091E6027091E702A6
:103020008091E8029091E9020E94FD217A836983F0
:103030006091E2027091E3028091E4029091E502D6
:103040000E94FD216B830E94E0102CA73DA74EA794
:103050005FA768AB79AB8AAB4C830E94E0102BABC7
:103060003CAB4DAB5EAB6FAB78AF89AF3D830E949D
:10307000E0102AAF3BAF4CAF5DAF6EAF7FAF219694
:103080008FAF21978E830E94E01022962FAF229758
:1030900023963FAF239724964FAF249725965FAF93
:1030A000259726966FAF269727967FAF2797289666
:1030B0008FAF28977F830E94E01029962FAF299722
:1030C0002A963FAF2A972B964FAF2B972C965FAF40
:1030D0002C972D966FAF2D972E967FAF2E972F960C
:1030E0008FAF2F976887E0900503F0900603870164
:1030F0000F5F1F4FCE0101966C0199E0E90EF11CA4
:1031000061961FAF0EAF6197D601BD906D01CE01E4
:10311000815B9F4F0E942514B81621F06B2DC801CA
:103120000E94F3200F5F1F4FE016F10649F76091F0
:10313000050370910603685F7F4F709306036093E9
:10314000050390E080E00E94F3200E941C0924C047
:103150000E94E010288B398B4A8B5B8B6C8B7D8BAC
:103160008E8B3F3009F443CF0E94E0102F8B388FB5
:10317000498F5A8F6B8F7C8F8D8F3E3109F437CFFB
:103180000E94E0102E8F3F8F48A359A36AA37BA310
:103190008CA33D3209F42BCF0E94270E0E946E0EA5
:1031A0000E9464120E94F11162961FAE62970E9403
:1031B000AE0960934A0470934B0480934C0490933F
:1031C0004D0484E195E00E94C1047C01892BE1F16A
:1031D00084E195E00E949F040E940621182F6296C8
:1031E0008FAF629741E050E0BE016F5A7F4F8CE293
:1031F00094E00E940E211F3709F588E092E00E94BA
:10320000BA0F81E092E00E94BA0F88E092E00E943B
:10321000BA0F8CE294E0FC0101900020E9F7CF01A5
:103220008D52944059F0FC01E55DFB4F20812F3712
:1032300029F41082865D9B4FDC011C9262968FAD53
:1032400062970E94C301BDCF62968FAD62978D30A9
:1032500009F05FC28FEE91E00E94BA0F0CE214E019
:1032600068014EE1B42EF60101900020E9F7CF018C
:103270008D52944098012C52344028173907C0F5DC
:10328000D801AD908D018A2D0A2C000C990B0E945B
:10329000A11F892B81F480912A04E0912B04BE9E0A
:1032A000F0011124E45EFC4FE80FF11DA0828F5F56
:1032B00080932A04D8CFF80132978081082E000C21
:1032C000990B0E94A11F892B71F680912B04E0912C
:1032D0002A04B89E90011124245E3C4FE20FF32F84
:1032E000F11D10828F5F80932B0410922A04BBCFB4
:1032F0002CE1822E23E0922E3EE0A32E33E0B32E6B
:10330000840164961FAE6497312C512C44244A9456
:10331000F8012080622C022C000C7708F0E36F1A71
:1033200071089CE7C92E91E0D92ED6018C91281204
:1033300074C0F801918111968C91119798136DC00A
:1033400001900020E9F73197E01BF10B12968C9168
:103350001297082E000C990BE817F90709F05DC0C9
:1033600013968C91D5018C93EFEF1196EC93F4E0CA
:10337000CF0ED11C2CEDC21621E0D206B1F653942B
:10338000025E1F4F8FEFA81AB80A99E05912C0CFFA
:10339000ECE2F4E08EE1DF011D928A95E9F780917D
:1033A0004A0490914B04A0914C04B0914D0440917B
:1033B00018035091190360911A0370911B03841B29
:1033C000950BA60BB70B853F9140A105B10508F4FD
:1033D0006FC110921703E0910E03E150E73108F03E
:1033E00065C1F0E0EA50F64E0C94AE221F1B561B4E
:1033F000561B561B491B561B561B151DD91B561B0E
:10340000FC1C9A1C561B561B561BBF1D8B1E0E1EEA
:10341000361E561B561B561B841F80910E03FAE066
:103420006F16710430F1823109F0A1CF2DE2221222
:103430009ECFD80111968C91082E000C990BC09745
:103440000A9708F094CF91E0591248C0C8010E9431
:10345000B30E9B01AC01215030484F4F5F4F2F3FBF
:103460003F4F4105510508F45BC0332009F47FCF7D
:103470005BC08830E1F480910F03843009F05DC0B7
:103480002DE0F5012083C8010E94B30E9B01AB0122
:10349000BC014115510581E06807710508F067CF4F
:1034A00050931103209312034092130360CF823193
:1034B00051F2833109F05BCF8DE080930F03C80197
:1034C0000E94FF0E8F3F910509F0A4F5D5011196DA
:1034D0008C931197EFEF1296EC9349CFB2E05B1209
:1034E000C4CFC8010E94B30E9B01AC0121503048EB
:1034F0004F4F5F4F2F3F3F4F4105510508F0B5CF6C
:103500007093110360931203332009F493C0409227
:103510001303F1E06496FFAF64973324339427CF0D
:1035200070930F036093100364962FAD649722236A
:10353000A1F3EDCF40920E031ACF8F3009F017CFD1
:10354000F2E05F1215C0C8010E94FF0E9C012150DD
:1035500031092C30310548F040920E03809103016F
:10356000809310034092160302CF80930301F6CF9D
:1035700023E0521213C0C8010E94FF0E9C0121508B
:1035800031092F31310538F040920E03809102014C
:1035900080931103E7CF80930201F8CF84E05812A3
:1035A00010C0C8010E94FF0E8436910538F0409289
:1035B0000E038091F80280931203D4CF8093F80217
:1035C000F8CF95E0591210C0C8010E94FF0E883153
:1035D000910538F040920E038091F7028093130317
:1035E000C1CF8093F702F8CFA6E05A1210C0C801ED
:1035F0000E94FF0E8C33910538F040920E038091AB
:10360000F60280931403AECF8093F602F8CFB7E0B2
:103610005B12A8CFC8010E94FF0E8C33910538F0D1
:1036200040920E038091F502809315039BCF809307
:10363000F502F8CFE1E06496EFAF649798CE809101
:103640000F03833091F08430D1F0823079F580918E
:1036500010038F3F59F510920D0381E08093F9021A
:1036600061E08DE00E94A00523C0809110038F3F90
:10367000E9F410920D031092F90260E0F2CF80910C
:1036800010038F3F99F481E080930D030E946E0E2A
:103690000FC080910F03863009F45AC008F046C06D
:1036A000833009F46DC0843009F476C00E94660F3F
:1036B00080914A0490914B04A0914C04B0914D0428
:1036C0008093180390931903A0931A03B0931B03DC
:1036D0008AE09401215E3F4FF40111922E173F07BB
:1036E000E1F781509EE1890E911C8111F2CF109279
:1036F0000E0310920F0310921003109211031092F8
:1037000012031092130310921403109215031092D7
:10371000160380E090E0892B09F415CC0E945C052B
:10372000882309F410CC0E9400000DCC8730E1F012
:103730008E3009F0BBCF809110038F3F09F0B6CFD8
:1037400010920B0381E080930C030E94F111B0CF23
:10375000809110038F3F09F0A9CF10920C031092B3
:103760000B030E94E211A4CF809110038F3F09F058
:103770009DCF10920C0310920B030E94D31198CF8F
:10378000809110038F3F09F091CF10920C0310929B
:103790000B030E94C6118CCF809110038F3F09F05C
:1037A00085CF10920C0381E080930B030E9464127A
:1037B0007FCF80910F038A3009F078CF809110037A
:1037C0008F3F09F073CF84E391E00E94A2018091C2
:1037D0000D03882309F454C08BE291E00E945A0F34
:1037E0008DE191E00E94A20190910B0380910C0366
:1037F000992309F452C081116FC083E191E00E94C6
:10380000A20180910501823509F044C08FE091E06A
:103810000E945A0F80910803882309F465C088E14B
:1038200092E00E94BA0F80910E0190910F010E94C8
:10383000F20F80E20E94C30180910C0190910D0172
:103840000E94F20F80E20E94C30180910A019091D0
:103850000B010E94F20F89E20E946A0F89E392E055
:103860000E94BA0F609106017091070180910801D2
:10387000909109014AE00E94760F0E94560F18CFDE
:103880008091F902882319F088E291E0A7CF84E2C1
:1038900091E0A4CF89E091E0BBCF81111DC0809160
:1038A0000501823551F480910401823519F485E0D7
:1038B00091E0AECF81E091E0ABCF873451F48091BD
:1038C0000401873419F48BEF90E0A2CF87EF90E0EA
:1038D0009FCF83EF90E09CCF882309F49BCF8CE0AF
:1038E00092E00E94BC0F96CF89E292E00E94BA0F4C
:1038F000809101038823C9F080E392E00E94BA0F0F
:1039000080910E0190910F010E94F20F80E092E0F1
:103910000E94BA0F80910C0190910D010E94F20F4C
:1039200080E092E00E94BA0F90CF85E392E00E947F
:10393000BC0F94CF80910F038F3F09F0B7CE8EE973
:1039400092E00E945A0F85E992E00E945A0F8BE89C
:1039500092E00E945A0F8FE792E00E945A0F83E78D
:1039600092E00E945A0F89E692E00E945A0F8FE57A
:1039700092E00E945A0F83E592E00E945A0F83E47E
:1039800092E00E945A0F8EE292E00E945A0F80E26B
:1039900092E00E945A0F81E192E00E945A0F88ED56
:1039A00091E00E945A0F89EC91E00E945A0F8AEB35
:1039B00091E00E945A0F8AEA91E00E945A0F80E932
:1039C00091E00E945A0F85E791E00E945A0F8CE621
:1039D00091E00E945A0F82E691E00E945A0F86E51C
:1039E00091E00E945A0F8CE491E00E945A0F85E406
:1039F00091E00E945A0F41CF80910F038F3F09F051
:103A000055CE8BE391E00E94A20181E00E94CD108F
:103A10008EE20E94C30180E00E94CD108EE20E94DF
:103A2000C30181E00E94D41043CE80910F03843003
:103A300009F474C08F3009F039CE809116038F3F9E
:103A400009F034CE809110038093FF02809111031E
:103A50008093FE02809112038093000380911303F0
:103A60008093FC02809114038093FB0280911503E4
:103A70008093FA0281E08093A40488E68093A604F0
:103A80001092A5041092A70490E080E00E94CE015D
:103A90008091FA020E947D04682F88E994E00E94D8
:103AA00067028091FB020E947D04682F88E994E000
:103AB0000E9467028091FC020E947D04682F88E9C1
:103AC00094E00E9467028091FD02811101C081E0B3
:103AD0000E947D04682F88E994E00E94670280912B
:103AE000FE020E947D04682F88E994E00E9467022C
:103AF0008091FF020E947D04682F88E994E00E9473
:103B00006702809100030E947D04682F88E994E099
:103B10000E94670281E00E94E208CACD80911003F2
:103B20008D3009F0C3CD809113038F3F09F0BECDD6
:103B300080910B03882319F081E080930A03809120
:103B40000D03882319F081E0809309038091080315
:103B5000882319F081E080930703809111039091ED
:103B60001203982789279827B0E0A0E080930601E8
:103B700090930701A0930801B093090199CD80911A
:103B80000F038F3061F0813109F090CD80911003E7
:103B90008F3F09F08BCD81E08093170389CD809111
:103BA00010038F3F09F082CD0E94E0102093FA02AB
:103BB0003093FB024093FC025093FD026093FE029F
:103BC0007093FF0280930003872F0E94CD108FE235
:103BD0000E94C3018091FE020E94CD108FE20E94DC
:103BE000C301809100030E94CD1080E20E94C301B6
:103BF0008091FC020E94CD108AE30E94C301809153
:103C0000FB020E94CD108AE30E94C3018091FA0258
:103C10000E94CD108AE00E946A0F4ACD8091130362
:103C20008F3F09F043CDC0900F03D0901003DC24E8
:103C3000CD24DC240D2C000CEE08FF08809111032C
:103C400090911203982789279827092E000CAA0B18
:103C5000BB0BC80ED91EEA1EFB1E83E592E00E9434
:103C6000BA0FC701B6010E94C80F07CE80910F039B
:103C70008330E1F168F4823009F018CD80911003AF
:103C80008F3F09F013CD109208030E94170E10CD3C
:103C90008430B1F18D3009F009CD809113038F3F4D
:103CA00009F004CD20911003822F90E090930F0132
:103CB00080930E0190911103492F50E050930D0114
:103CC00040930C0180911203482F50E050930B0158
:103CD00040930A012093030390930203809304030B
:103CE00081E0809301030E94BA09E2CC8091100325
:103CF0008F3F09F0DBCC109208030E940E0ED8CC47
:103D0000809110038F3F09F0D1CC81E080930803AC
:103D10000E94270ECDCC80910F03843109F444C05A
:103D2000853109F0C3CC80911003863109F0BECCF7
:103D3000809111038F3F09F0B9CC712C612C08EEF2
:103D400013E087E0A82EB12C809105039091060323
:103D5000B5010E945922761617060CF0BAC0C62C7F
:103D6000D12CDA82C982CE0101960E9425148E15CB
:103D70001F0439F034F0CE0101960E942514E82E7C
:103D8000F12CDA82C982CE0101960E942514801797
:103D9000110634F4CE0101960E942514082F10E07C
:103DA000F7E06F0E7394D0CF809110038F3F09F02E
:103DB0007DCC01E010E08091050390910603081787
:103DC00019070CF07BC01A830983CE0101960E946B
:103DD0002514E82EC801019661969FAF8EAF6197BA
:103DE000CE01815B9F4F0E942514F82E8CE592E056
:103DF0000E94BA0FB701FF0C880B990B0E94C80FE5
:103E000083E692E00E94BA0F88E692E00E94BA0F21
:103E1000C80102969A838983CE0101960E942514D7
:103E20000E94CD1083E092E00E94BC0F83E792E0F5
:103E30000E94BA0FC80106969A838983CE01019623
:103E40000E9425140E94CD108FE20E94C301C80178
:103E500007969A838983CE0101960E9425140E94B9
:103E6000CD108FE20E94C301C80105969A83898311
:103E7000CE0101960E9425140E94D41088E792E09A
:103E80000E94BA0FC80103969A838983CE010196D6
:103E90000E9425140E94CD108AE30E94C301C8012C
:103EA00004969A838983CE0101960E9425140E946C
:103EB000D4100E94560F085F1F4F7DCF90E080E026
:103EC0000E94EB208111F4CB8DE792E00E94BC0FA1
:103ED000EFCB8AE892E00E94BA0FB701FF0C880B83
:103EE000990B0E94C80F83E692E00E94BC0F89E9FB
:103EF00092E00E94BA0FB801110F880B990B0E9433
:103F0000C80F83E692E0E2CF80910F03843109F07D
:103F1000CDCB809110038F3F09F0C8CB60E0C70183
:103F20000E94F3202FEFE21AF20AE11484E0F8066F
:103F3000A9F71092060310920503BACBF8940C94DB
:103F4000CF2291110C947D20803219F08950855038
:103F5000C8F708950E94EC1F08F481E00895E894E2
:103F600009C097FB3EF490958095709561957F4FC1
:103F70008F4F9F4F9923A9F0F92F96E9BB2793956F
:103F8000F695879577956795B795F111F8CFFAF47F
:103F9000BB0F11F460FF1BC06F5F7F4F8F4F9F4FB0
:103FA00016C0882311F096E911C0772321F09EE80E
:103FB000872F762F05C0662371F096E8862F70E074
:103FC00060E02AF09A95660F771F881FDAF7880F4E
:103FD0009695879597F90895990F0008550FAA0BA4
:103FE000E0E8FEEF16161706E807F907C0F012160C
:103FF0001306E407F50798F0621B730B840B950B0F
:1040000039F40A2661F0232B242B252B21F4089563
:104010000A2609F4A140A6958FEF811D811D089500
:104020000E9423200C9497200E94892038F00E943F
:10403000902020F0952311F00C9480200C94862081
:1040400011240C94CB200E94A82070F3959FC1F3FB
:10405000950F50E0551F629FF001729FBB27F00D36
:10406000B11D639FAA27F00DB11DAA1F649F66278B
:10407000B00DA11D661F829F2227B00DA11D621FDA
:10408000739FB00DA11D621F839FA00D611D221F94
:10409000749F3327A00D611D231F849F600D211D78
:1040A000822F762F6A2F11249F5750409AF0F1F0FB
:1040B00088234AF0EE0FFF1FBB1F661F771F881F64
:1040C00091505040A9F79E3F510580F00C948020FC
:1040D0000C94CB205F3FE4F3983ED4F3869577951C
:1040E0006795B795F795E7959F5FC1F7FE2B880F0A
:1040F000911D9695879597F9089599278827089592
:1041000097F99F6780E870E060E008959FEF80EC8A
:10411000089500240A94161617061806090608952D
:1041200000240A9412161306140605060895092E93
:104130000394000C11F4882352F0BB0F40F4BF2B02
:1041400011F460FF04C06F5F7F4F8F4F9F4F089542
:1041500057FD9058440F551F59F05F3F71F0479538
:10416000880F97FB991F61F09F3F79F0879508951D
:10417000121613061406551FF2CF4695F1DF08C03C
:10418000161617061806991FF1CF86957105610559
:1041900008940895E894BB2766277727CB0197F901
:1041A00008950E94DC20A59F900DB49F900DA49FC0
:1041B000800D911D11240895A29FB001B39FC001ED
:1041C000A39F700D811D1124911DB29F700D811D43
:1041D0001124911D0895F999FECF92BD81BDF89AE1
:1041E000992780B50895262FF999FECF1FBA92BD61
:1041F00081BD20BD0FB6F894FA9AF99A0FBE0196C8
:10420000089581E090E0F8940C94CF2291110895E4
:1042100081568A5108F4805285580895FB01DC01CB
:104220000D900020E9F711974150504028F001907F
:1042300000200D92C9F708951C9208955058BB278D
:10424000AA270E9436210C9497200E94892038F0DA
:104250000E94902020F039F49F3F19F426F40C942A
:1042600086200EF4E095E7FB0C948020E92F0E9455
:10427000A82058F3BA17620773078407950720F040
:1042800079F4A6F50C94CA200EF4E0950B2EBA2F03
:10429000A02D0B01B90190010C01CA01A00111244C
:1042A000FF27591B99F0593F50F4503E68F11A16F8
:1042B000F040A22F232F342F4427585FF3CF469589
:1042C00037952795A795F0405395C9F77EF41F16AB
:1042D000BA0B620B730B840BBAF09150A1F0FF0F75
:1042E000BB1F661F771F881FC2F70EC0BA0F621F61
:1042F000731F841F48F4879577956795B795F79551
:104300009E3F08F0B0CF9395880F08F09927EE0FE5
:104310009795879508950E949F210C9497200E945D
:10432000902058F00E94892040F029F45F3F29F046
:104330000C94802051110C94CB200C9486200E9468
:10434000A82068F39923B1F3552391F3951B550BDE
:10435000BB27AA2762177307840738F09F5F5F4F58
:10436000220F331F441FAA1FA9F335D00E2E3AF097
:10437000E0E832D091505040E695001CCAF72BD0AF
:10438000FE2F29D0660F771F881FBB1F2617370700
:104390004807AB07B0E809F0BB0B802DBF01FF2732
:1043A00093585F4F3AF09E3F510578F00C9480206F
:1043B0000C94CB205F3FE4F3983ED4F38695779539
:1043C0006795B795F7959F5FC9F7880F911D9695EB
:1043D000879597F90895E1E0660F771F881FBB1F47
:1043E000621773078407BA0720F0621B730B840BF4
:1043F000BA0BEE1F88F7E09508950E940422689496
:10440000B1110C94CB2008950E94B02088F09F57E2
:1044100098F0B92F9927B751B0F0E1F0660F771FE8
:10442000881F991F1AF0BA95C9F714C0B13091F0DE
:104430000E94CA20B1E008950C94CA20672F782FFB
:104440008827B85F39F0B93FCCF3869577956795A3
:10445000B395D9F73EF490958095709561957F4F0F
:104460008F4F9F4F08950E94EC1F08F48FEF08951F
:104470000E94EC1F880B990B0895DB018F939F938B
:104480000E94D120BF91AF91A29F800D911DA39F4B
:10449000900DB29F900D11240895991B79E004C0EE
:1044A000991F961708F0961B881F7A95C9F7809573
:1044B000089597FB072E16F4009407D077FD09D0D6
:1044C0000E94BB2207FC05D03EF4909581959F4F3A
:1044D0000895709561957F4F0895A1E21A2EAA1B49
:1044E000BB1BFD010DC0AA1FBB1FEE1FFF1FA217A4
:1044F000B307E407F50720F0A21BB30BE40BF50BA1
:10450000661F771F881F991F1A9469F76095709529
:10451000809590959B01AC01BD01CF010895052EBA
:1045200097FB1EF400940E94A62257FD07D00E941C
:104530006D2207FC03D04EF40C94A62250954095B2
:10454000309521953F4F4F4F5F4F0895909580953F
:10455000709561957F4F8F4F9F4F0895EE0FFF1F0E
:104560000590F491E02D09940E94DC20B7FF089596
:10457000821B930B0895AA1BBB1B51E107C0AA1F06
:10458000BB1FA617B70710F0A61BB70B881F991FF4
:104590005A95A9F780959095BC01CD010895F8949E
:0245A000FFCF4B
:1045A200BB7701014F52F4010000FF00FF00FF0042
:1045B200000000006A045F040404E1032A142A14C0
:1045C200DD03D9035209C9032A1465030000000060
:1045D2006A045F040404E103B9029602DD03D9030D
:1045E2005209C9037213650300000000EF0470054D
:1045F20090043C05C1049F04B304000000002A1487
:104602002A142A14220F1E0F1B0F00000000CB0DCC
:104612006F0D6D0D220F1E0F6A0D090B4431030140
:104622004F4E02024F460303424C05044C4503051C
:1046320047520506524503075345030853540609DA
:104642004C45040A5645070B4845040C574F040DC8
:10465200414C090E5449040F4355071054450411A7
:1046620041440312524703134849071448490415A9
:104672004C4F0316434C0517454F03FF0000000043
:1046820067023A029D0510023302200211020D0A4E
:10469200006E616E00696E66006F766600202A43C6
:1046A2002C200020524825001B5B4400414C5445FD
:1046B200524E4154494E47003E2052474220424CFE
:1046C200494E4B494E472028003E20524742200087
:1046D2004F4E2028004F4646003E20424C494E4B4A
:1046E20020494E54455256414C2053455420544F74
:1046F2003A2000455155414C533A200054656D70A3
:104702003A2000202A43200048756D696469747953
:104712003A20004F6E3A200041743A20002A4E4F50
:104722002044415441205945540048494748455383
:10473200542054454D503A20004C4F574553542075
:0847420054454D503A200000DF
:00000001FF
