:100000000C9481010C94A9010C94A9010C94A901F0
:100010000C94A9010C94A9010C94A9010C94A901B8
:100020000C94A9010C94A9010C94A9010C94A901A8
:100030000C94A9010C94A9010C94A9010C94A90198
:100040000C94C6220C94A9010C9494220C946E2258
:100050000C94A9010C94A9010C94A9010C94A90178
:100060000C944F210C94A9012A494E56414C494405
:1000700020434F4D4D414E44000000000800020156
:10008000000003040700000000000000003E576568
:100090006C636F6D6520746F2041726475696E6F5B
:1000A00020436F6D6D616E64204C696E6520496EF2
:1000B0007465727072657465722C20656E746572F9
:1000C000202748454C502720666F72206C69737456
:1000D000206F6620636F6D6D616E6473210A00206E
:1000E0002A5041434B4554205245434549564544C7
:1000F000004F4646004F464600475245454E004F8A
:1001000046460052454400475245454E005245443C
:1001100000424C494E4B494E4720003E204C45443E
:1001200020004F4646004F4E00424C494E4B494E30
:1001300047003E20443133200056657273696F6E6C
:100140003A20002D3E48454C50002D3E5645525316
:10015000494F4E002D3E52474220424C494E4B00E3
:100160002D3E524742204F4646002D3E52474220E8
:100170004F4E002D3E524742203C7265643E203C6B
:10018000677265656E3E203C626C75653E002D3E73
:10019000414444203C6E756D626572313E203C6E78
:1001A000756D626572323E002D3E54454D502048BB
:1001B000494748204C4F57002D3E54454D5020484C
:1001C0004953544F5259002D3E43555252454E54B7
:1001D0002054454D50002D3E5345542054494D4523
:1001E000203C6D6F6E74683E203C6461793E203C1B
:1001F000796561723E203C686F75723E203C6D6986
:100200006E7574653E203C7365636F6E643E002DB1
:100210003E43555252454E542054494D45002D3EC3
:10022000535441545553204C454453002D3E53459F
:100230005420424C494E4B203C6E756D6265723EB7
:10024000002D3E4C454420414C5445524E415445AE
:10025000002D3E4C454420424C494E4B002D3E4C17
:100260004544204F4646002D3E4C454420524544CF
:10027000002D3E4C454420475245454E002D3E44FE
:10028000313320424C494E4B002D3E443133204FF8
:100290004646002D3E443133204F4E0054686520C1
:1002A000617661696C61626C6520636F6D6D616E12
:1002B0006473206172653A2000000000002300266C
:1002C00000290000000000250028002B000000008D
:1002D00000240027002A00010204081020408001A9
:1002E000020408102001020408102004040404047D
:1002F00004040402020202020203030303030300D4
:100300002F2411241FBECFEFD8E0DEBFCDBF13E0F6
:10031000A0E0B1E0EEEDF4E602C005900D92A2354A
:10032000B107D9F727E0A2E5B3E001C01D92A132E1
:10033000B207E1F711E0C1E8D1E004C02197FE0166
:100340000E944C32C038D107C9F70E9447240C9450
:10035000452F0C9400000F931F93CF93DF938C01D4
:10036000D0E0C0E0F801EC0FFD1F6491662371F04E
:10037000E0916B06F0916C060190F081E02D8BE628
:1003800096E00995892B11F02196ECCFCE01DF91F3
:10039000CF911F910F910895E091EF05F091F00535
:1003A0000190F081E02D682F8FEE95E009948CBDCF
:1003B0009DBD08958091E405811145C01092D60538
:1003C0001092D5058FEF8093D9058093DA0580933D
:1003D000DB058093DC058093DD058093DE0581E0FD
:1003E0008093DF051092E1051092E0051092D80588
:1003F0001092D70580910E0790910F07892B31F449
:1004000083ED95E090930F0780930E07E091C5056B
:10041000F091C605309721F083ED95E095838483B4
:1004200083ED95E09093C6058093C5051092E30592
:100430001092E20580E392E09093D4058093D30577
:1004400081E08093E405E091D305F091D405048028
:10045000F581E02D83ED95E0099587EC95E090938B
:10046000D6058093D50584E090E09093E1058093D4
:10047000E005E091D305F091D4050284F385E02DE9
:1004800083ED95E00995009701F19C0150E040E073
:1004900060E472E48FE090E00E947830809117076A
:1004A00090911807A0911907B0911A078217930726
:1004B000A407B50710F4DA01C901809317079093D8
:1004C0001807A0931907B0931A0783ED95E00895D4
:1004D0008FE692E09093C4058093C3050895089534
:1004E00087E792E09093C2058093C105089508952F
:1004F00020917405260F3327331F21323105ECF488
:1005000020916506FC0190E080E0243069F082E0F3
:100510000895A09174052191AC014C5A5A4FA40F33
:10052000B52FB11D2C930196861798F38091740511
:10053000680F6093740580E0089581E00895089540
:10054000E091EE058091ED05E81730F4F0E0EB5B0B
:10055000F94F808190E008958FEF9FEF089590917B
:10056000EE058091ED052FEF3FEF981748F4E92F46
:10057000F0E0EB5BF94F208130E09F5F9093EE0558
:10058000C90108958091ED059091EE05891B990BA5
:100590000895CF92DF92EF92FF920F931F93CF9324
:1005A000DF937C01CB018A012091FB05222389F096
:1005B000EB016B01C40ED51ECC15DD0569F0699108
:1005C000D701ED91FC910190F081E02DC7010995D3
:1005D000F3CF642F0E947802C801DF91CF911F9161
:1005E0000F91FF90EF90DF90CF900895CF93DF931E
:1005F0001F92CDB7DEB769832091FB052223F9F066
:100600002091FE05203258F021E030E0FC013383D8
:10061000228390E080E00F90DF91CF910895809148
:10062000FC05E82FF0E0E150FA4F998190838F5F4D
:100630008093FC058093FE0581E090E0ECCF61E0C3
:10064000CE0101960E947802F7CFFC0120812EBDD9
:100650009B012150310941F051810DB407FEFDCFBE
:100660004EB55EBD4193F5CF61507109860F971F5E
:100670000DB407FEFDCF2EB5FC0120830895E09157
:100680004405F0914505808190914305892B808335
:100690000895E0914405F0914505908180914305CE
:1006A00080958923808308958EBD00000DB407FED8
:1006B000FDCF8EB50895AF92BF92CF92DF92EF92A9
:1006C000FF920F931F93CF93DF93CDB7DEB7289799
:1006D0000FB6F894DEBF0FBECDBF8C017B016A015F
:1006E0008091B9058333E1F45801A40EB51EA0161C
:1006F000B10609F46FC00E94490380EF0E945403C1
:10070000812F0E945403802F0E9454030F5F1F4FBC
:10071000F70181917F010E9454030E943F03E7CFBC
:100720005B01A40EB51E8433C1F40E9449031983F2
:100730000A838D2D80688B83CC8264E070E0CE01CB
:1007400001960E942503AE14BF0409F441C0F701CD
:1007500081917F010E945403F6CF0E9449030F3F0D
:10076000110509F028F419820A8384E08B830CC0F8
:1007700017FD17C019820A8333E0169507953A953D
:10078000E1F7007E0C600B8386E0C816D104A0F56B
:10079000F701DE011496EA15FB0599F081918D931E
:1007A000FACFC80126E0969587952A95E1F7807ED5
:1007B00019830A830115104C10F48461D7CF8C6122
:1007C000D5CFB6016D5F7F4FCE0101960E94250304
:1007D0000E943F03C60128960FB6F894DEBF0FBEF5
:1007E000CDBFDF91CF911F910F91FF90EF90DF90E0
:1007F000CF90BF90AF90089563E070E0CE01019676
:100800000E942503F70181917F010E945403AE14D9
:10081000BF04C1F7DDCFCF93DF931F92CDB7DEB713
:10082000898341E050E0BE016F5F7F4F90E080E040
:100830000E945B030F90DF91CF91089590E020918B
:10084000B905233339F40C96982F990F990F990F06
:1008500080E008954896F8CFDA01E091EC05F0E0E9
:10086000FE2FEE27E60FF71F90E0982F8827A901AB
:10087000BD018E0F9F1F0C945B03CF93DF9300D0BD
:10088000CDB7DEB779836A8322E030E0AE014F5FF7
:100890005F4F64E070E00E942C040F900F90DF9196
:1008A000CF910895CF93DF931F92CDB7DEB72091FC
:1008B000EC0530E0322F2227260F371F90E0982FCB
:1008C0008827498341E050E0BE016F5F7F4F820F70
:1008D000931F0E945B030F90DF91CF910895CF92F9
:1008E000DF92EF92FF920F931F93CF93DF93EC0170
:1008F0007A016901E881F9810190F081E02D099583
:10090000E881F9810084F185E02D9801A601B70105
:10091000CE01DF91CF911F910F91FF90EF90DF906B
:10092000CF9009946F927F928F929F92AF92BF92D5
:10093000CF92DF92EF92FF920F931F93CF93DF93AB
:10094000CDB7DEB7AC970FB6F894DEBF0FBECDBF04
:10095000DC011696ED91FC91319609F48BC059019A
:100960003A016B018C01FE0131964F0188E2DF01F3
:100970001D928A95E9F7D801ED91FC910488F589DB
:10098000E02DB401C80109957C01892B09F05CC0F8
:100990001AA619A61CA61BA6D801ED91FC910688E3
:1009A000F789E02D9E01255D3F4FAE01475D5F4F0A
:1009B000B401C80109957C01892B09F045C0A11437
:1009C000B10439F088E2F401D50101900D928A95C5
:1009D000E1F7C114D10409F189A59AA521E030E01D
:1009E00097FF02C02FEF3FEF9F77829FB001839F59
:1009F000700D929F700D1124072E000C880B990B1F
:100A00000E94582F20E030E040E251E40E946A3119
:100A1000F601608371838283938361147104A1F072
:100A20006BA57CA5072E000C880B990B0E94582FF4
:100A300020E030E040E251E40E946A31D3016D933E
:100A40007D938D939C931397C701AC960FB6F89442
:100A5000DEBF0FBECDBFDF91CF911F910F91FF90F1
:100A6000EF90DF90CF90BF90AF909F908F907F904E
:100A70006F90089587E1E82EF12CE6CF8F929F9238
:100A8000AF92BF92CF92DF92EF92FF920F931F939C
:100A9000CF93DF93EC018B016A017901E881F98141
:100AA0000288F389E02D0995B82EB801685F7F4F61
:100AB000E881F9810288F389E02DCE010995982E0D
:100AC000B801605F7F4FE881F9810288F389E02DEA
:100AD000CE010995A82EB801685E7F4FE881F981A3
:100AE0000288F389E02DCE010995882EB801605E59
:100AF0007F4FE881F9810288F389E02DCE010995C5
:100B00009B2D990D9A0D980D891319C09A2D882D3A
:100B1000F601918380839B2D892DF701918380833A
:100B200090E080E0DF91CF911F910F91FF90EF90C7
:100B3000DF90CF90BF90AF909F908F90089585E108
:100B400090E0F0CF47E050E080E0FB012191BF0151
:100B5000042E01C0220F0A94EAF7820F4150510976
:100B6000A0F70895FC01828590E00895FC0181853D
:100B700090E00895CF92DF92EF92FF920F931F9330
:100B8000CF93DF93EC017A016901E881F98101904B
:100B9000F081E02D0995E881F9810480F581E02D4F
:100BA0009801A601B701CE01DF91CF911F910F915E
:100BB000FF90EF90DF90CF900994CF92DF92EF9269
:100BC000FF920F931F93CF93DF93CDB7DEB7289794
:100BD0000FB6F894DEBF0FBECDBFDC011696ED91C7
:100BE000FC91319609F440C08A017B0119821A8276
:100BF0001B821C821D821E821F821886DC01ED91E1
:100C0000FC910084F185E02DAE014B5F5F4FBE018A
:100C10006F5F7F4F09956C01892BB1F4E114F104EA
:100C200041F069817A818B819C810E94DC31F701DE
:100C300060830115110541F06D817E818F8198855A
:100C40000E94DC31D8016C93C60128960FB6F89447
:100C5000DEBF0FBECDBFDF91CF911F910F91FF90EF
:100C6000EF90DF90CF90089587E1C82ED12CECCF84
:100C7000262F2D7F29F4FC01608790E080E0089505
:100C800088E190E00895DC0117967C936E931697A7
:100C9000FB01E952FD4FE4911996EC9319976551C8
:100CA0007D4FFB0164911A966C9308956AE00E944F
:100CB0002C32292F30E1839FC0011124822B08950B
:100CC000982F92959F708F702AE0929F800D11242B
:100CD00008950895CF93DF931F92CDB7DEB7698350
:100CE000DC01ED91FC910280F381E02D41E050E0C8
:100CF000BE016F5F7F4F09950F90DF91CF910895EF
:100D0000DF92EF92FF920F931F93CF93DF9300D068
:100D1000CDB7DEB7FB01DC0157961C921E925697A9
:100D20002281211109C02381211106C024812111B2
:100D300003C02581222369F14115510551F17A0142
:100D40008F01FC01D08C80E591E00E94D701A801C1
:100D50004E5F5F4F24E030E06CE070E08D2D0E942C
:100D60002C04F982EA8222E030E0AE014F5F5F4F4F
:100D700060E170E08D2D0E942C0481E090E00F90E6
:100D80000F90DF91CF911F910F91FF90EF90DF9027
:100D9000089580E0F3CFFC01818D928D0895FC01D0
:100DA000848595850895FC01538D448D252F30E071
:100DB000842F90E0821B930B541710F0CF96089568
:100DC00001970895FC01918D828D981761F0A28D95
:100DD000AE0FBF2FB11D5D968C91928D9F5F9F735B
:100DE000928F90E008958FEF9FEF0895FC01918D11
:100DF000828D981731F0828DE80FF11D858D90E07E
:100E000008958FEF9FEF0895FC01918D228D892F1A
:100E100090E0805C9F4F821B91098F739927089502
:100E2000FC01A48DA80FB92FB11DA35ABF4F2C915F
:100E3000848D90E001968F739927848FA689B78956
:100E40002C93A089B1898C91837080648C93938D4D
:100E5000848D981306C00288F389E02D80818F7DF0
:100E600080830895EF92FF920F931F93CF93DF93A8
:100E7000EC0181E0888F9B8D8C8D98131AC0E889D6
:100E8000F989808185FF15C09FB7F894EE89FF89A5
:100E90006083E889F98980818370806480839FBF43
:100EA00081E090E0DF91CF911F910F91FF90EF9043
:100EB0000895F62E0B8D10E00F5F1F4F0F73112753
:100EC000E02E8C8D8E110CC00FB607FCFACFE8898E
:100ED000F989808185FFF5CFCE010E941007F1CFFF
:100EE000EB8DEC0FFD2FF11DE35AFF4FF0829FB702
:100EF000F8940B8FEA89FB8980818062CFCFCF93F2
:100F0000DF93EC01888D8823B9F0AA89BB89E88931
:100F1000F9898C9185FD03C0808186FD0DC00FB6D7
:100F200007FCF7CF8C9185FFF2CF808185FFEDCF55
:100F3000CE010E941007E9CFDF91CF9108958BE693
:100F400096E00E94040721E0892B09F420E0822F1B
:100F5000089580E090E0892B29F00E949F0781117D
:100F60000C9400000895DC01ED91FC910190F0815A
:100F7000E02D0994AF92BF92CF92DF92EF92FF9251
:100F80000F931F93CF93DF936C017B018B01040FB1
:100F9000151FEB015E01AE18BF08C017D10759F04D
:100FA0006991D601ED91FC910190F081E02DC6018F
:100FB0000995892B79F7C501DF91CF911F910F9189
:100FC000FF90EF90DF90CF90BF90AF90089508957D
:100FD00090E0FC01E758FF4F2491FC01E952FD4FDE
:100FE0003491FC01E551FD4FE491EE23C9F0222339
:100FF00039F0233001F1A8F4213019F1223029F120
:10100000F0E0EE0FFF1FED53FD4FA591B4918FB7A8
:10101000F894EC91611126C030953E233C938FBF2C
:1010200008952730A9F02830C9F0243049F780917D
:1010300080008F7D03C0809180008F778093800037
:10104000DFCF84B58F7784BDDBCF84B58F7DFBCFB9
:101050008091B0008F778093B000D2CF8091B000A4
:101060008F7DF9CF3E2BDACF1092650681E0809319
:10107000440610923F0661E082E10E94E80761E0C9
:1010800083E10E94E807E9EBF0E080818E7F8083B6
:1010900080818D7F808388E48093B80085E480938D
:1010A000BC000895CF93DF9391E09093530588237C
:1010B000B9F0C091B800D091BA008091BC008A7B91
:1010C0008093BC0060E082E10E94E80760E083E179
:1010D0000E94E8070E943408D093BA00C093B80079
:1010E000DF91CF910895CF93DF9390E0FC01E95217
:1010F000FD4F249185519D4FFC0184918823C9F0B7
:1011000090E0880F991FFC01E353FD4FA591B49126
:10111000FC01ED53FD4FC591D49161110DC09FB7F6
:10112000F8948C91209582238C938881282328839E
:101130009FBFDF91CF910895623051F49FB7F8942B
:101140003C91822F809583238C93E8812E2BEFCFC7
:101150008FB7F894EC912E2B2C938FBFEACF1F936F
:10116000CF93DF93182FEB0161E00E947308209763
:1011700039F460E0812FDF91CF911F910C94E80743
:10118000CF3FD10511F461E0F5CFE12FF0E0E75852
:10119000FF4FE491E33031F140F4E130B1F0E2305F
:1011A000E1F0C038D1057CF7E4CFE73029F1E83031
:1011B00059F1E430B1F78091800080628093800023
:1011C000D0938B00C0938A0004C084B5806884BD2E
:1011D000C7BDDF91CF911F91089584B5806284BD12
:1011E000C8BDF7CF80918000806880938000D09345
:1011F0008900C0938800EDCF8091B0008068809313
:10120000B000C093B300E5CF8091B00080628093BE
:10121000B000C093B400DDCF789484B5826084BD03
:1012200084B5816084BD85B5826085BD85B58160EA
:1012300085BDEEE6F0E0808181608083E1E8F0E04A
:101240001082808182608083808181608083E0E879
:10125000F0E0808181608083E1EBF0E08081846058
:101260008083E0EBF0E0808181608083EAE7F0E05A
:1012700080818460808380818260808380818160BE
:1012800080838081806880831092C10008958130BE
:10129000910539F0880F991F880F991F05970197BD
:1012A000F1F708953FB7F89480916F039091700320
:1012B000A0917103B091720326B5A89B05C02F3F82
:1012C00019F00196A11DB11D3FBFBA2FA92F982F6C
:1012D0008827BC01CD01620F711D811D911D42E067
:1012E000660F771F881F991F4A95D1F70895CF92EF
:1012F000DF92EF92FF920F931F93CF93C82F81320B
:1013000008F096C00E9452096B017C01809165062D
:10131000811169C081E080936506809344069FEF48
:1013200090934306109242069C0F9093410680933F
:10133000400680914006806D8093400680913F0674
:10134000813009F077C010923F060E9452096B016C
:101350007C01809140068093BB008091670690914C
:101360006806A0916906B0916A06892B8A2B8B2B9F
:10137000A1F00E9452090091670610916806209121
:10138000690630916A066C197D098E099F09061756
:1013900017072807390708F447C08091BC0083FD70
:1013A000D8CF85EC8093BC000E9452096B017C0170
:1013B00080916506813009F43FC0809142068C1708
:1013C00010F4C0914206AFE1B6E0E5E4F6E080E05B
:1013D0008C1354C08C2FCF911F910F91FF90EF90E1
:1013E000DF90CF9008958091670690916806A09154
:1013F0006906B0916A06892B8A2B8B2B09F486CF5C
:101400000E945209009167061091680620916906B2
:1014100030916A066C197D098E099F090617170716
:101420002807390708F072CF809166060E9452089B
:10143000C0E0D0CF85EEB6CF809167069091680668
:10144000A0916906B0916A06892B8A2B8B2B09F42F
:10145000AFCF0E9452090091670610916806209153
:10146000690630916A066C197D098E099F09061775
:1014700017072807390708F09BCFD6CF9D91919386
:101480008F5FA6CF8F929F92AF92BF92CF92DF9243
:10149000EF92FF920F931F93CF93DF93613208F087
:1014A000D1C0142FD62FC82F0E9452096B017C0186
:1014B0008091650681116BC082E080936506109370
:1014C00044068FEF8093430610924206D093410664
:1014D000AFEFB5E0EFE1F6E080E0D8138BC01092FB
:1014E000400680914006CC0FC82BC09340068091E7
:1014F0003F06813009F082C010923F060E945209D7
:101500006B017C01809140068093BB00809167064F
:1015100090916806A0916906B0916A06892B8A2B82
:101520008B2BA1F00E94520900916706109168066A
:101530002091690630916A066C197D098E099F0910
:10154000061717072807390708F442C08091BC0026
:1015500083FDD8CF85EC8093BC000E9452096B01BB
:101560007C0180916506823009F44AC0809143066F
:101570008F3F09F469C080914306803209F466C048
:1015800080914306803309F463C084E026C08091D3
:10159000670690916806A0916906B0916A06892B4A
:1015A0008A2B8B2B09F484CF0E9452098090670606
:1015B00090906806A0906906B0906A066C197D0943
:1015C0008E099F0986169706A806B90608F070CFFF
:1015D000809166060E94520885E0DF91CF911F91AD
:1015E0000F91FF90EF90DF90CF90BF90AF909F90C2
:1015F0008F9008959D9191938F5F6FCF85EEABCFC4
:101600008091670690916806A0916906B0916A067C
:10161000892B8A2B8B2B09F4A4CF0E9452090091AD
:101620006706109168062091690630916A066C1968
:101630007D098E099F09061717072807390708F043
:1016400090CFC6CF81E0C9CF80E0C7CF82E0C5CFC1
:1016500083E0C3CF482F6091FE058091FD050E9475
:10166000420A1092FC051092FE051092FB050895A7
:10167000CF93C62F91E09093FB0598E69093FD05DC
:101680001092FC051092FE05682F8FEE95E00E94E7
:10169000F6026C2F8FEE95E00E94F60281E0CF916A
:1016A0000C942A0B91E09093FB0598E69093FD052E
:1016B0001092FC051092FE05682F8FEE95E00E94B7
:1016C000F60281E00C942A0B7F928F929F92AF9248
:1016D000BF92CF92DF92EF92FF920F931F93CF931F
:1016E000DF93EC01162F7A0169010E9452094B0128
:1016F0005C01712C1111798410E000E060E070E071
:10170000CB012A813B814C815D8126173707480731
:101710005907F4F00115110561F5C7011E141F04E6
:1017200064F10E945209681979098A099B09EA85BE
:10173000F0E0EE0FFF1FE754FD4FA591B4912C91FF
:101740000F5F1F4F39852323271105C097FFD9CF7E
:101750006FEF7FEFCB01DF91CF911F910F91FF9042
:10176000EF90DF90CF90BF90AF909F908F907F9041
:1017700008951C141D04ACF6C6010E944709D1CF80
:101780008F929F92AF92BF92CF92DF92EF92FF9291
:101790004B015C010E9452096B017C010E945209BD
:1017A0006C197D098E099F09683E7340810591057A
:1017B000A8F321E0821A9108A108B10888EEC80EAA
:1017C00083E0D81EE11CF11C81149104A104B10432
:1017D00029F7FF90EF90DF90CF90BF90AF909F9050
:1017E0008F9008952FB7F89460916B0370916C03FC
:1017F00080916D0390916E032FBF08954F925F9279
:101800006F927F929F92AF92BF92CF92DF92EF92B0
:10181000FF920F931F93CF93DF9300D01F92CDB70A
:10182000DEB7D09014078091170790911807A09108
:101830001907B0911A07892B8A2B8B2BD9F00E949C
:101840005209009110071091110720911207309151
:101850001307601B710B820B930B009117071091FC
:1018600018072091190730911A076017710782072E
:101870009307C8F20E9452096093100770931107F2
:101880008093120790931307E0911F07F0912007B0
:10189000309759F040911B0750911C0760911D072C
:1018A00070911E078D2D0995D82EE0900E07F090AF
:1018B0000F074D2C512C712C612CE114F10409F40B
:1018C00059C0D7011C96CC901C9780911507909118
:1018D00016078436910510F41C961C92D701ED91E1
:1018E000FC91A280B38019821A821B82DD2079F1DB
:1018F000F701369610E000E02191222319F1928041
:10190000992001F130E050E040E02F5F3F4F4F4F12
:101910005F4FC301B2010E941C329B01AC01892DB3
:1019200090E0B0E0A0E0BC01CD016F5F7F4F8F4F32
:101930009F4F0E941C32A1E0B0E0AC0FBD1FA00F72
:10194000B11F8C930F5F1F4F03301105A9F609815A
:101950001A812B81F7014585568562817381C70104
:10196000F5010995D7011C96CC921C971496ED9021
:10197000FC90A3CF80910C0790910D078C010F5F15
:101980001F4F10930D0700930C074997B4F10E9465
:10199000F20BC0900807D0900907E0900A07F0907A
:1019A0000B079B01AC012C193D094E095F0921F47D
:1019B00021E030E040E050E088EE93E0089FB00185
:1019C000099F700D189F700D1124072E000C880BB5
:1019D000990B0E94A230309316072093150710929E
:1019E0000D0710920C070E94F20B6093080770938A
:1019F000090780930A0790930B070F900F900F90A1
:101A0000DF91CF911F910F91FF90EF90DF90CF90DA
:101A1000BF90AF909F907F906F905F904F90089590
:101A20000F931F93CF93DF93209163032F5F322F88
:101A300037703093630320FF2BC020E831FD206412
:101A4000347009F02062205FFC01EC01239600E075
:101A500011E06485662329F070E0C8010E943832E5
:101A60006F5F6187322F369F030E30E0311D1124E6
:101A7000311110C01682662311F0615061873196D2
:101A8000EC17FD0731F7DF91CF911F910F9108956A
:101A900020E0D4CF31503683EECF4F925F927F92C9
:101AA0008F929F92AF92BF92CF92DF92EF92FF926E
:101AB0000F931F93CF93DF932C01EB010E945209E8
:101AC000F20127853089621B730B6A307105B0F310
:101AD000F8948A819B81181619060CF0CDC1E88113
:101AE000F9816BB1862E689487F83BB13F773BB99B
:101AF000D9848E812D2D281B822F2E834F85042E75
:101B0000000C550BAA81BB817C85FD84EE847F5F30
:101B1000F394E3949F819884BA84AB841081C12CA0
:101B20006C2D0C2D2C2D2081112788942111280F2C
:101B300008F42FEF8195889470FD120F1795889403
:101B400071FD120F1795889472FD120F17958894E6
:101B500073FD120F1795889474FD120F17958894D2
:101B600075FD120F1795889476FD120F17958894BE
:101B700077FD120F17958894622F7111612F8D0DCB
:101B8000162F002C8BB800C017FF3BB921816627A8
:101B9000889400C000C0002C3BB92111290F00C05F
:101BA000002C8BB800C016FF3BB908F42FEF9195BD
:101BB000889400C000C0002C3BB9F0FC620F00C04C
:101BC000002C8BB800C015FF3BB967958894F1FCD9
:101BD000620F00C000C0002C3BB96795889400C01C
:101BE000002C8BB800C014FF3BB9F2FC620F679564
:101BF000889400C000C0002C3BB9F3FC620F00C009
:101C0000002C8BB800C013FF3BB967958894F4FC97
:101C1000620F00C000C0002C3BB96795889400C0DB
:101C2000002C8BB800C012FF3BB9F5FC620F679522
:101C3000889400C000C0002C3BB9F6FC620F00C0C5
:101C4000002C8BB800C011FF3BB967958894F7FC56
:101C5000620F00C000C0002C3BB96795889400C09B
:101C6000002C8BB800C010FF3BB9122FF110162FBB
:101C70009B0D00C000C0002C3BB900C000C0002C70
:101C80008BB800C017FF3BB922816627889400C03B
:101C900000C0002C3BB92111290D00C0002C8BB8CD
:101CA00000C016FF3BB908F42FEFE40FF51F00C08A
:101CB00000C0002C3BB9E0FC620F00C0002C8BB8C8
:101CC00000C015FF3BB967958894E1FC620F00C026
:101CD00000C0002C3BB96795889400C0002C8BB8DD
:101CE00000C014FF3BB9E2FC620F6795889400C006
:101CF00000C0002C3BB9E3FC620F00C0002C8BB885
:101D000000C013FF3BB967958894E4FC620F00C0E4
:101D100000C0002C3BB96795889400C0002C8BB89C
:101D200000C012FF3BB9E5FC620F6795889400C0C4
:101D300000C0002C3BB9E6FC620F00C0002C8BB841
:101D400000C011FF3BB967958894E7FC620F00C0A3
:101D500000C0002C3BB96795889400C0002C8BB85C
:101D600000C010FF3BB9122FE110162F919400C054
:101D700000C0002C3BB99A0C00C000C08BB800C05A
:101D800017FF3BB920816627889400C000C0002C53
:101D90003BB92111280F00C0002C8BB800C016FFE2
:101DA0003BB908F42FEF8195889400C000C0002C47
:101DB0003BB970FD620F00C0002C8BB800C015FF4E
:101DC0003BB96795889471FD620F00C000C0002C7C
:101DD0003BB96795889400C0002C8BB800C014FFF5
:101DE0003BB972FD620F6795889400C000C0002C5B
:101DF0003BB973FD620F00C0002C8BB800C013FF0D
:101E00003BB96795889474FD620F00C000C0002C38
:101E10003BB96795889400C0002C8BB800C012FFB6
:101E20003BB975FD620F6795889400C000C0002C17
:101E30003BB976FD620F00C0002C8BB800C011FFCB
:101E40003BB96795889477FD620F00C000C0002CF5
:101E50003BB96795889400C0002C8BB800C010FF78
:101E60003BB9122F7111162F8D0D00C000C0002C30
:101E70003BB9119709F086CE4A815B8120EE31E0B3
:101E8000DA010E945232DC01CB01F4E0B695A7954D
:101E900097958795FA95D1F730E020E0B901EAE906
:101EA0004E9F040E611D5E9F600D711D1124650F14
:101EB000711D860F971FA11DB11D893E43E0940738
:101EC000A105B10508F434C0885E9340A109B109A9
:101ED00042E0B695A795979587954A95D1F747E043
:101EE000849F080E211D949F200D311D1124290F60
:101EF000311D6091620370E0860F971F820F931F60
:101F000040916B0350916C0360916D0370916E036F
:101F1000292F3327420F531F611D711D40936B03FF
:101F200050936C0360936D0370936E038093620310
:101F300078940E945209F201708B6787DF91CF91EC
:101F40001F910F91FF90EF90DF90CF90BF90AF90D7
:101F50009F908F907F905F904F90089580E991E0DF
:101F60000895579A08956F927F928F92CF92DF9241
:101F7000EF92FF920F931F93CF93DF93CDB7DEB70E
:101F800062970FB6F894DEBF0FBECDBF6C017A0129
:101F90003801822EDC011C962C91CA0157FF04C027
:101FA00088279927841B950B7A8369839C838B836D
:101FB0009E838D836D867E868F86213049F5CE0186
:101FC00001960E94100D83E0888B1A8A198AF7FE09
:101FD00002C08DEF888BD601ED91FC910484F585CC
:101FE000E02DBE016F5F7F4FC601099562960FB667
:101FF000F894DEBF0FBECDBFDF91CF911F910F913F
:10200000FF90EF90DF90CF908F907F906F9008952A
:102010001C861B861A86198618861F82D4CFEF92DB
:10202000FF920F931F93CF93DF93CDB7DEB76297E5
:102030000FB6F894DEBF0FBECDBF7C01DC011C964D
:102040008C917A8369835C834B835E834D830D8798
:102050001E872F878130F9F4CE0101960E94100D62
:10206000188A1A8A198AD701ED91FC910484F585A2
:10207000E02DBE016F5F7F4FC701099562960FB6D5
:10208000F894DEBF0FBECDBFDF91CF911F910F91AE
:10209000FF90EF9008951C861B861A861986188675
:1020A0001F82DECFE7ECF5E01082118212821092DF
:1020B000C2030C94FE0BE7ECF5E0809119018083DC
:1020C00080911B01818380911701828381E080933D
:1020D000C2030C94FE0B0F931F930E94F20B00910E
:1020E0005E0310915F032091600330916103061736
:1020F00017072807390720F48091DE03811104C0F7
:102100008091DD03882359F11092DD030E94F20BC8
:1021100000911301109114012091150130911601C5
:10212000DC01CB01800F911FA21FB31F80935E03C0
:1021300090935F03A0936003B09361038091C20307
:10214000882331F01092C2031F910F910C9452100A
:1021500081E08093C2031F910F910C945B101F913B
:102160000F9108950F931F93CF930E94F20B00914C
:1021700052031091530320915403309155030617D5
:1021800017072807390720F48091E303811104C061
:102190008091DF03882339F11092DF03C091BA03E5
:1021A00081E0C827C093BA030E94F20B009113018B
:1021B000109114012091150130911601DC01CB0121
:1021C000800F911FA21FB31F80935203909353035C
:1021D000A0935403B09355036C2F8DE0CF911F91C2
:1021E0000F910C94E807CF911F910F910895CF9212
:1021F000DF92EF92FF920F931F93CF93DF93EC0147
:10220000F0E0E0E010E060E070E0CB01DE01AE0F56
:10221000BF1F2C91222309F12D3211F4319611E0C8
:10222000DE01AE0FBF1F0C9120ED200F2A3038F5D4
:10223000AAE0B0E09B01AC010E949730C02E000FD5
:10224000DD08EE08FF086C0D7D1D8E1D9F1D60537F
:102250007109810991093196D9CF112339F09095EF
:102260008095709561957F4F8F4F9F4FDF91CF91F4
:102270001F910F91FF90EF90DF90CF9008956FEF37
:102280007FEFCB01F3CFFC0130E020E08AE09191B9
:10229000992399F040ED490F4A3068F4829FA001DC
:1022A000839F500D11249A01290F311D97FD3A95F6
:1022B00020533109ECCF2FEF3FEFC9010895FC0106
:1022C0008489958908952AE132E0FC0131832083D5
:1022D000FB014089518962897389FC0142835383E0
:1022E000648375830895DC01ED91FC91048CF58D78
:1022F000E02D099490E080E00895FC0185859685A5
:1023000008950F931F93CF93DF9300D01F92CDB703
:10231000DEB7AB0119821A821B82DC01ED91FC91C0
:102320000190F081E02D00E010E020E0BE016F5F41
:102330007F4F09950F900F900F90DF91CF911F91D4
:102340000F91089590E080E00895BF92CF92DF92C0
:10235000EF92FF920F931F93CF93DF9300D000D0A3
:1023600000D01F92CDB7DEB780E00E94520B87E00D
:102370000E9477091092EE058093ED058730E1F514
:102380008FEE95E00E94AF020E946006B82E8FEE9D
:1023900095E00E94AF020E946006C82E8FEE95E085
:1023A0000E94AF02182F86FF3EC08F710E94600608
:1023B0000CE015FD00E0080F8FEE95E00E94AF02E3
:1023C0000E946006D82E8FEE95E00E94AF020E9418
:1023D0006006E82E8FEE95E00E94AF0210E087FDC8
:1023E00014E68F770E946006F82E8FEE95E00E942B
:1023F000AF020E946006180F2B2D3C2D402F5D2D43
:10240000B701812F90E027960FB6F894DEBF0FBE7C
:10241000CDBFDF91CF911F910F91FF90EF90DF9093
:10242000CF90BF9008958F730E946006082FC4CF8D
:10243000CF93DF93EB010E94520B81E00E9477095A
:102440001092EE058093ED058FEE95E00E94AF02AD
:10245000888381E0DF91CF910895EF92FF921F93DF
:10246000CF93DF931F92CDB7DEB77C01162FBE014D
:102470006F5F7F4F8EE00E941812811108C080E0CC
:102480000F90DF91CF911F91FF90EF90089581E021
:102490008093FB0588E68093FD051092FC05109261
:1024A000FE05113089F587E090E00E94CC01F7012C
:1024B00080810E94560690E00E94CC01898185604F
:1024C0008983F70181810E94560690E00E94CC0129
:1024D000F70182810E94560690E00E94CC01F7012C
:1024E00084810E94560690E00E94CC0181E00E9407
:1024F0002A0B8111C4CF69818EE00E94380B8111B3
:10250000BECF812F8770BCCF8BE090E00E94CC01C2
:1025100089818660D5CF8FE48093110170E060E0FF
:1025200088E00E94AF0870E060E089E00C94AF089A
:1025300082E580931101809312016FEF70E089E0D2
:102540000E94AF0870E060E088E00C94AF0887E478
:1025500080931101809312016FEF70E088E00E9478
:10256000AF0870E060E089E00C94AF080F931F9310
:102570000E94F20B00915A0310915B0320915C03BF
:1025800030915D03061717072807390708F05EC06A
:102590008091E203882309F459C0809112018F349D
:1025A00019F0823509F04AC0909111019F3409F564
:1025B00082E580931201809311010E94F20B009139
:1025C0001301109114012091150130911601DC01C5
:1025D000CB01800F911FA21FB31F80935A039093CA
:1025E0005B03A0935C03B0935D031F910F910C9468
:1025F0009812823519F5923549F587E480931201D6
:10260000809311010E94F20B0091130110911401AB
:102610002091150130911601DC01CB01800F911F33
:10262000A21FB31F80935A0390935B03A0935C0394
:10263000B0935D031F910F910C94A712873431F46E
:1026400080911101877F873409F4B2CF1F910F91D8
:102650000895CF92DF92EF92FF92CF930E94F20BF8
:10266000C0905603D0905703E0905803F090590360
:10267000C616D706E806F90620F48091E103811119
:1026800004C08091E003882391F18091120182358A
:1026900071F5C0910101C0FF1FC0C0901301D0901F
:1026A0001401E0901501F0901601C1FF72C08FE493
:1026B000809311010E94F20BC60ED71EE81EF91E70
:1026C000C0925603D0925703E0925803F0925903F8
:1026D0000E948B121092E0038C2F90E095958795C5
:1026E00095958795009709F467C0809301010E9432
:1026F000F20BC0905603D0905703E0905803F0902F
:102700005903C616D706E806F90620F48091E103BE
:10271000811104C08091E0038823A9F18091120106
:10272000873489F5C09100019C2F9270C0FF46C08C
:102730009923F9F08FE4809311010E94F20BC0906D
:102740001301D0901401E0901501F0901601DC0106
:10275000CB018C0D9D1DAE1DBF1D80935603909324
:102760005703A0935803B09359030E948B12109201
:10277000E0038C2F90E09595879595958795009728
:10278000E1F180930001CF91FF90EF90DF90CF9027
:102790000895809311010E94F20BC60ED71EE81E09
:1027A000F91EC0925603D0925703E0925803F0925C
:1027B00059030E9498128ECF87E797CF9923C9F2C9
:1027C000809311010E94F20BC0901301D09014016C
:1027D000E0901501F0901601DC01CB018C0D9D1DE0
:1027E000AE1DBF1D8093560390935703A0935803CB
:1027F000B09359030E94A712BACF8BEBC2CF85EDDD
:102800008093BC008091670690916806A09169064C
:10281000B0916A060796A11DB11D23E0B695A79554
:10282000979587952A95D1F72091BC0024FD03C088
:102830001092650608954091670650916806609170
:10284000690670916A06452B462B472B69F3009762
:10285000A105B10541F025E32A95F1F700000197A4
:10286000A109B109E1CF809166060C945208AF929C
:10287000BF92CF92DF92EF92FF920F931F93CF936D
:10288000DF9300D000D0CDB7DEB78C016B017A01A9
:102890008091B9058333E9F45B016801C40ED51E4C
:1028A000C016D106A9F10E9449038FE00E9454038B
:1028B000812F0E945403802F0E9454030F5F1F4FEB
:1028C00080E00E945403F50181935F010E943F0361
:1028D000E7CF843369F50E94490319830A838F2D5A
:1028E0008F778B83EC8264E070E0CE0101960E94CA
:1028F0002503A70170E060E0C6010E94F630E114F4
:10290000F10421F0B701C6010E9425030E943F0394
:10291000C7010F900F900F900F90DF91CF911F91F3
:102920000F91FF90EF90DF90CF90BF90AF90089500
:102930000E9449030F3F110509F030F419820A8300
:102940001B8263E070E0D1CF17FD0BC019820A83B0
:1029500033E0169507953A95E1F7007E08600B8302
:10296000F0CFC80126E0969587952A95E1F7807EFD
:1029700019830A830115104C18F480618B83E1CF11
:102980008861FCCFFA012091EC0530E0322F22273C
:10299000260F371F90E0982F882742E050E0BF01B4
:1029A000820F931F0C943714FF920F931F93CF93B2
:1029B000DF9300D0CDB7DEB7F82EAE014F5F5F4F8B
:1029C00066E270E00E94C21409811A811027012773
:1029D0001027AE014F5F5F4F66E270E08F2D0E94BF
:1029E000C21489819A81982789279827081719077F
:1029F00049F4C8010F900F90DF91CF911F910F9173
:102A0000FF9008958C01E5CF3F924F925F926F92B5
:102A10007F928F929F92AF92BF92CF92DF92EF926E
:102A2000FF920F931F93CF93DF9300D0CDB7DEB704
:102A30005C014B01342E452EFC0166887788508C52
:102A400080E591E00E94D701AE014F5F5F4F60E2E9
:102A500070E0852D0E94C214C980DA80DC24CD2468
:102A6000DC24AE014F5F5F4F60E270E0852D0E9475
:102A7000C21489819A81982789279827C816D90670
:102A800009F077C0E52CF12C67E0569EF001112487
:102A9000E356FA4FD582C482032D142DC016D106F9
:102AA00008F48601AE014F5F5F4F64E270E0852D50
:102AB0000E94C21489819A81982789279827680ED5
:102AC000791E930137704091B905433309F053C023
:102AD00088E0E80EF11CFE2CEE24FF0CFF0CFF0C2E
:102AE000C9018E0D9F1D473309F449C0A901400F4C
:102AF000511F4130584008F442C060E078E06B015B
:102B0000C21AD30AA601B4010E945B03A8014C19A2
:102B10005D09B4016C0D7D1DC7010E945B03600E51
:102B2000711E79826A8222E030E0AE014F5F5F4F12
:102B300064E270E0852D0E942C04F5018689978956
:102B4000800F911F978B868BC8010F900F90DF919C
:102B5000CF911F910F91FF90EF90DF90CF90BF909A
:102B6000AF909F908F907F906F905F904F903F902D
:102B700008956C0176CFE0E1EE0EF11CACCFA80118
:102B8000B401CBCFCF93DF931F92CDB7DEB741E037
:102B900050E0BE016F5F7F4F0E94371489810F9014
:102BA000DF91CF91089590E080E00C94C215CF930F
:102BB000DF93C4E1D0E00E94D315882361F061E087
:102BC00070E080E090E00E94C00B2197A1F780E0C8
:102BD000DF91CF91089581E0FBCFDF92EF92FF92DA
:102BE0000F931F93CF93DF9300D0CDB7DEB760E391
:102BF00072E080E090E00E94C00BDFB6F89405EF31
:102C000012E031EEE32E32E0F32E80914605811181
:102C100025C0F8018491F7019491E82FF0E0EE0FC0
:102C2000FF1FE353FD4FA591B4918C91982321F49C
:102C300061E08AE00E94E80761E08AE00E94730890
:102C40008CB580618CBD8CB580648CBD61E08DE0FD
:102C50000E94730861E08BE00E9473088091460532
:102C60008F5F80934605DFBEF8010491E02FF0E00E
:102C7000EE0FFF1FED53FD4F859194919093450505
:102C800080934405F701E490E092430561E08AE017
:102C90000E9473080E943F0380E591E00E94D701E3
:102CA00084E38093B90580E80E940B040E94D71545
:102CB000882309F441C088E00E940B040E94D315C8
:102CC0008830D1F580E10E940B040E94D315803139
:102CD00099F580E00E940B040E94D315182F8111F2
:102CE0002BC08FE190E00E94C215833029F580E46B
:102CF0008093EC0542E06EE170E0812F0E94520467
:102D000042E06FE170E0812F0E9452041F5F143097
:102D100089F740E06EE170E0812F0E94520440E0AC
:102D20006FE170E0812F0E9452041F5F183089F715
:102D300081E08093C00564C087E38093B90580E893
:102D40000E940B040E94D7158823F9F088E00E94A6
:102D50000B040E94D3158830C1F480E10E940B045B
:102D60000E94D315182F803181F480E00E940B045B
:102D70000E94D315811109C089E390E00E94C21519
:102D8000843019F41093EC05D3CF83E38093B90515
:102D900080E80E940B040E94D715882371F180E11E
:102DA0000E940B040E94D315803139F582E10E9404
:102DB0000B040E94D315823101F580E00E940B04C0
:102DC0000E94D315811119C084E08093EC0515E5AC
:102DD0001A8341E050E0BE016E5F7F4F8BE190E0CF
:102DE0000E945B03198341E050E0BE016F5F7F4F9B
:102DF0008AE190E00E945B039BCF1092B90580E0CE
:102E00000F900F90DF91CF911F910F91FF90EF9056
:102E1000DF900895CF92DF92EF92FF92CF93DF93EE
:102E2000CDB7DEB7C254D1090FB6F894DEBF0FBEDE
:102E3000CDBFFC01428153816481758123964CAFE3
:102E40005DAF6EAF7FAF239781E023968FAF23975F
:102E50002396CCACDDACEEACFFAC2397CBAADCAABE
:102E6000EDAAFEAA4DA75EA76FA778AB88ABCDA44D
:102E7000DEA4EFA4F8A8CFA2D8A6E9A6FAA68EAB46
:102E8000CBA8DCA8EDA8FEA8C9A2DAA2EBA2FCA2FE
:102E90002AE132E03C8B2B8B9FEF9D8B9E8B9F8B8F
:102EA000188E3E872D878AA7CFA0D8A4E9A4FAA4BC
:102EB000CF86D88AE98AFA8A8CA389A19AA1ABA184
:102EC000BCA189879A87AB87BC873A8329834B83C8
:102ED0005C836D837E838091C005882309F443C0A1
:102EE00080E591E00E94D70146E050E06FE171E09B
:102EF00089E090E00E945B0344E050E0BE016D5F1A
:102F00007F4F8FE090E00E945B0344E050E0BE0101
:102F1000615F7F4F81E090E00E945B0344E050E0FE
:102F2000BE016B5E7F4F85E090E00E945B0381E015
:102F30008C8789859A85AB85BC858093BC059093E9
:102F4000BD05A093BE05B093BF05CE5BDF4F0FB6A6
:102F5000F894DEBF0FBECDBFDF91CF91FF90EF9011
:102F6000DF90CF9008950E94ED15882371F3B8CFBC
:102F70002091EC0530E0322F2227620F731F90E082
:102F8000982F8827860F971F0C94C215CF93C82FB0
:102F9000462F61E070E00E94520461E070E08C2FE7
:102FA0000E94B8178111F9CFCF9108958F929F9207
:102FB000AF92BF92CF92DF92EF92FF921F93CF9387
:102FC000DF93CDB7DEB72C970FB6F894DEBF0FBEF8
:102FD000CDBF2091B90514E0222339F16B017C01AA
:102FE00080E591E00E94D7015E0127E0A20EB11CAE
:102FF000450110E063E070E0812F0E94B817F401F2
:1030000081934F01882349F11F5F143099F710E035
:10301000F50181915F018D31D9F08831C9F08A5174
:103020008230B0F01F5F143099F7812F2C960FB6C5
:10303000F894DEBF0FBECDBFDF91CF911F91FF90FF
:10304000EF90DF90CF90BF90AF909F908F900895BA
:1030500060E170E0812F0E94C617A12EB12C8AEF8B
:1030600090E00E94470942E870E060E0812F0E94F2
:1030700052044FEF62E070E0812F0E945204B601CB
:10308000C114D10491F480911D0190911E0101960B
:103090008115F0EC9F0708F462C090931E018093A5
:1030A0001D0160911D0170911E01812F0E943D0440
:1030B00086E0E5E2F1E0DE01119601900D928A953D
:1030C000E1F7F70183818F778C8384818D838581FC
:1030D0008E83A7014E5F5F4F24E030E06CE070E02C
:1030E000812F0E942C04DB86CC8622E030E0AE01EA
:1030F000455F5F4F60E170E0812F0E942C0426E065
:1031000030E0AE014F5F5F4F66E070E0812F0E94BC
:103110002C0461E070E0812F0E94C61727E02A9DF1
:10312000C0012B9D900D11249C0123563A4F79012B
:10313000F90111821082AE01455F5F4F68E270E0D5
:10314000812F0E94C2148B859C85982789279827F8
:10315000F7019383828316821582148266CF80E002
:1031600090EC9BCF4F925F927F928F929F92AF9203
:10317000BF92CF92DF92EF92FF920F931F93CF9364
:10318000DF9300D0CDB7DEB7782E6B014A01A82EB1
:10319000B12C27E0829FC0011124FC01E356FA4FB5
:1031A0007F010081118180E591E00E94D70108151F
:1031B000190554F4872D0E94D414F70126818C013F
:1031C000021B1109118300830115110529F563E024
:1031D00070E0872D0E94B817843159F0882349F098
:1031E00001E010E08C3111F410E000E01195019540
:1031F0001109C8010F900F90DF91CF911F910F918E
:10320000FF90EF90DF90CF90BF90AF909F908F9006
:103210007F905F904F900895801691060CF4840182
:1032200087E08A9DF0018B9DF00D1124E356FA4F43
:10323000E280F380C114D10451F12701F7E05F224D
:10324000872D0E941E04840D951D2091B9052733FA
:1032500009F453C09801240D351D2130384008F47D
:103260004CC020E038E0490184189508A401B6015B
:103270000E9437142601480C591C6801C818D90847
:10328000872D0E941E04A601B2010E943714E00E91
:10329000F11E87E08A9DF0018B9DF00D1124E3560D
:1032A000FA4FF382E28220813181201B310B31837E
:1032B00020838681800F912F911D8A3F910510F404
:1032C000232BF1F487E08A9DF0018B9DF00D1124F2
:1032D000E356FA4F1682F982EA8222E030E0AE012C
:1032E0004F5F5F4F68E270E0872D0E942C0460E41E
:1032F00070E0872D0E94C6177CCFA801B601C5CF0C
:10330000868377CFCF93DF93FC01218D328D2115FA
:10331000310529F48FEF9FEFDF91CF910895EC01F4
:10332000808D4217530708F0A9010E94B2181816A1
:10333000190684F7298D3A8D281B390B3A8F298F6E
:10334000EBCF0F931F93CF93DF931F92CDB7DEB7D1
:10335000FC01218D328D232B41F48FEF9FEF0F90D5
:10336000DF91CF911F910F9108958C0141E050E0C2
:10337000BE016F5F7F4FFC01808D0E94B21818164E
:1033800019065CF7F801818D928D0197928F818FDC
:10339000898190E0E4CFCF93C82F80E591E00E942F
:1033A000D70160E170E08C2FCF910C94C617CF92BB
:1033B000DF92EF92FF920F931F93CF93DF9300D092
:1033C00000D000D0CDB7DEB78C016B017A01FC01D3
:1033D000808D843010F40E94CB198AE192E09A83A8
:1033E0008983F60182819381A481B5818B839C833B
:1033F000AD83BE83B701CE0101960E94D617F801B6
:10340000808F8430A0F4F586E486128E118E81E0E0
:1034100026960FB6F894DEBF0FBECDBFDF91CF91D9
:103420001F910F91FF90EF90DF90CF90089580E073
:10343000EFCFCF93DF93EC01888D843020F40E948E
:10344000CB1984E0888FDF91CF910895CF93FC0151
:10345000C08D80E591E00E94D70160E270E08C2F82
:103460000E94C61762E070E08C2F0E94B81784FD9E
:1034700016C062E070E08C2F0E94B81783FF0AC06C
:1034800048E162E070E08C2F0E94520480E090E0FE
:10349000CF91089580E591E00E94D701E3CF40E10C
:1034A00062E070E08C2F0E94520481E0F0CF8F9296
:1034B0009F92AF92BF92CF92DF92EF92FF921F93B3
:1034C000CF93DF9300D000D000D0CDB7DEB76C0132
:1034D0005B01FC01808D843010F40E94CB19809137
:1034E000B905811115C094E0F601908F26960FB6AC
:1034F000F894DEBF0FBECDBFDF91CF911F91FF903B
:10350000EF90DF90CF90BF90AF909F908F900895F5
:1035100080E591E00E94D7019E012F5F3F4F790126
:10352000490110E063E070E0812F0E94B817F401B8
:1035300081934F01882309F11F5F143099F710E040
:10354000F70181917F018D3199F0883189F08A519D
:10355000823070F01F5F143099F7F601108F80E011
:10356000143021F2B586A486128E118E81E0BECF72
:1035700060E170E0812F0E94C617812E912C8AEFA6
:1035800090E00E94470942E070E060E0812F0E94D5
:1035900052044FEF62E070E0812F0E945204B501A7
:1035A000A114B10489F480911D0190911E0101962E
:1035B0008115F0EC9F0788F190931E0180931D0107
:1035C00060911D0170911E01812F0E943D0461E0F8
:1035D00070E0812F0E94C61727E0289DC001299D19
:1035E000900D11249C0123563A4F7901F901118263
:1035F0001082AE014B5F5F4F68E270E0812F0E9446
:10360000C2148D819E81982789279827F70193837B
:103610008283168215821482A0CF80E090ECCCCFFA
:103620008091C005882349F08091B905843351F019
:103630008733A9F090E080E008950E94ED1588237B
:10364000C9F3F2CF80E591E00E94D70185E390E0D5
:103650000E94C21585FD0DC082E090E0089580E5CE
:1036600091E00E94D7018EE290E00E94C21580FF97
:10367000F3CF81E090E008951F93CF93DF931F92E3
:10368000CDB7DEB7FC01108D143020F5818D928D01
:10369000892B01F180E591E00E94D701812F0E94E2
:1036A0001E0427E0129FF0011124E356FA4F2281F5
:1036B0003381377041E050E0BE016F5F7F4F820F72
:1036C000931F0E943714898190E00F90DF91CF9172
:1036D0001F9108958FEF9FEFF8CFEF92FF920F9316
:1036E0001F93CF93DF93EC018B0188E2FB011192D2
:1036F0008A95E9F761E08E810E94730860E08E810F
:103700000E94E80788EE93E00E94470961E08E81FD
:103710000E94E80768858E810E94730888E290E025
:103720000E944709E881F9810088F189E02D26E0AF
:1037300030E04AE050E060E0CE0109956E3171055D
:10374000810591056CF4982F872F762F662760618D
:10375000CB01DF91CF911F910F91FF90EF900895D2
:10376000E881F9810088F189E02D26E030E04AE027
:1037700050E061E0CE0109957801F8E2EF0EF11C0E
:10378000623371058105910534F4982F872F762FC8
:1037900066276161DDCFE881F9810088F189E02D3C
:1037A00026E030E04AE050E060E0CE010995683163
:1037B00071058105910534F4982F872F762F6627A0
:1037C0006261C6CFE881F9810088F189E02D26E0A9
:1037D00030E04AE050E061E0CE0109956B307105C0
:1037E0008105910534F4982F872F762F6627636122
:1037F000AFCF21E069327105810591050CF420E01D
:10380000F80121938F01EE16FF0629F6E881F98170
:103810000088F189E02D26E030E04AE050E060E0E9
:10382000CE010995683171058105910534F4982F11
:10383000872F762F662764618BCF70E060E088CF9A
:10384000DF92EF92FF920F931F93CF93DF93CDB749
:10385000DEB728970FB6F894DEBF0FBECDBF8C0140
:10386000D80159964D915C915A974115510551F0E7
:10387000ED91FC91048CF58DE02D70E060E0C801C5
:103880000995EECFF801D08CF7E0DF9EC00111243E
:103890009C0123563A4F7901D9018D919C91892B36
:1038A00059F148E050E0BE016F5F7F4FF801808D15
:1038B0000E94B2181816190694F5D801509684E0A3
:1038C000FE01319601900D928A95E1F78D8190E08D
:1038D000982F88272E81820F911DF801958B848B5C
:1038E0008F81282F30E0322F22278885820F932F57
:1038F000911D928F818F13C080E591E00E94D701C6
:103900008D2D0E94D414D70116962C911697821BE8
:1039100091098D939C93892B21F690E080E0289665
:103920000FB6F894DEBF0FBECDBFDF91CF911F91D0
:103930000F91FF90EF90DF9008956F927F928F929A
:103940009F92AF92BF92CF92DF92EF92FF920F932E
:103950001F93CF93DF93CDB7DEB7EC970FB6F894F4
:10396000DEBF0FBECDBF4C018B013A018AE192E070
:103970009A8389831C861B8648EE53E060E070E0E2
:103980004D875E876F87788B2EED31E03A872987E8
:10399000988F8F8B198E1A8E1B8E1C8E24E029A374
:1039A00099AB88AB1AAA1BAA1CAA1DAA8091BC05B8
:1039B0009091BD05A091BE05B091BF058EA39FA3B8
:1039C000A8A7B9A78B839C83AD83BE8318861F826B
:1039D000F80120E090E080E06AE03191332309F4BF
:1039E0007AC040ED430F4A3008F064C0689FA001E0
:1039F000699F500D1124CA01C097830F911D37FD97
:103A00009A958F3F910549F340F34B815C816D811D
:103A10007E818091330590913405A0913505B09158
:103A20003605481759076A077B0709F428C20E9420
:103A3000F20B6F7077277C5FCE0109960E94571AB0
:103A4000813009F01FC28AE192E09DA38CA38B8193
:103A50009C81AD81BE818EA39FA3A8A7B9A745E392
:103A600050E0BE016C5D7F4FCE0109960E9480063A
:103A7000892B09F04EC010E000E0CE0109960E94AB
:103A8000191A0130110559F1C801EC960FB6F894D6
:103A9000DEBF0FBECDBFDF91CF911F910F91FF9081
:103AA000EF90DF90CF90BF90AF909F908F907F90DE
:103AB0006F9008953E3209F0A8CF233009F4A5CFC6
:103AC000A2E3B0E0AC0FBD1FA20FB11D8C932F5F1E
:103AD00090E080E082CF233009F097CF8DABD40106
:103AE000ED91FC910488F589E02D8AE192E09DA397
:103AF0008CA38AA99BA9ACA9BDA98EA39FA3A8A7A3
:103B0000B9A7A301BE016C5D7F4FC40109958C016B
:103B1000BBCF0E94F20B78876F8342E050E0BE017A
:103B2000695F7F4FCE0109960E94041581E090E005
:103B30009DA38CA342E050E0BE016C5D7F4FCE019F
:103B400009960E94041580E091E09DA38CA342E0B9
:103B500050E0BE016C5D7F4FCE0109960E940415B6
:103B60001DA21CA242E050E0BE016C5D7F4FCE0161
:103B700009960E94041542E050E0BE016C5D7F4F43
:103B8000CE0109960E94041542E050E0BE016C5D32
:103B90007F4FCE0109960E9404157801D8018C91BF
:103BA000882311F18701F80181916F01882311F0B9
:103BB0008E32C1F45801AE18BF081A141B0484F4E5
:103BC000AEAA41E050E0BE016A5C7F4FCE0109968B
:103BD0000E940415A501B701CE0109960E940415A3
:103BE0007601DCCF8601DFCF1EAA41E050E0BE01A6
:103BF0006A5C7F4FCE0109960E94041500E011E037
:103C00001DA30CA342E050E0BE016C5D7F4FCE01CE
:103C100009960E9404151DA30CA342E050E0BE01CA
:103C20006C5D7F4FCE0109960E940415CE01099666
:103C30000E94261A892B09F41ECF83E0E82EF12C6E
:103C4000D7C04B815C816D817E81898D9A8DAB8DD2
:103C5000BC8D481759076A077B0709F00AC18D8D8B
:103C60009E8DC59709F005C18AA19BA10DEF1FEF9D
:103C70000C970CF4B4C04CE050E0BE016C5D7F4F7B
:103C8000CE0109960E9482198EA19FA198278927AB
:103C900098279BAF8AAF4F8158852CA13DA1421731
:103CA000530709F0E9C097FFE7C08F7092700BEFE0
:103CB0001FEF892B09F093C0AAA4BBA4BA24AB249C
:103CC000BA240AEF1FEFA114B10409F488C010E070
:103CD00000E088A599A5982789279827081719072C
:103CE00008F541E050E0BE016A5C7F4FCE010996C5
:103CF0000E9482194EA9442339F050E070E060E040
:103D0000CE0109960E9482198EA98111EACF44E062
:103D100050E070E060E0CE0109960E9482190F5FCA
:103D20001F4FD7CFD12CC12C41E050E0BE01645CC5
:103D30007F4FCE0109960E9482194CAD842F807C62
:103D400009F074C0442339F050E070E060E0CE0127
:103D500009960E9482198CAD8111E6CF42E050E0B5
:103D6000BE01685C7F4FCE0109960E94821942E035
:103D700050E0BE016A5C7F4FCE0109960E94821915
:103D800044E050E070E060E0CE0109960E948219A4
:103D900042E050E0BE01665C7F4FCE0109960E9472
:103DA000821988AD99AD4AAD5BAD8115914009F09E
:103DB00047C00EA91FA910270127102701301105A0
:103DC00009F03EC04115544009F04DC044E050E0B8
:103DD000BE016E5C7F4FCE0109960E948219F1E010
:103DE000EF1AF10809F449CE0F3F100709F045CE4C
:103DF0000E94F20B5B016C01CE0109960E94201C0F
:103E0000181619060CF41DCF0E94F20B6A197B09D3
:103E10008C099D09693873418105910538F562E384
:103E200070E080E090E00E94C00BE6CF41E050E0FF
:103E300070E060E0CE0109960E9482191CAE8BCF23
:103E400054274527542770E060E0CE0109960E9470
:103E50008219EFEFCE1ADE0AAC14BD0409F064CF6C
:103E600006EF1FEFBCCF07EF1FEFB9CF0FEF1FEF2C
:103E7000B6CF0EEF1FEFB3CF0CEF1FEFB0CF0EEFAB
:103E80001FEF02CE10E000E0FFCDFC0180819181A8
:103E90000C94D3300E94E930FB0101900020E9F737
:103EA0003197AF01461B570BDC01ED91FC9102806D
:103EB000F381E02D09946EE372E08BE696E00C94BA
:103EC0004C1FCF93DF930E94AB01EC010E945B1F5C
:103ED0008C0F9D1FDF91CF91089588E690E00C94A0
:103EE000611FCF93DF93682F8BE696E00E94B307A4
:103EF000EC010E945B1F8C0F9D1FDF91CF910895F5
:103F00006115710511F00C944C1F90E080E008954C
:103F1000BC018BE696E00C94801FCF93DF93BC012D
:103F20008BE696E00E94801FEC010E945B1F8C0FC5
:103F30009D1FDF91CF9108958F929F92AF92BF9274
:103F4000EF92FF920F931F93CF93DF93CDB7DEB71E
:103F5000A1970FB6F894DEBF0FBECDBF7C01FA016A
:103F6000CB0119A2223008F42AE08E010F5D1F4F09
:103F7000822E912CB12CA12CBF01A50194010E948D
:103F8000A230F901CA016A30ECF4605DD8016E9389
:103F90008D01232B242B252B79F7BD01C7010E940E
:103FA000801FA1960FB6F894DEBF0FBECDBFDF9184
:103FB000CF911F910F91FF90EF90BF90AF909F9086
:103FC0008F900895695CE2CFCF92DF92EF92FF92DB
:103FD000CF93DF93AB01BC0177FF1DC06A017C0169
:103FE0006DE28BE696E00E94B307EC01442755276B
:103FF000BA014C195D096E097F092AE08BE696E04B
:104000000E949C1F8C0F9D1FDF91CF91FF90EF901E
:10401000DF90CF9008952AE08BE696E0DF91CF9174
:10402000FF90EF90DF90CF900C949C1FAC0170E05C
:1040300060E02AE08BE696E00C949C1F462F50E04F
:1040400070E060E02AE00C949C1FCF93DF93682F10
:104050008BE696E00E941E20EC010E945B1F8C0FF5
:104060009D1FDF91CF9108958F929F92AF92BF9243
:10407000CF92DF92EF92FF920F931F93CF93DF9334
:104080007C018B014C0182E0880E911C5701E5E018
:10409000AE0EB11CD0E0C0E0F40161914F01C80147
:1040A0000E941E206C016EE2C8010E94B3078C0DB5
:1040B0009D1DC80FD91F8A149B0471F7F7016581F4
:1040C000C8010E941E208C0F9D1FDF91CF911F9170
:1040D0000F91FF90EF90DF90CF90BF90AF909F90A7
:1040E0008F9008954F925F926F927F928F929F92DE
:1040F000AF92BF92CF92DF92EF92FF920F931F93F6
:10410000CF936B017C01742EAC019B010E9417328E
:1041100061E472E0811126C046015701E894B7F8C6
:104120002FEF3FEF4FE75FE7C501B4010E94173261
:1041300081110CC02FEF3FEF4FE75FE7C501B401DE
:104140000E94512F65E472E0181664F02FEF3FEFE4
:104150004FE75FE4C701B6010E9412321816ACF4B3
:1041600069E472E08BE696E0CF911F910F91FF908A
:10417000EF90DF90CF90BF90AF909F908F907F9007
:104180006F905F904F900C944C1F2FEF3FEF4FE7D5
:104190005FECC701B6010E94512F87FDE1CF20E0FF
:1041A00030E0A901C701B6010E94512F10E000E0E4
:1041B00087FF0AC06DE28BE696E00E94B3078C0190
:1041C000F7FAF094F7F8F094C0E060E070E080E077
:1041D0009FE37C1641F020E030E040E251E40E9491
:1041E0006A31CF5FF6CFA70196010E94FE302B0106
:1041F0003C010E94E3314B015C012AE0BC01A401B7
:104200008BE696E00E949C1F7C01E00EF11ECC2301
:10421000A9F1C501B4010E94562F9B01AC01C30155
:10422000B2010E94FD304B015C016EE28BE696E02C
:104230000E94B307E80EF91EC15000F120E030E003
:1042400040E251E4C501B4010E94B72F2B013C01AB
:104250000E94E3314B01CB010E941620E80EF91EAB
:10426000B40190E080E00E94562F9B01AC01C30195
:10427000B2010E94FD304B015C01DECFC701CF913E
:104280001F910F91FF90EF90DF90CF90BF90AF9074
:104290009F908F907F906F905F904F9008951F92A6
:1042A0000F920FB60F9211242F933F934F935F936A
:1042B0006F937F938F939F93AF93BF93EF93FF93EE
:1042C0008091B900887F803609F44AC0F0F58832C1
:1042D00009F4A7C018F5803109F49BC0B8F488230D
:1042E00009F4F9C0883009F494C0FF91EF91BF91AF
:1042F000AF919F918F917F916F915F914F913F917E
:104300002F910F900FBE0F901F901895883109F4D0
:1043100088C0803251F78093430614C0803409F47A
:104320009DC040F48033B9F38833F9F68093430697
:1043300085ECB0C0803509F485C0883509F496C095
:10434000883499F60E94FF13D0CF883909F48CC0C5
:1043500038F5883729F050F4883611F0803729F67F
:1043600083E0809365061092960557C0883809F45B
:104370007BC0803919F0803809F0B7CF809196055D
:10438000803208F071C0E091960581E08E0F809335
:1043900096058091BB00F0E0EA58FA4F80833DC05B
:1043A000803B39F0E0F4803A09F479C0883A09F0AA
:1043B0009CCF84E080936506109275051092740579
:1043C000E091C105F091C2050995809174058111B4
:1043D0000FC081E0809374051092540509C0803CA1
:1043E00009F4A6CF883C09F4A3CF883B09F07DCF20
:1043F000E091750581E08E0F80937505F0E0EC5A31
:10440000FA4F80818093BB0090917505809174056F
:1044100029C0809140068093BB0085EC8093BC004E
:1044200064CF9091420680914106981758F5E0912B
:10443000420681E08E0F80934206F0E0E15EF94F84
:104440008081E9CFE091420681E08E0F80934206A1
:104450008091BB00F0E0E15EF94F808390914206CD
:10446000809141069817C8F285E8D8CFE0914206BE
:1044700081E08E0F809342068091BB00F0E0E15E08
:10448000F94F80838091440681115CCF81E0809355
:104490003F0684EA8093BC001092650626CF85EC27
:1044A0008093BC001092650680919605803230F4AE
:1044B000E0919605F0E0EA58FA4F10826091960577
:1044C00070E0E091C305F091C40586E795E0099599
:1044D000109296050ACF1092430634CF1F920F9286
:1044E0000FB60F9211242F933F934F935F936F93C7
:1044F0007F938F939F93AF93BF93EF93FF938BE63D
:1045000096E00E941007FF91EF91BF91AF919F91AC
:104510008F917F916F915F914F913F912F910F906C
:104520000FBE0F901F9018951F920F920FB60F920B
:1045300011242F938F939F93EF93FF93E0917B062A
:10454000F0917C068081E0918106F091820682FDE7
:104550001BC09081809184068F5F8F7320918506A8
:10456000821741F0E0918406F0E0E559F94F958F0C
:1045700080938406FF91EF919F918F912F910F90DF
:104580000FBE0F901F9018958081F4CF1F920F924D
:104590000FB60F9211242F933F938F939F93AF9356
:1045A000BF9380916B0390916C03A0916D03B091C8
:1045B0006E0330916A0323E0230F2D3758F50196DF
:1045C000A11DB11D20936A0380936B0390936C032C
:1045D000A0936D03B0936E0380916F03909170036D
:1045E000A0917103B09172030196A11DB11D80933A
:1045F0006F0390937003A0937103B0937203BF9104
:10460000AF919F918F913F912F910F900FBE0F907F
:104610001F90189526E8230F0296A11DB11DD2CF39
:10462000E7E9F5E08AE192E09183808312821382C8
:10463000148215820895EFEEF5E01382128288EE5F
:1046400093E0A0E0B0E084839583A683B78388E0FD
:1046500092E0918380830895EDE4F5E08AE192E0B1
:104660009183808312821382148215820895E7E475
:10467000F5E08AE192E091838083128213821482B2
:1046800015820895EDE3F5E08AE192E0918380835D
:1046900012821382148215820895E7E3F5E08AE11D
:1046A00092E091838083128213821482158208958E
:1046B000E4E1F7E08FEF8083128211821486138683
:1046C0008FEF9FEFDC0187839087A187B2870895E2
:1046D000E1E3F5E08AE192E0918380831282138224
:1046E000148215820895EBE2F5E08AE192E091836D
:1046F00080831282138214821582EAEBF5E09183A3
:10470000808312821382148215820895E5E2F5E017
:104710008AE192E09183808312821382148215824F
:104720000895EBE6F6E01382128288EE93E0A0E0B3
:10473000B0E084839583A683B78387E691E0918375
:10474000808385EC90E09587848784EC90E0978760
:10475000868780EC90E0918B808B81EC90E0938B4E
:10476000828B82EC90E0958B848B86EC90E0978B2B
:10477000868B118E128E138E148E08950895DF92FB
:10478000EF92FF920F931F93CF93DF93E4E6F3E052
:104790000AE112E0118300831282138214821582CF
:1047A000E3E7F3E01183008380ECD82ED28298EA0D
:1047B000E92EE382FF24F394F48281EB8583E0E920
:1047C000F3E01382128288EE93E0A0E0B0E08483ED
:1047D0009583A683B7838EED91E0918380831787BD
:1047E0000687108A118A128A138A84E0808F90E0EB
:1047F00080E00E94D33090E09093C4038093C30381
:10480000C5E8D3E08FE291E09983888380E291EA62
:10481000A7E0B0E08A839B83AC83BD838FEF9FEFDB
:104820009F838E83188689878A8762E070E0CE0135
:104830000E9443068BE491E099838883EBEAF3E0DE
:1048400011830083D282E382F48284EB8583DF913B
:10485000CF911F910F91FF90EF90DF9008950E94EC
:1048600010230E941B230E942C230E9437230E94A6
:1048700042230E944D230E9458230E9468230E94D5
:1048800073230E9486230E9491230C94BF23CF930D
:10489000DF93CDB7DEB7C455D1090FB6F894DEBFAC
:1048A0000FBECDBF0E940C0961E08DE00E9473082D
:1048B00061E089E00E94730861E088E00E9473086B
:1048C0008AE192E09A8389838091750390917603BF
:1048D000A0917703B09178038B839C83AD83BE83D3
:1048E000CE0101960E940A17E0917B06F0917C06AA
:1048F00012E01083E0917706F09178061082E09143
:104900007906F0917A068FEC808310928306E0910D
:104910007F06F091800686E08083E0917D06F0912D
:104920007E06808180618083E0917D06F0917E0625
:10493000808188608083E0917D06F0917E06808191
:1049400080688083E0917D06F0917E0680818F7D76
:1049500080831092EE051092ED051092FC051092E6
:10496000FE050E9434080E9470020E94680260E006
:104970008EE00E94380B0E94A51129833A834B8355
:104980005C838F838FE18D831E8362E0CE0101966D
:104990000E942D1261E0CE0101960E942D126296B6
:1049A0001FAE62971986BE01675F7F4F8FE00E943E
:1049B00018126985862F837021F06C7F8FE00E942A
:1049C000380B62968FAD6297882379F0BE016F5ADB
:1049D0007F4F8EE00E941812882339F062966FADE7
:1049E00062976F778EE00E94380B0E94DA010E9476
:1049F000DA010E94DA010E94DA018EE18093140745
:104A00001092C7051092C8051092C9051092CA05E8
:104A10001092CB051092CC051092CD051092CE05C8
:104A20001092CF051092D00580E88093D1051092A6
:104A3000D2050E94FE0B8DE890E00E94611F68EB9A
:104A400072E280E993E00E94571A6AE1662E62E002
:104A5000762E0E94F20B0091790310917A03209137
:104A60007B0330917C030617170728073907C0F42A
:104A700030E020E041E853E062EB73E085E893E04A
:104A80000E9492040E94F20B68577C4E8F4F9F4FFA
:104A90006093790370937A0380937B0390937C03F4
:104AA0000E94F20B00917D0310917E0320917F0301
:104AB00030918003061717072807390708F05BC0F5
:104AC0008091ED03882309F456C030E020E041E8EE
:104AD00053E062EB73E085E893E00E9492046091FA
:104AE000B2037091B3038091B4039091B50342E097
:104AF0000E9472208DE492E00E94881F26E636E62E
:104B000046EE5FE36091B2037091B3038091B4030A
:104B10009091B5030E94B72F20E030E040E052E4CE
:104B20000E94FE300E94DC31072E000C880B990B8E
:104B30000E94E41F83E592E00E94881F6091810338
:104B400070918203809183039091840342E00E94DC
:104B5000722089E592E00E948D1F0E94F20B685737
:104B60007C4E8F4F9F4F60937D0370937E038093A5
:104B70007F03909380030E94A51129873A874B8772
:104B80005C876D877E878F873111B6C00E94A51123
:104B90002DA33EA34FA358A769A77AA78BA72111DE
:104BA000CFC030E020E041E853E062EB73E085E8FD
:104BB00093E00E9492046091B2037091B3038091DC
:104BC000B4039091B5030E94DC317A8369836091CC
:104BD00081037091820380918303909184030E94EA
:104BE000DC316B830E94A5112CA73DA74EA75FA7C0
:104BF00068AB79AB8AAB4C830E94A5112BAB3CAB65
:104C00004DAB5EAB6FAB78AF89AF3D830E94A51112
:104C10002AAF3BAF4CAF5DAF6EAF7FAF21968FAF8A
:104C200021978E830E94A51122962FAF229723965B
:104C30003FAF239724964FAF249725965FAF2597D4
:104C400026966FAF269727967FAF279728968FAF28
:104C500028977F830E94A51129962FAF29972A961E
:104C60003FAF2A972B964FAF2B972C965FAF2C9781
:104C70002D966FAF2D972E967FAF2E972F968FAFD5
:104C80002F976887E090C303F090C40387010F5FFC
:104C90001F4F9E012F5F3F4F690139E0E30EF11C6A
:104CA00061961FAF0EAF6197D601BD906D01CE0129
:104CB000815B9F4F0E94451FB81621F06B2DC801E4
:104CC0000E94DB300F5F1F4FE016F10649F760913D
:104CD000C3037091C403685F7F4F7093C4036093F4
:104CE000C30390E080E00E94DB306CE474E080E07D
:104CF00090E00E94C00B24C00E94A511288B398B24
:104D00004A8B5B8B6C8B7D8B8E8B3F3009F43ECF57
:104D10000E94A5112F8B388F498F5A8F6B8F7C8FF4
:104D20008D8F3E3109F432CF0E94A5112E8F3F8F17
:104D300048A359A36AA37BA38CA33D3209F426CFD1
:104D40000E946B100E94B2100E9429130E94B6129A
:104D50000E94F20B60932105709322058093230536
:104D60009093240580E993E00E94201C892B09F48C
:104D700045C081E08093200548E150E065EC73E098
:104D800080E993E00E94731185EC93E00E94881FF4
:104D90008FED90E00E94AB0180E0E82FF0E0DF01B2
:104DA000AB53BC4F9C91EE5FFA4F992319F090835F
:104DB0008F5FF3CF10824091A4035091A5037A82B4
:104DC00069828091A0039091A103A091A203B09168
:104DD000A3038B839C83AD83BE83BE016F5F7F4F34
:104DE00080E993E00E94800662E071E080E993E050
:104DF0000E94801F80E993E00E94261A809120057E
:104E000010E0882319F0109220051DE026E636E612
:104E100046EE5FE36091B2037091B3038091B403F7
:104E20009091B5030E94B72F20E030E040E052E4BB
:104E30000E94FE300E94DC318091B1036D33710518
:104E40000CF052C0853069F185E08093B1037A821D
:104E500069828091AD039091AE03A091AF03B091B0
:104E6000B0038B839C83AD83BE834AE559EDBE01BD
:104E70006F5F7F4F80E993E00E9480066EE572E0ED
:104E800080E993E00E94801F80E993E00E94261A47
:104E90008FEF8093CE051092CD058093CF050E94B1
:104EA000FE0BE091B905E353E53008F4DCC088E976
:104EB00092E00E948D1F1092CA051092CB051092AD
:104EC000CC050E94FE0B8091B9058353E82FF0E0DA
:104ED000EB58FE4F8530F0F790819923D9F30E946B
:104EE000101B029781F3D4C06734710564F58630D6
:104EF000C1F286E08093B1037A8269828091AD032A
:104F00009091AE03A091AF03B091B0038B839C83CB
:104F1000AD83BE834AE559EDBE016F5F7F4F80E9E7
:104F200093E00E9480066AE672E080E993E00E94C6
:104F3000801F80E993E00E94261A1092CD051092FE
:104F4000CE058FEFAACF613571057CF5873009F466
:104F5000A8CF87E08093B1037A8269828091AD0304
:104F60009091AE03A091AF03B091B0038B839C836B
:104F7000AD83BE834AE559EDBE016F5F7F4F80E987
:104F800093E00E94800666E772E080E993E00E9469
:104F9000801F80E993E00E94261A8FEF8093CD0551
:104FA0001092CE051092CF057ACF6B35710574F54E
:104FB000883009F476CF88E08093B1037A826982E1
:104FC0008091AD039091AE03A091AF03B091B00377
:104FD0008B839C83AD83BE834AE559EDBE016F5F31
:104FE0007F4F80E993E00E94800662E872E080E9EA
:104FF00093E00E94801F80E993E00E94261A8FEFC1
:105000008093CE058BE48093CD05CCCF893009F415
:1050100048CF89E08093B1037A8269828091AD03A1
:105020009091AE03A091AF03B091B0038B839C83AA
:10503000AD83BE834AE559EDBE016F5F7F4F80E9C6
:1050400093E00E9480066DE872E080E993E00E94A0
:10505000801F80E993E00E94261A1092CD0580E817
:105060008093CE059FCFF0E0EB58FE4F80818823E0
:1050700009F41DCF0E94101B029709F418CF10925B
:10508000CA051092CB058FEF8093CC050E94FE0BD2
:105090008BE696E00E9404077C01892B09F441C04D
:1050A0008BE696E00E94E2060E94EE30182FE2E0C6
:1050B000F5E0CF018250954021912111FACF992737
:1050C000FC01EE5FFA4F10838D5F9A4FFC01108256
:1050D0001F3709F582EB92E00E94881F81E592E07C
:1050E0000E94881F82EB92E00E94881FE2E0F5E0B8
:1050F000CF018250954021912111FACF009759F0AC
:10510000FC01EF5FFA4F20812F3729F41082805085
:105110009B4FDC011C92612F8BE696E00E94B30747
:10512000B7CF1D3009F064C20E945B1F00910105DA
:105130001091000542E0C42E45E0D42E5EE1B52E6C
:10514000C60182509540E2E0F5E09F0122503540D3
:1051500041914111FACF8217930754F5F601A190BE
:105160006F018A2D0A2C000C990B0E94482F892B65
:1051700051F4B09EF0011124EE50FC4FE10FF11DEF
:10518000A0821F5FDDCFF60132978081082E000CD0
:10519000990B0E94482F892B99F6B09EF00111249B
:1051A000EE50FC4FE10FF11D10820F5F10E0C8CFF1
:1051B000009301051093000522EF222E23E0322EEA
:1051C00034EEA32E33E0B32E810163961FAE6397B6
:1051D000512CD12CCC24CA94D8014C90842D042C71
:1051E000000C990BFC01F0976596FFAFEEAF659749
:1051F0009AE7892E91E0992ED4018C91481273C0C0
:10520000F801918111968C9198136DC09F01201B1C
:10521000310B81918111FACFD40112968C911297A2
:10522000082E000C990B8217930709F05CC01396A7
:105230008C91F50180832FEF2183E4E08E0E911C89
:105240002AED31E028153905B9F6D394025E1F4FD7
:105250003FEFA31AB30A89E0D812BECFE2E0F5E02F
:105260008EE1DF011D928A95E9F7809121059091E9
:105270002205A0912305B09124054091EE035091A1
:10528000EF036091F0037091F103841B950BA60B63
:10529000B70B853F9140A105B10508F470C110928C
:1052A000ED03E091E403E150E73108F066C1F0E07E
:1052B000E45AF64D0C944C32862ABD2ABD2ABD2AEA
:1052C000B02ABD2ABD2A922C482BBD2A712C0F2C46
:1052D000BD2ABD2ABD2A3C2D202EA12DC92DBD2AB7
:1052E000BD2ABD2A2B2F8091E4036596AEADBFADDC
:1052F00065971A9728F1823109F09FCFBDE24B12D2
:105300009CCFF8018181082E000C990BC0970A9759
:1053100008F093CF21E0D21248C0C8010E94F710D4
:105320009B01AC01215030484F4F5F4F2F3F3F4F03
:105330004105510508F45BC0552009F47ECF5BC0E0
:105340008830E1F48091E503843009F05DC0EDE040
:10535000D501EC93C8010E94F7109B01AB01BC0181
:1053600041155105F1E06F07710508F066CF5093C4
:10537000E7032093E803C092E9035FCF823151F243
:10538000833109F05ACF3DE03093E503C8010E9414
:1053900043118F3F910509F0A4F5D50111968C9327
:1053A0001197EFEF1296EC9348CFB2E0DB12C4CF27
:1053B000C8010E94F7109B01AC01215030484F4FAB
:1053C0005F4F2F3F3F4F4105510508F0B5CF709318
:1053D000E7036093E803552009F493C0C092E90302
:1053E000F1E06396FFAF63975524539426CF7093F3
:1053F000E5036093E60363962FAD63972223A1F341
:10540000EDCFC092E40319CF8F3009F016CFF2E050
:10541000DF1215C0C8010E9443119C0121503109BF
:105420002C30310548F0C092E40380911001809344
:10543000E603C092EC0301CF80931001F6CF23E086
:10544000D21213C0C8010E9443119C01215031099E
:105450002F31310538F0C092E40380910F01809321
:10546000E703E7CF80930F01F8CF34E0D31210C0E9
:10547000C8010E9443118436910538F0C092E403BC
:105480008091B9038093E803D4CF8093B903F8CF18
:1054900085E0D81210C0C8010E94431188319105DF
:1054A00038F0C092E4038091B8038093E903C1CF40
:1054B0008093B803F8CF96E0D91210C0C8010E94BB
:1054C00043118C33910538F0C092E4038091B70307
:1054D0008093EA03AECF8093B703F8CFA7E0DA1248
:1054E000A8CFC8010E9443118C33910538F0C092B7
:1054F000E4038091B6038093EB039BCF8093B603C4
:10550000F8CFB1E06396BFAF639797CE8091E50384
:10551000833091F08430D1F0823079F58091E603C8
:105520008F3F59F51092E30381E08093BA0361E065
:105530008DE00E94E80723C08091E6038F3FE9F4E5
:105540001092E3031092BA0360E0F2CF8091E60379
:105550008F3F99F481E08093E3030E94B2100FC063
:105560008091E503863009F462C008F04EC08330B4
:1055700009F475C0843009F47EC00E946D1FE5EC0B
:10558000F3E08DED93E011928E179F07E1F7809184
:10559000210590912205A0912305B09124058093C7
:1055A000EE039093EF03A093F003B093F1038AE02E
:1055B0009101215E3F4FF10111922E173F07E1F754
:1055C00081509EE1290E311C8111F2CF1092E4032B
:1055D0001092E5031092E6031092E7031092E8039D
:1055E0001092E9031092EA031092EB031092EC037D
:1055F00080E090E0892B09F42CCA0E949F07882341
:1056000009F423CA0E94000020CA8730E1F08E30DE
:1056100009F0B3CF8091E6038F3F09F0AECF10922F
:10562000E10381E08093E2030E94B612A8CF80914B
:10563000E6038F3F09F0A1CF1092E2031092E1033D
:105640000E94A7129CCF8091E6038F3F09F095CF6F
:105650001092E2031092E1030E94981290CF809181
:10566000E6038F3F09F089CF1092E2031092E10325
:105670000E948B1284CF8091E6038F3F09F07DCF8B
:105680001092E20381E08093E1030E94291377CF17
:105690008091E5038A3009F070CF8091E6038F3F57
:1056A00009F06BCF82E391E00E94AB018091E303AC
:1056B000882309F45AC089E291E00E94611F8BE1BE
:1056C00091E00E94AB019091E1038091E203992364
:1056D00009F458C0811175C081E191E00E94AB01CD
:1056E00080911201823509F04AC08DE091E00E945C
:1056F000611F8091DE03882309F46BC082EC92E085
:105700000E94881F80911B0190911C010E9416200D
:1057100060E28BE696E00E94B307809119019091B8
:105720001A010E94162060E28BE696E00E94B30701
:1057300080911701909118010E94162089E20E9421
:10574000711F83EE92E00E94881F409113015091D7
:10575000140160911501709116012AE08BE696E024
:105760000E949C1F0E945B1F0ACF8091BA0388236E
:1057700019F086E291E0A1CF82E291E09ECF87E02E
:1057800091E0B5CF81111DC080911201823551F495
:1057900080911101823519F483E091E0A8CF8FEF59
:1057A00090E0A5CF873451F480911101873419F42A
:1057B00089EF90E09CCF85EF90E099CF81EF90E06A
:1057C00096CF882309F495CF86EB92E00E948D1F37
:1057D00090CF83ED92E00E94881F8091C2038823BE
:1057E000C9F08AED92E00E94881F80911B01909180
:1057F0001C010E94162080E592E00E94881F809183
:10580000190190911A010E94162080E592E00E94F1
:10581000881F8ECF8FED92E00E948D1F92CF8091D6
:10582000E5038F3F09F0A9CE8CE992E00E94611F49
:1058300083E992E00E94611F89E892E00E94611F63
:105840008DE792E00E94611F81E792E00E94611F54
:1058500087E692E00E94611F8DE592E00E94611F41
:1058600081E592E00E94611F81E492E00E94611F45
:105870008CE292E00E94611F8EE192E00E94611F23
:105880008FE092E00E94611F86ED91E00E94611F0F
:1058900087EC91E00E94611F88EB91E00E94611FFC
:1058A00088EA91E00E94611F8EE891E00E94611FEA
:1058B00083E791E00E94611F8AE691E00E94611FE8
:1058C00080E691E00E94611F84E591E00E94611FE3
:1058D0008AE491E00E94611F83E491E00E94611FCD
:1058E00041CF8091E5038F3F09F047CE89E391E0F6
:1058F0000E94AB0161E08BE696E00E941E206EE202
:105900008BE696E00E94B30760E08BE696E00E948B
:105910001E206EE28BE696E00E94B30781E00E94B3
:1059200025202DCE8091E503843009F474C08F309A
:1059300009F023CE8091EC038F3F09F01ECE8091B9
:10594000E6038093C0038091E7038093BF038091B7
:10595000E8038093C1038091E9038093BD038091A4
:10596000EA038093BC038091EB038093BB0381E047
:105970008093FB0588E68093FD051092FC0510924C
:10598000FE0590E080E00E94CC018091BB030E9464
:105990005606682F8FEE95E00E94F6028091BC03B8
:1059A0000E945606682F8FEE95E00E94F6028091C5
:1059B000BD030E945606682F8FEE95E00E94F60206
:1059C0008091BE03811101C081E00E945606682FBC
:1059D0008FEE95E00E94F6028091BF030E9456066A
:1059E000682F8FEE95E00E94F6028091C0030E941E
:1059F0005606682F8FEE95E00E94F6028091C10353
:105A00000E945606682F8FEE95E00E94F60281E014
:105A10000E942A0BB4CD8091E6038D3009F0ADCD04
:105A20008091E9038F3F09F0A8CD8091E10388239D
:105A300019F081E08093E0038091E303882319F05B
:105A400081E08093DF038091DE03882319F081E0F9
:105A50008093DD038091E7039091E80398278927DD
:105A60009827B0E0A0E08093130190931401A093D5
:105A70001501B093160183CD8091E5038F3061F05D
:105A8000813109F07ACD8091E6038F3F09F075CD21
:105A900081E08093ED0373CD8091E6038F3F09F0A1
:105AA0006CCD0E94A5112093BB033093BC0340939F
:105AB000BD035093BE036093BF037093C0038093F4
:105AC000C103672F8BE696E00E941E206FE28BE6F3
:105AD00096E00E94B3076091BF038BE696E00E94B8
